{
  "contractName": "NFTMembershipToken",
  "abi": [
    {
      "inputs": [],
      "stateMutability": "nonpayable",
      "type": "constructor"
    },
    {
      "anonymous": false,
      "inputs": [
        {
          "indexed": true,
          "internalType": "address",
          "name": "account",
          "type": "address"
        },
        {
          "indexed": true,
          "internalType": "address",
          "name": "operator",
          "type": "address"
        },
        {
          "indexed": false,
          "internalType": "bool",
          "name": "approved",
          "type": "bool"
        }
      ],
      "name": "ApprovalForAll",
      "type": "event"
    },
    {
      "anonymous": false,
      "inputs": [
        {
          "indexed": true,
          "internalType": "address",
          "name": "owner",
          "type": "address"
        },
        {
          "indexed": true,
          "internalType": "uint256",
          "name": "tokenId",
          "type": "uint256"
        },
        {
          "indexed": false,
          "internalType": "string",
          "name": "metadataURI",
          "type": "string"
        }
      ],
      "name": "NFTMinted",
      "type": "event"
    },
    {
      "anonymous": false,
      "inputs": [
        {
          "indexed": true,
          "internalType": "address",
          "name": "previousOwner",
          "type": "address"
        },
        {
          "indexed": true,
          "internalType": "address",
          "name": "newOwner",
          "type": "address"
        }
      ],
      "name": "OwnershipTransferred",
      "type": "event"
    },
    {
      "anonymous": false,
      "inputs": [
        {
          "indexed": true,
          "internalType": "address",
          "name": "operator",
          "type": "address"
        },
        {
          "indexed": true,
          "internalType": "address",
          "name": "from",
          "type": "address"
        },
        {
          "indexed": true,
          "internalType": "address",
          "name": "to",
          "type": "address"
        },
        {
          "indexed": false,
          "internalType": "uint256[]",
          "name": "ids",
          "type": "uint256[]"
        },
        {
          "indexed": false,
          "internalType": "uint256[]",
          "name": "values",
          "type": "uint256[]"
        }
      ],
      "name": "TransferBatch",
      "type": "event"
    },
    {
      "anonymous": false,
      "inputs": [
        {
          "indexed": true,
          "internalType": "address",
          "name": "operator",
          "type": "address"
        },
        {
          "indexed": true,
          "internalType": "address",
          "name": "from",
          "type": "address"
        },
        {
          "indexed": true,
          "internalType": "address",
          "name": "to",
          "type": "address"
        },
        {
          "indexed": false,
          "internalType": "uint256",
          "name": "id",
          "type": "uint256"
        },
        {
          "indexed": false,
          "internalType": "uint256",
          "name": "value",
          "type": "uint256"
        }
      ],
      "name": "TransferSingle",
      "type": "event"
    },
    {
      "anonymous": false,
      "inputs": [
        {
          "indexed": false,
          "internalType": "string",
          "name": "value",
          "type": "string"
        },
        {
          "indexed": true,
          "internalType": "uint256",
          "name": "id",
          "type": "uint256"
        }
      ],
      "name": "URI",
      "type": "event"
    },
    {
      "inputs": [
        {
          "internalType": "address",
          "name": "account",
          "type": "address"
        },
        {
          "internalType": "uint256",
          "name": "id",
          "type": "uint256"
        }
      ],
      "name": "balanceOf",
      "outputs": [
        {
          "internalType": "uint256",
          "name": "",
          "type": "uint256"
        }
      ],
      "stateMutability": "view",
      "type": "function"
    },
    {
      "inputs": [
        {
          "internalType": "address[]",
          "name": "accounts",
          "type": "address[]"
        },
        {
          "internalType": "uint256[]",
          "name": "ids",
          "type": "uint256[]"
        }
      ],
      "name": "balanceOfBatch",
      "outputs": [
        {
          "internalType": "uint256[]",
          "name": "",
          "type": "uint256[]"
        }
      ],
      "stateMutability": "view",
      "type": "function"
    },
    {
      "inputs": [
        {
          "internalType": "address",
          "name": "account",
          "type": "address"
        },
        {
          "internalType": "address",
          "name": "operator",
          "type": "address"
        }
      ],
      "name": "isApprovedForAll",
      "outputs": [
        {
          "internalType": "bool",
          "name": "",
          "type": "bool"
        }
      ],
      "stateMutability": "view",
      "type": "function"
    },
    {
      "inputs": [],
      "name": "owner",
      "outputs": [
        {
          "internalType": "address",
          "name": "",
          "type": "address"
        }
      ],
      "stateMutability": "view",
      "type": "function"
    },
    {
      "inputs": [],
      "name": "renounceOwnership",
      "outputs": [],
      "stateMutability": "nonpayable",
      "type": "function"
    },
    {
      "inputs": [
        {
          "internalType": "address",
          "name": "from",
          "type": "address"
        },
        {
          "internalType": "address",
          "name": "to",
          "type": "address"
        },
        {
          "internalType": "uint256[]",
          "name": "ids",
          "type": "uint256[]"
        },
        {
          "internalType": "uint256[]",
          "name": "amounts",
          "type": "uint256[]"
        },
        {
          "internalType": "bytes",
          "name": "data",
          "type": "bytes"
        }
      ],
      "name": "safeBatchTransferFrom",
      "outputs": [],
      "stateMutability": "nonpayable",
      "type": "function"
    },
    {
      "inputs": [
        {
          "internalType": "address",
          "name": "from",
          "type": "address"
        },
        {
          "internalType": "address",
          "name": "to",
          "type": "address"
        },
        {
          "internalType": "uint256",
          "name": "id",
          "type": "uint256"
        },
        {
          "internalType": "uint256",
          "name": "amount",
          "type": "uint256"
        },
        {
          "internalType": "bytes",
          "name": "data",
          "type": "bytes"
        }
      ],
      "name": "safeTransferFrom",
      "outputs": [],
      "stateMutability": "nonpayable",
      "type": "function"
    },
    {
      "inputs": [
        {
          "internalType": "address",
          "name": "operator",
          "type": "address"
        },
        {
          "internalType": "bool",
          "name": "approved",
          "type": "bool"
        }
      ],
      "name": "setApprovalForAll",
      "outputs": [],
      "stateMutability": "nonpayable",
      "type": "function"
    },
    {
      "inputs": [
        {
          "internalType": "bytes4",
          "name": "interfaceId",
          "type": "bytes4"
        }
      ],
      "name": "supportsInterface",
      "outputs": [
        {
          "internalType": "bool",
          "name": "",
          "type": "bool"
        }
      ],
      "stateMutability": "view",
      "type": "function"
    },
    {
      "inputs": [
        {
          "internalType": "address",
          "name": "newOwner",
          "type": "address"
        }
      ],
      "name": "transferOwnership",
      "outputs": [],
      "stateMutability": "nonpayable",
      "type": "function"
    },
    {
      "inputs": [
        {
          "internalType": "string",
          "name": "_metadataURI",
          "type": "string"
        }
      ],
      "name": "mint",
      "outputs": [],
      "stateMutability": "nonpayable",
      "type": "function"
    },
    {
      "inputs": [
        {
          "internalType": "address",
          "name": "_owner",
          "type": "address"
        }
      ],
      "name": "hasMintedNFT",
      "outputs": [
        {
          "internalType": "bool",
          "name": "",
          "type": "bool"
        }
      ],
      "stateMutability": "view",
      "type": "function"
    },
    {
      "inputs": [
        {
          "internalType": "uint256",
          "name": "_id",
          "type": "uint256"
        }
      ],
      "name": "uri",
      "outputs": [
        {
          "internalType": "string",
          "name": "",
          "type": "string"
        }
      ],
      "stateMutability": "view",
      "type": "function"
    }
  ],
  "bytecode": "0x60806040525f60045534801562000014575f80fd5b506040518060400160405280601481526020017f4e4654204d656d6265727368697020546f6b656e0000000000000000000000008152506200005c816200011160201b60201c565b505f6200006e6200012660201b60201c565b90508060035f6101000a81548173ffffffffffffffffffffffffffffffffffffffff021916908373ffffffffffffffffffffffffffffffffffffffff1602179055508073ffffffffffffffffffffffffffffffffffffffff165f73ffffffffffffffffffffffffffffffffffffffff167f8be0079c531659141344cd1fd0a4f28419497f9722a3daafe3b4186f6b6457e060405160405180910390a35062000475565b806002908162000122919062000391565b5050565b5f33905090565b5f81519050919050565b7f4e487b71000000000000000000000000000000000000000000000000000000005f52604160045260245ffd5b7f4e487b71000000000000000000000000000000000000000000000000000000005f52602260045260245ffd5b5f6002820490506001821680620001a957607f821691505b602082108103620001bf57620001be62000164565b5b50919050565b5f819050815f5260205f209050919050565b5f6020601f8301049050919050565b5f82821b905092915050565b5f60088302620002237fffffffffffffffffffffffffffffffffffffffffffffffffffffffffffffffff82620001e6565b6200022f8683620001e6565b95508019841693508086168417925050509392505050565b5f819050919050565b5f819050919050565b5f62000279620002736200026d8462000247565b62000250565b62000247565b9050919050565b5f819050919050565b620002948362000259565b620002ac620002a38262000280565b848454620001f2565b825550505050565b5f90565b620002c2620002b4565b620002cf81848462000289565b505050565b5b81811015620002f657620002ea5f82620002b8565b600181019050620002d5565b5050565b601f82111562000345576200030f81620001c5565b6200031a84620001d7565b810160208510156200032a578190505b620003426200033985620001d7565b830182620002d4565b50505b505050565b5f82821c905092915050565b5f620003675f19846008026200034a565b1980831691505092915050565b5f62000381838362000356565b9150826002028217905092915050565b6200039c826200012d565b67ffffffffffffffff811115620003b857620003b762000137565b5b620003c4825462000191565b620003d1828285620002fa565b5f60209050601f83116001811462000407575f8415620003f2578287015190505b620003fe858262000374565b8655506200046d565b601f1984166200041786620001c5565b5f5b82811015620004405784890151825560018201915060208501945060208101905062000419565b868310156200046057848901516200045c601f89168262000356565b8355505b6001600288020188555050505b505050505050565b612f4d80620004835f395ff3fe608060405234801561000f575f80fd5b50600436106100cc575f3560e01c80638da5cb5b1161008a578063e28cb25a11610064578063e28cb25a1461020c578063e985e9c51461023c578063f242432a1461026c578063f2fde38b14610288576100cc565b80638da5cb5b146101b6578063a22cb465146101d4578063d85d3d27146101f0576100cc565b8062fdd58e146100d057806301ffc9a7146101005780630e89341c146101305780632eb2c2d6146101605780634e1273f41461017c578063715018a6146101ac575b5f80fd5b6100ea60048036038101906100e591906119c6565b6102a4565b6040516100f79190611a13565b60405180910390f35b61011a60048036038101906101159190611a81565b610367565b6040516101279190611ac6565b60405180910390f35b61014a60048036038101906101459190611adf565b610448565b6040516101579190611b94565b60405180910390f35b61017a60048036038101906101759190611da4565b6104bf565b005b61019660048036038101906101919190611f2f565b61084f565b6040516101a3919061205c565b60405180910390f35b6101b4610960565b005b6101be610a99565b6040516101cb919061208b565b60405180910390f35b6101ee60048036038101906101e991906120ce565b610ac1565b005b61020a600480360381019061020591906121aa565b610c3c565b005b610226600480360381019061022191906121f1565b610d0d565b6040516102339190611ac6565b60405180910390f35b6102566004803603810190610251919061221c565b610d21565b6040516102639190611ac6565b60405180910390f35b6102866004803603810190610281919061225a565b610daf565b005b6102a2600480360381019061029d91906121f1565b6110b6565b005b5f8073ffffffffffffffffffffffffffffffffffffffff168373ffffffffffffffffffffffffffffffffffffffff1603610313576040517f08c379a000000000000000000000000000000000000000000000000000000000815260040161030a9061235d565b60405180910390fd5b5f808381526020019081526020015f205f8473ffffffffffffffffffffffffffffffffffffffff1673ffffffffffffffffffffffffffffffffffffffff1681526020019081526020015f2054905092915050565b5f7fd9b67a26000000000000000000000000000000000000000000000000000000007bffffffffffffffffffffffffffffffffffffffffffffffffffffffff1916827bffffffffffffffffffffffffffffffffffffffffffffffffffffffff1916148061043157507f0e89341c000000000000000000000000000000000000000000000000000000007bffffffffffffffffffffffffffffffffffffffffffffffffffffffff1916827bffffffffffffffffffffffffffffffffffffffffffffffffffffffff1916145b8061044157506104408261125e565b5b9050919050565b6060600454821061048e576040517f08c379a0000000000000000000000000000000000000000000000000000000008152600401610485906123c5565b60405180910390fd5b6104975f6112c7565b826040516020016104a992919061243d565b6040516020818303038152906040529050919050565b8151835114610503576040517f08c379a00000000000000000000000000000000000000000000000000000000081526004016104fa906124d4565b60405180910390fd5b5f73ffffffffffffffffffffffffffffffffffffffff168473ffffffffffffffffffffffffffffffffffffffff1603610571576040517f08c379a000000000000000000000000000000000000000000000000000000000815260040161056890612562565b60405180910390fd5b610579611359565b73ffffffffffffffffffffffffffffffffffffffff168573ffffffffffffffffffffffffffffffffffffffff1614806105bf57506105be856105b9611359565b610d21565b5b6105fe576040517f08c379a00000000000000000000000000000000000000000000000000000000081526004016105f5906125f0565b60405180910390fd5b5f610607611359565b9050610617818787878787611360565b5f5b84518110156107ba575f8582815181106106365761063561260e565b5b602002602001015190505f8583815181106106545761065361260e565b5b602002602001015190505f805f8481526020019081526020015f205f8b73ffffffffffffffffffffffffffffffffffffffff1673ffffffffffffffffffffffffffffffffffffffff1681526020019081526020015f20549050818110156106f0576040517f08c379a00000000000000000000000000000000000000000000000000000000081526004016106e7906126ab565b60405180910390fd5b81816106fc91906126f6565b5f808581526020019081526020015f205f8c73ffffffffffffffffffffffffffffffffffffffff1673ffffffffffffffffffffffffffffffffffffffff1681526020019081526020015f2081905550815f808581526020019081526020015f205f8b73ffffffffffffffffffffffffffffffffffffffff1673ffffffffffffffffffffffffffffffffffffffff1681526020019081526020015f205f8282546107a59190612729565b92505081905550505050806001019050610619565b508473ffffffffffffffffffffffffffffffffffffffff168673ffffffffffffffffffffffffffffffffffffffff168273ffffffffffffffffffffffffffffffffffffffff167f4a39dc06d4c0dbc64b70af90fd698a233a518aa5d07e595d983b8c0526c8f7fb878760405161083192919061275c565b60405180910390a4610847818787878787611368565b505050505050565b60608151835114610895576040517f08c379a000000000000000000000000000000000000000000000000000000000815260040161088c90612801565b60405180910390fd5b5f835167ffffffffffffffff8111156108b1576108b0611bb8565b5b6040519080825280602002602001820160405280156108df5781602001602082028036833780820191505090505b5090505f5b84518110156109555761092b8582815181106109035761090261260e565b5b602002602001015185838151811061091e5761091d61260e565b5b60200260200101516102a4565b82828151811061093e5761093d61260e565b5b6020026020010181815250508060010190506108e4565b508091505092915050565b610968611359565b73ffffffffffffffffffffffffffffffffffffffff16610986610a99565b73ffffffffffffffffffffffffffffffffffffffff16146109dc576040517f08c379a00000000000000000000000000000000000000000000000000000000081526004016109d390612869565b60405180910390fd5b5f73ffffffffffffffffffffffffffffffffffffffff1660035f9054906101000a900473ffffffffffffffffffffffffffffffffffffffff1673ffffffffffffffffffffffffffffffffffffffff167f8be0079c531659141344cd1fd0a4f28419497f9722a3daafe3b4186f6b6457e060405160405180910390a35f60035f6101000a81548173ffffffffffffffffffffffffffffffffffffffff021916908373ffffffffffffffffffffffffffffffffffffffff160217905550565b5f60035f9054906101000a900473ffffffffffffffffffffffffffffffffffffffff16905090565b8173ffffffffffffffffffffffffffffffffffffffff16610ae0611359565b73ffffffffffffffffffffffffffffffffffffffff1603610b36576040517f08c379a0000000000000000000000000000000000000000000000000000000008152600401610b2d906128f7565b60405180910390fd5b8060015f610b42611359565b73ffffffffffffffffffffffffffffffffffffffff1673ffffffffffffffffffffffffffffffffffffffff1681526020019081526020015f205f8473ffffffffffffffffffffffffffffffffffffffff1673ffffffffffffffffffffffffffffffffffffffff1681526020019081526020015f205f6101000a81548160ff0219169083151502179055508173ffffffffffffffffffffffffffffffffffffffff16610beb611359565b73ffffffffffffffffffffffffffffffffffffffff167f17307eab39ab6107e8899845ad3d59bd9653f200f220920489ca2b5937696c3183604051610c309190611ac6565b60405180910390a35050565b610c4533610d0d565b15610c85576040517f08c379a0000000000000000000000000000000000000000000000000000000008152600401610c7c9061295f565b60405180910390fd5b610ca233600454600160405180602001604052805f81525061153e565b6004543373ffffffffffffffffffffffffffffffffffffffff167fd35bb95e09c04b219e35047ce7b7b300e3384264ef84a40456943dbc0fc17c1483604051610ceb9190611b94565b60405180910390a360045f815480929190610d059061297d565b919050555050565b5f80610d19835f6102a4565b119050919050565b5f60015f8473ffffffffffffffffffffffffffffffffffffffff1673ffffffffffffffffffffffffffffffffffffffff1681526020019081526020015f205f8373ffffffffffffffffffffffffffffffffffffffff1673ffffffffffffffffffffffffffffffffffffffff1681526020019081526020015f205f9054906101000a900460ff16905092915050565b5f73ffffffffffffffffffffffffffffffffffffffff168473ffffffffffffffffffffffffffffffffffffffff1603610e1d576040517f08c379a0000000000000000000000000000000000000000000000000000000008152600401610e1490612562565b60405180910390fd5b610e25611359565b73ffffffffffffffffffffffffffffffffffffffff168573ffffffffffffffffffffffffffffffffffffffff161480610e6b5750610e6a85610e65611359565b610d21565b5b610eaa576040517f08c379a0000000000000000000000000000000000000000000000000000000008152600401610ea190612a34565b60405180910390fd5b5f610eb3611359565b9050610ed3818787610ec4886116c9565b610ecd886116c9565b87611360565b5f805f8681526020019081526020015f205f8873ffffffffffffffffffffffffffffffffffffffff1673ffffffffffffffffffffffffffffffffffffffff1681526020019081526020015f2054905083811015610f65576040517f08c379a0000000000000000000000000000000000000000000000000000000008152600401610f5c906126ab565b60405180910390fd5b8381610f7191906126f6565b5f808781526020019081526020015f205f8973ffffffffffffffffffffffffffffffffffffffff1673ffffffffffffffffffffffffffffffffffffffff1681526020019081526020015f2081905550835f808781526020019081526020015f205f8873ffffffffffffffffffffffffffffffffffffffff1673ffffffffffffffffffffffffffffffffffffffff1681526020019081526020015f205f82825461101a9190612729565b925050819055508573ffffffffffffffffffffffffffffffffffffffff168773ffffffffffffffffffffffffffffffffffffffff168373ffffffffffffffffffffffffffffffffffffffff167fc3d58168c5ae7397731d063d5bbf3d657854427343f4c083240f7aacaa2d0f628888604051611097929190612a52565b60405180910390a46110ad828888888888611741565b50505050505050565b6110be611359565b73ffffffffffffffffffffffffffffffffffffffff166110dc610a99565b73ffffffffffffffffffffffffffffffffffffffff1614611132576040517f08c379a000000000000000000000000000000000000000000000000000000000815260040161112990612869565b60405180910390fd5b5f73ffffffffffffffffffffffffffffffffffffffff168173ffffffffffffffffffffffffffffffffffffffff16036111a0576040517f08c379a000000000000000000000000000000000000000000000000000000000815260040161119790612ae9565b60405180910390fd5b8073ffffffffffffffffffffffffffffffffffffffff1660035f9054906101000a900473ffffffffffffffffffffffffffffffffffffffff1673ffffffffffffffffffffffffffffffffffffffff167f8be0079c531659141344cd1fd0a4f28419497f9722a3daafe3b4186f6b6457e060405160405180910390a38060035f6101000a81548173ffffffffffffffffffffffffffffffffffffffff021916908373ffffffffffffffffffffffffffffffffffffffff16021790555050565b5f7f01ffc9a7000000000000000000000000000000000000000000000000000000007bffffffffffffffffffffffffffffffffffffffffffffffffffffffff1916827bffffffffffffffffffffffffffffffffffffffffffffffffffffffff1916149050919050565b6060600280546112d690612b34565b80601f016020809104026020016040519081016040528092919081815260200182805461130290612b34565b801561134d5780601f106113245761010080835404028352916020019161134d565b820191905f5260205f20905b81548152906001019060200180831161133057829003601f168201915b50505050509050919050565b5f33905090565b505050505050565b6113878473ffffffffffffffffffffffffffffffffffffffff16611917565b15611536578373ffffffffffffffffffffffffffffffffffffffff1663bc197c8187878686866040518663ffffffff1660e01b81526004016113cd959493929190612bb6565b6020604051808303815f875af192505050801561140857506040513d601f19601f820116820180604052508101906114059190612c30565b60015b6114ad57611414612c67565b806308c379a0036114705750611428612c86565b806114335750611472565b806040517f08c379a00000000000000000000000000000000000000000000000000000000081526004016114679190611b94565b60405180910390fd5b505b6040517f08c379a00000000000000000000000000000000000000000000000000000000081526004016114a490612d85565b60405180910390fd5b63bc197c8160e01b7bffffffffffffffffffffffffffffffffffffffffffffffffffffffff1916817bffffffffffffffffffffffffffffffffffffffffffffffffffffffff191614611534576040517f08c379a000000000000000000000000000000000000000000000000000000000815260040161152b90612e13565b60405180910390fd5b505b505050505050565b5f73ffffffffffffffffffffffffffffffffffffffff168473ffffffffffffffffffffffffffffffffffffffff16036115ac576040517f08c379a00000000000000000000000000000000000000000000000000000000081526004016115a390612ea1565b60405180910390fd5b5f6115b5611359565b90506115d5815f876115c6886116c9565b6115cf886116c9565b87611360565b825f808681526020019081526020015f205f8773ffffffffffffffffffffffffffffffffffffffff1673ffffffffffffffffffffffffffffffffffffffff1681526020019081526020015f205f82825461162f9190612729565b925050819055508473ffffffffffffffffffffffffffffffffffffffff165f73ffffffffffffffffffffffffffffffffffffffff168273ffffffffffffffffffffffffffffffffffffffff167fc3d58168c5ae7397731d063d5bbf3d657854427343f4c083240f7aacaa2d0f6287876040516116ac929190612a52565b60405180910390a46116c2815f87878787611741565b5050505050565b60605f600167ffffffffffffffff8111156116e7576116e6611bb8565b5b6040519080825280602002602001820160405280156117155781602001602082028036833780820191505090505b50905082815f8151811061172c5761172b61260e565b5b60200260200101818152505080915050919050565b6117608473ffffffffffffffffffffffffffffffffffffffff16611917565b1561190f578373ffffffffffffffffffffffffffffffffffffffff1663f23a6e6187878686866040518663ffffffff1660e01b81526004016117a6959493929190612ebf565b6020604051808303815f875af19250505080156117e157506040513d601f19601f820116820180604052508101906117de9190612c30565b60015b611886576117ed612c67565b806308c379a0036118495750611801612c86565b8061180c575061184b565b806040517f08c379a00000000000000000000000000000000000000000000000000000000081526004016118409190611b94565b60405180910390fd5b505b6040517f08c379a000000000000000000000000000000000000000000000000000000000815260040161187d90612d85565b60405180910390fd5b63f23a6e6160e01b7bffffffffffffffffffffffffffffffffffffffffffffffffffffffff1916817bffffffffffffffffffffffffffffffffffffffffffffffffffffffff19161461190d576040517f08c379a000000000000000000000000000000000000000000000000000000000815260040161190490612e13565b60405180910390fd5b505b505050505050565b5f80823b90505f8111915050919050565b5f604051905090565b5f80fd5b5f80fd5b5f73ffffffffffffffffffffffffffffffffffffffff82169050919050565b5f61196282611939565b9050919050565b61197281611958565b811461197c575f80fd5b50565b5f8135905061198d81611969565b92915050565b5f819050919050565b6119a581611993565b81146119af575f80fd5b50565b5f813590506119c08161199c565b92915050565b5f80604083850312156119dc576119db611931565b5b5f6119e98582860161197f565b92505060206119fa858286016119b2565b9150509250929050565b611a0d81611993565b82525050565b5f602082019050611a265f830184611a04565b92915050565b5f7fffffffff0000000000000000000000000000000000000000000000000000000082169050919050565b611a6081611a2c565b8114611a6a575f80fd5b50565b5f81359050611a7b81611a57565b92915050565b5f60208284031215611a9657611a95611931565b5b5f611aa384828501611a6d565b91505092915050565b5f8115159050919050565b611ac081611aac565b82525050565b5f602082019050611ad95f830184611ab7565b92915050565b5f60208284031215611af457611af3611931565b5b5f611b01848285016119b2565b91505092915050565b5f81519050919050565b5f82825260208201905092915050565b5f5b83811015611b41578082015181840152602081019050611b26565b5f8484015250505050565b5f601f19601f8301169050919050565b5f611b6682611b0a565b611b708185611b14565b9350611b80818560208601611b24565b611b8981611b4c565b840191505092915050565b5f6020820190508181035f830152611bac8184611b5c565b905092915050565b5f80fd5b7f4e487b71000000000000000000000000000000000000000000000000000000005f52604160045260245ffd5b611bee82611b4c565b810181811067ffffffffffffffff82111715611c0d57611c0c611bb8565b5b80604052505050565b5f611c1f611928565b9050611c2b8282611be5565b919050565b5f67ffffffffffffffff821115611c4a57611c49611bb8565b5b602082029050602081019050919050565b5f80fd5b5f611c71611c6c84611c30565b611c16565b90508083825260208201905060208402830185811115611c9457611c93611c5b565b5b835b81811015611cbd5780611ca988826119b2565b845260208401935050602081019050611c96565b5050509392505050565b5f82601f830112611cdb57611cda611bb4565b5b8135611ceb848260208601611c5f565b91505092915050565b5f80fd5b5f67ffffffffffffffff821115611d1257611d11611bb8565b5b611d1b82611b4c565b9050602081019050919050565b828183375f83830152505050565b5f611d48611d4384611cf8565b611c16565b905082815260208101848484011115611d6457611d63611cf4565b5b611d6f848285611d28565b509392505050565b5f82601f830112611d8b57611d8a611bb4565b5b8135611d9b848260208601611d36565b91505092915050565b5f805f805f60a08688031215611dbd57611dbc611931565b5b5f611dca8882890161197f565b9550506020611ddb8882890161197f565b945050604086013567ffffffffffffffff811115611dfc57611dfb611935565b5b611e0888828901611cc7565b935050606086013567ffffffffffffffff811115611e2957611e28611935565b5b611e3588828901611cc7565b925050608086013567ffffffffffffffff811115611e5657611e55611935565b5b611e6288828901611d77565b9150509295509295909350565b5f67ffffffffffffffff821115611e8957611e88611bb8565b5b602082029050602081019050919050565b5f611eac611ea784611e6f565b611c16565b90508083825260208201905060208402830185811115611ecf57611ece611c5b565b5b835b81811015611ef85780611ee4888261197f565b845260208401935050602081019050611ed1565b5050509392505050565b5f82601f830112611f1657611f15611bb4565b5b8135611f26848260208601611e9a565b91505092915050565b5f8060408385031215611f4557611f44611931565b5b5f83013567ffffffffffffffff811115611f6257611f61611935565b5b611f6e85828601611f02565b925050602083013567ffffffffffffffff811115611f8f57611f8e611935565b5b611f9b85828601611cc7565b9150509250929050565b5f81519050919050565b5f82825260208201905092915050565b5f819050602082019050919050565b611fd781611993565b82525050565b5f611fe88383611fce565b60208301905092915050565b5f602082019050919050565b5f61200a82611fa5565b6120148185611faf565b935061201f83611fbf565b805f5b8381101561204f5781516120368882611fdd565b975061204183611ff4565b925050600181019050612022565b5085935050505092915050565b5f6020820190508181035f8301526120748184612000565b905092915050565b61208581611958565b82525050565b5f60208201905061209e5f83018461207c565b92915050565b6120ad81611aac565b81146120b7575f80fd5b50565b5f813590506120c8816120a4565b92915050565b5f80604083850312156120e4576120e3611931565b5b5f6120f18582860161197f565b9250506020612102858286016120ba565b9150509250929050565b5f67ffffffffffffffff82111561212657612125611bb8565b5b61212f82611b4c565b9050602081019050919050565b5f61214e6121498461210c565b611c16565b90508281526020810184848401111561216a57612169611cf4565b5b612175848285611d28565b509392505050565b5f82601f83011261219157612190611bb4565b5b81356121a184826020860161213c565b91505092915050565b5f602082840312156121bf576121be611931565b5b5f82013567ffffffffffffffff8111156121dc576121db611935565b5b6121e88482850161217d565b91505092915050565b5f6020828403121561220657612205611931565b5b5f6122138482850161197f565b91505092915050565b5f806040838503121561223257612231611931565b5b5f61223f8582860161197f565b92505060206122508582860161197f565b9150509250929050565b5f805f805f60a0868803121561227357612272611931565b5b5f6122808882890161197f565b95505060206122918882890161197f565b94505060406122a2888289016119b2565b93505060606122b3888289016119b2565b925050608086013567ffffffffffffffff8111156122d4576122d3611935565b5b6122e088828901611d77565b9150509295509295909350565b7f455243313135353a2062616c616e636520717565727920666f7220746865207a5f8201527f65726f2061646472657373000000000000000000000000000000000000000000602082015250565b5f612347602b83611b14565b9150612352826122ed565b604082019050919050565b5f6020820190508181035f8301526123748161233b565b9050919050565b7f546f6b656e20494420646f6573206e6f742065786973740000000000000000005f82015250565b5f6123af601783611b14565b91506123ba8261237b565b602082019050919050565b5f6020820190508181035f8301526123dc816123a3565b9050919050565b5f81905092915050565b5f6123f782611b0a565b61240181856123e3565b9350612411818560208601611b24565b80840191505092915050565b5f819050919050565b61243761243282611993565b61241d565b82525050565b5f61244882856123ed565b91506124548284612426565b6020820191508190509392505050565b7f455243313135353a2069647320616e6420616d6f756e7473206c656e677468205f8201527f6d69736d61746368000000000000000000000000000000000000000000000000602082015250565b5f6124be602883611b14565b91506124c982612464565b604082019050919050565b5f6020820190508181035f8301526124eb816124b2565b9050919050565b7f455243313135353a207472616e7366657220746f20746865207a65726f2061645f8201527f6472657373000000000000000000000000000000000000000000000000000000602082015250565b5f61254c602583611b14565b9150612557826124f2565b604082019050919050565b5f6020820190508181035f83015261257981612540565b9050919050565b7f455243313135353a207472616e736665722063616c6c6572206973206e6f74205f8201527f6f776e6572206e6f7220617070726f7665640000000000000000000000000000602082015250565b5f6125da603283611b14565b91506125e582612580565b604082019050919050565b5f6020820190508181035f830152612607816125ce565b9050919050565b7f4e487b71000000000000000000000000000000000000000000000000000000005f52603260045260245ffd5b7f455243313135353a20696e73756666696369656e742062616c616e636520666f5f8201527f72207472616e7366657200000000000000000000000000000000000000000000602082015250565b5f612695602a83611b14565b91506126a08261263b565b604082019050919050565b5f6020820190508181035f8301526126c281612689565b9050919050565b7f4e487b71000000000000000000000000000000000000000000000000000000005f52601160045260245ffd5b5f61270082611993565b915061270b83611993565b9250828203905081811115612723576127226126c9565b5b92915050565b5f61273382611993565b915061273e83611993565b9250828201905080821115612756576127556126c9565b5b92915050565b5f6040820190508181035f8301526127748185612000565b905081810360208301526127888184612000565b90509392505050565b7f455243313135353a206163636f756e747320616e6420696473206c656e6774685f8201527f206d69736d617463680000000000000000000000000000000000000000000000602082015250565b5f6127eb602983611b14565b91506127f682612791565b604082019050919050565b5f6020820190508181035f830152612818816127df565b9050919050565b7f4f776e61626c653a2063616c6c6572206973206e6f7420746865206f776e65725f82015250565b5f612853602083611b14565b915061285e8261281f565b602082019050919050565b5f6020820190508181035f83015261288081612847565b9050919050565b7f455243313135353a2073657474696e6720617070726f76616c207374617475735f8201527f20666f722073656c660000000000000000000000000000000000000000000000602082015250565b5f6128e1602983611b14565b91506128ec82612887565b604082019050919050565b5f6020820190508181035f83015261290e816128d5565b9050919050565b7f5573657220616c7265616479206f776e7320616e204e465400000000000000005f82015250565b5f612949601883611b14565b915061295482612915565b602082019050919050565b5f6020820190508181035f8301526129768161293d565b9050919050565b5f61298782611993565b91507fffffffffffffffffffffffffffffffffffffffffffffffffffffffffffffffff82036129b9576129b86126c9565b5b600182019050919050565b7f455243313135353a2063616c6c6572206973206e6f74206f776e6572206e6f725f8201527f20617070726f7665640000000000000000000000000000000000000000000000602082015250565b5f612a1e602983611b14565b9150612a29826129c4565b604082019050919050565b5f6020820190508181035f830152612a4b81612a12565b9050919050565b5f604082019050612a655f830185611a04565b612a726020830184611a04565b9392505050565b7f4f776e61626c653a206e6577206f776e657220697320746865207a65726f20615f8201527f6464726573730000000000000000000000000000000000000000000000000000602082015250565b5f612ad3602683611b14565b9150612ade82612a79565b604082019050919050565b5f6020820190508181035f830152612b0081612ac7565b9050919050565b7f4e487b71000000000000000000000000000000000000000000000000000000005f52602260045260245ffd5b5f6002820490506001821680612b4b57607f821691505b602082108103612b5e57612b5d612b07565b5b50919050565b5f81519050919050565b5f82825260208201905092915050565b5f612b8882612b64565b612b928185612b6e565b9350612ba2818560208601611b24565b612bab81611b4c565b840191505092915050565b5f60a082019050612bc95f83018861207c565b612bd6602083018761207c565b8181036040830152612be88186612000565b90508181036060830152612bfc8185612000565b90508181036080830152612c108184612b7e565b90509695505050505050565b5f81519050612c2a81611a57565b92915050565b5f60208284031215612c4557612c44611931565b5b5f612c5284828501612c1c565b91505092915050565b5f8160e01c9050919050565b5f60033d1115612c835760045f803e612c805f51612c5b565b90505b90565b5f60443d10612d1257612c97611928565b60043d036004823e80513d602482011167ffffffffffffffff82111715612cbf575050612d12565b808201805167ffffffffffffffff811115612cdd5750505050612d12565b80602083010160043d038501811115612cfa575050505050612d12565b612d0982602001850186611be5565b82955050505050505b90565b7f455243313135353a207472616e7366657220746f206e6f6e20455243313135355f8201527f526563656976657220696d706c656d656e746572000000000000000000000000602082015250565b5f612d6f603483611b14565b9150612d7a82612d15565b604082019050919050565b5f6020820190508181035f830152612d9c81612d63565b9050919050565b7f455243313135353a204552433131353552656365697665722072656a656374655f8201527f6420746f6b656e73000000000000000000000000000000000000000000000000602082015250565b5f612dfd602883611b14565b9150612e0882612da3565b604082019050919050565b5f6020820190508181035f830152612e2a81612df1565b9050919050565b7f455243313135353a206d696e7420746f20746865207a65726f206164647265735f8201527f7300000000000000000000000000000000000000000000000000000000000000602082015250565b5f612e8b602183611b14565b9150612e9682612e31565b604082019050919050565b5f6020820190508181035f830152612eb881612e7f565b9050919050565b5f60a082019050612ed25f83018861207c565b612edf602083018761207c565b612eec6040830186611a04565b612ef96060830185611a04565b8181036080830152612f0b8184612b7e565b9050969550505050505056fea2646970667358221220d761fae4dba7352c4db72ea4542fef1f32412bca0ba58fc4938d959c02876ee964736f6c63430008180033",
  "immutableReferences": {},
  "source": "// SPDX-License-Identifier: MIT\r\npragma solidity ^0.8.0;\r\n\r\nimport \"@openzeppelin/contracts/token/ERC1155/ERC1155.sol\";\r\nimport \"@openzeppelin/contracts/access/Ownable.sol\";\r\n\r\ncontract NFTMembershipToken is ERC1155, Ownable {\r\n    uint256 private nextTokenId = 0;\r\n\r\n    event NFTMinted(address indexed owner, uint256 indexed tokenId, string metadataURI); \r\n\r\n    constructor() ERC1155(\"NFT Membership Token\") {}\r\n\r\n    function mint(string memory _metadataURI) external {\r\n        require(!hasMintedNFT(msg.sender), \"User already owns an NFT\"); \r\n        _mint(msg.sender, nextTokenId, 1, \"\");\r\n        emit NFTMinted(msg.sender, nextTokenId, _metadataURI);\r\n\r\n        nextTokenId++;\r\n    }\r\n\r\n     function hasMintedNFT(address _owner) public view returns (bool) {\r\n        return balanceOf(_owner, 0) > 0; \r\n    }\r\n\r\n    function uri(uint256 _id) public view override returns (string memory) {\r\n        require(_id < nextTokenId, \"Token ID does not exist\");\r\n        return string(abi.encodePacked(super.uri(0), _id));\r\n    }\r\n}",
  "sourcePath": "C:\\Users\\i\\Documents\\GitHub\\DSP-old\\contracts\\contracts\\NFTMembershipToken.sol",
  "compiler": {
    "name": "solc",
    "version": "0.8.24+commit.e11b9ed9.Emscripten.clang"
  },
  "schemaVersion": "3.4.16",
  "updatedAt": "2024-03-10T10:09:12.147Z",
  "devdoc": {
    "events": {
      "ApprovalForAll(address,address,bool)": {
        "details": "Emitted when `account` grants or revokes permission to `operator` to transfer their tokens, according to `approved`."
      },
      "TransferBatch(address,address,address,uint256[],uint256[])": {
        "details": "Equivalent to multiple {TransferSingle} events, where `operator`, `from` and `to` are the same for all transfers."
      },
      "TransferSingle(address,address,address,uint256,uint256)": {
        "details": "Emitted when `value` tokens of token type `id` are transferred from `from` to `to` by `operator`."
      },
      "URI(string,uint256)": {
        "details": "Emitted when the URI for token type `id` changes to `value`, if it is a non-programmatic URI. If an {URI} event was emitted for `id`, the standard https://eips.ethereum.org/EIPS/eip-1155#metadata-extensions[guarantees] that `value` will equal the value returned by {IERC1155MetadataURI-uri}."
      }
    },
    "kind": "dev",
    "methods": {
      "balanceOf(address,uint256)": {
        "details": "See {IERC1155-balanceOf}. Requirements: - `account` cannot be the zero address."
      },
      "balanceOfBatch(address[],uint256[])": {
        "details": "See {IERC1155-balanceOfBatch}. Requirements: - `accounts` and `ids` must have the same length."
      },
      "isApprovedForAll(address,address)": {
        "details": "See {IERC1155-isApprovedForAll}."
      },
      "owner()": {
        "details": "Returns the address of the current owner."
      },
      "renounceOwnership()": {
        "details": "Leaves the contract without owner. It will not be possible to call `onlyOwner` functions anymore. Can only be called by the current owner. NOTE: Renouncing ownership will leave the contract without an owner, thereby removing any functionality that is only available to the owner."
      },
      "safeBatchTransferFrom(address,address,uint256[],uint256[],bytes)": {
        "details": "See {IERC1155-safeBatchTransferFrom}."
      },
      "safeTransferFrom(address,address,uint256,uint256,bytes)": {
        "details": "See {IERC1155-safeTransferFrom}."
      },
      "setApprovalForAll(address,bool)": {
        "details": "See {IERC1155-setApprovalForAll}."
      },
      "supportsInterface(bytes4)": {
        "details": "See {IERC165-supportsInterface}."
      },
      "transferOwnership(address)": {
        "details": "Transfers ownership of the contract to a new account (`newOwner`). Can only be called by the current owner."
      }
    },
    "version": 1
  },
  "userdoc": {
    "kind": "user",
    "methods": {},
    "version": 1
  }
}