{
  "contractName": "NFTMembershipToken",
  "abi": [
    {
      "inputs": [],
      "stateMutability": "nonpayable",
      "type": "constructor"
    },
    {
      "anonymous": false,
      "inputs": [
        {
          "indexed": true,
          "internalType": "address",
          "name": "owner",
          "type": "address"
        },
        {
          "indexed": true,
          "internalType": "address",
          "name": "approved",
          "type": "address"
        },
        {
          "indexed": true,
          "internalType": "uint256",
          "name": "tokenId",
          "type": "uint256"
        }
      ],
      "name": "Approval",
      "type": "event"
    },
    {
      "anonymous": false,
      "inputs": [
        {
          "indexed": true,
          "internalType": "address",
          "name": "owner",
          "type": "address"
        },
        {
          "indexed": true,
          "internalType": "address",
          "name": "operator",
          "type": "address"
        },
        {
          "indexed": false,
          "internalType": "bool",
          "name": "approved",
          "type": "bool"
        }
      ],
      "name": "ApprovalForAll",
      "type": "event"
    },
    {
      "anonymous": false,
      "inputs": [
        {
          "indexed": true,
          "internalType": "address",
          "name": "previousOwner",
          "type": "address"
        },
        {
          "indexed": true,
          "internalType": "address",
          "name": "newOwner",
          "type": "address"
        }
      ],
      "name": "OwnershipTransferred",
      "type": "event"
    },
    {
      "anonymous": false,
      "inputs": [
        {
          "indexed": true,
          "internalType": "address",
          "name": "from",
          "type": "address"
        },
        {
          "indexed": true,
          "internalType": "address",
          "name": "to",
          "type": "address"
        },
        {
          "indexed": true,
          "internalType": "uint256",
          "name": "tokenId",
          "type": "uint256"
        }
      ],
      "name": "Transfer",
      "type": "event"
    },
    {
      "inputs": [
        {
          "internalType": "address",
          "name": "to",
          "type": "address"
        },
        {
          "internalType": "uint256",
          "name": "tokenId",
          "type": "uint256"
        }
      ],
      "name": "approve",
      "outputs": [],
      "stateMutability": "nonpayable",
      "type": "function"
    },
    {
      "inputs": [
        {
          "internalType": "address",
          "name": "owner",
          "type": "address"
        }
      ],
      "name": "balanceOf",
      "outputs": [
        {
          "internalType": "uint256",
          "name": "",
          "type": "uint256"
        }
      ],
      "stateMutability": "view",
      "type": "function",
      "constant": true
    },
    {
      "inputs": [
        {
          "internalType": "uint256",
          "name": "tokenId",
          "type": "uint256"
        }
      ],
      "name": "getApproved",
      "outputs": [
        {
          "internalType": "address",
          "name": "",
          "type": "address"
        }
      ],
      "stateMutability": "view",
      "type": "function",
      "constant": true
    },
    {
      "inputs": [
        {
          "internalType": "address",
          "name": "owner",
          "type": "address"
        },
        {
          "internalType": "address",
          "name": "operator",
          "type": "address"
        }
      ],
      "name": "isApprovedForAll",
      "outputs": [
        {
          "internalType": "bool",
          "name": "",
          "type": "bool"
        }
      ],
      "stateMutability": "view",
      "type": "function",
      "constant": true
    },
    {
      "inputs": [],
      "name": "name",
      "outputs": [
        {
          "internalType": "string",
          "name": "",
          "type": "string"
        }
      ],
      "stateMutability": "view",
      "type": "function",
      "constant": true
    },
    {
      "inputs": [],
      "name": "owner",
      "outputs": [
        {
          "internalType": "address",
          "name": "",
          "type": "address"
        }
      ],
      "stateMutability": "view",
      "type": "function",
      "constant": true
    },
    {
      "inputs": [
        {
          "internalType": "uint256",
          "name": "tokenId",
          "type": "uint256"
        }
      ],
      "name": "ownerOf",
      "outputs": [
        {
          "internalType": "address",
          "name": "",
          "type": "address"
        }
      ],
      "stateMutability": "view",
      "type": "function",
      "constant": true
    },
    {
      "inputs": [],
      "name": "renounceOwnership",
      "outputs": [],
      "stateMutability": "nonpayable",
      "type": "function"
    },
    {
      "inputs": [
        {
          "internalType": "address",
          "name": "from",
          "type": "address"
        },
        {
          "internalType": "address",
          "name": "to",
          "type": "address"
        },
        {
          "internalType": "uint256",
          "name": "tokenId",
          "type": "uint256"
        }
      ],
      "name": "safeTransferFrom",
      "outputs": [],
      "stateMutability": "nonpayable",
      "type": "function"
    },
    {
      "inputs": [
        {
          "internalType": "address",
          "name": "from",
          "type": "address"
        },
        {
          "internalType": "address",
          "name": "to",
          "type": "address"
        },
        {
          "internalType": "uint256",
          "name": "tokenId",
          "type": "uint256"
        },
        {
          "internalType": "bytes",
          "name": "_data",
          "type": "bytes"
        }
      ],
      "name": "safeTransferFrom",
      "outputs": [],
      "stateMutability": "nonpayable",
      "type": "function"
    },
    {
      "inputs": [
        {
          "internalType": "address",
          "name": "operator",
          "type": "address"
        },
        {
          "internalType": "bool",
          "name": "approved",
          "type": "bool"
        }
      ],
      "name": "setApprovalForAll",
      "outputs": [],
      "stateMutability": "nonpayable",
      "type": "function"
    },
    {
      "inputs": [
        {
          "internalType": "bytes4",
          "name": "interfaceId",
          "type": "bytes4"
        }
      ],
      "name": "supportsInterface",
      "outputs": [
        {
          "internalType": "bool",
          "name": "",
          "type": "bool"
        }
      ],
      "stateMutability": "view",
      "type": "function",
      "constant": true
    },
    {
      "inputs": [],
      "name": "symbol",
      "outputs": [
        {
          "internalType": "string",
          "name": "",
          "type": "string"
        }
      ],
      "stateMutability": "view",
      "type": "function",
      "constant": true
    },
    {
      "inputs": [
        {
          "internalType": "uint256",
          "name": "tokenId",
          "type": "uint256"
        }
      ],
      "name": "tokenURI",
      "outputs": [
        {
          "internalType": "string",
          "name": "",
          "type": "string"
        }
      ],
      "stateMutability": "view",
      "type": "function",
      "constant": true
    },
    {
      "inputs": [
        {
          "internalType": "address",
          "name": "from",
          "type": "address"
        },
        {
          "internalType": "address",
          "name": "to",
          "type": "address"
        },
        {
          "internalType": "uint256",
          "name": "tokenId",
          "type": "uint256"
        }
      ],
      "name": "transferFrom",
      "outputs": [],
      "stateMutability": "nonpayable",
      "type": "function"
    },
    {
      "inputs": [
        {
          "internalType": "address",
          "name": "newOwner",
          "type": "address"
        }
      ],
      "name": "transferOwnership",
      "outputs": [],
      "stateMutability": "nonpayable",
      "type": "function"
    },
    {
      "inputs": [
        {
          "internalType": "string",
          "name": "_metadataURI",
          "type": "string"
        }
      ],
      "name": "mint",
      "outputs": [],
      "stateMutability": "nonpayable",
      "type": "function"
    },
    {
      "inputs": [
        {
          "internalType": "address",
          "name": "_user",
          "type": "address"
        }
      ],
      "name": "getUserNFTs",
      "outputs": [
        {
          "internalType": "uint256[]",
          "name": "",
          "type": "uint256[]"
        }
      ],
      "stateMutability": "view",
      "type": "function",
      "constant": true
    },
    {
      "inputs": [
        {
          "internalType": "uint256",
          "name": "_tokenId",
          "type": "uint256"
        }
      ],
      "name": "getTokenMetadataURI",
      "outputs": [
        {
          "internalType": "string",
          "name": "",
          "type": "string"
        }
      ],
      "stateMutability": "view",
      "type": "function",
      "constant": true
    }
  ],
  "bytecode": "0x60806040523480156200001157600080fd5b506040518060400160405280601481526020017f4e4654204d656d6265727368697020546f6b656e0000000000000000000000008152506040518060400160405280600381526020017f4e4d54000000000000000000000000000000000000000000000000000000000081525081600090805190602001906200009692919062000171565b508060019080519060200190620000af92919062000171565b5050506000620000c46200016960201b60201c565b905080600660006101000a81548173ffffffffffffffffffffffffffffffffffffffff021916908373ffffffffffffffffffffffffffffffffffffffff1602179055508073ffffffffffffffffffffffffffffffffffffffff16600073ffffffffffffffffffffffffffffffffffffffff167f8be0079c531659141344cd1fd0a4f28419497f9722a3daafe3b4186f6b6457e060405160405180910390a35062000286565b600033905090565b8280546200017f9062000221565b90600052602060002090601f016020900481019282620001a35760008555620001ef565b82601f10620001be57805160ff1916838001178555620001ef565b82800160010185558215620001ef579182015b82811115620001ee578251825591602001919060010190620001d1565b5b509050620001fe919062000202565b5090565b5b808211156200021d57600081600090555060010162000203565b5090565b600060028204905060018216806200023a57607f821691505b6020821081141562000251576200025062000257565b5b50919050565b7f4e487b7100000000000000000000000000000000000000000000000000000000600052602260045260246000fd5b61313f80620002966000396000f3fe608060405234801561001057600080fd5b50600436106101215760003560e01c8063715018a6116100ad578063c87b56dd11610071578063c87b56dd14610306578063d85d3d2714610336578063d8f57c1314610352578063e985e9c514610382578063f2fde38b146103b257610121565b8063715018a6146102885780638da5cb5b1461029257806395d89b41146102b0578063a22cb465146102ce578063b88d4fde146102ea57610121565b806323b872dd116100f457806323b872dd146101c057806342842e0e146101dc57806352de4ee5146101f85780636352211e1461022857806370a082311461025857610121565b806301ffc9a71461012657806306fdde0314610156578063081812fc14610174578063095ea7b3146101a4575b600080fd5b610140600480360381019061013b9190612118565b6103ce565b60405161014d9190612a1e565b60405180910390f35b61015e6104b0565b60405161016b9190612a39565b60405180910390f35b61018e600480360381019061018991906121ab565b610542565b60405161019b9190612995565b60405180910390f35b6101be60048036038101906101b991906120dc565b6105c7565b005b6101da60048036038101906101d59190611fd6565b6106df565b005b6101f660048036038101906101f19190611fd6565b61073f565b005b610212600480360381019061020d9190611f71565b61075f565b60405161021f91906129fc565b60405180910390f35b610242600480360381019061023d91906121ab565b6107f6565b60405161024f9190612995565b60405180910390f35b610272600480360381019061026d9190611f71565b6108a8565b60405161027f9190612c9b565b60405180910390f35b610290610960565b005b61029a610a9d565b6040516102a79190612995565b60405180910390f35b6102b8610ac7565b6040516102c59190612a39565b60405180910390f35b6102e860048036038101906102e391906120a0565b610b59565b005b61030460048036038101906102ff9190612025565b610cda565b005b610320600480360381019061031b91906121ab565b610d3c565b60405161032d9190612a39565b60405180910390f35b610350600480360381019061034b919061216a565b610de3565b005b61036c600480360381019061036791906121ab565b610f81565b6040516103799190612a39565b60405180910390f35b61039c60048036038101906103979190611f9a565b61106e565b6040516103a99190612a1e565b60405180910390f35b6103cc60048036038101906103c79190611f71565b611102565b005b60007f80ac58cd000000000000000000000000000000000000000000000000000000007bffffffffffffffffffffffffffffffffffffffffffffffffffffffff1916827bffffffffffffffffffffffffffffffffffffffffffffffffffffffff1916148061049957507f5b5e139f000000000000000000000000000000000000000000000000000000007bffffffffffffffffffffffffffffffffffffffffffffffffffffffff1916827bffffffffffffffffffffffffffffffffffffffffffffffffffffffff1916145b806104a957506104a8826112ae565b5b9050919050565b6060600080546104bf90612f34565b80601f01602080910402602001604051908101604052809291908181526020018280546104eb90612f34565b80156105385780601f1061050d57610100808354040283529160200191610538565b820191906000526020600020905b81548152906001019060200180831161051b57829003601f168201915b5050505050905090565b600061054d82611318565b61058c576040517f08c379a000000000000000000000000000000000000000000000000000000000815260040161058390612bbb565b60405180910390fd5b6004600083815260200190815260200160002060009054906101000a900473ffffffffffffffffffffffffffffffffffffffff169050919050565b60006105d2826107f6565b90508073ffffffffffffffffffffffffffffffffffffffff168373ffffffffffffffffffffffffffffffffffffffff161415610643576040517f08c379a000000000000000000000000000000000000000000000000000000000815260040161063a90612c3b565b60405180910390fd5b8073ffffffffffffffffffffffffffffffffffffffff16610662611384565b73ffffffffffffffffffffffffffffffffffffffff16148061069157506106908161068b611384565b61106e565b5b6106d0576040517f08c379a00000000000000000000000000000000000000000000000000000000081526004016106c790612b3b565b60405180910390fd5b6106da838361138c565b505050565b6106f06106ea611384565b82611445565b61072f576040517f08c379a000000000000000000000000000000000000000000000000000000000815260040161072690612c5b565b60405180910390fd5b61073a838383611523565b505050565b61075a83838360405180602001604052806000815250610cda565b505050565b6060600960008373ffffffffffffffffffffffffffffffffffffffff1673ffffffffffffffffffffffffffffffffffffffff1681526020019081526020016000208054806020026020016040519081016040528092919081815260200182805480156107ea57602002820191906000526020600020905b8154815260200190600101908083116107d6575b50505050509050919050565b6000806002600084815260200190815260200160002060009054906101000a900473ffffffffffffffffffffffffffffffffffffffff169050600073ffffffffffffffffffffffffffffffffffffffff168173ffffffffffffffffffffffffffffffffffffffff16141561089f576040517f08c379a000000000000000000000000000000000000000000000000000000000815260040161089690612b7b565b60405180910390fd5b80915050919050565b60008073ffffffffffffffffffffffffffffffffffffffff168273ffffffffffffffffffffffffffffffffffffffff161415610919576040517f08c379a000000000000000000000000000000000000000000000000000000000815260040161091090612b5b565b60405180910390fd5b600360008373ffffffffffffffffffffffffffffffffffffffff1673ffffffffffffffffffffffffffffffffffffffff168152602001908152602001600020549050919050565b610968611384565b73ffffffffffffffffffffffffffffffffffffffff16610986610a9d565b73ffffffffffffffffffffffffffffffffffffffff16146109dc576040517f08c379a00000000000000000000000000000000000000000000000000000000081526004016109d390612bdb565b60405180910390fd5b600073ffffffffffffffffffffffffffffffffffffffff16600660009054906101000a900473ffffffffffffffffffffffffffffffffffffffff1673ffffffffffffffffffffffffffffffffffffffff167f8be0079c531659141344cd1fd0a4f28419497f9722a3daafe3b4186f6b6457e060405160405180910390a36000600660006101000a81548173ffffffffffffffffffffffffffffffffffffffff021916908373ffffffffffffffffffffffffffffffffffffffff160217905550565b6000600660009054906101000a900473ffffffffffffffffffffffffffffffffffffffff16905090565b606060018054610ad690612f34565b80601f0160208091040260200160405190810160405280929190818152602001828054610b0290612f34565b8015610b4f5780601f10610b2457610100808354040283529160200191610b4f565b820191906000526020600020905b815481529060010190602001808311610b3257829003601f168201915b5050505050905090565b610b61611384565b73ffffffffffffffffffffffffffffffffffffffff168273ffffffffffffffffffffffffffffffffffffffff161415610bcf576040517f08c379a0000000000000000000000000000000000000000000000000000000008152600401610bc690612adb565b60405180910390fd5b8060056000610bdc611384565b73ffffffffffffffffffffffffffffffffffffffff1673ffffffffffffffffffffffffffffffffffffffff16815260200190815260200160002060008473ffffffffffffffffffffffffffffffffffffffff1673ffffffffffffffffffffffffffffffffffffffff16815260200190815260200160002060006101000a81548160ff0219169083151502179055508173ffffffffffffffffffffffffffffffffffffffff16610c89611384565b73ffffffffffffffffffffffffffffffffffffffff167f17307eab39ab6107e8899845ad3d59bd9653f200f220920489ca2b5937696c3183604051610cce9190612a1e565b60405180910390a35050565b610ceb610ce5611384565b83611445565b610d2a576040517f08c379a0000000000000000000000000000000000000000000000000000000008152600401610d2190612c5b565b60405180910390fd5b610d368484848461177f565b50505050565b6060610d4782611318565b610d86576040517f08c379a0000000000000000000000000000000000000000000000000000000008152600401610d7d90612c1b565b60405180910390fd5b6000610d906117db565b90506000815111610db05760405180602001604052806000815250610ddb565b80610dba846117f2565b604051602001610dcb929190612971565b6040516020818303038152906040525b915050919050565b600860003373ffffffffffffffffffffffffffffffffffffffff1673ffffffffffffffffffffffffffffffffffffffff16815260200190815260200160002060009054906101000a900460ff1615610e70576040517f08c379a0000000000000000000000000000000000000000000000000000000008152600401610e6790612c7b565b60405180910390fd5b610e7c3360075461199f565b600960003373ffffffffffffffffffffffffffffffffffffffff1673ffffffffffffffffffffffffffffffffffffffff168152602001908152602001600020600754908060018154018082558091505060019003906000526020600020016000909190919091505580600a600060075481526020019081526020016000209080519060200190610f0d929190611d95565b506001600860003373ffffffffffffffffffffffffffffffffffffffff1673ffffffffffffffffffffffffffffffffffffffff16815260200190815260200160002060006101000a81548160ff02191690831515021790555060076000815480929190610f7990612f66565b919050555050565b6060610f8c82611318565b610fcb576040517f08c379a0000000000000000000000000000000000000000000000000000000008152600401610fc290612afb565b60405180910390fd5b600a60008381526020019081526020016000208054610fe990612f34565b80601f016020809104026020016040519081016040528092919081815260200182805461101590612f34565b80156110625780601f1061103757610100808354040283529160200191611062565b820191906000526020600020905b81548152906001019060200180831161104557829003601f168201915b50505050509050919050565b6000600560008473ffffffffffffffffffffffffffffffffffffffff1673ffffffffffffffffffffffffffffffffffffffff16815260200190815260200160002060008373ffffffffffffffffffffffffffffffffffffffff1673ffffffffffffffffffffffffffffffffffffffff16815260200190815260200160002060009054906101000a900460ff16905092915050565b61110a611384565b73ffffffffffffffffffffffffffffffffffffffff16611128610a9d565b73ffffffffffffffffffffffffffffffffffffffff161461117e576040517f08c379a000000000000000000000000000000000000000000000000000000000815260040161117590612bdb565b60405180910390fd5b600073ffffffffffffffffffffffffffffffffffffffff168173ffffffffffffffffffffffffffffffffffffffff1614156111ee576040517f08c379a00000000000000000000000000000000000000000000000000000000081526004016111e590612a7b565b60405180910390fd5b8073ffffffffffffffffffffffffffffffffffffffff16600660009054906101000a900473ffffffffffffffffffffffffffffffffffffffff1673ffffffffffffffffffffffffffffffffffffffff167f8be0079c531659141344cd1fd0a4f28419497f9722a3daafe3b4186f6b6457e060405160405180910390a380600660006101000a81548173ffffffffffffffffffffffffffffffffffffffff021916908373ffffffffffffffffffffffffffffffffffffffff16021790555050565b60007f01ffc9a7000000000000000000000000000000000000000000000000000000007bffffffffffffffffffffffffffffffffffffffffffffffffffffffff1916827bffffffffffffffffffffffffffffffffffffffffffffffffffffffff1916149050919050565b60008073ffffffffffffffffffffffffffffffffffffffff166002600084815260200190815260200160002060009054906101000a900473ffffffffffffffffffffffffffffffffffffffff1673ffffffffffffffffffffffffffffffffffffffff1614159050919050565b600033905090565b816004600083815260200190815260200160002060006101000a81548173ffffffffffffffffffffffffffffffffffffffff021916908373ffffffffffffffffffffffffffffffffffffffff160217905550808273ffffffffffffffffffffffffffffffffffffffff166113ff836107f6565b73ffffffffffffffffffffffffffffffffffffffff167f8c5be1e5ebec7d5bd14f71427d1e84f3dd0314c0f7b2291e5b200ac8c7c3b92560405160405180910390a45050565b600061145082611318565b61148f576040517f08c379a000000000000000000000000000000000000000000000000000000000815260040161148690612b1b565b60405180910390fd5b600061149a836107f6565b90508073ffffffffffffffffffffffffffffffffffffffff168473ffffffffffffffffffffffffffffffffffffffff16148061150957508373ffffffffffffffffffffffffffffffffffffffff166114f184610542565b73ffffffffffffffffffffffffffffffffffffffff16145b8061151a5750611519818561106e565b5b91505092915050565b8273ffffffffffffffffffffffffffffffffffffffff16611543826107f6565b73ffffffffffffffffffffffffffffffffffffffff1614611599576040517f08c379a000000000000000000000000000000000000000000000000000000000815260040161159090612bfb565b60405180910390fd5b600073ffffffffffffffffffffffffffffffffffffffff168273ffffffffffffffffffffffffffffffffffffffff161415611609576040517f08c379a000000000000000000000000000000000000000000000000000000000815260040161160090612abb565b60405180910390fd5b6116148383836119bd565b61161f60008261138c565b6001600360008573ffffffffffffffffffffffffffffffffffffffff1673ffffffffffffffffffffffffffffffffffffffff168152602001908152602001600020600082825461166f9190612e4a565b925050819055506001600360008473ffffffffffffffffffffffffffffffffffffffff1673ffffffffffffffffffffffffffffffffffffffff16815260200190815260200160002060008282546116c69190612dc3565b92505081905550816002600083815260200190815260200160002060006101000a81548173ffffffffffffffffffffffffffffffffffffffff021916908373ffffffffffffffffffffffffffffffffffffffff160217905550808273ffffffffffffffffffffffffffffffffffffffff168473ffffffffffffffffffffffffffffffffffffffff167fddf252ad1be2c89b69c2b068fc378daa952ba7f163c4a11628f55a4df523b3ef60405160405180910390a4505050565b61178a848484611523565b611796848484846119c2565b6117d5576040517f08c379a00000000000000000000000000000000000000000000000000000000081526004016117cc90612a5b565b60405180910390fd5b50505050565b606060405180602001604052806000815250905090565b6060600082141561183a576040518060400160405280600181526020017f3000000000000000000000000000000000000000000000000000000000000000815250905061199a565b600082905060005b6000821461186c57808061185590612f66565b915050600a826118659190612e19565b9150611842565b60008167ffffffffffffffff8111156118ae577f4e487b7100000000000000000000000000000000000000000000000000000000600052604160045260246000fd5b6040519080825280601f01601f1916602001820160405280156118e05781602001600182028036833780820191505090505b5090505b60008514611993576001826118f99190612e4a565b9150600a856119089190612faf565b60306119149190612dc3565b60f81b818381518110611950577f4e487b7100000000000000000000000000000000000000000000000000000000600052603260045260246000fd5b60200101907effffffffffffffffffffffffffffffffffffffffffffffffffffffffffffff1916908160001a905350600a8561198c9190612e19565b94506118e4565b8093505050505b919050565b6119b9828260405180602001604052806000815250611b59565b5050565b505050565b60006119e38473ffffffffffffffffffffffffffffffffffffffff16611bb4565b15611b4c578373ffffffffffffffffffffffffffffffffffffffff1663150b7a02611a0c611384565b8786866040518563ffffffff1660e01b8152600401611a2e94939291906129b0565b602060405180830381600087803b158015611a4857600080fd5b505af1925050508015611a7957506040513d601f19601f82011682018060405250810190611a769190612141565b60015b611afc573d8060008114611aa9576040519150601f19603f3d011682016040523d82523d6000602084013e611aae565b606091505b50600081511415611af4576040517f08c379a0000000000000000000000000000000000000000000000000000000008152600401611aeb90612a5b565b60405180910390fd5b805181602001fd5b63150b7a0260e01b7bffffffffffffffffffffffffffffffffffffffffffffffffffffffff1916817bffffffffffffffffffffffffffffffffffffffffffffffffffffffff191614915050611b51565b600190505b949350505050565b611b638383611bc7565b611b7060008484846119c2565b611baf576040517f08c379a0000000000000000000000000000000000000000000000000000000008152600401611ba690612a5b565b60405180910390fd5b505050565b600080823b905060008111915050919050565b600073ffffffffffffffffffffffffffffffffffffffff168273ffffffffffffffffffffffffffffffffffffffff161415611c37576040517f08c379a0000000000000000000000000000000000000000000000000000000008152600401611c2e90612b9b565b60405180910390fd5b611c4081611318565b15611c80576040517f08c379a0000000000000000000000000000000000000000000000000000000008152600401611c7790612a9b565b60405180910390fd5b611c8c600083836119bd565b6001600360008473ffffffffffffffffffffffffffffffffffffffff1673ffffffffffffffffffffffffffffffffffffffff1681526020019081526020016000206000828254611cdc9190612dc3565b92505081905550816002600083815260200190815260200160002060006101000a81548173ffffffffffffffffffffffffffffffffffffffff021916908373ffffffffffffffffffffffffffffffffffffffff160217905550808273ffffffffffffffffffffffffffffffffffffffff16600073ffffffffffffffffffffffffffffffffffffffff167fddf252ad1be2c89b69c2b068fc378daa952ba7f163c4a11628f55a4df523b3ef60405160405180910390a45050565b828054611da190612f34565b90600052602060002090601f016020900481019282611dc35760008555611e0a565b82601f10611ddc57805160ff1916838001178555611e0a565b82800160010185558215611e0a579182015b82811115611e09578251825591602001919060010190611dee565b5b509050611e179190611e1b565b5090565b5b80821115611e34576000816000905550600101611e1c565b5090565b6000611e4b611e4684612ce7565b612cb6565b905082815260208101848484011115611e6357600080fd5b611e6e848285612ef2565b509392505050565b6000611e89611e8484612d17565b612cb6565b905082815260208101848484011115611ea157600080fd5b611eac848285612ef2565b509392505050565b600081359050611ec3816130ad565b92915050565b600081359050611ed8816130c4565b92915050565b600081359050611eed816130db565b92915050565b600081519050611f02816130db565b92915050565b600082601f830112611f1957600080fd5b8135611f29848260208601611e38565b91505092915050565b600082601f830112611f4357600080fd5b8135611f53848260208601611e76565b91505092915050565b600081359050611f6b816130f2565b92915050565b600060208284031215611f8357600080fd5b6000611f9184828501611eb4565b91505092915050565b60008060408385031215611fad57600080fd5b6000611fbb85828601611eb4565b9250506020611fcc85828601611eb4565b9150509250929050565b600080600060608486031215611feb57600080fd5b6000611ff986828701611eb4565b935050602061200a86828701611eb4565b925050604061201b86828701611f5c565b9150509250925092565b6000806000806080858703121561203b57600080fd5b600061204987828801611eb4565b945050602061205a87828801611eb4565b935050604061206b87828801611f5c565b925050606085013567ffffffffffffffff81111561208857600080fd5b61209487828801611f08565b91505092959194509250565b600080604083850312156120b357600080fd5b60006120c185828601611eb4565b92505060206120d285828601611ec9565b9150509250929050565b600080604083850312156120ef57600080fd5b60006120fd85828601611eb4565b925050602061210e85828601611f5c565b9150509250929050565b60006020828403121561212a57600080fd5b600061213884828501611ede565b91505092915050565b60006020828403121561215357600080fd5b600061216184828501611ef3565b91505092915050565b60006020828403121561217c57600080fd5b600082013567ffffffffffffffff81111561219657600080fd5b6121a284828501611f32565b91505092915050565b6000602082840312156121bd57600080fd5b60006121cb84828501611f5c565b91505092915050565b60006121e08383612953565b60208301905092915050565b6121f581612e7e565b82525050565b600061220682612d57565b6122108185612d85565b935061221b83612d47565b8060005b8381101561224c57815161223388826121d4565b975061223e83612d78565b92505060018101905061221f565b5085935050505092915050565b61226281612e90565b82525050565b600061227382612d62565b61227d8185612d96565b935061228d818560208601612f01565b6122968161309c565b840191505092915050565b60006122ac82612d6d565b6122b68185612da7565b93506122c6818560208601612f01565b6122cf8161309c565b840191505092915050565b60006122e582612d6d565b6122ef8185612db8565b93506122ff818560208601612f01565b80840191505092915050565b6000612318603283612da7565b91507f4552433732313a207472616e7366657220746f206e6f6e20455243373231526560008301527f63656976657220696d706c656d656e74657200000000000000000000000000006020830152604082019050919050565b600061237e602683612da7565b91507f4f776e61626c653a206e6577206f776e657220697320746865207a65726f206160008301527f64647265737300000000000000000000000000000000000000000000000000006020830152604082019050919050565b60006123e4601c83612da7565b91507f4552433732313a20746f6b656e20616c7265616479206d696e746564000000006000830152602082019050919050565b6000612424602483612da7565b91507f4552433732313a207472616e7366657220746f20746865207a65726f2061646460008301527f72657373000000000000000000000000000000000000000000000000000000006020830152604082019050919050565b600061248a601983612da7565b91507f4552433732313a20617070726f766520746f2063616c6c6572000000000000006000830152602082019050919050565b60006124ca601483612da7565b91507f546f6b656e20646f6573206e6f742065786973740000000000000000000000006000830152602082019050919050565b600061250a602c83612da7565b91507f4552433732313a206f70657261746f7220717565727920666f72206e6f6e657860008301527f697374656e7420746f6b656e00000000000000000000000000000000000000006020830152604082019050919050565b6000612570603883612da7565b91507f4552433732313a20617070726f76652063616c6c6572206973206e6f74206f7760008301527f6e6572206e6f7220617070726f76656420666f7220616c6c00000000000000006020830152604082019050919050565b60006125d6602a83612da7565b91507f4552433732313a2062616c616e636520717565727920666f7220746865207a6560008301527f726f2061646472657373000000000000000000000000000000000000000000006020830152604082019050919050565b600061263c602983612da7565b91507f4552433732313a206f776e657220717565727920666f72206e6f6e657869737460008301527f656e7420746f6b656e00000000000000000000000000000000000000000000006020830152604082019050919050565b60006126a2602083612da7565b91507f4552433732313a206d696e7420746f20746865207a65726f20616464726573736000830152602082019050919050565b60006126e2602c83612da7565b91507f4552433732313a20617070726f76656420717565727920666f72206e6f6e657860008301527f697374656e7420746f6b656e00000000000000000000000000000000000000006020830152604082019050919050565b6000612748602083612da7565b91507f4f776e61626c653a2063616c6c6572206973206e6f7420746865206f776e65726000830152602082019050919050565b6000612788602983612da7565b91507f4552433732313a207472616e73666572206f6620746f6b656e2074686174206960008301527f73206e6f74206f776e00000000000000000000000000000000000000000000006020830152604082019050919050565b60006127ee602f83612da7565b91507f4552433732314d657461646174613a2055524920717565727920666f72206e6f60008301527f6e6578697374656e7420746f6b656e00000000000000000000000000000000006020830152604082019050919050565b6000612854602183612da7565b91507f4552433732313a20617070726f76616c20746f2063757272656e74206f776e6560008301527f72000000000000000000000000000000000000000000000000000000000000006020830152604082019050919050565b60006128ba603183612da7565b91507f4552433732313a207472616e736665722063616c6c6572206973206e6f74206f60008301527f776e6572206e6f7220617070726f7665640000000000000000000000000000006020830152604082019050919050565b6000612920601083612da7565b91507f416c72656164792061206d656d626572000000000000000000000000000000006000830152602082019050919050565b61295c81612ee8565b82525050565b61296b81612ee8565b82525050565b600061297d82856122da565b915061298982846122da565b91508190509392505050565b60006020820190506129aa60008301846121ec565b92915050565b60006080820190506129c560008301876121ec565b6129d260208301866121ec565b6129df6040830185612962565b81810360608301526129f18184612268565b905095945050505050565b60006020820190508181036000830152612a1681846121fb565b905092915050565b6000602082019050612a336000830184612259565b92915050565b60006020820190508181036000830152612a5381846122a1565b905092915050565b60006020820190508181036000830152612a748161230b565b9050919050565b60006020820190508181036000830152612a9481612371565b9050919050565b60006020820190508181036000830152612ab4816123d7565b9050919050565b60006020820190508181036000830152612ad481612417565b9050919050565b60006020820190508181036000830152612af48161247d565b9050919050565b60006020820190508181036000830152612b14816124bd565b9050919050565b60006020820190508181036000830152612b34816124fd565b9050919050565b60006020820190508181036000830152612b5481612563565b9050919050565b60006020820190508181036000830152612b74816125c9565b9050919050565b60006020820190508181036000830152612b948161262f565b9050919050565b60006020820190508181036000830152612bb481612695565b9050919050565b60006020820190508181036000830152612bd4816126d5565b9050919050565b60006020820190508181036000830152612bf48161273b565b9050919050565b60006020820190508181036000830152612c148161277b565b9050919050565b60006020820190508181036000830152612c34816127e1565b9050919050565b60006020820190508181036000830152612c5481612847565b9050919050565b60006020820190508181036000830152612c74816128ad565b9050919050565b60006020820190508181036000830152612c9481612913565b9050919050565b6000602082019050612cb06000830184612962565b92915050565b6000604051905081810181811067ffffffffffffffff82111715612cdd57612cdc61306d565b5b8060405250919050565b600067ffffffffffffffff821115612d0257612d0161306d565b5b601f19601f8301169050602081019050919050565b600067ffffffffffffffff821115612d3257612d3161306d565b5b601f19601f8301169050602081019050919050565b6000819050602082019050919050565b600081519050919050565b600081519050919050565b600081519050919050565b6000602082019050919050565b600082825260208201905092915050565b600082825260208201905092915050565b600082825260208201905092915050565b600081905092915050565b6000612dce82612ee8565b9150612dd983612ee8565b9250827fffffffffffffffffffffffffffffffffffffffffffffffffffffffffffffffff03821115612e0e57612e0d612fe0565b5b828201905092915050565b6000612e2482612ee8565b9150612e2f83612ee8565b925082612e3f57612e3e61300f565b5b828204905092915050565b6000612e5582612ee8565b9150612e6083612ee8565b925082821015612e7357612e72612fe0565b5b828203905092915050565b6000612e8982612ec8565b9050919050565b60008115159050919050565b60007fffffffff0000000000000000000000000000000000000000000000000000000082169050919050565b600073ffffffffffffffffffffffffffffffffffffffff82169050919050565b6000819050919050565b82818337600083830152505050565b60005b83811015612f1f578082015181840152602081019050612f04565b83811115612f2e576000848401525b50505050565b60006002820490506001821680612f4c57607f821691505b60208210811415612f6057612f5f61303e565b5b50919050565b6000612f7182612ee8565b91507fffffffffffffffffffffffffffffffffffffffffffffffffffffffffffffffff821415612fa457612fa3612fe0565b5b600182019050919050565b6000612fba82612ee8565b9150612fc583612ee8565b925082612fd557612fd461300f565b5b828206905092915050565b7f4e487b7100000000000000000000000000000000000000000000000000000000600052601160045260246000fd5b7f4e487b7100000000000000000000000000000000000000000000000000000000600052601260045260246000fd5b7f4e487b7100000000000000000000000000000000000000000000000000000000600052602260045260246000fd5b7f4e487b7100000000000000000000000000000000000000000000000000000000600052604160045260246000fd5b6000601f19601f8301169050919050565b6130b681612e7e565b81146130c157600080fd5b50565b6130cd81612e90565b81146130d857600080fd5b50565b6130e481612e9c565b81146130ef57600080fd5b50565b6130fb81612ee8565b811461310657600080fd5b5056fea2646970667358221220bedffef64689c939143831690b4841b58a9e0f1050d0a63c430f754a9aa38a2f64736f6c63430008000033",
  "immutableReferences": {},
  "source": "// SPDX-License-Identifier: MIT\r\npragma solidity ^0.8.0;\r\n\r\nimport \"@openzeppelin/contracts/token/ERC721/ERC721.sol\";\r\nimport \"@openzeppelin/contracts/access/Ownable.sol\";\r\n\r\ncontract NFTMembershipToken is ERC721, Ownable {\r\n    uint256 private nextTokenId;\r\n    mapping(address => bool) private isMember; \r\n    mapping(address => uint256[]) private userNFTs; \r\n    mapping(uint256 => string) private tokenMetadataURIs;\r\n\r\n    constructor() ERC721(\"NFT Membership Token\", \"NMT\") {}\r\n\r\n    function mint(string memory _metadataURI) external {\r\n        require(!isMember[msg.sender], \"Already a member\"); \r\n        _safeMint(msg.sender, nextTokenId);\r\n        userNFTs[msg.sender].push(nextTokenId); \r\n        tokenMetadataURIs[nextTokenId] = _metadataURI;\r\n        isMember[msg.sender] = true; \r\n        nextTokenId++;\r\n    }\r\n\r\n    function getUserNFTs(address _user) external view returns (uint256[] memory) {\r\n        return userNFTs[_user];\r\n    }\r\n\r\n    function getTokenMetadataURI(uint256 _tokenId) external view returns (string memory) {\r\n        require(_exists(_tokenId), \"Token does not exist\");\r\n        return tokenMetadataURIs[_tokenId];\r\n    }\r\n}\r\n",
  "sourcePath": "C:\\Users\\i\\Documents\\GitHub\\DSP\\contracts\\contracts\\NFTMembershipToken.sol",
  "compiler": {
    "name": "solc",
    "version": "0.8.0+commit.c7dfd78e.Emscripten.clang"
  },
  "schemaVersion": "3.4.16",
  "updatedAt": "2024-02-22T16:27:17.298Z",
  "networkType": "ethereum",
  "devdoc": {
    "kind": "dev",
    "methods": {
      "approve(address,uint256)": {
        "details": "See {IERC721-approve}."
      },
      "balanceOf(address)": {
        "details": "See {IERC721-balanceOf}."
      },
      "getApproved(uint256)": {
        "details": "See {IERC721-getApproved}."
      },
      "isApprovedForAll(address,address)": {
        "details": "See {IERC721-isApprovedForAll}."
      },
      "name()": {
        "details": "See {IERC721Metadata-name}."
      },
      "owner()": {
        "details": "Returns the address of the current owner."
      },
      "ownerOf(uint256)": {
        "details": "See {IERC721-ownerOf}."
      },
      "renounceOwnership()": {
        "details": "Leaves the contract without owner. It will not be possible to call `onlyOwner` functions anymore. Can only be called by the current owner. NOTE: Renouncing ownership will leave the contract without an owner, thereby removing any functionality that is only available to the owner."
      },
      "safeTransferFrom(address,address,uint256)": {
        "details": "See {IERC721-safeTransferFrom}."
      },
      "safeTransferFrom(address,address,uint256,bytes)": {
        "details": "See {IERC721-safeTransferFrom}."
      },
      "setApprovalForAll(address,bool)": {
        "details": "See {IERC721-setApprovalForAll}."
      },
      "supportsInterface(bytes4)": {
        "details": "See {IERC165-supportsInterface}."
      },
      "symbol()": {
        "details": "See {IERC721Metadata-symbol}."
      },
      "tokenURI(uint256)": {
        "details": "See {IERC721Metadata-tokenURI}."
      },
      "transferFrom(address,address,uint256)": {
        "details": "See {IERC721-transferFrom}."
      },
      "transferOwnership(address)": {
        "details": "Transfers ownership of the contract to a new account (`newOwner`). Can only be called by the current owner."
      }
    },
    "version": 1
  },
  "userdoc": {
    "kind": "user",
    "methods": {},
    "version": 1
  }
}