{
  "contractName": "NFTMembershipToken",
  "abi": [
    {
      "inputs": [],
      "stateMutability": "nonpayable",
      "type": "constructor"
    },
    {
      "anonymous": false,
      "inputs": [
        {
          "indexed": true,
          "internalType": "address",
          "name": "account",
          "type": "address"
        },
        {
          "indexed": true,
          "internalType": "address",
          "name": "operator",
          "type": "address"
        },
        {
          "indexed": false,
          "internalType": "bool",
          "name": "approved",
          "type": "bool"
        }
      ],
      "name": "ApprovalForAll",
      "type": "event"
    },
    {
      "anonymous": false,
      "inputs": [
        {
          "indexed": true,
          "internalType": "address",
          "name": "owner",
          "type": "address"
        },
        {
          "indexed": true,
          "internalType": "uint256",
          "name": "tokenId",
          "type": "uint256"
        },
        {
          "indexed": false,
          "internalType": "string",
          "name": "metadataURI",
          "type": "string"
        }
      ],
      "name": "NFTMinted",
      "type": "event"
    },
    {
      "anonymous": false,
      "inputs": [
        {
          "indexed": true,
          "internalType": "address",
          "name": "previousOwner",
          "type": "address"
        },
        {
          "indexed": true,
          "internalType": "address",
          "name": "newOwner",
          "type": "address"
        }
      ],
      "name": "OwnershipTransferred",
      "type": "event"
    },
    {
      "anonymous": false,
      "inputs": [
        {
          "indexed": true,
          "internalType": "address",
          "name": "operator",
          "type": "address"
        },
        {
          "indexed": true,
          "internalType": "address",
          "name": "from",
          "type": "address"
        },
        {
          "indexed": true,
          "internalType": "address",
          "name": "to",
          "type": "address"
        },
        {
          "indexed": false,
          "internalType": "uint256[]",
          "name": "ids",
          "type": "uint256[]"
        },
        {
          "indexed": false,
          "internalType": "uint256[]",
          "name": "values",
          "type": "uint256[]"
        }
      ],
      "name": "TransferBatch",
      "type": "event"
    },
    {
      "anonymous": false,
      "inputs": [
        {
          "indexed": true,
          "internalType": "address",
          "name": "operator",
          "type": "address"
        },
        {
          "indexed": true,
          "internalType": "address",
          "name": "from",
          "type": "address"
        },
        {
          "indexed": true,
          "internalType": "address",
          "name": "to",
          "type": "address"
        },
        {
          "indexed": false,
          "internalType": "uint256",
          "name": "id",
          "type": "uint256"
        },
        {
          "indexed": false,
          "internalType": "uint256",
          "name": "value",
          "type": "uint256"
        }
      ],
      "name": "TransferSingle",
      "type": "event"
    },
    {
      "anonymous": false,
      "inputs": [
        {
          "indexed": false,
          "internalType": "string",
          "name": "value",
          "type": "string"
        },
        {
          "indexed": true,
          "internalType": "uint256",
          "name": "id",
          "type": "uint256"
        }
      ],
      "name": "URI",
      "type": "event"
    },
    {
      "inputs": [
        {
          "internalType": "address",
          "name": "account",
          "type": "address"
        },
        {
          "internalType": "uint256",
          "name": "id",
          "type": "uint256"
        }
      ],
      "name": "balanceOf",
      "outputs": [
        {
          "internalType": "uint256",
          "name": "",
          "type": "uint256"
        }
      ],
      "stateMutability": "view",
      "type": "function",
      "constant": true
    },
    {
      "inputs": [
        {
          "internalType": "address[]",
          "name": "accounts",
          "type": "address[]"
        },
        {
          "internalType": "uint256[]",
          "name": "ids",
          "type": "uint256[]"
        }
      ],
      "name": "balanceOfBatch",
      "outputs": [
        {
          "internalType": "uint256[]",
          "name": "",
          "type": "uint256[]"
        }
      ],
      "stateMutability": "view",
      "type": "function",
      "constant": true
    },
    {
      "inputs": [
        {
          "internalType": "address",
          "name": "account",
          "type": "address"
        },
        {
          "internalType": "address",
          "name": "operator",
          "type": "address"
        }
      ],
      "name": "isApprovedForAll",
      "outputs": [
        {
          "internalType": "bool",
          "name": "",
          "type": "bool"
        }
      ],
      "stateMutability": "view",
      "type": "function",
      "constant": true
    },
    {
      "inputs": [],
      "name": "owner",
      "outputs": [
        {
          "internalType": "address",
          "name": "",
          "type": "address"
        }
      ],
      "stateMutability": "view",
      "type": "function",
      "constant": true
    },
    {
      "inputs": [],
      "name": "renounceOwnership",
      "outputs": [],
      "stateMutability": "nonpayable",
      "type": "function"
    },
    {
      "inputs": [
        {
          "internalType": "address",
          "name": "from",
          "type": "address"
        },
        {
          "internalType": "address",
          "name": "to",
          "type": "address"
        },
        {
          "internalType": "uint256[]",
          "name": "ids",
          "type": "uint256[]"
        },
        {
          "internalType": "uint256[]",
          "name": "amounts",
          "type": "uint256[]"
        },
        {
          "internalType": "bytes",
          "name": "data",
          "type": "bytes"
        }
      ],
      "name": "safeBatchTransferFrom",
      "outputs": [],
      "stateMutability": "nonpayable",
      "type": "function"
    },
    {
      "inputs": [
        {
          "internalType": "address",
          "name": "from",
          "type": "address"
        },
        {
          "internalType": "address",
          "name": "to",
          "type": "address"
        },
        {
          "internalType": "uint256",
          "name": "id",
          "type": "uint256"
        },
        {
          "internalType": "uint256",
          "name": "amount",
          "type": "uint256"
        },
        {
          "internalType": "bytes",
          "name": "data",
          "type": "bytes"
        }
      ],
      "name": "safeTransferFrom",
      "outputs": [],
      "stateMutability": "nonpayable",
      "type": "function"
    },
    {
      "inputs": [
        {
          "internalType": "address",
          "name": "operator",
          "type": "address"
        },
        {
          "internalType": "bool",
          "name": "approved",
          "type": "bool"
        }
      ],
      "name": "setApprovalForAll",
      "outputs": [],
      "stateMutability": "nonpayable",
      "type": "function"
    },
    {
      "inputs": [
        {
          "internalType": "bytes4",
          "name": "interfaceId",
          "type": "bytes4"
        }
      ],
      "name": "supportsInterface",
      "outputs": [
        {
          "internalType": "bool",
          "name": "",
          "type": "bool"
        }
      ],
      "stateMutability": "view",
      "type": "function",
      "constant": true
    },
    {
      "inputs": [
        {
          "internalType": "address",
          "name": "newOwner",
          "type": "address"
        }
      ],
      "name": "transferOwnership",
      "outputs": [],
      "stateMutability": "nonpayable",
      "type": "function"
    },
    {
      "inputs": [
        {
          "internalType": "string",
          "name": "_metadataURI",
          "type": "string"
        }
      ],
      "name": "mint",
      "outputs": [],
      "stateMutability": "nonpayable",
      "type": "function"
    },
    {
      "inputs": [
        {
          "internalType": "uint256",
          "name": "_id",
          "type": "uint256"
        }
      ],
      "name": "uri",
      "outputs": [
        {
          "internalType": "string",
          "name": "",
          "type": "string"
        }
      ],
      "stateMutability": "view",
      "type": "function",
      "constant": true
    }
  ],
  "bytecode": "0x60806040523480156200001157600080fd5b506040518060400160405280601881526020017f4e4654204d656d6265727368697020546f6b656e20555249000000000000000081525062000059816200011160201b60201c565b5060006200006c6200012d60201b60201c565b905080600360006101000a81548173ffffffffffffffffffffffffffffffffffffffff021916908373ffffffffffffffffffffffffffffffffffffffff1602179055508073ffffffffffffffffffffffffffffffffffffffff16600073ffffffffffffffffffffffffffffffffffffffff167f8be0079c531659141344cd1fd0a4f28419497f9722a3daafe3b4186f6b6457e060405160405180910390a3506200024a565b80600290805190602001906200012992919062000135565b5050565b600033905090565b8280546200014390620001e5565b90600052602060002090601f016020900481019282620001675760008555620001b3565b82601f106200018257805160ff1916838001178555620001b3565b82800160010185558215620001b3579182015b82811115620001b257825182559160200191906001019062000195565b5b509050620001c29190620001c6565b5090565b5b80821115620001e1576000816000905550600101620001c7565b5090565b60006002820490506001821680620001fe57607f821691505b602082108114156200021557620002146200021b565b5b50919050565b7f4e487b7100000000000000000000000000000000000000000000000000000000600052602260045260246000fd5b612fe3806200025a6000396000f3fe608060405234801561001057600080fd5b50600436106100b35760003560e01c80638da5cb5b116100715780638da5cb5b1461019e578063a22cb465146101bc578063d85d3d27146101d8578063e985e9c5146101f4578063f242432a14610224578063f2fde38b14610240576100b3565b8062fdd58e146100b857806301ffc9a7146100e85780630e89341c146101185780632eb2c2d6146101485780634e1273f414610164578063715018a614610194575b600080fd5b6100d260048036038101906100cd9190611eaf565b61025c565b6040516100df9190612a82565b60405180910390f35b61010260048036038101906100fd9190611f57565b610325565b60405161010f9190612865565b60405180910390f35b610132600480360381019061012d9190611fea565b610407565b60405161013f9190612880565b60405180910390f35b610162600480360381019061015d9190611d25565b61047f565b005b61017e60048036038101906101799190611eeb565b610875565b60405161018b919061280c565b60405180910390f35b61019c610a26565b005b6101a6610b63565b6040516101b3919061272f565b60405180910390f35b6101d660048036038101906101d19190611e73565b610b8d565b005b6101f260048036038101906101ed9190611fa9565b610d0e565b005b61020e60048036038101906102099190611ce9565b610de6565b60405161021b9190612865565b60405180910390f35b61023e60048036038101906102399190611de4565b610e7a565b005b61025a60048036038101906102559190611cc0565b611192565b005b60008073ffffffffffffffffffffffffffffffffffffffff168373ffffffffffffffffffffffffffffffffffffffff1614156102cd576040517f08c379a00000000000000000000000000000000000000000000000000000000081526004016102c490612902565b60405180910390fd5b60008083815260200190815260200160002060008473ffffffffffffffffffffffffffffffffffffffff1673ffffffffffffffffffffffffffffffffffffffff16815260200190815260200160002054905092915050565b60007fd9b67a26000000000000000000000000000000000000000000000000000000007bffffffffffffffffffffffffffffffffffffffffffffffffffffffff1916827bffffffffffffffffffffffffffffffffffffffffffffffffffffffff191614806103f057507f0e89341c000000000000000000000000000000000000000000000000000000007bffffffffffffffffffffffffffffffffffffffffffffffffffffffff1916827bffffffffffffffffffffffffffffffffffffffffffffffffffffffff1916145b8061040057506103ff8261133e565b5b9050919050565b6060600454821061044d576040517f08c379a000000000000000000000000000000000000000000000000000000000815260040161044490612962565b60405180910390fd5b61045760006113a8565b82604051602001610469929190612707565b6040516020818303038152906040529050919050565b81518351146104c3576040517f08c379a00000000000000000000000000000000000000000000000000000000081526004016104ba90612a42565b60405180910390fd5b600073ffffffffffffffffffffffffffffffffffffffff168473ffffffffffffffffffffffffffffffffffffffff161415610533576040517f08c379a000000000000000000000000000000000000000000000000000000000815260040161052a90612982565b60405180910390fd5b61053b61143c565b73ffffffffffffffffffffffffffffffffffffffff168573ffffffffffffffffffffffffffffffffffffffff16148061058157506105808561057b61143c565b610de6565b5b6105c0576040517f08c379a00000000000000000000000000000000000000000000000000000000081526004016105b7906129a2565b60405180910390fd5b60006105ca61143c565b90506105da818787878787611444565b60005b84518110156107e0576000858281518110610621577f4e487b7100000000000000000000000000000000000000000000000000000000600052603260045260246000fd5b602002602001015190506000858381518110610666577f4e487b7100000000000000000000000000000000000000000000000000000000600052603260045260246000fd5b60200260200101519050600080600084815260200190815260200160002060008b73ffffffffffffffffffffffffffffffffffffffff1673ffffffffffffffffffffffffffffffffffffffff16815260200190815260200160002054905081811015610707576040517f08c379a00000000000000000000000000000000000000000000000000000000081526004016106fe906129c2565b60405180910390fd5b81816107139190612c81565b60008085815260200190815260200160002060008c73ffffffffffffffffffffffffffffffffffffffff1673ffffffffffffffffffffffffffffffffffffffff168152602001908152602001600020819055508160008085815260200190815260200160002060008b73ffffffffffffffffffffffffffffffffffffffff1673ffffffffffffffffffffffffffffffffffffffff16815260200190815260200160002060008282546107c59190612c2b565b92505081905550505050806107d990612d9d565b90506105dd565b508473ffffffffffffffffffffffffffffffffffffffff168673ffffffffffffffffffffffffffffffffffffffff168273ffffffffffffffffffffffffffffffffffffffff167f4a39dc06d4c0dbc64b70af90fd698a233a518aa5d07e595d983b8c0526c8f7fb878760405161085792919061282e565b60405180910390a461086d81878787878761144c565b505050505050565b606081518351146108bb576040517f08c379a00000000000000000000000000000000000000000000000000000000081526004016108b290612a22565b60405180910390fd5b6000835167ffffffffffffffff8111156108fe577f4e487b7100000000000000000000000000000000000000000000000000000000600052604160045260246000fd5b60405190808252806020026020018201604052801561092c5781602001602082028036833780820191505090505b50905060005b8451811015610a1b576109c5858281518110610977577f4e487b7100000000000000000000000000000000000000000000000000000000600052603260045260246000fd5b60200260200101518583815181106109b8577f4e487b7100000000000000000000000000000000000000000000000000000000600052603260045260246000fd5b602002602001015161025c565b8282815181106109fe577f4e487b7100000000000000000000000000000000000000000000000000000000600052603260045260246000fd5b60200260200101818152505080610a1490612d9d565b9050610932565b508091505092915050565b610a2e61143c565b73ffffffffffffffffffffffffffffffffffffffff16610a4c610b63565b73ffffffffffffffffffffffffffffffffffffffff1614610aa2576040517f08c379a0000000000000000000000000000000000000000000000000000000008152600401610a99906129e2565b60405180910390fd5b600073ffffffffffffffffffffffffffffffffffffffff16600360009054906101000a900473ffffffffffffffffffffffffffffffffffffffff1673ffffffffffffffffffffffffffffffffffffffff167f8be0079c531659141344cd1fd0a4f28419497f9722a3daafe3b4186f6b6457e060405160405180910390a36000600360006101000a81548173ffffffffffffffffffffffffffffffffffffffff021916908373ffffffffffffffffffffffffffffffffffffffff160217905550565b6000600360009054906101000a900473ffffffffffffffffffffffffffffffffffffffff16905090565b8173ffffffffffffffffffffffffffffffffffffffff16610bac61143c565b73ffffffffffffffffffffffffffffffffffffffff161415610c03576040517f08c379a0000000000000000000000000000000000000000000000000000000008152600401610bfa90612a02565b60405180910390fd5b8060016000610c1061143c565b73ffffffffffffffffffffffffffffffffffffffff1673ffffffffffffffffffffffffffffffffffffffff16815260200190815260200160002060008473ffffffffffffffffffffffffffffffffffffffff1673ffffffffffffffffffffffffffffffffffffffff16815260200190815260200160002060006101000a81548160ff0219169083151502179055508173ffffffffffffffffffffffffffffffffffffffff16610cbd61143c565b73ffffffffffffffffffffffffffffffffffffffff167f17307eab39ab6107e8899845ad3d59bd9653f200f220920489ca2b5937696c3183604051610d029190612865565b60405180910390a35050565b6000610d1c3360045461025c565b14610d5c576040517f08c379a0000000000000000000000000000000000000000000000000000000008152600401610d53906128e2565b60405180910390fd5b610d7a3360045460016040518060200160405280600081525061161c565b6004543373ffffffffffffffffffffffffffffffffffffffff167fd35bb95e09c04b219e35047ce7b7b300e3384264ef84a40456943dbc0fc17c1483604051610dc39190612880565b60405180910390a360046000815480929190610dde90612d9d565b919050555050565b6000600160008473ffffffffffffffffffffffffffffffffffffffff1673ffffffffffffffffffffffffffffffffffffffff16815260200190815260200160002060008373ffffffffffffffffffffffffffffffffffffffff1673ffffffffffffffffffffffffffffffffffffffff16815260200190815260200160002060009054906101000a900460ff16905092915050565b600073ffffffffffffffffffffffffffffffffffffffff168473ffffffffffffffffffffffffffffffffffffffff161415610eea576040517f08c379a0000000000000000000000000000000000000000000000000000000008152600401610ee190612982565b60405180910390fd5b610ef261143c565b73ffffffffffffffffffffffffffffffffffffffff168573ffffffffffffffffffffffffffffffffffffffff161480610f385750610f3785610f3261143c565b610de6565b5b610f77576040517f08c379a0000000000000000000000000000000000000000000000000000000008152600401610f6e90612942565b60405180910390fd5b6000610f8161143c565b9050610fa1818787610f92886117b2565b610f9b886117b2565b87611444565b600080600086815260200190815260200160002060008873ffffffffffffffffffffffffffffffffffffffff1673ffffffffffffffffffffffffffffffffffffffff16815260200190815260200160002054905083811015611038576040517f08c379a000000000000000000000000000000000000000000000000000000000815260040161102f906129c2565b60405180910390fd5b83816110449190612c81565b60008087815260200190815260200160002060008973ffffffffffffffffffffffffffffffffffffffff1673ffffffffffffffffffffffffffffffffffffffff168152602001908152602001600020819055508360008087815260200190815260200160002060008873ffffffffffffffffffffffffffffffffffffffff1673ffffffffffffffffffffffffffffffffffffffff16815260200190815260200160002060008282546110f69190612c2b565b925050819055508573ffffffffffffffffffffffffffffffffffffffff168773ffffffffffffffffffffffffffffffffffffffff168373ffffffffffffffffffffffffffffffffffffffff167fc3d58168c5ae7397731d063d5bbf3d657854427343f4c083240f7aacaa2d0f628888604051611173929190612a9d565b60405180910390a4611189828888888888611878565b50505050505050565b61119a61143c565b73ffffffffffffffffffffffffffffffffffffffff166111b8610b63565b73ffffffffffffffffffffffffffffffffffffffff161461120e576040517f08c379a0000000000000000000000000000000000000000000000000000000008152600401611205906129e2565b60405180910390fd5b600073ffffffffffffffffffffffffffffffffffffffff168173ffffffffffffffffffffffffffffffffffffffff16141561127e576040517f08c379a000000000000000000000000000000000000000000000000000000000815260040161127590612922565b60405180910390fd5b8073ffffffffffffffffffffffffffffffffffffffff16600360009054906101000a900473ffffffffffffffffffffffffffffffffffffffff1673ffffffffffffffffffffffffffffffffffffffff167f8be0079c531659141344cd1fd0a4f28419497f9722a3daafe3b4186f6b6457e060405160405180910390a380600360006101000a81548173ffffffffffffffffffffffffffffffffffffffff021916908373ffffffffffffffffffffffffffffffffffffffff16021790555050565b60007f01ffc9a7000000000000000000000000000000000000000000000000000000007bffffffffffffffffffffffffffffffffffffffffffffffffffffffff1916827bffffffffffffffffffffffffffffffffffffffffffffffffffffffff1916149050919050565b6060600280546113b790612d6b565b80601f01602080910402602001604051908101604052809291908181526020018280546113e390612d6b565b80156114305780601f1061140557610100808354040283529160200191611430565b820191906000526020600020905b81548152906001019060200180831161141357829003601f168201915b50505050509050919050565b600033905090565b505050505050565b61146b8473ffffffffffffffffffffffffffffffffffffffff16611a48565b15611614578373ffffffffffffffffffffffffffffffffffffffff1663bc197c8187878686866040518663ffffffff1660e01b81526004016114b195949392919061274a565b602060405180830381600087803b1580156114cb57600080fd5b505af19250505080156114fc57506040513d601f19601f820116820180604052508101906114f99190611f80565b60015b61158b57611508612e9b565b806115135750611550565b806040517f08c379a00000000000000000000000000000000000000000000000000000000081526004016115479190612880565b60405180910390fd5b6040517f08c379a0000000000000000000000000000000000000000000000000000000008152600401611582906128a2565b60405180910390fd5b63bc197c8160e01b7bffffffffffffffffffffffffffffffffffffffffffffffffffffffff1916817bffffffffffffffffffffffffffffffffffffffffffffffffffffffff191614611612576040517f08c379a0000000000000000000000000000000000000000000000000000000008152600401611609906128c2565b60405180910390fd5b505b505050505050565b600073ffffffffffffffffffffffffffffffffffffffff168473ffffffffffffffffffffffffffffffffffffffff16141561168c576040517f08c379a000000000000000000000000000000000000000000000000000000000815260040161168390612a62565b60405180910390fd5b600061169661143c565b90506116b7816000876116a8886117b2565b6116b1886117b2565b87611444565b8260008086815260200190815260200160002060008773ffffffffffffffffffffffffffffffffffffffff1673ffffffffffffffffffffffffffffffffffffffff16815260200190815260200160002060008282546117169190612c2b565b925050819055508473ffffffffffffffffffffffffffffffffffffffff16600073ffffffffffffffffffffffffffffffffffffffff168273ffffffffffffffffffffffffffffffffffffffff167fc3d58168c5ae7397731d063d5bbf3d657854427343f4c083240f7aacaa2d0f628787604051611794929190612a9d565b60405180910390a46117ab81600087878787611878565b5050505050565b60606000600167ffffffffffffffff8111156117f7577f4e487b7100000000000000000000000000000000000000000000000000000000600052604160045260246000fd5b6040519080825280602002602001820160405280156118255781602001602082028036833780820191505090505b5090508281600081518110611863577f4e487b7100000000000000000000000000000000000000000000000000000000600052603260045260246000fd5b60200260200101818152505080915050919050565b6118978473ffffffffffffffffffffffffffffffffffffffff16611a48565b15611a40578373ffffffffffffffffffffffffffffffffffffffff1663f23a6e6187878686866040518663ffffffff1660e01b81526004016118dd9594939291906127b2565b602060405180830381600087803b1580156118f757600080fd5b505af192505050801561192857506040513d601f19601f820116820180604052508101906119259190611f80565b60015b6119b757611934612e9b565b8061193f575061197c565b806040517f08c379a00000000000000000000000000000000000000000000000000000000081526004016119739190612880565b60405180910390fd5b6040517f08c379a00000000000000000000000000000000000000000000000000000000081526004016119ae906128a2565b60405180910390fd5b63f23a6e6160e01b7bffffffffffffffffffffffffffffffffffffffffffffffffffffffff1916817bffffffffffffffffffffffffffffffffffffffffffffffffffffffff191614611a3e576040517f08c379a0000000000000000000000000000000000000000000000000000000008152600401611a35906128c2565b60405180910390fd5b505b505050505050565b600080823b905060008111915050919050565b6000611a6e611a6984612af7565b612ac6565b90508083825260208201905082856020860282011115611a8d57600080fd5b60005b85811015611abd5781611aa38882611baf565b845260208401935060208301925050600181019050611a90565b5050509392505050565b6000611ada611ad584612b23565b612ac6565b90508083825260208201905082856020860282011115611af957600080fd5b60005b85811015611b295781611b0f8882611cab565b845260208401935060208301925050600181019050611afc565b5050509392505050565b6000611b46611b4184612b4f565b612ac6565b905082815260208101848484011115611b5e57600080fd5b611b69848285612d29565b509392505050565b6000611b84611b7f84612b7f565b612ac6565b905082815260208101848484011115611b9c57600080fd5b611ba7848285612d29565b509392505050565b600081359050611bbe81612f51565b92915050565b600082601f830112611bd557600080fd5b8135611be5848260208601611a5b565b91505092915050565b600082601f830112611bff57600080fd5b8135611c0f848260208601611ac7565b91505092915050565b600081359050611c2781612f68565b92915050565b600081359050611c3c81612f7f565b92915050565b600081519050611c5181612f7f565b92915050565b600082601f830112611c6857600080fd5b8135611c78848260208601611b33565b91505092915050565b600082601f830112611c9257600080fd5b8135611ca2848260208601611b71565b91505092915050565b600081359050611cba81612f96565b92915050565b600060208284031215611cd257600080fd5b6000611ce084828501611baf565b91505092915050565b60008060408385031215611cfc57600080fd5b6000611d0a85828601611baf565b9250506020611d1b85828601611baf565b9150509250929050565b600080600080600060a08688031215611d3d57600080fd5b6000611d4b88828901611baf565b9550506020611d5c88828901611baf565b945050604086013567ffffffffffffffff811115611d7957600080fd5b611d8588828901611bee565b935050606086013567ffffffffffffffff811115611da257600080fd5b611dae88828901611bee565b925050608086013567ffffffffffffffff811115611dcb57600080fd5b611dd788828901611c57565b9150509295509295909350565b600080600080600060a08688031215611dfc57600080fd5b6000611e0a88828901611baf565b9550506020611e1b88828901611baf565b9450506040611e2c88828901611cab565b9350506060611e3d88828901611cab565b925050608086013567ffffffffffffffff811115611e5a57600080fd5b611e6688828901611c57565b9150509295509295909350565b60008060408385031215611e8657600080fd5b6000611e9485828601611baf565b9250506020611ea585828601611c18565b9150509250929050565b60008060408385031215611ec257600080fd5b6000611ed085828601611baf565b9250506020611ee185828601611cab565b9150509250929050565b60008060408385031215611efe57600080fd5b600083013567ffffffffffffffff811115611f1857600080fd5b611f2485828601611bc4565b925050602083013567ffffffffffffffff811115611f4157600080fd5b611f4d85828601611bee565b9150509250929050565b600060208284031215611f6957600080fd5b6000611f7784828501611c2d565b91505092915050565b600060208284031215611f9257600080fd5b6000611fa084828501611c42565b91505092915050565b600060208284031215611fbb57600080fd5b600082013567ffffffffffffffff811115611fd557600080fd5b611fe184828501611c81565b91505092915050565b600060208284031215611ffc57600080fd5b600061200a84828501611cab565b91505092915050565b600061201f83836126d2565b60208301905092915050565b61203481612cb5565b82525050565b600061204582612bbf565b61204f8185612bed565b935061205a83612baf565b8060005b8381101561208b5781516120728882612013565b975061207d83612be0565b92505060018101905061205e565b5085935050505092915050565b6120a181612cc7565b82525050565b60006120b282612bca565b6120bc8185612bfe565b93506120cc818560208601612d38565b6120d581612e7d565b840191505092915050565b60006120eb82612bd5565b6120f58185612c0f565b9350612105818560208601612d38565b61210e81612e7d565b840191505092915050565b600061212482612bd5565b61212e8185612c20565b935061213e818560208601612d38565b80840191505092915050565b6000612157603483612c0f565b91507f455243313135353a207472616e7366657220746f206e6f6e204552433131353560008301527f526563656976657220696d706c656d656e7465720000000000000000000000006020830152604082019050919050565b60006121bd602883612c0f565b91507f455243313135353a204552433131353552656365697665722072656a6563746560008301527f6420746f6b656e730000000000000000000000000000000000000000000000006020830152604082019050919050565b6000612223600e83612c0f565b91507f416c7265616479206d696e7465640000000000000000000000000000000000006000830152602082019050919050565b6000612263602b83612c0f565b91507f455243313135353a2062616c616e636520717565727920666f7220746865207a60008301527f65726f20616464726573730000000000000000000000000000000000000000006020830152604082019050919050565b60006122c9602683612c0f565b91507f4f776e61626c653a206e6577206f776e657220697320746865207a65726f206160008301527f64647265737300000000000000000000000000000000000000000000000000006020830152604082019050919050565b600061232f602983612c0f565b91507f455243313135353a2063616c6c6572206973206e6f74206f776e6572206e6f7260008301527f20617070726f76656400000000000000000000000000000000000000000000006020830152604082019050919050565b6000612395601783612c0f565b91507f546f6b656e20494420646f6573206e6f742065786973740000000000000000006000830152602082019050919050565b60006123d5602583612c0f565b91507f455243313135353a207472616e7366657220746f20746865207a65726f20616460008301527f64726573730000000000000000000000000000000000000000000000000000006020830152604082019050919050565b600061243b603283612c0f565b91507f455243313135353a207472616e736665722063616c6c6572206973206e6f742060008301527f6f776e6572206e6f7220617070726f76656400000000000000000000000000006020830152604082019050919050565b60006124a1602a83612c0f565b91507f455243313135353a20696e73756666696369656e742062616c616e636520666f60008301527f72207472616e73666572000000000000000000000000000000000000000000006020830152604082019050919050565b6000612507602083612c0f565b91507f4f776e61626c653a2063616c6c6572206973206e6f7420746865206f776e65726000830152602082019050919050565b6000612547602983612c0f565b91507f455243313135353a2073657474696e6720617070726f76616c2073746174757360008301527f20666f722073656c6600000000000000000000000000000000000000000000006020830152604082019050919050565b60006125ad602983612c0f565b91507f455243313135353a206163636f756e747320616e6420696473206c656e67746860008301527f206d69736d6174636800000000000000000000000000000000000000000000006020830152604082019050919050565b6000612613602883612c0f565b91507f455243313135353a2069647320616e6420616d6f756e7473206c656e6774682060008301527f6d69736d617463680000000000000000000000000000000000000000000000006020830152604082019050919050565b6000612679602183612c0f565b91507f455243313135353a206d696e7420746f20746865207a65726f2061646472657360008301527f73000000000000000000000000000000000000000000000000000000000000006020830152604082019050919050565b6126db81612d1f565b82525050565b6126ea81612d1f565b82525050565b6127016126fc82612d1f565b612de6565b82525050565b60006127138285612119565b915061271f82846126f0565b6020820191508190509392505050565b6000602082019050612744600083018461202b565b92915050565b600060a08201905061275f600083018861202b565b61276c602083018761202b565b818103604083015261277e818661203a565b90508181036060830152612792818561203a565b905081810360808301526127a681846120a7565b90509695505050505050565b600060a0820190506127c7600083018861202b565b6127d4602083018761202b565b6127e160408301866126e1565b6127ee60608301856126e1565b818103608083015261280081846120a7565b90509695505050505050565b60006020820190508181036000830152612826818461203a565b905092915050565b60006040820190508181036000830152612848818561203a565b9050818103602083015261285c818461203a565b90509392505050565b600060208201905061287a6000830184612098565b92915050565b6000602082019050818103600083015261289a81846120e0565b905092915050565b600060208201905081810360008301526128bb8161214a565b9050919050565b600060208201905081810360008301526128db816121b0565b9050919050565b600060208201905081810360008301526128fb81612216565b9050919050565b6000602082019050818103600083015261291b81612256565b9050919050565b6000602082019050818103600083015261293b816122bc565b9050919050565b6000602082019050818103600083015261295b81612322565b9050919050565b6000602082019050818103600083015261297b81612388565b9050919050565b6000602082019050818103600083015261299b816123c8565b9050919050565b600060208201905081810360008301526129bb8161242e565b9050919050565b600060208201905081810360008301526129db81612494565b9050919050565b600060208201905081810360008301526129fb816124fa565b9050919050565b60006020820190508181036000830152612a1b8161253a565b9050919050565b60006020820190508181036000830152612a3b816125a0565b9050919050565b60006020820190508181036000830152612a5b81612606565b9050919050565b60006020820190508181036000830152612a7b8161266c565b9050919050565b6000602082019050612a9760008301846126e1565b92915050565b6000604082019050612ab260008301856126e1565b612abf60208301846126e1565b9392505050565b6000604051905081810181811067ffffffffffffffff82111715612aed57612aec612e4e565b5b8060405250919050565b600067ffffffffffffffff821115612b1257612b11612e4e565b5b602082029050602081019050919050565b600067ffffffffffffffff821115612b3e57612b3d612e4e565b5b602082029050602081019050919050565b600067ffffffffffffffff821115612b6a57612b69612e4e565b5b601f19601f8301169050602081019050919050565b600067ffffffffffffffff821115612b9a57612b99612e4e565b5b601f19601f8301169050602081019050919050565b6000819050602082019050919050565b600081519050919050565b600081519050919050565b600081519050919050565b6000602082019050919050565b600082825260208201905092915050565b600082825260208201905092915050565b600082825260208201905092915050565b600081905092915050565b6000612c3682612d1f565b9150612c4183612d1f565b9250827fffffffffffffffffffffffffffffffffffffffffffffffffffffffffffffffff03821115612c7657612c75612df0565b5b828201905092915050565b6000612c8c82612d1f565b9150612c9783612d1f565b925082821015612caa57612ca9612df0565b5b828203905092915050565b6000612cc082612cff565b9050919050565b60008115159050919050565b60007fffffffff0000000000000000000000000000000000000000000000000000000082169050919050565b600073ffffffffffffffffffffffffffffffffffffffff82169050919050565b6000819050919050565b82818337600083830152505050565b60005b83811015612d56578082015181840152602081019050612d3b565b83811115612d65576000848401525b50505050565b60006002820490506001821680612d8357607f821691505b60208210811415612d9757612d96612e1f565b5b50919050565b6000612da882612d1f565b91507fffffffffffffffffffffffffffffffffffffffffffffffffffffffffffffffff821415612ddb57612dda612df0565b5b600182019050919050565b6000819050919050565b7f4e487b7100000000000000000000000000000000000000000000000000000000600052601160045260246000fd5b7f4e487b7100000000000000000000000000000000000000000000000000000000600052602260045260246000fd5b7f4e487b7100000000000000000000000000000000000000000000000000000000600052604160045260246000fd5b6000601f19601f8301169050919050565b60008160e01c9050919050565b600060443d1015612eab57612f4e565b60046000803e612ebc600051612e8e565b6308c379a08114612ecd5750612f4e565b60405160043d036004823e80513d602482011167ffffffffffffffff82111715612ef957505050612f4e565b808201805167ffffffffffffffff811115612f18575050505050612f4e565b8060208301013d8501811115612f3357505050505050612f4e565b612f3c82612e7d565b60208401016040528296505050505050505b90565b612f5a81612cb5565b8114612f6557600080fd5b50565b612f7181612cc7565b8114612f7c57600080fd5b50565b612f8881612cd3565b8114612f9357600080fd5b50565b612f9f81612d1f565b8114612faa57600080fd5b5056fea2646970667358221220eed821d42941ad12c62d436f904a018e8464d12027a219ff2e0668610b1d576564736f6c63430008000033",
  "immutableReferences": {},
  "source": "// SPDX-License-Identifier: MIT\r\npragma solidity ^0.8.0;\r\n\r\nimport \"@openzeppelin/contracts/token/ERC1155/ERC1155.sol\";\r\nimport \"@openzeppelin/contracts/access/Ownable.sol\";\r\n\r\ncontract NFTMembershipToken is ERC1155, Ownable {\r\n    uint256 private nextTokenId;\r\n    event NFTMinted(address indexed owner, uint256 indexed tokenId, string metadataURI);\r\n\r\n    constructor() ERC1155(\"NFT Membership Token URI\") {}\r\n\r\n    function mint(string memory _metadataURI) external {\r\n        require(balanceOf(msg.sender, nextTokenId) == 0, \"Already minted\");\r\n        _mint(msg.sender, nextTokenId, 1, \"\");\r\n        emit NFTMinted(msg.sender, nextTokenId, _metadataURI);\r\n        nextTokenId++;\r\n    }\r\n\r\n    function uri(uint256 _id) public view override returns (string memory) {\r\n        require(_id < nextTokenId, \"Token ID does not exist\");\r\n        return string(abi.encodePacked(super.uri(0), _id));\r\n    }\r\n}\r\n",
  "sourcePath": "C:\\Users\\i\\Documents\\GitHub\\DSP-old\\contracts\\contracts\\NFTMembershipToken.sol",
  "compiler": {
    "name": "solc",
    "version": "0.8.0+commit.c7dfd78e.Emscripten.clang"
  },
  "schemaVersion": "3.4.16",
  "updatedAt": "2024-03-06T08:36:31.056Z",
  "networkType": "ethereum",
  "devdoc": {
    "kind": "dev",
    "methods": {
      "balanceOf(address,uint256)": {
        "details": "See {IERC1155-balanceOf}. Requirements: - `account` cannot be the zero address."
      },
      "balanceOfBatch(address[],uint256[])": {
        "details": "See {IERC1155-balanceOfBatch}. Requirements: - `accounts` and `ids` must have the same length."
      },
      "isApprovedForAll(address,address)": {
        "details": "See {IERC1155-isApprovedForAll}."
      },
      "owner()": {
        "details": "Returns the address of the current owner."
      },
      "renounceOwnership()": {
        "details": "Leaves the contract without owner. It will not be possible to call `onlyOwner` functions anymore. Can only be called by the current owner. NOTE: Renouncing ownership will leave the contract without an owner, thereby removing any functionality that is only available to the owner."
      },
      "safeBatchTransferFrom(address,address,uint256[],uint256[],bytes)": {
        "details": "See {IERC1155-safeBatchTransferFrom}."
      },
      "safeTransferFrom(address,address,uint256,uint256,bytes)": {
        "details": "See {IERC1155-safeTransferFrom}."
      },
      "setApprovalForAll(address,bool)": {
        "details": "See {IERC1155-setApprovalForAll}."
      },
      "supportsInterface(bytes4)": {
        "details": "See {IERC165-supportsInterface}."
      },
      "transferOwnership(address)": {
        "details": "Transfers ownership of the contract to a new account (`newOwner`). Can only be called by the current owner."
      }
    },
    "version": 1
  },
  "userdoc": {
    "kind": "user",
    "methods": {},
    "version": 1
  }
}