{
  "contractName": "NFTMembershipToken",
  "abi": [
    {
      "inputs": [],
      "stateMutability": "nonpayable",
      "type": "constructor"
    },
    {
      "anonymous": false,
      "inputs": [
        {
          "indexed": true,
          "internalType": "address",
          "name": "account",
          "type": "address"
        },
        {
          "indexed": true,
          "internalType": "address",
          "name": "operator",
          "type": "address"
        },
        {
          "indexed": false,
          "internalType": "bool",
          "name": "approved",
          "type": "bool"
        }
      ],
      "name": "ApprovalForAll",
      "type": "event"
    },
    {
      "anonymous": false,
      "inputs": [
        {
          "indexed": true,
          "internalType": "address",
          "name": "owner",
          "type": "address"
        },
        {
          "indexed": true,
          "internalType": "uint256",
          "name": "tokenId",
          "type": "uint256"
        },
        {
          "indexed": false,
          "internalType": "string",
          "name": "metadataURI",
          "type": "string"
        }
      ],
      "name": "NFTMinted",
      "type": "event"
    },
    {
      "anonymous": false,
      "inputs": [
        {
          "indexed": true,
          "internalType": "address",
          "name": "previousOwner",
          "type": "address"
        },
        {
          "indexed": true,
          "internalType": "address",
          "name": "newOwner",
          "type": "address"
        }
      ],
      "name": "OwnershipTransferred",
      "type": "event"
    },
    {
      "anonymous": false,
      "inputs": [
        {
          "indexed": true,
          "internalType": "address",
          "name": "operator",
          "type": "address"
        },
        {
          "indexed": true,
          "internalType": "address",
          "name": "from",
          "type": "address"
        },
        {
          "indexed": true,
          "internalType": "address",
          "name": "to",
          "type": "address"
        },
        {
          "indexed": false,
          "internalType": "uint256[]",
          "name": "ids",
          "type": "uint256[]"
        },
        {
          "indexed": false,
          "internalType": "uint256[]",
          "name": "values",
          "type": "uint256[]"
        }
      ],
      "name": "TransferBatch",
      "type": "event"
    },
    {
      "anonymous": false,
      "inputs": [
        {
          "indexed": true,
          "internalType": "address",
          "name": "operator",
          "type": "address"
        },
        {
          "indexed": true,
          "internalType": "address",
          "name": "from",
          "type": "address"
        },
        {
          "indexed": true,
          "internalType": "address",
          "name": "to",
          "type": "address"
        },
        {
          "indexed": false,
          "internalType": "uint256",
          "name": "id",
          "type": "uint256"
        },
        {
          "indexed": false,
          "internalType": "uint256",
          "name": "value",
          "type": "uint256"
        }
      ],
      "name": "TransferSingle",
      "type": "event"
    },
    {
      "anonymous": false,
      "inputs": [
        {
          "indexed": false,
          "internalType": "string",
          "name": "value",
          "type": "string"
        },
        {
          "indexed": true,
          "internalType": "uint256",
          "name": "id",
          "type": "uint256"
        }
      ],
      "name": "URI",
      "type": "event"
    },
    {
      "inputs": [
        {
          "internalType": "address",
          "name": "account",
          "type": "address"
        },
        {
          "internalType": "uint256",
          "name": "id",
          "type": "uint256"
        }
      ],
      "name": "balanceOf",
      "outputs": [
        {
          "internalType": "uint256",
          "name": "",
          "type": "uint256"
        }
      ],
      "stateMutability": "view",
      "type": "function",
      "constant": true
    },
    {
      "inputs": [
        {
          "internalType": "address[]",
          "name": "accounts",
          "type": "address[]"
        },
        {
          "internalType": "uint256[]",
          "name": "ids",
          "type": "uint256[]"
        }
      ],
      "name": "balanceOfBatch",
      "outputs": [
        {
          "internalType": "uint256[]",
          "name": "",
          "type": "uint256[]"
        }
      ],
      "stateMutability": "view",
      "type": "function",
      "constant": true
    },
    {
      "inputs": [
        {
          "internalType": "address",
          "name": "account",
          "type": "address"
        },
        {
          "internalType": "address",
          "name": "operator",
          "type": "address"
        }
      ],
      "name": "isApprovedForAll",
      "outputs": [
        {
          "internalType": "bool",
          "name": "",
          "type": "bool"
        }
      ],
      "stateMutability": "view",
      "type": "function",
      "constant": true
    },
    {
      "inputs": [],
      "name": "owner",
      "outputs": [
        {
          "internalType": "address",
          "name": "",
          "type": "address"
        }
      ],
      "stateMutability": "view",
      "type": "function",
      "constant": true
    },
    {
      "inputs": [],
      "name": "renounceOwnership",
      "outputs": [],
      "stateMutability": "nonpayable",
      "type": "function"
    },
    {
      "inputs": [
        {
          "internalType": "address",
          "name": "from",
          "type": "address"
        },
        {
          "internalType": "address",
          "name": "to",
          "type": "address"
        },
        {
          "internalType": "uint256[]",
          "name": "ids",
          "type": "uint256[]"
        },
        {
          "internalType": "uint256[]",
          "name": "amounts",
          "type": "uint256[]"
        },
        {
          "internalType": "bytes",
          "name": "data",
          "type": "bytes"
        }
      ],
      "name": "safeBatchTransferFrom",
      "outputs": [],
      "stateMutability": "nonpayable",
      "type": "function"
    },
    {
      "inputs": [
        {
          "internalType": "address",
          "name": "from",
          "type": "address"
        },
        {
          "internalType": "address",
          "name": "to",
          "type": "address"
        },
        {
          "internalType": "uint256",
          "name": "id",
          "type": "uint256"
        },
        {
          "internalType": "uint256",
          "name": "amount",
          "type": "uint256"
        },
        {
          "internalType": "bytes",
          "name": "data",
          "type": "bytes"
        }
      ],
      "name": "safeTransferFrom",
      "outputs": [],
      "stateMutability": "nonpayable",
      "type": "function"
    },
    {
      "inputs": [
        {
          "internalType": "address",
          "name": "operator",
          "type": "address"
        },
        {
          "internalType": "bool",
          "name": "approved",
          "type": "bool"
        }
      ],
      "name": "setApprovalForAll",
      "outputs": [],
      "stateMutability": "nonpayable",
      "type": "function"
    },
    {
      "inputs": [
        {
          "internalType": "bytes4",
          "name": "interfaceId",
          "type": "bytes4"
        }
      ],
      "name": "supportsInterface",
      "outputs": [
        {
          "internalType": "bool",
          "name": "",
          "type": "bool"
        }
      ],
      "stateMutability": "view",
      "type": "function",
      "constant": true
    },
    {
      "inputs": [
        {
          "internalType": "address",
          "name": "newOwner",
          "type": "address"
        }
      ],
      "name": "transferOwnership",
      "outputs": [],
      "stateMutability": "nonpayable",
      "type": "function"
    },
    {
      "inputs": [
        {
          "internalType": "string",
          "name": "_metadataURI",
          "type": "string"
        }
      ],
      "name": "mint",
      "outputs": [],
      "stateMutability": "nonpayable",
      "type": "function"
    },
    {
      "inputs": [
        {
          "internalType": "address",
          "name": "_owner",
          "type": "address"
        }
      ],
      "name": "hasMintedNFT",
      "outputs": [
        {
          "internalType": "bool",
          "name": "",
          "type": "bool"
        }
      ],
      "stateMutability": "view",
      "type": "function",
      "constant": true
    },
    {
      "inputs": [
        {
          "internalType": "uint256",
          "name": "_id",
          "type": "uint256"
        }
      ],
      "name": "uri",
      "outputs": [
        {
          "internalType": "string",
          "name": "",
          "type": "string"
        }
      ],
      "stateMutability": "view",
      "type": "function",
      "constant": true
    }
  ],
  "bytecode": "0x608060405260006004553480156200001657600080fd5b506040518060400160405280601481526020017f4e4654204d656d6265727368697020546f6b656e0000000000000000000000008152506200005e816200011660201b60201c565b506000620000716200013260201b60201c565b905080600360006101000a81548173ffffffffffffffffffffffffffffffffffffffff021916908373ffffffffffffffffffffffffffffffffffffffff1602179055508073ffffffffffffffffffffffffffffffffffffffff16600073ffffffffffffffffffffffffffffffffffffffff167f8be0079c531659141344cd1fd0a4f28419497f9722a3daafe3b4186f6b6457e060405160405180910390a3506200024f565b80600290805190602001906200012e9291906200013a565b5050565b600033905090565b8280546200014890620001ea565b90600052602060002090601f0160209004810192826200016c5760008555620001b8565b82601f106200018757805160ff1916838001178555620001b8565b82800160010185558215620001b8579182015b82811115620001b75782518255916020019190600101906200019a565b5b509050620001c79190620001cb565b5090565b5b80821115620001e6576000816000905550600101620001cc565b5090565b600060028204905060018216806200020357607f821691505b602082108114156200021a576200021962000220565b5b50919050565b7f4e487b7100000000000000000000000000000000000000000000000000000000600052602260045260246000fd5b61303f806200025f6000396000f3fe608060405234801561001057600080fd5b50600436106100ce5760003560e01c80638da5cb5b1161008c578063e28cb25a11610066578063e28cb25a1461020f578063e985e9c51461023f578063f242432a1461026f578063f2fde38b1461028b576100ce565b80638da5cb5b146101b9578063a22cb465146101d7578063d85d3d27146101f3576100ce565b8062fdd58e146100d357806301ffc9a7146101035780630e89341c146101335780632eb2c2d6146101635780634e1273f41461017f578063715018a6146101af575b600080fd5b6100ed60048036038101906100e89190611f0b565b6102a7565b6040516100fa9190612ade565b60405180910390f35b61011d60048036038101906101189190611fb3565b610370565b60405161012a91906128c1565b60405180910390f35b61014d60048036038101906101489190612046565b610452565b60405161015a91906128dc565b60405180910390f35b61017d60048036038101906101789190611d81565b6104ca565b005b61019960048036038101906101949190611f47565b6108c0565b6040516101a69190612868565b60405180910390f35b6101b7610a71565b005b6101c1610bae565b6040516101ce919061278b565b60405180910390f35b6101f160048036038101906101ec9190611ecf565b610bd8565b005b61020d60048036038101906102089190612005565b610d59565b005b61022960048036038101906102249190611d1c565b610e2c565b60405161023691906128c1565b60405180910390f35b61025960048036038101906102549190611d45565b610e42565b60405161026691906128c1565b60405180910390f35b61028960048036038101906102849190611e40565b610ed6565b005b6102a560048036038101906102a09190611d1c565b6111ee565b005b60008073ffffffffffffffffffffffffffffffffffffffff168373ffffffffffffffffffffffffffffffffffffffff161415610318576040517f08c379a000000000000000000000000000000000000000000000000000000000815260040161030f9061293e565b60405180910390fd5b60008083815260200190815260200160002060008473ffffffffffffffffffffffffffffffffffffffff1673ffffffffffffffffffffffffffffffffffffffff16815260200190815260200160002054905092915050565b60007fd9b67a26000000000000000000000000000000000000000000000000000000007bffffffffffffffffffffffffffffffffffffffffffffffffffffffff1916827bffffffffffffffffffffffffffffffffffffffffffffffffffffffff1916148061043b57507f0e89341c000000000000000000000000000000000000000000000000000000007bffffffffffffffffffffffffffffffffffffffffffffffffffffffff1916827bffffffffffffffffffffffffffffffffffffffffffffffffffffffff1916145b8061044b575061044a8261139a565b5b9050919050565b60606004548210610498576040517f08c379a000000000000000000000000000000000000000000000000000000000815260040161048f9061299e565b60405180910390fd5b6104a26000611404565b826040516020016104b4929190612763565b6040516020818303038152906040529050919050565b815183511461050e576040517f08c379a000000000000000000000000000000000000000000000000000000000815260040161050590612a9e565b60405180910390fd5b600073ffffffffffffffffffffffffffffffffffffffff168473ffffffffffffffffffffffffffffffffffffffff16141561057e576040517f08c379a0000000000000000000000000000000000000000000000000000000008152600401610575906129be565b60405180910390fd5b610586611498565b73ffffffffffffffffffffffffffffffffffffffff168573ffffffffffffffffffffffffffffffffffffffff1614806105cc57506105cb856105c6611498565b610e42565b5b61060b576040517f08c379a0000000000000000000000000000000000000000000000000000000008152600401610602906129de565b60405180910390fd5b6000610615611498565b90506106258187878787876114a0565b60005b845181101561082b57600085828151811061066c577f4e487b7100000000000000000000000000000000000000000000000000000000600052603260045260246000fd5b6020026020010151905060008583815181106106b1577f4e487b7100000000000000000000000000000000000000000000000000000000600052603260045260246000fd5b60200260200101519050600080600084815260200190815260200160002060008b73ffffffffffffffffffffffffffffffffffffffff1673ffffffffffffffffffffffffffffffffffffffff16815260200190815260200160002054905081811015610752576040517f08c379a0000000000000000000000000000000000000000000000000000000008152600401610749906129fe565b60405180910390fd5b818161075e9190612cdd565b60008085815260200190815260200160002060008c73ffffffffffffffffffffffffffffffffffffffff1673ffffffffffffffffffffffffffffffffffffffff168152602001908152602001600020819055508160008085815260200190815260200160002060008b73ffffffffffffffffffffffffffffffffffffffff1673ffffffffffffffffffffffffffffffffffffffff16815260200190815260200160002060008282546108109190612c87565b925050819055505050508061082490612df9565b9050610628565b508473ffffffffffffffffffffffffffffffffffffffff168673ffffffffffffffffffffffffffffffffffffffff168273ffffffffffffffffffffffffffffffffffffffff167f4a39dc06d4c0dbc64b70af90fd698a233a518aa5d07e595d983b8c0526c8f7fb87876040516108a292919061288a565b60405180910390a46108b88187878787876114a8565b505050505050565b60608151835114610906576040517f08c379a00000000000000000000000000000000000000000000000000000000081526004016108fd90612a5e565b60405180910390fd5b6000835167ffffffffffffffff811115610949577f4e487b7100000000000000000000000000000000000000000000000000000000600052604160045260246000fd5b6040519080825280602002602001820160405280156109775781602001602082028036833780820191505090505b50905060005b8451811015610a6657610a108582815181106109c2577f4e487b7100000000000000000000000000000000000000000000000000000000600052603260045260246000fd5b6020026020010151858381518110610a03577f4e487b7100000000000000000000000000000000000000000000000000000000600052603260045260246000fd5b60200260200101516102a7565b828281518110610a49577f4e487b7100000000000000000000000000000000000000000000000000000000600052603260045260246000fd5b60200260200101818152505080610a5f90612df9565b905061097d565b508091505092915050565b610a79611498565b73ffffffffffffffffffffffffffffffffffffffff16610a97610bae565b73ffffffffffffffffffffffffffffffffffffffff1614610aed576040517f08c379a0000000000000000000000000000000000000000000000000000000008152600401610ae490612a1e565b60405180910390fd5b600073ffffffffffffffffffffffffffffffffffffffff16600360009054906101000a900473ffffffffffffffffffffffffffffffffffffffff1673ffffffffffffffffffffffffffffffffffffffff167f8be0079c531659141344cd1fd0a4f28419497f9722a3daafe3b4186f6b6457e060405160405180910390a36000600360006101000a81548173ffffffffffffffffffffffffffffffffffffffff021916908373ffffffffffffffffffffffffffffffffffffffff160217905550565b6000600360009054906101000a900473ffffffffffffffffffffffffffffffffffffffff16905090565b8173ffffffffffffffffffffffffffffffffffffffff16610bf7611498565b73ffffffffffffffffffffffffffffffffffffffff161415610c4e576040517f08c379a0000000000000000000000000000000000000000000000000000000008152600401610c4590612a3e565b60405180910390fd5b8060016000610c5b611498565b73ffffffffffffffffffffffffffffffffffffffff1673ffffffffffffffffffffffffffffffffffffffff16815260200190815260200160002060008473ffffffffffffffffffffffffffffffffffffffff1673ffffffffffffffffffffffffffffffffffffffff16815260200190815260200160002060006101000a81548160ff0219169083151502179055508173ffffffffffffffffffffffffffffffffffffffff16610d08611498565b73ffffffffffffffffffffffffffffffffffffffff167f17307eab39ab6107e8899845ad3d59bd9653f200f220920489ca2b5937696c3183604051610d4d91906128c1565b60405180910390a35050565b610d6233610e2c565b15610da2576040517f08c379a0000000000000000000000000000000000000000000000000000000008152600401610d9990612a7e565b60405180910390fd5b6004543373ffffffffffffffffffffffffffffffffffffffff167fd35bb95e09c04b219e35047ce7b7b300e3384264ef84a40456943dbc0fc17c1483604051610deb91906128dc565b60405180910390a360046000815480929190610e0690612df9565b9190505550610e2933600454600160405180602001604052806000815250611678565b50565b600080610e3a8360006102a7565b119050919050565b6000600160008473ffffffffffffffffffffffffffffffffffffffff1673ffffffffffffffffffffffffffffffffffffffff16815260200190815260200160002060008373ffffffffffffffffffffffffffffffffffffffff1673ffffffffffffffffffffffffffffffffffffffff16815260200190815260200160002060009054906101000a900460ff16905092915050565b600073ffffffffffffffffffffffffffffffffffffffff168473ffffffffffffffffffffffffffffffffffffffff161415610f46576040517f08c379a0000000000000000000000000000000000000000000000000000000008152600401610f3d906129be565b60405180910390fd5b610f4e611498565b73ffffffffffffffffffffffffffffffffffffffff168573ffffffffffffffffffffffffffffffffffffffff161480610f945750610f9385610f8e611498565b610e42565b5b610fd3576040517f08c379a0000000000000000000000000000000000000000000000000000000008152600401610fca9061297e565b60405180910390fd5b6000610fdd611498565b9050610ffd818787610fee8861180e565b610ff78861180e565b876114a0565b600080600086815260200190815260200160002060008873ffffffffffffffffffffffffffffffffffffffff1673ffffffffffffffffffffffffffffffffffffffff16815260200190815260200160002054905083811015611094576040517f08c379a000000000000000000000000000000000000000000000000000000000815260040161108b906129fe565b60405180910390fd5b83816110a09190612cdd565b60008087815260200190815260200160002060008973ffffffffffffffffffffffffffffffffffffffff1673ffffffffffffffffffffffffffffffffffffffff168152602001908152602001600020819055508360008087815260200190815260200160002060008873ffffffffffffffffffffffffffffffffffffffff1673ffffffffffffffffffffffffffffffffffffffff16815260200190815260200160002060008282546111529190612c87565b925050819055508573ffffffffffffffffffffffffffffffffffffffff168773ffffffffffffffffffffffffffffffffffffffff168373ffffffffffffffffffffffffffffffffffffffff167fc3d58168c5ae7397731d063d5bbf3d657854427343f4c083240f7aacaa2d0f6288886040516111cf929190612af9565b60405180910390a46111e58288888888886118d4565b50505050505050565b6111f6611498565b73ffffffffffffffffffffffffffffffffffffffff16611214610bae565b73ffffffffffffffffffffffffffffffffffffffff161461126a576040517f08c379a000000000000000000000000000000000000000000000000000000000815260040161126190612a1e565b60405180910390fd5b600073ffffffffffffffffffffffffffffffffffffffff168173ffffffffffffffffffffffffffffffffffffffff1614156112da576040517f08c379a00000000000000000000000000000000000000000000000000000000081526004016112d19061295e565b60405180910390fd5b8073ffffffffffffffffffffffffffffffffffffffff16600360009054906101000a900473ffffffffffffffffffffffffffffffffffffffff1673ffffffffffffffffffffffffffffffffffffffff167f8be0079c531659141344cd1fd0a4f28419497f9722a3daafe3b4186f6b6457e060405160405180910390a380600360006101000a81548173ffffffffffffffffffffffffffffffffffffffff021916908373ffffffffffffffffffffffffffffffffffffffff16021790555050565b60007f01ffc9a7000000000000000000000000000000000000000000000000000000007bffffffffffffffffffffffffffffffffffffffffffffffffffffffff1916827bffffffffffffffffffffffffffffffffffffffffffffffffffffffff1916149050919050565b60606002805461141390612dc7565b80601f016020809104026020016040519081016040528092919081815260200182805461143f90612dc7565b801561148c5780601f106114615761010080835404028352916020019161148c565b820191906000526020600020905b81548152906001019060200180831161146f57829003601f168201915b50505050509050919050565b600033905090565b505050505050565b6114c78473ffffffffffffffffffffffffffffffffffffffff16611aa4565b15611670578373ffffffffffffffffffffffffffffffffffffffff1663bc197c8187878686866040518663ffffffff1660e01b815260040161150d9594939291906127a6565b602060405180830381600087803b15801561152757600080fd5b505af192505050801561155857506040513d601f19601f820116820180604052508101906115559190611fdc565b60015b6115e757611564612ef7565b8061156f57506115ac565b806040517f08c379a00000000000000000000000000000000000000000000000000000000081526004016115a391906128dc565b60405180910390fd5b6040517f08c379a00000000000000000000000000000000000000000000000000000000081526004016115de906128fe565b60405180910390fd5b63bc197c8160e01b7bffffffffffffffffffffffffffffffffffffffffffffffffffffffff1916817bffffffffffffffffffffffffffffffffffffffffffffffffffffffff19161461166e576040517f08c379a00000000000000000000000000000000000000000000000000000000081526004016116659061291e565b60405180910390fd5b505b505050505050565b600073ffffffffffffffffffffffffffffffffffffffff168473ffffffffffffffffffffffffffffffffffffffff1614156116e8576040517f08c379a00000000000000000000000000000000000000000000000000000000081526004016116df90612abe565b60405180910390fd5b60006116f2611498565b9050611713816000876117048861180e565b61170d8861180e565b876114a0565b8260008086815260200190815260200160002060008773ffffffffffffffffffffffffffffffffffffffff1673ffffffffffffffffffffffffffffffffffffffff16815260200190815260200160002060008282546117729190612c87565b925050819055508473ffffffffffffffffffffffffffffffffffffffff16600073ffffffffffffffffffffffffffffffffffffffff168273ffffffffffffffffffffffffffffffffffffffff167fc3d58168c5ae7397731d063d5bbf3d657854427343f4c083240f7aacaa2d0f6287876040516117f0929190612af9565b60405180910390a4611807816000878787876118d4565b5050505050565b60606000600167ffffffffffffffff811115611853577f4e487b7100000000000000000000000000000000000000000000000000000000600052604160045260246000fd5b6040519080825280602002602001820160405280156118815781602001602082028036833780820191505090505b50905082816000815181106118bf577f4e487b7100000000000000000000000000000000000000000000000000000000600052603260045260246000fd5b60200260200101818152505080915050919050565b6118f38473ffffffffffffffffffffffffffffffffffffffff16611aa4565b15611a9c578373ffffffffffffffffffffffffffffffffffffffff1663f23a6e6187878686866040518663ffffffff1660e01b815260040161193995949392919061280e565b602060405180830381600087803b15801561195357600080fd5b505af192505050801561198457506040513d601f19601f820116820180604052508101906119819190611fdc565b60015b611a1357611990612ef7565b8061199b57506119d8565b806040517f08c379a00000000000000000000000000000000000000000000000000000000081526004016119cf91906128dc565b60405180910390fd5b6040517f08c379a0000000000000000000000000000000000000000000000000000000008152600401611a0a906128fe565b60405180910390fd5b63f23a6e6160e01b7bffffffffffffffffffffffffffffffffffffffffffffffffffffffff1916817bffffffffffffffffffffffffffffffffffffffffffffffffffffffff191614611a9a576040517f08c379a0000000000000000000000000000000000000000000000000000000008152600401611a919061291e565b60405180910390fd5b505b505050505050565b600080823b905060008111915050919050565b6000611aca611ac584612b53565b612b22565b90508083825260208201905082856020860282011115611ae957600080fd5b60005b85811015611b195781611aff8882611c0b565b845260208401935060208301925050600181019050611aec565b5050509392505050565b6000611b36611b3184612b7f565b612b22565b90508083825260208201905082856020860282011115611b5557600080fd5b60005b85811015611b855781611b6b8882611d07565b845260208401935060208301925050600181019050611b58565b5050509392505050565b6000611ba2611b9d84612bab565b612b22565b905082815260208101848484011115611bba57600080fd5b611bc5848285612d85565b509392505050565b6000611be0611bdb84612bdb565b612b22565b905082815260208101848484011115611bf857600080fd5b611c03848285612d85565b509392505050565b600081359050611c1a81612fad565b92915050565b600082601f830112611c3157600080fd5b8135611c41848260208601611ab7565b91505092915050565b600082601f830112611c5b57600080fd5b8135611c6b848260208601611b23565b91505092915050565b600081359050611c8381612fc4565b92915050565b600081359050611c9881612fdb565b92915050565b600081519050611cad81612fdb565b92915050565b600082601f830112611cc457600080fd5b8135611cd4848260208601611b8f565b91505092915050565b600082601f830112611cee57600080fd5b8135611cfe848260208601611bcd565b91505092915050565b600081359050611d1681612ff2565b92915050565b600060208284031215611d2e57600080fd5b6000611d3c84828501611c0b565b91505092915050565b60008060408385031215611d5857600080fd5b6000611d6685828601611c0b565b9250506020611d7785828601611c0b565b9150509250929050565b600080600080600060a08688031215611d9957600080fd5b6000611da788828901611c0b565b9550506020611db888828901611c0b565b945050604086013567ffffffffffffffff811115611dd557600080fd5b611de188828901611c4a565b935050606086013567ffffffffffffffff811115611dfe57600080fd5b611e0a88828901611c4a565b925050608086013567ffffffffffffffff811115611e2757600080fd5b611e3388828901611cb3565b9150509295509295909350565b600080600080600060a08688031215611e5857600080fd5b6000611e6688828901611c0b565b9550506020611e7788828901611c0b565b9450506040611e8888828901611d07565b9350506060611e9988828901611d07565b925050608086013567ffffffffffffffff811115611eb657600080fd5b611ec288828901611cb3565b9150509295509295909350565b60008060408385031215611ee257600080fd5b6000611ef085828601611c0b565b9250506020611f0185828601611c74565b9150509250929050565b60008060408385031215611f1e57600080fd5b6000611f2c85828601611c0b565b9250506020611f3d85828601611d07565b9150509250929050565b60008060408385031215611f5a57600080fd5b600083013567ffffffffffffffff811115611f7457600080fd5b611f8085828601611c20565b925050602083013567ffffffffffffffff811115611f9d57600080fd5b611fa985828601611c4a565b9150509250929050565b600060208284031215611fc557600080fd5b6000611fd384828501611c89565b91505092915050565b600060208284031215611fee57600080fd5b6000611ffc84828501611c9e565b91505092915050565b60006020828403121561201757600080fd5b600082013567ffffffffffffffff81111561203157600080fd5b61203d84828501611cdd565b91505092915050565b60006020828403121561205857600080fd5b600061206684828501611d07565b91505092915050565b600061207b838361272e565b60208301905092915050565b61209081612d11565b82525050565b60006120a182612c1b565b6120ab8185612c49565b93506120b683612c0b565b8060005b838110156120e75781516120ce888261206f565b97506120d983612c3c565b9250506001810190506120ba565b5085935050505092915050565b6120fd81612d23565b82525050565b600061210e82612c26565b6121188185612c5a565b9350612128818560208601612d94565b61213181612ed9565b840191505092915050565b600061214782612c31565b6121518185612c6b565b9350612161818560208601612d94565b61216a81612ed9565b840191505092915050565b600061218082612c31565b61218a8185612c7c565b935061219a818560208601612d94565b80840191505092915050565b60006121b3603483612c6b565b91507f455243313135353a207472616e7366657220746f206e6f6e204552433131353560008301527f526563656976657220696d706c656d656e7465720000000000000000000000006020830152604082019050919050565b6000612219602883612c6b565b91507f455243313135353a204552433131353552656365697665722072656a6563746560008301527f6420746f6b656e730000000000000000000000000000000000000000000000006020830152604082019050919050565b600061227f602b83612c6b565b91507f455243313135353a2062616c616e636520717565727920666f7220746865207a60008301527f65726f20616464726573730000000000000000000000000000000000000000006020830152604082019050919050565b60006122e5602683612c6b565b91507f4f776e61626c653a206e6577206f776e657220697320746865207a65726f206160008301527f64647265737300000000000000000000000000000000000000000000000000006020830152604082019050919050565b600061234b602983612c6b565b91507f455243313135353a2063616c6c6572206973206e6f74206f776e6572206e6f7260008301527f20617070726f76656400000000000000000000000000000000000000000000006020830152604082019050919050565b60006123b1601783612c6b565b91507f546f6b656e20494420646f6573206e6f742065786973740000000000000000006000830152602082019050919050565b60006123f1602583612c6b565b91507f455243313135353a207472616e7366657220746f20746865207a65726f20616460008301527f64726573730000000000000000000000000000000000000000000000000000006020830152604082019050919050565b6000612457603283612c6b565b91507f455243313135353a207472616e736665722063616c6c6572206973206e6f742060008301527f6f776e6572206e6f7220617070726f76656400000000000000000000000000006020830152604082019050919050565b60006124bd602a83612c6b565b91507f455243313135353a20696e73756666696369656e742062616c616e636520666f60008301527f72207472616e73666572000000000000000000000000000000000000000000006020830152604082019050919050565b6000612523602083612c6b565b91507f4f776e61626c653a2063616c6c6572206973206e6f7420746865206f776e65726000830152602082019050919050565b6000612563602983612c6b565b91507f455243313135353a2073657474696e6720617070726f76616c2073746174757360008301527f20666f722073656c6600000000000000000000000000000000000000000000006020830152604082019050919050565b60006125c9602983612c6b565b91507f455243313135353a206163636f756e747320616e6420696473206c656e67746860008301527f206d69736d6174636800000000000000000000000000000000000000000000006020830152604082019050919050565b600061262f601883612c6b565b91507f5573657220616c7265616479206f776e7320616e204e465400000000000000006000830152602082019050919050565b600061266f602883612c6b565b91507f455243313135353a2069647320616e6420616d6f756e7473206c656e6774682060008301527f6d69736d617463680000000000000000000000000000000000000000000000006020830152604082019050919050565b60006126d5602183612c6b565b91507f455243313135353a206d696e7420746f20746865207a65726f2061646472657360008301527f73000000000000000000000000000000000000000000000000000000000000006020830152604082019050919050565b61273781612d7b565b82525050565b61274681612d7b565b82525050565b61275d61275882612d7b565b612e42565b82525050565b600061276f8285612175565b915061277b828461274c565b6020820191508190509392505050565b60006020820190506127a06000830184612087565b92915050565b600060a0820190506127bb6000830188612087565b6127c86020830187612087565b81810360408301526127da8186612096565b905081810360608301526127ee8185612096565b905081810360808301526128028184612103565b90509695505050505050565b600060a0820190506128236000830188612087565b6128306020830187612087565b61283d604083018661273d565b61284a606083018561273d565b818103608083015261285c8184612103565b90509695505050505050565b600060208201905081810360008301526128828184612096565b905092915050565b600060408201905081810360008301526128a48185612096565b905081810360208301526128b88184612096565b90509392505050565b60006020820190506128d660008301846120f4565b92915050565b600060208201905081810360008301526128f6818461213c565b905092915050565b60006020820190508181036000830152612917816121a6565b9050919050565b600060208201905081810360008301526129378161220c565b9050919050565b6000602082019050818103600083015261295781612272565b9050919050565b60006020820190508181036000830152612977816122d8565b9050919050565b600060208201905081810360008301526129978161233e565b9050919050565b600060208201905081810360008301526129b7816123a4565b9050919050565b600060208201905081810360008301526129d7816123e4565b9050919050565b600060208201905081810360008301526129f78161244a565b9050919050565b60006020820190508181036000830152612a17816124b0565b9050919050565b60006020820190508181036000830152612a3781612516565b9050919050565b60006020820190508181036000830152612a5781612556565b9050919050565b60006020820190508181036000830152612a77816125bc565b9050919050565b60006020820190508181036000830152612a9781612622565b9050919050565b60006020820190508181036000830152612ab781612662565b9050919050565b60006020820190508181036000830152612ad7816126c8565b9050919050565b6000602082019050612af3600083018461273d565b92915050565b6000604082019050612b0e600083018561273d565b612b1b602083018461273d565b9392505050565b6000604051905081810181811067ffffffffffffffff82111715612b4957612b48612eaa565b5b8060405250919050565b600067ffffffffffffffff821115612b6e57612b6d612eaa565b5b602082029050602081019050919050565b600067ffffffffffffffff821115612b9a57612b99612eaa565b5b602082029050602081019050919050565b600067ffffffffffffffff821115612bc657612bc5612eaa565b5b601f19601f8301169050602081019050919050565b600067ffffffffffffffff821115612bf657612bf5612eaa565b5b601f19601f8301169050602081019050919050565b6000819050602082019050919050565b600081519050919050565b600081519050919050565b600081519050919050565b6000602082019050919050565b600082825260208201905092915050565b600082825260208201905092915050565b600082825260208201905092915050565b600081905092915050565b6000612c9282612d7b565b9150612c9d83612d7b565b9250827fffffffffffffffffffffffffffffffffffffffffffffffffffffffffffffffff03821115612cd257612cd1612e4c565b5b828201905092915050565b6000612ce882612d7b565b9150612cf383612d7b565b925082821015612d0657612d05612e4c565b5b828203905092915050565b6000612d1c82612d5b565b9050919050565b60008115159050919050565b60007fffffffff0000000000000000000000000000000000000000000000000000000082169050919050565b600073ffffffffffffffffffffffffffffffffffffffff82169050919050565b6000819050919050565b82818337600083830152505050565b60005b83811015612db2578082015181840152602081019050612d97565b83811115612dc1576000848401525b50505050565b60006002820490506001821680612ddf57607f821691505b60208210811415612df357612df2612e7b565b5b50919050565b6000612e0482612d7b565b91507fffffffffffffffffffffffffffffffffffffffffffffffffffffffffffffffff821415612e3757612e36612e4c565b5b600182019050919050565b6000819050919050565b7f4e487b7100000000000000000000000000000000000000000000000000000000600052601160045260246000fd5b7f4e487b7100000000000000000000000000000000000000000000000000000000600052602260045260246000fd5b7f4e487b7100000000000000000000000000000000000000000000000000000000600052604160045260246000fd5b6000601f19601f8301169050919050565b60008160e01c9050919050565b600060443d1015612f0757612faa565b60046000803e612f18600051612eea565b6308c379a08114612f295750612faa565b60405160043d036004823e80513d602482011167ffffffffffffffff82111715612f5557505050612faa565b808201805167ffffffffffffffff811115612f74575050505050612faa565b8060208301013d8501811115612f8f57505050505050612faa565b612f9882612ed9565b60208401016040528296505050505050505b90565b612fb681612d11565b8114612fc157600080fd5b50565b612fcd81612d23565b8114612fd857600080fd5b50565b612fe481612d2f565b8114612fef57600080fd5b50565b612ffb81612d7b565b811461300657600080fd5b5056fea2646970667358221220e789498450c376755b020ef37790c975cc8c344ec2cdaaf16a79c60a2a172e9164736f6c63430008000033",
  "immutableReferences": {},
  "source": "// SPDX-License-Identifier: MIT\r\npragma solidity ^0.8.0;\r\n\r\nimport \"@openzeppelin/contracts/token/ERC1155/ERC1155.sol\";\r\nimport \"@openzeppelin/contracts/access/Ownable.sol\";\r\n\r\ncontract NFTMembershipToken is ERC1155, Ownable {\r\n    uint256 private nextTokenId = 0; \r\n\r\n    event NFTMinted(address indexed owner, uint256 indexed tokenId, string metadataURI); \r\n\r\n    constructor() ERC1155(\"NFT Membership Token\") {} //Should this just be a string instead, string public baseURI = \"\";?\r\n\r\n    function mint(string memory _metadataURI) external {\r\n        require(!hasMintedNFT(msg.sender), \"User already owns an NFT\"); \r\n        emit NFTMinted(msg.sender, nextTokenId, _metadataURI); \r\n        nextTokenId++; \r\n        _mint(msg.sender, nextTokenId, 1, \"\"); \r\n    }\r\n\r\n    function hasMintedNFT(address _owner) public view returns (bool) { \r\n      return balanceOf(_owner, 0) > 0; \r\n\r\n    }\r\n\r\n    function uri(uint256 _id) public view override returns (string memory) {  //Maybe change to off-chain storage?\r\n        require(_id < nextTokenId, \"Token ID does not exist\"); \r\n        return string(abi.encodePacked(super.uri(0), _id)); \r\n    }\r\n}\r\n",
  "sourcePath": "C:\\Users\\i\\Documents\\GitHub\\DSP-old\\contracts\\contracts\\NFTMembershipToken.sol",
  "compiler": {
    "name": "solc",
    "version": "0.8.0+commit.c7dfd78e.Emscripten.clang"
  },
  "schemaVersion": "3.4.16",
  "updatedAt": "2024-03-12T15:55:50.002Z",
  "networkType": "ethereum",
  "devdoc": {
    "kind": "dev",
    "methods": {
      "balanceOf(address,uint256)": {
        "details": "See {IERC1155-balanceOf}. Requirements: - `account` cannot be the zero address."
      },
      "balanceOfBatch(address[],uint256[])": {
        "details": "See {IERC1155-balanceOfBatch}. Requirements: - `accounts` and `ids` must have the same length."
      },
      "isApprovedForAll(address,address)": {
        "details": "See {IERC1155-isApprovedForAll}."
      },
      "owner()": {
        "details": "Returns the address of the current owner."
      },
      "renounceOwnership()": {
        "details": "Leaves the contract without owner. It will not be possible to call `onlyOwner` functions anymore. Can only be called by the current owner. NOTE: Renouncing ownership will leave the contract without an owner, thereby removing any functionality that is only available to the owner."
      },
      "safeBatchTransferFrom(address,address,uint256[],uint256[],bytes)": {
        "details": "See {IERC1155-safeBatchTransferFrom}."
      },
      "safeTransferFrom(address,address,uint256,uint256,bytes)": {
        "details": "See {IERC1155-safeTransferFrom}."
      },
      "setApprovalForAll(address,bool)": {
        "details": "See {IERC1155-setApprovalForAll}."
      },
      "supportsInterface(bytes4)": {
        "details": "See {IERC165-supportsInterface}."
      },
      "transferOwnership(address)": {
        "details": "Transfers ownership of the contract to a new account (`newOwner`). Can only be called by the current owner."
      }
    },
    "version": 1
  },
  "userdoc": {
    "kind": "user",
    "methods": {},
    "version": 1
  }
}