{
  "contractName": "NFTMembershipToken",
  "abi": [
    {
      "inputs": [],
      "stateMutability": "nonpayable",
      "type": "constructor"
    },
    {
      "anonymous": false,
      "inputs": [
        {
          "indexed": true,
          "internalType": "address",
          "name": "account",
          "type": "address"
        },
        {
          "indexed": true,
          "internalType": "address",
          "name": "operator",
          "type": "address"
        },
        {
          "indexed": false,
          "internalType": "bool",
          "name": "approved",
          "type": "bool"
        }
      ],
      "name": "ApprovalForAll",
      "type": "event"
    },
    {
      "anonymous": false,
      "inputs": [
        {
          "indexed": true,
          "internalType": "address",
          "name": "previousOwner",
          "type": "address"
        },
        {
          "indexed": true,
          "internalType": "address",
          "name": "newOwner",
          "type": "address"
        }
      ],
      "name": "OwnershipTransferred",
      "type": "event"
    },
    {
      "anonymous": false,
      "inputs": [
        {
          "indexed": true,
          "internalType": "address",
          "name": "operator",
          "type": "address"
        },
        {
          "indexed": true,
          "internalType": "address",
          "name": "from",
          "type": "address"
        },
        {
          "indexed": true,
          "internalType": "address",
          "name": "to",
          "type": "address"
        },
        {
          "indexed": false,
          "internalType": "uint256[]",
          "name": "ids",
          "type": "uint256[]"
        },
        {
          "indexed": false,
          "internalType": "uint256[]",
          "name": "values",
          "type": "uint256[]"
        }
      ],
      "name": "TransferBatch",
      "type": "event"
    },
    {
      "anonymous": false,
      "inputs": [
        {
          "indexed": true,
          "internalType": "address",
          "name": "operator",
          "type": "address"
        },
        {
          "indexed": true,
          "internalType": "address",
          "name": "from",
          "type": "address"
        },
        {
          "indexed": true,
          "internalType": "address",
          "name": "to",
          "type": "address"
        },
        {
          "indexed": false,
          "internalType": "uint256",
          "name": "id",
          "type": "uint256"
        },
        {
          "indexed": false,
          "internalType": "uint256",
          "name": "value",
          "type": "uint256"
        }
      ],
      "name": "TransferSingle",
      "type": "event"
    },
    {
      "anonymous": false,
      "inputs": [
        {
          "indexed": false,
          "internalType": "string",
          "name": "value",
          "type": "string"
        },
        {
          "indexed": true,
          "internalType": "uint256",
          "name": "id",
          "type": "uint256"
        }
      ],
      "name": "URI",
      "type": "event"
    },
    {
      "inputs": [
        {
          "internalType": "address",
          "name": "account",
          "type": "address"
        },
        {
          "internalType": "uint256",
          "name": "id",
          "type": "uint256"
        }
      ],
      "name": "balanceOf",
      "outputs": [
        {
          "internalType": "uint256",
          "name": "",
          "type": "uint256"
        }
      ],
      "stateMutability": "view",
      "type": "function",
      "constant": true
    },
    {
      "inputs": [
        {
          "internalType": "address[]",
          "name": "accounts",
          "type": "address[]"
        },
        {
          "internalType": "uint256[]",
          "name": "ids",
          "type": "uint256[]"
        }
      ],
      "name": "balanceOfBatch",
      "outputs": [
        {
          "internalType": "uint256[]",
          "name": "",
          "type": "uint256[]"
        }
      ],
      "stateMutability": "view",
      "type": "function",
      "constant": true
    },
    {
      "inputs": [
        {
          "internalType": "address",
          "name": "account",
          "type": "address"
        },
        {
          "internalType": "address",
          "name": "operator",
          "type": "address"
        }
      ],
      "name": "isApprovedForAll",
      "outputs": [
        {
          "internalType": "bool",
          "name": "",
          "type": "bool"
        }
      ],
      "stateMutability": "view",
      "type": "function",
      "constant": true
    },
    {
      "inputs": [],
      "name": "owner",
      "outputs": [
        {
          "internalType": "address",
          "name": "",
          "type": "address"
        }
      ],
      "stateMutability": "view",
      "type": "function",
      "constant": true
    },
    {
      "inputs": [],
      "name": "renounceOwnership",
      "outputs": [],
      "stateMutability": "nonpayable",
      "type": "function"
    },
    {
      "inputs": [
        {
          "internalType": "address",
          "name": "from",
          "type": "address"
        },
        {
          "internalType": "address",
          "name": "to",
          "type": "address"
        },
        {
          "internalType": "uint256[]",
          "name": "ids",
          "type": "uint256[]"
        },
        {
          "internalType": "uint256[]",
          "name": "amounts",
          "type": "uint256[]"
        },
        {
          "internalType": "bytes",
          "name": "data",
          "type": "bytes"
        }
      ],
      "name": "safeBatchTransferFrom",
      "outputs": [],
      "stateMutability": "nonpayable",
      "type": "function"
    },
    {
      "inputs": [
        {
          "internalType": "address",
          "name": "from",
          "type": "address"
        },
        {
          "internalType": "address",
          "name": "to",
          "type": "address"
        },
        {
          "internalType": "uint256",
          "name": "id",
          "type": "uint256"
        },
        {
          "internalType": "uint256",
          "name": "amount",
          "type": "uint256"
        },
        {
          "internalType": "bytes",
          "name": "data",
          "type": "bytes"
        }
      ],
      "name": "safeTransferFrom",
      "outputs": [],
      "stateMutability": "nonpayable",
      "type": "function"
    },
    {
      "inputs": [
        {
          "internalType": "address",
          "name": "operator",
          "type": "address"
        },
        {
          "internalType": "bool",
          "name": "approved",
          "type": "bool"
        }
      ],
      "name": "setApprovalForAll",
      "outputs": [],
      "stateMutability": "nonpayable",
      "type": "function"
    },
    {
      "inputs": [
        {
          "internalType": "bytes4",
          "name": "interfaceId",
          "type": "bytes4"
        }
      ],
      "name": "supportsInterface",
      "outputs": [
        {
          "internalType": "bool",
          "name": "",
          "type": "bool"
        }
      ],
      "stateMutability": "view",
      "type": "function",
      "constant": true
    },
    {
      "inputs": [
        {
          "internalType": "address",
          "name": "newOwner",
          "type": "address"
        }
      ],
      "name": "transferOwnership",
      "outputs": [],
      "stateMutability": "nonpayable",
      "type": "function"
    },
    {
      "inputs": [
        {
          "internalType": "string",
          "name": "_metadataURI",
          "type": "string"
        }
      ],
      "name": "mint",
      "outputs": [],
      "stateMutability": "nonpayable",
      "type": "function"
    },
    {
      "inputs": [
        {
          "internalType": "address",
          "name": "_user",
          "type": "address"
        }
      ],
      "name": "getUserNFTs",
      "outputs": [
        {
          "internalType": "uint256[]",
          "name": "",
          "type": "uint256[]"
        }
      ],
      "stateMutability": "view",
      "type": "function",
      "constant": true
    },
    {
      "inputs": [
        {
          "internalType": "uint256",
          "name": "_id",
          "type": "uint256"
        }
      ],
      "name": "uri",
      "outputs": [
        {
          "internalType": "string",
          "name": "",
          "type": "string"
        }
      ],
      "stateMutability": "view",
      "type": "function",
      "constant": true
    }
  ],
  "bytecode": "0x60806040523480156200001157600080fd5b506040518060400160405280601881526020017f4e4654204d656d6265727368697020546f6b656e20555249000000000000000081525062000059816200011160201b60201c565b5060006200006c6200012d60201b60201c565b905080600360006101000a81548173ffffffffffffffffffffffffffffffffffffffff021916908373ffffffffffffffffffffffffffffffffffffffff1602179055508073ffffffffffffffffffffffffffffffffffffffff16600073ffffffffffffffffffffffffffffffffffffffff167f8be0079c531659141344cd1fd0a4f28419497f9722a3daafe3b4186f6b6457e060405160405180910390a3506200024a565b80600290805190602001906200012992919062000135565b5050565b600033905090565b8280546200014390620001e5565b90600052602060002090601f016020900481019282620001675760008555620001b3565b82601f106200018257805160ff1916838001178555620001b3565b82800160010185558215620001b3579182015b82811115620001b257825182559160200191906001019062000195565b5b509050620001c29190620001c6565b5090565b5b80821115620001e1576000816000905550600101620001c7565b5090565b60006002820490506001821680620001fe57607f821691505b602082108114156200021557620002146200021b565b5b50919050565b7f4e487b7100000000000000000000000000000000000000000000000000000000600052602260045260246000fd5b6130f4806200025a6000396000f3fe608060405234801561001057600080fd5b50600436106100ce5760003560e01c8063715018a61161008c578063d85d3d2711610066578063d85d3d2714610223578063e985e9c51461023f578063f242432a1461026f578063f2fde38b1461028b576100ce565b8063715018a6146101df5780638da5cb5b146101e9578063a22cb46514610207576100ce565b8062fdd58e146100d357806301ffc9a7146101035780630e89341c146101335780632eb2c2d6146101635780634e1273f41461017f57806352de4ee5146101af575b600080fd5b6100ed60048036038101906100e891906120a5565b6102a7565b6040516100fa9190612ba8565b60405180910390f35b61011d6004803603810190610118919061214d565b610370565b60405161012a91906129ab565b60405180910390f35b61014d600480360381019061014891906121e0565b610452565b60405161015a91906129c6565b60405180910390f35b61017d60048036038101906101789190611f1b565b6104f7565b005b610199600480360381019061019491906120e1565b6108ed565b6040516101a69190612952565b60405180910390f35b6101c960048036038101906101c49190611eb6565b610a9e565b6040516101d69190612952565b60405180910390f35b6101e7610b35565b005b6101f1610c72565b6040516101fe9190612875565b60405180910390f35b610221600480360381019061021c9190612069565b610c9c565b005b61023d6004803603810190610238919061219f565b610e1d565b005b61025960048036038101906102549190611edf565b610fcd565b60405161026691906129ab565b60405180910390f35b61028960048036038101906102849190611fda565b611061565b005b6102a560048036038101906102a09190611eb6565b611379565b005b60008073ffffffffffffffffffffffffffffffffffffffff168373ffffffffffffffffffffffffffffffffffffffff161415610318576040517f08c379a000000000000000000000000000000000000000000000000000000000815260040161030f90612a48565b60405180910390fd5b60008083815260200190815260200160002060008473ffffffffffffffffffffffffffffffffffffffff1673ffffffffffffffffffffffffffffffffffffffff16815260200190815260200160002054905092915050565b60007fd9b67a26000000000000000000000000000000000000000000000000000000007bffffffffffffffffffffffffffffffffffffffffffffffffffffffff1916827bffffffffffffffffffffffffffffffffffffffffffffffffffffffff1916148061043b57507f0e89341c000000000000000000000000000000000000000000000000000000007bffffffffffffffffffffffffffffffffffffffffffffffffffffffff1916827bffffffffffffffffffffffffffffffffffffffffffffffffffffffff1916145b8061044b575061044a82611525565b5b9050919050565b606060056000838152602001908152602001600020805461047290612e86565b80601f016020809104026020016040519081016040528092919081815260200182805461049e90612e86565b80156104eb5780601f106104c0576101008083540402835291602001916104eb565b820191906000526020600020905b8154815290600101906020018083116104ce57829003601f168201915b50505050509050919050565b815183511461053b576040517f08c379a000000000000000000000000000000000000000000000000000000000815260040161053290612b68565b60405180910390fd5b600073ffffffffffffffffffffffffffffffffffffffff168473ffffffffffffffffffffffffffffffffffffffff1614156105ab576040517f08c379a00000000000000000000000000000000000000000000000000000000081526004016105a290612aa8565b60405180910390fd5b6105b361158f565b73ffffffffffffffffffffffffffffffffffffffff168573ffffffffffffffffffffffffffffffffffffffff1614806105f957506105f8856105f361158f565b610fcd565b5b610638576040517f08c379a000000000000000000000000000000000000000000000000000000000815260040161062f90612ac8565b60405180910390fd5b600061064261158f565b9050610652818787878787611597565b60005b8451811015610858576000858281518110610699577f4e487b7100000000000000000000000000000000000000000000000000000000600052603260045260246000fd5b6020026020010151905060008583815181106106de577f4e487b7100000000000000000000000000000000000000000000000000000000600052603260045260246000fd5b60200260200101519050600080600084815260200190815260200160002060008b73ffffffffffffffffffffffffffffffffffffffff1673ffffffffffffffffffffffffffffffffffffffff1681526020019081526020016000205490508181101561077f576040517f08c379a000000000000000000000000000000000000000000000000000000000815260040161077690612ae8565b60405180910390fd5b818161078b9190612d9c565b60008085815260200190815260200160002060008c73ffffffffffffffffffffffffffffffffffffffff1673ffffffffffffffffffffffffffffffffffffffff168152602001908152602001600020819055508160008085815260200190815260200160002060008b73ffffffffffffffffffffffffffffffffffffffff1673ffffffffffffffffffffffffffffffffffffffff168152602001908152602001600020600082825461083d9190612d46565b925050819055505050508061085190612eb8565b9050610655565b508473ffffffffffffffffffffffffffffffffffffffff168673ffffffffffffffffffffffffffffffffffffffff168273ffffffffffffffffffffffffffffffffffffffff167f4a39dc06d4c0dbc64b70af90fd698a233a518aa5d07e595d983b8c0526c8f7fb87876040516108cf929190612974565b60405180910390a46108e581878787878761159f565b505050505050565b60608151835114610933576040517f08c379a000000000000000000000000000000000000000000000000000000000815260040161092a90612b48565b60405180910390fd5b6000835167ffffffffffffffff811115610976577f4e487b7100000000000000000000000000000000000000000000000000000000600052604160045260246000fd5b6040519080825280602002602001820160405280156109a45781602001602082028036833780820191505090505b50905060005b8451811015610a9357610a3d8582815181106109ef577f4e487b7100000000000000000000000000000000000000000000000000000000600052603260045260246000fd5b6020026020010151858381518110610a30577f4e487b7100000000000000000000000000000000000000000000000000000000600052603260045260246000fd5b60200260200101516102a7565b828281518110610a76577f4e487b7100000000000000000000000000000000000000000000000000000000600052603260045260246000fd5b60200260200101818152505080610a8c90612eb8565b90506109aa565b508091505092915050565b6060600760008373ffffffffffffffffffffffffffffffffffffffff1673ffffffffffffffffffffffffffffffffffffffff168152602001908152602001600020805480602002602001604051908101604052809291908181526020018280548015610b2957602002820191906000526020600020905b815481526020019060010190808311610b15575b50505050509050919050565b610b3d61158f565b73ffffffffffffffffffffffffffffffffffffffff16610b5b610c72565b73ffffffffffffffffffffffffffffffffffffffff1614610bb1576040517f08c379a0000000000000000000000000000000000000000000000000000000008152600401610ba890612b08565b60405180910390fd5b600073ffffffffffffffffffffffffffffffffffffffff16600360009054906101000a900473ffffffffffffffffffffffffffffffffffffffff1673ffffffffffffffffffffffffffffffffffffffff167f8be0079c531659141344cd1fd0a4f28419497f9722a3daafe3b4186f6b6457e060405160405180910390a36000600360006101000a81548173ffffffffffffffffffffffffffffffffffffffff021916908373ffffffffffffffffffffffffffffffffffffffff160217905550565b6000600360009054906101000a900473ffffffffffffffffffffffffffffffffffffffff16905090565b8173ffffffffffffffffffffffffffffffffffffffff16610cbb61158f565b73ffffffffffffffffffffffffffffffffffffffff161415610d12576040517f08c379a0000000000000000000000000000000000000000000000000000000008152600401610d0990612b28565b60405180910390fd5b8060016000610d1f61158f565b73ffffffffffffffffffffffffffffffffffffffff1673ffffffffffffffffffffffffffffffffffffffff16815260200190815260200160002060008473ffffffffffffffffffffffffffffffffffffffff1673ffffffffffffffffffffffffffffffffffffffff16815260200190815260200160002060006101000a81548160ff0219169083151502179055508173ffffffffffffffffffffffffffffffffffffffff16610dcc61158f565b73ffffffffffffffffffffffffffffffffffffffff167f17307eab39ab6107e8899845ad3d59bd9653f200f220920489ca2b5937696c3183604051610e1191906129ab565b60405180910390a35050565b600460003373ffffffffffffffffffffffffffffffffffffffff1673ffffffffffffffffffffffffffffffffffffffff16815260200190815260200160002060009054906101000a900460ff1615610eaa576040517f08c379a0000000000000000000000000000000000000000000000000000000008152600401610ea190612a28565b60405180910390fd5b610ec83360065460016040518060200160405280600081525061176f565b806005600060065481526020019081526020016000209080519060200190610ef1929190611bae565b50600760003373ffffffffffffffffffffffffffffffffffffffff1673ffffffffffffffffffffffffffffffffffffffff16815260200190815260200160002060065490806001815401808255809150506001900390600052602060002001600090919091909150556001600460003373ffffffffffffffffffffffffffffffffffffffff1673ffffffffffffffffffffffffffffffffffffffff16815260200190815260200160002060006101000a81548160ff02191690831515021790555060066000815480929190610fc590612eb8565b919050555050565b6000600160008473ffffffffffffffffffffffffffffffffffffffff1673ffffffffffffffffffffffffffffffffffffffff16815260200190815260200160002060008373ffffffffffffffffffffffffffffffffffffffff1673ffffffffffffffffffffffffffffffffffffffff16815260200190815260200160002060009054906101000a900460ff16905092915050565b600073ffffffffffffffffffffffffffffffffffffffff168473ffffffffffffffffffffffffffffffffffffffff1614156110d1576040517f08c379a00000000000000000000000000000000000000000000000000000000081526004016110c890612aa8565b60405180910390fd5b6110d961158f565b73ffffffffffffffffffffffffffffffffffffffff168573ffffffffffffffffffffffffffffffffffffffff16148061111f575061111e8561111961158f565b610fcd565b5b61115e576040517f08c379a000000000000000000000000000000000000000000000000000000000815260040161115590612a88565b60405180910390fd5b600061116861158f565b905061118881878761117988611905565b61118288611905565b87611597565b600080600086815260200190815260200160002060008873ffffffffffffffffffffffffffffffffffffffff1673ffffffffffffffffffffffffffffffffffffffff1681526020019081526020016000205490508381101561121f576040517f08c379a000000000000000000000000000000000000000000000000000000000815260040161121690612ae8565b60405180910390fd5b838161122b9190612d9c565b60008087815260200190815260200160002060008973ffffffffffffffffffffffffffffffffffffffff1673ffffffffffffffffffffffffffffffffffffffff168152602001908152602001600020819055508360008087815260200190815260200160002060008873ffffffffffffffffffffffffffffffffffffffff1673ffffffffffffffffffffffffffffffffffffffff16815260200190815260200160002060008282546112dd9190612d46565b925050819055508573ffffffffffffffffffffffffffffffffffffffff168773ffffffffffffffffffffffffffffffffffffffff168373ffffffffffffffffffffffffffffffffffffffff167fc3d58168c5ae7397731d063d5bbf3d657854427343f4c083240f7aacaa2d0f62888860405161135a929190612bc3565b60405180910390a46113708288888888886119cb565b50505050505050565b61138161158f565b73ffffffffffffffffffffffffffffffffffffffff1661139f610c72565b73ffffffffffffffffffffffffffffffffffffffff16146113f5576040517f08c379a00000000000000000000000000000000000000000000000000000000081526004016113ec90612b08565b60405180910390fd5b600073ffffffffffffffffffffffffffffffffffffffff168173ffffffffffffffffffffffffffffffffffffffff161415611465576040517f08c379a000000000000000000000000000000000000000000000000000000000815260040161145c90612a68565b60405180910390fd5b8073ffffffffffffffffffffffffffffffffffffffff16600360009054906101000a900473ffffffffffffffffffffffffffffffffffffffff1673ffffffffffffffffffffffffffffffffffffffff167f8be0079c531659141344cd1fd0a4f28419497f9722a3daafe3b4186f6b6457e060405160405180910390a380600360006101000a81548173ffffffffffffffffffffffffffffffffffffffff021916908373ffffffffffffffffffffffffffffffffffffffff16021790555050565b60007f01ffc9a7000000000000000000000000000000000000000000000000000000007bffffffffffffffffffffffffffffffffffffffffffffffffffffffff1916827bffffffffffffffffffffffffffffffffffffffffffffffffffffffff1916149050919050565b600033905090565b505050505050565b6115be8473ffffffffffffffffffffffffffffffffffffffff16611b9b565b15611767578373ffffffffffffffffffffffffffffffffffffffff1663bc197c8187878686866040518663ffffffff1660e01b8152600401611604959493929190612890565b602060405180830381600087803b15801561161e57600080fd5b505af192505050801561164f57506040513d601f19601f8201168201806040525081019061164c9190612176565b60015b6116de5761165b612fac565b8061166657506116a3565b806040517f08c379a000000000000000000000000000000000000000000000000000000000815260040161169a91906129c6565b60405180910390fd5b6040517f08c379a00000000000000000000000000000000000000000000000000000000081526004016116d5906129e8565b60405180910390fd5b63bc197c8160e01b7bffffffffffffffffffffffffffffffffffffffffffffffffffffffff1916817bffffffffffffffffffffffffffffffffffffffffffffffffffffffff191614611765576040517f08c379a000000000000000000000000000000000000000000000000000000000815260040161175c90612a08565b60405180910390fd5b505b505050505050565b600073ffffffffffffffffffffffffffffffffffffffff168473ffffffffffffffffffffffffffffffffffffffff1614156117df576040517f08c379a00000000000000000000000000000000000000000000000000000000081526004016117d690612b88565b60405180910390fd5b60006117e961158f565b905061180a816000876117fb88611905565b61180488611905565b87611597565b8260008086815260200190815260200160002060008773ffffffffffffffffffffffffffffffffffffffff1673ffffffffffffffffffffffffffffffffffffffff16815260200190815260200160002060008282546118699190612d46565b925050819055508473ffffffffffffffffffffffffffffffffffffffff16600073ffffffffffffffffffffffffffffffffffffffff168273ffffffffffffffffffffffffffffffffffffffff167fc3d58168c5ae7397731d063d5bbf3d657854427343f4c083240f7aacaa2d0f6287876040516118e7929190612bc3565b60405180910390a46118fe816000878787876119cb565b5050505050565b60606000600167ffffffffffffffff81111561194a577f4e487b7100000000000000000000000000000000000000000000000000000000600052604160045260246000fd5b6040519080825280602002602001820160405280156119785781602001602082028036833780820191505090505b50905082816000815181106119b6577f4e487b7100000000000000000000000000000000000000000000000000000000600052603260045260246000fd5b60200260200101818152505080915050919050565b6119ea8473ffffffffffffffffffffffffffffffffffffffff16611b9b565b15611b93578373ffffffffffffffffffffffffffffffffffffffff1663f23a6e6187878686866040518663ffffffff1660e01b8152600401611a309594939291906128f8565b602060405180830381600087803b158015611a4a57600080fd5b505af1925050508015611a7b57506040513d601f19601f82011682018060405250810190611a789190612176565b60015b611b0a57611a87612fac565b80611a925750611acf565b806040517f08c379a0000000000000000000000000000000000000000000000000000000008152600401611ac691906129c6565b60405180910390fd5b6040517f08c379a0000000000000000000000000000000000000000000000000000000008152600401611b01906129e8565b60405180910390fd5b63f23a6e6160e01b7bffffffffffffffffffffffffffffffffffffffffffffffffffffffff1916817bffffffffffffffffffffffffffffffffffffffffffffffffffffffff191614611b91576040517f08c379a0000000000000000000000000000000000000000000000000000000008152600401611b8890612a08565b60405180910390fd5b505b505050505050565b600080823b905060008111915050919050565b828054611bba90612e86565b90600052602060002090601f016020900481019282611bdc5760008555611c23565b82601f10611bf557805160ff1916838001178555611c23565b82800160010185558215611c23579182015b82811115611c22578251825591602001919060010190611c07565b5b509050611c309190611c34565b5090565b5b80821115611c4d576000816000905550600101611c35565b5090565b6000611c64611c5f84612c1d565b612bec565b90508083825260208201905082856020860282011115611c8357600080fd5b60005b85811015611cb35781611c998882611da5565b845260208401935060208301925050600181019050611c86565b5050509392505050565b6000611cd0611ccb84612c49565b612bec565b90508083825260208201905082856020860282011115611cef57600080fd5b60005b85811015611d1f5781611d058882611ea1565b845260208401935060208301925050600181019050611cf2565b5050509392505050565b6000611d3c611d3784612c75565b612bec565b905082815260208101848484011115611d5457600080fd5b611d5f848285612e44565b509392505050565b6000611d7a611d7584612ca5565b612bec565b905082815260208101848484011115611d9257600080fd5b611d9d848285612e44565b509392505050565b600081359050611db481613062565b92915050565b600082601f830112611dcb57600080fd5b8135611ddb848260208601611c51565b91505092915050565b600082601f830112611df557600080fd5b8135611e05848260208601611cbd565b91505092915050565b600081359050611e1d81613079565b92915050565b600081359050611e3281613090565b92915050565b600081519050611e4781613090565b92915050565b600082601f830112611e5e57600080fd5b8135611e6e848260208601611d29565b91505092915050565b600082601f830112611e8857600080fd5b8135611e98848260208601611d67565b91505092915050565b600081359050611eb0816130a7565b92915050565b600060208284031215611ec857600080fd5b6000611ed684828501611da5565b91505092915050565b60008060408385031215611ef257600080fd5b6000611f0085828601611da5565b9250506020611f1185828601611da5565b9150509250929050565b600080600080600060a08688031215611f3357600080fd5b6000611f4188828901611da5565b9550506020611f5288828901611da5565b945050604086013567ffffffffffffffff811115611f6f57600080fd5b611f7b88828901611de4565b935050606086013567ffffffffffffffff811115611f9857600080fd5b611fa488828901611de4565b925050608086013567ffffffffffffffff811115611fc157600080fd5b611fcd88828901611e4d565b9150509295509295909350565b600080600080600060a08688031215611ff257600080fd5b600061200088828901611da5565b955050602061201188828901611da5565b945050604061202288828901611ea1565b935050606061203388828901611ea1565b925050608086013567ffffffffffffffff81111561205057600080fd5b61205c88828901611e4d565b9150509295509295909350565b6000806040838503121561207c57600080fd5b600061208a85828601611da5565b925050602061209b85828601611e0e565b9150509250929050565b600080604083850312156120b857600080fd5b60006120c685828601611da5565b92505060206120d785828601611ea1565b9150509250929050565b600080604083850312156120f457600080fd5b600083013567ffffffffffffffff81111561210e57600080fd5b61211a85828601611dba565b925050602083013567ffffffffffffffff81111561213757600080fd5b61214385828601611de4565b9150509250929050565b60006020828403121561215f57600080fd5b600061216d84828501611e23565b91505092915050565b60006020828403121561218857600080fd5b600061219684828501611e38565b91505092915050565b6000602082840312156121b157600080fd5b600082013567ffffffffffffffff8111156121cb57600080fd5b6121d784828501611e77565b91505092915050565b6000602082840312156121f257600080fd5b600061220084828501611ea1565b91505092915050565b60006122158383612857565b60208301905092915050565b61222a81612dd0565b82525050565b600061223b82612ce5565b6122458185612d13565b935061225083612cd5565b8060005b838110156122815781516122688882612209565b975061227383612d06565b925050600181019050612254565b5085935050505092915050565b61229781612de2565b82525050565b60006122a882612cf0565b6122b28185612d24565b93506122c2818560208601612e53565b6122cb81612f8e565b840191505092915050565b60006122e182612cfb565b6122eb8185612d35565b93506122fb818560208601612e53565b61230481612f8e565b840191505092915050565b600061231c603483612d35565b91507f455243313135353a207472616e7366657220746f206e6f6e204552433131353560008301527f526563656976657220696d706c656d656e7465720000000000000000000000006020830152604082019050919050565b6000612382602883612d35565b91507f455243313135353a204552433131353552656365697665722072656a6563746560008301527f6420746f6b656e730000000000000000000000000000000000000000000000006020830152604082019050919050565b60006123e8600e83612d35565b91507f416c7265616479206d696e7465640000000000000000000000000000000000006000830152602082019050919050565b6000612428602b83612d35565b91507f455243313135353a2062616c616e636520717565727920666f7220746865207a60008301527f65726f20616464726573730000000000000000000000000000000000000000006020830152604082019050919050565b600061248e602683612d35565b91507f4f776e61626c653a206e6577206f776e657220697320746865207a65726f206160008301527f64647265737300000000000000000000000000000000000000000000000000006020830152604082019050919050565b60006124f4602983612d35565b91507f455243313135353a2063616c6c6572206973206e6f74206f776e6572206e6f7260008301527f20617070726f76656400000000000000000000000000000000000000000000006020830152604082019050919050565b600061255a602583612d35565b91507f455243313135353a207472616e7366657220746f20746865207a65726f20616460008301527f64726573730000000000000000000000000000000000000000000000000000006020830152604082019050919050565b60006125c0603283612d35565b91507f455243313135353a207472616e736665722063616c6c6572206973206e6f742060008301527f6f776e6572206e6f7220617070726f76656400000000000000000000000000006020830152604082019050919050565b6000612626602a83612d35565b91507f455243313135353a20696e73756666696369656e742062616c616e636520666f60008301527f72207472616e73666572000000000000000000000000000000000000000000006020830152604082019050919050565b600061268c602083612d35565b91507f4f776e61626c653a2063616c6c6572206973206e6f7420746865206f776e65726000830152602082019050919050565b60006126cc602983612d35565b91507f455243313135353a2073657474696e6720617070726f76616c2073746174757360008301527f20666f722073656c6600000000000000000000000000000000000000000000006020830152604082019050919050565b6000612732602983612d35565b91507f455243313135353a206163636f756e747320616e6420696473206c656e67746860008301527f206d69736d6174636800000000000000000000000000000000000000000000006020830152604082019050919050565b6000612798602883612d35565b91507f455243313135353a2069647320616e6420616d6f756e7473206c656e6774682060008301527f6d69736d617463680000000000000000000000000000000000000000000000006020830152604082019050919050565b60006127fe602183612d35565b91507f455243313135353a206d696e7420746f20746865207a65726f2061646472657360008301527f73000000000000000000000000000000000000000000000000000000000000006020830152604082019050919050565b61286081612e3a565b82525050565b61286f81612e3a565b82525050565b600060208201905061288a6000830184612221565b92915050565b600060a0820190506128a56000830188612221565b6128b26020830187612221565b81810360408301526128c48186612230565b905081810360608301526128d88185612230565b905081810360808301526128ec818461229d565b90509695505050505050565b600060a08201905061290d6000830188612221565b61291a6020830187612221565b6129276040830186612866565b6129346060830185612866565b8181036080830152612946818461229d565b90509695505050505050565b6000602082019050818103600083015261296c8184612230565b905092915050565b6000604082019050818103600083015261298e8185612230565b905081810360208301526129a28184612230565b90509392505050565b60006020820190506129c0600083018461228e565b92915050565b600060208201905081810360008301526129e081846122d6565b905092915050565b60006020820190508181036000830152612a018161230f565b9050919050565b60006020820190508181036000830152612a2181612375565b9050919050565b60006020820190508181036000830152612a41816123db565b9050919050565b60006020820190508181036000830152612a618161241b565b9050919050565b60006020820190508181036000830152612a8181612481565b9050919050565b60006020820190508181036000830152612aa1816124e7565b9050919050565b60006020820190508181036000830152612ac18161254d565b9050919050565b60006020820190508181036000830152612ae1816125b3565b9050919050565b60006020820190508181036000830152612b0181612619565b9050919050565b60006020820190508181036000830152612b218161267f565b9050919050565b60006020820190508181036000830152612b41816126bf565b9050919050565b60006020820190508181036000830152612b6181612725565b9050919050565b60006020820190508181036000830152612b818161278b565b9050919050565b60006020820190508181036000830152612ba1816127f1565b9050919050565b6000602082019050612bbd6000830184612866565b92915050565b6000604082019050612bd86000830185612866565b612be56020830184612866565b9392505050565b6000604051905081810181811067ffffffffffffffff82111715612c1357612c12612f5f565b5b8060405250919050565b600067ffffffffffffffff821115612c3857612c37612f5f565b5b602082029050602081019050919050565b600067ffffffffffffffff821115612c6457612c63612f5f565b5b602082029050602081019050919050565b600067ffffffffffffffff821115612c9057612c8f612f5f565b5b601f19601f8301169050602081019050919050565b600067ffffffffffffffff821115612cc057612cbf612f5f565b5b601f19601f8301169050602081019050919050565b6000819050602082019050919050565b600081519050919050565b600081519050919050565b600081519050919050565b6000602082019050919050565b600082825260208201905092915050565b600082825260208201905092915050565b600082825260208201905092915050565b6000612d5182612e3a565b9150612d5c83612e3a565b9250827fffffffffffffffffffffffffffffffffffffffffffffffffffffffffffffffff03821115612d9157612d90612f01565b5b828201905092915050565b6000612da782612e3a565b9150612db283612e3a565b925082821015612dc557612dc4612f01565b5b828203905092915050565b6000612ddb82612e1a565b9050919050565b60008115159050919050565b60007fffffffff0000000000000000000000000000000000000000000000000000000082169050919050565b600073ffffffffffffffffffffffffffffffffffffffff82169050919050565b6000819050919050565b82818337600083830152505050565b60005b83811015612e71578082015181840152602081019050612e56565b83811115612e80576000848401525b50505050565b60006002820490506001821680612e9e57607f821691505b60208210811415612eb257612eb1612f30565b5b50919050565b6000612ec382612e3a565b91507fffffffffffffffffffffffffffffffffffffffffffffffffffffffffffffffff821415612ef657612ef5612f01565b5b600182019050919050565b7f4e487b7100000000000000000000000000000000000000000000000000000000600052601160045260246000fd5b7f4e487b7100000000000000000000000000000000000000000000000000000000600052602260045260246000fd5b7f4e487b7100000000000000000000000000000000000000000000000000000000600052604160045260246000fd5b6000601f19601f8301169050919050565b60008160e01c9050919050565b600060443d1015612fbc5761305f565b60046000803e612fcd600051612f9f565b6308c379a08114612fde575061305f565b60405160043d036004823e80513d602482011167ffffffffffffffff8211171561300a5750505061305f565b808201805167ffffffffffffffff81111561302957505050505061305f565b8060208301013d85018111156130445750505050505061305f565b61304d82612f8e565b60208401016040528296505050505050505b90565b61306b81612dd0565b811461307657600080fd5b50565b61308281612de2565b811461308d57600080fd5b50565b61309981612dee565b81146130a457600080fd5b50565b6130b081612e3a565b81146130bb57600080fd5b5056fea2646970667358221220f114570e9be5f9c7457c98cacb86b8d0dbc41af643fc2023b41806947f2333e964736f6c63430008000033",
  "immutableReferences": {},
  "source": "// SPDX-License-Identifier: MIT\r\npragma solidity ^0.8.0;\r\n\r\nimport \"@openzeppelin/contracts/token/ERC1155/ERC1155.sol\";\r\nimport \"@openzeppelin/contracts/access/Ownable.sol\";\r\n\r\ncontract NFTMembershipToken is ERC1155, Ownable {\r\n    mapping(address => bool) private hasMinted;\r\n    mapping(uint256 => string) private tokenMetadataURIs;\r\n    uint256 private nextTokenId;\r\n    mapping(address => uint256[]) private userNFTs;\r\n\r\n    constructor() ERC1155(\"NFT Membership Token URI\") {}\r\n\r\n    function mint(string memory _metadataURI) external {\r\n        require(!hasMinted[msg.sender], \"Already minted\");\r\n        _mint(msg.sender, nextTokenId, 1, \"\");\r\n        tokenMetadataURIs[nextTokenId] = _metadataURI;\r\n        userNFTs[msg.sender].push(nextTokenId);\r\n        hasMinted[msg.sender] = true;\r\n        nextTokenId++;\r\n    }\r\n\r\n    function getUserNFTs(address _user) external view returns (uint256[] memory) {\r\n        return userNFTs[_user];\r\n    }\r\n\r\n    function uri(uint256 _id) public view override returns (string memory) {\r\n        return tokenMetadataURIs[_id];\r\n    }\r\n}\r\n",
  "sourcePath": "C:\\Users\\i\\Documents\\GitHub\\DSP\\contracts\\contracts\\NFTMembershipToken.sol",
  "compiler": {
    "name": "solc",
    "version": "0.8.0+commit.c7dfd78e.Emscripten.clang"
  },
  "schemaVersion": "3.4.16",
  "updatedAt": "2024-02-28T15:10:48.626Z",
  "networkType": "ethereum",
  "devdoc": {
    "kind": "dev",
    "methods": {
      "balanceOf(address,uint256)": {
        "details": "See {IERC1155-balanceOf}. Requirements: - `account` cannot be the zero address."
      },
      "balanceOfBatch(address[],uint256[])": {
        "details": "See {IERC1155-balanceOfBatch}. Requirements: - `accounts` and `ids` must have the same length."
      },
      "isApprovedForAll(address,address)": {
        "details": "See {IERC1155-isApprovedForAll}."
      },
      "owner()": {
        "details": "Returns the address of the current owner."
      },
      "renounceOwnership()": {
        "details": "Leaves the contract without owner. It will not be possible to call `onlyOwner` functions anymore. Can only be called by the current owner. NOTE: Renouncing ownership will leave the contract without an owner, thereby removing any functionality that is only available to the owner."
      },
      "safeBatchTransferFrom(address,address,uint256[],uint256[],bytes)": {
        "details": "See {IERC1155-safeBatchTransferFrom}."
      },
      "safeTransferFrom(address,address,uint256,uint256,bytes)": {
        "details": "See {IERC1155-safeTransferFrom}."
      },
      "setApprovalForAll(address,bool)": {
        "details": "See {IERC1155-setApprovalForAll}."
      },
      "supportsInterface(bytes4)": {
        "details": "See {IERC165-supportsInterface}."
      },
      "transferOwnership(address)": {
        "details": "Transfers ownership of the contract to a new account (`newOwner`). Can only be called by the current owner."
      }
    },
    "version": 1
  },
  "userdoc": {
    "kind": "user",
    "methods": {},
    "version": 1
  }
}