{
  "contractName": "SDVDiscountNFT",
  "abi": [
    {
      "inputs": [
        {
          "internalType": "string",
          "name": "baseTokenURI",
          "type": "string"
        }
      ],
      "stateMutability": "nonpayable",
      "type": "constructor"
    },
    {
      "anonymous": false,
      "inputs": [
        {
          "indexed": true,
          "internalType": "address",
          "name": "account",
          "type": "address"
        },
        {
          "indexed": true,
          "internalType": "address",
          "name": "operator",
          "type": "address"
        },
        {
          "indexed": false,
          "internalType": "bool",
          "name": "approved",
          "type": "bool"
        }
      ],
      "name": "ApprovalForAll",
      "type": "event"
    },
    {
      "anonymous": false,
      "inputs": [
        {
          "indexed": true,
          "internalType": "address",
          "name": "previousOwner",
          "type": "address"
        },
        {
          "indexed": true,
          "internalType": "address",
          "name": "newOwner",
          "type": "address"
        }
      ],
      "name": "OwnershipTransferred",
      "type": "event"
    },
    {
      "anonymous": false,
      "inputs": [
        {
          "indexed": true,
          "internalType": "address",
          "name": "operator",
          "type": "address"
        },
        {
          "indexed": true,
          "internalType": "address",
          "name": "from",
          "type": "address"
        },
        {
          "indexed": true,
          "internalType": "address",
          "name": "to",
          "type": "address"
        },
        {
          "indexed": false,
          "internalType": "uint256[]",
          "name": "ids",
          "type": "uint256[]"
        },
        {
          "indexed": false,
          "internalType": "uint256[]",
          "name": "values",
          "type": "uint256[]"
        }
      ],
      "name": "TransferBatch",
      "type": "event"
    },
    {
      "anonymous": false,
      "inputs": [
        {
          "indexed": true,
          "internalType": "address",
          "name": "operator",
          "type": "address"
        },
        {
          "indexed": true,
          "internalType": "address",
          "name": "from",
          "type": "address"
        },
        {
          "indexed": true,
          "internalType": "address",
          "name": "to",
          "type": "address"
        },
        {
          "indexed": false,
          "internalType": "uint256",
          "name": "id",
          "type": "uint256"
        },
        {
          "indexed": false,
          "internalType": "uint256",
          "name": "value",
          "type": "uint256"
        }
      ],
      "name": "TransferSingle",
      "type": "event"
    },
    {
      "anonymous": false,
      "inputs": [
        {
          "indexed": false,
          "internalType": "string",
          "name": "value",
          "type": "string"
        },
        {
          "indexed": true,
          "internalType": "uint256",
          "name": "id",
          "type": "uint256"
        }
      ],
      "name": "URI",
      "type": "event"
    },
    {
      "inputs": [
        {
          "internalType": "address",
          "name": "account",
          "type": "address"
        },
        {
          "internalType": "uint256",
          "name": "id",
          "type": "uint256"
        }
      ],
      "name": "balanceOf",
      "outputs": [
        {
          "internalType": "uint256",
          "name": "",
          "type": "uint256"
        }
      ],
      "stateMutability": "view",
      "type": "function",
      "constant": true
    },
    {
      "inputs": [
        {
          "internalType": "address[]",
          "name": "accounts",
          "type": "address[]"
        },
        {
          "internalType": "uint256[]",
          "name": "ids",
          "type": "uint256[]"
        }
      ],
      "name": "balanceOfBatch",
      "outputs": [
        {
          "internalType": "uint256[]",
          "name": "",
          "type": "uint256[]"
        }
      ],
      "stateMutability": "view",
      "type": "function",
      "constant": true
    },
    {
      "inputs": [
        {
          "internalType": "address",
          "name": "account",
          "type": "address"
        },
        {
          "internalType": "address",
          "name": "operator",
          "type": "address"
        }
      ],
      "name": "isApprovedForAll",
      "outputs": [
        {
          "internalType": "bool",
          "name": "",
          "type": "bool"
        }
      ],
      "stateMutability": "view",
      "type": "function",
      "constant": true
    },
    {
      "inputs": [],
      "name": "owner",
      "outputs": [
        {
          "internalType": "address",
          "name": "",
          "type": "address"
        }
      ],
      "stateMutability": "view",
      "type": "function",
      "constant": true
    },
    {
      "inputs": [],
      "name": "renounceOwnership",
      "outputs": [],
      "stateMutability": "nonpayable",
      "type": "function"
    },
    {
      "inputs": [
        {
          "internalType": "address",
          "name": "from",
          "type": "address"
        },
        {
          "internalType": "address",
          "name": "to",
          "type": "address"
        },
        {
          "internalType": "uint256[]",
          "name": "ids",
          "type": "uint256[]"
        },
        {
          "internalType": "uint256[]",
          "name": "amounts",
          "type": "uint256[]"
        },
        {
          "internalType": "bytes",
          "name": "data",
          "type": "bytes"
        }
      ],
      "name": "safeBatchTransferFrom",
      "outputs": [],
      "stateMutability": "nonpayable",
      "type": "function"
    },
    {
      "inputs": [
        {
          "internalType": "address",
          "name": "from",
          "type": "address"
        },
        {
          "internalType": "address",
          "name": "to",
          "type": "address"
        },
        {
          "internalType": "uint256",
          "name": "id",
          "type": "uint256"
        },
        {
          "internalType": "uint256",
          "name": "amount",
          "type": "uint256"
        },
        {
          "internalType": "bytes",
          "name": "data",
          "type": "bytes"
        }
      ],
      "name": "safeTransferFrom",
      "outputs": [],
      "stateMutability": "nonpayable",
      "type": "function"
    },
    {
      "inputs": [
        {
          "internalType": "address",
          "name": "operator",
          "type": "address"
        },
        {
          "internalType": "bool",
          "name": "approved",
          "type": "bool"
        }
      ],
      "name": "setApprovalForAll",
      "outputs": [],
      "stateMutability": "nonpayable",
      "type": "function"
    },
    {
      "inputs": [
        {
          "internalType": "bytes4",
          "name": "interfaceId",
          "type": "bytes4"
        }
      ],
      "name": "supportsInterface",
      "outputs": [
        {
          "internalType": "bool",
          "name": "",
          "type": "bool"
        }
      ],
      "stateMutability": "view",
      "type": "function",
      "constant": true
    },
    {
      "inputs": [
        {
          "internalType": "address",
          "name": "newOwner",
          "type": "address"
        }
      ],
      "name": "transferOwnership",
      "outputs": [],
      "stateMutability": "nonpayable",
      "type": "function"
    },
    {
      "inputs": [
        {
          "internalType": "uint256",
          "name": "",
          "type": "uint256"
        }
      ],
      "name": "uri",
      "outputs": [
        {
          "internalType": "string",
          "name": "",
          "type": "string"
        }
      ],
      "stateMutability": "view",
      "type": "function",
      "constant": true
    },
    {
      "inputs": [
        {
          "internalType": "uint256",
          "name": "tokenId",
          "type": "uint256"
        },
        {
          "internalType": "uint256",
          "name": "initialSupply",
          "type": "uint256"
        },
        {
          "internalType": "uint256",
          "name": "_nftPrice",
          "type": "uint256"
        }
      ],
      "name": "mint",
      "outputs": [],
      "stateMutability": "nonpayable",
      "type": "function"
    },
    {
      "inputs": [],
      "name": "getAllMintedNFTs",
      "outputs": [
        {
          "internalType": "uint256[]",
          "name": "",
          "type": "uint256[]"
        }
      ],
      "stateMutability": "view",
      "type": "function",
      "constant": true
    },
    {
      "inputs": [
        {
          "internalType": "uint256",
          "name": "tokenId",
          "type": "uint256"
        },
        {
          "internalType": "uint256",
          "name": "amount",
          "type": "uint256"
        },
        {
          "internalType": "uint256",
          "name": "offchainPoints",
          "type": "uint256"
        }
      ],
      "name": "purchaseNFTWithPoints",
      "outputs": [],
      "stateMutability": "nonpayable",
      "type": "function"
    },
    {
      "inputs": [
        {
          "internalType": "uint256",
          "name": "tokenId",
          "type": "uint256"
        }
      ],
      "name": "tokenURI",
      "outputs": [
        {
          "internalType": "string",
          "name": "",
          "type": "string"
        }
      ],
      "stateMutability": "view",
      "type": "function",
      "constant": true
    },
    {
      "inputs": [
        {
          "internalType": "uint256",
          "name": "tokenId",
          "type": "uint256"
        }
      ],
      "name": "getNFTPrice",
      "outputs": [
        {
          "internalType": "uint256",
          "name": "",
          "type": "uint256"
        }
      ],
      "stateMutability": "view",
      "type": "function",
      "constant": true
    }
  ],
  "bytecode": "0x60806040523480156200001157600080fd5b50604051620039ab380380620039ab833981810160405281019062000037919062000248565b8062000049816200010260201b60201c565b5060006200005c6200011e60201b60201c565b905080600360006101000a81548173ffffffffffffffffffffffffffffffffffffffff021916908373ffffffffffffffffffffffffffffffffffffffff1602179055508073ffffffffffffffffffffffffffffffffffffffff16600073ffffffffffffffffffffffffffffffffffffffff167f8be0079c531659141344cd1fd0a4f28419497f9722a3daafe3b4186f6b6457e060405160405180910390a35050620003be565b80600290805190602001906200011a92919062000126565b5050565b600033905090565b82805462000134906200032a565b90600052602060002090601f016020900481019282620001585760008555620001a4565b82601f106200017357805160ff1916838001178555620001a4565b82800160010185558215620001a4579182015b82811115620001a357825182559160200191906001019062000186565b5b509050620001b39190620001b7565b5090565b5b80821115620001d2576000816000905550600101620001b8565b5090565b6000620001ed620001e784620002c1565b6200028d565b9050828152602081018484840111156200020657600080fd5b62000213848285620002f4565b509392505050565b600082601f8301126200022d57600080fd5b81516200023f848260208601620001d6565b91505092915050565b6000602082840312156200025b57600080fd5b600082015167ffffffffffffffff8111156200027657600080fd5b62000284848285016200021b565b91505092915050565b6000604051905081810181811067ffffffffffffffff82111715620002b757620002b66200038f565b5b8060405250919050565b600067ffffffffffffffff821115620002df57620002de6200038f565b5b601f19601f8301169050602081019050919050565b60005b8381101562000314578082015181840152602081019050620002f7565b8381111562000324576000848401525b50505050565b600060028204905060018216806200034357607f821691505b602082108114156200035a576200035962000360565b5b50919050565b7f4e487b7100000000000000000000000000000000000000000000000000000000600052602260045260246000fd5b7f4e487b7100000000000000000000000000000000000000000000000000000000600052604160045260246000fd5b6135dd80620003ce6000396000f3fe608060405234801561001057600080fd5b50600436106100ff5760003560e01c80638da5cb5b11610097578063db761fca11610066578063db761fca146102bc578063e985e9c5146102da578063f242432a1461030a578063f2fde38b14610326576100ff565b80638da5cb5b146102225780639297617914610240578063a22cb46514610270578063c87b56dd1461028c576100ff565b80632eb2c2d6116100d35780632eb2c2d6146101b057806349eb0752146101cc5780634e1273f4146101e8578063715018a614610218576100ff565b8062fdd58e1461010457806301ffc9a71461013457806302acc94b146101645780630e89341c14610180575b600080fd5b61011e6004803603810190610119919061235a565b610342565b60405161012b9190612fcb565b60405180910390f35b61014e60048036038101906101499190612402565b61040b565b60405161015b9190612d8e565b60405180910390f35b61017e6004803603810190610179919061247d565b6104ed565b005b61019a60048036038101906101959190612454565b61065e565b6040516101a79190612da9565b60405180910390f35b6101ca60048036038101906101c591906121d0565b6106f2565b005b6101e660048036038101906101e1919061247d565b610ae8565b005b61020260048036038101906101fd9190612396565b610bd7565b60405161020f9190612d35565b60405180910390f35b610220610d88565b005b61022a610ec5565b6040516102379190612c58565b60405180910390f35b61025a60048036038101906102559190612454565b610eef565b6040516102679190612fcb565b60405180910390f35b61028a6004803603810190610285919061231e565b610f6c565b005b6102a660048036038101906102a19190612454565b6110ed565b6040516102b39190612da9565b60405180910390f35b6102c4611188565b6040516102d19190612d35565b60405180910390f35b6102f460048036038101906102ef9190612194565b6111e0565b6040516103019190612d8e565b60405180910390f35b610324600480360381019061031f919061228f565b611274565b005b610340600480360381019061033b919061216b565b61158c565b005b60008073ffffffffffffffffffffffffffffffffffffffff168373ffffffffffffffffffffffffffffffffffffffff1614156103b3576040517f08c379a00000000000000000000000000000000000000000000000000000000081526004016103aa90612e0b565b60405180910390fd5b60008083815260200190815260200160002060008473ffffffffffffffffffffffffffffffffffffffff1673ffffffffffffffffffffffffffffffffffffffff16815260200190815260200160002054905092915050565b60007fd9b67a26000000000000000000000000000000000000000000000000000000007bffffffffffffffffffffffffffffffffffffffffffffffffffffffff1916827bffffffffffffffffffffffffffffffffffffffffffffffffffffffff191614806104d657507f0e89341c000000000000000000000000000000000000000000000000000000007bffffffffffffffffffffffffffffffffffffffffffffffffffffffff1916827bffffffffffffffffffffffffffffffffffffffffffffffffffffffff1916145b806104e657506104e582611738565b5b9050919050565b6104f56117a2565b73ffffffffffffffffffffffffffffffffffffffff16610513610ec5565b73ffffffffffffffffffffffffffffffffffffffff1614610569576040517f08c379a000000000000000000000000000000000000000000000000000000000815260040161056090612f0b565b60405180910390fd5b6005600084815260200190815260200160002060009054906101000a900460ff16156105ca576040517f08c379a00000000000000000000000000000000000000000000000000000000081526004016105c190612fab565b60405180910390fd5b6105ec6105d5610ec5565b8484604051806020016040528060008152506117aa565b80600460008581526020019081526020016000208190555060016005600085815260200190815260200160002060006101000a81548160ff0219169083151502179055506006839080600181540180825580915050600190039060005260206000200160009091909190915055505050565b60606002805461066d9061330f565b80601f01602080910402602001604051908101604052809291908181526020018280546106999061330f565b80156106e65780601f106106bb576101008083540402835291602001916106e6565b820191906000526020600020905b8154815290600101906020018083116106c957829003601f168201915b50505050509050919050565b8151835114610736576040517f08c379a000000000000000000000000000000000000000000000000000000000815260040161072d90612f6b565b60405180910390fd5b600073ffffffffffffffffffffffffffffffffffffffff168473ffffffffffffffffffffffffffffffffffffffff1614156107a6576040517f08c379a000000000000000000000000000000000000000000000000000000000815260040161079d90612eab565b60405180910390fd5b6107ae6117a2565b73ffffffffffffffffffffffffffffffffffffffff168573ffffffffffffffffffffffffffffffffffffffff1614806107f457506107f3856107ee6117a2565b6111e0565b5b610833576040517f08c379a000000000000000000000000000000000000000000000000000000000815260040161082a90612ecb565b60405180910390fd5b600061083d6117a2565b905061084d818787878787611940565b60005b8451811015610a53576000858281518110610894577f4e487b7100000000000000000000000000000000000000000000000000000000600052603260045260246000fd5b6020026020010151905060008583815181106108d9577f4e487b7100000000000000000000000000000000000000000000000000000000600052603260045260246000fd5b60200260200101519050600080600084815260200190815260200160002060008b73ffffffffffffffffffffffffffffffffffffffff1673ffffffffffffffffffffffffffffffffffffffff1681526020019081526020016000205490508181101561097a576040517f08c379a000000000000000000000000000000000000000000000000000000000815260040161097190612eeb565b60405180910390fd5b81816109869190613225565b60008085815260200190815260200160002060008c73ffffffffffffffffffffffffffffffffffffffff1673ffffffffffffffffffffffffffffffffffffffff168152602001908152602001600020819055508160008085815260200190815260200160002060008b73ffffffffffffffffffffffffffffffffffffffff1673ffffffffffffffffffffffffffffffffffffffff1681526020019081526020016000206000828254610a389190613144565b9250508190555050505080610a4c90613341565b9050610850565b508473ffffffffffffffffffffffffffffffffffffffff168673ffffffffffffffffffffffffffffffffffffffff168273ffffffffffffffffffffffffffffffffffffffff167f4a39dc06d4c0dbc64b70af90fd698a233a518aa5d07e595d983b8c0526c8f7fb8787604051610aca929190612d57565b60405180910390a4610ae0818787878787611948565b505050505050565b6005600084815260200190815260200160002060009054906101000a900460ff16610b48576040517f08c379a0000000000000000000000000000000000000000000000000000000008152600401610b3f90612e8b565b60405180910390fd5b6000826004600086815260200190815260200160002054610b6991906131cb565b905080821015610bae576040517f08c379a0000000000000000000000000000000000000000000000000000000008152600401610ba590612e6b565b60405180910390fd5b610bd1610bb9610ec5565b33868660405180602001604052806000815250611274565b50505050565b60608151835114610c1d576040517f08c379a0000000000000000000000000000000000000000000000000000000008152600401610c1490612f4b565b60405180910390fd5b6000835167ffffffffffffffff811115610c60577f4e487b7100000000000000000000000000000000000000000000000000000000600052604160045260246000fd5b604051908082528060200260200182016040528015610c8e5781602001602082028036833780820191505090505b50905060005b8451811015610d7d57610d27858281518110610cd9577f4e487b7100000000000000000000000000000000000000000000000000000000600052603260045260246000fd5b6020026020010151858381518110610d1a577f4e487b7100000000000000000000000000000000000000000000000000000000600052603260045260246000fd5b6020026020010151610342565b828281518110610d60577f4e487b7100000000000000000000000000000000000000000000000000000000600052603260045260246000fd5b60200260200101818152505080610d7690613341565b9050610c94565b508091505092915050565b610d906117a2565b73ffffffffffffffffffffffffffffffffffffffff16610dae610ec5565b73ffffffffffffffffffffffffffffffffffffffff1614610e04576040517f08c379a0000000000000000000000000000000000000000000000000000000008152600401610dfb90612f0b565b60405180910390fd5b600073ffffffffffffffffffffffffffffffffffffffff16600360009054906101000a900473ffffffffffffffffffffffffffffffffffffffff1673ffffffffffffffffffffffffffffffffffffffff167f8be0079c531659141344cd1fd0a4f28419497f9722a3daafe3b4186f6b6457e060405160405180910390a36000600360006101000a81548173ffffffffffffffffffffffffffffffffffffffff021916908373ffffffffffffffffffffffffffffffffffffffff160217905550565b6000600360009054906101000a900473ffffffffffffffffffffffffffffffffffffffff16905090565b60006005600083815260200190815260200160002060009054906101000a900460ff16610f51576040517f08c379a0000000000000000000000000000000000000000000000000000000008152600401610f4890612e8b565b60405180910390fd5b60046000838152602001908152602001600020549050919050565b8173ffffffffffffffffffffffffffffffffffffffff16610f8b6117a2565b73ffffffffffffffffffffffffffffffffffffffff161415610fe2576040517f08c379a0000000000000000000000000000000000000000000000000000000008152600401610fd990612f2b565b60405180910390fd5b8060016000610fef6117a2565b73ffffffffffffffffffffffffffffffffffffffff1673ffffffffffffffffffffffffffffffffffffffff16815260200190815260200160002060008473ffffffffffffffffffffffffffffffffffffffff1673ffffffffffffffffffffffffffffffffffffffff16815260200190815260200160002060006101000a81548160ff0219169083151502179055508173ffffffffffffffffffffffffffffffffffffffff1661109c6117a2565b73ffffffffffffffffffffffffffffffffffffffff167f17307eab39ab6107e8899845ad3d59bd9653f200f220920489ca2b5937696c31836040516110e19190612d8e565b60405180910390a35050565b60606005600083815260200190815260200160002060009054906101000a900460ff1661114f576040517f08c379a000000000000000000000000000000000000000000000000000000000815260040161114690612e8b565b60405180910390fd5b6111588261065e565b61116183611b18565b604051602001611172929190612c29565b6040516020818303038152906040529050919050565b606060068054806020026020016040519081016040528092919081815260200182805480156111d657602002820191906000526020600020905b8154815260200190600101908083116111c2575b5050505050905090565b6000600160008473ffffffffffffffffffffffffffffffffffffffff1673ffffffffffffffffffffffffffffffffffffffff16815260200190815260200160002060008373ffffffffffffffffffffffffffffffffffffffff1673ffffffffffffffffffffffffffffffffffffffff16815260200190815260200160002060009054906101000a900460ff16905092915050565b600073ffffffffffffffffffffffffffffffffffffffff168473ffffffffffffffffffffffffffffffffffffffff1614156112e4576040517f08c379a00000000000000000000000000000000000000000000000000000000081526004016112db90612eab565b60405180910390fd5b6112ec6117a2565b73ffffffffffffffffffffffffffffffffffffffff168573ffffffffffffffffffffffffffffffffffffffff16148061133257506113318561132c6117a2565b6111e0565b5b611371576040517f08c379a000000000000000000000000000000000000000000000000000000000815260040161136890612e4b565b60405180910390fd5b600061137b6117a2565b905061139b81878761138c88611cc5565b61139588611cc5565b87611940565b600080600086815260200190815260200160002060008873ffffffffffffffffffffffffffffffffffffffff1673ffffffffffffffffffffffffffffffffffffffff16815260200190815260200160002054905083811015611432576040517f08c379a000000000000000000000000000000000000000000000000000000000815260040161142990612eeb565b60405180910390fd5b838161143e9190613225565b60008087815260200190815260200160002060008973ffffffffffffffffffffffffffffffffffffffff1673ffffffffffffffffffffffffffffffffffffffff168152602001908152602001600020819055508360008087815260200190815260200160002060008873ffffffffffffffffffffffffffffffffffffffff1673ffffffffffffffffffffffffffffffffffffffff16815260200190815260200160002060008282546114f09190613144565b925050819055508573ffffffffffffffffffffffffffffffffffffffff168773ffffffffffffffffffffffffffffffffffffffff168373ffffffffffffffffffffffffffffffffffffffff167fc3d58168c5ae7397731d063d5bbf3d657854427343f4c083240f7aacaa2d0f62888860405161156d929190612fe6565b60405180910390a4611583828888888888611d8b565b50505050505050565b6115946117a2565b73ffffffffffffffffffffffffffffffffffffffff166115b2610ec5565b73ffffffffffffffffffffffffffffffffffffffff1614611608576040517f08c379a00000000000000000000000000000000000000000000000000000000081526004016115ff90612f0b565b60405180910390fd5b600073ffffffffffffffffffffffffffffffffffffffff168173ffffffffffffffffffffffffffffffffffffffff161415611678576040517f08c379a000000000000000000000000000000000000000000000000000000000815260040161166f90612e2b565b60405180910390fd5b8073ffffffffffffffffffffffffffffffffffffffff16600360009054906101000a900473ffffffffffffffffffffffffffffffffffffffff1673ffffffffffffffffffffffffffffffffffffffff167f8be0079c531659141344cd1fd0a4f28419497f9722a3daafe3b4186f6b6457e060405160405180910390a380600360006101000a81548173ffffffffffffffffffffffffffffffffffffffff021916908373ffffffffffffffffffffffffffffffffffffffff16021790555050565b60007f01ffc9a7000000000000000000000000000000000000000000000000000000007bffffffffffffffffffffffffffffffffffffffffffffffffffffffff1916827bffffffffffffffffffffffffffffffffffffffffffffffffffffffff1916149050919050565b600033905090565b600073ffffffffffffffffffffffffffffffffffffffff168473ffffffffffffffffffffffffffffffffffffffff16141561181a576040517f08c379a000000000000000000000000000000000000000000000000000000000815260040161181190612f8b565b60405180910390fd5b60006118246117a2565b90506118458160008761183688611cc5565b61183f88611cc5565b87611940565b8260008086815260200190815260200160002060008773ffffffffffffffffffffffffffffffffffffffff1673ffffffffffffffffffffffffffffffffffffffff16815260200190815260200160002060008282546118a49190613144565b925050819055508473ffffffffffffffffffffffffffffffffffffffff16600073ffffffffffffffffffffffffffffffffffffffff168273ffffffffffffffffffffffffffffffffffffffff167fc3d58168c5ae7397731d063d5bbf3d657854427343f4c083240f7aacaa2d0f628787604051611922929190612fe6565b60405180910390a461193981600087878787611d8b565b5050505050565b505050505050565b6119678473ffffffffffffffffffffffffffffffffffffffff16611f5b565b15611b10578373ffffffffffffffffffffffffffffffffffffffff1663bc197c8187878686866040518663ffffffff1660e01b81526004016119ad959493929190612c73565b602060405180830381600087803b1580156119c757600080fd5b505af19250505080156119f857506040513d601f19601f820116820180604052508101906119f5919061242b565b60015b611a8757611a04613495565b80611a0f5750611a4c565b806040517f08c379a0000000000000000000000000000000000000000000000000000000008152600401611a439190612da9565b60405180910390fd5b6040517f08c379a0000000000000000000000000000000000000000000000000000000008152600401611a7e90612dcb565b60405180910390fd5b63bc197c8160e01b7bffffffffffffffffffffffffffffffffffffffffffffffffffffffff1916817bffffffffffffffffffffffffffffffffffffffffffffffffffffffff191614611b0e576040517f08c379a0000000000000000000000000000000000000000000000000000000008152600401611b0590612deb565b60405180910390fd5b505b505050505050565b60606000821415611b60576040518060400160405280600181526020017f30000000000000000000000000000000000000000000000000000000000000008152509050611cc0565b600082905060005b60008214611b92578080611b7b90613341565b915050600a82611b8b919061319a565b9150611b68565b60008167ffffffffffffffff811115611bd4577f4e487b7100000000000000000000000000000000000000000000000000000000600052604160045260246000fd5b6040519080825280601f01601f191660200182016040528015611c065781602001600182028036833780820191505090505b5090505b60008514611cb957600182611c1f9190613225565b9150600a85611c2e919061338a565b6030611c3a9190613144565b60f81b818381518110611c76577f4e487b7100000000000000000000000000000000000000000000000000000000600052603260045260246000fd5b60200101907effffffffffffffffffffffffffffffffffffffffffffffffffffffffffffff1916908160001a905350600a85611cb2919061319a565b9450611c0a565b8093505050505b919050565b60606000600167ffffffffffffffff811115611d0a577f4e487b7100000000000000000000000000000000000000000000000000000000600052604160045260246000fd5b604051908082528060200260200182016040528015611d385781602001602082028036833780820191505090505b5090508281600081518110611d76577f4e487b7100000000000000000000000000000000000000000000000000000000600052603260045260246000fd5b60200260200101818152505080915050919050565b611daa8473ffffffffffffffffffffffffffffffffffffffff16611f5b565b15611f53578373ffffffffffffffffffffffffffffffffffffffff1663f23a6e6187878686866040518663ffffffff1660e01b8152600401611df0959493929190612cdb565b602060405180830381600087803b158015611e0a57600080fd5b505af1925050508015611e3b57506040513d601f19601f82011682018060405250810190611e38919061242b565b60015b611eca57611e47613495565b80611e525750611e8f565b806040517f08c379a0000000000000000000000000000000000000000000000000000000008152600401611e869190612da9565b60405180910390fd5b6040517f08c379a0000000000000000000000000000000000000000000000000000000008152600401611ec190612dcb565b60405180910390fd5b63f23a6e6160e01b7bffffffffffffffffffffffffffffffffffffffffffffffffffffffff1916817bffffffffffffffffffffffffffffffffffffffffffffffffffffffff191614611f51576040517f08c379a0000000000000000000000000000000000000000000000000000000008152600401611f4890612deb565b60405180910390fd5b505b505050505050565b600080823b905060008111915050919050565b6000611f81611f7c84613040565b61300f565b90508083825260208201905082856020860282011115611fa057600080fd5b60005b85811015611fd05781611fb68882612084565b845260208401935060208301925050600181019050611fa3565b5050509392505050565b6000611fed611fe88461306c565b61300f565b9050808382526020820190508285602086028201111561200c57600080fd5b60005b8581101561203c57816120228882612156565b84526020840193506020830192505060018101905061200f565b5050509392505050565b600061205961205484613098565b61300f565b90508281526020810184848401111561207157600080fd5b61207c8482856132cd565b509392505050565b6000813590506120938161354b565b92915050565b600082601f8301126120aa57600080fd5b81356120ba848260208601611f6e565b91505092915050565b600082601f8301126120d457600080fd5b81356120e4848260208601611fda565b91505092915050565b6000813590506120fc81613562565b92915050565b60008135905061211181613579565b92915050565b60008151905061212681613579565b92915050565b600082601f83011261213d57600080fd5b813561214d848260208601612046565b91505092915050565b60008135905061216581613590565b92915050565b60006020828403121561217d57600080fd5b600061218b84828501612084565b91505092915050565b600080604083850312156121a757600080fd5b60006121b585828601612084565b92505060206121c685828601612084565b9150509250929050565b600080600080600060a086880312156121e857600080fd5b60006121f688828901612084565b955050602061220788828901612084565b945050604086013567ffffffffffffffff81111561222457600080fd5b612230888289016120c3565b935050606086013567ffffffffffffffff81111561224d57600080fd5b612259888289016120c3565b925050608086013567ffffffffffffffff81111561227657600080fd5b6122828882890161212c565b9150509295509295909350565b600080600080600060a086880312156122a757600080fd5b60006122b588828901612084565b95505060206122c688828901612084565b94505060406122d788828901612156565b93505060606122e888828901612156565b925050608086013567ffffffffffffffff81111561230557600080fd5b6123118882890161212c565b9150509295509295909350565b6000806040838503121561233157600080fd5b600061233f85828601612084565b9250506020612350858286016120ed565b9150509250929050565b6000806040838503121561236d57600080fd5b600061237b85828601612084565b925050602061238c85828601612156565b9150509250929050565b600080604083850312156123a957600080fd5b600083013567ffffffffffffffff8111156123c357600080fd5b6123cf85828601612099565b925050602083013567ffffffffffffffff8111156123ec57600080fd5b6123f8858286016120c3565b9150509250929050565b60006020828403121561241457600080fd5b600061242284828501612102565b91505092915050565b60006020828403121561243d57600080fd5b600061244b84828501612117565b91505092915050565b60006020828403121561246657600080fd5b600061247484828501612156565b91505092915050565b60008060006060848603121561249257600080fd5b60006124a086828701612156565b93505060206124b186828701612156565b92505060406124c286828701612156565b9150509250925092565b60006124d88383612c0b565b60208301905092915050565b6124ed81613259565b82525050565b60006124fe826130d8565b6125088185613106565b9350612513836130c8565b8060005b8381101561254457815161252b88826124cc565b9750612536836130f9565b925050600181019050612517565b5085935050505092915050565b61255a8161326b565b82525050565b600061256b826130e3565b6125758185613117565b93506125858185602086016132dc565b61258e81613477565b840191505092915050565b60006125a4826130ee565b6125ae8185613128565b93506125be8185602086016132dc565b6125c781613477565b840191505092915050565b60006125dd826130ee565b6125e78185613139565b93506125f78185602086016132dc565b80840191505092915050565b6000612610603483613128565b91507f455243313135353a207472616e7366657220746f206e6f6e204552433131353560008301527f526563656976657220696d706c656d656e7465720000000000000000000000006020830152604082019050919050565b6000612676602883613128565b91507f455243313135353a204552433131353552656365697665722072656a6563746560008301527f6420746f6b656e730000000000000000000000000000000000000000000000006020830152604082019050919050565b60006126dc602b83613128565b91507f455243313135353a2062616c616e636520717565727920666f7220746865207a60008301527f65726f20616464726573730000000000000000000000000000000000000000006020830152604082019050919050565b6000612742602683613128565b91507f4f776e61626c653a206e6577206f776e657220697320746865207a65726f206160008301527f64647265737300000000000000000000000000000000000000000000000000006020830152604082019050919050565b60006127a8602983613128565b91507f455243313135353a2063616c6c6572206973206e6f74206f776e6572206e6f7260008301527f20617070726f76656400000000000000000000000000000000000000000000006020830152604082019050919050565b600061280e601d83613128565b91507f496e73756666696369656e74206f66662d636861696e20706f696e74730000006000830152602082019050919050565b600061284e601783613128565b91507f546f6b656e20494420646f6573206e6f742065786973740000000000000000006000830152602082019050919050565b600061288e602583613128565b91507f455243313135353a207472616e7366657220746f20746865207a65726f20616460008301527f64726573730000000000000000000000000000000000000000000000000000006020830152604082019050919050565b60006128f4603283613128565b91507f455243313135353a207472616e736665722063616c6c6572206973206e6f742060008301527f6f776e6572206e6f7220617070726f76656400000000000000000000000000006020830152604082019050919050565b600061295a602a83613128565b91507f455243313135353a20696e73756666696369656e742062616c616e636520666f60008301527f72207472616e73666572000000000000000000000000000000000000000000006020830152604082019050919050565b60006129c0600583613139565b91507f2e6a736f6e0000000000000000000000000000000000000000000000000000006000830152600582019050919050565b6000612a00602083613128565b91507f4f776e61626c653a2063616c6c6572206973206e6f7420746865206f776e65726000830152602082019050919050565b6000612a40602983613128565b91507f455243313135353a2073657474696e6720617070726f76616c2073746174757360008301527f20666f722073656c6600000000000000000000000000000000000000000000006020830152604082019050919050565b6000612aa6602983613128565b91507f455243313135353a206163636f756e747320616e6420696473206c656e67746860008301527f206d69736d6174636800000000000000000000000000000000000000000000006020830152604082019050919050565b6000612b0c602883613128565b91507f455243313135353a2069647320616e6420616d6f756e7473206c656e6774682060008301527f6d69736d617463680000000000000000000000000000000000000000000000006020830152604082019050919050565b6000612b72602183613128565b91507f455243313135353a206d696e7420746f20746865207a65726f2061646472657360008301527f73000000000000000000000000000000000000000000000000000000000000006020830152604082019050919050565b6000612bd8601783613128565b91507f546f6b656e20494420616c7265616479206578697374730000000000000000006000830152602082019050919050565b612c14816132c3565b82525050565b612c23816132c3565b82525050565b6000612c3582856125d2565b9150612c4182846125d2565b9150612c4c826129b3565b91508190509392505050565b6000602082019050612c6d60008301846124e4565b92915050565b600060a082019050612c8860008301886124e4565b612c9560208301876124e4565b8181036040830152612ca781866124f3565b90508181036060830152612cbb81856124f3565b90508181036080830152612ccf8184612560565b90509695505050505050565b600060a082019050612cf060008301886124e4565b612cfd60208301876124e4565b612d0a6040830186612c1a565b612d176060830185612c1a565b8181036080830152612d298184612560565b90509695505050505050565b60006020820190508181036000830152612d4f81846124f3565b905092915050565b60006040820190508181036000830152612d7181856124f3565b90508181036020830152612d8581846124f3565b90509392505050565b6000602082019050612da36000830184612551565b92915050565b60006020820190508181036000830152612dc38184612599565b905092915050565b60006020820190508181036000830152612de481612603565b9050919050565b60006020820190508181036000830152612e0481612669565b9050919050565b60006020820190508181036000830152612e24816126cf565b9050919050565b60006020820190508181036000830152612e4481612735565b9050919050565b60006020820190508181036000830152612e648161279b565b9050919050565b60006020820190508181036000830152612e8481612801565b9050919050565b60006020820190508181036000830152612ea481612841565b9050919050565b60006020820190508181036000830152612ec481612881565b9050919050565b60006020820190508181036000830152612ee4816128e7565b9050919050565b60006020820190508181036000830152612f048161294d565b9050919050565b60006020820190508181036000830152612f24816129f3565b9050919050565b60006020820190508181036000830152612f4481612a33565b9050919050565b60006020820190508181036000830152612f6481612a99565b9050919050565b60006020820190508181036000830152612f8481612aff565b9050919050565b60006020820190508181036000830152612fa481612b65565b9050919050565b60006020820190508181036000830152612fc481612bcb565b9050919050565b6000602082019050612fe06000830184612c1a565b92915050565b6000604082019050612ffb6000830185612c1a565b6130086020830184612c1a565b9392505050565b6000604051905081810181811067ffffffffffffffff8211171561303657613035613448565b5b8060405250919050565b600067ffffffffffffffff82111561305b5761305a613448565b5b602082029050602081019050919050565b600067ffffffffffffffff82111561308757613086613448565b5b602082029050602081019050919050565b600067ffffffffffffffff8211156130b3576130b2613448565b5b601f19601f8301169050602081019050919050565b6000819050602082019050919050565b600081519050919050565b600081519050919050565b600081519050919050565b6000602082019050919050565b600082825260208201905092915050565b600082825260208201905092915050565b600082825260208201905092915050565b600081905092915050565b600061314f826132c3565b915061315a836132c3565b9250827fffffffffffffffffffffffffffffffffffffffffffffffffffffffffffffffff0382111561318f5761318e6133bb565b5b828201905092915050565b60006131a5826132c3565b91506131b0836132c3565b9250826131c0576131bf6133ea565b5b828204905092915050565b60006131d6826132c3565b91506131e1836132c3565b9250817fffffffffffffffffffffffffffffffffffffffffffffffffffffffffffffffff048311821515161561321a576132196133bb565b5b828202905092915050565b6000613230826132c3565b915061323b836132c3565b92508282101561324e5761324d6133bb565b5b828203905092915050565b6000613264826132a3565b9050919050565b60008115159050919050565b60007fffffffff0000000000000000000000000000000000000000000000000000000082169050919050565b600073ffffffffffffffffffffffffffffffffffffffff82169050919050565b6000819050919050565b82818337600083830152505050565b60005b838110156132fa5780820151818401526020810190506132df565b83811115613309576000848401525b50505050565b6000600282049050600182168061332757607f821691505b6020821081141561333b5761333a613419565b5b50919050565b600061334c826132c3565b91507fffffffffffffffffffffffffffffffffffffffffffffffffffffffffffffffff82141561337f5761337e6133bb565b5b600182019050919050565b6000613395826132c3565b91506133a0836132c3565b9250826133b0576133af6133ea565b5b828206905092915050565b7f4e487b7100000000000000000000000000000000000000000000000000000000600052601160045260246000fd5b7f4e487b7100000000000000000000000000000000000000000000000000000000600052601260045260246000fd5b7f4e487b7100000000000000000000000000000000000000000000000000000000600052602260045260246000fd5b7f4e487b7100000000000000000000000000000000000000000000000000000000600052604160045260246000fd5b6000601f19601f8301169050919050565b60008160e01c9050919050565b600060443d10156134a557613548565b60046000803e6134b6600051613488565b6308c379a081146134c75750613548565b60405160043d036004823e80513d602482011167ffffffffffffffff821117156134f357505050613548565b808201805167ffffffffffffffff811115613512575050505050613548565b8060208301013d850181111561352d57505050505050613548565b61353682613477565b60208401016040528296505050505050505b90565b61355481613259565b811461355f57600080fd5b50565b61356b8161326b565b811461357657600080fd5b50565b61358281613277565b811461358d57600080fd5b50565b613599816132c3565b81146135a457600080fd5b5056fea26469706673582212201de04325ea8be46be8e12cab25e864b3b6fe2a36207717b9b4cd9e7a3f767e2564736f6c63430008000033",
  "immutableReferences": {},
  "source": "// SPDX-License-Identifier: MIT\r\npragma solidity ^0.8.0;\r\n\r\nimport \"@openzeppelin/contracts/token/ERC1155/ERC1155.sol\";\r\nimport \"@openzeppelin/contracts/access/Ownable.sol\";\r\nimport \"@openzeppelin/contracts/utils/Strings.sol\";\r\n\r\ncontract SDVDiscountNFT is ERC1155, Ownable {\r\n    using Strings for uint256;\r\n\r\n    mapping(uint256 => uint256) private nftPrice;\r\n    mapping(uint256 => bool) private tokenExists;\r\n    uint256[] private mintedNFTs;\r\n\r\n    constructor(string memory baseTokenURI) ERC1155(baseTokenURI) {}\r\n\r\n    function mint(uint256 tokenId, uint256 initialSupply, uint256 _nftPrice) external onlyOwner {\r\n        require(!tokenExists[tokenId], \"Token ID already exists\");\r\n\r\n        _mint(owner(), tokenId, initialSupply, \"\");\r\n\r\n        nftPrice[tokenId] = _nftPrice;\r\n        tokenExists[tokenId] = true;\r\n        mintedNFTs.push(tokenId); \r\n    }\r\n\r\n    function getAllMintedNFTs() external view returns (uint256[] memory) {\r\n        return mintedNFTs;\r\n    }\r\n\r\n    function purchaseNFTWithPoints(uint256 tokenId, uint256 amount, uint256 offchainPoints) external {\r\n        require(tokenExists[tokenId], \"Token ID does not exist\");\r\n        uint256 price = nftPrice[tokenId] * amount;\r\n        require(offchainPoints >= price, \"Insufficient off-chain points\");\r\n        safeTransferFrom(owner(), msg.sender, tokenId, amount, \"\");\r\n    }\r\n\r\n    function tokenURI(uint256 tokenId) public view returns (string memory) {\r\n        require(tokenExists[tokenId], \"Token ID does not exist\");\r\n        return string(abi.encodePacked(uri(tokenId), tokenId.toString(), \".json\"));\r\n    }\r\n\r\n    function getNFTPrice(uint256 tokenId) external view returns (uint256) {\r\n    require(tokenExists[tokenId], \"Token ID does not exist\");\r\n    return nftPrice[tokenId];\r\n    }\r\n}\r\n",
  "sourcePath": "C:\\Users\\i\\Documents\\GitHub\\DSP\\contracts\\contracts\\SDVDiscountNFT.sol",
  "compiler": {
    "name": "solc",
    "version": "0.8.0+commit.c7dfd78e.Emscripten.clang"
  },
  "schemaVersion": "3.4.16",
  "updatedAt": "2024-02-28T15:10:48.695Z",
  "networkType": "ethereum",
  "devdoc": {
    "kind": "dev",
    "methods": {
      "balanceOf(address,uint256)": {
        "details": "See {IERC1155-balanceOf}. Requirements: - `account` cannot be the zero address."
      },
      "balanceOfBatch(address[],uint256[])": {
        "details": "See {IERC1155-balanceOfBatch}. Requirements: - `accounts` and `ids` must have the same length."
      },
      "isApprovedForAll(address,address)": {
        "details": "See {IERC1155-isApprovedForAll}."
      },
      "owner()": {
        "details": "Returns the address of the current owner."
      },
      "renounceOwnership()": {
        "details": "Leaves the contract without owner. It will not be possible to call `onlyOwner` functions anymore. Can only be called by the current owner. NOTE: Renouncing ownership will leave the contract without an owner, thereby removing any functionality that is only available to the owner."
      },
      "safeBatchTransferFrom(address,address,uint256[],uint256[],bytes)": {
        "details": "See {IERC1155-safeBatchTransferFrom}."
      },
      "safeTransferFrom(address,address,uint256,uint256,bytes)": {
        "details": "See {IERC1155-safeTransferFrom}."
      },
      "setApprovalForAll(address,bool)": {
        "details": "See {IERC1155-setApprovalForAll}."
      },
      "supportsInterface(bytes4)": {
        "details": "See {IERC165-supportsInterface}."
      },
      "transferOwnership(address)": {
        "details": "Transfers ownership of the contract to a new account (`newOwner`). Can only be called by the current owner."
      },
      "uri(uint256)": {
        "details": "See {IERC1155MetadataURI-uri}. This implementation returns the same URI for *all* token types. It relies on the token type ID substitution mechanism https://eips.ethereum.org/EIPS/eip-1155#metadata[defined in the EIP]. Clients calling this function must replace the `\\{id\\}` substring with the actual token type ID."
      }
    },
    "version": 1
  },
  "userdoc": {
    "kind": "user",
    "methods": {},
    "version": 1
  }
}