{
  "contractName": "SDVDiscountNFT",
  "abi": [
    {
      "inputs": [
        {
          "internalType": "string",
          "name": "_baseURI",
          "type": "string"
        }
      ],
      "stateMutability": "nonpayable",
      "type": "constructor"
    },
    {
      "anonymous": false,
      "inputs": [
        {
          "indexed": true,
          "internalType": "address",
          "name": "account",
          "type": "address"
        },
        {
          "indexed": true,
          "internalType": "address",
          "name": "operator",
          "type": "address"
        },
        {
          "indexed": false,
          "internalType": "bool",
          "name": "approved",
          "type": "bool"
        }
      ],
      "name": "ApprovalForAll",
      "type": "event"
    },
    {
      "anonymous": false,
      "inputs": [
        {
          "indexed": true,
          "internalType": "uint256",
          "name": "tokenId",
          "type": "uint256"
        },
        {
          "indexed": false,
          "internalType": "uint256",
          "name": "initialSupply",
          "type": "uint256"
        },
        {
          "indexed": false,
          "internalType": "uint256",
          "name": "offchainPoints",
          "type": "uint256"
        }
      ],
      "name": "NFTMinted",
      "type": "event"
    },
    {
      "anonymous": false,
      "inputs": [
        {
          "indexed": true,
          "internalType": "address",
          "name": "buyer",
          "type": "address"
        },
        {
          "indexed": true,
          "internalType": "uint256",
          "name": "tokenId",
          "type": "uint256"
        },
        {
          "indexed": false,
          "internalType": "uint256",
          "name": "amount",
          "type": "uint256"
        }
      ],
      "name": "NFTPurchased",
      "type": "event"
    },
    {
      "anonymous": false,
      "inputs": [
        {
          "indexed": true,
          "internalType": "address",
          "name": "previousOwner",
          "type": "address"
        },
        {
          "indexed": true,
          "internalType": "address",
          "name": "newOwner",
          "type": "address"
        }
      ],
      "name": "OwnershipTransferred",
      "type": "event"
    },
    {
      "anonymous": false,
      "inputs": [
        {
          "indexed": true,
          "internalType": "address",
          "name": "operator",
          "type": "address"
        },
        {
          "indexed": true,
          "internalType": "address",
          "name": "from",
          "type": "address"
        },
        {
          "indexed": true,
          "internalType": "address",
          "name": "to",
          "type": "address"
        },
        {
          "indexed": false,
          "internalType": "uint256[]",
          "name": "ids",
          "type": "uint256[]"
        },
        {
          "indexed": false,
          "internalType": "uint256[]",
          "name": "values",
          "type": "uint256[]"
        }
      ],
      "name": "TransferBatch",
      "type": "event"
    },
    {
      "anonymous": false,
      "inputs": [
        {
          "indexed": true,
          "internalType": "address",
          "name": "operator",
          "type": "address"
        },
        {
          "indexed": true,
          "internalType": "address",
          "name": "from",
          "type": "address"
        },
        {
          "indexed": true,
          "internalType": "address",
          "name": "to",
          "type": "address"
        },
        {
          "indexed": false,
          "internalType": "uint256",
          "name": "id",
          "type": "uint256"
        },
        {
          "indexed": false,
          "internalType": "uint256",
          "name": "value",
          "type": "uint256"
        }
      ],
      "name": "TransferSingle",
      "type": "event"
    },
    {
      "anonymous": false,
      "inputs": [
        {
          "indexed": false,
          "internalType": "string",
          "name": "value",
          "type": "string"
        },
        {
          "indexed": true,
          "internalType": "uint256",
          "name": "id",
          "type": "uint256"
        }
      ],
      "name": "URI",
      "type": "event"
    },
    {
      "inputs": [
        {
          "internalType": "address",
          "name": "account",
          "type": "address"
        },
        {
          "internalType": "uint256",
          "name": "id",
          "type": "uint256"
        }
      ],
      "name": "balanceOf",
      "outputs": [
        {
          "internalType": "uint256",
          "name": "",
          "type": "uint256"
        }
      ],
      "stateMutability": "view",
      "type": "function",
      "constant": true
    },
    {
      "inputs": [
        {
          "internalType": "address[]",
          "name": "accounts",
          "type": "address[]"
        },
        {
          "internalType": "uint256[]",
          "name": "ids",
          "type": "uint256[]"
        }
      ],
      "name": "balanceOfBatch",
      "outputs": [
        {
          "internalType": "uint256[]",
          "name": "",
          "type": "uint256[]"
        }
      ],
      "stateMutability": "view",
      "type": "function",
      "constant": true
    },
    {
      "inputs": [],
      "name": "baseURI",
      "outputs": [
        {
          "internalType": "string",
          "name": "",
          "type": "string"
        }
      ],
      "stateMutability": "view",
      "type": "function",
      "constant": true
    },
    {
      "inputs": [
        {
          "internalType": "address",
          "name": "account",
          "type": "address"
        },
        {
          "internalType": "address",
          "name": "operator",
          "type": "address"
        }
      ],
      "name": "isApprovedForAll",
      "outputs": [
        {
          "internalType": "bool",
          "name": "",
          "type": "bool"
        }
      ],
      "stateMutability": "view",
      "type": "function",
      "constant": true
    },
    {
      "inputs": [
        {
          "internalType": "uint256",
          "name": "",
          "type": "uint256"
        }
      ],
      "name": "nfts",
      "outputs": [
        {
          "internalType": "uint256",
          "name": "initialSupply",
          "type": "uint256"
        },
        {
          "internalType": "uint256",
          "name": "offchainPoints",
          "type": "uint256"
        },
        {
          "internalType": "uint256",
          "name": "remainingAmount",
          "type": "uint256"
        }
      ],
      "stateMutability": "view",
      "type": "function",
      "constant": true
    },
    {
      "inputs": [],
      "name": "owner",
      "outputs": [
        {
          "internalType": "address",
          "name": "",
          "type": "address"
        }
      ],
      "stateMutability": "view",
      "type": "function",
      "constant": true
    },
    {
      "inputs": [],
      "name": "renounceOwnership",
      "outputs": [],
      "stateMutability": "nonpayable",
      "type": "function"
    },
    {
      "inputs": [
        {
          "internalType": "address",
          "name": "from",
          "type": "address"
        },
        {
          "internalType": "address",
          "name": "to",
          "type": "address"
        },
        {
          "internalType": "uint256[]",
          "name": "ids",
          "type": "uint256[]"
        },
        {
          "internalType": "uint256[]",
          "name": "amounts",
          "type": "uint256[]"
        },
        {
          "internalType": "bytes",
          "name": "data",
          "type": "bytes"
        }
      ],
      "name": "safeBatchTransferFrom",
      "outputs": [],
      "stateMutability": "nonpayable",
      "type": "function"
    },
    {
      "inputs": [
        {
          "internalType": "address",
          "name": "from",
          "type": "address"
        },
        {
          "internalType": "address",
          "name": "to",
          "type": "address"
        },
        {
          "internalType": "uint256",
          "name": "id",
          "type": "uint256"
        },
        {
          "internalType": "uint256",
          "name": "amount",
          "type": "uint256"
        },
        {
          "internalType": "bytes",
          "name": "data",
          "type": "bytes"
        }
      ],
      "name": "safeTransferFrom",
      "outputs": [],
      "stateMutability": "nonpayable",
      "type": "function"
    },
    {
      "inputs": [
        {
          "internalType": "address",
          "name": "operator",
          "type": "address"
        },
        {
          "internalType": "bool",
          "name": "approved",
          "type": "bool"
        }
      ],
      "name": "setApprovalForAll",
      "outputs": [],
      "stateMutability": "nonpayable",
      "type": "function"
    },
    {
      "inputs": [
        {
          "internalType": "bytes4",
          "name": "interfaceId",
          "type": "bytes4"
        }
      ],
      "name": "supportsInterface",
      "outputs": [
        {
          "internalType": "bool",
          "name": "",
          "type": "bool"
        }
      ],
      "stateMutability": "view",
      "type": "function",
      "constant": true
    },
    {
      "inputs": [
        {
          "internalType": "address",
          "name": "newOwner",
          "type": "address"
        }
      ],
      "name": "transferOwnership",
      "outputs": [],
      "stateMutability": "nonpayable",
      "type": "function"
    },
    {
      "inputs": [
        {
          "internalType": "uint256",
          "name": "",
          "type": "uint256"
        }
      ],
      "name": "uri",
      "outputs": [
        {
          "internalType": "string",
          "name": "",
          "type": "string"
        }
      ],
      "stateMutability": "view",
      "type": "function",
      "constant": true
    },
    {
      "inputs": [
        {
          "internalType": "uint256",
          "name": "initialSupply",
          "type": "uint256"
        },
        {
          "internalType": "uint256",
          "name": "offchainPoints",
          "type": "uint256"
        }
      ],
      "name": "mint",
      "outputs": [],
      "stateMutability": "nonpayable",
      "type": "function"
    },
    {
      "inputs": [
        {
          "internalType": "uint256",
          "name": "tokenId",
          "type": "uint256"
        },
        {
          "internalType": "uint256",
          "name": "amount",
          "type": "uint256"
        }
      ],
      "name": "purchaseNFTWithPoints",
      "outputs": [],
      "stateMutability": "nonpayable",
      "type": "function"
    },
    {
      "inputs": [
        {
          "internalType": "uint256",
          "name": "tokenId",
          "type": "uint256"
        }
      ],
      "name": "tokenURI",
      "outputs": [
        {
          "internalType": "string",
          "name": "",
          "type": "string"
        }
      ],
      "stateMutability": "view",
      "type": "function",
      "constant": true
    }
  ],
  "bytecode": "0x608060405260016005553480156200001657600080fd5b5060405162003a5a38038062003a5a83398181016040528101906200003c919062000275565b604051806020016040528060008152506200005d816200012f60201b60201c565b506000620000706200014b60201b60201c565b905080600360006101000a81548173ffffffffffffffffffffffffffffffffffffffff021916908373ffffffffffffffffffffffffffffffffffffffff1602179055508073ffffffffffffffffffffffffffffffffffffffff16600073ffffffffffffffffffffffffffffffffffffffff167f8be0079c531659141344cd1fd0a4f28419497f9722a3daafe3b4186f6b6457e060405160405180910390a35080600690805190602001906200012792919062000153565b5050620003eb565b80600290805190602001906200014792919062000153565b5050565b600033905090565b828054620001619062000357565b90600052602060002090601f016020900481019282620001855760008555620001d1565b82601f10620001a057805160ff1916838001178555620001d1565b82800160010185558215620001d1579182015b82811115620001d0578251825591602001919060010190620001b3565b5b509050620001e09190620001e4565b5090565b5b80821115620001ff576000816000905550600101620001e5565b5090565b60006200021a6200021484620002ee565b620002ba565b9050828152602081018484840111156200023357600080fd5b6200024084828562000321565b509392505050565b600082601f8301126200025a57600080fd5b81516200026c84826020860162000203565b91505092915050565b6000602082840312156200028857600080fd5b600082015167ffffffffffffffff811115620002a357600080fd5b620002b18482850162000248565b91505092915050565b6000604051905081810181811067ffffffffffffffff82111715620002e457620002e3620003bc565b5b8060405250919050565b600067ffffffffffffffff8211156200030c576200030b620003bc565b5b601f19601f8301169050602081019050919050565b60005b838110156200034157808201518184015260208101905062000324565b8381111562000351576000848401525b50505050565b600060028204905060018216806200037057607f821691505b602082108114156200038757620003866200038d565b5b50919050565b7f4e487b7100000000000000000000000000000000000000000000000000000000600052602260045260246000fd5b7f4e487b7100000000000000000000000000000000000000000000000000000000600052604160045260246000fd5b61365f80620003fb6000396000f3fe608060405234801561001057600080fd5b50600436106100ff5760003560e01c8063715018a611610097578063c87b56dd11610066578063c87b56dd146102ac578063e985e9c5146102dc578063f242432a1461030c578063f2fde38b14610328576100ff565b8063715018a61461024c57806388426194146102565780638da5cb5b14610272578063a22cb46514610290576100ff565b8063265aa621116100d3578063265aa621146101b05780632eb2c2d6146101e25780634e1273f4146101fe5780636c0360eb1461022e576100ff565b8062fdd58e1461010457806301ffc9a7146101345780630e89341c146101645780631b2ef1ca14610194575b600080fd5b61011e6004803603810190610119919061237e565b610344565b60405161012b919061305b565b60405180910390f35b61014e60048036038101906101499190612426565b61040d565b60405161015b9190612e1e565b60405180910390f35b61017e60048036038101906101799190612478565b6104ef565b60405161018b9190612e39565b60405180910390f35b6101ae60048036038101906101a991906124a1565b610583565b005b6101ca60048036038101906101c59190612478565b6106ca565b6040516101d99392919061309f565b60405180910390f35b6101fc60048036038101906101f791906121f4565b6106f4565b005b610218600480360381019061021391906123ba565b610aea565b6040516102259190612dc5565b60405180910390f35b610236610c9b565b6040516102439190612e39565b60405180910390f35b610254610d29565b005b610270600480360381019061026b91906124a1565b610e66565b005b61027a610fe1565b6040516102879190612ce8565b60405180910390f35b6102aa60048036038101906102a59190612342565b61100b565b005b6102c660048036038101906102c19190612478565b61118c565b6040516102d39190612e39565b60405180910390f35b6102f660048036038101906102f191906121b8565b611204565b6040516103039190612e1e565b60405180910390f35b610326600480360381019061032191906122b3565b611298565b005b610342600480360381019061033d919061218f565b6115b0565b005b60008073ffffffffffffffffffffffffffffffffffffffff168373ffffffffffffffffffffffffffffffffffffffff1614156103b5576040517f08c379a00000000000000000000000000000000000000000000000000000000081526004016103ac90612e9b565b60405180910390fd5b60008083815260200190815260200160002060008473ffffffffffffffffffffffffffffffffffffffff1673ffffffffffffffffffffffffffffffffffffffff16815260200190815260200160002054905092915050565b60007fd9b67a26000000000000000000000000000000000000000000000000000000007bffffffffffffffffffffffffffffffffffffffffffffffffffffffff1916827bffffffffffffffffffffffffffffffffffffffffffffffffffffffff191614806104d857507f0e89341c000000000000000000000000000000000000000000000000000000007bffffffffffffffffffffffffffffffffffffffffffffffffffffffff1916827bffffffffffffffffffffffffffffffffffffffffffffffffffffffff1916145b806104e857506104e78261175c565b5b9050919050565b6060600280546104fe90613391565b80601f016020809104026020016040519081016040528092919081815260200182805461052a90613391565b80156105775780601f1061054c57610100808354040283529160200191610577565b820191906000526020600020905b81548152906001019060200180831161055a57829003601f168201915b50505050509050919050565b61058b6117c6565b73ffffffffffffffffffffffffffffffffffffffff166105a9610fe1565b73ffffffffffffffffffffffffffffffffffffffff16146105ff576040517f08c379a00000000000000000000000000000000000000000000000000000000081526004016105f690612f9b565b60405180910390fd5b600060056000815480929190610614906133c3565b91905055905061063c610625610fe1565b8285604051806020016040528060008152506117ce565b60405180606001604052808481526020018381526020018481525060046000838152602001908152602001600020600082015181600001556020820151816001015560408201518160020155905050807fe5177288d661448b7d383a5e5f1be3886695859c8c327562a87df71d65e21ac284846040516106bd929190613076565b60405180910390a2505050565b60046020528060005260406000206000915090508060000154908060010154908060020154905083565b8151835114610738576040517f08c379a000000000000000000000000000000000000000000000000000000000815260040161072f9061301b565b60405180910390fd5b600073ffffffffffffffffffffffffffffffffffffffff168473ffffffffffffffffffffffffffffffffffffffff1614156107a8576040517f08c379a000000000000000000000000000000000000000000000000000000000815260040161079f90612f3b565b60405180910390fd5b6107b06117c6565b73ffffffffffffffffffffffffffffffffffffffff168573ffffffffffffffffffffffffffffffffffffffff1614806107f657506107f5856107f06117c6565b611204565b5b610835576040517f08c379a000000000000000000000000000000000000000000000000000000000815260040161082c90612f5b565b60405180910390fd5b600061083f6117c6565b905061084f818787878787611964565b60005b8451811015610a55576000858281518110610896577f4e487b7100000000000000000000000000000000000000000000000000000000600052603260045260246000fd5b6020026020010151905060008583815181106108db577f4e487b7100000000000000000000000000000000000000000000000000000000600052603260045260246000fd5b60200260200101519050600080600084815260200190815260200160002060008b73ffffffffffffffffffffffffffffffffffffffff1673ffffffffffffffffffffffffffffffffffffffff1681526020019081526020016000205490508181101561097c576040517f08c379a000000000000000000000000000000000000000000000000000000000815260040161097390612f7b565b60405180910390fd5b818161098891906132a7565b60008085815260200190815260200160002060008c73ffffffffffffffffffffffffffffffffffffffff1673ffffffffffffffffffffffffffffffffffffffff168152602001908152602001600020819055508160008085815260200190815260200160002060008b73ffffffffffffffffffffffffffffffffffffffff1673ffffffffffffffffffffffffffffffffffffffff1681526020019081526020016000206000828254610a3a9190613220565b9250508190555050505080610a4e906133c3565b9050610852565b508473ffffffffffffffffffffffffffffffffffffffff168673ffffffffffffffffffffffffffffffffffffffff168273ffffffffffffffffffffffffffffffffffffffff167f4a39dc06d4c0dbc64b70af90fd698a233a518aa5d07e595d983b8c0526c8f7fb8787604051610acc929190612de7565b60405180910390a4610ae281878787878761196c565b505050505050565b60608151835114610b30576040517f08c379a0000000000000000000000000000000000000000000000000000000008152600401610b2790612fdb565b60405180910390fd5b6000835167ffffffffffffffff811115610b73577f4e487b7100000000000000000000000000000000000000000000000000000000600052604160045260246000fd5b604051908082528060200260200182016040528015610ba15781602001602082028036833780820191505090505b50905060005b8451811015610c9057610c3a858281518110610bec577f4e487b7100000000000000000000000000000000000000000000000000000000600052603260045260246000fd5b6020026020010151858381518110610c2d577f4e487b7100000000000000000000000000000000000000000000000000000000600052603260045260246000fd5b6020026020010151610344565b828281518110610c73577f4e487b7100000000000000000000000000000000000000000000000000000000600052603260045260246000fd5b60200260200101818152505080610c89906133c3565b9050610ba7565b508091505092915050565b60068054610ca890613391565b80601f0160208091040260200160405190810160405280929190818152602001828054610cd490613391565b8015610d215780601f10610cf657610100808354040283529160200191610d21565b820191906000526020600020905b815481529060010190602001808311610d0457829003601f168201915b505050505081565b610d316117c6565b73ffffffffffffffffffffffffffffffffffffffff16610d4f610fe1565b73ffffffffffffffffffffffffffffffffffffffff1614610da5576040517f08c379a0000000000000000000000000000000000000000000000000000000008152600401610d9c90612f9b565b60405180910390fd5b600073ffffffffffffffffffffffffffffffffffffffff16600360009054906101000a900473ffffffffffffffffffffffffffffffffffffffff1673ffffffffffffffffffffffffffffffffffffffff167f8be0079c531659141344cd1fd0a4f28419497f9722a3daafe3b4186f6b6457e060405160405180910390a36000600360006101000a81548173ffffffffffffffffffffffffffffffffffffffff021916908373ffffffffffffffffffffffffffffffffffffffff160217905550565b6005548210610eaa576040517f08c379a0000000000000000000000000000000000000000000000000000000008152600401610ea190612f1b565b60405180910390fd5b6004600083815260200190815260200160002060020154811115610f03576040517f08c379a0000000000000000000000000000000000000000000000000000000008152600401610efa90612ffb565b60405180910390fd5b60008111610f46576040517f08c379a0000000000000000000000000000000000000000000000000000000008152600401610f3d90612edb565b60405180910390fd5b813373ffffffffffffffffffffffffffffffffffffffff167fa6d32bfcc7cd31e4d5ee7adeef7edd500cab0e64b4a494de4f832d41fd70f56d83604051610f8d919061305b565b60405180910390a380600460008481526020019081526020016000206002016000828254610fbb91906132a7565b92505081905550610fdd338383604051806020016040528060008152506117ce565b5050565b6000600360009054906101000a900473ffffffffffffffffffffffffffffffffffffffff16905090565b8173ffffffffffffffffffffffffffffffffffffffff1661102a6117c6565b73ffffffffffffffffffffffffffffffffffffffff161415611081576040517f08c379a000000000000000000000000000000000000000000000000000000000815260040161107890612fbb565b60405180910390fd5b806001600061108e6117c6565b73ffffffffffffffffffffffffffffffffffffffff1673ffffffffffffffffffffffffffffffffffffffff16815260200190815260200160002060008473ffffffffffffffffffffffffffffffffffffffff1673ffffffffffffffffffffffffffffffffffffffff16815260200190815260200160002060006101000a81548160ff0219169083151502179055508173ffffffffffffffffffffffffffffffffffffffff1661113b6117c6565b73ffffffffffffffffffffffffffffffffffffffff167f17307eab39ab6107e8899845ad3d59bd9653f200f220920489ca2b5937696c31836040516111809190612e1e565b60405180910390a35050565b606060055482106111d2576040517f08c379a00000000000000000000000000000000000000000000000000000000081526004016111c990612f1b565b60405180910390fd5b60066111dd83611b3c565b6040516020016111ee929190612cb9565b6040516020818303038152906040529050919050565b6000600160008473ffffffffffffffffffffffffffffffffffffffff1673ffffffffffffffffffffffffffffffffffffffff16815260200190815260200160002060008373ffffffffffffffffffffffffffffffffffffffff1673ffffffffffffffffffffffffffffffffffffffff16815260200190815260200160002060009054906101000a900460ff16905092915050565b600073ffffffffffffffffffffffffffffffffffffffff168473ffffffffffffffffffffffffffffffffffffffff161415611308576040517f08c379a00000000000000000000000000000000000000000000000000000000081526004016112ff90612f3b565b60405180910390fd5b6113106117c6565b73ffffffffffffffffffffffffffffffffffffffff168573ffffffffffffffffffffffffffffffffffffffff1614806113565750611355856113506117c6565b611204565b5b611395576040517f08c379a000000000000000000000000000000000000000000000000000000000815260040161138c90612efb565b60405180910390fd5b600061139f6117c6565b90506113bf8187876113b088611ce9565b6113b988611ce9565b87611964565b600080600086815260200190815260200160002060008873ffffffffffffffffffffffffffffffffffffffff1673ffffffffffffffffffffffffffffffffffffffff16815260200190815260200160002054905083811015611456576040517f08c379a000000000000000000000000000000000000000000000000000000000815260040161144d90612f7b565b60405180910390fd5b838161146291906132a7565b60008087815260200190815260200160002060008973ffffffffffffffffffffffffffffffffffffffff1673ffffffffffffffffffffffffffffffffffffffff168152602001908152602001600020819055508360008087815260200190815260200160002060008873ffffffffffffffffffffffffffffffffffffffff1673ffffffffffffffffffffffffffffffffffffffff16815260200190815260200160002060008282546115149190613220565b925050819055508573ffffffffffffffffffffffffffffffffffffffff168773ffffffffffffffffffffffffffffffffffffffff168373ffffffffffffffffffffffffffffffffffffffff167fc3d58168c5ae7397731d063d5bbf3d657854427343f4c083240f7aacaa2d0f628888604051611591929190613076565b60405180910390a46115a7828888888888611daf565b50505050505050565b6115b86117c6565b73ffffffffffffffffffffffffffffffffffffffff166115d6610fe1565b73ffffffffffffffffffffffffffffffffffffffff161461162c576040517f08c379a000000000000000000000000000000000000000000000000000000000815260040161162390612f9b565b60405180910390fd5b600073ffffffffffffffffffffffffffffffffffffffff168173ffffffffffffffffffffffffffffffffffffffff16141561169c576040517f08c379a000000000000000000000000000000000000000000000000000000000815260040161169390612ebb565b60405180910390fd5b8073ffffffffffffffffffffffffffffffffffffffff16600360009054906101000a900473ffffffffffffffffffffffffffffffffffffffff1673ffffffffffffffffffffffffffffffffffffffff167f8be0079c531659141344cd1fd0a4f28419497f9722a3daafe3b4186f6b6457e060405160405180910390a380600360006101000a81548173ffffffffffffffffffffffffffffffffffffffff021916908373ffffffffffffffffffffffffffffffffffffffff16021790555050565b60007f01ffc9a7000000000000000000000000000000000000000000000000000000007bffffffffffffffffffffffffffffffffffffffffffffffffffffffff1916827bffffffffffffffffffffffffffffffffffffffffffffffffffffffff1916149050919050565b600033905090565b600073ffffffffffffffffffffffffffffffffffffffff168473ffffffffffffffffffffffffffffffffffffffff16141561183e576040517f08c379a00000000000000000000000000000000000000000000000000000000081526004016118359061303b565b60405180910390fd5b60006118486117c6565b90506118698160008761185a88611ce9565b61186388611ce9565b87611964565b8260008086815260200190815260200160002060008773ffffffffffffffffffffffffffffffffffffffff1673ffffffffffffffffffffffffffffffffffffffff16815260200190815260200160002060008282546118c89190613220565b925050819055508473ffffffffffffffffffffffffffffffffffffffff16600073ffffffffffffffffffffffffffffffffffffffff168273ffffffffffffffffffffffffffffffffffffffff167fc3d58168c5ae7397731d063d5bbf3d657854427343f4c083240f7aacaa2d0f628787604051611946929190613076565b60405180910390a461195d81600087878787611daf565b5050505050565b505050505050565b61198b8473ffffffffffffffffffffffffffffffffffffffff16611f7f565b15611b34578373ffffffffffffffffffffffffffffffffffffffff1663bc197c8187878686866040518663ffffffff1660e01b81526004016119d1959493929190612d03565b602060405180830381600087803b1580156119eb57600080fd5b505af1925050508015611a1c57506040513d601f19601f82011682018060405250810190611a19919061244f565b60015b611aab57611a28613517565b80611a335750611a70565b806040517f08c379a0000000000000000000000000000000000000000000000000000000008152600401611a679190612e39565b60405180910390fd5b6040517f08c379a0000000000000000000000000000000000000000000000000000000008152600401611aa290612e5b565b60405180910390fd5b63bc197c8160e01b7bffffffffffffffffffffffffffffffffffffffffffffffffffffffff1916817bffffffffffffffffffffffffffffffffffffffffffffffffffffffff191614611b32576040517f08c379a0000000000000000000000000000000000000000000000000000000008152600401611b2990612e7b565b60405180910390fd5b505b505050505050565b60606000821415611b84576040518060400160405280600181526020017f30000000000000000000000000000000000000000000000000000000000000008152509050611ce4565b600082905060005b60008214611bb6578080611b9f906133c3565b915050600a82611baf9190613276565b9150611b8c565b60008167ffffffffffffffff811115611bf8577f4e487b7100000000000000000000000000000000000000000000000000000000600052604160045260246000fd5b6040519080825280601f01601f191660200182016040528015611c2a5781602001600182028036833780820191505090505b5090505b60008514611cdd57600182611c4391906132a7565b9150600a85611c52919061340c565b6030611c5e9190613220565b60f81b818381518110611c9a577f4e487b7100000000000000000000000000000000000000000000000000000000600052603260045260246000fd5b60200101907effffffffffffffffffffffffffffffffffffffffffffffffffffffffffffff1916908160001a905350600a85611cd69190613276565b9450611c2e565b8093505050505b919050565b60606000600167ffffffffffffffff811115611d2e577f4e487b7100000000000000000000000000000000000000000000000000000000600052604160045260246000fd5b604051908082528060200260200182016040528015611d5c5781602001602082028036833780820191505090505b5090508281600081518110611d9a577f4e487b7100000000000000000000000000000000000000000000000000000000600052603260045260246000fd5b60200260200101818152505080915050919050565b611dce8473ffffffffffffffffffffffffffffffffffffffff16611f7f565b15611f77578373ffffffffffffffffffffffffffffffffffffffff1663f23a6e6187878686866040518663ffffffff1660e01b8152600401611e14959493929190612d6b565b602060405180830381600087803b158015611e2e57600080fd5b505af1925050508015611e5f57506040513d601f19601f82011682018060405250810190611e5c919061244f565b60015b611eee57611e6b613517565b80611e765750611eb3565b806040517f08c379a0000000000000000000000000000000000000000000000000000000008152600401611eaa9190612e39565b60405180910390fd5b6040517f08c379a0000000000000000000000000000000000000000000000000000000008152600401611ee590612e5b565b60405180910390fd5b63f23a6e6160e01b7bffffffffffffffffffffffffffffffffffffffffffffffffffffffff1916817bffffffffffffffffffffffffffffffffffffffffffffffffffffffff191614611f75576040517f08c379a0000000000000000000000000000000000000000000000000000000008152600401611f6c90612e7b565b60405180910390fd5b505b505050505050565b600080823b905060008111915050919050565b6000611fa5611fa084613107565b6130d6565b90508083825260208201905082856020860282011115611fc457600080fd5b60005b85811015611ff45781611fda88826120a8565b845260208401935060208301925050600181019050611fc7565b5050509392505050565b600061201161200c84613133565b6130d6565b9050808382526020820190508285602086028201111561203057600080fd5b60005b858110156120605781612046888261217a565b845260208401935060208301925050600181019050612033565b5050509392505050565b600061207d6120788461315f565b6130d6565b90508281526020810184848401111561209557600080fd5b6120a084828561334f565b509392505050565b6000813590506120b7816135cd565b92915050565b600082601f8301126120ce57600080fd5b81356120de848260208601611f92565b91505092915050565b600082601f8301126120f857600080fd5b8135612108848260208601611ffe565b91505092915050565b600081359050612120816135e4565b92915050565b600081359050612135816135fb565b92915050565b60008151905061214a816135fb565b92915050565b600082601f83011261216157600080fd5b813561217184826020860161206a565b91505092915050565b60008135905061218981613612565b92915050565b6000602082840312156121a157600080fd5b60006121af848285016120a8565b91505092915050565b600080604083850312156121cb57600080fd5b60006121d9858286016120a8565b92505060206121ea858286016120a8565b9150509250929050565b600080600080600060a0868803121561220c57600080fd5b600061221a888289016120a8565b955050602061222b888289016120a8565b945050604086013567ffffffffffffffff81111561224857600080fd5b612254888289016120e7565b935050606086013567ffffffffffffffff81111561227157600080fd5b61227d888289016120e7565b925050608086013567ffffffffffffffff81111561229a57600080fd5b6122a688828901612150565b9150509295509295909350565b600080600080600060a086880312156122cb57600080fd5b60006122d9888289016120a8565b95505060206122ea888289016120a8565b94505060406122fb8882890161217a565b935050606061230c8882890161217a565b925050608086013567ffffffffffffffff81111561232957600080fd5b61233588828901612150565b9150509295509295909350565b6000806040838503121561235557600080fd5b6000612363858286016120a8565b925050602061237485828601612111565b9150509250929050565b6000806040838503121561239157600080fd5b600061239f858286016120a8565b92505060206123b08582860161217a565b9150509250929050565b600080604083850312156123cd57600080fd5b600083013567ffffffffffffffff8111156123e757600080fd5b6123f3858286016120bd565b925050602083013567ffffffffffffffff81111561241057600080fd5b61241c858286016120e7565b9150509250929050565b60006020828403121561243857600080fd5b600061244684828501612126565b91505092915050565b60006020828403121561246157600080fd5b600061246f8482850161213b565b91505092915050565b60006020828403121561248a57600080fd5b60006124988482850161217a565b91505092915050565b600080604083850312156124b457600080fd5b60006124c28582860161217a565b92505060206124d38582860161217a565b9150509250929050565b60006124e98383612c9b565b60208301905092915050565b6124fe816132db565b82525050565b600061250f826131b4565b61251981856131e2565b93506125248361318f565b8060005b8381101561255557815161253c88826124dd565b9750612547836131d5565b925050600181019050612528565b5085935050505092915050565b61256b816132ed565b82525050565b600061257c826131bf565b61258681856131f3565b935061259681856020860161335e565b61259f816134f9565b840191505092915050565b60006125b5826131ca565b6125bf8185613204565b93506125cf81856020860161335e565b6125d8816134f9565b840191505092915050565b60006125ee826131ca565b6125f88185613215565b935061260881856020860161335e565b80840191505092915050565b6000815461262181613391565b61262b8186613215565b9450600182166000811461264657600181146126575761268a565b60ff1983168652818601935061268a565b6126608561319f565b60005b8381101561268257815481890152600182019150602081019050612663565b838801955050505b50505092915050565b60006126a0603483613204565b91507f455243313135353a207472616e7366657220746f206e6f6e204552433131353560008301527f526563656976657220696d706c656d656e7465720000000000000000000000006020830152604082019050919050565b6000612706602883613204565b91507f455243313135353a204552433131353552656365697665722072656a6563746560008301527f6420746f6b656e730000000000000000000000000000000000000000000000006020830152604082019050919050565b600061276c602b83613204565b91507f455243313135353a2062616c616e636520717565727920666f7220746865207a60008301527f65726f20616464726573730000000000000000000000000000000000000000006020830152604082019050919050565b60006127d2602683613204565b91507f4f776e61626c653a206e6577206f776e657220697320746865207a65726f206160008301527f64647265737300000000000000000000000000000000000000000000000000006020830152604082019050919050565b6000612838600e83613204565b91507f496e76616c696420616d6f756e740000000000000000000000000000000000006000830152602082019050919050565b6000612878602983613204565b91507f455243313135353a2063616c6c6572206973206e6f74206f776e6572206e6f7260008301527f20617070726f76656400000000000000000000000000000000000000000000006020830152604082019050919050565b60006128de601783613204565b91507f546f6b656e20494420646f6573206e6f742065786973740000000000000000006000830152602082019050919050565b600061291e602583613204565b91507f455243313135353a207472616e7366657220746f20746865207a65726f20616460008301527f64726573730000000000000000000000000000000000000000000000000000006020830152604082019050919050565b6000612984603283613204565b91507f455243313135353a207472616e736665722063616c6c6572206973206e6f742060008301527f6f776e6572206e6f7220617070726f76656400000000000000000000000000006020830152604082019050919050565b60006129ea602a83613204565b91507f455243313135353a20696e73756666696369656e742062616c616e636520666f60008301527f72207472616e73666572000000000000000000000000000000000000000000006020830152604082019050919050565b6000612a50600583613215565b91507f2e6a736f6e0000000000000000000000000000000000000000000000000000006000830152600582019050919050565b6000612a90602083613204565b91507f4f776e61626c653a2063616c6c6572206973206e6f7420746865206f776e65726000830152602082019050919050565b6000612ad0602983613204565b91507f455243313135353a2073657474696e6720617070726f76616c2073746174757360008301527f20666f722073656c6600000000000000000000000000000000000000000000006020830152604082019050919050565b6000612b36602983613204565b91507f455243313135353a206163636f756e747320616e6420696473206c656e67746860008301527f206d69736d6174636800000000000000000000000000000000000000000000006020830152604082019050919050565b6000612b9c601883613204565b91507f457863656564732072656d61696e696e6720616d6f756e7400000000000000006000830152602082019050919050565b6000612bdc602883613204565b91507f455243313135353a2069647320616e6420616d6f756e7473206c656e6774682060008301527f6d69736d617463680000000000000000000000000000000000000000000000006020830152604082019050919050565b6000612c42602183613204565b91507f455243313135353a206d696e7420746f20746865207a65726f2061646472657360008301527f73000000000000000000000000000000000000000000000000000000000000006020830152604082019050919050565b612ca481613345565b82525050565b612cb381613345565b82525050565b6000612cc58285612614565b9150612cd182846125e3565b9150612cdc82612a43565b91508190509392505050565b6000602082019050612cfd60008301846124f5565b92915050565b600060a082019050612d1860008301886124f5565b612d2560208301876124f5565b8181036040830152612d378186612504565b90508181036060830152612d4b8185612504565b90508181036080830152612d5f8184612571565b90509695505050505050565b600060a082019050612d8060008301886124f5565b612d8d60208301876124f5565b612d9a6040830186612caa565b612da76060830185612caa565b8181036080830152612db98184612571565b90509695505050505050565b60006020820190508181036000830152612ddf8184612504565b905092915050565b60006040820190508181036000830152612e018185612504565b90508181036020830152612e158184612504565b90509392505050565b6000602082019050612e336000830184612562565b92915050565b60006020820190508181036000830152612e5381846125aa565b905092915050565b60006020820190508181036000830152612e7481612693565b9050919050565b60006020820190508181036000830152612e94816126f9565b9050919050565b60006020820190508181036000830152612eb48161275f565b9050919050565b60006020820190508181036000830152612ed4816127c5565b9050919050565b60006020820190508181036000830152612ef48161282b565b9050919050565b60006020820190508181036000830152612f148161286b565b9050919050565b60006020820190508181036000830152612f34816128d1565b9050919050565b60006020820190508181036000830152612f5481612911565b9050919050565b60006020820190508181036000830152612f7481612977565b9050919050565b60006020820190508181036000830152612f94816129dd565b9050919050565b60006020820190508181036000830152612fb481612a83565b9050919050565b60006020820190508181036000830152612fd481612ac3565b9050919050565b60006020820190508181036000830152612ff481612b29565b9050919050565b6000602082019050818103600083015261301481612b8f565b9050919050565b6000602082019050818103600083015261303481612bcf565b9050919050565b6000602082019050818103600083015261305481612c35565b9050919050565b60006020820190506130706000830184612caa565b92915050565b600060408201905061308b6000830185612caa565b6130986020830184612caa565b9392505050565b60006060820190506130b46000830186612caa565b6130c16020830185612caa565b6130ce6040830184612caa565b949350505050565b6000604051905081810181811067ffffffffffffffff821117156130fd576130fc6134ca565b5b8060405250919050565b600067ffffffffffffffff821115613122576131216134ca565b5b602082029050602081019050919050565b600067ffffffffffffffff82111561314e5761314d6134ca565b5b602082029050602081019050919050565b600067ffffffffffffffff82111561317a576131796134ca565b5b601f19601f8301169050602081019050919050565b6000819050602082019050919050565b60008190508160005260206000209050919050565b600081519050919050565b600081519050919050565b600081519050919050565b6000602082019050919050565b600082825260208201905092915050565b600082825260208201905092915050565b600082825260208201905092915050565b600081905092915050565b600061322b82613345565b915061323683613345565b9250827fffffffffffffffffffffffffffffffffffffffffffffffffffffffffffffffff0382111561326b5761326a61343d565b5b828201905092915050565b600061328182613345565b915061328c83613345565b92508261329c5761329b61346c565b5b828204905092915050565b60006132b282613345565b91506132bd83613345565b9250828210156132d0576132cf61343d565b5b828203905092915050565b60006132e682613325565b9050919050565b60008115159050919050565b60007fffffffff0000000000000000000000000000000000000000000000000000000082169050919050565b600073ffffffffffffffffffffffffffffffffffffffff82169050919050565b6000819050919050565b82818337600083830152505050565b60005b8381101561337c578082015181840152602081019050613361565b8381111561338b576000848401525b50505050565b600060028204905060018216806133a957607f821691505b602082108114156133bd576133bc61349b565b5b50919050565b60006133ce82613345565b91507fffffffffffffffffffffffffffffffffffffffffffffffffffffffffffffffff8214156134015761340061343d565b5b600182019050919050565b600061341782613345565b915061342283613345565b9250826134325761343161346c565b5b828206905092915050565b7f4e487b7100000000000000000000000000000000000000000000000000000000600052601160045260246000fd5b7f4e487b7100000000000000000000000000000000000000000000000000000000600052601260045260246000fd5b7f4e487b7100000000000000000000000000000000000000000000000000000000600052602260045260246000fd5b7f4e487b7100000000000000000000000000000000000000000000000000000000600052604160045260246000fd5b6000601f19601f8301169050919050565b60008160e01c9050919050565b600060443d1015613527576135ca565b60046000803e61353860005161350a565b6308c379a0811461354957506135ca565b60405160043d036004823e80513d602482011167ffffffffffffffff82111715613575575050506135ca565b808201805167ffffffffffffffff8111156135945750505050506135ca565b8060208301013d85018111156135af575050505050506135ca565b6135b8826134f9565b60208401016040528296505050505050505b90565b6135d6816132db565b81146135e157600080fd5b50565b6135ed816132ed565b81146135f857600080fd5b50565b613604816132f9565b811461360f57600080fd5b50565b61361b81613345565b811461362657600080fd5b5056fea2646970667358221220f44086e00e301eb607829b4010ddcf9cbf3ea6ba26fa32640a1b3bce2886ae6d64736f6c63430008000033",
  "immutableReferences": {},
  "source": "// SPDX-License-Identifier: MIT\r\npragma solidity ^0.8.0;\r\n\r\nimport \"@openzeppelin/contracts/token/ERC1155/ERC1155.sol\";\r\nimport \"@openzeppelin/contracts/access/Ownable.sol\";\r\nimport \"@openzeppelin/contracts/utils/Strings.sol\";\r\n\r\ncontract SDVDiscountNFT is ERC1155, Ownable {\r\n    using Strings for uint256;\r\n\r\n    struct NFT {\r\n        uint256 initialSupply;\r\n        uint256 offchainPoints;\r\n        uint256 remainingAmount;\r\n    }\r\n\r\n    mapping(uint256 => NFT) public nfts;\r\n\r\n    uint256 private nextTokenId = 1;\r\n\r\n    event NFTMinted(uint256 indexed tokenId, uint256 initialSupply, uint256 offchainPoints);\r\n    event NFTPurchased(address indexed buyer, uint256 indexed tokenId, uint256 amount);\r\n\r\n    string public baseURI;\r\n\r\n    constructor(string memory _baseURI) ERC1155(\"\") {\r\n        baseURI = _baseURI;\r\n    }\r\n\r\n    function mint(uint256 initialSupply, uint256 offchainPoints) external onlyOwner {\r\n        uint256 tokenId = nextTokenId++;\r\n        _mint(owner(), tokenId, initialSupply, \"\");\r\n        nfts[tokenId] = NFT(initialSupply, offchainPoints, initialSupply);\r\n        emit NFTMinted(tokenId, initialSupply, offchainPoints);\r\n    }\r\n\r\n    function purchaseNFTWithPoints(uint256 tokenId, uint256 amount) external {\r\n    require(tokenId < nextTokenId, \"Token ID does not exist\");\r\n    require(amount <= nfts[tokenId].remainingAmount, \"Exceeds remaining amount\");\r\n    require(amount > 0, \"Invalid amount\");\r\n\r\n    emit NFTPurchased(msg.sender, tokenId, amount);\r\n\r\n    nfts[tokenId].remainingAmount -= amount;\r\n    _mint(msg.sender, tokenId, amount, \"\"); \r\n}\r\n\r\n\r\n    function tokenURI(uint256 tokenId) external view returns (string memory) {\r\n        require(tokenId < nextTokenId, \"Token ID does not exist\");\r\n        return string(abi.encodePacked(baseURI, tokenId.toString(), \".json\"));\r\n    }\r\n\r\n}\r\n",
  "sourcePath": "C:\\Users\\i\\Documents\\GitHub\\DSP-old\\contracts\\contracts\\SDVDiscountNFT.sol",
  "compiler": {
    "name": "solc",
    "version": "0.8.0+commit.c7dfd78e.Emscripten.clang"
  },
  "schemaVersion": "3.4.16",
  "updatedAt": "2024-03-08T08:09:35.302Z",
  "networkType": "ethereum",
  "devdoc": {
    "kind": "dev",
    "methods": {
      "balanceOf(address,uint256)": {
        "details": "See {IERC1155-balanceOf}. Requirements: - `account` cannot be the zero address."
      },
      "balanceOfBatch(address[],uint256[])": {
        "details": "See {IERC1155-balanceOfBatch}. Requirements: - `accounts` and `ids` must have the same length."
      },
      "isApprovedForAll(address,address)": {
        "details": "See {IERC1155-isApprovedForAll}."
      },
      "owner()": {
        "details": "Returns the address of the current owner."
      },
      "renounceOwnership()": {
        "details": "Leaves the contract without owner. It will not be possible to call `onlyOwner` functions anymore. Can only be called by the current owner. NOTE: Renouncing ownership will leave the contract without an owner, thereby removing any functionality that is only available to the owner."
      },
      "safeBatchTransferFrom(address,address,uint256[],uint256[],bytes)": {
        "details": "See {IERC1155-safeBatchTransferFrom}."
      },
      "safeTransferFrom(address,address,uint256,uint256,bytes)": {
        "details": "See {IERC1155-safeTransferFrom}."
      },
      "setApprovalForAll(address,bool)": {
        "details": "See {IERC1155-setApprovalForAll}."
      },
      "supportsInterface(bytes4)": {
        "details": "See {IERC165-supportsInterface}."
      },
      "transferOwnership(address)": {
        "details": "Transfers ownership of the contract to a new account (`newOwner`). Can only be called by the current owner."
      },
      "uri(uint256)": {
        "details": "See {IERC1155MetadataURI-uri}. This implementation returns the same URI for *all* token types. It relies on the token type ID substitution mechanism https://eips.ethereum.org/EIPS/eip-1155#metadata[defined in the EIP]. Clients calling this function must replace the `\\{id\\}` substring with the actual token type ID."
      }
    },
    "version": 1
  },
  "userdoc": {
    "kind": "user",
    "methods": {},
    "version": 1
  }
}