{
  "contractName": "SDVDiscountNFT",
  "abi": [
    {
      "inputs": [
        {
          "internalType": "string",
          "name": "baseTokenURI",
          "type": "string"
        }
      ],
      "stateMutability": "nonpayable",
      "type": "constructor"
    },
    {
      "anonymous": false,
      "inputs": [
        {
          "indexed": true,
          "internalType": "address",
          "name": "account",
          "type": "address"
        },
        {
          "indexed": true,
          "internalType": "address",
          "name": "operator",
          "type": "address"
        },
        {
          "indexed": false,
          "internalType": "bool",
          "name": "approved",
          "type": "bool"
        }
      ],
      "name": "ApprovalForAll",
      "type": "event"
    },
    {
      "anonymous": false,
      "inputs": [
        {
          "indexed": true,
          "internalType": "uint256",
          "name": "tokenId",
          "type": "uint256"
        },
        {
          "indexed": false,
          "internalType": "uint256",
          "name": "price",
          "type": "uint256"
        }
      ],
      "name": "NFTMinted",
      "type": "event"
    },
    {
      "anonymous": false,
      "inputs": [
        {
          "indexed": true,
          "internalType": "address",
          "name": "buyer",
          "type": "address"
        },
        {
          "indexed": true,
          "internalType": "uint256",
          "name": "tokenId",
          "type": "uint256"
        },
        {
          "indexed": false,
          "internalType": "uint256",
          "name": "amount",
          "type": "uint256"
        },
        {
          "indexed": false,
          "internalType": "uint256",
          "name": "price",
          "type": "uint256"
        }
      ],
      "name": "NFTPurchased",
      "type": "event"
    },
    {
      "anonymous": false,
      "inputs": [
        {
          "indexed": true,
          "internalType": "address",
          "name": "previousOwner",
          "type": "address"
        },
        {
          "indexed": true,
          "internalType": "address",
          "name": "newOwner",
          "type": "address"
        }
      ],
      "name": "OwnershipTransferred",
      "type": "event"
    },
    {
      "anonymous": false,
      "inputs": [
        {
          "indexed": true,
          "internalType": "address",
          "name": "operator",
          "type": "address"
        },
        {
          "indexed": true,
          "internalType": "address",
          "name": "from",
          "type": "address"
        },
        {
          "indexed": true,
          "internalType": "address",
          "name": "to",
          "type": "address"
        },
        {
          "indexed": false,
          "internalType": "uint256[]",
          "name": "ids",
          "type": "uint256[]"
        },
        {
          "indexed": false,
          "internalType": "uint256[]",
          "name": "values",
          "type": "uint256[]"
        }
      ],
      "name": "TransferBatch",
      "type": "event"
    },
    {
      "anonymous": false,
      "inputs": [
        {
          "indexed": true,
          "internalType": "address",
          "name": "operator",
          "type": "address"
        },
        {
          "indexed": true,
          "internalType": "address",
          "name": "from",
          "type": "address"
        },
        {
          "indexed": true,
          "internalType": "address",
          "name": "to",
          "type": "address"
        },
        {
          "indexed": false,
          "internalType": "uint256",
          "name": "id",
          "type": "uint256"
        },
        {
          "indexed": false,
          "internalType": "uint256",
          "name": "value",
          "type": "uint256"
        }
      ],
      "name": "TransferSingle",
      "type": "event"
    },
    {
      "anonymous": false,
      "inputs": [
        {
          "indexed": false,
          "internalType": "string",
          "name": "value",
          "type": "string"
        },
        {
          "indexed": true,
          "internalType": "uint256",
          "name": "id",
          "type": "uint256"
        }
      ],
      "name": "URI",
      "type": "event"
    },
    {
      "inputs": [
        {
          "internalType": "address",
          "name": "account",
          "type": "address"
        },
        {
          "internalType": "uint256",
          "name": "id",
          "type": "uint256"
        }
      ],
      "name": "balanceOf",
      "outputs": [
        {
          "internalType": "uint256",
          "name": "",
          "type": "uint256"
        }
      ],
      "stateMutability": "view",
      "type": "function",
      "constant": true
    },
    {
      "inputs": [
        {
          "internalType": "address[]",
          "name": "accounts",
          "type": "address[]"
        },
        {
          "internalType": "uint256[]",
          "name": "ids",
          "type": "uint256[]"
        }
      ],
      "name": "balanceOfBatch",
      "outputs": [
        {
          "internalType": "uint256[]",
          "name": "",
          "type": "uint256[]"
        }
      ],
      "stateMutability": "view",
      "type": "function",
      "constant": true
    },
    {
      "inputs": [
        {
          "internalType": "address",
          "name": "account",
          "type": "address"
        },
        {
          "internalType": "address",
          "name": "operator",
          "type": "address"
        }
      ],
      "name": "isApprovedForAll",
      "outputs": [
        {
          "internalType": "bool",
          "name": "",
          "type": "bool"
        }
      ],
      "stateMutability": "view",
      "type": "function",
      "constant": true
    },
    {
      "inputs": [],
      "name": "owner",
      "outputs": [
        {
          "internalType": "address",
          "name": "",
          "type": "address"
        }
      ],
      "stateMutability": "view",
      "type": "function",
      "constant": true
    },
    {
      "inputs": [],
      "name": "renounceOwnership",
      "outputs": [],
      "stateMutability": "nonpayable",
      "type": "function"
    },
    {
      "inputs": [
        {
          "internalType": "address",
          "name": "from",
          "type": "address"
        },
        {
          "internalType": "address",
          "name": "to",
          "type": "address"
        },
        {
          "internalType": "uint256[]",
          "name": "ids",
          "type": "uint256[]"
        },
        {
          "internalType": "uint256[]",
          "name": "amounts",
          "type": "uint256[]"
        },
        {
          "internalType": "bytes",
          "name": "data",
          "type": "bytes"
        }
      ],
      "name": "safeBatchTransferFrom",
      "outputs": [],
      "stateMutability": "nonpayable",
      "type": "function"
    },
    {
      "inputs": [
        {
          "internalType": "address",
          "name": "from",
          "type": "address"
        },
        {
          "internalType": "address",
          "name": "to",
          "type": "address"
        },
        {
          "internalType": "uint256",
          "name": "id",
          "type": "uint256"
        },
        {
          "internalType": "uint256",
          "name": "amount",
          "type": "uint256"
        },
        {
          "internalType": "bytes",
          "name": "data",
          "type": "bytes"
        }
      ],
      "name": "safeTransferFrom",
      "outputs": [],
      "stateMutability": "nonpayable",
      "type": "function"
    },
    {
      "inputs": [
        {
          "internalType": "address",
          "name": "operator",
          "type": "address"
        },
        {
          "internalType": "bool",
          "name": "approved",
          "type": "bool"
        }
      ],
      "name": "setApprovalForAll",
      "outputs": [],
      "stateMutability": "nonpayable",
      "type": "function"
    },
    {
      "inputs": [
        {
          "internalType": "bytes4",
          "name": "interfaceId",
          "type": "bytes4"
        }
      ],
      "name": "supportsInterface",
      "outputs": [
        {
          "internalType": "bool",
          "name": "",
          "type": "bool"
        }
      ],
      "stateMutability": "view",
      "type": "function",
      "constant": true
    },
    {
      "inputs": [
        {
          "internalType": "address",
          "name": "newOwner",
          "type": "address"
        }
      ],
      "name": "transferOwnership",
      "outputs": [],
      "stateMutability": "nonpayable",
      "type": "function"
    },
    {
      "inputs": [
        {
          "internalType": "uint256",
          "name": "",
          "type": "uint256"
        }
      ],
      "name": "uri",
      "outputs": [
        {
          "internalType": "string",
          "name": "",
          "type": "string"
        }
      ],
      "stateMutability": "view",
      "type": "function",
      "constant": true
    },
    {
      "inputs": [
        {
          "internalType": "uint256",
          "name": "initialSupply",
          "type": "uint256"
        },
        {
          "internalType": "uint256",
          "name": "price",
          "type": "uint256"
        }
      ],
      "name": "mint",
      "outputs": [],
      "stateMutability": "nonpayable",
      "type": "function"
    },
    {
      "inputs": [
        {
          "internalType": "uint256",
          "name": "tokenId",
          "type": "uint256"
        },
        {
          "internalType": "uint256",
          "name": "amount",
          "type": "uint256"
        },
        {
          "internalType": "uint256",
          "name": "offchainPoints",
          "type": "uint256"
        },
        {
          "internalType": "uint256",
          "name": "price",
          "type": "uint256"
        }
      ],
      "name": "purchaseNFTWithPoints",
      "outputs": [],
      "stateMutability": "nonpayable",
      "type": "function"
    },
    {
      "inputs": [
        {
          "internalType": "uint256",
          "name": "tokenId",
          "type": "uint256"
        }
      ],
      "name": "tokenURI",
      "outputs": [
        {
          "internalType": "string",
          "name": "",
          "type": "string"
        }
      ],
      "stateMutability": "view",
      "type": "function",
      "constant": true
    }
  ],
  "bytecode": "0x608060405260016004553480156200001657600080fd5b50604051620037ed380380620037ed83398181016040528101906200003c91906200024d565b806200004e816200010760201b60201c565b506000620000616200012360201b60201c565b905080600360006101000a81548173ffffffffffffffffffffffffffffffffffffffff021916908373ffffffffffffffffffffffffffffffffffffffff1602179055508073ffffffffffffffffffffffffffffffffffffffff16600073ffffffffffffffffffffffffffffffffffffffff167f8be0079c531659141344cd1fd0a4f28419497f9722a3daafe3b4186f6b6457e060405160405180910390a35050620003c3565b80600290805190602001906200011f9291906200012b565b5050565b600033905090565b82805462000139906200032f565b90600052602060002090601f0160209004810192826200015d5760008555620001a9565b82601f106200017857805160ff1916838001178555620001a9565b82800160010185558215620001a9579182015b82811115620001a85782518255916020019190600101906200018b565b5b509050620001b89190620001bc565b5090565b5b80821115620001d7576000816000905550600101620001bd565b5090565b6000620001f2620001ec84620002c6565b62000292565b9050828152602081018484840111156200020b57600080fd5b62000218848285620002f9565b509392505050565b600082601f8301126200023257600080fd5b815162000244848260208601620001db565b91505092915050565b6000602082840312156200026057600080fd5b600082015167ffffffffffffffff8111156200027b57600080fd5b620002898482850162000220565b91505092915050565b6000604051905081810181811067ffffffffffffffff82111715620002bc57620002bb62000394565b5b8060405250919050565b600067ffffffffffffffff821115620002e457620002e362000394565b5b601f19601f8301169050602081019050919050565b60005b8381101562000319578082015181840152602081019050620002fc565b8381111562000329576000848401525b50505050565b600060028204905060018216806200034857607f821691505b602082108114156200035f576200035e62000365565b5b50919050565b7f4e487b7100000000000000000000000000000000000000000000000000000000600052602260045260246000fd5b7f4e487b7100000000000000000000000000000000000000000000000000000000600052604160045260246000fd5b61341a80620003d36000396000f3fe608060405234801561001057600080fd5b50600436106100e95760003560e01c80638da5cb5b1161008c578063c87b56dd11610066578063c87b56dd14610246578063e985e9c514610276578063f242432a146102a6578063f2fde38b146102c2576100e9565b80638da5cb5b146101f0578063a22cb4651461020e578063ba8cc0831461022a576100e9565b80631b2ef1ca116100c85780631b2ef1ca1461017e5780632eb2c2d61461019a5780634e1273f4146101b6578063715018a6146101e6576100e9565b8062fdd58e146100ee57806301ffc9a71461011e5780630e89341c1461014e575b600080fd5b610108600480360381019061010391906121a7565b6102de565b6040516101159190612e08565b60405180910390f35b6101386004803603810190610133919061224f565b6103a7565b6040516101459190612beb565b60405180910390f35b610168600480360381019061016391906122a1565b610489565b6040516101759190612c06565b60405180910390f35b610198600480360381019061019391906122ca565b61051d565b005b6101b460048036038101906101af919061201d565b610613565b005b6101d060048036038101906101cb91906121e3565b610a09565b6040516101dd9190612b92565b60405180910390f35b6101ee610bba565b005b6101f8610cf7565b6040516102059190612ab5565b60405180910390f35b6102286004803603810190610223919061216b565b610d21565b005b610244600480360381019061023f9190612306565b610ea2565b005b610260600480360381019061025b91906122a1565b610fae565b60405161026d9190612c06565b60405180910390f35b610290600480360381019061028b9190611fe1565b61102d565b60405161029d9190612beb565b60405180910390f35b6102c060048036038101906102bb91906120dc565b6110c1565b005b6102dc60048036038101906102d79190611fb8565b6113d9565b005b60008073ffffffffffffffffffffffffffffffffffffffff168373ffffffffffffffffffffffffffffffffffffffff16141561034f576040517f08c379a000000000000000000000000000000000000000000000000000000000815260040161034690612c68565b60405180910390fd5b60008083815260200190815260200160002060008473ffffffffffffffffffffffffffffffffffffffff1673ffffffffffffffffffffffffffffffffffffffff16815260200190815260200160002054905092915050565b60007fd9b67a26000000000000000000000000000000000000000000000000000000007bffffffffffffffffffffffffffffffffffffffffffffffffffffffff1916827bffffffffffffffffffffffffffffffffffffffffffffffffffffffff1916148061047257507f0e89341c000000000000000000000000000000000000000000000000000000007bffffffffffffffffffffffffffffffffffffffffffffffffffffffff1916827bffffffffffffffffffffffffffffffffffffffffffffffffffffffff1916145b80610482575061048182611585565b5b9050919050565b6060600280546104989061314c565b80601f01602080910402602001604051908101604052809291908181526020018280546104c49061314c565b80156105115780601f106104e657610100808354040283529160200191610511565b820191906000526020600020905b8154815290600101906020018083116104f457829003601f168201915b50505050509050919050565b6105256115ef565b73ffffffffffffffffffffffffffffffffffffffff16610543610cf7565b73ffffffffffffffffffffffffffffffffffffffff1614610599576040517f08c379a000000000000000000000000000000000000000000000000000000000815260040161059090612d68565b60405180910390fd5b6000600460008154809291906105ae9061317e565b9190505590506105d66105bf610cf7565b8285604051806020016040528060008152506115f7565b807fd4c3f7782ecae0d1a12013592109b1bf02689d7f4e8ab653c75a61aea745e3be836040516106069190612e08565b60405180910390a2505050565b8151835114610657576040517f08c379a000000000000000000000000000000000000000000000000000000000815260040161064e90612dc8565b60405180910390fd5b600073ffffffffffffffffffffffffffffffffffffffff168473ffffffffffffffffffffffffffffffffffffffff1614156106c7576040517f08c379a00000000000000000000000000000000000000000000000000000000081526004016106be90612d08565b60405180910390fd5b6106cf6115ef565b73ffffffffffffffffffffffffffffffffffffffff168573ffffffffffffffffffffffffffffffffffffffff16148061071557506107148561070f6115ef565b61102d565b5b610754576040517f08c379a000000000000000000000000000000000000000000000000000000000815260040161074b90612d28565b60405180910390fd5b600061075e6115ef565b905061076e81878787878761178d565b60005b84518110156109745760008582815181106107b5577f4e487b7100000000000000000000000000000000000000000000000000000000600052603260045260246000fd5b6020026020010151905060008583815181106107fa577f4e487b7100000000000000000000000000000000000000000000000000000000600052603260045260246000fd5b60200260200101519050600080600084815260200190815260200160002060008b73ffffffffffffffffffffffffffffffffffffffff1673ffffffffffffffffffffffffffffffffffffffff1681526020019081526020016000205490508181101561089b576040517f08c379a000000000000000000000000000000000000000000000000000000000815260040161089290612d48565b60405180910390fd5b81816108a79190613062565b60008085815260200190815260200160002060008c73ffffffffffffffffffffffffffffffffffffffff1673ffffffffffffffffffffffffffffffffffffffff168152602001908152602001600020819055508160008085815260200190815260200160002060008b73ffffffffffffffffffffffffffffffffffffffff1673ffffffffffffffffffffffffffffffffffffffff16815260200190815260200160002060008282546109599190612f81565b925050819055505050508061096d9061317e565b9050610771565b508473ffffffffffffffffffffffffffffffffffffffff168673ffffffffffffffffffffffffffffffffffffffff168273ffffffffffffffffffffffffffffffffffffffff167f4a39dc06d4c0dbc64b70af90fd698a233a518aa5d07e595d983b8c0526c8f7fb87876040516109eb929190612bb4565b60405180910390a4610a01818787878787611795565b505050505050565b60608151835114610a4f576040517f08c379a0000000000000000000000000000000000000000000000000000000008152600401610a4690612da8565b60405180910390fd5b6000835167ffffffffffffffff811115610a92577f4e487b7100000000000000000000000000000000000000000000000000000000600052604160045260246000fd5b604051908082528060200260200182016040528015610ac05781602001602082028036833780820191505090505b50905060005b8451811015610baf57610b59858281518110610b0b577f4e487b7100000000000000000000000000000000000000000000000000000000600052603260045260246000fd5b6020026020010151858381518110610b4c577f4e487b7100000000000000000000000000000000000000000000000000000000600052603260045260246000fd5b60200260200101516102de565b828281518110610b92577f4e487b7100000000000000000000000000000000000000000000000000000000600052603260045260246000fd5b60200260200101818152505080610ba89061317e565b9050610ac6565b508091505092915050565b610bc26115ef565b73ffffffffffffffffffffffffffffffffffffffff16610be0610cf7565b73ffffffffffffffffffffffffffffffffffffffff1614610c36576040517f08c379a0000000000000000000000000000000000000000000000000000000008152600401610c2d90612d68565b60405180910390fd5b600073ffffffffffffffffffffffffffffffffffffffff16600360009054906101000a900473ffffffffffffffffffffffffffffffffffffffff1673ffffffffffffffffffffffffffffffffffffffff167f8be0079c531659141344cd1fd0a4f28419497f9722a3daafe3b4186f6b6457e060405160405180910390a36000600360006101000a81548173ffffffffffffffffffffffffffffffffffffffff021916908373ffffffffffffffffffffffffffffffffffffffff160217905550565b6000600360009054906101000a900473ffffffffffffffffffffffffffffffffffffffff16905090565b8173ffffffffffffffffffffffffffffffffffffffff16610d406115ef565b73ffffffffffffffffffffffffffffffffffffffff161415610d97576040517f08c379a0000000000000000000000000000000000000000000000000000000008152600401610d8e90612d88565b60405180910390fd5b8060016000610da46115ef565b73ffffffffffffffffffffffffffffffffffffffff1673ffffffffffffffffffffffffffffffffffffffff16815260200190815260200160002060008473ffffffffffffffffffffffffffffffffffffffff1673ffffffffffffffffffffffffffffffffffffffff16815260200190815260200160002060006101000a81548160ff0219169083151502179055508173ffffffffffffffffffffffffffffffffffffffff16610e516115ef565b73ffffffffffffffffffffffffffffffffffffffff167f17307eab39ab6107e8899845ad3d59bd9653f200f220920489ca2b5937696c3183604051610e969190612beb565b60405180910390a35050565b6004548410610ee6576040517f08c379a0000000000000000000000000000000000000000000000000000000008152600401610edd90612ce8565b60405180910390fd5b8281610ef29190613008565b821015610f34576040517f08c379a0000000000000000000000000000000000000000000000000000000008152600401610f2b90612cc8565b60405180910390fd5b610f57610f3f610cf7565b338686604051806020016040528060008152506110c1565b833373ffffffffffffffffffffffffffffffffffffffff167f25d1144310b3f5e9cb8ad2e2bd379aef97847a57087ab9cbcd95a06105a4629c8584604051610fa0929190612e23565b60405180910390a350505050565b60606004548210610ff4576040517f08c379a0000000000000000000000000000000000000000000000000000000008152600401610feb90612ce8565b60405180910390fd5b610ffd82610489565b61100683611965565b604051602001611017929190612a86565b6040516020818303038152906040529050919050565b6000600160008473ffffffffffffffffffffffffffffffffffffffff1673ffffffffffffffffffffffffffffffffffffffff16815260200190815260200160002060008373ffffffffffffffffffffffffffffffffffffffff1673ffffffffffffffffffffffffffffffffffffffff16815260200190815260200160002060009054906101000a900460ff16905092915050565b600073ffffffffffffffffffffffffffffffffffffffff168473ffffffffffffffffffffffffffffffffffffffff161415611131576040517f08c379a000000000000000000000000000000000000000000000000000000000815260040161112890612d08565b60405180910390fd5b6111396115ef565b73ffffffffffffffffffffffffffffffffffffffff168573ffffffffffffffffffffffffffffffffffffffff16148061117f575061117e856111796115ef565b61102d565b5b6111be576040517f08c379a00000000000000000000000000000000000000000000000000000000081526004016111b590612ca8565b60405180910390fd5b60006111c86115ef565b90506111e88187876111d988611b12565b6111e288611b12565b8761178d565b600080600086815260200190815260200160002060008873ffffffffffffffffffffffffffffffffffffffff1673ffffffffffffffffffffffffffffffffffffffff1681526020019081526020016000205490508381101561127f576040517f08c379a000000000000000000000000000000000000000000000000000000000815260040161127690612d48565b60405180910390fd5b838161128b9190613062565b60008087815260200190815260200160002060008973ffffffffffffffffffffffffffffffffffffffff1673ffffffffffffffffffffffffffffffffffffffff168152602001908152602001600020819055508360008087815260200190815260200160002060008873ffffffffffffffffffffffffffffffffffffffff1673ffffffffffffffffffffffffffffffffffffffff168152602001908152602001600020600082825461133d9190612f81565b925050819055508573ffffffffffffffffffffffffffffffffffffffff168773ffffffffffffffffffffffffffffffffffffffff168373ffffffffffffffffffffffffffffffffffffffff167fc3d58168c5ae7397731d063d5bbf3d657854427343f4c083240f7aacaa2d0f6288886040516113ba929190612e23565b60405180910390a46113d0828888888888611bd8565b50505050505050565b6113e16115ef565b73ffffffffffffffffffffffffffffffffffffffff166113ff610cf7565b73ffffffffffffffffffffffffffffffffffffffff1614611455576040517f08c379a000000000000000000000000000000000000000000000000000000000815260040161144c90612d68565b60405180910390fd5b600073ffffffffffffffffffffffffffffffffffffffff168173ffffffffffffffffffffffffffffffffffffffff1614156114c5576040517f08c379a00000000000000000000000000000000000000000000000000000000081526004016114bc90612c88565b60405180910390fd5b8073ffffffffffffffffffffffffffffffffffffffff16600360009054906101000a900473ffffffffffffffffffffffffffffffffffffffff1673ffffffffffffffffffffffffffffffffffffffff167f8be0079c531659141344cd1fd0a4f28419497f9722a3daafe3b4186f6b6457e060405160405180910390a380600360006101000a81548173ffffffffffffffffffffffffffffffffffffffff021916908373ffffffffffffffffffffffffffffffffffffffff16021790555050565b60007f01ffc9a7000000000000000000000000000000000000000000000000000000007bffffffffffffffffffffffffffffffffffffffffffffffffffffffff1916827bffffffffffffffffffffffffffffffffffffffffffffffffffffffff1916149050919050565b600033905090565b600073ffffffffffffffffffffffffffffffffffffffff168473ffffffffffffffffffffffffffffffffffffffff161415611667576040517f08c379a000000000000000000000000000000000000000000000000000000000815260040161165e90612de8565b60405180910390fd5b60006116716115ef565b90506116928160008761168388611b12565b61168c88611b12565b8761178d565b8260008086815260200190815260200160002060008773ffffffffffffffffffffffffffffffffffffffff1673ffffffffffffffffffffffffffffffffffffffff16815260200190815260200160002060008282546116f19190612f81565b925050819055508473ffffffffffffffffffffffffffffffffffffffff16600073ffffffffffffffffffffffffffffffffffffffff168273ffffffffffffffffffffffffffffffffffffffff167fc3d58168c5ae7397731d063d5bbf3d657854427343f4c083240f7aacaa2d0f62878760405161176f929190612e23565b60405180910390a461178681600087878787611bd8565b5050505050565b505050505050565b6117b48473ffffffffffffffffffffffffffffffffffffffff16611da8565b1561195d578373ffffffffffffffffffffffffffffffffffffffff1663bc197c8187878686866040518663ffffffff1660e01b81526004016117fa959493929190612ad0565b602060405180830381600087803b15801561181457600080fd5b505af192505050801561184557506040513d601f19601f820116820180604052508101906118429190612278565b60015b6118d4576118516132d2565b8061185c5750611899565b806040517f08c379a00000000000000000000000000000000000000000000000000000000081526004016118909190612c06565b60405180910390fd5b6040517f08c379a00000000000000000000000000000000000000000000000000000000081526004016118cb90612c28565b60405180910390fd5b63bc197c8160e01b7bffffffffffffffffffffffffffffffffffffffffffffffffffffffff1916817bffffffffffffffffffffffffffffffffffffffffffffffffffffffff19161461195b576040517f08c379a000000000000000000000000000000000000000000000000000000000815260040161195290612c48565b60405180910390fd5b505b505050505050565b606060008214156119ad576040518060400160405280600181526020017f30000000000000000000000000000000000000000000000000000000000000008152509050611b0d565b600082905060005b600082146119df5780806119c89061317e565b915050600a826119d89190612fd7565b91506119b5565b60008167ffffffffffffffff811115611a21577f4e487b7100000000000000000000000000000000000000000000000000000000600052604160045260246000fd5b6040519080825280601f01601f191660200182016040528015611a535781602001600182028036833780820191505090505b5090505b60008514611b0657600182611a6c9190613062565b9150600a85611a7b91906131c7565b6030611a879190612f81565b60f81b818381518110611ac3577f4e487b7100000000000000000000000000000000000000000000000000000000600052603260045260246000fd5b60200101907effffffffffffffffffffffffffffffffffffffffffffffffffffffffffffff1916908160001a905350600a85611aff9190612fd7565b9450611a57565b8093505050505b919050565b60606000600167ffffffffffffffff811115611b57577f4e487b7100000000000000000000000000000000000000000000000000000000600052604160045260246000fd5b604051908082528060200260200182016040528015611b855781602001602082028036833780820191505090505b5090508281600081518110611bc3577f4e487b7100000000000000000000000000000000000000000000000000000000600052603260045260246000fd5b60200260200101818152505080915050919050565b611bf78473ffffffffffffffffffffffffffffffffffffffff16611da8565b15611da0578373ffffffffffffffffffffffffffffffffffffffff1663f23a6e6187878686866040518663ffffffff1660e01b8152600401611c3d959493929190612b38565b602060405180830381600087803b158015611c5757600080fd5b505af1925050508015611c8857506040513d601f19601f82011682018060405250810190611c859190612278565b60015b611d1757611c946132d2565b80611c9f5750611cdc565b806040517f08c379a0000000000000000000000000000000000000000000000000000000008152600401611cd39190612c06565b60405180910390fd5b6040517f08c379a0000000000000000000000000000000000000000000000000000000008152600401611d0e90612c28565b60405180910390fd5b63f23a6e6160e01b7bffffffffffffffffffffffffffffffffffffffffffffffffffffffff1916817bffffffffffffffffffffffffffffffffffffffffffffffffffffffff191614611d9e576040517f08c379a0000000000000000000000000000000000000000000000000000000008152600401611d9590612c48565b60405180910390fd5b505b505050505050565b600080823b905060008111915050919050565b6000611dce611dc984612e7d565b612e4c565b90508083825260208201905082856020860282011115611ded57600080fd5b60005b85811015611e1d5781611e038882611ed1565b845260208401935060208301925050600181019050611df0565b5050509392505050565b6000611e3a611e3584612ea9565b612e4c565b90508083825260208201905082856020860282011115611e5957600080fd5b60005b85811015611e895781611e6f8882611fa3565b845260208401935060208301925050600181019050611e5c565b5050509392505050565b6000611ea6611ea184612ed5565b612e4c565b905082815260208101848484011115611ebe57600080fd5b611ec984828561310a565b509392505050565b600081359050611ee081613388565b92915050565b600082601f830112611ef757600080fd5b8135611f07848260208601611dbb565b91505092915050565b600082601f830112611f2157600080fd5b8135611f31848260208601611e27565b91505092915050565b600081359050611f498161339f565b92915050565b600081359050611f5e816133b6565b92915050565b600081519050611f73816133b6565b92915050565b600082601f830112611f8a57600080fd5b8135611f9a848260208601611e93565b91505092915050565b600081359050611fb2816133cd565b92915050565b600060208284031215611fca57600080fd5b6000611fd884828501611ed1565b91505092915050565b60008060408385031215611ff457600080fd5b600061200285828601611ed1565b925050602061201385828601611ed1565b9150509250929050565b600080600080600060a0868803121561203557600080fd5b600061204388828901611ed1565b955050602061205488828901611ed1565b945050604086013567ffffffffffffffff81111561207157600080fd5b61207d88828901611f10565b935050606086013567ffffffffffffffff81111561209a57600080fd5b6120a688828901611f10565b925050608086013567ffffffffffffffff8111156120c357600080fd5b6120cf88828901611f79565b9150509295509295909350565b600080600080600060a086880312156120f457600080fd5b600061210288828901611ed1565b955050602061211388828901611ed1565b945050604061212488828901611fa3565b935050606061213588828901611fa3565b925050608086013567ffffffffffffffff81111561215257600080fd5b61215e88828901611f79565b9150509295509295909350565b6000806040838503121561217e57600080fd5b600061218c85828601611ed1565b925050602061219d85828601611f3a565b9150509250929050565b600080604083850312156121ba57600080fd5b60006121c885828601611ed1565b92505060206121d985828601611fa3565b9150509250929050565b600080604083850312156121f657600080fd5b600083013567ffffffffffffffff81111561221057600080fd5b61221c85828601611ee6565b925050602083013567ffffffffffffffff81111561223957600080fd5b61224585828601611f10565b9150509250929050565b60006020828403121561226157600080fd5b600061226f84828501611f4f565b91505092915050565b60006020828403121561228a57600080fd5b600061229884828501611f64565b91505092915050565b6000602082840312156122b357600080fd5b60006122c184828501611fa3565b91505092915050565b600080604083850312156122dd57600080fd5b60006122eb85828601611fa3565b92505060206122fc85828601611fa3565b9150509250929050565b6000806000806080858703121561231c57600080fd5b600061232a87828801611fa3565b945050602061233b87828801611fa3565b935050604061234c87828801611fa3565b925050606061235d87828801611fa3565b91505092959194509250565b60006123758383612a68565b60208301905092915050565b61238a81613096565b82525050565b600061239b82612f15565b6123a58185612f43565b93506123b083612f05565b8060005b838110156123e15781516123c88882612369565b97506123d383612f36565b9250506001810190506123b4565b5085935050505092915050565b6123f7816130a8565b82525050565b600061240882612f20565b6124128185612f54565b9350612422818560208601613119565b61242b816132b4565b840191505092915050565b600061244182612f2b565b61244b8185612f65565b935061245b818560208601613119565b612464816132b4565b840191505092915050565b600061247a82612f2b565b6124848185612f76565b9350612494818560208601613119565b80840191505092915050565b60006124ad603483612f65565b91507f455243313135353a207472616e7366657220746f206e6f6e204552433131353560008301527f526563656976657220696d706c656d656e7465720000000000000000000000006020830152604082019050919050565b6000612513602883612f65565b91507f455243313135353a204552433131353552656365697665722072656a6563746560008301527f6420746f6b656e730000000000000000000000000000000000000000000000006020830152604082019050919050565b6000612579602b83612f65565b91507f455243313135353a2062616c616e636520717565727920666f7220746865207a60008301527f65726f20616464726573730000000000000000000000000000000000000000006020830152604082019050919050565b60006125df602683612f65565b91507f4f776e61626c653a206e6577206f776e657220697320746865207a65726f206160008301527f64647265737300000000000000000000000000000000000000000000000000006020830152604082019050919050565b6000612645602983612f65565b91507f455243313135353a2063616c6c6572206973206e6f74206f776e6572206e6f7260008301527f20617070726f76656400000000000000000000000000000000000000000000006020830152604082019050919050565b60006126ab601d83612f65565b91507f496e73756666696369656e74206f66662d636861696e20706f696e74730000006000830152602082019050919050565b60006126eb601783612f65565b91507f546f6b656e20494420646f6573206e6f742065786973740000000000000000006000830152602082019050919050565b600061272b602583612f65565b91507f455243313135353a207472616e7366657220746f20746865207a65726f20616460008301527f64726573730000000000000000000000000000000000000000000000000000006020830152604082019050919050565b6000612791603283612f65565b91507f455243313135353a207472616e736665722063616c6c6572206973206e6f742060008301527f6f776e6572206e6f7220617070726f76656400000000000000000000000000006020830152604082019050919050565b60006127f7602a83612f65565b91507f455243313135353a20696e73756666696369656e742062616c616e636520666f60008301527f72207472616e73666572000000000000000000000000000000000000000000006020830152604082019050919050565b600061285d600583612f76565b91507f2e6a736f6e0000000000000000000000000000000000000000000000000000006000830152600582019050919050565b600061289d602083612f65565b91507f4f776e61626c653a2063616c6c6572206973206e6f7420746865206f776e65726000830152602082019050919050565b60006128dd602983612f65565b91507f455243313135353a2073657474696e6720617070726f76616c2073746174757360008301527f20666f722073656c6600000000000000000000000000000000000000000000006020830152604082019050919050565b6000612943602983612f65565b91507f455243313135353a206163636f756e747320616e6420696473206c656e67746860008301527f206d69736d6174636800000000000000000000000000000000000000000000006020830152604082019050919050565b60006129a9602883612f65565b91507f455243313135353a2069647320616e6420616d6f756e7473206c656e6774682060008301527f6d69736d617463680000000000000000000000000000000000000000000000006020830152604082019050919050565b6000612a0f602183612f65565b91507f455243313135353a206d696e7420746f20746865207a65726f2061646472657360008301527f73000000000000000000000000000000000000000000000000000000000000006020830152604082019050919050565b612a7181613100565b82525050565b612a8081613100565b82525050565b6000612a92828561246f565b9150612a9e828461246f565b9150612aa982612850565b91508190509392505050565b6000602082019050612aca6000830184612381565b92915050565b600060a082019050612ae56000830188612381565b612af26020830187612381565b8181036040830152612b048186612390565b90508181036060830152612b188185612390565b90508181036080830152612b2c81846123fd565b90509695505050505050565b600060a082019050612b4d6000830188612381565b612b5a6020830187612381565b612b676040830186612a77565b612b746060830185612a77565b8181036080830152612b8681846123fd565b90509695505050505050565b60006020820190508181036000830152612bac8184612390565b905092915050565b60006040820190508181036000830152612bce8185612390565b90508181036020830152612be28184612390565b90509392505050565b6000602082019050612c0060008301846123ee565b92915050565b60006020820190508181036000830152612c208184612436565b905092915050565b60006020820190508181036000830152612c41816124a0565b9050919050565b60006020820190508181036000830152612c6181612506565b9050919050565b60006020820190508181036000830152612c818161256c565b9050919050565b60006020820190508181036000830152612ca1816125d2565b9050919050565b60006020820190508181036000830152612cc181612638565b9050919050565b60006020820190508181036000830152612ce18161269e565b9050919050565b60006020820190508181036000830152612d01816126de565b9050919050565b60006020820190508181036000830152612d218161271e565b9050919050565b60006020820190508181036000830152612d4181612784565b9050919050565b60006020820190508181036000830152612d61816127ea565b9050919050565b60006020820190508181036000830152612d8181612890565b9050919050565b60006020820190508181036000830152612da1816128d0565b9050919050565b60006020820190508181036000830152612dc181612936565b9050919050565b60006020820190508181036000830152612de18161299c565b9050919050565b60006020820190508181036000830152612e0181612a02565b9050919050565b6000602082019050612e1d6000830184612a77565b92915050565b6000604082019050612e386000830185612a77565b612e456020830184612a77565b9392505050565b6000604051905081810181811067ffffffffffffffff82111715612e7357612e72613285565b5b8060405250919050565b600067ffffffffffffffff821115612e9857612e97613285565b5b602082029050602081019050919050565b600067ffffffffffffffff821115612ec457612ec3613285565b5b602082029050602081019050919050565b600067ffffffffffffffff821115612ef057612eef613285565b5b601f19601f8301169050602081019050919050565b6000819050602082019050919050565b600081519050919050565b600081519050919050565b600081519050919050565b6000602082019050919050565b600082825260208201905092915050565b600082825260208201905092915050565b600082825260208201905092915050565b600081905092915050565b6000612f8c82613100565b9150612f9783613100565b9250827fffffffffffffffffffffffffffffffffffffffffffffffffffffffffffffffff03821115612fcc57612fcb6131f8565b5b828201905092915050565b6000612fe282613100565b9150612fed83613100565b925082612ffd57612ffc613227565b5b828204905092915050565b600061301382613100565b915061301e83613100565b9250817fffffffffffffffffffffffffffffffffffffffffffffffffffffffffffffffff0483118215151615613057576130566131f8565b5b828202905092915050565b600061306d82613100565b915061307883613100565b92508282101561308b5761308a6131f8565b5b828203905092915050565b60006130a1826130e0565b9050919050565b60008115159050919050565b60007fffffffff0000000000000000000000000000000000000000000000000000000082169050919050565b600073ffffffffffffffffffffffffffffffffffffffff82169050919050565b6000819050919050565b82818337600083830152505050565b60005b8381101561313757808201518184015260208101905061311c565b83811115613146576000848401525b50505050565b6000600282049050600182168061316457607f821691505b6020821081141561317857613177613256565b5b50919050565b600061318982613100565b91507fffffffffffffffffffffffffffffffffffffffffffffffffffffffffffffffff8214156131bc576131bb6131f8565b5b600182019050919050565b60006131d282613100565b91506131dd83613100565b9250826131ed576131ec613227565b5b828206905092915050565b7f4e487b7100000000000000000000000000000000000000000000000000000000600052601160045260246000fd5b7f4e487b7100000000000000000000000000000000000000000000000000000000600052601260045260246000fd5b7f4e487b7100000000000000000000000000000000000000000000000000000000600052602260045260246000fd5b7f4e487b7100000000000000000000000000000000000000000000000000000000600052604160045260246000fd5b6000601f19601f8301169050919050565b60008160e01c9050919050565b600060443d10156132e257613385565b60046000803e6132f36000516132c5565b6308c379a081146133045750613385565b60405160043d036004823e80513d602482011167ffffffffffffffff8211171561333057505050613385565b808201805167ffffffffffffffff81111561334f575050505050613385565b8060208301013d850181111561336a57505050505050613385565b613373826132b4565b60208401016040528296505050505050505b90565b61339181613096565b811461339c57600080fd5b50565b6133a8816130a8565b81146133b357600080fd5b50565b6133bf816130b4565b81146133ca57600080fd5b50565b6133d681613100565b81146133e157600080fd5b5056fea26469706673582212207e1081d03c8adb8e3f7e412102e336b6e3d5df20947793ebdad8ab390c7eb98564736f6c63430008000033",
  "immutableReferences": {},
  "source": "// SPDX-License-Identifier: MIT\r\npragma solidity ^0.8.0;\r\n\r\nimport \"@openzeppelin/contracts/token/ERC1155/ERC1155.sol\";\r\nimport \"@openzeppelin/contracts/access/Ownable.sol\";\r\nimport \"@openzeppelin/contracts/utils/Strings.sol\";\r\n\r\ncontract SDVDiscountNFT is ERC1155, Ownable {\r\n    using Strings for uint256;\r\n\r\n    uint256 private nextTokenId = 1; \r\n\r\n    event NFTMinted(uint256 indexed tokenId, uint256 price);\r\n    event NFTPurchased(address indexed buyer, uint256 indexed tokenId, uint256 amount, uint256 price);\r\n\r\n    constructor(string memory baseTokenURI) ERC1155(baseTokenURI) {}\r\n\r\n    function mint(uint256 initialSupply, uint256 price) external onlyOwner {\r\n        uint256 tokenId = nextTokenId++;\r\n        _mint(owner(), tokenId, initialSupply, \"\");\r\n\r\n        emit NFTMinted(tokenId, price);\r\n    }\r\n\r\n    function purchaseNFTWithPoints(uint256 tokenId, uint256 amount, uint256 offchainPoints, uint256 price) external {\r\n        require(tokenId < nextTokenId, \"Token ID does not exist\");\r\n        require(offchainPoints >= price * amount, \"Insufficient off-chain points\");\r\n        safeTransferFrom(owner(), msg.sender, tokenId, amount, \"\");\r\n\r\n        emit NFTPurchased(msg.sender, tokenId, amount, price);\r\n    }\r\n\r\n    function tokenURI(uint256 tokenId) external view returns (string memory) {\r\n        require(tokenId < nextTokenId, \"Token ID does not exist\");\r\n        return string(abi.encodePacked(uri(tokenId), tokenId.toString(), \".json\"));\r\n    }\r\n}\r\n\r\n",
  "sourcePath": "C:\\Users\\i\\Documents\\GitHub\\DSP-old\\contracts\\contracts\\SDVDiscountNFT.sol",
  "compiler": {
    "name": "solc",
    "version": "0.8.0+commit.c7dfd78e.Emscripten.clang"
  },
  "schemaVersion": "3.4.16",
  "updatedAt": "2024-03-06T08:36:31.098Z",
  "networkType": "ethereum",
  "devdoc": {
    "kind": "dev",
    "methods": {
      "balanceOf(address,uint256)": {
        "details": "See {IERC1155-balanceOf}. Requirements: - `account` cannot be the zero address."
      },
      "balanceOfBatch(address[],uint256[])": {
        "details": "See {IERC1155-balanceOfBatch}. Requirements: - `accounts` and `ids` must have the same length."
      },
      "isApprovedForAll(address,address)": {
        "details": "See {IERC1155-isApprovedForAll}."
      },
      "owner()": {
        "details": "Returns the address of the current owner."
      },
      "renounceOwnership()": {
        "details": "Leaves the contract without owner. It will not be possible to call `onlyOwner` functions anymore. Can only be called by the current owner. NOTE: Renouncing ownership will leave the contract without an owner, thereby removing any functionality that is only available to the owner."
      },
      "safeBatchTransferFrom(address,address,uint256[],uint256[],bytes)": {
        "details": "See {IERC1155-safeBatchTransferFrom}."
      },
      "safeTransferFrom(address,address,uint256,uint256,bytes)": {
        "details": "See {IERC1155-safeTransferFrom}."
      },
      "setApprovalForAll(address,bool)": {
        "details": "See {IERC1155-setApprovalForAll}."
      },
      "supportsInterface(bytes4)": {
        "details": "See {IERC165-supportsInterface}."
      },
      "transferOwnership(address)": {
        "details": "Transfers ownership of the contract to a new account (`newOwner`). Can only be called by the current owner."
      },
      "uri(uint256)": {
        "details": "See {IERC1155MetadataURI-uri}. This implementation returns the same URI for *all* token types. It relies on the token type ID substitution mechanism https://eips.ethereum.org/EIPS/eip-1155#metadata[defined in the EIP]. Clients calling this function must replace the `\\{id\\}` substring with the actual token type ID."
      }
    },
    "version": 1
  },
  "userdoc": {
    "kind": "user",
    "methods": {},
    "version": 1
  }
}