{
  "contractName": "SDVDiscountNFT",
  "abi": [
    {
      "inputs": [
        {
          "internalType": "address",
          "name": "_SDVToken",
          "type": "address"
        },
        {
          "internalType": "string",
          "name": "baseTokenURI",
          "type": "string"
        }
      ],
      "stateMutability": "nonpayable",
      "type": "constructor"
    },
    {
      "anonymous": false,
      "inputs": [
        {
          "indexed": true,
          "internalType": "address",
          "name": "owner",
          "type": "address"
        },
        {
          "indexed": true,
          "internalType": "address",
          "name": "approved",
          "type": "address"
        },
        {
          "indexed": true,
          "internalType": "uint256",
          "name": "tokenId",
          "type": "uint256"
        }
      ],
      "name": "Approval",
      "type": "event"
    },
    {
      "anonymous": false,
      "inputs": [
        {
          "indexed": true,
          "internalType": "address",
          "name": "owner",
          "type": "address"
        },
        {
          "indexed": true,
          "internalType": "address",
          "name": "operator",
          "type": "address"
        },
        {
          "indexed": false,
          "internalType": "bool",
          "name": "approved",
          "type": "bool"
        }
      ],
      "name": "ApprovalForAll",
      "type": "event"
    },
    {
      "anonymous": false,
      "inputs": [
        {
          "indexed": true,
          "internalType": "address",
          "name": "previousOwner",
          "type": "address"
        },
        {
          "indexed": true,
          "internalType": "address",
          "name": "newOwner",
          "type": "address"
        }
      ],
      "name": "OwnershipTransferred",
      "type": "event"
    },
    {
      "anonymous": false,
      "inputs": [
        {
          "indexed": true,
          "internalType": "address",
          "name": "from",
          "type": "address"
        },
        {
          "indexed": true,
          "internalType": "address",
          "name": "to",
          "type": "address"
        },
        {
          "indexed": true,
          "internalType": "uint256",
          "name": "tokenId",
          "type": "uint256"
        }
      ],
      "name": "Transfer",
      "type": "event"
    },
    {
      "inputs": [],
      "name": "SDVToken",
      "outputs": [
        {
          "internalType": "contract IERC20",
          "name": "",
          "type": "address"
        }
      ],
      "stateMutability": "view",
      "type": "function",
      "constant": true
    },
    {
      "inputs": [
        {
          "internalType": "address",
          "name": "to",
          "type": "address"
        },
        {
          "internalType": "uint256",
          "name": "tokenId",
          "type": "uint256"
        }
      ],
      "name": "approve",
      "outputs": [],
      "stateMutability": "nonpayable",
      "type": "function"
    },
    {
      "inputs": [
        {
          "internalType": "address",
          "name": "owner",
          "type": "address"
        }
      ],
      "name": "balanceOf",
      "outputs": [
        {
          "internalType": "uint256",
          "name": "",
          "type": "uint256"
        }
      ],
      "stateMutability": "view",
      "type": "function",
      "constant": true
    },
    {
      "inputs": [
        {
          "internalType": "uint256",
          "name": "tokenId",
          "type": "uint256"
        }
      ],
      "name": "getApproved",
      "outputs": [
        {
          "internalType": "address",
          "name": "",
          "type": "address"
        }
      ],
      "stateMutability": "view",
      "type": "function",
      "constant": true
    },
    {
      "inputs": [
        {
          "internalType": "address",
          "name": "owner",
          "type": "address"
        },
        {
          "internalType": "address",
          "name": "operator",
          "type": "address"
        }
      ],
      "name": "isApprovedForAll",
      "outputs": [
        {
          "internalType": "bool",
          "name": "",
          "type": "bool"
        }
      ],
      "stateMutability": "view",
      "type": "function",
      "constant": true
    },
    {
      "inputs": [],
      "name": "name",
      "outputs": [
        {
          "internalType": "string",
          "name": "",
          "type": "string"
        }
      ],
      "stateMutability": "view",
      "type": "function",
      "constant": true
    },
    {
      "inputs": [
        {
          "internalType": "uint256",
          "name": "",
          "type": "uint256"
        }
      ],
      "name": "nftPrice",
      "outputs": [
        {
          "internalType": "uint256",
          "name": "",
          "type": "uint256"
        }
      ],
      "stateMutability": "view",
      "type": "function",
      "constant": true
    },
    {
      "inputs": [],
      "name": "owner",
      "outputs": [
        {
          "internalType": "address",
          "name": "",
          "type": "address"
        }
      ],
      "stateMutability": "view",
      "type": "function",
      "constant": true
    },
    {
      "inputs": [
        {
          "internalType": "uint256",
          "name": "tokenId",
          "type": "uint256"
        }
      ],
      "name": "ownerOf",
      "outputs": [
        {
          "internalType": "address",
          "name": "",
          "type": "address"
        }
      ],
      "stateMutability": "view",
      "type": "function",
      "constant": true
    },
    {
      "inputs": [],
      "name": "renounceOwnership",
      "outputs": [],
      "stateMutability": "nonpayable",
      "type": "function"
    },
    {
      "inputs": [
        {
          "internalType": "address",
          "name": "from",
          "type": "address"
        },
        {
          "internalType": "address",
          "name": "to",
          "type": "address"
        },
        {
          "internalType": "uint256",
          "name": "tokenId",
          "type": "uint256"
        }
      ],
      "name": "safeTransferFrom",
      "outputs": [],
      "stateMutability": "nonpayable",
      "type": "function"
    },
    {
      "inputs": [
        {
          "internalType": "address",
          "name": "from",
          "type": "address"
        },
        {
          "internalType": "address",
          "name": "to",
          "type": "address"
        },
        {
          "internalType": "uint256",
          "name": "tokenId",
          "type": "uint256"
        },
        {
          "internalType": "bytes",
          "name": "_data",
          "type": "bytes"
        }
      ],
      "name": "safeTransferFrom",
      "outputs": [],
      "stateMutability": "nonpayable",
      "type": "function"
    },
    {
      "inputs": [
        {
          "internalType": "address",
          "name": "operator",
          "type": "address"
        },
        {
          "internalType": "bool",
          "name": "approved",
          "type": "bool"
        }
      ],
      "name": "setApprovalForAll",
      "outputs": [],
      "stateMutability": "nonpayable",
      "type": "function"
    },
    {
      "inputs": [
        {
          "internalType": "bytes4",
          "name": "interfaceId",
          "type": "bytes4"
        }
      ],
      "name": "supportsInterface",
      "outputs": [
        {
          "internalType": "bool",
          "name": "",
          "type": "bool"
        }
      ],
      "stateMutability": "view",
      "type": "function",
      "constant": true
    },
    {
      "inputs": [],
      "name": "symbol",
      "outputs": [
        {
          "internalType": "string",
          "name": "",
          "type": "string"
        }
      ],
      "stateMutability": "view",
      "type": "function",
      "constant": true
    },
    {
      "inputs": [
        {
          "internalType": "address",
          "name": "from",
          "type": "address"
        },
        {
          "internalType": "address",
          "name": "to",
          "type": "address"
        },
        {
          "internalType": "uint256",
          "name": "tokenId",
          "type": "uint256"
        }
      ],
      "name": "transferFrom",
      "outputs": [],
      "stateMutability": "nonpayable",
      "type": "function"
    },
    {
      "inputs": [
        {
          "internalType": "address",
          "name": "newOwner",
          "type": "address"
        }
      ],
      "name": "transferOwnership",
      "outputs": [],
      "stateMutability": "nonpayable",
      "type": "function"
    },
    {
      "inputs": [
        {
          "internalType": "string",
          "name": "baseTokenURI",
          "type": "string"
        }
      ],
      "name": "setBaseTokenURI",
      "outputs": [],
      "stateMutability": "nonpayable",
      "type": "function"
    },
    {
      "inputs": [
        {
          "internalType": "uint256",
          "name": "tokenId",
          "type": "uint256"
        },
        {
          "internalType": "uint256",
          "name": "_nftPrice",
          "type": "uint256"
        }
      ],
      "name": "mint",
      "outputs": [],
      "stateMutability": "nonpayable",
      "type": "function"
    },
    {
      "inputs": [
        {
          "internalType": "uint256",
          "name": "tokenId",
          "type": "uint256"
        }
      ],
      "name": "purchaseNFT",
      "outputs": [],
      "stateMutability": "nonpayable",
      "type": "function"
    },
    {
      "inputs": [
        {
          "internalType": "uint256",
          "name": "tokenId",
          "type": "uint256"
        }
      ],
      "name": "getNFTPrice",
      "outputs": [
        {
          "internalType": "uint256",
          "name": "",
          "type": "uint256"
        }
      ],
      "stateMutability": "view",
      "type": "function",
      "constant": true
    },
    {
      "inputs": [
        {
          "internalType": "uint256",
          "name": "tokenId",
          "type": "uint256"
        },
        {
          "internalType": "uint256",
          "name": "newNFTPrice",
          "type": "uint256"
        }
      ],
      "name": "setNFTPrice",
      "outputs": [],
      "stateMutability": "nonpayable",
      "type": "function"
    },
    {
      "inputs": [
        {
          "internalType": "uint256",
          "name": "tokenId",
          "type": "uint256"
        }
      ],
      "name": "tokenURI",
      "outputs": [
        {
          "internalType": "string",
          "name": "",
          "type": "string"
        }
      ],
      "stateMutability": "view",
      "type": "function",
      "constant": true
    },
    {
      "inputs": [],
      "name": "getAllMintedNFTs",
      "outputs": [
        {
          "internalType": "uint256[]",
          "name": "",
          "type": "uint256[]"
        }
      ],
      "stateMutability": "view",
      "type": "function",
      "constant": true
    },
    {
      "inputs": [
        {
          "internalType": "address",
          "name": "user",
          "type": "address"
        }
      ],
      "name": "getOwnedNFTs",
      "outputs": [
        {
          "internalType": "uint256[]",
          "name": "",
          "type": "uint256[]"
        }
      ],
      "stateMutability": "view",
      "type": "function",
      "constant": true
    }
  ],
  "bytecode": "0x60806040523480156200001157600080fd5b5060405162003fdf38038062003fdf83398181016040528101906200003791906200032b565b6040518060400160405280600681526020017f5344564e465400000000000000000000000000000000000000000000000000008152506040518060400160405280600481526020017f5344564e000000000000000000000000000000000000000000000000000000008152508160009080519060200190620000bb929190620001f2565b508060019080519060200190620000d4929190620001f2565b5050506000620000e9620001ea60201b60201c565b905080600760006101000a81548173ffffffffffffffffffffffffffffffffffffffff021916908373ffffffffffffffffffffffffffffffffffffffff1602179055508073ffffffffffffffffffffffffffffffffffffffff16600073ffffffffffffffffffffffffffffffffffffffff167f8be0079c531659141344cd1fd0a4f28419497f9722a3daafe3b4186f6b6457e060405160405180910390a35081600860006101000a81548173ffffffffffffffffffffffffffffffffffffffff021916908373ffffffffffffffffffffffffffffffffffffffff1602179055508060099080519060200190620001e1929190620001f2565b50505062000504565b600033905090565b828054620002009062000456565b90600052602060002090601f01602090048101928262000224576000855562000270565b82601f106200023f57805160ff191683800117855562000270565b8280016001018555821562000270579182015b828111156200026f57825182559160200191906001019062000252565b5b5090506200027f919062000283565b5090565b5b808211156200029e57600081600090555060010162000284565b5090565b6000620002b9620002b384620003b9565b62000385565b905082815260208101848484011115620002d257600080fd5b620002df84828562000420565b509392505050565b600081519050620002f881620004ea565b92915050565b600082601f8301126200031057600080fd5b815162000322848260208601620002a2565b91505092915050565b600080604083850312156200033f57600080fd5b60006200034f85828601620002e7565b925050602083015167ffffffffffffffff8111156200036d57600080fd5b6200037b85828601620002fe565b9150509250929050565b6000604051905081810181811067ffffffffffffffff82111715620003af57620003ae620004bb565b5b8060405250919050565b600067ffffffffffffffff821115620003d757620003d6620004bb565b5b601f19601f8301169050602081019050919050565b6000620003f98262000400565b9050919050565b600073ffffffffffffffffffffffffffffffffffffffff82169050919050565b60005b838110156200044057808201518184015260208101905062000423565b8381111562000450576000848401525b50505050565b600060028204905060018216806200046f57607f821691505b602082108114156200048657620004856200048c565b5b50919050565b7f4e487b7100000000000000000000000000000000000000000000000000000000600052602260045260246000fd5b7f4e487b7100000000000000000000000000000000000000000000000000000000600052604160045260246000fd5b620004f581620003ec565b81146200050157600080fd5b50565b613acb80620005146000396000f3fe608060405234801561001057600080fd5b50600436106101735760003560e01c806370a08231116100de578063b88d4fde11610097578063e740655811610071578063e74065581461045a578063e985e9c514610476578063ef72c2b6146104a6578063f2fde38b146104c457610173565b8063b88d4fde146103f0578063c87b56dd1461040c578063db761fca1461043c57610173565b806370a082311461032e578063715018a61461035e5780638da5cb5b14610368578063929761791461038657806395d89b41146103b6578063a22cb465146103d457610173565b80631b2ef1ca116101305780631b2ef1ca1461025e57806323b872dd1461027a57806330176e131461029657806342842e0e146102b25780636352211e146102ce5780636de29914146102fe57610173565b806301ffc9a71461017857806306fdde03146101a8578063081812fc146101c6578063095ea7b3146101f6578063150bde031461021257806318148f1b1461022e575b600080fd5b610192600480360381019061018d91906127d4565b6104e0565b60405161019f9190613316565b60405180910390f35b6101b06105c2565b6040516101bd919061334c565b60405180910390f35b6101e060048036038101906101db9190612867565b610654565b6040516101ed9190613256565b60405180910390f35b610210600480360381019061020b919061276f565b6106d9565b005b61022c60048036038101906102279190612867565b6107f1565b005b61024860048036038101906102439190612604565b610915565b60405161025591906132f4565b60405180910390f35b61027860048036038101906102739190612890565b610aad565b005b610294600480360381019061028f9190612669565b610bee565b005b6102b060048036038101906102ab9190612826565b610c4e565b005b6102cc60048036038101906102c79190612669565b610ce4565b005b6102e860048036038101906102e39190612867565b610d04565b6040516102f59190613256565b60405180910390f35b61031860048036038101906103139190612867565b610db6565b60405161032591906135ee565b60405180910390f35b61034860048036038101906103439190612604565b610dce565b60405161035591906135ee565b60405180910390f35b610366610e86565b005b610370610fc3565b60405161037d9190613256565b60405180910390f35b6103a0600480360381019061039b9190612867565b610fed565b6040516103ad91906135ee565b60405180910390f35b6103be611052565b6040516103cb919061334c565b60405180910390f35b6103ee60048036038101906103e99190612733565b6110e4565b005b61040a600480360381019061040591906126b8565b611265565b005b61042660048036038101906104219190612867565b6112c7565b604051610433919061334c565b60405180910390f35b610444611321565b60405161045191906132f4565b60405180910390f35b610474600480360381019061046f9190612890565b611379565b005b610490600480360381019061048b919061262d565b611459565b60405161049d9190613316565b60405180910390f35b6104ae6114ed565b6040516104bb9190613331565b60405180910390f35b6104de60048036038101906104d99190612604565b611513565b005b60007f80ac58cd000000000000000000000000000000000000000000000000000000007bffffffffffffffffffffffffffffffffffffffffffffffffffffffff1916827bffffffffffffffffffffffffffffffffffffffffffffffffffffffff191614806105ab57507f5b5e139f000000000000000000000000000000000000000000000000000000007bffffffffffffffffffffffffffffffffffffffffffffffffffffffff1916827bffffffffffffffffffffffffffffffffffffffffffffffffffffffff1916145b806105bb57506105ba826116bf565b5b9050919050565b6060600080546105d1906138c0565b80601f01602080910402602001604051908101604052809291908181526020018280546105fd906138c0565b801561064a5780601f1061061f5761010080835404028352916020019161064a565b820191906000526020600020905b81548152906001019060200180831161062d57829003601f168201915b5050505050905090565b600061065f82611729565b61069e576040517f08c379a00000000000000000000000000000000000000000000000000000000081526004016106959061350e565b60405180910390fd5b6004600083815260200190815260200160002060009054906101000a900473ffffffffffffffffffffffffffffffffffffffff169050919050565b60006106e482610d04565b90508073ffffffffffffffffffffffffffffffffffffffff168373ffffffffffffffffffffffffffffffffffffffff161415610755576040517f08c379a000000000000000000000000000000000000000000000000000000000815260040161074c9061358e565b60405180910390fd5b8073ffffffffffffffffffffffffffffffffffffffff16610774611795565b73ffffffffffffffffffffffffffffffffffffffff1614806107a357506107a28161079d611795565b611459565b5b6107e2576040517f08c379a00000000000000000000000000000000000000000000000000000000081526004016107d99061344e565b60405180910390fd5b6107ec838361179d565b505050565b6107fa81611729565b610839576040517f08c379a00000000000000000000000000000000000000000000000000000000081526004016108309061340e565b60405180910390fd5b600061084482610fed565b9050600860009054906101000a900473ffffffffffffffffffffffffffffffffffffffff1673ffffffffffffffffffffffffffffffffffffffff166323b872dd3361088d610fc3565b846040518463ffffffff1660e01b81526004016108ac93929190613271565b602060405180830381600087803b1580156108c657600080fd5b505af11580156108da573d6000803e3d6000fd5b505050506040513d601f19601f820116820180604052508101906108fe91906127ab565b5061091161090a610fc3565b3384611856565b5050565b6060600061092283610dce565b67ffffffffffffffff811115610961577f4e487b7100000000000000000000000000000000000000000000000000000000600052604160045260246000fd5b60405190808252806020026020018201604052801561098f5781602001602082028036833780820191505090505b5090506000805b600a80549050811015610aa2576000600a82815481106109df577f4e487b7100000000000000000000000000000000000000000000000000000000600052603260045260246000fd5b906000526020600020015490506109f581611729565b8015610a3457508573ffffffffffffffffffffffffffffffffffffffff16610a1c82610d04565b73ffffffffffffffffffffffffffffffffffffffff16145b15610a8e5780848481518110610a73577f4e487b7100000000000000000000000000000000000000000000000000000000600052603260045260246000fd5b6020026020010181815250508280610a8a906138f2565b9350505b508080610a9a906138f2565b915050610996565b508192505050919050565b610ab5611795565b73ffffffffffffffffffffffffffffffffffffffff16610ad3610fc3565b73ffffffffffffffffffffffffffffffffffffffff1614610b29576040517f08c379a0000000000000000000000000000000000000000000000000000000008152600401610b209061352e565b60405180910390fd5b610b3282611729565b15610b72576040517f08c379a0000000000000000000000000000000000000000000000000000000008152600401610b69906135ce565b60405180910390fd5b610b83610b7d610fc3565b83611ab2565b600a829080600181540180825580915050600190039060005260206000200160009091909190915055610bb68282611379565b610bea826009610bc585611ad0565b604051602001610bd6929190613227565b604051602081830303815290604052611c7d565b5050565b610bff610bf9611795565b82611cf1565b610c3e576040517f08c379a0000000000000000000000000000000000000000000000000000000008152600401610c35906135ae565b60405180910390fd5b610c49838383611856565b505050565b610c56611795565b73ffffffffffffffffffffffffffffffffffffffff16610c74610fc3565b73ffffffffffffffffffffffffffffffffffffffff1614610cca576040517f08c379a0000000000000000000000000000000000000000000000000000000008152600401610cc19061352e565b60405180910390fd5b8060099080519060200190610ce0929190612413565b5050565b610cff83838360405180602001604052806000815250611265565b505050565b6000806002600084815260200190815260200160002060009054906101000a900473ffffffffffffffffffffffffffffffffffffffff169050600073ffffffffffffffffffffffffffffffffffffffff168173ffffffffffffffffffffffffffffffffffffffff161415610dad576040517f08c379a0000000000000000000000000000000000000000000000000000000008152600401610da49061348e565b60405180910390fd5b80915050919050565b600b6020528060005260406000206000915090505481565b60008073ffffffffffffffffffffffffffffffffffffffff168273ffffffffffffffffffffffffffffffffffffffff161415610e3f576040517f08c379a0000000000000000000000000000000000000000000000000000000008152600401610e369061346e565b60405180910390fd5b600360008373ffffffffffffffffffffffffffffffffffffffff1673ffffffffffffffffffffffffffffffffffffffff168152602001908152602001600020549050919050565b610e8e611795565b73ffffffffffffffffffffffffffffffffffffffff16610eac610fc3565b73ffffffffffffffffffffffffffffffffffffffff1614610f02576040517f08c379a0000000000000000000000000000000000000000000000000000000008152600401610ef99061352e565b60405180910390fd5b600073ffffffffffffffffffffffffffffffffffffffff16600760009054906101000a900473ffffffffffffffffffffffffffffffffffffffff1673ffffffffffffffffffffffffffffffffffffffff167f8be0079c531659141344cd1fd0a4f28419497f9722a3daafe3b4186f6b6457e060405160405180910390a36000600760006101000a81548173ffffffffffffffffffffffffffffffffffffffff021916908373ffffffffffffffffffffffffffffffffffffffff160217905550565b6000600760009054906101000a900473ffffffffffffffffffffffffffffffffffffffff16905090565b6000610ff882611729565b611037576040517f08c379a000000000000000000000000000000000000000000000000000000000815260040161102e9061340e565b60405180910390fd5b600b6000838152602001908152602001600020549050919050565b606060018054611061906138c0565b80601f016020809104026020016040519081016040528092919081815260200182805461108d906138c0565b80156110da5780601f106110af576101008083540402835291602001916110da565b820191906000526020600020905b8154815290600101906020018083116110bd57829003601f168201915b5050505050905090565b6110ec611795565b73ffffffffffffffffffffffffffffffffffffffff168273ffffffffffffffffffffffffffffffffffffffff16141561115a576040517f08c379a0000000000000000000000000000000000000000000000000000000008152600401611151906133ee565b60405180910390fd5b8060056000611167611795565b73ffffffffffffffffffffffffffffffffffffffff1673ffffffffffffffffffffffffffffffffffffffff16815260200190815260200160002060008473ffffffffffffffffffffffffffffffffffffffff1673ffffffffffffffffffffffffffffffffffffffff16815260200190815260200160002060006101000a81548160ff0219169083151502179055508173ffffffffffffffffffffffffffffffffffffffff16611214611795565b73ffffffffffffffffffffffffffffffffffffffff167f17307eab39ab6107e8899845ad3d59bd9653f200f220920489ca2b5937696c31836040516112599190613316565b60405180910390a35050565b611276611270611795565b83611cf1565b6112b5576040517f08c379a00000000000000000000000000000000000000000000000000000000081526004016112ac906135ae565b60405180910390fd5b6112c184848484611dcf565b50505050565b60606112d282611729565b611311576040517f08c379a00000000000000000000000000000000000000000000000000000000081526004016113089061340e565b60405180910390fd5b61131a82611e2b565b9050919050565b6060600a80548060200260200160405190810160405280929190818152602001828054801561136f57602002820191906000526020600020905b81548152602001906001019080831161135b575b5050505050905090565b611381611795565b73ffffffffffffffffffffffffffffffffffffffff1661139f610fc3565b73ffffffffffffffffffffffffffffffffffffffff16146113f5576040517f08c379a00000000000000000000000000000000000000000000000000000000081526004016113ec9061352e565b60405180910390fd5b6113fe82611729565b61143d576040517f08c379a00000000000000000000000000000000000000000000000000000000081526004016114349061340e565b60405180910390fd5b80600b6000848152602001908152602001600020819055505050565b6000600560008473ffffffffffffffffffffffffffffffffffffffff1673ffffffffffffffffffffffffffffffffffffffff16815260200190815260200160002060008373ffffffffffffffffffffffffffffffffffffffff1673ffffffffffffffffffffffffffffffffffffffff16815260200190815260200160002060009054906101000a900460ff16905092915050565b600860009054906101000a900473ffffffffffffffffffffffffffffffffffffffff1681565b61151b611795565b73ffffffffffffffffffffffffffffffffffffffff16611539610fc3565b73ffffffffffffffffffffffffffffffffffffffff161461158f576040517f08c379a00000000000000000000000000000000000000000000000000000000081526004016115869061352e565b60405180910390fd5b600073ffffffffffffffffffffffffffffffffffffffff168173ffffffffffffffffffffffffffffffffffffffff1614156115ff576040517f08c379a00000000000000000000000000000000000000000000000000000000081526004016115f69061338e565b60405180910390fd5b8073ffffffffffffffffffffffffffffffffffffffff16600760009054906101000a900473ffffffffffffffffffffffffffffffffffffffff1673ffffffffffffffffffffffffffffffffffffffff167f8be0079c531659141344cd1fd0a4f28419497f9722a3daafe3b4186f6b6457e060405160405180910390a380600760006101000a81548173ffffffffffffffffffffffffffffffffffffffff021916908373ffffffffffffffffffffffffffffffffffffffff16021790555050565b60007f01ffc9a7000000000000000000000000000000000000000000000000000000007bffffffffffffffffffffffffffffffffffffffffffffffffffffffff1916827bffffffffffffffffffffffffffffffffffffffffffffffffffffffff1916149050919050565b60008073ffffffffffffffffffffffffffffffffffffffff166002600084815260200190815260200160002060009054906101000a900473ffffffffffffffffffffffffffffffffffffffff1673ffffffffffffffffffffffffffffffffffffffff1614159050919050565b600033905090565b816004600083815260200190815260200160002060006101000a81548173ffffffffffffffffffffffffffffffffffffffff021916908373ffffffffffffffffffffffffffffffffffffffff160217905550808273ffffffffffffffffffffffffffffffffffffffff1661181083610d04565b73ffffffffffffffffffffffffffffffffffffffff167f8c5be1e5ebec7d5bd14f71427d1e84f3dd0314c0f7b2291e5b200ac8c7c3b92560405160405180910390a45050565b8273ffffffffffffffffffffffffffffffffffffffff1661187682610d04565b73ffffffffffffffffffffffffffffffffffffffff16146118cc576040517f08c379a00000000000000000000000000000000000000000000000000000000081526004016118c39061354e565b60405180910390fd5b600073ffffffffffffffffffffffffffffffffffffffff168273ffffffffffffffffffffffffffffffffffffffff16141561193c576040517f08c379a0000000000000000000000000000000000000000000000000000000008152600401611933906133ce565b60405180910390fd5b611947838383611f7d565b61195260008261179d565b6001600360008573ffffffffffffffffffffffffffffffffffffffff1673ffffffffffffffffffffffffffffffffffffffff16815260200190815260200160002060008282546119a291906137b2565b925050819055506001600360008473ffffffffffffffffffffffffffffffffffffffff1673ffffffffffffffffffffffffffffffffffffffff16815260200190815260200160002060008282546119f9919061372b565b92505081905550816002600083815260200190815260200160002060006101000a81548173ffffffffffffffffffffffffffffffffffffffff021916908373ffffffffffffffffffffffffffffffffffffffff160217905550808273ffffffffffffffffffffffffffffffffffffffff168473ffffffffffffffffffffffffffffffffffffffff167fddf252ad1be2c89b69c2b068fc378daa952ba7f163c4a11628f55a4df523b3ef60405160405180910390a4505050565b611acc828260405180602001604052806000815250611f82565b5050565b60606000821415611b18576040518060400160405280600181526020017f30000000000000000000000000000000000000000000000000000000000000008152509050611c78565b600082905060005b60008214611b4a578080611b33906138f2565b915050600a82611b439190613781565b9150611b20565b60008167ffffffffffffffff811115611b8c577f4e487b7100000000000000000000000000000000000000000000000000000000600052604160045260246000fd5b6040519080825280601f01601f191660200182016040528015611bbe5781602001600182028036833780820191505090505b5090505b60008514611c7157600182611bd791906137b2565b9150600a85611be6919061393b565b6030611bf2919061372b565b60f81b818381518110611c2e577f4e487b7100000000000000000000000000000000000000000000000000000000600052603260045260246000fd5b60200101907effffffffffffffffffffffffffffffffffffffffffffffffffffffffffffff1916908160001a905350600a85611c6a9190613781565b9450611bc2565b8093505050505b919050565b611c8682611729565b611cc5576040517f08c379a0000000000000000000000000000000000000000000000000000000008152600401611cbc906134ae565b60405180910390fd5b80600660008481526020019081526020016000209080519060200190611cec929190612413565b505050565b6000611cfc82611729565b611d3b576040517f08c379a0000000000000000000000000000000000000000000000000000000008152600401611d329061342e565b60405180910390fd5b6000611d4683610d04565b90508073ffffffffffffffffffffffffffffffffffffffff168473ffffffffffffffffffffffffffffffffffffffff161480611db557508373ffffffffffffffffffffffffffffffffffffffff16611d9d84610654565b73ffffffffffffffffffffffffffffffffffffffff16145b80611dc65750611dc58185611459565b5b91505092915050565b611dda848484611856565b611de684848484611fdd565b611e25576040517f08c379a0000000000000000000000000000000000000000000000000000000008152600401611e1c9061336e565b60405180910390fd5b50505050565b6060611e3682611729565b611e75576040517f08c379a0000000000000000000000000000000000000000000000000000000008152600401611e6c906134ee565b60405180910390fd5b6000600660008481526020019081526020016000208054611e95906138c0565b80601f0160208091040260200160405190810160405280929190818152602001828054611ec1906138c0565b8015611f0e5780601f10611ee357610100808354040283529160200191611f0e565b820191906000526020600020905b815481529060010190602001808311611ef157829003601f168201915b505050505090506000611f1f612174565b9050600081511415611f35578192505050611f78565b600082511115611f6a578082604051602001611f52929190613203565b60405160208183030381529060405292505050611f78565b611f738461218b565b925050505b919050565b505050565b611f8c8383612232565b611f996000848484611fdd565b611fd8576040517f08c379a0000000000000000000000000000000000000000000000000000000008152600401611fcf9061336e565b60405180910390fd5b505050565b6000611ffe8473ffffffffffffffffffffffffffffffffffffffff16612400565b15612167578373ffffffffffffffffffffffffffffffffffffffff1663150b7a02612027611795565b8786866040518563ffffffff1660e01b815260040161204994939291906132a8565b602060405180830381600087803b15801561206357600080fd5b505af192505050801561209457506040513d601f19601f8201168201806040525081019061209191906127fd565b60015b612117573d80600081146120c4576040519150601f19603f3d011682016040523d82523d6000602084013e6120c9565b606091505b5060008151141561210f576040517f08c379a00000000000000000000000000000000000000000000000000000000081526004016121069061336e565b60405180910390fd5b805181602001fd5b63150b7a0260e01b7bffffffffffffffffffffffffffffffffffffffffffffffffffffffff1916817bffffffffffffffffffffffffffffffffffffffffffffffffffffffff19161491505061216c565b600190505b949350505050565b606060405180602001604052806000815250905090565b606061219682611729565b6121d5576040517f08c379a00000000000000000000000000000000000000000000000000000000081526004016121cc9061356e565b60405180910390fd5b60006121df612174565b905060008151116121ff576040518060200160405280600081525061222a565b8061220984611ad0565b60405160200161221a929190613203565b6040516020818303038152906040525b915050919050565b600073ffffffffffffffffffffffffffffffffffffffff168273ffffffffffffffffffffffffffffffffffffffff1614156122a2576040517f08c379a0000000000000000000000000000000000000000000000000000000008152600401612299906134ce565b60405180910390fd5b6122ab81611729565b156122eb576040517f08c379a00000000000000000000000000000000000000000000000000000000081526004016122e2906133ae565b60405180910390fd5b6122f760008383611f7d565b6001600360008473ffffffffffffffffffffffffffffffffffffffff1673ffffffffffffffffffffffffffffffffffffffff1681526020019081526020016000206000828254612347919061372b565b92505081905550816002600083815260200190815260200160002060006101000a81548173ffffffffffffffffffffffffffffffffffffffff021916908373ffffffffffffffffffffffffffffffffffffffff160217905550808273ffffffffffffffffffffffffffffffffffffffff16600073ffffffffffffffffffffffffffffffffffffffff167fddf252ad1be2c89b69c2b068fc378daa952ba7f163c4a11628f55a4df523b3ef60405160405180910390a45050565b600080823b905060008111915050919050565b82805461241f906138c0565b90600052602060002090601f0160209004810192826124415760008555612488565b82601f1061245a57805160ff1916838001178555612488565b82800160010185558215612488579182015b8281111561248757825182559160200191906001019061246c565b5b5090506124959190612499565b5090565b5b808211156124b257600081600090555060010161249a565b5090565b60006124c96124c48461363a565b613609565b9050828152602081018484840111156124e157600080fd5b6124ec84828561387e565b509392505050565b60006125076125028461366a565b613609565b90508281526020810184848401111561251f57600080fd5b61252a84828561387e565b509392505050565b60008135905061254181613a39565b92915050565b60008135905061255681613a50565b92915050565b60008151905061256b81613a50565b92915050565b60008135905061258081613a67565b92915050565b60008151905061259581613a67565b92915050565b600082601f8301126125ac57600080fd5b81356125bc8482602086016124b6565b91505092915050565b600082601f8301126125d657600080fd5b81356125e68482602086016124f4565b91505092915050565b6000813590506125fe81613a7e565b92915050565b60006020828403121561261657600080fd5b600061262484828501612532565b91505092915050565b6000806040838503121561264057600080fd5b600061264e85828601612532565b925050602061265f85828601612532565b9150509250929050565b60008060006060848603121561267e57600080fd5b600061268c86828701612532565b935050602061269d86828701612532565b92505060406126ae868287016125ef565b9150509250925092565b600080600080608085870312156126ce57600080fd5b60006126dc87828801612532565b94505060206126ed87828801612532565b93505060406126fe878288016125ef565b925050606085013567ffffffffffffffff81111561271b57600080fd5b6127278782880161259b565b91505092959194509250565b6000806040838503121561274657600080fd5b600061275485828601612532565b925050602061276585828601612547565b9150509250929050565b6000806040838503121561278257600080fd5b600061279085828601612532565b92505060206127a1858286016125ef565b9150509250929050565b6000602082840312156127bd57600080fd5b60006127cb8482850161255c565b91505092915050565b6000602082840312156127e657600080fd5b60006127f484828501612571565b91505092915050565b60006020828403121561280f57600080fd5b600061281d84828501612586565b91505092915050565b60006020828403121561283857600080fd5b600082013567ffffffffffffffff81111561285257600080fd5b61285e848285016125c5565b91505092915050565b60006020828403121561287957600080fd5b6000612887848285016125ef565b91505092915050565b600080604083850312156128a357600080fd5b60006128b1858286016125ef565b92505060206128c2858286016125ef565b9150509250929050565b60006128d883836131e5565b60208301905092915050565b6128ed816137e6565b82525050565b60006128fe826136bf565b61290881856136ed565b93506129138361369a565b8060005b8381101561294457815161292b88826128cc565b9750612936836136e0565b925050600181019050612917565b5085935050505092915050565b61295a816137f8565b82525050565b600061296b826136ca565b61297581856136fe565b935061298581856020860161388d565b61298e81613a28565b840191505092915050565b6129a28161385a565b82525050565b60006129b3826136d5565b6129bd818561370f565b93506129cd81856020860161388d565b6129d681613a28565b840191505092915050565b60006129ec826136d5565b6129f68185613720565b9350612a0681856020860161388d565b80840191505092915050565b60008154612a1f816138c0565b612a298186613720565b94506001821660008114612a445760018114612a5557612a88565b60ff19831686528186019350612a88565b612a5e856136aa565b60005b83811015612a8057815481890152600182019150602081019050612a61565b838801955050505b50505092915050565b6000612a9e60328361370f565b91507f4552433732313a207472616e7366657220746f206e6f6e20455243373231526560008301527f63656976657220696d706c656d656e74657200000000000000000000000000006020830152604082019050919050565b6000612b0460268361370f565b91507f4f776e61626c653a206e6577206f776e657220697320746865207a65726f206160008301527f64647265737300000000000000000000000000000000000000000000000000006020830152604082019050919050565b6000612b6a601c8361370f565b91507f4552433732313a20746f6b656e20616c7265616479206d696e746564000000006000830152602082019050919050565b6000612baa60248361370f565b91507f4552433732313a207472616e7366657220746f20746865207a65726f2061646460008301527f72657373000000000000000000000000000000000000000000000000000000006020830152604082019050919050565b6000612c1060198361370f565b91507f4552433732313a20617070726f766520746f2063616c6c6572000000000000006000830152602082019050919050565b6000612c5060178361370f565b91507f546f6b656e20494420646f6573206e6f742065786973740000000000000000006000830152602082019050919050565b6000612c90602c8361370f565b91507f4552433732313a206f70657261746f7220717565727920666f72206e6f6e657860008301527f697374656e7420746f6b656e00000000000000000000000000000000000000006020830152604082019050919050565b6000612cf660388361370f565b91507f4552433732313a20617070726f76652063616c6c6572206973206e6f74206f7760008301527f6e6572206e6f7220617070726f76656420666f7220616c6c00000000000000006020830152604082019050919050565b6000612d5c602a8361370f565b91507f4552433732313a2062616c616e636520717565727920666f7220746865207a6560008301527f726f2061646472657373000000000000000000000000000000000000000000006020830152604082019050919050565b6000612dc260298361370f565b91507f4552433732313a206f776e657220717565727920666f72206e6f6e657869737460008301527f656e7420746f6b656e00000000000000000000000000000000000000000000006020830152604082019050919050565b6000612e28602e8361370f565b91507f45524337323155524953746f726167653a2055524920736574206f66206e6f6e60008301527f6578697374656e7420746f6b656e0000000000000000000000000000000000006020830152604082019050919050565b6000612e8e60208361370f565b91507f4552433732313a206d696e7420746f20746865207a65726f20616464726573736000830152602082019050919050565b6000612ece60318361370f565b91507f45524337323155524953746f726167653a2055524920717565727920666f722060008301527f6e6f6e6578697374656e7420746f6b656e0000000000000000000000000000006020830152604082019050919050565b6000612f34602c8361370f565b91507f4552433732313a20617070726f76656420717565727920666f72206e6f6e657860008301527f697374656e7420746f6b656e00000000000000000000000000000000000000006020830152604082019050919050565b6000612f9a600583613720565b91507f2e6a736f6e0000000000000000000000000000000000000000000000000000006000830152600582019050919050565b6000612fda60208361370f565b91507f4f776e61626c653a2063616c6c6572206973206e6f7420746865206f776e65726000830152602082019050919050565b600061301a60298361370f565b91507f4552433732313a207472616e73666572206f6620746f6b656e2074686174206960008301527f73206e6f74206f776e00000000000000000000000000000000000000000000006020830152604082019050919050565b6000613080602f8361370f565b91507f4552433732314d657461646174613a2055524920717565727920666f72206e6f60008301527f6e6578697374656e7420746f6b656e00000000000000000000000000000000006020830152604082019050919050565b60006130e660218361370f565b91507f4552433732313a20617070726f76616c20746f2063757272656e74206f776e6560008301527f72000000000000000000000000000000000000000000000000000000000000006020830152604082019050919050565b600061314c60318361370f565b91507f4552433732313a207472616e736665722063616c6c6572206973206e6f74206f60008301527f776e6572206e6f7220617070726f7665640000000000000000000000000000006020830152604082019050919050565b60006131b260178361370f565b91507f546f6b656e20494420616c7265616479206578697374730000000000000000006000830152602082019050919050565b6131ee81613850565b82525050565b6131fd81613850565b82525050565b600061320f82856129e1565b915061321b82846129e1565b91508190509392505050565b60006132338285612a12565b915061323f82846129e1565b915061324a82612f8d565b91508190509392505050565b600060208201905061326b60008301846128e4565b92915050565b600060608201905061328660008301866128e4565b61329360208301856128e4565b6132a060408301846131f4565b949350505050565b60006080820190506132bd60008301876128e4565b6132ca60208301866128e4565b6132d760408301856131f4565b81810360608301526132e98184612960565b905095945050505050565b6000602082019050818103600083015261330e81846128f3565b905092915050565b600060208201905061332b6000830184612951565b92915050565b60006020820190506133466000830184612999565b92915050565b6000602082019050818103600083015261336681846129a8565b905092915050565b6000602082019050818103600083015261338781612a91565b9050919050565b600060208201905081810360008301526133a781612af7565b9050919050565b600060208201905081810360008301526133c781612b5d565b9050919050565b600060208201905081810360008301526133e781612b9d565b9050919050565b6000602082019050818103600083015261340781612c03565b9050919050565b6000602082019050818103600083015261342781612c43565b9050919050565b6000602082019050818103600083015261344781612c83565b9050919050565b6000602082019050818103600083015261346781612ce9565b9050919050565b6000602082019050818103600083015261348781612d4f565b9050919050565b600060208201905081810360008301526134a781612db5565b9050919050565b600060208201905081810360008301526134c781612e1b565b9050919050565b600060208201905081810360008301526134e781612e81565b9050919050565b6000602082019050818103600083015261350781612ec1565b9050919050565b6000602082019050818103600083015261352781612f27565b9050919050565b6000602082019050818103600083015261354781612fcd565b9050919050565b600060208201905081810360008301526135678161300d565b9050919050565b6000602082019050818103600083015261358781613073565b9050919050565b600060208201905081810360008301526135a7816130d9565b9050919050565b600060208201905081810360008301526135c78161313f565b9050919050565b600060208201905081810360008301526135e7816131a5565b9050919050565b600060208201905061360360008301846131f4565b92915050565b6000604051905081810181811067ffffffffffffffff821117156136305761362f6139f9565b5b8060405250919050565b600067ffffffffffffffff821115613655576136546139f9565b5b601f19601f8301169050602081019050919050565b600067ffffffffffffffff821115613685576136846139f9565b5b601f19601f8301169050602081019050919050565b6000819050602082019050919050565b60008190508160005260206000209050919050565b600081519050919050565b600081519050919050565b600081519050919050565b6000602082019050919050565b600082825260208201905092915050565b600082825260208201905092915050565b600082825260208201905092915050565b600081905092915050565b600061373682613850565b915061374183613850565b9250827fffffffffffffffffffffffffffffffffffffffffffffffffffffffffffffffff038211156137765761377561396c565b5b828201905092915050565b600061378c82613850565b915061379783613850565b9250826137a7576137a661399b565b5b828204905092915050565b60006137bd82613850565b91506137c883613850565b9250828210156137db576137da61396c565b5b828203905092915050565b60006137f182613830565b9050919050565b60008115159050919050565b60007fffffffff0000000000000000000000000000000000000000000000000000000082169050919050565b600073ffffffffffffffffffffffffffffffffffffffff82169050919050565b6000819050919050565b60006138658261386c565b9050919050565b600061387782613830565b9050919050565b82818337600083830152505050565b60005b838110156138ab578082015181840152602081019050613890565b838111156138ba576000848401525b50505050565b600060028204905060018216806138d857607f821691505b602082108114156138ec576138eb6139ca565b5b50919050565b60006138fd82613850565b91507fffffffffffffffffffffffffffffffffffffffffffffffffffffffffffffffff8214156139305761392f61396c565b5b600182019050919050565b600061394682613850565b915061395183613850565b9250826139615761396061399b565b5b828206905092915050565b7f4e487b7100000000000000000000000000000000000000000000000000000000600052601160045260246000fd5b7f4e487b7100000000000000000000000000000000000000000000000000000000600052601260045260246000fd5b7f4e487b7100000000000000000000000000000000000000000000000000000000600052602260045260246000fd5b7f4e487b7100000000000000000000000000000000000000000000000000000000600052604160045260246000fd5b6000601f19601f8301169050919050565b613a42816137e6565b8114613a4d57600080fd5b50565b613a59816137f8565b8114613a6457600080fd5b50565b613a7081613804565b8114613a7b57600080fd5b50565b613a8781613850565b8114613a9257600080fd5b5056fea2646970667358221220e243fe8d7ea8a8ceed3d3130bb3f482a0456bd85077b64c17319631d3e31f0f564736f6c63430008000033",
  "immutableReferences": {},
  "source": "// SPDX-License-Identifier: MIT\r\npragma solidity ^0.8.0;\r\n\r\nimport \"@openzeppelin/contracts/token/ERC721/extensions/ERC721URIStorage.sol\";\r\nimport \"@openzeppelin/contracts/access/Ownable.sol\";\r\nimport \"@openzeppelin/contracts/token/ERC20/IERC20.sol\";\r\nimport \"@openzeppelin/contracts/utils/Strings.sol\";\r\n\r\ncontract SDVDiscountNFT is ERC721URIStorage, Ownable {\r\n    using Strings for uint256;\r\n\r\n    IERC20 public SDVToken;\r\n    string private _baseTokenURI;\r\n\r\n    uint256[] private mintedTokens;\r\n    mapping(uint256 => uint256) public nftPrice;\r\n\r\n    constructor(address _SDVToken, string memory baseTokenURI) ERC721(\"SDVNFT\", \"SDVN\") {\r\n        SDVToken = IERC20(_SDVToken);\r\n        _baseTokenURI = baseTokenURI;\r\n    }\r\n\r\n    function setBaseTokenURI(string memory baseTokenURI) external onlyOwner {\r\n        _baseTokenURI = baseTokenURI;\r\n    }\r\n\r\n    function mint(uint256 tokenId, uint256 _nftPrice) external onlyOwner {\r\n        require(!_exists(tokenId), \"Token ID already exists\");\r\n\r\n        _safeMint(owner(), tokenId);\r\n        mintedTokens.push(tokenId);\r\n\r\n        setNFTPrice(tokenId, _nftPrice);\r\n\r\n        _setTokenURI(tokenId, string(abi.encodePacked(_baseTokenURI, tokenId.toString(), \".json\")));\r\n    }\r\n\r\n    function purchaseNFT(uint256 tokenId) external {\r\n        require(_exists(tokenId), \"Token ID does not exist\");\r\n\r\n        uint256 price = getNFTPrice(tokenId);\r\n\r\n        SDVToken.transferFrom(msg.sender, owner(), price);\r\n\r\n        _transfer(owner(), msg.sender, tokenId);\r\n    }\r\n\r\n    function getNFTPrice(uint256 tokenId) public view returns (uint256) {\r\n        require(_exists(tokenId), \"Token ID does not exist\");\r\n        return nftPrice[tokenId];\r\n    }\r\n\r\n    function setNFTPrice(uint256 tokenId, uint256 newNFTPrice) public onlyOwner {\r\n        require(_exists(tokenId), \"Token ID does not exist\");\r\n        nftPrice[tokenId] = newNFTPrice;\r\n    }\r\n\r\n    function tokenURI(uint256 tokenId) public view override(ERC721URIStorage) returns (string memory) {\r\n        require(_exists(tokenId), \"Token ID does not exist\");\r\n        return ERC721URIStorage.tokenURI(tokenId);\r\n    }\r\n\r\n    function getAllMintedNFTs() external view returns (uint256[] memory) {\r\n        return mintedTokens;\r\n    }\r\n\r\n    function getOwnedNFTs(address user) external view returns (uint256[] memory) {\r\n    uint256[] memory ownedTokens = new uint256[](balanceOf(user));\r\n    uint256 tokenCount = 0;\r\n\r\n    for (uint256 i = 0; i < mintedTokens.length; i++) {\r\n        uint256 tokenId = mintedTokens[i];\r\n        if (_exists(tokenId) && ownerOf(tokenId) == user) {\r\n            ownedTokens[tokenCount] = tokenId;\r\n            tokenCount++;\r\n        }\r\n    }\r\n\r\n    return ownedTokens;\r\n    }\r\n}",
  "sourcePath": "C:\\Users\\i\\Documents\\GitHub\\DSP\\contracts\\contracts\\SDVDiscountNFT.sol",
  "compiler": {
    "name": "solc",
    "version": "0.8.0+commit.c7dfd78e.Emscripten.clang"
  },
  "schemaVersion": "3.4.16",
  "updatedAt": "2024-02-16T14:07:58.068Z",
  "networkType": "ethereum",
  "devdoc": {
    "kind": "dev",
    "methods": {
      "approve(address,uint256)": {
        "details": "See {IERC721-approve}."
      },
      "balanceOf(address)": {
        "details": "See {IERC721-balanceOf}."
      },
      "getApproved(uint256)": {
        "details": "See {IERC721-getApproved}."
      },
      "isApprovedForAll(address,address)": {
        "details": "See {IERC721-isApprovedForAll}."
      },
      "name()": {
        "details": "See {IERC721Metadata-name}."
      },
      "owner()": {
        "details": "Returns the address of the current owner."
      },
      "ownerOf(uint256)": {
        "details": "See {IERC721-ownerOf}."
      },
      "renounceOwnership()": {
        "details": "Leaves the contract without owner. It will not be possible to call `onlyOwner` functions anymore. Can only be called by the current owner. NOTE: Renouncing ownership will leave the contract without an owner, thereby removing any functionality that is only available to the owner."
      },
      "safeTransferFrom(address,address,uint256)": {
        "details": "See {IERC721-safeTransferFrom}."
      },
      "safeTransferFrom(address,address,uint256,bytes)": {
        "details": "See {IERC721-safeTransferFrom}."
      },
      "setApprovalForAll(address,bool)": {
        "details": "See {IERC721-setApprovalForAll}."
      },
      "supportsInterface(bytes4)": {
        "details": "See {IERC165-supportsInterface}."
      },
      "symbol()": {
        "details": "See {IERC721Metadata-symbol}."
      },
      "tokenURI(uint256)": {
        "details": "See {IERC721Metadata-tokenURI}."
      },
      "transferFrom(address,address,uint256)": {
        "details": "See {IERC721-transferFrom}."
      },
      "transferOwnership(address)": {
        "details": "Transfers ownership of the contract to a new account (`newOwner`). Can only be called by the current owner."
      }
    },
    "version": 1
  },
  "userdoc": {
    "kind": "user",
    "methods": {},
    "version": 1
  }
}