{
  "contractName": "SDVDiscountNFT",
  "abi": [
    {
      "inputs": [
        {
          "internalType": "string",
          "name": "baseTokenURI",
          "type": "string"
        }
      ],
      "stateMutability": "nonpayable",
      "type": "constructor"
    },
    {
      "anonymous": false,
      "inputs": [
        {
          "indexed": true,
          "internalType": "address",
          "name": "account",
          "type": "address"
        },
        {
          "indexed": true,
          "internalType": "address",
          "name": "operator",
          "type": "address"
        },
        {
          "indexed": false,
          "internalType": "bool",
          "name": "approved",
          "type": "bool"
        }
      ],
      "name": "ApprovalForAll",
      "type": "event"
    },
    {
      "anonymous": false,
      "inputs": [
        {
          "indexed": true,
          "internalType": "uint256",
          "name": "tokenId",
          "type": "uint256"
        },
        {
          "indexed": false,
          "internalType": "uint256",
          "name": "initialSupply",
          "type": "uint256"
        },
        {
          "indexed": false,
          "internalType": "uint256",
          "name": "offchainPoints",
          "type": "uint256"
        }
      ],
      "name": "NFTMinted",
      "type": "event"
    },
    {
      "anonymous": false,
      "inputs": [
        {
          "indexed": true,
          "internalType": "address",
          "name": "buyer",
          "type": "address"
        },
        {
          "indexed": true,
          "internalType": "uint256",
          "name": "tokenId",
          "type": "uint256"
        },
        {
          "indexed": false,
          "internalType": "uint256",
          "name": "amount",
          "type": "uint256"
        }
      ],
      "name": "NFTPurchased",
      "type": "event"
    },
    {
      "anonymous": false,
      "inputs": [
        {
          "indexed": true,
          "internalType": "address",
          "name": "previousOwner",
          "type": "address"
        },
        {
          "indexed": true,
          "internalType": "address",
          "name": "newOwner",
          "type": "address"
        }
      ],
      "name": "OwnershipTransferred",
      "type": "event"
    },
    {
      "anonymous": false,
      "inputs": [
        {
          "indexed": true,
          "internalType": "address",
          "name": "operator",
          "type": "address"
        },
        {
          "indexed": true,
          "internalType": "address",
          "name": "from",
          "type": "address"
        },
        {
          "indexed": true,
          "internalType": "address",
          "name": "to",
          "type": "address"
        },
        {
          "indexed": false,
          "internalType": "uint256[]",
          "name": "ids",
          "type": "uint256[]"
        },
        {
          "indexed": false,
          "internalType": "uint256[]",
          "name": "values",
          "type": "uint256[]"
        }
      ],
      "name": "TransferBatch",
      "type": "event"
    },
    {
      "anonymous": false,
      "inputs": [
        {
          "indexed": true,
          "internalType": "address",
          "name": "operator",
          "type": "address"
        },
        {
          "indexed": true,
          "internalType": "address",
          "name": "from",
          "type": "address"
        },
        {
          "indexed": true,
          "internalType": "address",
          "name": "to",
          "type": "address"
        },
        {
          "indexed": false,
          "internalType": "uint256",
          "name": "id",
          "type": "uint256"
        },
        {
          "indexed": false,
          "internalType": "uint256",
          "name": "value",
          "type": "uint256"
        }
      ],
      "name": "TransferSingle",
      "type": "event"
    },
    {
      "anonymous": false,
      "inputs": [
        {
          "indexed": false,
          "internalType": "string",
          "name": "value",
          "type": "string"
        },
        {
          "indexed": true,
          "internalType": "uint256",
          "name": "id",
          "type": "uint256"
        }
      ],
      "name": "URI",
      "type": "event"
    },
    {
      "inputs": [
        {
          "internalType": "address",
          "name": "account",
          "type": "address"
        },
        {
          "internalType": "uint256",
          "name": "id",
          "type": "uint256"
        }
      ],
      "name": "balanceOf",
      "outputs": [
        {
          "internalType": "uint256",
          "name": "",
          "type": "uint256"
        }
      ],
      "stateMutability": "view",
      "type": "function"
    },
    {
      "inputs": [
        {
          "internalType": "address[]",
          "name": "accounts",
          "type": "address[]"
        },
        {
          "internalType": "uint256[]",
          "name": "ids",
          "type": "uint256[]"
        }
      ],
      "name": "balanceOfBatch",
      "outputs": [
        {
          "internalType": "uint256[]",
          "name": "",
          "type": "uint256[]"
        }
      ],
      "stateMutability": "view",
      "type": "function"
    },
    {
      "inputs": [
        {
          "internalType": "address",
          "name": "account",
          "type": "address"
        },
        {
          "internalType": "address",
          "name": "operator",
          "type": "address"
        }
      ],
      "name": "isApprovedForAll",
      "outputs": [
        {
          "internalType": "bool",
          "name": "",
          "type": "bool"
        }
      ],
      "stateMutability": "view",
      "type": "function"
    },
    {
      "inputs": [
        {
          "internalType": "uint256",
          "name": "",
          "type": "uint256"
        }
      ],
      "name": "nfts",
      "outputs": [
        {
          "internalType": "uint256",
          "name": "initialSupply",
          "type": "uint256"
        },
        {
          "internalType": "uint256",
          "name": "offchainPoints",
          "type": "uint256"
        },
        {
          "internalType": "uint256",
          "name": "remainingAmount",
          "type": "uint256"
        }
      ],
      "stateMutability": "view",
      "type": "function"
    },
    {
      "inputs": [],
      "name": "owner",
      "outputs": [
        {
          "internalType": "address",
          "name": "",
          "type": "address"
        }
      ],
      "stateMutability": "view",
      "type": "function"
    },
    {
      "inputs": [],
      "name": "renounceOwnership",
      "outputs": [],
      "stateMutability": "nonpayable",
      "type": "function"
    },
    {
      "inputs": [
        {
          "internalType": "address",
          "name": "from",
          "type": "address"
        },
        {
          "internalType": "address",
          "name": "to",
          "type": "address"
        },
        {
          "internalType": "uint256[]",
          "name": "ids",
          "type": "uint256[]"
        },
        {
          "internalType": "uint256[]",
          "name": "amounts",
          "type": "uint256[]"
        },
        {
          "internalType": "bytes",
          "name": "data",
          "type": "bytes"
        }
      ],
      "name": "safeBatchTransferFrom",
      "outputs": [],
      "stateMutability": "nonpayable",
      "type": "function"
    },
    {
      "inputs": [
        {
          "internalType": "address",
          "name": "from",
          "type": "address"
        },
        {
          "internalType": "address",
          "name": "to",
          "type": "address"
        },
        {
          "internalType": "uint256",
          "name": "id",
          "type": "uint256"
        },
        {
          "internalType": "uint256",
          "name": "amount",
          "type": "uint256"
        },
        {
          "internalType": "bytes",
          "name": "data",
          "type": "bytes"
        }
      ],
      "name": "safeTransferFrom",
      "outputs": [],
      "stateMutability": "nonpayable",
      "type": "function"
    },
    {
      "inputs": [
        {
          "internalType": "address",
          "name": "operator",
          "type": "address"
        },
        {
          "internalType": "bool",
          "name": "approved",
          "type": "bool"
        }
      ],
      "name": "setApprovalForAll",
      "outputs": [],
      "stateMutability": "nonpayable",
      "type": "function"
    },
    {
      "inputs": [
        {
          "internalType": "bytes4",
          "name": "interfaceId",
          "type": "bytes4"
        }
      ],
      "name": "supportsInterface",
      "outputs": [
        {
          "internalType": "bool",
          "name": "",
          "type": "bool"
        }
      ],
      "stateMutability": "view",
      "type": "function"
    },
    {
      "inputs": [
        {
          "internalType": "address",
          "name": "newOwner",
          "type": "address"
        }
      ],
      "name": "transferOwnership",
      "outputs": [],
      "stateMutability": "nonpayable",
      "type": "function"
    },
    {
      "inputs": [
        {
          "internalType": "uint256",
          "name": "",
          "type": "uint256"
        }
      ],
      "name": "uri",
      "outputs": [
        {
          "internalType": "string",
          "name": "",
          "type": "string"
        }
      ],
      "stateMutability": "view",
      "type": "function"
    },
    {
      "inputs": [
        {
          "internalType": "uint256",
          "name": "tokenId",
          "type": "uint256"
        },
        {
          "internalType": "uint256",
          "name": "initialSupply",
          "type": "uint256"
        },
        {
          "internalType": "uint256",
          "name": "offchainPoints",
          "type": "uint256"
        }
      ],
      "name": "mint",
      "outputs": [],
      "stateMutability": "nonpayable",
      "type": "function"
    },
    {
      "inputs": [
        {
          "internalType": "uint256",
          "name": "tokenId",
          "type": "uint256"
        },
        {
          "internalType": "uint256",
          "name": "amount",
          "type": "uint256"
        }
      ],
      "name": "purchaseNFTWithPoints",
      "outputs": [],
      "stateMutability": "nonpayable",
      "type": "function"
    },
    {
      "inputs": [
        {
          "internalType": "uint256",
          "name": "tokenId",
          "type": "uint256"
        }
      ],
      "name": "tokenURI",
      "outputs": [
        {
          "internalType": "string",
          "name": "",
          "type": "string"
        }
      ],
      "stateMutability": "view",
      "type": "function"
    }
  ],
  "bytecode": "0x6080604052600160055534801562000015575f80fd5b5060405162003a4038038062003a4083398181016040528101906200003b9190620002a4565b806200004d816200010360201b60201c565b505f6200005f6200011860201b60201c565b90508060035f6101000a81548173ffffffffffffffffffffffffffffffffffffffff021916908373ffffffffffffffffffffffffffffffffffffffff1602179055508073ffffffffffffffffffffffffffffffffffffffff165f73ffffffffffffffffffffffffffffffffffffffff167f8be0079c531659141344cd1fd0a4f28419497f9722a3daafe3b4186f6b6457e060405160405180910390a350506200060e565b80600290816200011491906200052a565b5050565b5f33905090565b5f604051905090565b5f80fd5b5f80fd5b5f80fd5b5f80fd5b5f601f19601f8301169050919050565b7f4e487b71000000000000000000000000000000000000000000000000000000005f52604160045260245ffd5b620001808262000138565b810181811067ffffffffffffffff82111715620001a257620001a162000148565b5b80604052505050565b5f620001b66200011f565b9050620001c4828262000175565b919050565b5f67ffffffffffffffff821115620001e657620001e562000148565b5b620001f18262000138565b9050602081019050919050565b5f5b838110156200021d57808201518184015260208101905062000200565b5f8484015250505050565b5f6200023e6200023884620001c9565b620001ab565b9050828152602081018484840111156200025d576200025c62000134565b5b6200026a848285620001fe565b509392505050565b5f82601f83011262000289576200028862000130565b5b81516200029b84826020860162000228565b91505092915050565b5f60208284031215620002bc57620002bb62000128565b5b5f82015167ffffffffffffffff811115620002dc57620002db6200012c565b5b620002ea8482850162000272565b91505092915050565b5f81519050919050565b7f4e487b71000000000000000000000000000000000000000000000000000000005f52602260045260245ffd5b5f60028204905060018216806200034257607f821691505b602082108103620003585762000357620002fd565b5b50919050565b5f819050815f5260205f209050919050565b5f6020601f8301049050919050565b5f82821b905092915050565b5f60088302620003bc7fffffffffffffffffffffffffffffffffffffffffffffffffffffffffffffffff826200037f565b620003c886836200037f565b95508019841693508086168417925050509392505050565b5f819050919050565b5f819050919050565b5f620004126200040c6200040684620003e0565b620003e9565b620003e0565b9050919050565b5f819050919050565b6200042d83620003f2565b620004456200043c8262000419565b8484546200038b565b825550505050565b5f90565b6200045b6200044d565b6200046881848462000422565b505050565b5b818110156200048f57620004835f8262000451565b6001810190506200046e565b5050565b601f821115620004de57620004a8816200035e565b620004b38462000370565b81016020851015620004c3578190505b620004db620004d28562000370565b8301826200046d565b50505b505050565b5f82821c905092915050565b5f620005005f1984600802620004e3565b1980831691505092915050565b5f6200051a8383620004ef565b9150826002028217905092915050565b6200053582620002f3565b67ffffffffffffffff81111562000551576200055062000148565b5b6200055d82546200032a565b6200056a82828562000493565b5f60209050601f831160018114620005a0575f84156200058b578287015190505b6200059785826200050d565b86555062000606565b601f198416620005b0866200035e565b5f5b82811015620005d957848901518255600182019150602085019450602081019050620005b2565b86831015620005f95784890151620005f5601f891682620004ef565b8355505b6001600288020188555050505b505050505050565b613424806200061c5f395ff3fe608060405234801561000f575f80fd5b50600436106100f2575f3560e01c8063715018a611610095578063c87b56dd11610064578063c87b56dd14610280578063e985e9c5146102b0578063f242432a146102e0578063f2fde38b146102fc576100f2565b8063715018a614610220578063884261941461022a5780638da5cb5b14610246578063a22cb46514610264576100f2565b80630e89341c116100d15780630e89341c14610172578063265aa621146101a25780632eb2c2d6146101d45780634e1273f4146101f0576100f2565b8062fdd58e146100f657806301ffc9a71461012657806302acc94b14610156575b5f80fd5b610110600480360381019061010b9190611d99565b610318565b60405161011d9190611de6565b60405180910390f35b610140600480360381019061013b9190611e54565b6103db565b60405161014d9190611e99565b60405180910390f35b610170600480360381019061016b9190611eb2565b6104bc565b005b61018c60048036038101906101879190611f02565b6105fd565b6040516101999190611fb7565b60405180910390f35b6101bc60048036038101906101b79190611f02565b61068f565b6040516101cb93929190611fd7565b60405180910390f35b6101ee60048036038101906101e991906121fc565b6106b5565b005b61020a60048036038101906102059190612387565b610a45565b60405161021791906124b4565b60405180910390f35b610228610b56565b005b610244600480360381019061023f91906124d4565b610c8f565b005b61024e610e0b565b60405161025b9190612521565b60405180910390f35b61027e60048036038101906102799190612564565b610e33565b005b61029a60048036038101906102959190611f02565b610fae565b6040516102a79190611fb7565b60405180910390f35b6102ca60048036038101906102c591906125a2565b61102d565b6040516102d79190611e99565b60405180910390f35b6102fa60048036038101906102f591906125e0565b6110bb565b005b61031660048036038101906103119190612673565b6113c2565b005b5f8073ffffffffffffffffffffffffffffffffffffffff168373ffffffffffffffffffffffffffffffffffffffff1603610387576040517f08c379a000000000000000000000000000000000000000000000000000000000815260040161037e9061270e565b60405180910390fd5b5f808381526020019081526020015f205f8473ffffffffffffffffffffffffffffffffffffffff1673ffffffffffffffffffffffffffffffffffffffff1681526020019081526020015f2054905092915050565b5f7fd9b67a26000000000000000000000000000000000000000000000000000000007bffffffffffffffffffffffffffffffffffffffffffffffffffffffff1916827bffffffffffffffffffffffffffffffffffffffffffffffffffffffff191614806104a557507f0e89341c000000000000000000000000000000000000000000000000000000007bffffffffffffffffffffffffffffffffffffffffffffffffffffffff1916827bffffffffffffffffffffffffffffffffffffffffffffffffffffffff1916145b806104b557506104b48261156a565b5b9050919050565b6104c46115d3565b73ffffffffffffffffffffffffffffffffffffffff166104e2610e0b565b73ffffffffffffffffffffffffffffffffffffffff1614610538576040517f08c379a000000000000000000000000000000000000000000000000000000000815260040161052f90612776565b60405180910390fd5b5f60055f81548092919061054b906127c1565b91905055905061057261055c610e0b565b828560405180602001604052805f8152506115da565b60405180606001604052808481526020018381526020018481525060045f8381526020019081526020015f205f820151815f01556020820151816001015560408201518160020155905050807fe5177288d661448b7d383a5e5f1be3886695859c8c327562a87df71d65e21ac284846040516105ef929190612808565b60405180910390a250505050565b60606002805461060c9061285c565b80601f01602080910402602001604051908101604052809291908181526020018280546106389061285c565b80156106835780601f1061065a57610100808354040283529160200191610683565b820191905f5260205f20905b81548152906001019060200180831161066657829003601f168201915b50505050509050919050565b6004602052805f5260405f205f91509050805f0154908060010154908060020154905083565b81518351146106f9576040517f08c379a00000000000000000000000000000000000000000000000000000000081526004016106f0906128fc565b60405180910390fd5b5f73ffffffffffffffffffffffffffffffffffffffff168473ffffffffffffffffffffffffffffffffffffffff1603610767576040517f08c379a000000000000000000000000000000000000000000000000000000000815260040161075e9061298a565b60405180910390fd5b61076f6115d3565b73ffffffffffffffffffffffffffffffffffffffff168573ffffffffffffffffffffffffffffffffffffffff1614806107b557506107b4856107af6115d3565b61102d565b5b6107f4576040517f08c379a00000000000000000000000000000000000000000000000000000000081526004016107eb90612a18565b60405180910390fd5b5f6107fd6115d3565b905061080d818787878787611765565b5f5b84518110156109b0575f85828151811061082c5761082b612a36565b5b602002602001015190505f85838151811061084a57610849612a36565b5b602002602001015190505f805f8481526020019081526020015f205f8b73ffffffffffffffffffffffffffffffffffffffff1673ffffffffffffffffffffffffffffffffffffffff1681526020019081526020015f20549050818110156108e6576040517f08c379a00000000000000000000000000000000000000000000000000000000081526004016108dd90612ad3565b60405180910390fd5b81816108f29190612af1565b5f808581526020019081526020015f205f8c73ffffffffffffffffffffffffffffffffffffffff1673ffffffffffffffffffffffffffffffffffffffff1681526020019081526020015f2081905550815f808581526020019081526020015f205f8b73ffffffffffffffffffffffffffffffffffffffff1673ffffffffffffffffffffffffffffffffffffffff1681526020019081526020015f205f82825461099b9190612b24565b9250508190555050505080600101905061080f565b508473ffffffffffffffffffffffffffffffffffffffff168673ffffffffffffffffffffffffffffffffffffffff168273ffffffffffffffffffffffffffffffffffffffff167f4a39dc06d4c0dbc64b70af90fd698a233a518aa5d07e595d983b8c0526c8f7fb8787604051610a27929190612b57565b60405180910390a4610a3d81878787878761176d565b505050505050565b60608151835114610a8b576040517f08c379a0000000000000000000000000000000000000000000000000000000008152600401610a8290612bfc565b60405180910390fd5b5f835167ffffffffffffffff811115610aa757610aa6612010565b5b604051908082528060200260200182016040528015610ad55781602001602082028036833780820191505090505b5090505f5b8451811015610b4b57610b21858281518110610af957610af8612a36565b5b6020026020010151858381518110610b1457610b13612a36565b5b6020026020010151610318565b828281518110610b3457610b33612a36565b5b602002602001018181525050806001019050610ada565b508091505092915050565b610b5e6115d3565b73ffffffffffffffffffffffffffffffffffffffff16610b7c610e0b565b73ffffffffffffffffffffffffffffffffffffffff1614610bd2576040517f08c379a0000000000000000000000000000000000000000000000000000000008152600401610bc990612776565b60405180910390fd5b5f73ffffffffffffffffffffffffffffffffffffffff1660035f9054906101000a900473ffffffffffffffffffffffffffffffffffffffff1673ffffffffffffffffffffffffffffffffffffffff167f8be0079c531659141344cd1fd0a4f28419497f9722a3daafe3b4186f6b6457e060405160405180910390a35f60035f6101000a81548173ffffffffffffffffffffffffffffffffffffffff021916908373ffffffffffffffffffffffffffffffffffffffff160217905550565b6005548210610cd3576040517f08c379a0000000000000000000000000000000000000000000000000000000008152600401610cca90612c64565b60405180910390fd5b60045f8381526020019081526020015f2060020154811115610d2a576040517f08c379a0000000000000000000000000000000000000000000000000000000008152600401610d2190612ccc565b60405180910390fd5b5f8111610d6c576040517f08c379a0000000000000000000000000000000000000000000000000000000008152600401610d6390612d34565b60405180910390fd5b610d8e610d77610e0b565b33848460405180602001604052805f8152506110bb565b8060045f8481526020019081526020015f206002015f828254610db19190612af1565b92505081905550813373ffffffffffffffffffffffffffffffffffffffff167fa6d32bfcc7cd31e4d5ee7adeef7edd500cab0e64b4a494de4f832d41fd70f56d83604051610dff9190611de6565b60405180910390a35050565b5f60035f9054906101000a900473ffffffffffffffffffffffffffffffffffffffff16905090565b8173ffffffffffffffffffffffffffffffffffffffff16610e526115d3565b73ffffffffffffffffffffffffffffffffffffffff1603610ea8576040517f08c379a0000000000000000000000000000000000000000000000000000000008152600401610e9f90612dc2565b60405180910390fd5b8060015f610eb46115d3565b73ffffffffffffffffffffffffffffffffffffffff1673ffffffffffffffffffffffffffffffffffffffff1681526020019081526020015f205f8473ffffffffffffffffffffffffffffffffffffffff1673ffffffffffffffffffffffffffffffffffffffff1681526020019081526020015f205f6101000a81548160ff0219169083151502179055508173ffffffffffffffffffffffffffffffffffffffff16610f5d6115d3565b73ffffffffffffffffffffffffffffffffffffffff167f17307eab39ab6107e8899845ad3d59bd9653f200f220920489ca2b5937696c3183604051610fa29190611e99565b60405180910390a35050565b60606005548210610ff4576040517f08c379a0000000000000000000000000000000000000000000000000000000008152600401610feb90612c64565b60405180910390fd5b610ffd826105fd565b61100683611943565b604051602001611017929190612e64565b6040516020818303038152906040529050919050565b5f60015f8473ffffffffffffffffffffffffffffffffffffffff1673ffffffffffffffffffffffffffffffffffffffff1681526020019081526020015f205f8373ffffffffffffffffffffffffffffffffffffffff1673ffffffffffffffffffffffffffffffffffffffff1681526020019081526020015f205f9054906101000a900460ff16905092915050565b5f73ffffffffffffffffffffffffffffffffffffffff168473ffffffffffffffffffffffffffffffffffffffff1603611129576040517f08c379a00000000000000000000000000000000000000000000000000000000081526004016111209061298a565b60405180910390fd5b6111316115d3565b73ffffffffffffffffffffffffffffffffffffffff168573ffffffffffffffffffffffffffffffffffffffff1614806111775750611176856111716115d3565b61102d565b5b6111b6576040517f08c379a00000000000000000000000000000000000000000000000000000000081526004016111ad90612f02565b60405180910390fd5b5f6111bf6115d3565b90506111df8187876111d088611a9c565b6111d988611a9c565b87611765565b5f805f8681526020019081526020015f205f8873ffffffffffffffffffffffffffffffffffffffff1673ffffffffffffffffffffffffffffffffffffffff1681526020019081526020015f2054905083811015611271576040517f08c379a000000000000000000000000000000000000000000000000000000000815260040161126890612ad3565b60405180910390fd5b838161127d9190612af1565b5f808781526020019081526020015f205f8973ffffffffffffffffffffffffffffffffffffffff1673ffffffffffffffffffffffffffffffffffffffff1681526020019081526020015f2081905550835f808781526020019081526020015f205f8873ffffffffffffffffffffffffffffffffffffffff1673ffffffffffffffffffffffffffffffffffffffff1681526020019081526020015f205f8282546113269190612b24565b925050819055508573ffffffffffffffffffffffffffffffffffffffff168773ffffffffffffffffffffffffffffffffffffffff168373ffffffffffffffffffffffffffffffffffffffff167fc3d58168c5ae7397731d063d5bbf3d657854427343f4c083240f7aacaa2d0f6288886040516113a3929190612808565b60405180910390a46113b9828888888888611b14565b50505050505050565b6113ca6115d3565b73ffffffffffffffffffffffffffffffffffffffff166113e8610e0b565b73ffffffffffffffffffffffffffffffffffffffff161461143e576040517f08c379a000000000000000000000000000000000000000000000000000000000815260040161143590612776565b60405180910390fd5b5f73ffffffffffffffffffffffffffffffffffffffff168173ffffffffffffffffffffffffffffffffffffffff16036114ac576040517f08c379a00000000000000000000000000000000000000000000000000000000081526004016114a390612f90565b60405180910390fd5b8073ffffffffffffffffffffffffffffffffffffffff1660035f9054906101000a900473ffffffffffffffffffffffffffffffffffffffff1673ffffffffffffffffffffffffffffffffffffffff167f8be0079c531659141344cd1fd0a4f28419497f9722a3daafe3b4186f6b6457e060405160405180910390a38060035f6101000a81548173ffffffffffffffffffffffffffffffffffffffff021916908373ffffffffffffffffffffffffffffffffffffffff16021790555050565b5f7f01ffc9a7000000000000000000000000000000000000000000000000000000007bffffffffffffffffffffffffffffffffffffffffffffffffffffffff1916827bffffffffffffffffffffffffffffffffffffffffffffffffffffffff1916149050919050565b5f33905090565b5f73ffffffffffffffffffffffffffffffffffffffff168473ffffffffffffffffffffffffffffffffffffffff1603611648576040517f08c379a000000000000000000000000000000000000000000000000000000000815260040161163f9061301e565b60405180910390fd5b5f6116516115d3565b9050611671815f8761166288611a9c565b61166b88611a9c565b87611765565b825f808681526020019081526020015f205f8773ffffffffffffffffffffffffffffffffffffffff1673ffffffffffffffffffffffffffffffffffffffff1681526020019081526020015f205f8282546116cb9190612b24565b925050819055508473ffffffffffffffffffffffffffffffffffffffff165f73ffffffffffffffffffffffffffffffffffffffff168273ffffffffffffffffffffffffffffffffffffffff167fc3d58168c5ae7397731d063d5bbf3d657854427343f4c083240f7aacaa2d0f628787604051611748929190612808565b60405180910390a461175e815f87878787611b14565b5050505050565b505050505050565b61178c8473ffffffffffffffffffffffffffffffffffffffff16611cea565b1561193b578373ffffffffffffffffffffffffffffffffffffffff1663bc197c8187878686866040518663ffffffff1660e01b81526004016117d295949392919061308e565b6020604051808303815f875af192505050801561180d57506040513d601f19601f8201168201806040525081019061180a9190613108565b60015b6118b25761181961313f565b806308c379a003611875575061182d61315e565b806118385750611877565b806040517f08c379a000000000000000000000000000000000000000000000000000000000815260040161186c9190611fb7565b60405180910390fd5b505b6040517f08c379a00000000000000000000000000000000000000000000000000000000081526004016118a99061325d565b60405180910390fd5b63bc197c8160e01b7bffffffffffffffffffffffffffffffffffffffffffffffffffffffff1916817bffffffffffffffffffffffffffffffffffffffffffffffffffffffff191614611939576040517f08c379a0000000000000000000000000000000000000000000000000000000008152600401611930906132eb565b60405180910390fd5b505b505050505050565b60605f8203611989576040518060400160405280600181526020017f30000000000000000000000000000000000000000000000000000000000000008152509050611a97565b5f8290505f5b5f82146119b85780806119a1906127c1565b915050600a826119b19190613336565b915061198f565b5f8167ffffffffffffffff8111156119d3576119d2612010565b5b6040519080825280601f01601f191660200182016040528015611a055781602001600182028036833780820191505090505b5090505b5f8514611a9057600182611a1d9190612af1565b9150600a85611a2c9190613366565b6030611a389190612b24565b60f81b818381518110611a4e57611a4d612a36565b5b60200101907effffffffffffffffffffffffffffffffffffffffffffffffffffffffffffff191690815f1a905350600a85611a899190613336565b9450611a09565b8093505050505b919050565b60605f600167ffffffffffffffff811115611aba57611ab9612010565b5b604051908082528060200260200182016040528015611ae85781602001602082028036833780820191505090505b50905082815f81518110611aff57611afe612a36565b5b60200260200101818152505080915050919050565b611b338473ffffffffffffffffffffffffffffffffffffffff16611cea565b15611ce2578373ffffffffffffffffffffffffffffffffffffffff1663f23a6e6187878686866040518663ffffffff1660e01b8152600401611b79959493929190613396565b6020604051808303815f875af1925050508015611bb457506040513d601f19601f82011682018060405250810190611bb19190613108565b60015b611c5957611bc061313f565b806308c379a003611c1c5750611bd461315e565b80611bdf5750611c1e565b806040517f08c379a0000000000000000000000000000000000000000000000000000000008152600401611c139190611fb7565b60405180910390fd5b505b6040517f08c379a0000000000000000000000000000000000000000000000000000000008152600401611c509061325d565b60405180910390fd5b63f23a6e6160e01b7bffffffffffffffffffffffffffffffffffffffffffffffffffffffff1916817bffffffffffffffffffffffffffffffffffffffffffffffffffffffff191614611ce0576040517f08c379a0000000000000000000000000000000000000000000000000000000008152600401611cd7906132eb565b60405180910390fd5b505b505050505050565b5f80823b90505f8111915050919050565b5f604051905090565b5f80fd5b5f80fd5b5f73ffffffffffffffffffffffffffffffffffffffff82169050919050565b5f611d3582611d0c565b9050919050565b611d4581611d2b565b8114611d4f575f80fd5b50565b5f81359050611d6081611d3c565b92915050565b5f819050919050565b611d7881611d66565b8114611d82575f80fd5b50565b5f81359050611d9381611d6f565b92915050565b5f8060408385031215611daf57611dae611d04565b5b5f611dbc85828601611d52565b9250506020611dcd85828601611d85565b9150509250929050565b611de081611d66565b82525050565b5f602082019050611df95f830184611dd7565b92915050565b5f7fffffffff0000000000000000000000000000000000000000000000000000000082169050919050565b611e3381611dff565b8114611e3d575f80fd5b50565b5f81359050611e4e81611e2a565b92915050565b5f60208284031215611e6957611e68611d04565b5b5f611e7684828501611e40565b91505092915050565b5f8115159050919050565b611e9381611e7f565b82525050565b5f602082019050611eac5f830184611e8a565b92915050565b5f805f60608486031215611ec957611ec8611d04565b5b5f611ed686828701611d85565b9350506020611ee786828701611d85565b9250506040611ef886828701611d85565b9150509250925092565b5f60208284031215611f1757611f16611d04565b5b5f611f2484828501611d85565b91505092915050565b5f81519050919050565b5f82825260208201905092915050565b5f5b83811015611f64578082015181840152602081019050611f49565b5f8484015250505050565b5f601f19601f8301169050919050565b5f611f8982611f2d565b611f938185611f37565b9350611fa3818560208601611f47565b611fac81611f6f565b840191505092915050565b5f6020820190508181035f830152611fcf8184611f7f565b905092915050565b5f606082019050611fea5f830186611dd7565b611ff76020830185611dd7565b6120046040830184611dd7565b949350505050565b5f80fd5b7f4e487b71000000000000000000000000000000000000000000000000000000005f52604160045260245ffd5b61204682611f6f565b810181811067ffffffffffffffff8211171561206557612064612010565b5b80604052505050565b5f612077611cfb565b9050612083828261203d565b919050565b5f67ffffffffffffffff8211156120a2576120a1612010565b5b602082029050602081019050919050565b5f80fd5b5f6120c96120c484612088565b61206e565b905080838252602082019050602084028301858111156120ec576120eb6120b3565b5b835b8181101561211557806121018882611d85565b8452602084019350506020810190506120ee565b5050509392505050565b5f82601f8301126121335761213261200c565b5b81356121438482602086016120b7565b91505092915050565b5f80fd5b5f67ffffffffffffffff82111561216a57612169612010565b5b61217382611f6f565b9050602081019050919050565b828183375f83830152505050565b5f6121a061219b84612150565b61206e565b9050828152602081018484840111156121bc576121bb61214c565b5b6121c7848285612180565b509392505050565b5f82601f8301126121e3576121e261200c565b5b81356121f384826020860161218e565b91505092915050565b5f805f805f60a0868803121561221557612214611d04565b5b5f61222288828901611d52565b955050602061223388828901611d52565b945050604086013567ffffffffffffffff81111561225457612253611d08565b5b6122608882890161211f565b935050606086013567ffffffffffffffff81111561228157612280611d08565b5b61228d8882890161211f565b925050608086013567ffffffffffffffff8111156122ae576122ad611d08565b5b6122ba888289016121cf565b9150509295509295909350565b5f67ffffffffffffffff8211156122e1576122e0612010565b5b602082029050602081019050919050565b5f6123046122ff846122c7565b61206e565b90508083825260208201905060208402830185811115612327576123266120b3565b5b835b81811015612350578061233c8882611d52565b845260208401935050602081019050612329565b5050509392505050565b5f82601f83011261236e5761236d61200c565b5b813561237e8482602086016122f2565b91505092915050565b5f806040838503121561239d5761239c611d04565b5b5f83013567ffffffffffffffff8111156123ba576123b9611d08565b5b6123c68582860161235a565b925050602083013567ffffffffffffffff8111156123e7576123e6611d08565b5b6123f38582860161211f565b9150509250929050565b5f81519050919050565b5f82825260208201905092915050565b5f819050602082019050919050565b61242f81611d66565b82525050565b5f6124408383612426565b60208301905092915050565b5f602082019050919050565b5f612462826123fd565b61246c8185612407565b935061247783612417565b805f5b838110156124a757815161248e8882612435565b97506124998361244c565b92505060018101905061247a565b5085935050505092915050565b5f6020820190508181035f8301526124cc8184612458565b905092915050565b5f80604083850312156124ea576124e9611d04565b5b5f6124f785828601611d85565b925050602061250885828601611d85565b9150509250929050565b61251b81611d2b565b82525050565b5f6020820190506125345f830184612512565b92915050565b61254381611e7f565b811461254d575f80fd5b50565b5f8135905061255e8161253a565b92915050565b5f806040838503121561257a57612579611d04565b5b5f61258785828601611d52565b925050602061259885828601612550565b9150509250929050565b5f80604083850312156125b8576125b7611d04565b5b5f6125c585828601611d52565b92505060206125d685828601611d52565b9150509250929050565b5f805f805f60a086880312156125f9576125f8611d04565b5b5f61260688828901611d52565b955050602061261788828901611d52565b945050604061262888828901611d85565b935050606061263988828901611d85565b925050608086013567ffffffffffffffff81111561265a57612659611d08565b5b612666888289016121cf565b9150509295509295909350565b5f6020828403121561268857612687611d04565b5b5f61269584828501611d52565b91505092915050565b7f455243313135353a2062616c616e636520717565727920666f7220746865207a5f8201527f65726f2061646472657373000000000000000000000000000000000000000000602082015250565b5f6126f8602b83611f37565b91506127038261269e565b604082019050919050565b5f6020820190508181035f830152612725816126ec565b9050919050565b7f4f776e61626c653a2063616c6c6572206973206e6f7420746865206f776e65725f82015250565b5f612760602083611f37565b915061276b8261272c565b602082019050919050565b5f6020820190508181035f83015261278d81612754565b9050919050565b7f4e487b71000000000000000000000000000000000000000000000000000000005f52601160045260245ffd5b5f6127cb82611d66565b91507fffffffffffffffffffffffffffffffffffffffffffffffffffffffffffffffff82036127fd576127fc612794565b5b600182019050919050565b5f60408201905061281b5f830185611dd7565b6128286020830184611dd7565b9392505050565b7f4e487b71000000000000000000000000000000000000000000000000000000005f52602260045260245ffd5b5f600282049050600182168061287357607f821691505b6020821081036128865761288561282f565b5b50919050565b7f455243313135353a2069647320616e6420616d6f756e7473206c656e677468205f8201527f6d69736d61746368000000000000000000000000000000000000000000000000602082015250565b5f6128e6602883611f37565b91506128f18261288c565b604082019050919050565b5f6020820190508181035f830152612913816128da565b9050919050565b7f455243313135353a207472616e7366657220746f20746865207a65726f2061645f8201527f6472657373000000000000000000000000000000000000000000000000000000602082015250565b5f612974602583611f37565b915061297f8261291a565b604082019050919050565b5f6020820190508181035f8301526129a181612968565b9050919050565b7f455243313135353a207472616e736665722063616c6c6572206973206e6f74205f8201527f6f776e6572206e6f7220617070726f7665640000000000000000000000000000602082015250565b5f612a02603283611f37565b9150612a0d826129a8565b604082019050919050565b5f6020820190508181035f830152612a2f816129f6565b9050919050565b7f4e487b71000000000000000000000000000000000000000000000000000000005f52603260045260245ffd5b7f455243313135353a20696e73756666696369656e742062616c616e636520666f5f8201527f72207472616e7366657200000000000000000000000000000000000000000000602082015250565b5f612abd602a83611f37565b9150612ac882612a63565b604082019050919050565b5f6020820190508181035f830152612aea81612ab1565b9050919050565b5f612afb82611d66565b9150612b0683611d66565b9250828203905081811115612b1e57612b1d612794565b5b92915050565b5f612b2e82611d66565b9150612b3983611d66565b9250828201905080821115612b5157612b50612794565b5b92915050565b5f6040820190508181035f830152612b6f8185612458565b90508181036020830152612b838184612458565b90509392505050565b7f455243313135353a206163636f756e747320616e6420696473206c656e6774685f8201527f206d69736d617463680000000000000000000000000000000000000000000000602082015250565b5f612be6602983611f37565b9150612bf182612b8c565b604082019050919050565b5f6020820190508181035f830152612c1381612bda565b9050919050565b7f546f6b656e20494420646f6573206e6f742065786973740000000000000000005f82015250565b5f612c4e601783611f37565b9150612c5982612c1a565b602082019050919050565b5f6020820190508181035f830152612c7b81612c42565b9050919050565b7f457863656564732072656d61696e696e6720616d6f756e7400000000000000005f82015250565b5f612cb6601883611f37565b9150612cc182612c82565b602082019050919050565b5f6020820190508181035f830152612ce381612caa565b9050919050565b7f496e76616c696420616d6f756e740000000000000000000000000000000000005f82015250565b5f612d1e600e83611f37565b9150612d2982612cea565b602082019050919050565b5f6020820190508181035f830152612d4b81612d12565b9050919050565b7f455243313135353a2073657474696e6720617070726f76616c207374617475735f8201527f20666f722073656c660000000000000000000000000000000000000000000000602082015250565b5f612dac602983611f37565b9150612db782612d52565b604082019050919050565b5f6020820190508181035f830152612dd981612da0565b9050919050565b5f81905092915050565b5f612df482611f2d565b612dfe8185612de0565b9350612e0e818560208601611f47565b80840191505092915050565b7f2e6a736f6e0000000000000000000000000000000000000000000000000000005f82015250565b5f612e4e600583612de0565b9150612e5982612e1a565b600582019050919050565b5f612e6f8285612dea565b9150612e7b8284612dea565b9150612e8682612e42565b91508190509392505050565b7f455243313135353a2063616c6c6572206973206e6f74206f776e6572206e6f725f8201527f20617070726f7665640000000000000000000000000000000000000000000000602082015250565b5f612eec602983611f37565b9150612ef782612e92565b604082019050919050565b5f6020820190508181035f830152612f1981612ee0565b9050919050565b7f4f776e61626c653a206e6577206f776e657220697320746865207a65726f20615f8201527f6464726573730000000000000000000000000000000000000000000000000000602082015250565b5f612f7a602683611f37565b9150612f8582612f20565b604082019050919050565b5f6020820190508181035f830152612fa781612f6e565b9050919050565b7f455243313135353a206d696e7420746f20746865207a65726f206164647265735f8201527f7300000000000000000000000000000000000000000000000000000000000000602082015250565b5f613008602183611f37565b915061301382612fae565b604082019050919050565b5f6020820190508181035f83015261303581612ffc565b9050919050565b5f81519050919050565b5f82825260208201905092915050565b5f6130608261303c565b61306a8185613046565b935061307a818560208601611f47565b61308381611f6f565b840191505092915050565b5f60a0820190506130a15f830188612512565b6130ae6020830187612512565b81810360408301526130c08186612458565b905081810360608301526130d48185612458565b905081810360808301526130e88184613056565b90509695505050505050565b5f8151905061310281611e2a565b92915050565b5f6020828403121561311d5761311c611d04565b5b5f61312a848285016130f4565b91505092915050565b5f8160e01c9050919050565b5f60033d111561315b5760045f803e6131585f51613133565b90505b90565b5f60443d106131ea5761316f611cfb565b60043d036004823e80513d602482011167ffffffffffffffff821117156131975750506131ea565b808201805167ffffffffffffffff8111156131b557505050506131ea565b80602083010160043d0385018111156131d25750505050506131ea565b6131e18260200185018661203d565b82955050505050505b90565b7f455243313135353a207472616e7366657220746f206e6f6e20455243313135355f8201527f526563656976657220696d706c656d656e746572000000000000000000000000602082015250565b5f613247603483611f37565b9150613252826131ed565b604082019050919050565b5f6020820190508181035f8301526132748161323b565b9050919050565b7f455243313135353a204552433131353552656365697665722072656a656374655f8201527f6420746f6b656e73000000000000000000000000000000000000000000000000602082015250565b5f6132d5602883611f37565b91506132e08261327b565b604082019050919050565b5f6020820190508181035f830152613302816132c9565b9050919050565b7f4e487b71000000000000000000000000000000000000000000000000000000005f52601260045260245ffd5b5f61334082611d66565b915061334b83611d66565b92508261335b5761335a613309565b5b828204905092915050565b5f61337082611d66565b915061337b83611d66565b92508261338b5761338a613309565b5b828206905092915050565b5f60a0820190506133a95f830188612512565b6133b66020830187612512565b6133c36040830186611dd7565b6133d06060830185611dd7565b81810360808301526133e28184613056565b9050969550505050505056fea264697066735822122037ee072ca24f409e947d83febbe3a1bd6b8818974d78c1f7cf3bc85b587e568064736f6c63430008180033",
  "immutableReferences": {},
  "source": "pragma solidity ^0.8.0;\r\n\r\nimport \"@openzeppelin/contracts/token/ERC1155/ERC1155.sol\";\r\nimport \"@openzeppelin/contracts/access/Ownable.sol\";\r\nimport \"@openzeppelin/contracts/utils/Strings.sol\";\r\n\r\ncontract SDVDiscountNFT is ERC1155, Ownable {\r\n    using Strings for uint256;\r\n\r\n    struct NFT {\r\n        uint256 initialSupply;\r\n        uint256 offchainPoints;\r\n        uint256 remainingAmount;\r\n    }\r\n\r\n    mapping(uint256 => NFT) public nfts;\r\n\r\n    uint256 private nextTokenId = 1;\r\n\r\n    event NFTMinted(uint256 indexed tokenId, uint256 initialSupply, uint256 offchainPoints);\r\n    event NFTPurchased(address indexed buyer, uint256 indexed tokenId, uint256 amount);\r\n\r\n    constructor(string memory baseTokenURI) ERC1155(baseTokenURI) {}\r\n\r\n    function mint(uint256 tokenId, uint256 initialSupply, uint256 offchainPoints) external onlyOwner {\r\n        uint256 tokenId = nextTokenId++;\r\n        _mint(owner(), tokenId, initialSupply, \"\");\r\n        nfts[tokenId] = NFT(initialSupply, offchainPoints, initialSupply);\r\n        emit NFTMinted(tokenId, initialSupply, offchainPoints);\r\n    }\r\n\r\n    function purchaseNFTWithPoints(uint256 tokenId, uint256 amount) external {\r\n    require(tokenId < nextTokenId, \"Token ID does not exist\");\r\n    require(amount <= nfts[tokenId].remainingAmount, \"Exceeds remaining amount\");\r\n    require(amount > 0, \"Invalid amount\");\r\n\r\n    //require(amount <= nfts[tokenId].initialSupply, \"Exceeds initial supply\");\r\n\r\n    safeTransferFrom(owner(), msg.sender, tokenId, amount, \"\");\r\n    nfts[tokenId].remainingAmount -= amount;\r\n    emit NFTPurchased(msg.sender, tokenId, amount);\r\n}\r\n\r\n    function tokenURI(uint256 tokenId) external view returns (string memory) {\r\n        require(tokenId < nextTokenId, \"Token ID does not exist\");\r\n        return string(abi.encodePacked(uri(tokenId), tokenId.toString(), \".json\"));\r\n    }\r\n}\r\n",
  "sourcePath": "C:\\Users\\i\\Documents\\GitHub\\DSP-old\\contracts\\contracts\\SDVDiscountNFT.sol",
  "compiler": {
    "name": "solc",
    "version": "0.8.24+commit.e11b9ed9.Emscripten.clang"
  },
  "schemaVersion": "3.4.16",
  "updatedAt": "2024-03-07T15:16:47.066Z",
  "devdoc": {
    "events": {
      "ApprovalForAll(address,address,bool)": {
        "details": "Emitted when `account` grants or revokes permission to `operator` to transfer their tokens, according to `approved`."
      },
      "TransferBatch(address,address,address,uint256[],uint256[])": {
        "details": "Equivalent to multiple {TransferSingle} events, where `operator`, `from` and `to` are the same for all transfers."
      },
      "TransferSingle(address,address,address,uint256,uint256)": {
        "details": "Emitted when `value` tokens of token type `id` are transferred from `from` to `to` by `operator`."
      },
      "URI(string,uint256)": {
        "details": "Emitted when the URI for token type `id` changes to `value`, if it is a non-programmatic URI. If an {URI} event was emitted for `id`, the standard https://eips.ethereum.org/EIPS/eip-1155#metadata-extensions[guarantees] that `value` will equal the value returned by {IERC1155MetadataURI-uri}."
      }
    },
    "kind": "dev",
    "methods": {
      "balanceOf(address,uint256)": {
        "details": "See {IERC1155-balanceOf}. Requirements: - `account` cannot be the zero address."
      },
      "balanceOfBatch(address[],uint256[])": {
        "details": "See {IERC1155-balanceOfBatch}. Requirements: - `accounts` and `ids` must have the same length."
      },
      "isApprovedForAll(address,address)": {
        "details": "See {IERC1155-isApprovedForAll}."
      },
      "owner()": {
        "details": "Returns the address of the current owner."
      },
      "renounceOwnership()": {
        "details": "Leaves the contract without owner. It will not be possible to call `onlyOwner` functions anymore. Can only be called by the current owner. NOTE: Renouncing ownership will leave the contract without an owner, thereby removing any functionality that is only available to the owner."
      },
      "safeBatchTransferFrom(address,address,uint256[],uint256[],bytes)": {
        "details": "See {IERC1155-safeBatchTransferFrom}."
      },
      "safeTransferFrom(address,address,uint256,uint256,bytes)": {
        "details": "See {IERC1155-safeTransferFrom}."
      },
      "setApprovalForAll(address,bool)": {
        "details": "See {IERC1155-setApprovalForAll}."
      },
      "supportsInterface(bytes4)": {
        "details": "See {IERC165-supportsInterface}."
      },
      "transferOwnership(address)": {
        "details": "Transfers ownership of the contract to a new account (`newOwner`). Can only be called by the current owner."
      },
      "uri(uint256)": {
        "details": "See {IERC1155MetadataURI-uri}. This implementation returns the same URI for *all* token types. It relies on the token type ID substitution mechanism https://eips.ethereum.org/EIPS/eip-1155#metadata[defined in the EIP]. Clients calling this function must replace the `\\{id\\}` substring with the actual token type ID."
      }
    },
    "version": 1
  },
  "userdoc": {
    "kind": "user",
    "methods": {},
    "version": 1
  }
}