{
  "contractName": "SDVDiscountNFT",
  "abi": [
    {
      "inputs": [
        {
          "internalType": "string",
          "name": "baseTokenURI",
          "type": "string"
        }
      ],
      "stateMutability": "nonpayable",
      "type": "constructor"
    },
    {
      "anonymous": false,
      "inputs": [
        {
          "indexed": true,
          "internalType": "address",
          "name": "account",
          "type": "address"
        },
        {
          "indexed": true,
          "internalType": "address",
          "name": "operator",
          "type": "address"
        },
        {
          "indexed": false,
          "internalType": "bool",
          "name": "approved",
          "type": "bool"
        }
      ],
      "name": "ApprovalForAll",
      "type": "event"
    },
    {
      "anonymous": false,
      "inputs": [
        {
          "indexed": true,
          "internalType": "uint256",
          "name": "tokenId",
          "type": "uint256"
        },
        {
          "indexed": false,
          "internalType": "uint256",
          "name": "price",
          "type": "uint256"
        }
      ],
      "name": "NFTMinted",
      "type": "event"
    },
    {
      "anonymous": false,
      "inputs": [
        {
          "indexed": true,
          "internalType": "address",
          "name": "previousOwner",
          "type": "address"
        },
        {
          "indexed": true,
          "internalType": "address",
          "name": "newOwner",
          "type": "address"
        }
      ],
      "name": "OwnershipTransferred",
      "type": "event"
    },
    {
      "anonymous": false,
      "inputs": [
        {
          "indexed": true,
          "internalType": "address",
          "name": "operator",
          "type": "address"
        },
        {
          "indexed": true,
          "internalType": "address",
          "name": "from",
          "type": "address"
        },
        {
          "indexed": true,
          "internalType": "address",
          "name": "to",
          "type": "address"
        },
        {
          "indexed": false,
          "internalType": "uint256[]",
          "name": "ids",
          "type": "uint256[]"
        },
        {
          "indexed": false,
          "internalType": "uint256[]",
          "name": "values",
          "type": "uint256[]"
        }
      ],
      "name": "TransferBatch",
      "type": "event"
    },
    {
      "anonymous": false,
      "inputs": [
        {
          "indexed": true,
          "internalType": "address",
          "name": "operator",
          "type": "address"
        },
        {
          "indexed": true,
          "internalType": "address",
          "name": "from",
          "type": "address"
        },
        {
          "indexed": true,
          "internalType": "address",
          "name": "to",
          "type": "address"
        },
        {
          "indexed": false,
          "internalType": "uint256",
          "name": "id",
          "type": "uint256"
        },
        {
          "indexed": false,
          "internalType": "uint256",
          "name": "value",
          "type": "uint256"
        }
      ],
      "name": "TransferSingle",
      "type": "event"
    },
    {
      "anonymous": false,
      "inputs": [
        {
          "indexed": false,
          "internalType": "string",
          "name": "value",
          "type": "string"
        },
        {
          "indexed": true,
          "internalType": "uint256",
          "name": "id",
          "type": "uint256"
        }
      ],
      "name": "URI",
      "type": "event"
    },
    {
      "inputs": [
        {
          "internalType": "address",
          "name": "account",
          "type": "address"
        },
        {
          "internalType": "uint256",
          "name": "id",
          "type": "uint256"
        }
      ],
      "name": "balanceOf",
      "outputs": [
        {
          "internalType": "uint256",
          "name": "",
          "type": "uint256"
        }
      ],
      "stateMutability": "view",
      "type": "function",
      "constant": true
    },
    {
      "inputs": [
        {
          "internalType": "address[]",
          "name": "accounts",
          "type": "address[]"
        },
        {
          "internalType": "uint256[]",
          "name": "ids",
          "type": "uint256[]"
        }
      ],
      "name": "balanceOfBatch",
      "outputs": [
        {
          "internalType": "uint256[]",
          "name": "",
          "type": "uint256[]"
        }
      ],
      "stateMutability": "view",
      "type": "function",
      "constant": true
    },
    {
      "inputs": [
        {
          "internalType": "address",
          "name": "account",
          "type": "address"
        },
        {
          "internalType": "address",
          "name": "operator",
          "type": "address"
        }
      ],
      "name": "isApprovedForAll",
      "outputs": [
        {
          "internalType": "bool",
          "name": "",
          "type": "bool"
        }
      ],
      "stateMutability": "view",
      "type": "function",
      "constant": true
    },
    {
      "inputs": [],
      "name": "owner",
      "outputs": [
        {
          "internalType": "address",
          "name": "",
          "type": "address"
        }
      ],
      "stateMutability": "view",
      "type": "function",
      "constant": true
    },
    {
      "inputs": [],
      "name": "renounceOwnership",
      "outputs": [],
      "stateMutability": "nonpayable",
      "type": "function"
    },
    {
      "inputs": [
        {
          "internalType": "address",
          "name": "from",
          "type": "address"
        },
        {
          "internalType": "address",
          "name": "to",
          "type": "address"
        },
        {
          "internalType": "uint256[]",
          "name": "ids",
          "type": "uint256[]"
        },
        {
          "internalType": "uint256[]",
          "name": "amounts",
          "type": "uint256[]"
        },
        {
          "internalType": "bytes",
          "name": "data",
          "type": "bytes"
        }
      ],
      "name": "safeBatchTransferFrom",
      "outputs": [],
      "stateMutability": "nonpayable",
      "type": "function"
    },
    {
      "inputs": [
        {
          "internalType": "address",
          "name": "from",
          "type": "address"
        },
        {
          "internalType": "address",
          "name": "to",
          "type": "address"
        },
        {
          "internalType": "uint256",
          "name": "id",
          "type": "uint256"
        },
        {
          "internalType": "uint256",
          "name": "amount",
          "type": "uint256"
        },
        {
          "internalType": "bytes",
          "name": "data",
          "type": "bytes"
        }
      ],
      "name": "safeTransferFrom",
      "outputs": [],
      "stateMutability": "nonpayable",
      "type": "function"
    },
    {
      "inputs": [
        {
          "internalType": "address",
          "name": "operator",
          "type": "address"
        },
        {
          "internalType": "bool",
          "name": "approved",
          "type": "bool"
        }
      ],
      "name": "setApprovalForAll",
      "outputs": [],
      "stateMutability": "nonpayable",
      "type": "function"
    },
    {
      "inputs": [
        {
          "internalType": "bytes4",
          "name": "interfaceId",
          "type": "bytes4"
        }
      ],
      "name": "supportsInterface",
      "outputs": [
        {
          "internalType": "bool",
          "name": "",
          "type": "bool"
        }
      ],
      "stateMutability": "view",
      "type": "function",
      "constant": true
    },
    {
      "inputs": [
        {
          "internalType": "address",
          "name": "newOwner",
          "type": "address"
        }
      ],
      "name": "transferOwnership",
      "outputs": [],
      "stateMutability": "nonpayable",
      "type": "function"
    },
    {
      "inputs": [
        {
          "internalType": "uint256",
          "name": "",
          "type": "uint256"
        }
      ],
      "name": "uri",
      "outputs": [
        {
          "internalType": "string",
          "name": "",
          "type": "string"
        }
      ],
      "stateMutability": "view",
      "type": "function",
      "constant": true
    },
    {
      "inputs": [
        {
          "internalType": "uint256",
          "name": "tokenId",
          "type": "uint256"
        },
        {
          "internalType": "uint256",
          "name": "initialSupply",
          "type": "uint256"
        },
        {
          "internalType": "uint256",
          "name": "price",
          "type": "uint256"
        }
      ],
      "name": "mint",
      "outputs": [],
      "stateMutability": "nonpayable",
      "type": "function"
    },
    {
      "inputs": [
        {
          "internalType": "uint256",
          "name": "tokenId",
          "type": "uint256"
        },
        {
          "internalType": "uint256",
          "name": "amount",
          "type": "uint256"
        },
        {
          "internalType": "uint256",
          "name": "offchainPoints",
          "type": "uint256"
        },
        {
          "internalType": "uint256",
          "name": "price",
          "type": "uint256"
        }
      ],
      "name": "purchaseNFTWithPoints",
      "outputs": [],
      "stateMutability": "nonpayable",
      "type": "function"
    },
    {
      "inputs": [
        {
          "internalType": "uint256",
          "name": "tokenId",
          "type": "uint256"
        }
      ],
      "name": "tokenURI",
      "outputs": [
        {
          "internalType": "string",
          "name": "",
          "type": "string"
        }
      ],
      "stateMutability": "view",
      "type": "function",
      "constant": true
    }
  ],
  "bytecode": "0x60806040523480156200001157600080fd5b50604051620038b4380380620038b4833981810160405281019062000037919062000248565b8062000049816200010260201b60201c565b5060006200005c6200011e60201b60201c565b905080600360006101000a81548173ffffffffffffffffffffffffffffffffffffffff021916908373ffffffffffffffffffffffffffffffffffffffff1602179055508073ffffffffffffffffffffffffffffffffffffffff16600073ffffffffffffffffffffffffffffffffffffffff167f8be0079c531659141344cd1fd0a4f28419497f9722a3daafe3b4186f6b6457e060405160405180910390a35050620003be565b80600290805190602001906200011a92919062000126565b5050565b600033905090565b82805462000134906200032a565b90600052602060002090601f016020900481019282620001585760008555620001a4565b82601f106200017357805160ff1916838001178555620001a4565b82800160010185558215620001a4579182015b82811115620001a357825182559160200191906001019062000186565b5b509050620001b39190620001b7565b5090565b5b80821115620001d2576000816000905550600101620001b8565b5090565b6000620001ed620001e784620002c1565b6200028d565b9050828152602081018484840111156200020657600080fd5b62000213848285620002f4565b509392505050565b600082601f8301126200022d57600080fd5b81516200023f848260208601620001d6565b91505092915050565b6000602082840312156200025b57600080fd5b600082015167ffffffffffffffff8111156200027657600080fd5b62000284848285016200021b565b91505092915050565b6000604051905081810181811067ffffffffffffffff82111715620002b757620002b66200038f565b5b8060405250919050565b600067ffffffffffffffff821115620002df57620002de6200038f565b5b601f19601f8301169050602081019050919050565b60005b8381101562000314578082015181840152602081019050620002f7565b8381111562000324576000848401525b50505050565b600060028204905060018216806200034357607f821691505b602082108114156200035a576200035962000360565b5b50919050565b7f4e487b7100000000000000000000000000000000000000000000000000000000600052602260045260246000fd5b7f4e487b7100000000000000000000000000000000000000000000000000000000600052604160045260246000fd5b6134e680620003ce6000396000f3fe608060405234801561001057600080fd5b50600436106100e95760003560e01c80638da5cb5b1161008c578063c87b56dd11610066578063c87b56dd14610246578063e985e9c514610276578063f242432a146102a6578063f2fde38b146102c2576100e9565b80638da5cb5b146101f0578063a22cb4651461020e578063ba8cc0831461022a576100e9565b80630e89341c116100c85780630e89341c1461016a5780632eb2c2d61461019a5780634e1273f4146101b6578063715018a6146101e6576100e9565b8062fdd58e146100ee57806301ffc9a71461011e57806302acc94b1461014e575b600080fd5b61010860048036038101906101039190612200565b6102de565b6040516101159190612ed4565b60405180910390f35b610138600480360381019061013391906122a8565b6103a7565b6040516101459190612c97565b60405180910390f35b61016860048036038101906101639190612323565b610489565b005b610184600480360381019061017f91906122fa565b6105f1565b6040516101919190612cb2565b60405180910390f35b6101b460048036038101906101af9190612076565b610685565b005b6101d060048036038101906101cb919061223c565b610a7b565b6040516101dd9190612c3e565b60405180910390f35b6101ee610c2c565b005b6101f8610d69565b6040516102059190612b61565b60405180910390f35b610228600480360381019061022391906121c4565b610d93565b005b610244600480360381019061023f9190612372565b610f14565b005b610260600480360381019061025b91906122fa565b610feb565b60405161026d9190612cb2565b60405180910390f35b610290600480360381019061028b919061203a565b611086565b60405161029d9190612c97565b60405180910390f35b6102c060048036038101906102bb9190612135565b61111a565b005b6102dc60048036038101906102d79190612011565b611432565b005b60008073ffffffffffffffffffffffffffffffffffffffff168373ffffffffffffffffffffffffffffffffffffffff16141561034f576040517f08c379a000000000000000000000000000000000000000000000000000000000815260040161034690612d14565b60405180910390fd5b60008083815260200190815260200160002060008473ffffffffffffffffffffffffffffffffffffffff1673ffffffffffffffffffffffffffffffffffffffff16815260200190815260200160002054905092915050565b60007fd9b67a26000000000000000000000000000000000000000000000000000000007bffffffffffffffffffffffffffffffffffffffffffffffffffffffff1916827bffffffffffffffffffffffffffffffffffffffffffffffffffffffff1916148061047257507f0e89341c000000000000000000000000000000000000000000000000000000007bffffffffffffffffffffffffffffffffffffffffffffffffffffffff1916827bffffffffffffffffffffffffffffffffffffffffffffffffffffffff1916145b806104825750610481826115de565b5b9050919050565b610491611648565b73ffffffffffffffffffffffffffffffffffffffff166104af610d69565b73ffffffffffffffffffffffffffffffffffffffff1614610505576040517f08c379a00000000000000000000000000000000000000000000000000000000081526004016104fc90612e14565b60405180910390fd5b6004600084815260200190815260200160002060009054906101000a900460ff1615610566576040517f08c379a000000000000000000000000000000000000000000000000000000000815260040161055d90612eb4565b60405180910390fd5b610588610571610d69565b848460405180602001604052806000815250611650565b60016004600085815260200190815260200160002060006101000a81548160ff021916908315150217905550827fd4c3f7782ecae0d1a12013592109b1bf02689d7f4e8ab653c75a61aea745e3be826040516105e49190612ed4565b60405180910390a2505050565b60606002805461060090613218565b80601f016020809104026020016040519081016040528092919081815260200182805461062c90613218565b80156106795780601f1061064e57610100808354040283529160200191610679565b820191906000526020600020905b81548152906001019060200180831161065c57829003601f168201915b50505050509050919050565b81518351146106c9576040517f08c379a00000000000000000000000000000000000000000000000000000000081526004016106c090612e74565b60405180910390fd5b600073ffffffffffffffffffffffffffffffffffffffff168473ffffffffffffffffffffffffffffffffffffffff161415610739576040517f08c379a000000000000000000000000000000000000000000000000000000000815260040161073090612db4565b60405180910390fd5b610741611648565b73ffffffffffffffffffffffffffffffffffffffff168573ffffffffffffffffffffffffffffffffffffffff161480610787575061078685610781611648565b611086565b5b6107c6576040517f08c379a00000000000000000000000000000000000000000000000000000000081526004016107bd90612dd4565b60405180910390fd5b60006107d0611648565b90506107e08187878787876117e6565b60005b84518110156109e6576000858281518110610827577f4e487b7100000000000000000000000000000000000000000000000000000000600052603260045260246000fd5b60200260200101519050600085838151811061086c577f4e487b7100000000000000000000000000000000000000000000000000000000600052603260045260246000fd5b60200260200101519050600080600084815260200190815260200160002060008b73ffffffffffffffffffffffffffffffffffffffff1673ffffffffffffffffffffffffffffffffffffffff1681526020019081526020016000205490508181101561090d576040517f08c379a000000000000000000000000000000000000000000000000000000000815260040161090490612df4565b60405180910390fd5b8181610919919061312e565b60008085815260200190815260200160002060008c73ffffffffffffffffffffffffffffffffffffffff1673ffffffffffffffffffffffffffffffffffffffff168152602001908152602001600020819055508160008085815260200190815260200160002060008b73ffffffffffffffffffffffffffffffffffffffff1673ffffffffffffffffffffffffffffffffffffffff16815260200190815260200160002060008282546109cb919061304d565b92505081905550505050806109df9061324a565b90506107e3565b508473ffffffffffffffffffffffffffffffffffffffff168673ffffffffffffffffffffffffffffffffffffffff168273ffffffffffffffffffffffffffffffffffffffff167f4a39dc06d4c0dbc64b70af90fd698a233a518aa5d07e595d983b8c0526c8f7fb8787604051610a5d929190612c60565b60405180910390a4610a738187878787876117ee565b505050505050565b60608151835114610ac1576040517f08c379a0000000000000000000000000000000000000000000000000000000008152600401610ab890612e54565b60405180910390fd5b6000835167ffffffffffffffff811115610b04577f4e487b7100000000000000000000000000000000000000000000000000000000600052604160045260246000fd5b604051908082528060200260200182016040528015610b325781602001602082028036833780820191505090505b50905060005b8451811015610c2157610bcb858281518110610b7d577f4e487b7100000000000000000000000000000000000000000000000000000000600052603260045260246000fd5b6020026020010151858381518110610bbe577f4e487b7100000000000000000000000000000000000000000000000000000000600052603260045260246000fd5b60200260200101516102de565b828281518110610c04577f4e487b7100000000000000000000000000000000000000000000000000000000600052603260045260246000fd5b60200260200101818152505080610c1a9061324a565b9050610b38565b508091505092915050565b610c34611648565b73ffffffffffffffffffffffffffffffffffffffff16610c52610d69565b73ffffffffffffffffffffffffffffffffffffffff1614610ca8576040517f08c379a0000000000000000000000000000000000000000000000000000000008152600401610c9f90612e14565b60405180910390fd5b600073ffffffffffffffffffffffffffffffffffffffff16600360009054906101000a900473ffffffffffffffffffffffffffffffffffffffff1673ffffffffffffffffffffffffffffffffffffffff167f8be0079c531659141344cd1fd0a4f28419497f9722a3daafe3b4186f6b6457e060405160405180910390a36000600360006101000a81548173ffffffffffffffffffffffffffffffffffffffff021916908373ffffffffffffffffffffffffffffffffffffffff160217905550565b6000600360009054906101000a900473ffffffffffffffffffffffffffffffffffffffff16905090565b8173ffffffffffffffffffffffffffffffffffffffff16610db2611648565b73ffffffffffffffffffffffffffffffffffffffff161415610e09576040517f08c379a0000000000000000000000000000000000000000000000000000000008152600401610e0090612e34565b60405180910390fd5b8060016000610e16611648565b73ffffffffffffffffffffffffffffffffffffffff1673ffffffffffffffffffffffffffffffffffffffff16815260200190815260200160002060008473ffffffffffffffffffffffffffffffffffffffff1673ffffffffffffffffffffffffffffffffffffffff16815260200190815260200160002060006101000a81548160ff0219169083151502179055508173ffffffffffffffffffffffffffffffffffffffff16610ec3611648565b73ffffffffffffffffffffffffffffffffffffffff167f17307eab39ab6107e8899845ad3d59bd9653f200f220920489ca2b5937696c3183604051610f089190612c97565b60405180910390a35050565b6004600085815260200190815260200160002060009054906101000a900460ff16610f74576040517f08c379a0000000000000000000000000000000000000000000000000000000008152600401610f6b90612d94565b60405180910390fd5b8281610f8091906130d4565b821015610fc2576040517f08c379a0000000000000000000000000000000000000000000000000000000008152600401610fb990612d74565b60405180910390fd5b610fe5610fcd610d69565b3386866040518060200160405280600081525061111a565b50505050565b60606004600083815260200190815260200160002060009054906101000a900460ff1661104d576040517f08c379a000000000000000000000000000000000000000000000000000000000815260040161104490612d94565b60405180910390fd5b611056826105f1565b61105f836119be565b604051602001611070929190612b32565b6040516020818303038152906040529050919050565b6000600160008473ffffffffffffffffffffffffffffffffffffffff1673ffffffffffffffffffffffffffffffffffffffff16815260200190815260200160002060008373ffffffffffffffffffffffffffffffffffffffff1673ffffffffffffffffffffffffffffffffffffffff16815260200190815260200160002060009054906101000a900460ff16905092915050565b600073ffffffffffffffffffffffffffffffffffffffff168473ffffffffffffffffffffffffffffffffffffffff16141561118a576040517f08c379a000000000000000000000000000000000000000000000000000000000815260040161118190612db4565b60405180910390fd5b611192611648565b73ffffffffffffffffffffffffffffffffffffffff168573ffffffffffffffffffffffffffffffffffffffff1614806111d857506111d7856111d2611648565b611086565b5b611217576040517f08c379a000000000000000000000000000000000000000000000000000000000815260040161120e90612d54565b60405180910390fd5b6000611221611648565b905061124181878761123288611b6b565b61123b88611b6b565b876117e6565b600080600086815260200190815260200160002060008873ffffffffffffffffffffffffffffffffffffffff1673ffffffffffffffffffffffffffffffffffffffff168152602001908152602001600020549050838110156112d8576040517f08c379a00000000000000000000000000000000000000000000000000000000081526004016112cf90612df4565b60405180910390fd5b83816112e4919061312e565b60008087815260200190815260200160002060008973ffffffffffffffffffffffffffffffffffffffff1673ffffffffffffffffffffffffffffffffffffffff168152602001908152602001600020819055508360008087815260200190815260200160002060008873ffffffffffffffffffffffffffffffffffffffff1673ffffffffffffffffffffffffffffffffffffffff1681526020019081526020016000206000828254611396919061304d565b925050819055508573ffffffffffffffffffffffffffffffffffffffff168773ffffffffffffffffffffffffffffffffffffffff168373ffffffffffffffffffffffffffffffffffffffff167fc3d58168c5ae7397731d063d5bbf3d657854427343f4c083240f7aacaa2d0f628888604051611413929190612eef565b60405180910390a4611429828888888888611c31565b50505050505050565b61143a611648565b73ffffffffffffffffffffffffffffffffffffffff16611458610d69565b73ffffffffffffffffffffffffffffffffffffffff16146114ae576040517f08c379a00000000000000000000000000000000000000000000000000000000081526004016114a590612e14565b60405180910390fd5b600073ffffffffffffffffffffffffffffffffffffffff168173ffffffffffffffffffffffffffffffffffffffff16141561151e576040517f08c379a000000000000000000000000000000000000000000000000000000000815260040161151590612d34565b60405180910390fd5b8073ffffffffffffffffffffffffffffffffffffffff16600360009054906101000a900473ffffffffffffffffffffffffffffffffffffffff1673ffffffffffffffffffffffffffffffffffffffff167f8be0079c531659141344cd1fd0a4f28419497f9722a3daafe3b4186f6b6457e060405160405180910390a380600360006101000a81548173ffffffffffffffffffffffffffffffffffffffff021916908373ffffffffffffffffffffffffffffffffffffffff16021790555050565b60007f01ffc9a7000000000000000000000000000000000000000000000000000000007bffffffffffffffffffffffffffffffffffffffffffffffffffffffff1916827bffffffffffffffffffffffffffffffffffffffffffffffffffffffff1916149050919050565b600033905090565b600073ffffffffffffffffffffffffffffffffffffffff168473ffffffffffffffffffffffffffffffffffffffff1614156116c0576040517f08c379a00000000000000000000000000000000000000000000000000000000081526004016116b790612e94565b60405180910390fd5b60006116ca611648565b90506116eb816000876116dc88611b6b565b6116e588611b6b565b876117e6565b8260008086815260200190815260200160002060008773ffffffffffffffffffffffffffffffffffffffff1673ffffffffffffffffffffffffffffffffffffffff168152602001908152602001600020600082825461174a919061304d565b925050819055508473ffffffffffffffffffffffffffffffffffffffff16600073ffffffffffffffffffffffffffffffffffffffff168273ffffffffffffffffffffffffffffffffffffffff167fc3d58168c5ae7397731d063d5bbf3d657854427343f4c083240f7aacaa2d0f6287876040516117c8929190612eef565b60405180910390a46117df81600087878787611c31565b5050505050565b505050505050565b61180d8473ffffffffffffffffffffffffffffffffffffffff16611e01565b156119b6578373ffffffffffffffffffffffffffffffffffffffff1663bc197c8187878686866040518663ffffffff1660e01b8152600401611853959493929190612b7c565b602060405180830381600087803b15801561186d57600080fd5b505af192505050801561189e57506040513d601f19601f8201168201806040525081019061189b91906122d1565b60015b61192d576118aa61339e565b806118b557506118f2565b806040517f08c379a00000000000000000000000000000000000000000000000000000000081526004016118e99190612cb2565b60405180910390fd5b6040517f08c379a000000000000000000000000000000000000000000000000000000000815260040161192490612cd4565b60405180910390fd5b63bc197c8160e01b7bffffffffffffffffffffffffffffffffffffffffffffffffffffffff1916817bffffffffffffffffffffffffffffffffffffffffffffffffffffffff1916146119b4576040517f08c379a00000000000000000000000000000000000000000000000000000000081526004016119ab90612cf4565b60405180910390fd5b505b505050505050565b60606000821415611a06576040518060400160405280600181526020017f30000000000000000000000000000000000000000000000000000000000000008152509050611b66565b600082905060005b60008214611a38578080611a219061324a565b915050600a82611a3191906130a3565b9150611a0e565b60008167ffffffffffffffff811115611a7a577f4e487b7100000000000000000000000000000000000000000000000000000000600052604160045260246000fd5b6040519080825280601f01601f191660200182016040528015611aac5781602001600182028036833780820191505090505b5090505b60008514611b5f57600182611ac5919061312e565b9150600a85611ad49190613293565b6030611ae0919061304d565b60f81b818381518110611b1c577f4e487b7100000000000000000000000000000000000000000000000000000000600052603260045260246000fd5b60200101907effffffffffffffffffffffffffffffffffffffffffffffffffffffffffffff1916908160001a905350600a85611b5891906130a3565b9450611ab0565b8093505050505b919050565b60606000600167ffffffffffffffff811115611bb0577f4e487b7100000000000000000000000000000000000000000000000000000000600052604160045260246000fd5b604051908082528060200260200182016040528015611bde5781602001602082028036833780820191505090505b5090508281600081518110611c1c577f4e487b7100000000000000000000000000000000000000000000000000000000600052603260045260246000fd5b60200260200101818152505080915050919050565b611c508473ffffffffffffffffffffffffffffffffffffffff16611e01565b15611df9578373ffffffffffffffffffffffffffffffffffffffff1663f23a6e6187878686866040518663ffffffff1660e01b8152600401611c96959493929190612be4565b602060405180830381600087803b158015611cb057600080fd5b505af1925050508015611ce157506040513d601f19601f82011682018060405250810190611cde91906122d1565b60015b611d7057611ced61339e565b80611cf85750611d35565b806040517f08c379a0000000000000000000000000000000000000000000000000000000008152600401611d2c9190612cb2565b60405180910390fd5b6040517f08c379a0000000000000000000000000000000000000000000000000000000008152600401611d6790612cd4565b60405180910390fd5b63f23a6e6160e01b7bffffffffffffffffffffffffffffffffffffffffffffffffffffffff1916817bffffffffffffffffffffffffffffffffffffffffffffffffffffffff191614611df7576040517f08c379a0000000000000000000000000000000000000000000000000000000008152600401611dee90612cf4565b60405180910390fd5b505b505050505050565b600080823b905060008111915050919050565b6000611e27611e2284612f49565b612f18565b90508083825260208201905082856020860282011115611e4657600080fd5b60005b85811015611e765781611e5c8882611f2a565b845260208401935060208301925050600181019050611e49565b5050509392505050565b6000611e93611e8e84612f75565b612f18565b90508083825260208201905082856020860282011115611eb257600080fd5b60005b85811015611ee25781611ec88882611ffc565b845260208401935060208301925050600181019050611eb5565b5050509392505050565b6000611eff611efa84612fa1565b612f18565b905082815260208101848484011115611f1757600080fd5b611f228482856131d6565b509392505050565b600081359050611f3981613454565b92915050565b600082601f830112611f5057600080fd5b8135611f60848260208601611e14565b91505092915050565b600082601f830112611f7a57600080fd5b8135611f8a848260208601611e80565b91505092915050565b600081359050611fa28161346b565b92915050565b600081359050611fb781613482565b92915050565b600081519050611fcc81613482565b92915050565b600082601f830112611fe357600080fd5b8135611ff3848260208601611eec565b91505092915050565b60008135905061200b81613499565b92915050565b60006020828403121561202357600080fd5b600061203184828501611f2a565b91505092915050565b6000806040838503121561204d57600080fd5b600061205b85828601611f2a565b925050602061206c85828601611f2a565b9150509250929050565b600080600080600060a0868803121561208e57600080fd5b600061209c88828901611f2a565b95505060206120ad88828901611f2a565b945050604086013567ffffffffffffffff8111156120ca57600080fd5b6120d688828901611f69565b935050606086013567ffffffffffffffff8111156120f357600080fd5b6120ff88828901611f69565b925050608086013567ffffffffffffffff81111561211c57600080fd5b61212888828901611fd2565b9150509295509295909350565b600080600080600060a0868803121561214d57600080fd5b600061215b88828901611f2a565b955050602061216c88828901611f2a565b945050604061217d88828901611ffc565b935050606061218e88828901611ffc565b925050608086013567ffffffffffffffff8111156121ab57600080fd5b6121b788828901611fd2565b9150509295509295909350565b600080604083850312156121d757600080fd5b60006121e585828601611f2a565b92505060206121f685828601611f93565b9150509250929050565b6000806040838503121561221357600080fd5b600061222185828601611f2a565b925050602061223285828601611ffc565b9150509250929050565b6000806040838503121561224f57600080fd5b600083013567ffffffffffffffff81111561226957600080fd5b61227585828601611f3f565b925050602083013567ffffffffffffffff81111561229257600080fd5b61229e85828601611f69565b9150509250929050565b6000602082840312156122ba57600080fd5b60006122c884828501611fa8565b91505092915050565b6000602082840312156122e357600080fd5b60006122f184828501611fbd565b91505092915050565b60006020828403121561230c57600080fd5b600061231a84828501611ffc565b91505092915050565b60008060006060848603121561233857600080fd5b600061234686828701611ffc565b935050602061235786828701611ffc565b925050604061236886828701611ffc565b9150509250925092565b6000806000806080858703121561238857600080fd5b600061239687828801611ffc565b94505060206123a787828801611ffc565b93505060406123b887828801611ffc565b92505060606123c987828801611ffc565b91505092959194509250565b60006123e18383612b14565b60208301905092915050565b6123f681613162565b82525050565b600061240782612fe1565b612411818561300f565b935061241c83612fd1565b8060005b8381101561244d57815161243488826123d5565b975061243f83613002565b925050600181019050612420565b5085935050505092915050565b61246381613174565b82525050565b600061247482612fec565b61247e8185613020565b935061248e8185602086016131e5565b61249781613380565b840191505092915050565b60006124ad82612ff7565b6124b78185613031565b93506124c78185602086016131e5565b6124d081613380565b840191505092915050565b60006124e682612ff7565b6124f08185613042565b93506125008185602086016131e5565b80840191505092915050565b6000612519603483613031565b91507f455243313135353a207472616e7366657220746f206e6f6e204552433131353560008301527f526563656976657220696d706c656d656e7465720000000000000000000000006020830152604082019050919050565b600061257f602883613031565b91507f455243313135353a204552433131353552656365697665722072656a6563746560008301527f6420746f6b656e730000000000000000000000000000000000000000000000006020830152604082019050919050565b60006125e5602b83613031565b91507f455243313135353a2062616c616e636520717565727920666f7220746865207a60008301527f65726f20616464726573730000000000000000000000000000000000000000006020830152604082019050919050565b600061264b602683613031565b91507f4f776e61626c653a206e6577206f776e657220697320746865207a65726f206160008301527f64647265737300000000000000000000000000000000000000000000000000006020830152604082019050919050565b60006126b1602983613031565b91507f455243313135353a2063616c6c6572206973206e6f74206f776e6572206e6f7260008301527f20617070726f76656400000000000000000000000000000000000000000000006020830152604082019050919050565b6000612717601d83613031565b91507f496e73756666696369656e74206f66662d636861696e20706f696e74730000006000830152602082019050919050565b6000612757601783613031565b91507f546f6b656e20494420646f6573206e6f742065786973740000000000000000006000830152602082019050919050565b6000612797602583613031565b91507f455243313135353a207472616e7366657220746f20746865207a65726f20616460008301527f64726573730000000000000000000000000000000000000000000000000000006020830152604082019050919050565b60006127fd603283613031565b91507f455243313135353a207472616e736665722063616c6c6572206973206e6f742060008301527f6f776e6572206e6f7220617070726f76656400000000000000000000000000006020830152604082019050919050565b6000612863602a83613031565b91507f455243313135353a20696e73756666696369656e742062616c616e636520666f60008301527f72207472616e73666572000000000000000000000000000000000000000000006020830152604082019050919050565b60006128c9600583613042565b91507f2e6a736f6e0000000000000000000000000000000000000000000000000000006000830152600582019050919050565b6000612909602083613031565b91507f4f776e61626c653a2063616c6c6572206973206e6f7420746865206f776e65726000830152602082019050919050565b6000612949602983613031565b91507f455243313135353a2073657474696e6720617070726f76616c2073746174757360008301527f20666f722073656c6600000000000000000000000000000000000000000000006020830152604082019050919050565b60006129af602983613031565b91507f455243313135353a206163636f756e747320616e6420696473206c656e67746860008301527f206d69736d6174636800000000000000000000000000000000000000000000006020830152604082019050919050565b6000612a15602883613031565b91507f455243313135353a2069647320616e6420616d6f756e7473206c656e6774682060008301527f6d69736d617463680000000000000000000000000000000000000000000000006020830152604082019050919050565b6000612a7b602183613031565b91507f455243313135353a206d696e7420746f20746865207a65726f2061646472657360008301527f73000000000000000000000000000000000000000000000000000000000000006020830152604082019050919050565b6000612ae1601783613031565b91507f546f6b656e20494420616c7265616479206578697374730000000000000000006000830152602082019050919050565b612b1d816131cc565b82525050565b612b2c816131cc565b82525050565b6000612b3e82856124db565b9150612b4a82846124db565b9150612b55826128bc565b91508190509392505050565b6000602082019050612b7660008301846123ed565b92915050565b600060a082019050612b9160008301886123ed565b612b9e60208301876123ed565b8181036040830152612bb081866123fc565b90508181036060830152612bc481856123fc565b90508181036080830152612bd88184612469565b90509695505050505050565b600060a082019050612bf960008301886123ed565b612c0660208301876123ed565b612c136040830186612b23565b612c206060830185612b23565b8181036080830152612c328184612469565b90509695505050505050565b60006020820190508181036000830152612c5881846123fc565b905092915050565b60006040820190508181036000830152612c7a81856123fc565b90508181036020830152612c8e81846123fc565b90509392505050565b6000602082019050612cac600083018461245a565b92915050565b60006020820190508181036000830152612ccc81846124a2565b905092915050565b60006020820190508181036000830152612ced8161250c565b9050919050565b60006020820190508181036000830152612d0d81612572565b9050919050565b60006020820190508181036000830152612d2d816125d8565b9050919050565b60006020820190508181036000830152612d4d8161263e565b9050919050565b60006020820190508181036000830152612d6d816126a4565b9050919050565b60006020820190508181036000830152612d8d8161270a565b9050919050565b60006020820190508181036000830152612dad8161274a565b9050919050565b60006020820190508181036000830152612dcd8161278a565b9050919050565b60006020820190508181036000830152612ded816127f0565b9050919050565b60006020820190508181036000830152612e0d81612856565b9050919050565b60006020820190508181036000830152612e2d816128fc565b9050919050565b60006020820190508181036000830152612e4d8161293c565b9050919050565b60006020820190508181036000830152612e6d816129a2565b9050919050565b60006020820190508181036000830152612e8d81612a08565b9050919050565b60006020820190508181036000830152612ead81612a6e565b9050919050565b60006020820190508181036000830152612ecd81612ad4565b9050919050565b6000602082019050612ee96000830184612b23565b92915050565b6000604082019050612f046000830185612b23565b612f116020830184612b23565b9392505050565b6000604051905081810181811067ffffffffffffffff82111715612f3f57612f3e613351565b5b8060405250919050565b600067ffffffffffffffff821115612f6457612f63613351565b5b602082029050602081019050919050565b600067ffffffffffffffff821115612f9057612f8f613351565b5b602082029050602081019050919050565b600067ffffffffffffffff821115612fbc57612fbb613351565b5b601f19601f8301169050602081019050919050565b6000819050602082019050919050565b600081519050919050565b600081519050919050565b600081519050919050565b6000602082019050919050565b600082825260208201905092915050565b600082825260208201905092915050565b600082825260208201905092915050565b600081905092915050565b6000613058826131cc565b9150613063836131cc565b9250827fffffffffffffffffffffffffffffffffffffffffffffffffffffffffffffffff03821115613098576130976132c4565b5b828201905092915050565b60006130ae826131cc565b91506130b9836131cc565b9250826130c9576130c86132f3565b5b828204905092915050565b60006130df826131cc565b91506130ea836131cc565b9250817fffffffffffffffffffffffffffffffffffffffffffffffffffffffffffffffff0483118215151615613123576131226132c4565b5b828202905092915050565b6000613139826131cc565b9150613144836131cc565b925082821015613157576131566132c4565b5b828203905092915050565b600061316d826131ac565b9050919050565b60008115159050919050565b60007fffffffff0000000000000000000000000000000000000000000000000000000082169050919050565b600073ffffffffffffffffffffffffffffffffffffffff82169050919050565b6000819050919050565b82818337600083830152505050565b60005b838110156132035780820151818401526020810190506131e8565b83811115613212576000848401525b50505050565b6000600282049050600182168061323057607f821691505b6020821081141561324457613243613322565b5b50919050565b6000613255826131cc565b91507fffffffffffffffffffffffffffffffffffffffffffffffffffffffffffffffff821415613288576132876132c4565b5b600182019050919050565b600061329e826131cc565b91506132a9836131cc565b9250826132b9576132b86132f3565b5b828206905092915050565b7f4e487b7100000000000000000000000000000000000000000000000000000000600052601160045260246000fd5b7f4e487b7100000000000000000000000000000000000000000000000000000000600052601260045260246000fd5b7f4e487b7100000000000000000000000000000000000000000000000000000000600052602260045260246000fd5b7f4e487b7100000000000000000000000000000000000000000000000000000000600052604160045260246000fd5b6000601f19601f8301169050919050565b60008160e01c9050919050565b600060443d10156133ae57613451565b60046000803e6133bf600051613391565b6308c379a081146133d05750613451565b60405160043d036004823e80513d602482011167ffffffffffffffff821117156133fc57505050613451565b808201805167ffffffffffffffff81111561341b575050505050613451565b8060208301013d850181111561343657505050505050613451565b61343f82613380565b60208401016040528296505050505050505b90565b61345d81613162565b811461346857600080fd5b50565b61347481613174565b811461347f57600080fd5b50565b61348b81613180565b811461349657600080fd5b50565b6134a2816131cc565b81146134ad57600080fd5b5056fea264697066735822122015831549987fca9089a28b33dfe6092d19fa0cbb369c661ac42ca2b20a01308164736f6c63430008000033",
  "immutableReferences": {},
  "source": "// SPDX-License-Identifier: MIT\r\npragma solidity ^0.8.0;\r\n\r\nimport \"@openzeppelin/contracts/token/ERC1155/ERC1155.sol\";\r\nimport \"@openzeppelin/contracts/access/Ownable.sol\";\r\nimport \"@openzeppelin/contracts/utils/Strings.sol\";\r\n\r\ncontract SDVDiscountNFT is ERC1155, Ownable {\r\n    using Strings for uint256;\r\n\r\n    mapping(uint256 => bool) private tokenExists;\r\n\r\n    event NFTMinted(uint256 indexed tokenId, uint256 price);\r\n\r\n    constructor(string memory baseTokenURI) ERC1155(baseTokenURI) {}\r\n\r\n    function mint(uint256 tokenId, uint256 initialSupply, uint256 price) external onlyOwner {\r\n        require(!tokenExists[tokenId], \"Token ID already exists\");\r\n\r\n        _mint(owner(), tokenId, initialSupply, \"\");\r\n\r\n        tokenExists[tokenId] = true;\r\n        emit NFTMinted(tokenId, price);\r\n    }\r\n\r\n    function purchaseNFTWithPoints(uint256 tokenId, uint256 amount, uint256 offchainPoints, uint256 price) external {\r\n        require(tokenExists[tokenId], \"Token ID does not exist\");\r\n        require(offchainPoints >= price * amount, \"Insufficient off-chain points\");\r\n        safeTransferFrom(owner(), msg.sender, tokenId, amount, \"\");\r\n    }\r\n\r\n    function tokenURI(uint256 tokenId) public view returns (string memory) {\r\n        require(tokenExists[tokenId], \"Token ID does not exist\");\r\n        return string(abi.encodePacked(uri(tokenId), tokenId.toString(), \".json\"));\r\n    }\r\n}\r\n",
  "sourcePath": "C:\\Users\\i\\Documents\\GitHub\\DSP-old\\contracts\\contracts\\SDVDiscountNFT.sol",
  "compiler": {
    "name": "solc",
    "version": "0.8.0+commit.c7dfd78e.Emscripten.clang"
  },
  "schemaVersion": "3.4.16",
  "updatedAt": "2024-03-05T13:38:27.852Z",
  "networkType": "ethereum",
  "devdoc": {
    "kind": "dev",
    "methods": {
      "balanceOf(address,uint256)": {
        "details": "See {IERC1155-balanceOf}. Requirements: - `account` cannot be the zero address."
      },
      "balanceOfBatch(address[],uint256[])": {
        "details": "See {IERC1155-balanceOfBatch}. Requirements: - `accounts` and `ids` must have the same length."
      },
      "isApprovedForAll(address,address)": {
        "details": "See {IERC1155-isApprovedForAll}."
      },
      "owner()": {
        "details": "Returns the address of the current owner."
      },
      "renounceOwnership()": {
        "details": "Leaves the contract without owner. It will not be possible to call `onlyOwner` functions anymore. Can only be called by the current owner. NOTE: Renouncing ownership will leave the contract without an owner, thereby removing any functionality that is only available to the owner."
      },
      "safeBatchTransferFrom(address,address,uint256[],uint256[],bytes)": {
        "details": "See {IERC1155-safeBatchTransferFrom}."
      },
      "safeTransferFrom(address,address,uint256,uint256,bytes)": {
        "details": "See {IERC1155-safeTransferFrom}."
      },
      "setApprovalForAll(address,bool)": {
        "details": "See {IERC1155-setApprovalForAll}."
      },
      "supportsInterface(bytes4)": {
        "details": "See {IERC165-supportsInterface}."
      },
      "transferOwnership(address)": {
        "details": "Transfers ownership of the contract to a new account (`newOwner`). Can only be called by the current owner."
      },
      "uri(uint256)": {
        "details": "See {IERC1155MetadataURI-uri}. This implementation returns the same URI for *all* token types. It relies on the token type ID substitution mechanism https://eips.ethereum.org/EIPS/eip-1155#metadata[defined in the EIP]. Clients calling this function must replace the `\\{id\\}` substring with the actual token type ID."
      }
    },
    "version": 1
  },
  "userdoc": {
    "kind": "user",
    "methods": {},
    "version": 1
  }
}