{
  "contractName": "SDVDiscountNFT",
  "abi": [
    {
      "inputs": [
        {
          "internalType": "string",
          "name": "baseTokenURI",
          "type": "string"
        }
      ],
      "stateMutability": "nonpayable",
      "type": "constructor"
    },
    {
      "anonymous": false,
      "inputs": [
        {
          "indexed": true,
          "internalType": "address",
          "name": "account",
          "type": "address"
        },
        {
          "indexed": true,
          "internalType": "address",
          "name": "operator",
          "type": "address"
        },
        {
          "indexed": false,
          "internalType": "bool",
          "name": "approved",
          "type": "bool"
        }
      ],
      "name": "ApprovalForAll",
      "type": "event"
    },
    {
      "anonymous": false,
      "inputs": [
        {
          "indexed": true,
          "internalType": "address",
          "name": "previousOwner",
          "type": "address"
        },
        {
          "indexed": true,
          "internalType": "address",
          "name": "newOwner",
          "type": "address"
        }
      ],
      "name": "OwnershipTransferred",
      "type": "event"
    },
    {
      "anonymous": false,
      "inputs": [
        {
          "indexed": true,
          "internalType": "address",
          "name": "operator",
          "type": "address"
        },
        {
          "indexed": true,
          "internalType": "address",
          "name": "from",
          "type": "address"
        },
        {
          "indexed": true,
          "internalType": "address",
          "name": "to",
          "type": "address"
        },
        {
          "indexed": false,
          "internalType": "uint256[]",
          "name": "ids",
          "type": "uint256[]"
        },
        {
          "indexed": false,
          "internalType": "uint256[]",
          "name": "values",
          "type": "uint256[]"
        }
      ],
      "name": "TransferBatch",
      "type": "event"
    },
    {
      "anonymous": false,
      "inputs": [
        {
          "indexed": true,
          "internalType": "address",
          "name": "operator",
          "type": "address"
        },
        {
          "indexed": true,
          "internalType": "address",
          "name": "from",
          "type": "address"
        },
        {
          "indexed": true,
          "internalType": "address",
          "name": "to",
          "type": "address"
        },
        {
          "indexed": false,
          "internalType": "uint256",
          "name": "id",
          "type": "uint256"
        },
        {
          "indexed": false,
          "internalType": "uint256",
          "name": "value",
          "type": "uint256"
        }
      ],
      "name": "TransferSingle",
      "type": "event"
    },
    {
      "anonymous": false,
      "inputs": [
        {
          "indexed": false,
          "internalType": "string",
          "name": "value",
          "type": "string"
        },
        {
          "indexed": true,
          "internalType": "uint256",
          "name": "id",
          "type": "uint256"
        }
      ],
      "name": "URI",
      "type": "event"
    },
    {
      "inputs": [
        {
          "internalType": "address",
          "name": "account",
          "type": "address"
        },
        {
          "internalType": "uint256",
          "name": "id",
          "type": "uint256"
        }
      ],
      "name": "balanceOf",
      "outputs": [
        {
          "internalType": "uint256",
          "name": "",
          "type": "uint256"
        }
      ],
      "stateMutability": "view",
      "type": "function",
      "constant": true
    },
    {
      "inputs": [
        {
          "internalType": "address[]",
          "name": "accounts",
          "type": "address[]"
        },
        {
          "internalType": "uint256[]",
          "name": "ids",
          "type": "uint256[]"
        }
      ],
      "name": "balanceOfBatch",
      "outputs": [
        {
          "internalType": "uint256[]",
          "name": "",
          "type": "uint256[]"
        }
      ],
      "stateMutability": "view",
      "type": "function",
      "constant": true
    },
    {
      "inputs": [
        {
          "internalType": "address",
          "name": "account",
          "type": "address"
        },
        {
          "internalType": "address",
          "name": "operator",
          "type": "address"
        }
      ],
      "name": "isApprovedForAll",
      "outputs": [
        {
          "internalType": "bool",
          "name": "",
          "type": "bool"
        }
      ],
      "stateMutability": "view",
      "type": "function",
      "constant": true
    },
    {
      "inputs": [
        {
          "internalType": "uint256",
          "name": "",
          "type": "uint256"
        }
      ],
      "name": "nftPrice",
      "outputs": [
        {
          "internalType": "uint256",
          "name": "",
          "type": "uint256"
        }
      ],
      "stateMutability": "view",
      "type": "function",
      "constant": true
    },
    {
      "inputs": [],
      "name": "owner",
      "outputs": [
        {
          "internalType": "address",
          "name": "",
          "type": "address"
        }
      ],
      "stateMutability": "view",
      "type": "function",
      "constant": true
    },
    {
      "inputs": [],
      "name": "renounceOwnership",
      "outputs": [],
      "stateMutability": "nonpayable",
      "type": "function"
    },
    {
      "inputs": [
        {
          "internalType": "address",
          "name": "from",
          "type": "address"
        },
        {
          "internalType": "address",
          "name": "to",
          "type": "address"
        },
        {
          "internalType": "uint256[]",
          "name": "ids",
          "type": "uint256[]"
        },
        {
          "internalType": "uint256[]",
          "name": "amounts",
          "type": "uint256[]"
        },
        {
          "internalType": "bytes",
          "name": "data",
          "type": "bytes"
        }
      ],
      "name": "safeBatchTransferFrom",
      "outputs": [],
      "stateMutability": "nonpayable",
      "type": "function"
    },
    {
      "inputs": [
        {
          "internalType": "address",
          "name": "from",
          "type": "address"
        },
        {
          "internalType": "address",
          "name": "to",
          "type": "address"
        },
        {
          "internalType": "uint256",
          "name": "id",
          "type": "uint256"
        },
        {
          "internalType": "uint256",
          "name": "amount",
          "type": "uint256"
        },
        {
          "internalType": "bytes",
          "name": "data",
          "type": "bytes"
        }
      ],
      "name": "safeTransferFrom",
      "outputs": [],
      "stateMutability": "nonpayable",
      "type": "function"
    },
    {
      "inputs": [
        {
          "internalType": "address",
          "name": "operator",
          "type": "address"
        },
        {
          "internalType": "bool",
          "name": "approved",
          "type": "bool"
        }
      ],
      "name": "setApprovalForAll",
      "outputs": [],
      "stateMutability": "nonpayable",
      "type": "function"
    },
    {
      "inputs": [
        {
          "internalType": "bytes4",
          "name": "interfaceId",
          "type": "bytes4"
        }
      ],
      "name": "supportsInterface",
      "outputs": [
        {
          "internalType": "bool",
          "name": "",
          "type": "bool"
        }
      ],
      "stateMutability": "view",
      "type": "function",
      "constant": true
    },
    {
      "inputs": [
        {
          "internalType": "address",
          "name": "newOwner",
          "type": "address"
        }
      ],
      "name": "transferOwnership",
      "outputs": [],
      "stateMutability": "nonpayable",
      "type": "function"
    },
    {
      "inputs": [
        {
          "internalType": "uint256",
          "name": "",
          "type": "uint256"
        }
      ],
      "name": "uri",
      "outputs": [
        {
          "internalType": "string",
          "name": "",
          "type": "string"
        }
      ],
      "stateMutability": "view",
      "type": "function",
      "constant": true
    },
    {
      "inputs": [
        {
          "internalType": "uint256",
          "name": "tokenId",
          "type": "uint256"
        },
        {
          "internalType": "uint256",
          "name": "_nftPrice",
          "type": "uint256"
        },
        {
          "internalType": "uint256",
          "name": "initialSupply",
          "type": "uint256"
        }
      ],
      "name": "mint",
      "outputs": [],
      "stateMutability": "nonpayable",
      "type": "function"
    },
    {
      "inputs": [
        {
          "internalType": "uint256",
          "name": "tokenId",
          "type": "uint256"
        },
        {
          "internalType": "uint256",
          "name": "amount",
          "type": "uint256"
        },
        {
          "internalType": "uint256",
          "name": "offchainPoints",
          "type": "uint256"
        }
      ],
      "name": "purchaseNFTWithPoints",
      "outputs": [],
      "stateMutability": "nonpayable",
      "type": "function"
    },
    {
      "inputs": [
        {
          "internalType": "uint256",
          "name": "tokenId",
          "type": "uint256"
        }
      ],
      "name": "getNFTPrice",
      "outputs": [
        {
          "internalType": "uint256",
          "name": "",
          "type": "uint256"
        }
      ],
      "stateMutability": "view",
      "type": "function",
      "constant": true
    },
    {
      "inputs": [
        {
          "internalType": "uint256",
          "name": "tokenId",
          "type": "uint256"
        },
        {
          "internalType": "uint256",
          "name": "newNFTPrice",
          "type": "uint256"
        }
      ],
      "name": "setNFTPrice",
      "outputs": [],
      "stateMutability": "nonpayable",
      "type": "function"
    },
    {
      "inputs": [
        {
          "internalType": "uint256",
          "name": "tokenId",
          "type": "uint256"
        }
      ],
      "name": "tokenURI",
      "outputs": [
        {
          "internalType": "string",
          "name": "",
          "type": "string"
        }
      ],
      "stateMutability": "view",
      "type": "function",
      "constant": true
    }
  ],
  "bytecode": "0x60806040523480156200001157600080fd5b5060405162003a9638038062003a96833981810160405281019062000037919062000248565b8062000049816200010260201b60201c565b5060006200005c6200011e60201b60201c565b905080600360006101000a81548173ffffffffffffffffffffffffffffffffffffffff021916908373ffffffffffffffffffffffffffffffffffffffff1602179055508073ffffffffffffffffffffffffffffffffffffffff16600073ffffffffffffffffffffffffffffffffffffffff167f8be0079c531659141344cd1fd0a4f28419497f9722a3daafe3b4186f6b6457e060405160405180910390a35050620003be565b80600290805190602001906200011a92919062000126565b5050565b600033905090565b82805462000134906200032a565b90600052602060002090601f016020900481019282620001585760008555620001a4565b82601f106200017357805160ff1916838001178555620001a4565b82800160010185558215620001a4579182015b82811115620001a357825182559160200191906001019062000186565b5b509050620001b39190620001b7565b5090565b5b80821115620001d2576000816000905550600101620001b8565b5090565b6000620001ed620001e784620002c1565b6200028d565b9050828152602081018484840111156200020657600080fd5b62000213848285620002f4565b509392505050565b600082601f8301126200022d57600080fd5b81516200023f848260208601620001d6565b91505092915050565b6000602082840312156200025b57600080fd5b600082015167ffffffffffffffff8111156200027657600080fd5b62000284848285016200021b565b91505092915050565b6000604051905081810181811067ffffffffffffffff82111715620002b757620002b66200038f565b5b8060405250919050565b600067ffffffffffffffff821115620002df57620002de6200038f565b5b601f19601f8301169050602081019050919050565b60005b8381101562000314578082015181840152602081019050620002f7565b8381111562000324576000848401525b50505050565b600060028204905060018216806200034357607f821691505b602082108114156200035a576200035962000360565b5b50919050565b7f4e487b7100000000000000000000000000000000000000000000000000000000600052602260045260246000fd5b7f4e487b7100000000000000000000000000000000000000000000000000000000600052604160045260246000fd5b6136c880620003ce6000396000f3fe608060405234801561001057600080fd5b506004361061010a5760003560e01c8063715018a6116100a2578063c87b56dd11610071578063c87b56dd146102c7578063e7406558146102f7578063e985e9c514610313578063f242432a14610343578063f2fde38b1461035f5761010a565b8063715018a6146102535780638da5cb5b1461025d578063929761791461027b578063a22cb465146102ab5761010a565b80632eb2c2d6116100de5780632eb2c2d6146101bb57806349eb0752146101d75780634e1273f4146101f35780636de29914146102235761010a565b8062fdd58e1461010f57806301ffc9a71461013f57806302acc94b1461016f5780630e89341c1461018b575b600080fd5b61012960048036038101906101249190612409565b61037b565b60405161013691906130b6565b60405180910390f35b610159600480360381019061015491906124b1565b610444565b6040516101669190612e79565b60405180910390f35b61018960048036038101906101849190612568565b610526565b005b6101a560048036038101906101a09190612503565b610660565b6040516101b29190612e94565b60405180910390f35b6101d560048036038101906101d0919061227f565b6106f4565b005b6101f160048036038101906101ec9190612568565b610aea565b005b61020d60048036038101906102089190612445565b610bce565b60405161021a9190612e20565b60405180910390f35b61023d60048036038101906102389190612503565b610d7f565b60405161024a91906130b6565b60405180910390f35b61025b610d97565b005b610265610ed4565b6040516102729190612d43565b60405180910390f35b61029560048036038101906102909190612503565b610efe565b6040516102a291906130b6565b60405180910390f35b6102c560048036038101906102c091906123cd565b610f7b565b005b6102e160048036038101906102dc9190612503565b6110fc565b6040516102ee9190612e94565b60405180910390f35b610311600480360381019061030c919061252c565b611197565b005b61032d60048036038101906103289190612243565b61128f565b60405161033a9190612e79565b60405180910390f35b61035d6004803603810190610358919061233e565b611323565b005b6103796004803603810190610374919061221a565b61163b565b005b60008073ffffffffffffffffffffffffffffffffffffffff168373ffffffffffffffffffffffffffffffffffffffff1614156103ec576040517f08c379a00000000000000000000000000000000000000000000000000000000081526004016103e390612ef6565b60405180910390fd5b60008083815260200190815260200160002060008473ffffffffffffffffffffffffffffffffffffffff1673ffffffffffffffffffffffffffffffffffffffff16815260200190815260200160002054905092915050565b60007fd9b67a26000000000000000000000000000000000000000000000000000000007bffffffffffffffffffffffffffffffffffffffffffffffffffffffff1916827bffffffffffffffffffffffffffffffffffffffffffffffffffffffff1916148061050f57507f0e89341c000000000000000000000000000000000000000000000000000000007bffffffffffffffffffffffffffffffffffffffffffffffffffffffff1916827bffffffffffffffffffffffffffffffffffffffffffffffffffffffff1916145b8061051f575061051e826117e7565b5b9050919050565b61052e611851565b73ffffffffffffffffffffffffffffffffffffffff1661054c610ed4565b73ffffffffffffffffffffffffffffffffffffffff16146105a2576040517f08c379a000000000000000000000000000000000000000000000000000000000815260040161059990612ff6565b60405180910390fd5b6005600084815260200190815260200160002060009054906101000a900460ff1615610603576040517f08c379a00000000000000000000000000000000000000000000000000000000081526004016105fa90613096565b60405180910390fd5b61062561060e610ed4565b848360405180602001604052806000815250611859565b61062f8383611197565b60016005600085815260200190815260200160002060006101000a81548160ff021916908315150217905550505050565b60606002805461066f906133fa565b80601f016020809104026020016040519081016040528092919081815260200182805461069b906133fa565b80156106e85780601f106106bd576101008083540402835291602001916106e8565b820191906000526020600020905b8154815290600101906020018083116106cb57829003601f168201915b50505050509050919050565b8151835114610738576040517f08c379a000000000000000000000000000000000000000000000000000000000815260040161072f90613056565b60405180910390fd5b600073ffffffffffffffffffffffffffffffffffffffff168473ffffffffffffffffffffffffffffffffffffffff1614156107a8576040517f08c379a000000000000000000000000000000000000000000000000000000000815260040161079f90612f96565b60405180910390fd5b6107b0611851565b73ffffffffffffffffffffffffffffffffffffffff168573ffffffffffffffffffffffffffffffffffffffff1614806107f657506107f5856107f0611851565b61128f565b5b610835576040517f08c379a000000000000000000000000000000000000000000000000000000000815260040161082c90612fb6565b60405180910390fd5b600061083f611851565b905061084f8187878787876119ef565b60005b8451811015610a55576000858281518110610896577f4e487b7100000000000000000000000000000000000000000000000000000000600052603260045260246000fd5b6020026020010151905060008583815181106108db577f4e487b7100000000000000000000000000000000000000000000000000000000600052603260045260246000fd5b60200260200101519050600080600084815260200190815260200160002060008b73ffffffffffffffffffffffffffffffffffffffff1673ffffffffffffffffffffffffffffffffffffffff1681526020019081526020016000205490508181101561097c576040517f08c379a000000000000000000000000000000000000000000000000000000000815260040161097390612fd6565b60405180910390fd5b81816109889190613310565b60008085815260200190815260200160002060008c73ffffffffffffffffffffffffffffffffffffffff1673ffffffffffffffffffffffffffffffffffffffff168152602001908152602001600020819055508160008085815260200190815260200160002060008b73ffffffffffffffffffffffffffffffffffffffff1673ffffffffffffffffffffffffffffffffffffffff1681526020019081526020016000206000828254610a3a919061322f565b9250508190555050505080610a4e9061342c565b9050610852565b508473ffffffffffffffffffffffffffffffffffffffff168673ffffffffffffffffffffffffffffffffffffffff168273ffffffffffffffffffffffffffffffffffffffff167f4a39dc06d4c0dbc64b70af90fd698a233a518aa5d07e595d983b8c0526c8f7fb8787604051610acc929190612e42565b60405180910390a4610ae28187878787876119f7565b505050505050565b6005600084815260200190815260200160002060009054906101000a900460ff16610b4a576040517f08c379a0000000000000000000000000000000000000000000000000000000008152600401610b4190612f76565b60405180910390fd5b600082610b5685610efe565b610b6091906132b6565b905080821015610ba5576040517f08c379a0000000000000000000000000000000000000000000000000000000008152600401610b9c90612f56565b60405180910390fd5b610bc8610bb0610ed4565b33868660405180602001604052806000815250611323565b50505050565b60608151835114610c14576040517f08c379a0000000000000000000000000000000000000000000000000000000008152600401610c0b90613036565b60405180910390fd5b6000835167ffffffffffffffff811115610c57577f4e487b7100000000000000000000000000000000000000000000000000000000600052604160045260246000fd5b604051908082528060200260200182016040528015610c855781602001602082028036833780820191505090505b50905060005b8451811015610d7457610d1e858281518110610cd0577f4e487b7100000000000000000000000000000000000000000000000000000000600052603260045260246000fd5b6020026020010151858381518110610d11577f4e487b7100000000000000000000000000000000000000000000000000000000600052603260045260246000fd5b602002602001015161037b565b828281518110610d57577f4e487b7100000000000000000000000000000000000000000000000000000000600052603260045260246000fd5b60200260200101818152505080610d6d9061342c565b9050610c8b565b508091505092915050565b60046020528060005260406000206000915090505481565b610d9f611851565b73ffffffffffffffffffffffffffffffffffffffff16610dbd610ed4565b73ffffffffffffffffffffffffffffffffffffffff1614610e13576040517f08c379a0000000000000000000000000000000000000000000000000000000008152600401610e0a90612ff6565b60405180910390fd5b600073ffffffffffffffffffffffffffffffffffffffff16600360009054906101000a900473ffffffffffffffffffffffffffffffffffffffff1673ffffffffffffffffffffffffffffffffffffffff167f8be0079c531659141344cd1fd0a4f28419497f9722a3daafe3b4186f6b6457e060405160405180910390a36000600360006101000a81548173ffffffffffffffffffffffffffffffffffffffff021916908373ffffffffffffffffffffffffffffffffffffffff160217905550565b6000600360009054906101000a900473ffffffffffffffffffffffffffffffffffffffff16905090565b60006005600083815260200190815260200160002060009054906101000a900460ff16610f60576040517f08c379a0000000000000000000000000000000000000000000000000000000008152600401610f5790612f76565b60405180910390fd5b60046000838152602001908152602001600020549050919050565b8173ffffffffffffffffffffffffffffffffffffffff16610f9a611851565b73ffffffffffffffffffffffffffffffffffffffff161415610ff1576040517f08c379a0000000000000000000000000000000000000000000000000000000008152600401610fe890613016565b60405180910390fd5b8060016000610ffe611851565b73ffffffffffffffffffffffffffffffffffffffff1673ffffffffffffffffffffffffffffffffffffffff16815260200190815260200160002060008473ffffffffffffffffffffffffffffffffffffffff1673ffffffffffffffffffffffffffffffffffffffff16815260200190815260200160002060006101000a81548160ff0219169083151502179055508173ffffffffffffffffffffffffffffffffffffffff166110ab611851565b73ffffffffffffffffffffffffffffffffffffffff167f17307eab39ab6107e8899845ad3d59bd9653f200f220920489ca2b5937696c31836040516110f09190612e79565b60405180910390a35050565b60606005600083815260200190815260200160002060009054906101000a900460ff1661115e576040517f08c379a000000000000000000000000000000000000000000000000000000000815260040161115590612f76565b60405180910390fd5b61116782610660565b61117083611bc7565b604051602001611181929190612d14565b6040516020818303038152906040529050919050565b61119f611851565b73ffffffffffffffffffffffffffffffffffffffff166111bd610ed4565b73ffffffffffffffffffffffffffffffffffffffff1614611213576040517f08c379a000000000000000000000000000000000000000000000000000000000815260040161120a90612ff6565b60405180910390fd5b6005600083815260200190815260200160002060009054906101000a900460ff16611273576040517f08c379a000000000000000000000000000000000000000000000000000000000815260040161126a90612f76565b60405180910390fd5b8060046000848152602001908152602001600020819055505050565b6000600160008473ffffffffffffffffffffffffffffffffffffffff1673ffffffffffffffffffffffffffffffffffffffff16815260200190815260200160002060008373ffffffffffffffffffffffffffffffffffffffff1673ffffffffffffffffffffffffffffffffffffffff16815260200190815260200160002060009054906101000a900460ff16905092915050565b600073ffffffffffffffffffffffffffffffffffffffff168473ffffffffffffffffffffffffffffffffffffffff161415611393576040517f08c379a000000000000000000000000000000000000000000000000000000000815260040161138a90612f96565b60405180910390fd5b61139b611851565b73ffffffffffffffffffffffffffffffffffffffff168573ffffffffffffffffffffffffffffffffffffffff1614806113e157506113e0856113db611851565b61128f565b5b611420576040517f08c379a000000000000000000000000000000000000000000000000000000000815260040161141790612f36565b60405180910390fd5b600061142a611851565b905061144a81878761143b88611d74565b61144488611d74565b876119ef565b600080600086815260200190815260200160002060008873ffffffffffffffffffffffffffffffffffffffff1673ffffffffffffffffffffffffffffffffffffffff168152602001908152602001600020549050838110156114e1576040517f08c379a00000000000000000000000000000000000000000000000000000000081526004016114d890612fd6565b60405180910390fd5b83816114ed9190613310565b60008087815260200190815260200160002060008973ffffffffffffffffffffffffffffffffffffffff1673ffffffffffffffffffffffffffffffffffffffff168152602001908152602001600020819055508360008087815260200190815260200160002060008873ffffffffffffffffffffffffffffffffffffffff1673ffffffffffffffffffffffffffffffffffffffff168152602001908152602001600020600082825461159f919061322f565b925050819055508573ffffffffffffffffffffffffffffffffffffffff168773ffffffffffffffffffffffffffffffffffffffff168373ffffffffffffffffffffffffffffffffffffffff167fc3d58168c5ae7397731d063d5bbf3d657854427343f4c083240f7aacaa2d0f62888860405161161c9291906130d1565b60405180910390a4611632828888888888611e3a565b50505050505050565b611643611851565b73ffffffffffffffffffffffffffffffffffffffff16611661610ed4565b73ffffffffffffffffffffffffffffffffffffffff16146116b7576040517f08c379a00000000000000000000000000000000000000000000000000000000081526004016116ae90612ff6565b60405180910390fd5b600073ffffffffffffffffffffffffffffffffffffffff168173ffffffffffffffffffffffffffffffffffffffff161415611727576040517f08c379a000000000000000000000000000000000000000000000000000000000815260040161171e90612f16565b60405180910390fd5b8073ffffffffffffffffffffffffffffffffffffffff16600360009054906101000a900473ffffffffffffffffffffffffffffffffffffffff1673ffffffffffffffffffffffffffffffffffffffff167f8be0079c531659141344cd1fd0a4f28419497f9722a3daafe3b4186f6b6457e060405160405180910390a380600360006101000a81548173ffffffffffffffffffffffffffffffffffffffff021916908373ffffffffffffffffffffffffffffffffffffffff16021790555050565b60007f01ffc9a7000000000000000000000000000000000000000000000000000000007bffffffffffffffffffffffffffffffffffffffffffffffffffffffff1916827bffffffffffffffffffffffffffffffffffffffffffffffffffffffff1916149050919050565b600033905090565b600073ffffffffffffffffffffffffffffffffffffffff168473ffffffffffffffffffffffffffffffffffffffff1614156118c9576040517f08c379a00000000000000000000000000000000000000000000000000000000081526004016118c090613076565b60405180910390fd5b60006118d3611851565b90506118f4816000876118e588611d74565b6118ee88611d74565b876119ef565b8260008086815260200190815260200160002060008773ffffffffffffffffffffffffffffffffffffffff1673ffffffffffffffffffffffffffffffffffffffff1681526020019081526020016000206000828254611953919061322f565b925050819055508473ffffffffffffffffffffffffffffffffffffffff16600073ffffffffffffffffffffffffffffffffffffffff168273ffffffffffffffffffffffffffffffffffffffff167fc3d58168c5ae7397731d063d5bbf3d657854427343f4c083240f7aacaa2d0f6287876040516119d19291906130d1565b60405180910390a46119e881600087878787611e3a565b5050505050565b505050505050565b611a168473ffffffffffffffffffffffffffffffffffffffff1661200a565b15611bbf578373ffffffffffffffffffffffffffffffffffffffff1663bc197c8187878686866040518663ffffffff1660e01b8152600401611a5c959493929190612d5e565b602060405180830381600087803b158015611a7657600080fd5b505af1925050508015611aa757506040513d601f19601f82011682018060405250810190611aa491906124da565b60015b611b3657611ab3613580565b80611abe5750611afb565b806040517f08c379a0000000000000000000000000000000000000000000000000000000008152600401611af29190612e94565b60405180910390fd5b6040517f08c379a0000000000000000000000000000000000000000000000000000000008152600401611b2d90612eb6565b60405180910390fd5b63bc197c8160e01b7bffffffffffffffffffffffffffffffffffffffffffffffffffffffff1916817bffffffffffffffffffffffffffffffffffffffffffffffffffffffff191614611bbd576040517f08c379a0000000000000000000000000000000000000000000000000000000008152600401611bb490612ed6565b60405180910390fd5b505b505050505050565b60606000821415611c0f576040518060400160405280600181526020017f30000000000000000000000000000000000000000000000000000000000000008152509050611d6f565b600082905060005b60008214611c41578080611c2a9061342c565b915050600a82611c3a9190613285565b9150611c17565b60008167ffffffffffffffff811115611c83577f4e487b7100000000000000000000000000000000000000000000000000000000600052604160045260246000fd5b6040519080825280601f01601f191660200182016040528015611cb55781602001600182028036833780820191505090505b5090505b60008514611d6857600182611cce9190613310565b9150600a85611cdd9190613475565b6030611ce9919061322f565b60f81b818381518110611d25577f4e487b7100000000000000000000000000000000000000000000000000000000600052603260045260246000fd5b60200101907effffffffffffffffffffffffffffffffffffffffffffffffffffffffffffff1916908160001a905350600a85611d619190613285565b9450611cb9565b8093505050505b919050565b60606000600167ffffffffffffffff811115611db9577f4e487b7100000000000000000000000000000000000000000000000000000000600052604160045260246000fd5b604051908082528060200260200182016040528015611de75781602001602082028036833780820191505090505b5090508281600081518110611e25577f4e487b7100000000000000000000000000000000000000000000000000000000600052603260045260246000fd5b60200260200101818152505080915050919050565b611e598473ffffffffffffffffffffffffffffffffffffffff1661200a565b15612002578373ffffffffffffffffffffffffffffffffffffffff1663f23a6e6187878686866040518663ffffffff1660e01b8152600401611e9f959493929190612dc6565b602060405180830381600087803b158015611eb957600080fd5b505af1925050508015611eea57506040513d601f19601f82011682018060405250810190611ee791906124da565b60015b611f7957611ef6613580565b80611f015750611f3e565b806040517f08c379a0000000000000000000000000000000000000000000000000000000008152600401611f359190612e94565b60405180910390fd5b6040517f08c379a0000000000000000000000000000000000000000000000000000000008152600401611f7090612eb6565b60405180910390fd5b63f23a6e6160e01b7bffffffffffffffffffffffffffffffffffffffffffffffffffffffff1916817bffffffffffffffffffffffffffffffffffffffffffffffffffffffff191614612000576040517f08c379a0000000000000000000000000000000000000000000000000000000008152600401611ff790612ed6565b60405180910390fd5b505b505050505050565b600080823b905060008111915050919050565b600061203061202b8461312b565b6130fa565b9050808382526020820190508285602086028201111561204f57600080fd5b60005b8581101561207f57816120658882612133565b845260208401935060208301925050600181019050612052565b5050509392505050565b600061209c61209784613157565b6130fa565b905080838252602082019050828560208602820111156120bb57600080fd5b60005b858110156120eb57816120d18882612205565b8452602084019350602083019250506001810190506120be565b5050509392505050565b600061210861210384613183565b6130fa565b90508281526020810184848401111561212057600080fd5b61212b8482856133b8565b509392505050565b60008135905061214281613636565b92915050565b600082601f83011261215957600080fd5b813561216984826020860161201d565b91505092915050565b600082601f83011261218357600080fd5b8135612193848260208601612089565b91505092915050565b6000813590506121ab8161364d565b92915050565b6000813590506121c081613664565b92915050565b6000815190506121d581613664565b92915050565b600082601f8301126121ec57600080fd5b81356121fc8482602086016120f5565b91505092915050565b6000813590506122148161367b565b92915050565b60006020828403121561222c57600080fd5b600061223a84828501612133565b91505092915050565b6000806040838503121561225657600080fd5b600061226485828601612133565b925050602061227585828601612133565b9150509250929050565b600080600080600060a0868803121561229757600080fd5b60006122a588828901612133565b95505060206122b688828901612133565b945050604086013567ffffffffffffffff8111156122d357600080fd5b6122df88828901612172565b935050606086013567ffffffffffffffff8111156122fc57600080fd5b61230888828901612172565b925050608086013567ffffffffffffffff81111561232557600080fd5b612331888289016121db565b9150509295509295909350565b600080600080600060a0868803121561235657600080fd5b600061236488828901612133565b955050602061237588828901612133565b945050604061238688828901612205565b935050606061239788828901612205565b925050608086013567ffffffffffffffff8111156123b457600080fd5b6123c0888289016121db565b9150509295509295909350565b600080604083850312156123e057600080fd5b60006123ee85828601612133565b92505060206123ff8582860161219c565b9150509250929050565b6000806040838503121561241c57600080fd5b600061242a85828601612133565b925050602061243b85828601612205565b9150509250929050565b6000806040838503121561245857600080fd5b600083013567ffffffffffffffff81111561247257600080fd5b61247e85828601612148565b925050602083013567ffffffffffffffff81111561249b57600080fd5b6124a785828601612172565b9150509250929050565b6000602082840312156124c357600080fd5b60006124d1848285016121b1565b91505092915050565b6000602082840312156124ec57600080fd5b60006124fa848285016121c6565b91505092915050565b60006020828403121561251557600080fd5b600061252384828501612205565b91505092915050565b6000806040838503121561253f57600080fd5b600061254d85828601612205565b925050602061255e85828601612205565b9150509250929050565b60008060006060848603121561257d57600080fd5b600061258b86828701612205565b935050602061259c86828701612205565b92505060406125ad86828701612205565b9150509250925092565b60006125c38383612cf6565b60208301905092915050565b6125d881613344565b82525050565b60006125e9826131c3565b6125f381856131f1565b93506125fe836131b3565b8060005b8381101561262f57815161261688826125b7565b9750612621836131e4565b925050600181019050612602565b5085935050505092915050565b61264581613356565b82525050565b6000612656826131ce565b6126608185613202565b93506126708185602086016133c7565b61267981613562565b840191505092915050565b600061268f826131d9565b6126998185613213565b93506126a98185602086016133c7565b6126b281613562565b840191505092915050565b60006126c8826131d9565b6126d28185613224565b93506126e28185602086016133c7565b80840191505092915050565b60006126fb603483613213565b91507f455243313135353a207472616e7366657220746f206e6f6e204552433131353560008301527f526563656976657220696d706c656d656e7465720000000000000000000000006020830152604082019050919050565b6000612761602883613213565b91507f455243313135353a204552433131353552656365697665722072656a6563746560008301527f6420746f6b656e730000000000000000000000000000000000000000000000006020830152604082019050919050565b60006127c7602b83613213565b91507f455243313135353a2062616c616e636520717565727920666f7220746865207a60008301527f65726f20616464726573730000000000000000000000000000000000000000006020830152604082019050919050565b600061282d602683613213565b91507f4f776e61626c653a206e6577206f776e657220697320746865207a65726f206160008301527f64647265737300000000000000000000000000000000000000000000000000006020830152604082019050919050565b6000612893602983613213565b91507f455243313135353a2063616c6c6572206973206e6f74206f776e6572206e6f7260008301527f20617070726f76656400000000000000000000000000000000000000000000006020830152604082019050919050565b60006128f9601d83613213565b91507f496e73756666696369656e74206f66662d636861696e20706f696e74730000006000830152602082019050919050565b6000612939601783613213565b91507f546f6b656e20494420646f6573206e6f742065786973740000000000000000006000830152602082019050919050565b6000612979602583613213565b91507f455243313135353a207472616e7366657220746f20746865207a65726f20616460008301527f64726573730000000000000000000000000000000000000000000000000000006020830152604082019050919050565b60006129df603283613213565b91507f455243313135353a207472616e736665722063616c6c6572206973206e6f742060008301527f6f776e6572206e6f7220617070726f76656400000000000000000000000000006020830152604082019050919050565b6000612a45602a83613213565b91507f455243313135353a20696e73756666696369656e742062616c616e636520666f60008301527f72207472616e73666572000000000000000000000000000000000000000000006020830152604082019050919050565b6000612aab600583613224565b91507f2e6a736f6e0000000000000000000000000000000000000000000000000000006000830152600582019050919050565b6000612aeb602083613213565b91507f4f776e61626c653a2063616c6c6572206973206e6f7420746865206f776e65726000830152602082019050919050565b6000612b2b602983613213565b91507f455243313135353a2073657474696e6720617070726f76616c2073746174757360008301527f20666f722073656c6600000000000000000000000000000000000000000000006020830152604082019050919050565b6000612b91602983613213565b91507f455243313135353a206163636f756e747320616e6420696473206c656e67746860008301527f206d69736d6174636800000000000000000000000000000000000000000000006020830152604082019050919050565b6000612bf7602883613213565b91507f455243313135353a2069647320616e6420616d6f756e7473206c656e6774682060008301527f6d69736d617463680000000000000000000000000000000000000000000000006020830152604082019050919050565b6000612c5d602183613213565b91507f455243313135353a206d696e7420746f20746865207a65726f2061646472657360008301527f73000000000000000000000000000000000000000000000000000000000000006020830152604082019050919050565b6000612cc3601783613213565b91507f546f6b656e20494420616c7265616479206578697374730000000000000000006000830152602082019050919050565b612cff816133ae565b82525050565b612d0e816133ae565b82525050565b6000612d2082856126bd565b9150612d2c82846126bd565b9150612d3782612a9e565b91508190509392505050565b6000602082019050612d5860008301846125cf565b92915050565b600060a082019050612d7360008301886125cf565b612d8060208301876125cf565b8181036040830152612d9281866125de565b90508181036060830152612da681856125de565b90508181036080830152612dba818461264b565b90509695505050505050565b600060a082019050612ddb60008301886125cf565b612de860208301876125cf565b612df56040830186612d05565b612e026060830185612d05565b8181036080830152612e14818461264b565b90509695505050505050565b60006020820190508181036000830152612e3a81846125de565b905092915050565b60006040820190508181036000830152612e5c81856125de565b90508181036020830152612e7081846125de565b90509392505050565b6000602082019050612e8e600083018461263c565b92915050565b60006020820190508181036000830152612eae8184612684565b905092915050565b60006020820190508181036000830152612ecf816126ee565b9050919050565b60006020820190508181036000830152612eef81612754565b9050919050565b60006020820190508181036000830152612f0f816127ba565b9050919050565b60006020820190508181036000830152612f2f81612820565b9050919050565b60006020820190508181036000830152612f4f81612886565b9050919050565b60006020820190508181036000830152612f6f816128ec565b9050919050565b60006020820190508181036000830152612f8f8161292c565b9050919050565b60006020820190508181036000830152612faf8161296c565b9050919050565b60006020820190508181036000830152612fcf816129d2565b9050919050565b60006020820190508181036000830152612fef81612a38565b9050919050565b6000602082019050818103600083015261300f81612ade565b9050919050565b6000602082019050818103600083015261302f81612b1e565b9050919050565b6000602082019050818103600083015261304f81612b84565b9050919050565b6000602082019050818103600083015261306f81612bea565b9050919050565b6000602082019050818103600083015261308f81612c50565b9050919050565b600060208201905081810360008301526130af81612cb6565b9050919050565b60006020820190506130cb6000830184612d05565b92915050565b60006040820190506130e66000830185612d05565b6130f36020830184612d05565b9392505050565b6000604051905081810181811067ffffffffffffffff8211171561312157613120613533565b5b8060405250919050565b600067ffffffffffffffff82111561314657613145613533565b5b602082029050602081019050919050565b600067ffffffffffffffff82111561317257613171613533565b5b602082029050602081019050919050565b600067ffffffffffffffff82111561319e5761319d613533565b5b601f19601f8301169050602081019050919050565b6000819050602082019050919050565b600081519050919050565b600081519050919050565b600081519050919050565b6000602082019050919050565b600082825260208201905092915050565b600082825260208201905092915050565b600082825260208201905092915050565b600081905092915050565b600061323a826133ae565b9150613245836133ae565b9250827fffffffffffffffffffffffffffffffffffffffffffffffffffffffffffffffff0382111561327a576132796134a6565b5b828201905092915050565b6000613290826133ae565b915061329b836133ae565b9250826132ab576132aa6134d5565b5b828204905092915050565b60006132c1826133ae565b91506132cc836133ae565b9250817fffffffffffffffffffffffffffffffffffffffffffffffffffffffffffffffff0483118215151615613305576133046134a6565b5b828202905092915050565b600061331b826133ae565b9150613326836133ae565b925082821015613339576133386134a6565b5b828203905092915050565b600061334f8261338e565b9050919050565b60008115159050919050565b60007fffffffff0000000000000000000000000000000000000000000000000000000082169050919050565b600073ffffffffffffffffffffffffffffffffffffffff82169050919050565b6000819050919050565b82818337600083830152505050565b60005b838110156133e55780820151818401526020810190506133ca565b838111156133f4576000848401525b50505050565b6000600282049050600182168061341257607f821691505b6020821081141561342657613425613504565b5b50919050565b6000613437826133ae565b91507fffffffffffffffffffffffffffffffffffffffffffffffffffffffffffffffff82141561346a576134696134a6565b5b600182019050919050565b6000613480826133ae565b915061348b836133ae565b92508261349b5761349a6134d5565b5b828206905092915050565b7f4e487b7100000000000000000000000000000000000000000000000000000000600052601160045260246000fd5b7f4e487b7100000000000000000000000000000000000000000000000000000000600052601260045260246000fd5b7f4e487b7100000000000000000000000000000000000000000000000000000000600052602260045260246000fd5b7f4e487b7100000000000000000000000000000000000000000000000000000000600052604160045260246000fd5b6000601f19601f8301169050919050565b60008160e01c9050919050565b600060443d101561359057613633565b60046000803e6135a1600051613573565b6308c379a081146135b25750613633565b60405160043d036004823e80513d602482011167ffffffffffffffff821117156135de57505050613633565b808201805167ffffffffffffffff8111156135fd575050505050613633565b8060208301013d850181111561361857505050505050613633565b61362182613562565b60208401016040528296505050505050505b90565b61363f81613344565b811461364a57600080fd5b50565b61365681613356565b811461366157600080fd5b50565b61366d81613362565b811461367857600080fd5b50565b613684816133ae565b811461368f57600080fd5b5056fea2646970667358221220693c3696516fab53b010caacf11ba20213a6137da008d71c03617a7d65c2fcea64736f6c63430008000033",
  "immutableReferences": {},
  "source": "// SPDX-License-Identifier: MIT\r\npragma solidity ^0.8.0;\r\n\r\nimport \"@openzeppelin/contracts/token/ERC1155/ERC1155.sol\";\r\nimport \"@openzeppelin/contracts/access/Ownable.sol\";\r\nimport \"@openzeppelin/contracts/utils/Strings.sol\";\r\n\r\ncontract SDVDiscountNFT is ERC1155, Ownable {\r\n    using Strings for uint256;\r\n\r\n    mapping(uint256 => uint256) public nftPrice;\r\n    mapping(uint256 => bool) private tokenExists;\r\n\r\n    constructor(string memory baseTokenURI) ERC1155(baseTokenURI) {}\r\n\r\n    function mint(uint256 tokenId, uint256 _nftPrice, uint256 initialSupply) external onlyOwner {\r\n        require(!tokenExists[tokenId], \"Token ID already exists\");\r\n\r\n        _mint(owner(), tokenId, initialSupply, \"\");\r\n\r\n        setNFTPrice(tokenId, _nftPrice);\r\n        tokenExists[tokenId] = true;\r\n    }\r\n\r\n    function purchaseNFTWithPoints(uint256 tokenId, uint256 amount, uint256 offchainPoints) external {\r\n        require(tokenExists[tokenId], \"Token ID does not exist\");\r\n        uint256 price = getNFTPrice(tokenId) * amount;\r\n        require(offchainPoints >= price, \"Insufficient off-chain points\");\r\n        safeTransferFrom(owner(), msg.sender, tokenId, amount, \"\");\r\n    }\r\n\r\n    function getNFTPrice(uint256 tokenId) public view returns (uint256) {\r\n        require(tokenExists[tokenId], \"Token ID does not exist\");\r\n        return nftPrice[tokenId];\r\n    }\r\n\r\n    function setNFTPrice(uint256 tokenId, uint256 newNFTPrice) public onlyOwner {\r\n        require(tokenExists[tokenId], \"Token ID does not exist\");\r\n        nftPrice[tokenId] = newNFTPrice;\r\n    }\r\n\r\n    function tokenURI(uint256 tokenId) public view returns (string memory) {\r\n        require(tokenExists[tokenId], \"Token ID does not exist\");\r\n        return string(abi.encodePacked(uri(tokenId), tokenId.toString(), \".json\"));\r\n    }\r\n}\r\n",
  "sourcePath": "C:\\Users\\i\\Documents\\GitHub\\DSP\\contracts\\contracts\\SDVDiscountNFT.sol",
  "compiler": {
    "name": "solc",
    "version": "0.8.0+commit.c7dfd78e.Emscripten.clang"
  },
  "schemaVersion": "3.4.16",
  "updatedAt": "2024-02-22T16:27:17.346Z",
  "networkType": "ethereum",
  "devdoc": {
    "kind": "dev",
    "methods": {
      "balanceOf(address,uint256)": {
        "details": "See {IERC1155-balanceOf}. Requirements: - `account` cannot be the zero address."
      },
      "balanceOfBatch(address[],uint256[])": {
        "details": "See {IERC1155-balanceOfBatch}. Requirements: - `accounts` and `ids` must have the same length."
      },
      "isApprovedForAll(address,address)": {
        "details": "See {IERC1155-isApprovedForAll}."
      },
      "owner()": {
        "details": "Returns the address of the current owner."
      },
      "renounceOwnership()": {
        "details": "Leaves the contract without owner. It will not be possible to call `onlyOwner` functions anymore. Can only be called by the current owner. NOTE: Renouncing ownership will leave the contract without an owner, thereby removing any functionality that is only available to the owner."
      },
      "safeBatchTransferFrom(address,address,uint256[],uint256[],bytes)": {
        "details": "See {IERC1155-safeBatchTransferFrom}."
      },
      "safeTransferFrom(address,address,uint256,uint256,bytes)": {
        "details": "See {IERC1155-safeTransferFrom}."
      },
      "setApprovalForAll(address,bool)": {
        "details": "See {IERC1155-setApprovalForAll}."
      },
      "supportsInterface(bytes4)": {
        "details": "See {IERC165-supportsInterface}."
      },
      "transferOwnership(address)": {
        "details": "Transfers ownership of the contract to a new account (`newOwner`). Can only be called by the current owner."
      },
      "uri(uint256)": {
        "details": "See {IERC1155MetadataURI-uri}. This implementation returns the same URI for *all* token types. It relies on the token type ID substitution mechanism https://eips.ethereum.org/EIPS/eip-1155#metadata[defined in the EIP]. Clients calling this function must replace the `\\{id\\}` substring with the actual token type ID."
      }
    },
    "version": 1
  },
  "userdoc": {
    "kind": "user",
    "methods": {},
    "version": 1
  }
}