{
  "contractName": "SDVDiscountNFT",
  "abi": [
    {
      "inputs": [
        {
          "internalType": "string",
          "name": "baseTokenURI",
          "type": "string"
        }
      ],
      "stateMutability": "nonpayable",
      "type": "constructor"
    },
    {
      "anonymous": false,
      "inputs": [
        {
          "indexed": true,
          "internalType": "address",
          "name": "account",
          "type": "address"
        },
        {
          "indexed": true,
          "internalType": "address",
          "name": "operator",
          "type": "address"
        },
        {
          "indexed": false,
          "internalType": "bool",
          "name": "approved",
          "type": "bool"
        }
      ],
      "name": "ApprovalForAll",
      "type": "event"
    },
    {
      "anonymous": false,
      "inputs": [
        {
          "indexed": true,
          "internalType": "uint256",
          "name": "tokenId",
          "type": "uint256"
        },
        {
          "indexed": false,
          "internalType": "uint256",
          "name": "initialSupply",
          "type": "uint256"
        },
        {
          "indexed": false,
          "internalType": "uint256",
          "name": "offchainPoints",
          "type": "uint256"
        }
      ],
      "name": "NFTMinted",
      "type": "event"
    },
    {
      "anonymous": false,
      "inputs": [
        {
          "indexed": true,
          "internalType": "address",
          "name": "buyer",
          "type": "address"
        },
        {
          "indexed": true,
          "internalType": "uint256",
          "name": "tokenId",
          "type": "uint256"
        },
        {
          "indexed": false,
          "internalType": "uint256",
          "name": "amount",
          "type": "uint256"
        }
      ],
      "name": "NFTPurchased",
      "type": "event"
    },
    {
      "anonymous": false,
      "inputs": [
        {
          "indexed": true,
          "internalType": "address",
          "name": "previousOwner",
          "type": "address"
        },
        {
          "indexed": true,
          "internalType": "address",
          "name": "newOwner",
          "type": "address"
        }
      ],
      "name": "OwnershipTransferred",
      "type": "event"
    },
    {
      "anonymous": false,
      "inputs": [
        {
          "indexed": true,
          "internalType": "address",
          "name": "operator",
          "type": "address"
        },
        {
          "indexed": true,
          "internalType": "address",
          "name": "from",
          "type": "address"
        },
        {
          "indexed": true,
          "internalType": "address",
          "name": "to",
          "type": "address"
        },
        {
          "indexed": false,
          "internalType": "uint256[]",
          "name": "ids",
          "type": "uint256[]"
        },
        {
          "indexed": false,
          "internalType": "uint256[]",
          "name": "values",
          "type": "uint256[]"
        }
      ],
      "name": "TransferBatch",
      "type": "event"
    },
    {
      "anonymous": false,
      "inputs": [
        {
          "indexed": true,
          "internalType": "address",
          "name": "operator",
          "type": "address"
        },
        {
          "indexed": true,
          "internalType": "address",
          "name": "from",
          "type": "address"
        },
        {
          "indexed": true,
          "internalType": "address",
          "name": "to",
          "type": "address"
        },
        {
          "indexed": false,
          "internalType": "uint256",
          "name": "id",
          "type": "uint256"
        },
        {
          "indexed": false,
          "internalType": "uint256",
          "name": "value",
          "type": "uint256"
        }
      ],
      "name": "TransferSingle",
      "type": "event"
    },
    {
      "anonymous": false,
      "inputs": [
        {
          "indexed": false,
          "internalType": "string",
          "name": "value",
          "type": "string"
        },
        {
          "indexed": true,
          "internalType": "uint256",
          "name": "id",
          "type": "uint256"
        }
      ],
      "name": "URI",
      "type": "event"
    },
    {
      "inputs": [
        {
          "internalType": "address",
          "name": "account",
          "type": "address"
        },
        {
          "internalType": "uint256",
          "name": "id",
          "type": "uint256"
        }
      ],
      "name": "balanceOf",
      "outputs": [
        {
          "internalType": "uint256",
          "name": "",
          "type": "uint256"
        }
      ],
      "stateMutability": "view",
      "type": "function",
      "constant": true
    },
    {
      "inputs": [
        {
          "internalType": "address[]",
          "name": "accounts",
          "type": "address[]"
        },
        {
          "internalType": "uint256[]",
          "name": "ids",
          "type": "uint256[]"
        }
      ],
      "name": "balanceOfBatch",
      "outputs": [
        {
          "internalType": "uint256[]",
          "name": "",
          "type": "uint256[]"
        }
      ],
      "stateMutability": "view",
      "type": "function",
      "constant": true
    },
    {
      "inputs": [
        {
          "internalType": "address",
          "name": "account",
          "type": "address"
        },
        {
          "internalType": "address",
          "name": "operator",
          "type": "address"
        }
      ],
      "name": "isApprovedForAll",
      "outputs": [
        {
          "internalType": "bool",
          "name": "",
          "type": "bool"
        }
      ],
      "stateMutability": "view",
      "type": "function",
      "constant": true
    },
    {
      "inputs": [
        {
          "internalType": "uint256",
          "name": "",
          "type": "uint256"
        }
      ],
      "name": "nfts",
      "outputs": [
        {
          "internalType": "uint256",
          "name": "initialSupply",
          "type": "uint256"
        },
        {
          "internalType": "uint256",
          "name": "offchainPoints",
          "type": "uint256"
        },
        {
          "internalType": "uint256",
          "name": "remainingAmount",
          "type": "uint256"
        }
      ],
      "stateMutability": "view",
      "type": "function",
      "constant": true
    },
    {
      "inputs": [],
      "name": "owner",
      "outputs": [
        {
          "internalType": "address",
          "name": "",
          "type": "address"
        }
      ],
      "stateMutability": "view",
      "type": "function",
      "constant": true
    },
    {
      "inputs": [],
      "name": "renounceOwnership",
      "outputs": [],
      "stateMutability": "nonpayable",
      "type": "function"
    },
    {
      "inputs": [
        {
          "internalType": "address",
          "name": "from",
          "type": "address"
        },
        {
          "internalType": "address",
          "name": "to",
          "type": "address"
        },
        {
          "internalType": "uint256[]",
          "name": "ids",
          "type": "uint256[]"
        },
        {
          "internalType": "uint256[]",
          "name": "amounts",
          "type": "uint256[]"
        },
        {
          "internalType": "bytes",
          "name": "data",
          "type": "bytes"
        }
      ],
      "name": "safeBatchTransferFrom",
      "outputs": [],
      "stateMutability": "nonpayable",
      "type": "function"
    },
    {
      "inputs": [
        {
          "internalType": "address",
          "name": "from",
          "type": "address"
        },
        {
          "internalType": "address",
          "name": "to",
          "type": "address"
        },
        {
          "internalType": "uint256",
          "name": "id",
          "type": "uint256"
        },
        {
          "internalType": "uint256",
          "name": "amount",
          "type": "uint256"
        },
        {
          "internalType": "bytes",
          "name": "data",
          "type": "bytes"
        }
      ],
      "name": "safeTransferFrom",
      "outputs": [],
      "stateMutability": "nonpayable",
      "type": "function"
    },
    {
      "inputs": [
        {
          "internalType": "address",
          "name": "operator",
          "type": "address"
        },
        {
          "internalType": "bool",
          "name": "approved",
          "type": "bool"
        }
      ],
      "name": "setApprovalForAll",
      "outputs": [],
      "stateMutability": "nonpayable",
      "type": "function"
    },
    {
      "inputs": [
        {
          "internalType": "bytes4",
          "name": "interfaceId",
          "type": "bytes4"
        }
      ],
      "name": "supportsInterface",
      "outputs": [
        {
          "internalType": "bool",
          "name": "",
          "type": "bool"
        }
      ],
      "stateMutability": "view",
      "type": "function",
      "constant": true
    },
    {
      "inputs": [
        {
          "internalType": "address",
          "name": "newOwner",
          "type": "address"
        }
      ],
      "name": "transferOwnership",
      "outputs": [],
      "stateMutability": "nonpayable",
      "type": "function"
    },
    {
      "inputs": [
        {
          "internalType": "uint256",
          "name": "",
          "type": "uint256"
        }
      ],
      "name": "uri",
      "outputs": [
        {
          "internalType": "string",
          "name": "",
          "type": "string"
        }
      ],
      "stateMutability": "view",
      "type": "function",
      "constant": true
    },
    {
      "inputs": [
        {
          "internalType": "uint256",
          "name": "tokenId",
          "type": "uint256"
        },
        {
          "internalType": "uint256",
          "name": "initialSupply",
          "type": "uint256"
        },
        {
          "internalType": "uint256",
          "name": "offchainPoints",
          "type": "uint256"
        }
      ],
      "name": "mint",
      "outputs": [],
      "stateMutability": "nonpayable",
      "type": "function"
    },
    {
      "inputs": [
        {
          "internalType": "uint256",
          "name": "tokenId",
          "type": "uint256"
        },
        {
          "internalType": "uint256",
          "name": "amount",
          "type": "uint256"
        }
      ],
      "name": "purchaseNFTWithPoints",
      "outputs": [],
      "stateMutability": "nonpayable",
      "type": "function"
    },
    {
      "inputs": [
        {
          "internalType": "uint256",
          "name": "tokenId",
          "type": "uint256"
        }
      ],
      "name": "tokenURI",
      "outputs": [
        {
          "internalType": "string",
          "name": "",
          "type": "string"
        }
      ],
      "stateMutability": "view",
      "type": "function",
      "constant": true
    }
  ],
  "bytecode": "0x608060405260016005553480156200001657600080fd5b50604051620039ff380380620039ff83398181016040528101906200003c91906200024d565b806200004e816200010760201b60201c565b506000620000616200012360201b60201c565b905080600360006101000a81548173ffffffffffffffffffffffffffffffffffffffff021916908373ffffffffffffffffffffffffffffffffffffffff1602179055508073ffffffffffffffffffffffffffffffffffffffff16600073ffffffffffffffffffffffffffffffffffffffff167f8be0079c531659141344cd1fd0a4f28419497f9722a3daafe3b4186f6b6457e060405160405180910390a35050620003c3565b80600290805190602001906200011f9291906200012b565b5050565b600033905090565b82805462000139906200032f565b90600052602060002090601f0160209004810192826200015d5760008555620001a9565b82601f106200017857805160ff1916838001178555620001a9565b82800160010185558215620001a9579182015b82811115620001a85782518255916020019190600101906200018b565b5b509050620001b89190620001bc565b5090565b5b80821115620001d7576000816000905550600101620001bd565b5090565b6000620001f2620001ec84620002c6565b62000292565b9050828152602081018484840111156200020b57600080fd5b62000218848285620002f9565b509392505050565b600082601f8301126200023257600080fd5b815162000244848260208601620001db565b91505092915050565b6000602082840312156200026057600080fd5b600082015167ffffffffffffffff8111156200027b57600080fd5b620002898482850162000220565b91505092915050565b6000604051905081810181811067ffffffffffffffff82111715620002bc57620002bb62000394565b5b8060405250919050565b600067ffffffffffffffff821115620002e457620002e362000394565b5b601f19601f8301169050602081019050919050565b60005b8381101562000319578082015181840152602081019050620002fc565b8381111562000329576000848401525b50505050565b600060028204905060018216806200034857607f821691505b602082108114156200035f576200035e62000365565b5b50919050565b7f4e487b7100000000000000000000000000000000000000000000000000000000600052602260045260246000fd5b7f4e487b7100000000000000000000000000000000000000000000000000000000600052604160045260246000fd5b61362c80620003d36000396000f3fe608060405234801561001057600080fd5b50600436106100f45760003560e01c8063715018a611610097578063c87b56dd11610066578063c87b56dd14610283578063e985e9c5146102b3578063f242432a146102e3578063f2fde38b146102ff576100f4565b8063715018a614610223578063884261941461022d5780638da5cb5b14610249578063a22cb46514610267576100f4565b80630e89341c116100d35780630e89341c14610175578063265aa621146101a55780632eb2c2d6146101d75780634e1273f4146101f3576100f4565b8062fdd58e146100f957806301ffc9a71461012957806302acc94b14610159575b600080fd5b610113600480360381019061010e9190612330565b61031b565b604051610120919061303d565b60405180910390f35b610143600480360381019061013e91906123d8565b6103e4565b6040516101509190612de0565b60405180910390f35b610173600480360381019061016e919061248f565b6104c6565b005b61018f600480360381019061018a919061242a565b61060e565b60405161019c9190612dfb565b60405180910390f35b6101bf60048036038101906101ba919061242a565b6106a2565b6040516101ce93929190613081565b60405180910390f35b6101f160048036038101906101ec91906121a6565b6106cc565b005b61020d6004803603810190610208919061236c565b610ac2565b60405161021a9190612d87565b60405180910390f35b61022b610c73565b005b61024760048036038101906102429190612453565b610db0565b005b610251610f8c565b60405161025e9190612caa565b60405180910390f35b610281600480360381019061027c91906122f4565b610fb6565b005b61029d6004803603810190610298919061242a565b611137565b6040516102aa9190612dfb565b60405180910390f35b6102cd60048036038101906102c8919061216a565b6111b6565b6040516102da9190612de0565b60405180910390f35b6102fd60048036038101906102f89190612265565b61124a565b005b61031960048036038101906103149190612141565b611562565b005b60008073ffffffffffffffffffffffffffffffffffffffff168373ffffffffffffffffffffffffffffffffffffffff16141561038c576040517f08c379a000000000000000000000000000000000000000000000000000000000815260040161038390612e5d565b60405180910390fd5b60008083815260200190815260200160002060008473ffffffffffffffffffffffffffffffffffffffff1673ffffffffffffffffffffffffffffffffffffffff16815260200190815260200160002054905092915050565b60007fd9b67a26000000000000000000000000000000000000000000000000000000007bffffffffffffffffffffffffffffffffffffffffffffffffffffffff1916827bffffffffffffffffffffffffffffffffffffffffffffffffffffffff191614806104af57507f0e89341c000000000000000000000000000000000000000000000000000000007bffffffffffffffffffffffffffffffffffffffffffffffffffffffff1916827bffffffffffffffffffffffffffffffffffffffffffffffffffffffff1916145b806104bf57506104be8261170e565b5b9050919050565b6104ce611778565b73ffffffffffffffffffffffffffffffffffffffff166104ec610f8c565b73ffffffffffffffffffffffffffffffffffffffff1614610542576040517f08c379a000000000000000000000000000000000000000000000000000000000815260040161053990612f5d565b60405180910390fd5b60006005600081548092919061055790613390565b91905055905061057f610568610f8c565b828560405180602001604052806000815250611780565b60405180606001604052808481526020018381526020018481525060046000838152602001908152602001600020600082015181600001556020820151816001015560408201518160020155905050807fe5177288d661448b7d383a5e5f1be3886695859c8c327562a87df71d65e21ac28484604051610600929190613058565b60405180910390a250505050565b60606002805461061d9061335e565b80601f01602080910402602001604051908101604052809291908181526020018280546106499061335e565b80156106965780601f1061066b57610100808354040283529160200191610696565b820191906000526020600020905b81548152906001019060200180831161067957829003601f168201915b50505050509050919050565b60046020528060005260406000206000915090508060000154908060010154908060020154905083565b8151835114610710576040517f08c379a000000000000000000000000000000000000000000000000000000000815260040161070790612fdd565b60405180910390fd5b600073ffffffffffffffffffffffffffffffffffffffff168473ffffffffffffffffffffffffffffffffffffffff161415610780576040517f08c379a000000000000000000000000000000000000000000000000000000000815260040161077790612efd565b60405180910390fd5b610788611778565b73ffffffffffffffffffffffffffffffffffffffff168573ffffffffffffffffffffffffffffffffffffffff1614806107ce57506107cd856107c8611778565b6111b6565b5b61080d576040517f08c379a000000000000000000000000000000000000000000000000000000000815260040161080490612f1d565b60405180910390fd5b6000610817611778565b9050610827818787878787611916565b60005b8451811015610a2d57600085828151811061086e577f4e487b7100000000000000000000000000000000000000000000000000000000600052603260045260246000fd5b6020026020010151905060008583815181106108b3577f4e487b7100000000000000000000000000000000000000000000000000000000600052603260045260246000fd5b60200260200101519050600080600084815260200190815260200160002060008b73ffffffffffffffffffffffffffffffffffffffff1673ffffffffffffffffffffffffffffffffffffffff16815260200190815260200160002054905081811015610954576040517f08c379a000000000000000000000000000000000000000000000000000000000815260040161094b90612f3d565b60405180910390fd5b81816109609190613274565b60008085815260200190815260200160002060008c73ffffffffffffffffffffffffffffffffffffffff1673ffffffffffffffffffffffffffffffffffffffff168152602001908152602001600020819055508160008085815260200190815260200160002060008b73ffffffffffffffffffffffffffffffffffffffff1673ffffffffffffffffffffffffffffffffffffffff1681526020019081526020016000206000828254610a1291906131ed565b9250508190555050505080610a2690613390565b905061082a565b508473ffffffffffffffffffffffffffffffffffffffff168673ffffffffffffffffffffffffffffffffffffffff168273ffffffffffffffffffffffffffffffffffffffff167f4a39dc06d4c0dbc64b70af90fd698a233a518aa5d07e595d983b8c0526c8f7fb8787604051610aa4929190612da9565b60405180910390a4610aba81878787878761191e565b505050505050565b60608151835114610b08576040517f08c379a0000000000000000000000000000000000000000000000000000000008152600401610aff90612f9d565b60405180910390fd5b6000835167ffffffffffffffff811115610b4b577f4e487b7100000000000000000000000000000000000000000000000000000000600052604160045260246000fd5b604051908082528060200260200182016040528015610b795781602001602082028036833780820191505090505b50905060005b8451811015610c6857610c12858281518110610bc4577f4e487b7100000000000000000000000000000000000000000000000000000000600052603260045260246000fd5b6020026020010151858381518110610c05577f4e487b7100000000000000000000000000000000000000000000000000000000600052603260045260246000fd5b602002602001015161031b565b828281518110610c4b577f4e487b7100000000000000000000000000000000000000000000000000000000600052603260045260246000fd5b60200260200101818152505080610c6190613390565b9050610b7f565b508091505092915050565b610c7b611778565b73ffffffffffffffffffffffffffffffffffffffff16610c99610f8c565b73ffffffffffffffffffffffffffffffffffffffff1614610cef576040517f08c379a0000000000000000000000000000000000000000000000000000000008152600401610ce690612f5d565b60405180910390fd5b600073ffffffffffffffffffffffffffffffffffffffff16600360009054906101000a900473ffffffffffffffffffffffffffffffffffffffff1673ffffffffffffffffffffffffffffffffffffffff167f8be0079c531659141344cd1fd0a4f28419497f9722a3daafe3b4186f6b6457e060405160405180910390a36000600360006101000a81548173ffffffffffffffffffffffffffffffffffffffff021916908373ffffffffffffffffffffffffffffffffffffffff160217905550565b6005548210610df4576040517f08c379a0000000000000000000000000000000000000000000000000000000008152600401610deb90612edd565b60405180910390fd5b6004600083815260200190815260200160002060020154811115610e4d576040517f08c379a0000000000000000000000000000000000000000000000000000000008152600401610e4490612fbd565b60405180910390fd5b60008111610e90576040517f08c379a0000000000000000000000000000000000000000000000000000000008152600401610e8790612e9d565b60405180910390fd5b6004600083815260200190815260200160002060000154811115610ee9576040517f08c379a0000000000000000000000000000000000000000000000000000000008152600401610ee09061301d565b60405180910390fd5b610f0c610ef4610f8c565b3384846040518060200160405280600081525061124a565b80600460008481526020019081526020016000206002016000828254610f329190613274565b92505081905550813373ffffffffffffffffffffffffffffffffffffffff167fa6d32bfcc7cd31e4d5ee7adeef7edd500cab0e64b4a494de4f832d41fd70f56d83604051610f80919061303d565b60405180910390a35050565b6000600360009054906101000a900473ffffffffffffffffffffffffffffffffffffffff16905090565b8173ffffffffffffffffffffffffffffffffffffffff16610fd5611778565b73ffffffffffffffffffffffffffffffffffffffff16141561102c576040517f08c379a000000000000000000000000000000000000000000000000000000000815260040161102390612f7d565b60405180910390fd5b8060016000611039611778565b73ffffffffffffffffffffffffffffffffffffffff1673ffffffffffffffffffffffffffffffffffffffff16815260200190815260200160002060008473ffffffffffffffffffffffffffffffffffffffff1673ffffffffffffffffffffffffffffffffffffffff16815260200190815260200160002060006101000a81548160ff0219169083151502179055508173ffffffffffffffffffffffffffffffffffffffff166110e6611778565b73ffffffffffffffffffffffffffffffffffffffff167f17307eab39ab6107e8899845ad3d59bd9653f200f220920489ca2b5937696c318360405161112b9190612de0565b60405180910390a35050565b6060600554821061117d576040517f08c379a000000000000000000000000000000000000000000000000000000000815260040161117490612edd565b60405180910390fd5b6111868261060e565b61118f83611aee565b6040516020016111a0929190612c7b565b6040516020818303038152906040529050919050565b6000600160008473ffffffffffffffffffffffffffffffffffffffff1673ffffffffffffffffffffffffffffffffffffffff16815260200190815260200160002060008373ffffffffffffffffffffffffffffffffffffffff1673ffffffffffffffffffffffffffffffffffffffff16815260200190815260200160002060009054906101000a900460ff16905092915050565b600073ffffffffffffffffffffffffffffffffffffffff168473ffffffffffffffffffffffffffffffffffffffff1614156112ba576040517f08c379a00000000000000000000000000000000000000000000000000000000081526004016112b190612efd565b60405180910390fd5b6112c2611778565b73ffffffffffffffffffffffffffffffffffffffff168573ffffffffffffffffffffffffffffffffffffffff161480611308575061130785611302611778565b6111b6565b5b611347576040517f08c379a000000000000000000000000000000000000000000000000000000000815260040161133e90612ebd565b60405180910390fd5b6000611351611778565b905061137181878761136288611c9b565b61136b88611c9b565b87611916565b600080600086815260200190815260200160002060008873ffffffffffffffffffffffffffffffffffffffff1673ffffffffffffffffffffffffffffffffffffffff16815260200190815260200160002054905083811015611408576040517f08c379a00000000000000000000000000000000000000000000000000000000081526004016113ff90612f3d565b60405180910390fd5b83816114149190613274565b60008087815260200190815260200160002060008973ffffffffffffffffffffffffffffffffffffffff1673ffffffffffffffffffffffffffffffffffffffff168152602001908152602001600020819055508360008087815260200190815260200160002060008873ffffffffffffffffffffffffffffffffffffffff1673ffffffffffffffffffffffffffffffffffffffff16815260200190815260200160002060008282546114c691906131ed565b925050819055508573ffffffffffffffffffffffffffffffffffffffff168773ffffffffffffffffffffffffffffffffffffffff168373ffffffffffffffffffffffffffffffffffffffff167fc3d58168c5ae7397731d063d5bbf3d657854427343f4c083240f7aacaa2d0f628888604051611543929190613058565b60405180910390a4611559828888888888611d61565b50505050505050565b61156a611778565b73ffffffffffffffffffffffffffffffffffffffff16611588610f8c565b73ffffffffffffffffffffffffffffffffffffffff16146115de576040517f08c379a00000000000000000000000000000000000000000000000000000000081526004016115d590612f5d565b60405180910390fd5b600073ffffffffffffffffffffffffffffffffffffffff168173ffffffffffffffffffffffffffffffffffffffff16141561164e576040517f08c379a000000000000000000000000000000000000000000000000000000000815260040161164590612e7d565b60405180910390fd5b8073ffffffffffffffffffffffffffffffffffffffff16600360009054906101000a900473ffffffffffffffffffffffffffffffffffffffff1673ffffffffffffffffffffffffffffffffffffffff167f8be0079c531659141344cd1fd0a4f28419497f9722a3daafe3b4186f6b6457e060405160405180910390a380600360006101000a81548173ffffffffffffffffffffffffffffffffffffffff021916908373ffffffffffffffffffffffffffffffffffffffff16021790555050565b60007f01ffc9a7000000000000000000000000000000000000000000000000000000007bffffffffffffffffffffffffffffffffffffffffffffffffffffffff1916827bffffffffffffffffffffffffffffffffffffffffffffffffffffffff1916149050919050565b600033905090565b600073ffffffffffffffffffffffffffffffffffffffff168473ffffffffffffffffffffffffffffffffffffffff1614156117f0576040517f08c379a00000000000000000000000000000000000000000000000000000000081526004016117e790612ffd565b60405180910390fd5b60006117fa611778565b905061181b8160008761180c88611c9b565b61181588611c9b565b87611916565b8260008086815260200190815260200160002060008773ffffffffffffffffffffffffffffffffffffffff1673ffffffffffffffffffffffffffffffffffffffff168152602001908152602001600020600082825461187a91906131ed565b925050819055508473ffffffffffffffffffffffffffffffffffffffff16600073ffffffffffffffffffffffffffffffffffffffff168273ffffffffffffffffffffffffffffffffffffffff167fc3d58168c5ae7397731d063d5bbf3d657854427343f4c083240f7aacaa2d0f6287876040516118f8929190613058565b60405180910390a461190f81600087878787611d61565b5050505050565b505050505050565b61193d8473ffffffffffffffffffffffffffffffffffffffff16611f31565b15611ae6578373ffffffffffffffffffffffffffffffffffffffff1663bc197c8187878686866040518663ffffffff1660e01b8152600401611983959493929190612cc5565b602060405180830381600087803b15801561199d57600080fd5b505af19250505080156119ce57506040513d601f19601f820116820180604052508101906119cb9190612401565b60015b611a5d576119da6134e4565b806119e55750611a22565b806040517f08c379a0000000000000000000000000000000000000000000000000000000008152600401611a199190612dfb565b60405180910390fd5b6040517f08c379a0000000000000000000000000000000000000000000000000000000008152600401611a5490612e1d565b60405180910390fd5b63bc197c8160e01b7bffffffffffffffffffffffffffffffffffffffffffffffffffffffff1916817bffffffffffffffffffffffffffffffffffffffffffffffffffffffff191614611ae4576040517f08c379a0000000000000000000000000000000000000000000000000000000008152600401611adb90612e3d565b60405180910390fd5b505b505050505050565b60606000821415611b36576040518060400160405280600181526020017f30000000000000000000000000000000000000000000000000000000000000008152509050611c96565b600082905060005b60008214611b68578080611b5190613390565b915050600a82611b619190613243565b9150611b3e565b60008167ffffffffffffffff811115611baa577f4e487b7100000000000000000000000000000000000000000000000000000000600052604160045260246000fd5b6040519080825280601f01601f191660200182016040528015611bdc5781602001600182028036833780820191505090505b5090505b60008514611c8f57600182611bf59190613274565b9150600a85611c0491906133d9565b6030611c1091906131ed565b60f81b818381518110611c4c577f4e487b7100000000000000000000000000000000000000000000000000000000600052603260045260246000fd5b60200101907effffffffffffffffffffffffffffffffffffffffffffffffffffffffffffff1916908160001a905350600a85611c889190613243565b9450611be0565b8093505050505b919050565b60606000600167ffffffffffffffff811115611ce0577f4e487b7100000000000000000000000000000000000000000000000000000000600052604160045260246000fd5b604051908082528060200260200182016040528015611d0e5781602001602082028036833780820191505090505b5090508281600081518110611d4c577f4e487b7100000000000000000000000000000000000000000000000000000000600052603260045260246000fd5b60200260200101818152505080915050919050565b611d808473ffffffffffffffffffffffffffffffffffffffff16611f31565b15611f29578373ffffffffffffffffffffffffffffffffffffffff1663f23a6e6187878686866040518663ffffffff1660e01b8152600401611dc6959493929190612d2d565b602060405180830381600087803b158015611de057600080fd5b505af1925050508015611e1157506040513d601f19601f82011682018060405250810190611e0e9190612401565b60015b611ea057611e1d6134e4565b80611e285750611e65565b806040517f08c379a0000000000000000000000000000000000000000000000000000000008152600401611e5c9190612dfb565b60405180910390fd5b6040517f08c379a0000000000000000000000000000000000000000000000000000000008152600401611e9790612e1d565b60405180910390fd5b63f23a6e6160e01b7bffffffffffffffffffffffffffffffffffffffffffffffffffffffff1916817bffffffffffffffffffffffffffffffffffffffffffffffffffffffff191614611f27576040517f08c379a0000000000000000000000000000000000000000000000000000000008152600401611f1e90612e3d565b60405180910390fd5b505b505050505050565b600080823b905060008111915050919050565b6000611f57611f52846130e9565b6130b8565b90508083825260208201905082856020860282011115611f7657600080fd5b60005b85811015611fa65781611f8c888261205a565b845260208401935060208301925050600181019050611f79565b5050509392505050565b6000611fc3611fbe84613115565b6130b8565b90508083825260208201905082856020860282011115611fe257600080fd5b60005b858110156120125781611ff8888261212c565b845260208401935060208301925050600181019050611fe5565b5050509392505050565b600061202f61202a84613141565b6130b8565b90508281526020810184848401111561204757600080fd5b61205284828561331c565b509392505050565b6000813590506120698161359a565b92915050565b600082601f83011261208057600080fd5b8135612090848260208601611f44565b91505092915050565b600082601f8301126120aa57600080fd5b81356120ba848260208601611fb0565b91505092915050565b6000813590506120d2816135b1565b92915050565b6000813590506120e7816135c8565b92915050565b6000815190506120fc816135c8565b92915050565b600082601f83011261211357600080fd5b813561212384826020860161201c565b91505092915050565b60008135905061213b816135df565b92915050565b60006020828403121561215357600080fd5b60006121618482850161205a565b91505092915050565b6000806040838503121561217d57600080fd5b600061218b8582860161205a565b925050602061219c8582860161205a565b9150509250929050565b600080600080600060a086880312156121be57600080fd5b60006121cc8882890161205a565b95505060206121dd8882890161205a565b945050604086013567ffffffffffffffff8111156121fa57600080fd5b61220688828901612099565b935050606086013567ffffffffffffffff81111561222357600080fd5b61222f88828901612099565b925050608086013567ffffffffffffffff81111561224c57600080fd5b61225888828901612102565b9150509295509295909350565b600080600080600060a0868803121561227d57600080fd5b600061228b8882890161205a565b955050602061229c8882890161205a565b94505060406122ad8882890161212c565b93505060606122be8882890161212c565b925050608086013567ffffffffffffffff8111156122db57600080fd5b6122e788828901612102565b9150509295509295909350565b6000806040838503121561230757600080fd5b60006123158582860161205a565b9250506020612326858286016120c3565b9150509250929050565b6000806040838503121561234357600080fd5b60006123518582860161205a565b92505060206123628582860161212c565b9150509250929050565b6000806040838503121561237f57600080fd5b600083013567ffffffffffffffff81111561239957600080fd5b6123a58582860161206f565b925050602083013567ffffffffffffffff8111156123c257600080fd5b6123ce85828601612099565b9150509250929050565b6000602082840312156123ea57600080fd5b60006123f8848285016120d8565b91505092915050565b60006020828403121561241357600080fd5b6000612421848285016120ed565b91505092915050565b60006020828403121561243c57600080fd5b600061244a8482850161212c565b91505092915050565b6000806040838503121561246657600080fd5b60006124748582860161212c565b92505060206124858582860161212c565b9150509250929050565b6000806000606084860312156124a457600080fd5b60006124b28682870161212c565b93505060206124c38682870161212c565b92505060406124d48682870161212c565b9150509250925092565b60006124ea8383612c5d565b60208301905092915050565b6124ff816132a8565b82525050565b600061251082613181565b61251a81856131af565b935061252583613171565b8060005b8381101561255657815161253d88826124de565b9750612548836131a2565b925050600181019050612529565b5085935050505092915050565b61256c816132ba565b82525050565b600061257d8261318c565b61258781856131c0565b935061259781856020860161332b565b6125a0816134c6565b840191505092915050565b60006125b682613197565b6125c081856131d1565b93506125d081856020860161332b565b6125d9816134c6565b840191505092915050565b60006125ef82613197565b6125f981856131e2565b935061260981856020860161332b565b80840191505092915050565b60006126226034836131d1565b91507f455243313135353a207472616e7366657220746f206e6f6e204552433131353560008301527f526563656976657220696d706c656d656e7465720000000000000000000000006020830152604082019050919050565b60006126886028836131d1565b91507f455243313135353a204552433131353552656365697665722072656a6563746560008301527f6420746f6b656e730000000000000000000000000000000000000000000000006020830152604082019050919050565b60006126ee602b836131d1565b91507f455243313135353a2062616c616e636520717565727920666f7220746865207a60008301527f65726f20616464726573730000000000000000000000000000000000000000006020830152604082019050919050565b60006127546026836131d1565b91507f4f776e61626c653a206e6577206f776e657220697320746865207a65726f206160008301527f64647265737300000000000000000000000000000000000000000000000000006020830152604082019050919050565b60006127ba600e836131d1565b91507f496e76616c696420616d6f756e740000000000000000000000000000000000006000830152602082019050919050565b60006127fa6029836131d1565b91507f455243313135353a2063616c6c6572206973206e6f74206f776e6572206e6f7260008301527f20617070726f76656400000000000000000000000000000000000000000000006020830152604082019050919050565b60006128606017836131d1565b91507f546f6b656e20494420646f6573206e6f742065786973740000000000000000006000830152602082019050919050565b60006128a06025836131d1565b91507f455243313135353a207472616e7366657220746f20746865207a65726f20616460008301527f64726573730000000000000000000000000000000000000000000000000000006020830152604082019050919050565b60006129066032836131d1565b91507f455243313135353a207472616e736665722063616c6c6572206973206e6f742060008301527f6f776e6572206e6f7220617070726f76656400000000000000000000000000006020830152604082019050919050565b600061296c602a836131d1565b91507f455243313135353a20696e73756666696369656e742062616c616e636520666f60008301527f72207472616e73666572000000000000000000000000000000000000000000006020830152604082019050919050565b60006129d26005836131e2565b91507f2e6a736f6e0000000000000000000000000000000000000000000000000000006000830152600582019050919050565b6000612a126020836131d1565b91507f4f776e61626c653a2063616c6c6572206973206e6f7420746865206f776e65726000830152602082019050919050565b6000612a526029836131d1565b91507f455243313135353a2073657474696e6720617070726f76616c2073746174757360008301527f20666f722073656c6600000000000000000000000000000000000000000000006020830152604082019050919050565b6000612ab86029836131d1565b91507f455243313135353a206163636f756e747320616e6420696473206c656e67746860008301527f206d69736d6174636800000000000000000000000000000000000000000000006020830152604082019050919050565b6000612b1e6018836131d1565b91507f457863656564732072656d61696e696e6720616d6f756e7400000000000000006000830152602082019050919050565b6000612b5e6028836131d1565b91507f455243313135353a2069647320616e6420616d6f756e7473206c656e6774682060008301527f6d69736d617463680000000000000000000000000000000000000000000000006020830152604082019050919050565b6000612bc46021836131d1565b91507f455243313135353a206d696e7420746f20746865207a65726f2061646472657360008301527f73000000000000000000000000000000000000000000000000000000000000006020830152604082019050919050565b6000612c2a6016836131d1565b91507f4578636565647320696e697469616c20737570706c79000000000000000000006000830152602082019050919050565b612c6681613312565b82525050565b612c7581613312565b82525050565b6000612c8782856125e4565b9150612c9382846125e4565b9150612c9e826129c5565b91508190509392505050565b6000602082019050612cbf60008301846124f6565b92915050565b600060a082019050612cda60008301886124f6565b612ce760208301876124f6565b8181036040830152612cf98186612505565b90508181036060830152612d0d8185612505565b90508181036080830152612d218184612572565b90509695505050505050565b600060a082019050612d4260008301886124f6565b612d4f60208301876124f6565b612d5c6040830186612c6c565b612d696060830185612c6c565b8181036080830152612d7b8184612572565b90509695505050505050565b60006020820190508181036000830152612da18184612505565b905092915050565b60006040820190508181036000830152612dc38185612505565b90508181036020830152612dd78184612505565b90509392505050565b6000602082019050612df56000830184612563565b92915050565b60006020820190508181036000830152612e1581846125ab565b905092915050565b60006020820190508181036000830152612e3681612615565b9050919050565b60006020820190508181036000830152612e568161267b565b9050919050565b60006020820190508181036000830152612e76816126e1565b9050919050565b60006020820190508181036000830152612e9681612747565b9050919050565b60006020820190508181036000830152612eb6816127ad565b9050919050565b60006020820190508181036000830152612ed6816127ed565b9050919050565b60006020820190508181036000830152612ef681612853565b9050919050565b60006020820190508181036000830152612f1681612893565b9050919050565b60006020820190508181036000830152612f36816128f9565b9050919050565b60006020820190508181036000830152612f568161295f565b9050919050565b60006020820190508181036000830152612f7681612a05565b9050919050565b60006020820190508181036000830152612f9681612a45565b9050919050565b60006020820190508181036000830152612fb681612aab565b9050919050565b60006020820190508181036000830152612fd681612b11565b9050919050565b60006020820190508181036000830152612ff681612b51565b9050919050565b6000602082019050818103600083015261301681612bb7565b9050919050565b6000602082019050818103600083015261303681612c1d565b9050919050565b60006020820190506130526000830184612c6c565b92915050565b600060408201905061306d6000830185612c6c565b61307a6020830184612c6c565b9392505050565b60006060820190506130966000830186612c6c565b6130a36020830185612c6c565b6130b06040830184612c6c565b949350505050565b6000604051905081810181811067ffffffffffffffff821117156130df576130de613497565b5b8060405250919050565b600067ffffffffffffffff82111561310457613103613497565b5b602082029050602081019050919050565b600067ffffffffffffffff8211156131305761312f613497565b5b602082029050602081019050919050565b600067ffffffffffffffff82111561315c5761315b613497565b5b601f19601f8301169050602081019050919050565b6000819050602082019050919050565b600081519050919050565b600081519050919050565b600081519050919050565b6000602082019050919050565b600082825260208201905092915050565b600082825260208201905092915050565b600082825260208201905092915050565b600081905092915050565b60006131f882613312565b915061320383613312565b9250827fffffffffffffffffffffffffffffffffffffffffffffffffffffffffffffffff038211156132385761323761340a565b5b828201905092915050565b600061324e82613312565b915061325983613312565b92508261326957613268613439565b5b828204905092915050565b600061327f82613312565b915061328a83613312565b92508282101561329d5761329c61340a565b5b828203905092915050565b60006132b3826132f2565b9050919050565b60008115159050919050565b60007fffffffff0000000000000000000000000000000000000000000000000000000082169050919050565b600073ffffffffffffffffffffffffffffffffffffffff82169050919050565b6000819050919050565b82818337600083830152505050565b60005b8381101561334957808201518184015260208101905061332e565b83811115613358576000848401525b50505050565b6000600282049050600182168061337657607f821691505b6020821081141561338a57613389613468565b5b50919050565b600061339b82613312565b91507fffffffffffffffffffffffffffffffffffffffffffffffffffffffffffffffff8214156133ce576133cd61340a565b5b600182019050919050565b60006133e482613312565b91506133ef83613312565b9250826133ff576133fe613439565b5b828206905092915050565b7f4e487b7100000000000000000000000000000000000000000000000000000000600052601160045260246000fd5b7f4e487b7100000000000000000000000000000000000000000000000000000000600052601260045260246000fd5b7f4e487b7100000000000000000000000000000000000000000000000000000000600052602260045260246000fd5b7f4e487b7100000000000000000000000000000000000000000000000000000000600052604160045260246000fd5b6000601f19601f8301169050919050565b60008160e01c9050919050565b600060443d10156134f457613597565b60046000803e6135056000516134d7565b6308c379a081146135165750613597565b60405160043d036004823e80513d602482011167ffffffffffffffff8211171561354257505050613597565b808201805167ffffffffffffffff811115613561575050505050613597565b8060208301013d850181111561357c57505050505050613597565b613585826134c6565b60208401016040528296505050505050505b90565b6135a3816132a8565b81146135ae57600080fd5b50565b6135ba816132ba565b81146135c557600080fd5b50565b6135d1816132c6565b81146135dc57600080fd5b50565b6135e881613312565b81146135f357600080fd5b5056fea2646970667358221220f8de57f4a8df3c24222f964bd78d7a2ff8b893681cf0332baaa640c993726d7164736f6c63430008000033",
  "immutableReferences": {},
  "source": "pragma solidity ^0.8.0;\r\n\r\nimport \"@openzeppelin/contracts/token/ERC1155/ERC1155.sol\";\r\nimport \"@openzeppelin/contracts/access/Ownable.sol\";\r\nimport \"@openzeppelin/contracts/utils/Strings.sol\";\r\n\r\ncontract SDVDiscountNFT is ERC1155, Ownable {\r\n    using Strings for uint256;\r\n\r\n    struct NFT {\r\n        uint256 initialSupply;\r\n        uint256 offchainPoints;\r\n        uint256 remainingAmount;\r\n    }\r\n\r\n    mapping(uint256 => NFT) public nfts;\r\n\r\n    uint256 private nextTokenId = 1;\r\n\r\n    event NFTMinted(uint256 indexed tokenId, uint256 initialSupply, uint256 offchainPoints);\r\n    event NFTPurchased(address indexed buyer, uint256 indexed tokenId, uint256 amount);\r\n\r\n    constructor(string memory baseTokenURI) ERC1155(baseTokenURI) {}\r\n\r\n    function mint(uint256 tokenId, uint256 initialSupply, uint256 offchainPoints) external onlyOwner {\r\n        uint256 tokenId = nextTokenId++;\r\n        _mint(owner(), tokenId, initialSupply, \"\");\r\n        nfts[tokenId] = NFT(initialSupply, offchainPoints, initialSupply);\r\n        emit NFTMinted(tokenId, initialSupply, offchainPoints);\r\n    }\r\n\r\n    function purchaseNFTWithPoints(uint256 tokenId, uint256 amount) external {\r\n    require(tokenId < nextTokenId, \"Token ID does not exist\");\r\n    require(amount <= nfts[tokenId].remainingAmount, \"Exceeds remaining amount\");\r\n    require(amount > 0, \"Invalid amount\");\r\n\r\n    require(amount <= nfts[tokenId].initialSupply, \"Exceeds initial supply\");\r\n\r\n    safeTransferFrom(owner(), msg.sender, tokenId, amount, \"\");\r\n    nfts[tokenId].remainingAmount -= amount;\r\n    emit NFTPurchased(msg.sender, tokenId, amount);\r\n}\r\n\r\n    function tokenURI(uint256 tokenId) external view returns (string memory) {\r\n        require(tokenId < nextTokenId, \"Token ID does not exist\");\r\n        return string(abi.encodePacked(uri(tokenId), tokenId.toString(), \".json\"));\r\n    }\r\n}\r\n",
  "sourcePath": "C:\\Users\\i\\Documents\\GitHub\\DSP-old\\contracts\\contracts\\SDVDiscountNFT.sol",
  "compiler": {
    "name": "solc",
    "version": "0.8.0+commit.c7dfd78e.Emscripten.clang"
  },
  "schemaVersion": "3.4.16",
  "updatedAt": "2024-03-07T11:36:04.597Z",
  "networkType": "ethereum",
  "devdoc": {
    "kind": "dev",
    "methods": {
      "balanceOf(address,uint256)": {
        "details": "See {IERC1155-balanceOf}. Requirements: - `account` cannot be the zero address."
      },
      "balanceOfBatch(address[],uint256[])": {
        "details": "See {IERC1155-balanceOfBatch}. Requirements: - `accounts` and `ids` must have the same length."
      },
      "isApprovedForAll(address,address)": {
        "details": "See {IERC1155-isApprovedForAll}."
      },
      "owner()": {
        "details": "Returns the address of the current owner."
      },
      "renounceOwnership()": {
        "details": "Leaves the contract without owner. It will not be possible to call `onlyOwner` functions anymore. Can only be called by the current owner. NOTE: Renouncing ownership will leave the contract without an owner, thereby removing any functionality that is only available to the owner."
      },
      "safeBatchTransferFrom(address,address,uint256[],uint256[],bytes)": {
        "details": "See {IERC1155-safeBatchTransferFrom}."
      },
      "safeTransferFrom(address,address,uint256,uint256,bytes)": {
        "details": "See {IERC1155-safeTransferFrom}."
      },
      "setApprovalForAll(address,bool)": {
        "details": "See {IERC1155-setApprovalForAll}."
      },
      "supportsInterface(bytes4)": {
        "details": "See {IERC165-supportsInterface}."
      },
      "transferOwnership(address)": {
        "details": "Transfers ownership of the contract to a new account (`newOwner`). Can only be called by the current owner."
      },
      "uri(uint256)": {
        "details": "See {IERC1155MetadataURI-uri}. This implementation returns the same URI for *all* token types. It relies on the token type ID substitution mechanism https://eips.ethereum.org/EIPS/eip-1155#metadata[defined in the EIP]. Clients calling this function must replace the `\\{id\\}` substring with the actual token type ID."
      }
    },
    "version": 1
  },
  "userdoc": {
    "kind": "user",
    "methods": {},
    "version": 1
  }
}