{
  "contractName": "SDVDiscountNFT",
  "abi": [
    {
      "inputs": [
        {
          "internalType": "string",
          "name": "_baseURI",
          "type": "string"
        }
      ],
      "stateMutability": "nonpayable",
      "type": "constructor"
    },
    {
      "anonymous": false,
      "inputs": [
        {
          "indexed": true,
          "internalType": "address",
          "name": "account",
          "type": "address"
        },
        {
          "indexed": true,
          "internalType": "address",
          "name": "operator",
          "type": "address"
        },
        {
          "indexed": false,
          "internalType": "bool",
          "name": "approved",
          "type": "bool"
        }
      ],
      "name": "ApprovalForAll",
      "type": "event"
    },
    {
      "anonymous": false,
      "inputs": [
        {
          "indexed": true,
          "internalType": "uint256",
          "name": "tokenId",
          "type": "uint256"
        },
        {
          "indexed": false,
          "internalType": "uint256",
          "name": "initialSupply",
          "type": "uint256"
        },
        {
          "indexed": false,
          "internalType": "uint256",
          "name": "offchainPoints",
          "type": "uint256"
        }
      ],
      "name": "NFTMinted",
      "type": "event"
    },
    {
      "anonymous": false,
      "inputs": [
        {
          "indexed": true,
          "internalType": "address",
          "name": "buyer",
          "type": "address"
        },
        {
          "indexed": true,
          "internalType": "uint256",
          "name": "tokenId",
          "type": "uint256"
        },
        {
          "indexed": false,
          "internalType": "uint256",
          "name": "amount",
          "type": "uint256"
        }
      ],
      "name": "NFTPurchased",
      "type": "event"
    },
    {
      "anonymous": false,
      "inputs": [
        {
          "indexed": true,
          "internalType": "address",
          "name": "previousOwner",
          "type": "address"
        },
        {
          "indexed": true,
          "internalType": "address",
          "name": "newOwner",
          "type": "address"
        }
      ],
      "name": "OwnershipTransferred",
      "type": "event"
    },
    {
      "anonymous": false,
      "inputs": [
        {
          "indexed": true,
          "internalType": "address",
          "name": "operator",
          "type": "address"
        },
        {
          "indexed": true,
          "internalType": "address",
          "name": "from",
          "type": "address"
        },
        {
          "indexed": true,
          "internalType": "address",
          "name": "to",
          "type": "address"
        },
        {
          "indexed": false,
          "internalType": "uint256[]",
          "name": "ids",
          "type": "uint256[]"
        },
        {
          "indexed": false,
          "internalType": "uint256[]",
          "name": "values",
          "type": "uint256[]"
        }
      ],
      "name": "TransferBatch",
      "type": "event"
    },
    {
      "anonymous": false,
      "inputs": [
        {
          "indexed": true,
          "internalType": "address",
          "name": "operator",
          "type": "address"
        },
        {
          "indexed": true,
          "internalType": "address",
          "name": "from",
          "type": "address"
        },
        {
          "indexed": true,
          "internalType": "address",
          "name": "to",
          "type": "address"
        },
        {
          "indexed": false,
          "internalType": "uint256",
          "name": "id",
          "type": "uint256"
        },
        {
          "indexed": false,
          "internalType": "uint256",
          "name": "value",
          "type": "uint256"
        }
      ],
      "name": "TransferSingle",
      "type": "event"
    },
    {
      "anonymous": false,
      "inputs": [
        {
          "indexed": false,
          "internalType": "string",
          "name": "value",
          "type": "string"
        },
        {
          "indexed": true,
          "internalType": "uint256",
          "name": "id",
          "type": "uint256"
        }
      ],
      "name": "URI",
      "type": "event"
    },
    {
      "inputs": [
        {
          "internalType": "address",
          "name": "account",
          "type": "address"
        },
        {
          "internalType": "uint256",
          "name": "id",
          "type": "uint256"
        }
      ],
      "name": "balanceOf",
      "outputs": [
        {
          "internalType": "uint256",
          "name": "",
          "type": "uint256"
        }
      ],
      "stateMutability": "view",
      "type": "function"
    },
    {
      "inputs": [
        {
          "internalType": "address[]",
          "name": "accounts",
          "type": "address[]"
        },
        {
          "internalType": "uint256[]",
          "name": "ids",
          "type": "uint256[]"
        }
      ],
      "name": "balanceOfBatch",
      "outputs": [
        {
          "internalType": "uint256[]",
          "name": "",
          "type": "uint256[]"
        }
      ],
      "stateMutability": "view",
      "type": "function"
    },
    {
      "inputs": [],
      "name": "baseURI",
      "outputs": [
        {
          "internalType": "string",
          "name": "",
          "type": "string"
        }
      ],
      "stateMutability": "view",
      "type": "function"
    },
    {
      "inputs": [
        {
          "internalType": "address",
          "name": "account",
          "type": "address"
        },
        {
          "internalType": "address",
          "name": "operator",
          "type": "address"
        }
      ],
      "name": "isApprovedForAll",
      "outputs": [
        {
          "internalType": "bool",
          "name": "",
          "type": "bool"
        }
      ],
      "stateMutability": "view",
      "type": "function"
    },
    {
      "inputs": [
        {
          "internalType": "uint256",
          "name": "",
          "type": "uint256"
        }
      ],
      "name": "nfts",
      "outputs": [
        {
          "internalType": "uint256",
          "name": "initialSupply",
          "type": "uint256"
        },
        {
          "internalType": "uint256",
          "name": "offchainPoints",
          "type": "uint256"
        },
        {
          "internalType": "uint256",
          "name": "remainingAmount",
          "type": "uint256"
        }
      ],
      "stateMutability": "view",
      "type": "function"
    },
    {
      "inputs": [],
      "name": "owner",
      "outputs": [
        {
          "internalType": "address",
          "name": "",
          "type": "address"
        }
      ],
      "stateMutability": "view",
      "type": "function"
    },
    {
      "inputs": [],
      "name": "renounceOwnership",
      "outputs": [],
      "stateMutability": "nonpayable",
      "type": "function"
    },
    {
      "inputs": [
        {
          "internalType": "address",
          "name": "from",
          "type": "address"
        },
        {
          "internalType": "address",
          "name": "to",
          "type": "address"
        },
        {
          "internalType": "uint256[]",
          "name": "ids",
          "type": "uint256[]"
        },
        {
          "internalType": "uint256[]",
          "name": "amounts",
          "type": "uint256[]"
        },
        {
          "internalType": "bytes",
          "name": "data",
          "type": "bytes"
        }
      ],
      "name": "safeBatchTransferFrom",
      "outputs": [],
      "stateMutability": "nonpayable",
      "type": "function"
    },
    {
      "inputs": [
        {
          "internalType": "address",
          "name": "from",
          "type": "address"
        },
        {
          "internalType": "address",
          "name": "to",
          "type": "address"
        },
        {
          "internalType": "uint256",
          "name": "id",
          "type": "uint256"
        },
        {
          "internalType": "uint256",
          "name": "amount",
          "type": "uint256"
        },
        {
          "internalType": "bytes",
          "name": "data",
          "type": "bytes"
        }
      ],
      "name": "safeTransferFrom",
      "outputs": [],
      "stateMutability": "nonpayable",
      "type": "function"
    },
    {
      "inputs": [
        {
          "internalType": "address",
          "name": "operator",
          "type": "address"
        },
        {
          "internalType": "bool",
          "name": "approved",
          "type": "bool"
        }
      ],
      "name": "setApprovalForAll",
      "outputs": [],
      "stateMutability": "nonpayable",
      "type": "function"
    },
    {
      "inputs": [
        {
          "internalType": "bytes4",
          "name": "interfaceId",
          "type": "bytes4"
        }
      ],
      "name": "supportsInterface",
      "outputs": [
        {
          "internalType": "bool",
          "name": "",
          "type": "bool"
        }
      ],
      "stateMutability": "view",
      "type": "function"
    },
    {
      "inputs": [
        {
          "internalType": "address",
          "name": "newOwner",
          "type": "address"
        }
      ],
      "name": "transferOwnership",
      "outputs": [],
      "stateMutability": "nonpayable",
      "type": "function"
    },
    {
      "inputs": [
        {
          "internalType": "uint256",
          "name": "",
          "type": "uint256"
        }
      ],
      "name": "uri",
      "outputs": [
        {
          "internalType": "string",
          "name": "",
          "type": "string"
        }
      ],
      "stateMutability": "view",
      "type": "function"
    },
    {
      "inputs": [
        {
          "internalType": "uint256",
          "name": "initialSupply",
          "type": "uint256"
        },
        {
          "internalType": "uint256",
          "name": "offchainPoints",
          "type": "uint256"
        }
      ],
      "name": "mint",
      "outputs": [],
      "stateMutability": "nonpayable",
      "type": "function"
    },
    {
      "inputs": [
        {
          "internalType": "uint256",
          "name": "tokenId",
          "type": "uint256"
        },
        {
          "internalType": "uint256",
          "name": "amount",
          "type": "uint256"
        }
      ],
      "name": "purchaseNFTWithPoints",
      "outputs": [],
      "stateMutability": "nonpayable",
      "type": "function"
    },
    {
      "inputs": [
        {
          "internalType": "uint256",
          "name": "tokenId",
          "type": "uint256"
        }
      ],
      "name": "tokenURI",
      "outputs": [
        {
          "internalType": "string",
          "name": "",
          "type": "string"
        }
      ],
      "stateMutability": "view",
      "type": "function"
    }
  ],
  "bytecode": "0x6080604052600160055534801562000015575f80fd5b5060405162003b4738038062003b4783398181016040528101906200003b9190620002c4565b60405180602001604052805f8152506200005b816200012360201b60201c565b505f6200006d6200013860201b60201c565b90508060035f6101000a81548173ffffffffffffffffffffffffffffffffffffffff021916908373ffffffffffffffffffffffffffffffffffffffff1602179055508073ffffffffffffffffffffffffffffffffffffffff165f73ffffffffffffffffffffffffffffffffffffffff167f8be0079c531659141344cd1fd0a4f28419497f9722a3daafe3b4186f6b6457e060405160405180910390a35080600690816200011b91906200054a565b50506200062e565b80600290816200013491906200054a565b5050565b5f33905090565b5f604051905090565b5f80fd5b5f80fd5b5f80fd5b5f80fd5b5f601f19601f8301169050919050565b7f4e487b71000000000000000000000000000000000000000000000000000000005f52604160045260245ffd5b620001a08262000158565b810181811067ffffffffffffffff82111715620001c257620001c162000168565b5b80604052505050565b5f620001d66200013f565b9050620001e4828262000195565b919050565b5f67ffffffffffffffff82111562000206576200020562000168565b5b620002118262000158565b9050602081019050919050565b5f5b838110156200023d57808201518184015260208101905062000220565b5f8484015250505050565b5f6200025e6200025884620001e9565b620001cb565b9050828152602081018484840111156200027d576200027c62000154565b5b6200028a8482856200021e565b509392505050565b5f82601f830112620002a957620002a862000150565b5b8151620002bb84826020860162000248565b91505092915050565b5f60208284031215620002dc57620002db62000148565b5b5f82015167ffffffffffffffff811115620002fc57620002fb6200014c565b5b6200030a8482850162000292565b91505092915050565b5f81519050919050565b7f4e487b71000000000000000000000000000000000000000000000000000000005f52602260045260245ffd5b5f60028204905060018216806200036257607f821691505b6020821081036200037857620003776200031d565b5b50919050565b5f819050815f5260205f209050919050565b5f6020601f8301049050919050565b5f82821b905092915050565b5f60088302620003dc7fffffffffffffffffffffffffffffffffffffffffffffffffffffffffffffffff826200039f565b620003e886836200039f565b95508019841693508086168417925050509392505050565b5f819050919050565b5f819050919050565b5f620004326200042c620004268462000400565b62000409565b62000400565b9050919050565b5f819050919050565b6200044d8362000412565b620004656200045c8262000439565b848454620003ab565b825550505050565b5f90565b6200047b6200046d565b6200048881848462000442565b505050565b5b81811015620004af57620004a35f8262000471565b6001810190506200048e565b5050565b601f821115620004fe57620004c8816200037e565b620004d38462000390565b81016020851015620004e3578190505b620004fb620004f28562000390565b8301826200048d565b50505b505050565b5f82821c905092915050565b5f620005205f198460080262000503565b1980831691505092915050565b5f6200053a83836200050f565b9150826002028217905092915050565b620005558262000313565b67ffffffffffffffff81111562000571576200057062000168565b5b6200057d82546200034a565b6200058a828285620004b3565b5f60209050601f831160018114620005c0575f8415620005ab578287015190505b620005b785826200052d565b86555062000626565b601f198416620005d0866200037e565b5f5b82811015620005f957848901518255600182019150602085019450602081019050620005d2565b8683101562000619578489015162000615601f8916826200050f565b8355505b6001600288020188555050505b505050505050565b61350b806200063c5f395ff3fe608060405234801561000f575f80fd5b50600436106100fd575f3560e01c8063715018a611610095578063c87b56dd11610064578063c87b56dd146102a9578063e985e9c5146102d9578063f242432a14610309578063f2fde38b14610325576100fd565b8063715018a61461024957806388426194146102535780638da5cb5b1461026f578063a22cb4651461028d576100fd565b8063265aa621116100d1578063265aa621146101ad5780632eb2c2d6146101df5780634e1273f4146101fb5780636c0360eb1461022b576100fd565b8062fdd58e1461010157806301ffc9a7146101315780630e89341c146101615780631b2ef1ca14610191575b5f80fd5b61011b60048036038101906101169190611e3e565b610341565b6040516101289190611e8b565b60405180910390f35b61014b60048036038101906101469190611ef9565b610404565b6040516101589190611f3e565b60405180910390f35b61017b60048036038101906101769190611f57565b6104e5565b604051610188919061200c565b60405180910390f35b6101ab60048036038101906101a6919061202c565b610577565b005b6101c760048036038101906101c29190611f57565b6106b7565b6040516101d69392919061206a565b60405180910390f35b6101f960048036038101906101f4919061228f565b6106dd565b005b6102156004803603810190610210919061241a565b610a6d565b6040516102229190612547565b60405180910390f35b610233610b7e565b604051610240919061200c565b60405180910390f35b610251610c0a565b005b61026d6004803603810190610268919061202c565b610d43565b005b610277610eb7565b6040516102849190612576565b60405180910390f35b6102a760048036038101906102a291906125b9565b610edf565b005b6102c360048036038101906102be9190611f57565b61105a565b6040516102d0919061200c565b60405180910390f35b6102f360048036038101906102ee91906125f7565b6110d2565b6040516103009190611f3e565b60405180910390f35b610323600480360381019061031e9190612635565b611160565b005b61033f600480360381019061033a91906126c8565b611467565b005b5f8073ffffffffffffffffffffffffffffffffffffffff168373ffffffffffffffffffffffffffffffffffffffff16036103b0576040517f08c379a00000000000000000000000000000000000000000000000000000000081526004016103a790612763565b60405180910390fd5b5f808381526020019081526020015f205f8473ffffffffffffffffffffffffffffffffffffffff1673ffffffffffffffffffffffffffffffffffffffff1681526020019081526020015f2054905092915050565b5f7fd9b67a26000000000000000000000000000000000000000000000000000000007bffffffffffffffffffffffffffffffffffffffffffffffffffffffff1916827bffffffffffffffffffffffffffffffffffffffffffffffffffffffff191614806104ce57507f0e89341c000000000000000000000000000000000000000000000000000000007bffffffffffffffffffffffffffffffffffffffffffffffffffffffff1916827bffffffffffffffffffffffffffffffffffffffffffffffffffffffff1916145b806104de57506104dd8261160f565b5b9050919050565b6060600280546104f4906127ae565b80601f0160208091040260200160405190810160405280929190818152602001828054610520906127ae565b801561056b5780601f106105425761010080835404028352916020019161056b565b820191905f5260205f20905b81548152906001019060200180831161054e57829003601f168201915b50505050509050919050565b61057f611678565b73ffffffffffffffffffffffffffffffffffffffff1661059d610eb7565b73ffffffffffffffffffffffffffffffffffffffff16146105f3576040517f08c379a00000000000000000000000000000000000000000000000000000000081526004016105ea90612828565b60405180910390fd5b5f60055f81548092919061060690612873565b91905055905060405180606001604052808481526020018381526020018481525060045f8381526020019081526020015f205f820151815f01556020820151816001015560408201518160020155905050807fe5177288d661448b7d383a5e5f1be3886695859c8c327562a87df71d65e21ac284846040516106899291906128ba565b60405180910390a26106b261069c610eb7565b828560405180602001604052805f81525061167f565b505050565b6004602052805f5260405f205f91509050805f0154908060010154908060020154905083565b8151835114610721576040517f08c379a000000000000000000000000000000000000000000000000000000000815260040161071890612951565b60405180910390fd5b5f73ffffffffffffffffffffffffffffffffffffffff168473ffffffffffffffffffffffffffffffffffffffff160361078f576040517f08c379a0000000000000000000000000000000000000000000000000000000008152600401610786906129df565b60405180910390fd5b610797611678565b73ffffffffffffffffffffffffffffffffffffffff168573ffffffffffffffffffffffffffffffffffffffff1614806107dd57506107dc856107d7611678565b6110d2565b5b61081c576040517f08c379a000000000000000000000000000000000000000000000000000000000815260040161081390612a6d565b60405180910390fd5b5f610825611678565b905061083581878787878761180a565b5f5b84518110156109d8575f85828151811061085457610853612a8b565b5b602002602001015190505f85838151811061087257610871612a8b565b5b602002602001015190505f805f8481526020019081526020015f205f8b73ffffffffffffffffffffffffffffffffffffffff1673ffffffffffffffffffffffffffffffffffffffff1681526020019081526020015f205490508181101561090e576040517f08c379a000000000000000000000000000000000000000000000000000000000815260040161090590612b28565b60405180910390fd5b818161091a9190612b46565b5f808581526020019081526020015f205f8c73ffffffffffffffffffffffffffffffffffffffff1673ffffffffffffffffffffffffffffffffffffffff1681526020019081526020015f2081905550815f808581526020019081526020015f205f8b73ffffffffffffffffffffffffffffffffffffffff1673ffffffffffffffffffffffffffffffffffffffff1681526020019081526020015f205f8282546109c39190612b79565b92505081905550505050806001019050610837565b508473ffffffffffffffffffffffffffffffffffffffff168673ffffffffffffffffffffffffffffffffffffffff168273ffffffffffffffffffffffffffffffffffffffff167f4a39dc06d4c0dbc64b70af90fd698a233a518aa5d07e595d983b8c0526c8f7fb8787604051610a4f929190612bac565b60405180910390a4610a65818787878787611812565b505050505050565b60608151835114610ab3576040517f08c379a0000000000000000000000000000000000000000000000000000000008152600401610aaa90612c51565b60405180910390fd5b5f835167ffffffffffffffff811115610acf57610ace6120a3565b5b604051908082528060200260200182016040528015610afd5781602001602082028036833780820191505090505b5090505f5b8451811015610b7357610b49858281518110610b2157610b20612a8b565b5b6020026020010151858381518110610b3c57610b3b612a8b565b5b6020026020010151610341565b828281518110610b5c57610b5b612a8b565b5b602002602001018181525050806001019050610b02565b508091505092915050565b60068054610b8b906127ae565b80601f0160208091040260200160405190810160405280929190818152602001828054610bb7906127ae565b8015610c025780601f10610bd957610100808354040283529160200191610c02565b820191905f5260205f20905b815481529060010190602001808311610be557829003601f168201915b505050505081565b610c12611678565b73ffffffffffffffffffffffffffffffffffffffff16610c30610eb7565b73ffffffffffffffffffffffffffffffffffffffff1614610c86576040517f08c379a0000000000000000000000000000000000000000000000000000000008152600401610c7d90612828565b60405180910390fd5b5f73ffffffffffffffffffffffffffffffffffffffff1660035f9054906101000a900473ffffffffffffffffffffffffffffffffffffffff1673ffffffffffffffffffffffffffffffffffffffff167f8be0079c531659141344cd1fd0a4f28419497f9722a3daafe3b4186f6b6457e060405160405180910390a35f60035f6101000a81548173ffffffffffffffffffffffffffffffffffffffff021916908373ffffffffffffffffffffffffffffffffffffffff160217905550565b6005548210610d87576040517f08c379a0000000000000000000000000000000000000000000000000000000008152600401610d7e90612cb9565b60405180910390fd5b60045f8381526020019081526020015f2060020154811115610dde576040517f08c379a0000000000000000000000000000000000000000000000000000000008152600401610dd590612d21565b60405180910390fd5b5f8111610e20576040517f08c379a0000000000000000000000000000000000000000000000000000000008152600401610e1790612d89565b60405180910390fd5b813373ffffffffffffffffffffffffffffffffffffffff167fa6d32bfcc7cd31e4d5ee7adeef7edd500cab0e64b4a494de4f832d41fd70f56d83604051610e679190611e8b565b60405180910390a38060045f8481526020019081526020015f206002015f828254610e929190612b46565b92505081905550610eb333838360405180602001604052805f81525061167f565b5050565b5f60035f9054906101000a900473ffffffffffffffffffffffffffffffffffffffff16905090565b8173ffffffffffffffffffffffffffffffffffffffff16610efe611678565b73ffffffffffffffffffffffffffffffffffffffff1603610f54576040517f08c379a0000000000000000000000000000000000000000000000000000000008152600401610f4b90612e17565b60405180910390fd5b8060015f610f60611678565b73ffffffffffffffffffffffffffffffffffffffff1673ffffffffffffffffffffffffffffffffffffffff1681526020019081526020015f205f8473ffffffffffffffffffffffffffffffffffffffff1673ffffffffffffffffffffffffffffffffffffffff1681526020019081526020015f205f6101000a81548160ff0219169083151502179055508173ffffffffffffffffffffffffffffffffffffffff16611009611678565b73ffffffffffffffffffffffffffffffffffffffff167f17307eab39ab6107e8899845ad3d59bd9653f200f220920489ca2b5937696c318360405161104e9190611f3e565b60405180910390a35050565b606060055482106110a0576040517f08c379a000000000000000000000000000000000000000000000000000000000815260040161109790612cb9565b60405180910390fd5b60066110ab836119e8565b6040516020016110bc929190612f4b565b6040516020818303038152906040529050919050565b5f60015f8473ffffffffffffffffffffffffffffffffffffffff1673ffffffffffffffffffffffffffffffffffffffff1681526020019081526020015f205f8373ffffffffffffffffffffffffffffffffffffffff1673ffffffffffffffffffffffffffffffffffffffff1681526020019081526020015f205f9054906101000a900460ff16905092915050565b5f73ffffffffffffffffffffffffffffffffffffffff168473ffffffffffffffffffffffffffffffffffffffff16036111ce576040517f08c379a00000000000000000000000000000000000000000000000000000000081526004016111c5906129df565b60405180910390fd5b6111d6611678565b73ffffffffffffffffffffffffffffffffffffffff168573ffffffffffffffffffffffffffffffffffffffff16148061121c575061121b85611216611678565b6110d2565b5b61125b576040517f08c379a000000000000000000000000000000000000000000000000000000000815260040161125290612fe9565b60405180910390fd5b5f611264611678565b905061128481878761127588611b41565b61127e88611b41565b8761180a565b5f805f8681526020019081526020015f205f8873ffffffffffffffffffffffffffffffffffffffff1673ffffffffffffffffffffffffffffffffffffffff1681526020019081526020015f2054905083811015611316576040517f08c379a000000000000000000000000000000000000000000000000000000000815260040161130d90612b28565b60405180910390fd5b83816113229190612b46565b5f808781526020019081526020015f205f8973ffffffffffffffffffffffffffffffffffffffff1673ffffffffffffffffffffffffffffffffffffffff1681526020019081526020015f2081905550835f808781526020019081526020015f205f8873ffffffffffffffffffffffffffffffffffffffff1673ffffffffffffffffffffffffffffffffffffffff1681526020019081526020015f205f8282546113cb9190612b79565b925050819055508573ffffffffffffffffffffffffffffffffffffffff168773ffffffffffffffffffffffffffffffffffffffff168373ffffffffffffffffffffffffffffffffffffffff167fc3d58168c5ae7397731d063d5bbf3d657854427343f4c083240f7aacaa2d0f6288886040516114489291906128ba565b60405180910390a461145e828888888888611bb9565b50505050505050565b61146f611678565b73ffffffffffffffffffffffffffffffffffffffff1661148d610eb7565b73ffffffffffffffffffffffffffffffffffffffff16146114e3576040517f08c379a00000000000000000000000000000000000000000000000000000000081526004016114da90612828565b60405180910390fd5b5f73ffffffffffffffffffffffffffffffffffffffff168173ffffffffffffffffffffffffffffffffffffffff1603611551576040517f08c379a000000000000000000000000000000000000000000000000000000000815260040161154890613077565b60405180910390fd5b8073ffffffffffffffffffffffffffffffffffffffff1660035f9054906101000a900473ffffffffffffffffffffffffffffffffffffffff1673ffffffffffffffffffffffffffffffffffffffff167f8be0079c531659141344cd1fd0a4f28419497f9722a3daafe3b4186f6b6457e060405160405180910390a38060035f6101000a81548173ffffffffffffffffffffffffffffffffffffffff021916908373ffffffffffffffffffffffffffffffffffffffff16021790555050565b5f7f01ffc9a7000000000000000000000000000000000000000000000000000000007bffffffffffffffffffffffffffffffffffffffffffffffffffffffff1916827bffffffffffffffffffffffffffffffffffffffffffffffffffffffff1916149050919050565b5f33905090565b5f73ffffffffffffffffffffffffffffffffffffffff168473ffffffffffffffffffffffffffffffffffffffff16036116ed576040517f08c379a00000000000000000000000000000000000000000000000000000000081526004016116e490613105565b60405180910390fd5b5f6116f6611678565b9050611716815f8761170788611b41565b61171088611b41565b8761180a565b825f808681526020019081526020015f205f8773ffffffffffffffffffffffffffffffffffffffff1673ffffffffffffffffffffffffffffffffffffffff1681526020019081526020015f205f8282546117709190612b79565b925050819055508473ffffffffffffffffffffffffffffffffffffffff165f73ffffffffffffffffffffffffffffffffffffffff168273ffffffffffffffffffffffffffffffffffffffff167fc3d58168c5ae7397731d063d5bbf3d657854427343f4c083240f7aacaa2d0f6287876040516117ed9291906128ba565b60405180910390a4611803815f87878787611bb9565b5050505050565b505050505050565b6118318473ffffffffffffffffffffffffffffffffffffffff16611d8f565b156119e0578373ffffffffffffffffffffffffffffffffffffffff1663bc197c8187878686866040518663ffffffff1660e01b8152600401611877959493929190613175565b6020604051808303815f875af19250505080156118b257506040513d601f19601f820116820180604052508101906118af91906131ef565b60015b611957576118be613226565b806308c379a00361191a57506118d2613245565b806118dd575061191c565b806040517f08c379a0000000000000000000000000000000000000000000000000000000008152600401611911919061200c565b60405180910390fd5b505b6040517f08c379a000000000000000000000000000000000000000000000000000000000815260040161194e90613344565b60405180910390fd5b63bc197c8160e01b7bffffffffffffffffffffffffffffffffffffffffffffffffffffffff1916817bffffffffffffffffffffffffffffffffffffffffffffffffffffffff1916146119de576040517f08c379a00000000000000000000000000000000000000000000000000000000081526004016119d5906133d2565b60405180910390fd5b505b505050505050565b60605f8203611a2e576040518060400160405280600181526020017f30000000000000000000000000000000000000000000000000000000000000008152509050611b3c565b5f8290505f5b5f8214611a5d578080611a4690612873565b915050600a82611a56919061341d565b9150611a34565b5f8167ffffffffffffffff811115611a7857611a776120a3565b5b6040519080825280601f01601f191660200182016040528015611aaa5781602001600182028036833780820191505090505b5090505b5f8514611b3557600182611ac29190612b46565b9150600a85611ad1919061344d565b6030611add9190612b79565b60f81b818381518110611af357611af2612a8b565b5b60200101907effffffffffffffffffffffffffffffffffffffffffffffffffffffffffffff191690815f1a905350600a85611b2e919061341d565b9450611aae565b8093505050505b919050565b60605f600167ffffffffffffffff811115611b5f57611b5e6120a3565b5b604051908082528060200260200182016040528015611b8d5781602001602082028036833780820191505090505b50905082815f81518110611ba457611ba3612a8b565b5b60200260200101818152505080915050919050565b611bd88473ffffffffffffffffffffffffffffffffffffffff16611d8f565b15611d87578373ffffffffffffffffffffffffffffffffffffffff1663f23a6e6187878686866040518663ffffffff1660e01b8152600401611c1e95949392919061347d565b6020604051808303815f875af1925050508015611c5957506040513d601f19601f82011682018060405250810190611c5691906131ef565b60015b611cfe57611c65613226565b806308c379a003611cc15750611c79613245565b80611c845750611cc3565b806040517f08c379a0000000000000000000000000000000000000000000000000000000008152600401611cb8919061200c565b60405180910390fd5b505b6040517f08c379a0000000000000000000000000000000000000000000000000000000008152600401611cf590613344565b60405180910390fd5b63f23a6e6160e01b7bffffffffffffffffffffffffffffffffffffffffffffffffffffffff1916817bffffffffffffffffffffffffffffffffffffffffffffffffffffffff191614611d85576040517f08c379a0000000000000000000000000000000000000000000000000000000008152600401611d7c906133d2565b60405180910390fd5b505b505050505050565b5f80823b90505f8111915050919050565b5f604051905090565b5f80fd5b5f80fd5b5f73ffffffffffffffffffffffffffffffffffffffff82169050919050565b5f611dda82611db1565b9050919050565b611dea81611dd0565b8114611df4575f80fd5b50565b5f81359050611e0581611de1565b92915050565b5f819050919050565b611e1d81611e0b565b8114611e27575f80fd5b50565b5f81359050611e3881611e14565b92915050565b5f8060408385031215611e5457611e53611da9565b5b5f611e6185828601611df7565b9250506020611e7285828601611e2a565b9150509250929050565b611e8581611e0b565b82525050565b5f602082019050611e9e5f830184611e7c565b92915050565b5f7fffffffff0000000000000000000000000000000000000000000000000000000082169050919050565b611ed881611ea4565b8114611ee2575f80fd5b50565b5f81359050611ef381611ecf565b92915050565b5f60208284031215611f0e57611f0d611da9565b5b5f611f1b84828501611ee5565b91505092915050565b5f8115159050919050565b611f3881611f24565b82525050565b5f602082019050611f515f830184611f2f565b92915050565b5f60208284031215611f6c57611f6b611da9565b5b5f611f7984828501611e2a565b91505092915050565b5f81519050919050565b5f82825260208201905092915050565b5f5b83811015611fb9578082015181840152602081019050611f9e565b5f8484015250505050565b5f601f19601f8301169050919050565b5f611fde82611f82565b611fe88185611f8c565b9350611ff8818560208601611f9c565b61200181611fc4565b840191505092915050565b5f6020820190508181035f8301526120248184611fd4565b905092915050565b5f806040838503121561204257612041611da9565b5b5f61204f85828601611e2a565b925050602061206085828601611e2a565b9150509250929050565b5f60608201905061207d5f830186611e7c565b61208a6020830185611e7c565b6120976040830184611e7c565b949350505050565b5f80fd5b7f4e487b71000000000000000000000000000000000000000000000000000000005f52604160045260245ffd5b6120d982611fc4565b810181811067ffffffffffffffff821117156120f8576120f76120a3565b5b80604052505050565b5f61210a611da0565b905061211682826120d0565b919050565b5f67ffffffffffffffff821115612135576121346120a3565b5b602082029050602081019050919050565b5f80fd5b5f61215c6121578461211b565b612101565b9050808382526020820190506020840283018581111561217f5761217e612146565b5b835b818110156121a857806121948882611e2a565b845260208401935050602081019050612181565b5050509392505050565b5f82601f8301126121c6576121c561209f565b5b81356121d684826020860161214a565b91505092915050565b5f80fd5b5f67ffffffffffffffff8211156121fd576121fc6120a3565b5b61220682611fc4565b9050602081019050919050565b828183375f83830152505050565b5f61223361222e846121e3565b612101565b90508281526020810184848401111561224f5761224e6121df565b5b61225a848285612213565b509392505050565b5f82601f8301126122765761227561209f565b5b8135612286848260208601612221565b91505092915050565b5f805f805f60a086880312156122a8576122a7611da9565b5b5f6122b588828901611df7565b95505060206122c688828901611df7565b945050604086013567ffffffffffffffff8111156122e7576122e6611dad565b5b6122f3888289016121b2565b935050606086013567ffffffffffffffff81111561231457612313611dad565b5b612320888289016121b2565b925050608086013567ffffffffffffffff81111561234157612340611dad565b5b61234d88828901612262565b9150509295509295909350565b5f67ffffffffffffffff821115612374576123736120a3565b5b602082029050602081019050919050565b5f6123976123928461235a565b612101565b905080838252602082019050602084028301858111156123ba576123b9612146565b5b835b818110156123e357806123cf8882611df7565b8452602084019350506020810190506123bc565b5050509392505050565b5f82601f8301126124015761240061209f565b5b8135612411848260208601612385565b91505092915050565b5f80604083850312156124305761242f611da9565b5b5f83013567ffffffffffffffff81111561244d5761244c611dad565b5b612459858286016123ed565b925050602083013567ffffffffffffffff81111561247a57612479611dad565b5b612486858286016121b2565b9150509250929050565b5f81519050919050565b5f82825260208201905092915050565b5f819050602082019050919050565b6124c281611e0b565b82525050565b5f6124d383836124b9565b60208301905092915050565b5f602082019050919050565b5f6124f582612490565b6124ff818561249a565b935061250a836124aa565b805f5b8381101561253a57815161252188826124c8565b975061252c836124df565b92505060018101905061250d565b5085935050505092915050565b5f6020820190508181035f83015261255f81846124eb565b905092915050565b61257081611dd0565b82525050565b5f6020820190506125895f830184612567565b92915050565b61259881611f24565b81146125a2575f80fd5b50565b5f813590506125b38161258f565b92915050565b5f80604083850312156125cf576125ce611da9565b5b5f6125dc85828601611df7565b92505060206125ed858286016125a5565b9150509250929050565b5f806040838503121561260d5761260c611da9565b5b5f61261a85828601611df7565b925050602061262b85828601611df7565b9150509250929050565b5f805f805f60a0868803121561264e5761264d611da9565b5b5f61265b88828901611df7565b955050602061266c88828901611df7565b945050604061267d88828901611e2a565b935050606061268e88828901611e2a565b925050608086013567ffffffffffffffff8111156126af576126ae611dad565b5b6126bb88828901612262565b9150509295509295909350565b5f602082840312156126dd576126dc611da9565b5b5f6126ea84828501611df7565b91505092915050565b7f455243313135353a2062616c616e636520717565727920666f7220746865207a5f8201527f65726f2061646472657373000000000000000000000000000000000000000000602082015250565b5f61274d602b83611f8c565b9150612758826126f3565b604082019050919050565b5f6020820190508181035f83015261277a81612741565b9050919050565b7f4e487b71000000000000000000000000000000000000000000000000000000005f52602260045260245ffd5b5f60028204905060018216806127c557607f821691505b6020821081036127d8576127d7612781565b5b50919050565b7f4f776e61626c653a2063616c6c6572206973206e6f7420746865206f776e65725f82015250565b5f612812602083611f8c565b915061281d826127de565b602082019050919050565b5f6020820190508181035f83015261283f81612806565b9050919050565b7f4e487b71000000000000000000000000000000000000000000000000000000005f52601160045260245ffd5b5f61287d82611e0b565b91507fffffffffffffffffffffffffffffffffffffffffffffffffffffffffffffffff82036128af576128ae612846565b5b600182019050919050565b5f6040820190506128cd5f830185611e7c565b6128da6020830184611e7c565b9392505050565b7f455243313135353a2069647320616e6420616d6f756e7473206c656e677468205f8201527f6d69736d61746368000000000000000000000000000000000000000000000000602082015250565b5f61293b602883611f8c565b9150612946826128e1565b604082019050919050565b5f6020820190508181035f8301526129688161292f565b9050919050565b7f455243313135353a207472616e7366657220746f20746865207a65726f2061645f8201527f6472657373000000000000000000000000000000000000000000000000000000602082015250565b5f6129c9602583611f8c565b91506129d48261296f565b604082019050919050565b5f6020820190508181035f8301526129f6816129bd565b9050919050565b7f455243313135353a207472616e736665722063616c6c6572206973206e6f74205f8201527f6f776e6572206e6f7220617070726f7665640000000000000000000000000000602082015250565b5f612a57603283611f8c565b9150612a62826129fd565b604082019050919050565b5f6020820190508181035f830152612a8481612a4b565b9050919050565b7f4e487b71000000000000000000000000000000000000000000000000000000005f52603260045260245ffd5b7f455243313135353a20696e73756666696369656e742062616c616e636520666f5f8201527f72207472616e7366657200000000000000000000000000000000000000000000602082015250565b5f612b12602a83611f8c565b9150612b1d82612ab8565b604082019050919050565b5f6020820190508181035f830152612b3f81612b06565b9050919050565b5f612b5082611e0b565b9150612b5b83611e0b565b9250828203905081811115612b7357612b72612846565b5b92915050565b5f612b8382611e0b565b9150612b8e83611e0b565b9250828201905080821115612ba657612ba5612846565b5b92915050565b5f6040820190508181035f830152612bc481856124eb565b90508181036020830152612bd881846124eb565b90509392505050565b7f455243313135353a206163636f756e747320616e6420696473206c656e6774685f8201527f206d69736d617463680000000000000000000000000000000000000000000000602082015250565b5f612c3b602983611f8c565b9150612c4682612be1565b604082019050919050565b5f6020820190508181035f830152612c6881612c2f565b9050919050565b7f546f6b656e20494420646f6573206e6f742065786973740000000000000000005f82015250565b5f612ca3601783611f8c565b9150612cae82612c6f565b602082019050919050565b5f6020820190508181035f830152612cd081612c97565b9050919050565b7f457863656564732072656d61696e696e6720616d6f756e7400000000000000005f82015250565b5f612d0b601883611f8c565b9150612d1682612cd7565b602082019050919050565b5f6020820190508181035f830152612d3881612cff565b9050919050565b7f496e76616c696420616d6f756e740000000000000000000000000000000000005f82015250565b5f612d73600e83611f8c565b9150612d7e82612d3f565b602082019050919050565b5f6020820190508181035f830152612da081612d67565b9050919050565b7f455243313135353a2073657474696e6720617070726f76616c207374617475735f8201527f20666f722073656c660000000000000000000000000000000000000000000000602082015250565b5f612e01602983611f8c565b9150612e0c82612da7565b604082019050919050565b5f6020820190508181035f830152612e2e81612df5565b9050919050565b5f81905092915050565b5f819050815f5260205f209050919050565b5f8154612e5d816127ae565b612e678186612e35565b9450600182165f8114612e815760018114612e9657612ec8565b60ff1983168652811515820286019350612ec8565b612e9f85612e3f565b5f5b83811015612ec057815481890152600182019150602081019050612ea1565b838801955050505b50505092915050565b5f612edb82611f82565b612ee58185612e35565b9350612ef5818560208601611f9c565b80840191505092915050565b7f2e6a736f6e0000000000000000000000000000000000000000000000000000005f82015250565b5f612f35600583612e35565b9150612f4082612f01565b600582019050919050565b5f612f568285612e51565b9150612f628284612ed1565b9150612f6d82612f29565b91508190509392505050565b7f455243313135353a2063616c6c6572206973206e6f74206f776e6572206e6f725f8201527f20617070726f7665640000000000000000000000000000000000000000000000602082015250565b5f612fd3602983611f8c565b9150612fde82612f79565b604082019050919050565b5f6020820190508181035f83015261300081612fc7565b9050919050565b7f4f776e61626c653a206e6577206f776e657220697320746865207a65726f20615f8201527f6464726573730000000000000000000000000000000000000000000000000000602082015250565b5f613061602683611f8c565b915061306c82613007565b604082019050919050565b5f6020820190508181035f83015261308e81613055565b9050919050565b7f455243313135353a206d696e7420746f20746865207a65726f206164647265735f8201527f7300000000000000000000000000000000000000000000000000000000000000602082015250565b5f6130ef602183611f8c565b91506130fa82613095565b604082019050919050565b5f6020820190508181035f83015261311c816130e3565b9050919050565b5f81519050919050565b5f82825260208201905092915050565b5f61314782613123565b613151818561312d565b9350613161818560208601611f9c565b61316a81611fc4565b840191505092915050565b5f60a0820190506131885f830188612567565b6131956020830187612567565b81810360408301526131a781866124eb565b905081810360608301526131bb81856124eb565b905081810360808301526131cf818461313d565b90509695505050505050565b5f815190506131e981611ecf565b92915050565b5f6020828403121561320457613203611da9565b5b5f613211848285016131db565b91505092915050565b5f8160e01c9050919050565b5f60033d11156132425760045f803e61323f5f5161321a565b90505b90565b5f60443d106132d157613256611da0565b60043d036004823e80513d602482011167ffffffffffffffff8211171561327e5750506132d1565b808201805167ffffffffffffffff81111561329c57505050506132d1565b80602083010160043d0385018111156132b95750505050506132d1565b6132c8826020018501866120d0565b82955050505050505b90565b7f455243313135353a207472616e7366657220746f206e6f6e20455243313135355f8201527f526563656976657220696d706c656d656e746572000000000000000000000000602082015250565b5f61332e603483611f8c565b9150613339826132d4565b604082019050919050565b5f6020820190508181035f83015261335b81613322565b9050919050565b7f455243313135353a204552433131353552656365697665722072656a656374655f8201527f6420746f6b656e73000000000000000000000000000000000000000000000000602082015250565b5f6133bc602883611f8c565b91506133c782613362565b604082019050919050565b5f6020820190508181035f8301526133e9816133b0565b9050919050565b7f4e487b71000000000000000000000000000000000000000000000000000000005f52601260045260245ffd5b5f61342782611e0b565b915061343283611e0b565b925082613442576134416133f0565b5b828204905092915050565b5f61345782611e0b565b915061346283611e0b565b925082613472576134716133f0565b5b828206905092915050565b5f60a0820190506134905f830188612567565b61349d6020830187612567565b6134aa6040830186611e7c565b6134b76060830185611e7c565b81810360808301526134c9818461313d565b9050969550505050505056fea2646970667358221220fadfb4912cf9689d895a84b2d8fa572877d0b8088d93be8df021845d3f7f90e364736f6c63430008180033",
  "immutableReferences": {},
  "source": "// SPDX-License-Identifier: MIT\r\npragma solidity ^0.8.0;\r\n\r\nimport \"@openzeppelin/contracts/token/ERC1155/ERC1155.sol\";\r\nimport \"@openzeppelin/contracts/access/Ownable.sol\";\r\nimport \"@openzeppelin/contracts/utils/Strings.sol\";\r\n\r\ncontract SDVDiscountNFT is ERC1155, Ownable {\r\n    using Strings for uint256;\r\n\r\n    struct NFT {\r\n        uint256 initialSupply; \r\n        uint256 offchainPoints;\r\n        uint256 remainingAmount;\r\n    }\r\n\r\n    mapping(uint256 => NFT) public nfts;\r\n\r\n    uint256 private nextTokenId = 1; \r\n\r\n    event NFTMinted(uint256 indexed tokenId, uint256 initialSupply, uint256 offchainPoints); \r\n    event NFTPurchased(address indexed buyer, uint256 indexed tokenId, uint256 amount); \r\n\r\n    string public baseURI; \r\n\r\n    constructor(string memory _baseURI) ERC1155(\"\") {\r\n        baseURI = _baseURI;\r\n    }\r\n\r\n    function mint(uint256 initialSupply, uint256 offchainPoints) external onlyOwner {\r\n        uint256 tokenId = nextTokenId++;\r\n        nfts[tokenId] = NFT(initialSupply, offchainPoints, initialSupply);\r\n        emit NFTMinted(tokenId, initialSupply, offchainPoints);\r\n        _mint(owner(), tokenId, initialSupply, \"\");\r\n    }\r\n\r\n    function purchaseNFTWithPoints(uint256 tokenId, uint256 amount) external {\r\n    require(tokenId < nextTokenId, \"Token ID does not exist\");\r\n    require(amount <= nfts[tokenId].remainingAmount, \"Exceeds remaining amount\");\r\n    require(amount > 0, \"Invalid amount\");\r\n\r\n    emit NFTPurchased(msg.sender, tokenId, amount);\r\n\r\n    nfts[tokenId].remainingAmount -= amount;\r\n    _mint(msg.sender, tokenId, amount, \"\"); //had safeTransferFrom here before, but could not have anyone else but owner claim the NFT\r\n    }\r\n\r\n\r\n    function tokenURI(uint256 tokenId) external view returns (string memory) {\r\n        require(tokenId < nextTokenId, \"Token ID does not exist\");\r\n        return string(abi.encodePacked(baseURI, tokenId.toString(), \".json\"));\r\n    }\r\n\r\n}\r\n",
  "sourcePath": "C:\\Users\\i\\Documents\\GitHub\\DSP-old\\contracts\\contracts\\SDVDiscountNFT.sol",
  "compiler": {
    "name": "solc",
    "version": "0.8.24+commit.e11b9ed9.Emscripten.clang"
  },
  "schemaVersion": "3.4.16",
  "updatedAt": "2024-03-10T10:09:12.207Z",
  "devdoc": {
    "events": {
      "ApprovalForAll(address,address,bool)": {
        "details": "Emitted when `account` grants or revokes permission to `operator` to transfer their tokens, according to `approved`."
      },
      "TransferBatch(address,address,address,uint256[],uint256[])": {
        "details": "Equivalent to multiple {TransferSingle} events, where `operator`, `from` and `to` are the same for all transfers."
      },
      "TransferSingle(address,address,address,uint256,uint256)": {
        "details": "Emitted when `value` tokens of token type `id` are transferred from `from` to `to` by `operator`."
      },
      "URI(string,uint256)": {
        "details": "Emitted when the URI for token type `id` changes to `value`, if it is a non-programmatic URI. If an {URI} event was emitted for `id`, the standard https://eips.ethereum.org/EIPS/eip-1155#metadata-extensions[guarantees] that `value` will equal the value returned by {IERC1155MetadataURI-uri}."
      }
    },
    "kind": "dev",
    "methods": {
      "balanceOf(address,uint256)": {
        "details": "See {IERC1155-balanceOf}. Requirements: - `account` cannot be the zero address."
      },
      "balanceOfBatch(address[],uint256[])": {
        "details": "See {IERC1155-balanceOfBatch}. Requirements: - `accounts` and `ids` must have the same length."
      },
      "isApprovedForAll(address,address)": {
        "details": "See {IERC1155-isApprovedForAll}."
      },
      "owner()": {
        "details": "Returns the address of the current owner."
      },
      "renounceOwnership()": {
        "details": "Leaves the contract without owner. It will not be possible to call `onlyOwner` functions anymore. Can only be called by the current owner. NOTE: Renouncing ownership will leave the contract without an owner, thereby removing any functionality that is only available to the owner."
      },
      "safeBatchTransferFrom(address,address,uint256[],uint256[],bytes)": {
        "details": "See {IERC1155-safeBatchTransferFrom}."
      },
      "safeTransferFrom(address,address,uint256,uint256,bytes)": {
        "details": "See {IERC1155-safeTransferFrom}."
      },
      "setApprovalForAll(address,bool)": {
        "details": "See {IERC1155-setApprovalForAll}."
      },
      "supportsInterface(bytes4)": {
        "details": "See {IERC165-supportsInterface}."
      },
      "transferOwnership(address)": {
        "details": "Transfers ownership of the contract to a new account (`newOwner`). Can only be called by the current owner."
      },
      "uri(uint256)": {
        "details": "See {IERC1155MetadataURI-uri}. This implementation returns the same URI for *all* token types. It relies on the token type ID substitution mechanism https://eips.ethereum.org/EIPS/eip-1155#metadata[defined in the EIP]. Clients calling this function must replace the `\\{id\\}` substring with the actual token type ID."
      }
    },
    "version": 1
  },
  "userdoc": {
    "kind": "user",
    "methods": {},
    "version": 1
  }
}