{
  "contractName": "SDVDiscountNFT",
  "abi": [
    {
      "inputs": [
        {
          "internalType": "address",
          "name": "_SDVToken",
          "type": "address"
        },
        {
          "internalType": "string",
          "name": "baseTokenURI",
          "type": "string"
        },
        {
          "internalType": "uint256",
          "name": "_ticketPrice",
          "type": "uint256"
        }
      ],
      "stateMutability": "nonpayable",
      "type": "constructor"
    },
    {
      "anonymous": false,
      "inputs": [
        {
          "indexed": true,
          "internalType": "address",
          "name": "owner",
          "type": "address"
        },
        {
          "indexed": true,
          "internalType": "address",
          "name": "approved",
          "type": "address"
        },
        {
          "indexed": true,
          "internalType": "uint256",
          "name": "tokenId",
          "type": "uint256"
        }
      ],
      "name": "Approval",
      "type": "event"
    },
    {
      "anonymous": false,
      "inputs": [
        {
          "indexed": true,
          "internalType": "address",
          "name": "owner",
          "type": "address"
        },
        {
          "indexed": true,
          "internalType": "address",
          "name": "operator",
          "type": "address"
        },
        {
          "indexed": false,
          "internalType": "bool",
          "name": "approved",
          "type": "bool"
        }
      ],
      "name": "ApprovalForAll",
      "type": "event"
    },
    {
      "anonymous": false,
      "inputs": [
        {
          "indexed": true,
          "internalType": "address",
          "name": "previousOwner",
          "type": "address"
        },
        {
          "indexed": true,
          "internalType": "address",
          "name": "newOwner",
          "type": "address"
        }
      ],
      "name": "OwnershipTransferred",
      "type": "event"
    },
    {
      "anonymous": false,
      "inputs": [
        {
          "indexed": true,
          "internalType": "address",
          "name": "from",
          "type": "address"
        },
        {
          "indexed": true,
          "internalType": "address",
          "name": "to",
          "type": "address"
        },
        {
          "indexed": true,
          "internalType": "uint256",
          "name": "tokenId",
          "type": "uint256"
        }
      ],
      "name": "Transfer",
      "type": "event"
    },
    {
      "inputs": [],
      "name": "SDVToken",
      "outputs": [
        {
          "internalType": "contract IERC20",
          "name": "",
          "type": "address"
        }
      ],
      "stateMutability": "view",
      "type": "function",
      "constant": true
    },
    {
      "inputs": [
        {
          "internalType": "address",
          "name": "to",
          "type": "address"
        },
        {
          "internalType": "uint256",
          "name": "tokenId",
          "type": "uint256"
        }
      ],
      "name": "approve",
      "outputs": [],
      "stateMutability": "nonpayable",
      "type": "function"
    },
    {
      "inputs": [
        {
          "internalType": "address",
          "name": "owner",
          "type": "address"
        }
      ],
      "name": "balanceOf",
      "outputs": [
        {
          "internalType": "uint256",
          "name": "",
          "type": "uint256"
        }
      ],
      "stateMutability": "view",
      "type": "function",
      "constant": true
    },
    {
      "inputs": [
        {
          "internalType": "uint256",
          "name": "tokenId",
          "type": "uint256"
        }
      ],
      "name": "getApproved",
      "outputs": [
        {
          "internalType": "address",
          "name": "",
          "type": "address"
        }
      ],
      "stateMutability": "view",
      "type": "function",
      "constant": true
    },
    {
      "inputs": [
        {
          "internalType": "address",
          "name": "owner",
          "type": "address"
        },
        {
          "internalType": "address",
          "name": "operator",
          "type": "address"
        }
      ],
      "name": "isApprovedForAll",
      "outputs": [
        {
          "internalType": "bool",
          "name": "",
          "type": "bool"
        }
      ],
      "stateMutability": "view",
      "type": "function",
      "constant": true
    },
    {
      "inputs": [],
      "name": "name",
      "outputs": [
        {
          "internalType": "string",
          "name": "",
          "type": "string"
        }
      ],
      "stateMutability": "view",
      "type": "function",
      "constant": true
    },
    {
      "inputs": [],
      "name": "owner",
      "outputs": [
        {
          "internalType": "address",
          "name": "",
          "type": "address"
        }
      ],
      "stateMutability": "view",
      "type": "function",
      "constant": true
    },
    {
      "inputs": [
        {
          "internalType": "uint256",
          "name": "tokenId",
          "type": "uint256"
        }
      ],
      "name": "ownerOf",
      "outputs": [
        {
          "internalType": "address",
          "name": "",
          "type": "address"
        }
      ],
      "stateMutability": "view",
      "type": "function",
      "constant": true
    },
    {
      "inputs": [],
      "name": "renounceOwnership",
      "outputs": [],
      "stateMutability": "nonpayable",
      "type": "function"
    },
    {
      "inputs": [
        {
          "internalType": "address",
          "name": "from",
          "type": "address"
        },
        {
          "internalType": "address",
          "name": "to",
          "type": "address"
        },
        {
          "internalType": "uint256",
          "name": "tokenId",
          "type": "uint256"
        }
      ],
      "name": "safeTransferFrom",
      "outputs": [],
      "stateMutability": "nonpayable",
      "type": "function"
    },
    {
      "inputs": [
        {
          "internalType": "address",
          "name": "from",
          "type": "address"
        },
        {
          "internalType": "address",
          "name": "to",
          "type": "address"
        },
        {
          "internalType": "uint256",
          "name": "tokenId",
          "type": "uint256"
        },
        {
          "internalType": "bytes",
          "name": "_data",
          "type": "bytes"
        }
      ],
      "name": "safeTransferFrom",
      "outputs": [],
      "stateMutability": "nonpayable",
      "type": "function"
    },
    {
      "inputs": [
        {
          "internalType": "address",
          "name": "operator",
          "type": "address"
        },
        {
          "internalType": "bool",
          "name": "approved",
          "type": "bool"
        }
      ],
      "name": "setApprovalForAll",
      "outputs": [],
      "stateMutability": "nonpayable",
      "type": "function"
    },
    {
      "inputs": [
        {
          "internalType": "bytes4",
          "name": "interfaceId",
          "type": "bytes4"
        }
      ],
      "name": "supportsInterface",
      "outputs": [
        {
          "internalType": "bool",
          "name": "",
          "type": "bool"
        }
      ],
      "stateMutability": "view",
      "type": "function",
      "constant": true
    },
    {
      "inputs": [],
      "name": "symbol",
      "outputs": [
        {
          "internalType": "string",
          "name": "",
          "type": "string"
        }
      ],
      "stateMutability": "view",
      "type": "function",
      "constant": true
    },
    {
      "inputs": [],
      "name": "ticketPrice",
      "outputs": [
        {
          "internalType": "uint256",
          "name": "",
          "type": "uint256"
        }
      ],
      "stateMutability": "view",
      "type": "function",
      "constant": true
    },
    {
      "inputs": [
        {
          "internalType": "address",
          "name": "from",
          "type": "address"
        },
        {
          "internalType": "address",
          "name": "to",
          "type": "address"
        },
        {
          "internalType": "uint256",
          "name": "tokenId",
          "type": "uint256"
        }
      ],
      "name": "transferFrom",
      "outputs": [],
      "stateMutability": "nonpayable",
      "type": "function"
    },
    {
      "inputs": [
        {
          "internalType": "address",
          "name": "newOwner",
          "type": "address"
        }
      ],
      "name": "transferOwnership",
      "outputs": [],
      "stateMutability": "nonpayable",
      "type": "function"
    },
    {
      "inputs": [
        {
          "internalType": "string",
          "name": "baseTokenURI",
          "type": "string"
        }
      ],
      "name": "setBaseTokenURI",
      "outputs": [],
      "stateMutability": "nonpayable",
      "type": "function"
    },
    {
      "inputs": [
        {
          "internalType": "uint256",
          "name": "tokenId",
          "type": "uint256"
        }
      ],
      "name": "mint",
      "outputs": [],
      "stateMutability": "nonpayable",
      "type": "function"
    },
    {
      "inputs": [
        {
          "internalType": "uint256",
          "name": "tokenId",
          "type": "uint256"
        }
      ],
      "name": "purchaseNFT",
      "outputs": [],
      "stateMutability": "nonpayable",
      "type": "function"
    },
    {
      "inputs": [
        {
          "internalType": "uint256",
          "name": "tokenId",
          "type": "uint256"
        }
      ],
      "name": "tokenURI",
      "outputs": [
        {
          "internalType": "string",
          "name": "",
          "type": "string"
        }
      ],
      "stateMutability": "view",
      "type": "function",
      "constant": true
    },
    {
      "inputs": [],
      "name": "getAllMintedNFTs",
      "outputs": [
        {
          "internalType": "uint256[]",
          "name": "",
          "type": "uint256[]"
        }
      ],
      "stateMutability": "view",
      "type": "function",
      "constant": true
    }
  ],
  "bytecode": "0x60806040523480156200001157600080fd5b50604051620038c7380380620038c783398181016040528101906200003791906200034a565b6040518060400160405280600681526020017f5344564e465400000000000000000000000000000000000000000000000000008152506040518060400160405280600481526020017f5344564e000000000000000000000000000000000000000000000000000000008152508160009080519060200190620000bb929190620001fa565b508060019080519060200190620000d4929190620001fa565b5050506000620000e9620001f260201b60201c565b905080600660006101000a81548173ffffffffffffffffffffffffffffffffffffffff021916908373ffffffffffffffffffffffffffffffffffffffff1602179055508073ffffffffffffffffffffffffffffffffffffffff16600073ffffffffffffffffffffffffffffffffffffffff167f8be0079c531659141344cd1fd0a4f28419497f9722a3daafe3b4186f6b6457e060405160405180910390a35082600760006101000a81548173ffffffffffffffffffffffffffffffffffffffff021916908373ffffffffffffffffffffffffffffffffffffffff1602179055508160089080519060200190620001e1929190620001fa565b50806009819055505050506200055c565b600033905090565b828054620002089062000494565b90600052602060002090601f0160209004810192826200022c576000855562000278565b82601f106200024757805160ff191683800117855562000278565b8280016001018555821562000278579182015b82811115620002775782518255916020019190600101906200025a565b5b5090506200028791906200028b565b5090565b5b80821115620002a65760008160009055506001016200028c565b5090565b6000620002c1620002bb84620003ed565b620003b9565b905082815260208101848484011115620002da57600080fd5b620002e78482856200045e565b509392505050565b600081519050620003008162000528565b92915050565b600082601f8301126200031857600080fd5b81516200032a848260208601620002aa565b91505092915050565b600081519050620003448162000542565b92915050565b6000806000606084860312156200036057600080fd5b60006200037086828701620002ef565b935050602084015167ffffffffffffffff8111156200038e57600080fd5b6200039c8682870162000306565b9250506040620003af8682870162000333565b9150509250925092565b6000604051905081810181811067ffffffffffffffff82111715620003e357620003e2620004f9565b5b8060405250919050565b600067ffffffffffffffff8211156200040b576200040a620004f9565b5b601f19601f8301169050602081019050919050565b60006200042d8262000434565b9050919050565b600073ffffffffffffffffffffffffffffffffffffffff82169050919050565b6000819050919050565b60005b838110156200047e57808201518184015260208101905062000461565b838111156200048e576000848401525b50505050565b60006002820490506001821680620004ad57607f821691505b60208210811415620004c457620004c3620004ca565b5b50919050565b7f4e487b7100000000000000000000000000000000000000000000000000000000600052602260045260246000fd5b7f4e487b7100000000000000000000000000000000000000000000000000000000600052604160045260246000fd5b620005338162000420565b81146200053f57600080fd5b50565b6200054d8162000454565b81146200055957600080fd5b50565b61335b806200056c6000396000f3fe608060405234801561001057600080fd5b50600436106101425760003560e01c8063715018a6116100b8578063b88d4fde1161007c578063b88d4fde1461034d578063c87b56dd14610369578063db761fca14610399578063e985e9c5146103b7578063ef72c2b6146103e7578063f2fde38b1461040557610142565b8063715018a6146102cf5780638da5cb5b146102d957806395d89b41146102f7578063a0712d6814610315578063a22cb4651461033157610142565b8063150bde031161010a578063150bde03146101ff57806323b872dd1461021b57806330176e131461023757806342842e0e146102535780636352211e1461026f57806370a082311461029f57610142565b806301ffc9a71461014757806306fdde0314610177578063081812fc14610195578063095ea7b3146101c55780631209b1f6146101e1575b600080fd5b610161600480360381019061015c91906121f6565b610421565b60405161016e9190612be6565b60405180910390f35b61017f610503565b60405161018c9190612c1c565b60405180910390f35b6101af60048036038101906101aa9190612289565b610595565b6040516101bc9190612b26565b60405180910390f35b6101df60048036038101906101da9190612191565b61061a565b005b6101e9610732565b6040516101f69190612e7e565b60405180910390f35b61021960048036038101906102149190612289565b610738565b005b6102356004803603810190610230919061208b565b6108cd565b005b610251600480360381019061024c9190612248565b61092d565b005b61026d6004803603810190610268919061208b565b6109c3565b005b61028960048036038101906102849190612289565b6109e3565b6040516102969190612b26565b60405180910390f35b6102b960048036038101906102b49190612026565b610a95565b6040516102c69190612e7e565b60405180910390f35b6102d7610b4d565b005b6102e1610c8a565b6040516102ee9190612b26565b60405180910390f35b6102ff610cb4565b60405161030c9190612c1c565b60405180910390f35b61032f600480360381019061032a9190612289565b610d46565b005b61034b60048036038101906103469190612155565b610e48565b005b610367600480360381019061036291906120da565b610fc9565b005b610383600480360381019061037e9190612289565b61102b565b6040516103909190612c1c565b60405180910390f35b6103a16110a7565b6040516103ae9190612bc4565b60405180910390f35b6103d160048036038101906103cc919061204f565b6110ff565b6040516103de9190612be6565b60405180910390f35b6103ef611193565b6040516103fc9190612c01565b60405180910390f35b61041f600480360381019061041a9190612026565b6111b9565b005b60007f80ac58cd000000000000000000000000000000000000000000000000000000007bffffffffffffffffffffffffffffffffffffffffffffffffffffffff1916827bffffffffffffffffffffffffffffffffffffffffffffffffffffffff191614806104ec57507f5b5e139f000000000000000000000000000000000000000000000000000000007bffffffffffffffffffffffffffffffffffffffffffffffffffffffff1916827bffffffffffffffffffffffffffffffffffffffffffffffffffffffff1916145b806104fc57506104fb82611365565b5b9050919050565b60606000805461051290613150565b80601f016020809104026020016040519081016040528092919081815260200182805461053e90613150565b801561058b5780601f106105605761010080835404028352916020019161058b565b820191906000526020600020905b81548152906001019060200180831161056e57829003601f168201915b5050505050905090565b60006105a0826113cf565b6105df576040517f08c379a00000000000000000000000000000000000000000000000000000000081526004016105d690612d9e565b60405180910390fd5b6004600083815260200190815260200160002060009054906101000a900473ffffffffffffffffffffffffffffffffffffffff169050919050565b6000610625826109e3565b90508073ffffffffffffffffffffffffffffffffffffffff168373ffffffffffffffffffffffffffffffffffffffff161415610696576040517f08c379a000000000000000000000000000000000000000000000000000000000815260040161068d90612dfe565b60405180910390fd5b8073ffffffffffffffffffffffffffffffffffffffff166106b561143b565b73ffffffffffffffffffffffffffffffffffffffff1614806106e457506106e3816106de61143b565b6110ff565b5b610723576040517f08c379a000000000000000000000000000000000000000000000000000000000815260040161071a90612d1e565b60405180910390fd5b61072d8383611443565b505050565b60095481565b610741816113cf565b610780576040517f08c379a000000000000000000000000000000000000000000000000000000000815260040161077790612cde565b60405180910390fd5b610788610c8a565b73ffffffffffffffffffffffffffffffffffffffff166107a7826109e3565b73ffffffffffffffffffffffffffffffffffffffff16146107fd576040517f08c379a00000000000000000000000000000000000000000000000000000000081526004016107f490612e1e565b60405180910390fd5b600760009054906101000a900473ffffffffffffffffffffffffffffffffffffffff1673ffffffffffffffffffffffffffffffffffffffff166323b872dd33610844610c8a565b6009546040518463ffffffff1660e01b815260040161086593929190612b41565b602060405180830381600087803b15801561087f57600080fd5b505af1158015610893573d6000803e3d6000fd5b505050506040513d601f19601f820116820180604052508101906108b791906121cd565b506108ca6108c3610c8a565b33836114fc565b50565b6108de6108d861143b565b82611758565b61091d576040517f08c379a000000000000000000000000000000000000000000000000000000000815260040161091490612e3e565b60405180910390fd5b6109288383836114fc565b505050565b61093561143b565b73ffffffffffffffffffffffffffffffffffffffff16610953610c8a565b73ffffffffffffffffffffffffffffffffffffffff16146109a9576040517f08c379a00000000000000000000000000000000000000000000000000000000081526004016109a090612dbe565b60405180910390fd5b80600890805190602001906109bf929190611e35565b5050565b6109de83838360405180602001604052806000815250610fc9565b505050565b6000806002600084815260200190815260200160002060009054906101000a900473ffffffffffffffffffffffffffffffffffffffff169050600073ffffffffffffffffffffffffffffffffffffffff168173ffffffffffffffffffffffffffffffffffffffff161415610a8c576040517f08c379a0000000000000000000000000000000000000000000000000000000008152600401610a8390612d5e565b60405180910390fd5b80915050919050565b60008073ffffffffffffffffffffffffffffffffffffffff168273ffffffffffffffffffffffffffffffffffffffff161415610b06576040517f08c379a0000000000000000000000000000000000000000000000000000000008152600401610afd90612d3e565b60405180910390fd5b600360008373ffffffffffffffffffffffffffffffffffffffff1673ffffffffffffffffffffffffffffffffffffffff168152602001908152602001600020549050919050565b610b5561143b565b73ffffffffffffffffffffffffffffffffffffffff16610b73610c8a565b73ffffffffffffffffffffffffffffffffffffffff1614610bc9576040517f08c379a0000000000000000000000000000000000000000000000000000000008152600401610bc090612dbe565b60405180910390fd5b600073ffffffffffffffffffffffffffffffffffffffff16600660009054906101000a900473ffffffffffffffffffffffffffffffffffffffff1673ffffffffffffffffffffffffffffffffffffffff167f8be0079c531659141344cd1fd0a4f28419497f9722a3daafe3b4186f6b6457e060405160405180910390a36000600660006101000a81548173ffffffffffffffffffffffffffffffffffffffff021916908373ffffffffffffffffffffffffffffffffffffffff160217905550565b6000600660009054906101000a900473ffffffffffffffffffffffffffffffffffffffff16905090565b606060018054610cc390613150565b80601f0160208091040260200160405190810160405280929190818152602001828054610cef90613150565b8015610d3c5780601f10610d1157610100808354040283529160200191610d3c565b820191906000526020600020905b815481529060010190602001808311610d1f57829003601f168201915b5050505050905090565b610d4e61143b565b73ffffffffffffffffffffffffffffffffffffffff16610d6c610c8a565b73ffffffffffffffffffffffffffffffffffffffff1614610dc2576040517f08c379a0000000000000000000000000000000000000000000000000000000008152600401610db990612dbe565b60405180910390fd5b610dcb816113cf565b15610e0b576040517f08c379a0000000000000000000000000000000000000000000000000000000008152600401610e0290612e5e565b60405180910390fd5b610e1c610e16610c8a565b82611836565b600a81908060018154018082558091505060019003906000526020600020016000909190919091505550565b610e5061143b565b73ffffffffffffffffffffffffffffffffffffffff168273ffffffffffffffffffffffffffffffffffffffff161415610ebe576040517f08c379a0000000000000000000000000000000000000000000000000000000008152600401610eb590612cbe565b60405180910390fd5b8060056000610ecb61143b565b73ffffffffffffffffffffffffffffffffffffffff1673ffffffffffffffffffffffffffffffffffffffff16815260200190815260200160002060008473ffffffffffffffffffffffffffffffffffffffff1673ffffffffffffffffffffffffffffffffffffffff16815260200190815260200160002060006101000a81548160ff0219169083151502179055508173ffffffffffffffffffffffffffffffffffffffff16610f7861143b565b73ffffffffffffffffffffffffffffffffffffffff167f17307eab39ab6107e8899845ad3d59bd9653f200f220920489ca2b5937696c3183604051610fbd9190612be6565b60405180910390a35050565b610fda610fd461143b565b83611758565b611019576040517f08c379a000000000000000000000000000000000000000000000000000000000815260040161101090612e3e565b60405180910390fd5b61102584848484611854565b50505050565b6060611036826113cf565b611075576040517f08c379a000000000000000000000000000000000000000000000000000000000815260040161106c90612cde565b60405180910390fd5b6008611080836118b0565b604051602001611091929190612af7565b6040516020818303038152906040529050919050565b6060600a8054806020026020016040519081016040528092919081815260200182805480156110f557602002820191906000526020600020905b8154815260200190600101908083116110e1575b5050505050905090565b6000600560008473ffffffffffffffffffffffffffffffffffffffff1673ffffffffffffffffffffffffffffffffffffffff16815260200190815260200160002060008373ffffffffffffffffffffffffffffffffffffffff1673ffffffffffffffffffffffffffffffffffffffff16815260200190815260200160002060009054906101000a900460ff16905092915050565b600760009054906101000a900473ffffffffffffffffffffffffffffffffffffffff1681565b6111c161143b565b73ffffffffffffffffffffffffffffffffffffffff166111df610c8a565b73ffffffffffffffffffffffffffffffffffffffff1614611235576040517f08c379a000000000000000000000000000000000000000000000000000000000815260040161122c90612dbe565b60405180910390fd5b600073ffffffffffffffffffffffffffffffffffffffff168173ffffffffffffffffffffffffffffffffffffffff1614156112a5576040517f08c379a000000000000000000000000000000000000000000000000000000000815260040161129c90612c5e565b60405180910390fd5b8073ffffffffffffffffffffffffffffffffffffffff16600660009054906101000a900473ffffffffffffffffffffffffffffffffffffffff1673ffffffffffffffffffffffffffffffffffffffff167f8be0079c531659141344cd1fd0a4f28419497f9722a3daafe3b4186f6b6457e060405160405180910390a380600660006101000a81548173ffffffffffffffffffffffffffffffffffffffff021916908373ffffffffffffffffffffffffffffffffffffffff16021790555050565b60007f01ffc9a7000000000000000000000000000000000000000000000000000000007bffffffffffffffffffffffffffffffffffffffffffffffffffffffff1916827bffffffffffffffffffffffffffffffffffffffffffffffffffffffff1916149050919050565b60008073ffffffffffffffffffffffffffffffffffffffff166002600084815260200190815260200160002060009054906101000a900473ffffffffffffffffffffffffffffffffffffffff1673ffffffffffffffffffffffffffffffffffffffff1614159050919050565b600033905090565b816004600083815260200190815260200160002060006101000a81548173ffffffffffffffffffffffffffffffffffffffff021916908373ffffffffffffffffffffffffffffffffffffffff160217905550808273ffffffffffffffffffffffffffffffffffffffff166114b6836109e3565b73ffffffffffffffffffffffffffffffffffffffff167f8c5be1e5ebec7d5bd14f71427d1e84f3dd0314c0f7b2291e5b200ac8c7c3b92560405160405180910390a45050565b8273ffffffffffffffffffffffffffffffffffffffff1661151c826109e3565b73ffffffffffffffffffffffffffffffffffffffff1614611572576040517f08c379a000000000000000000000000000000000000000000000000000000000815260040161156990612dde565b60405180910390fd5b600073ffffffffffffffffffffffffffffffffffffffff168273ffffffffffffffffffffffffffffffffffffffff1614156115e2576040517f08c379a00000000000000000000000000000000000000000000000000000000081526004016115d990612c9e565b60405180910390fd5b6115ed838383611a5d565b6115f8600082611443565b6001600360008573ffffffffffffffffffffffffffffffffffffffff1673ffffffffffffffffffffffffffffffffffffffff16815260200190815260200160002060008282546116489190613042565b925050819055506001600360008473ffffffffffffffffffffffffffffffffffffffff1673ffffffffffffffffffffffffffffffffffffffff168152602001908152602001600020600082825461169f9190612fbb565b92505081905550816002600083815260200190815260200160002060006101000a81548173ffffffffffffffffffffffffffffffffffffffff021916908373ffffffffffffffffffffffffffffffffffffffff160217905550808273ffffffffffffffffffffffffffffffffffffffff168473ffffffffffffffffffffffffffffffffffffffff167fddf252ad1be2c89b69c2b068fc378daa952ba7f163c4a11628f55a4df523b3ef60405160405180910390a4505050565b6000611763826113cf565b6117a2576040517f08c379a000000000000000000000000000000000000000000000000000000000815260040161179990612cfe565b60405180910390fd5b60006117ad836109e3565b90508073ffffffffffffffffffffffffffffffffffffffff168473ffffffffffffffffffffffffffffffffffffffff16148061181c57508373ffffffffffffffffffffffffffffffffffffffff1661180484610595565b73ffffffffffffffffffffffffffffffffffffffff16145b8061182d575061182c81856110ff565b5b91505092915050565b611850828260405180602001604052806000815250611a62565b5050565b61185f8484846114fc565b61186b84848484611abd565b6118aa576040517f08c379a00000000000000000000000000000000000000000000000000000000081526004016118a190612c3e565b60405180910390fd5b50505050565b606060008214156118f8576040518060400160405280600181526020017f30000000000000000000000000000000000000000000000000000000000000008152509050611a58565b600082905060005b6000821461192a57808061191390613182565b915050600a826119239190613011565b9150611900565b60008167ffffffffffffffff81111561196c577f4e487b7100000000000000000000000000000000000000000000000000000000600052604160045260246000fd5b6040519080825280601f01601f19166020018201604052801561199e5781602001600182028036833780820191505090505b5090505b60008514611a51576001826119b79190613042565b9150600a856119c691906131cb565b60306119d29190612fbb565b60f81b818381518110611a0e577f4e487b7100000000000000000000000000000000000000000000000000000000600052603260045260246000fd5b60200101907effffffffffffffffffffffffffffffffffffffffffffffffffffffffffffff1916908160001a905350600a85611a4a9190613011565b94506119a2565b8093505050505b919050565b505050565b611a6c8383611c54565b611a796000848484611abd565b611ab8576040517f08c379a0000000000000000000000000000000000000000000000000000000008152600401611aaf90612c3e565b60405180910390fd5b505050565b6000611ade8473ffffffffffffffffffffffffffffffffffffffff16611e22565b15611c47578373ffffffffffffffffffffffffffffffffffffffff1663150b7a02611b0761143b565b8786866040518563ffffffff1660e01b8152600401611b299493929190612b78565b602060405180830381600087803b158015611b4357600080fd5b505af1925050508015611b7457506040513d601f19601f82011682018060405250810190611b71919061221f565b60015b611bf7573d8060008114611ba4576040519150601f19603f3d011682016040523d82523d6000602084013e611ba9565b606091505b50600081511415611bef576040517f08c379a0000000000000000000000000000000000000000000000000000000008152600401611be690612c3e565b60405180910390fd5b805181602001fd5b63150b7a0260e01b7bffffffffffffffffffffffffffffffffffffffffffffffffffffffff1916817bffffffffffffffffffffffffffffffffffffffffffffffffffffffff191614915050611c4c565b600190505b949350505050565b600073ffffffffffffffffffffffffffffffffffffffff168273ffffffffffffffffffffffffffffffffffffffff161415611cc4576040517f08c379a0000000000000000000000000000000000000000000000000000000008152600401611cbb90612d7e565b60405180910390fd5b611ccd816113cf565b15611d0d576040517f08c379a0000000000000000000000000000000000000000000000000000000008152600401611d0490612c7e565b60405180910390fd5b611d1960008383611a5d565b6001600360008473ffffffffffffffffffffffffffffffffffffffff1673ffffffffffffffffffffffffffffffffffffffff1681526020019081526020016000206000828254611d699190612fbb565b92505081905550816002600083815260200190815260200160002060006101000a81548173ffffffffffffffffffffffffffffffffffffffff021916908373ffffffffffffffffffffffffffffffffffffffff160217905550808273ffffffffffffffffffffffffffffffffffffffff16600073ffffffffffffffffffffffffffffffffffffffff167fddf252ad1be2c89b69c2b068fc378daa952ba7f163c4a11628f55a4df523b3ef60405160405180910390a45050565b600080823b905060008111915050919050565b828054611e4190613150565b90600052602060002090601f016020900481019282611e635760008555611eaa565b82601f10611e7c57805160ff1916838001178555611eaa565b82800160010185558215611eaa579182015b82811115611ea9578251825591602001919060010190611e8e565b5b509050611eb79190611ebb565b5090565b5b80821115611ed4576000816000905550600101611ebc565b5090565b6000611eeb611ee684612eca565b612e99565b905082815260208101848484011115611f0357600080fd5b611f0e84828561310e565b509392505050565b6000611f29611f2484612efa565b612e99565b905082815260208101848484011115611f4157600080fd5b611f4c84828561310e565b509392505050565b600081359050611f63816132c9565b92915050565b600081359050611f78816132e0565b92915050565b600081519050611f8d816132e0565b92915050565b600081359050611fa2816132f7565b92915050565b600081519050611fb7816132f7565b92915050565b600082601f830112611fce57600080fd5b8135611fde848260208601611ed8565b91505092915050565b600082601f830112611ff857600080fd5b8135612008848260208601611f16565b91505092915050565b6000813590506120208161330e565b92915050565b60006020828403121561203857600080fd5b600061204684828501611f54565b91505092915050565b6000806040838503121561206257600080fd5b600061207085828601611f54565b925050602061208185828601611f54565b9150509250929050565b6000806000606084860312156120a057600080fd5b60006120ae86828701611f54565b93505060206120bf86828701611f54565b92505060406120d086828701612011565b9150509250925092565b600080600080608085870312156120f057600080fd5b60006120fe87828801611f54565b945050602061210f87828801611f54565b935050604061212087828801612011565b925050606085013567ffffffffffffffff81111561213d57600080fd5b61214987828801611fbd565b91505092959194509250565b6000806040838503121561216857600080fd5b600061217685828601611f54565b925050602061218785828601611f69565b9150509250929050565b600080604083850312156121a457600080fd5b60006121b285828601611f54565b92505060206121c385828601612011565b9150509250929050565b6000602082840312156121df57600080fd5b60006121ed84828501611f7e565b91505092915050565b60006020828403121561220857600080fd5b600061221684828501611f93565b91505092915050565b60006020828403121561223157600080fd5b600061223f84828501611fa8565b91505092915050565b60006020828403121561225a57600080fd5b600082013567ffffffffffffffff81111561227457600080fd5b61228084828501611fe7565b91505092915050565b60006020828403121561229b57600080fd5b60006122a984828501612011565b91505092915050565b60006122be8383612ad9565b60208301905092915050565b6122d381613076565b82525050565b60006122e482612f4f565b6122ee8185612f7d565b93506122f983612f2a565b8060005b8381101561232a57815161231188826122b2565b975061231c83612f70565b9250506001810190506122fd565b5085935050505092915050565b61234081613088565b82525050565b600061235182612f5a565b61235b8185612f8e565b935061236b81856020860161311d565b612374816132b8565b840191505092915050565b612388816130ea565b82525050565b600061239982612f65565b6123a38185612f9f565b93506123b381856020860161311d565b6123bc816132b8565b840191505092915050565b60006123d282612f65565b6123dc8185612fb0565b93506123ec81856020860161311d565b80840191505092915050565b6000815461240581613150565b61240f8186612fb0565b9450600182166000811461242a576001811461243b5761246e565b60ff1983168652818601935061246e565b61244485612f3a565b60005b8381101561246657815481890152600182019150602081019050612447565b838801955050505b50505092915050565b6000612484603283612f9f565b91507f4552433732313a207472616e7366657220746f206e6f6e20455243373231526560008301527f63656976657220696d706c656d656e74657200000000000000000000000000006020830152604082019050919050565b60006124ea602683612f9f565b91507f4f776e61626c653a206e6577206f776e657220697320746865207a65726f206160008301527f64647265737300000000000000000000000000000000000000000000000000006020830152604082019050919050565b6000612550601c83612f9f565b91507f4552433732313a20746f6b656e20616c7265616479206d696e746564000000006000830152602082019050919050565b6000612590602483612f9f565b91507f4552433732313a207472616e7366657220746f20746865207a65726f2061646460008301527f72657373000000000000000000000000000000000000000000000000000000006020830152604082019050919050565b60006125f6601983612f9f565b91507f4552433732313a20617070726f766520746f2063616c6c6572000000000000006000830152602082019050919050565b6000612636601783612f9f565b91507f546f6b656e20494420646f6573206e6f742065786973740000000000000000006000830152602082019050919050565b6000612676602c83612f9f565b91507f4552433732313a206f70657261746f7220717565727920666f72206e6f6e657860008301527f697374656e7420746f6b656e00000000000000000000000000000000000000006020830152604082019050919050565b60006126dc603883612f9f565b91507f4552433732313a20617070726f76652063616c6c6572206973206e6f74206f7760008301527f6e6572206e6f7220617070726f76656420666f7220616c6c00000000000000006020830152604082019050919050565b6000612742602a83612f9f565b91507f4552433732313a2062616c616e636520717565727920666f7220746865207a6560008301527f726f2061646472657373000000000000000000000000000000000000000000006020830152604082019050919050565b60006127a8602983612f9f565b91507f4552433732313a206f776e657220717565727920666f72206e6f6e657869737460008301527f656e7420746f6b656e00000000000000000000000000000000000000000000006020830152604082019050919050565b600061280e602083612f9f565b91507f4552433732313a206d696e7420746f20746865207a65726f20616464726573736000830152602082019050919050565b600061284e602c83612f9f565b91507f4552433732313a20617070726f76656420717565727920666f72206e6f6e657860008301527f697374656e7420746f6b656e00000000000000000000000000000000000000006020830152604082019050919050565b60006128b4600583612fb0565b91507f2e6a736f6e0000000000000000000000000000000000000000000000000000006000830152600582019050919050565b60006128f4602083612f9f565b91507f4f776e61626c653a2063616c6c6572206973206e6f7420746865206f776e65726000830152602082019050919050565b6000612934602983612f9f565b91507f4552433732313a207472616e73666572206f6620746f6b656e2074686174206960008301527f73206e6f74206f776e00000000000000000000000000000000000000000000006020830152604082019050919050565b600061299a602183612f9f565b91507f4552433732313a20617070726f76616c20746f2063757272656e74206f776e6560008301527f72000000000000000000000000000000000000000000000000000000000000006020830152604082019050919050565b6000612a00601e83612f9f565b91507f4e4654206e6f7420617661696c61626c6520666f7220707572636861736500006000830152602082019050919050565b6000612a40603183612f9f565b91507f4552433732313a207472616e736665722063616c6c6572206973206e6f74206f60008301527f776e6572206e6f7220617070726f7665640000000000000000000000000000006020830152604082019050919050565b6000612aa6601783612f9f565b91507f546f6b656e20494420616c7265616479206578697374730000000000000000006000830152602082019050919050565b612ae2816130e0565b82525050565b612af1816130e0565b82525050565b6000612b0382856123f8565b9150612b0f82846123c7565b9150612b1a826128a7565b91508190509392505050565b6000602082019050612b3b60008301846122ca565b92915050565b6000606082019050612b5660008301866122ca565b612b6360208301856122ca565b612b706040830184612ae8565b949350505050565b6000608082019050612b8d60008301876122ca565b612b9a60208301866122ca565b612ba76040830185612ae8565b8181036060830152612bb98184612346565b905095945050505050565b60006020820190508181036000830152612bde81846122d9565b905092915050565b6000602082019050612bfb6000830184612337565b92915050565b6000602082019050612c16600083018461237f565b92915050565b60006020820190508181036000830152612c36818461238e565b905092915050565b60006020820190508181036000830152612c5781612477565b9050919050565b60006020820190508181036000830152612c77816124dd565b9050919050565b60006020820190508181036000830152612c9781612543565b9050919050565b60006020820190508181036000830152612cb781612583565b9050919050565b60006020820190508181036000830152612cd7816125e9565b9050919050565b60006020820190508181036000830152612cf781612629565b9050919050565b60006020820190508181036000830152612d1781612669565b9050919050565b60006020820190508181036000830152612d37816126cf565b9050919050565b60006020820190508181036000830152612d5781612735565b9050919050565b60006020820190508181036000830152612d778161279b565b9050919050565b60006020820190508181036000830152612d9781612801565b9050919050565b60006020820190508181036000830152612db781612841565b9050919050565b60006020820190508181036000830152612dd7816128e7565b9050919050565b60006020820190508181036000830152612df781612927565b9050919050565b60006020820190508181036000830152612e178161298d565b9050919050565b60006020820190508181036000830152612e37816129f3565b9050919050565b60006020820190508181036000830152612e5781612a33565b9050919050565b60006020820190508181036000830152612e7781612a99565b9050919050565b6000602082019050612e936000830184612ae8565b92915050565b6000604051905081810181811067ffffffffffffffff82111715612ec057612ebf613289565b5b8060405250919050565b600067ffffffffffffffff821115612ee557612ee4613289565b5b601f19601f8301169050602081019050919050565b600067ffffffffffffffff821115612f1557612f14613289565b5b601f19601f8301169050602081019050919050565b6000819050602082019050919050565b60008190508160005260206000209050919050565b600081519050919050565b600081519050919050565b600081519050919050565b6000602082019050919050565b600082825260208201905092915050565b600082825260208201905092915050565b600082825260208201905092915050565b600081905092915050565b6000612fc6826130e0565b9150612fd1836130e0565b9250827fffffffffffffffffffffffffffffffffffffffffffffffffffffffffffffffff03821115613006576130056131fc565b5b828201905092915050565b600061301c826130e0565b9150613027836130e0565b9250826130375761303661322b565b5b828204905092915050565b600061304d826130e0565b9150613058836130e0565b92508282101561306b5761306a6131fc565b5b828203905092915050565b6000613081826130c0565b9050919050565b60008115159050919050565b60007fffffffff0000000000000000000000000000000000000000000000000000000082169050919050565b600073ffffffffffffffffffffffffffffffffffffffff82169050919050565b6000819050919050565b60006130f5826130fc565b9050919050565b6000613107826130c0565b9050919050565b82818337600083830152505050565b60005b8381101561313b578082015181840152602081019050613120565b8381111561314a576000848401525b50505050565b6000600282049050600182168061316857607f821691505b6020821081141561317c5761317b61325a565b5b50919050565b600061318d826130e0565b91507fffffffffffffffffffffffffffffffffffffffffffffffffffffffffffffffff8214156131c0576131bf6131fc565b5b600182019050919050565b60006131d6826130e0565b91506131e1836130e0565b9250826131f1576131f061322b565b5b828206905092915050565b7f4e487b7100000000000000000000000000000000000000000000000000000000600052601160045260246000fd5b7f4e487b7100000000000000000000000000000000000000000000000000000000600052601260045260246000fd5b7f4e487b7100000000000000000000000000000000000000000000000000000000600052602260045260246000fd5b7f4e487b7100000000000000000000000000000000000000000000000000000000600052604160045260246000fd5b6000601f19601f8301169050919050565b6132d281613076565b81146132dd57600080fd5b50565b6132e981613088565b81146132f457600080fd5b50565b61330081613094565b811461330b57600080fd5b50565b613317816130e0565b811461332257600080fd5b5056fea264697066735822122093cc7905521532df0f77277216bc1c23d9ee025a8760be0f0021485af2222c9564736f6c63430008000033",
  "immutableReferences": {},
  "source": "// SPDX-License-Identifier: MIT\r\npragma solidity ^0.8.0;\r\n\r\nimport \"@openzeppelin/contracts/token/ERC721/ERC721.sol\";\r\nimport \"@openzeppelin/contracts/access/Ownable.sol\";\r\nimport \"@openzeppelin/contracts/token/ERC20/IERC20.sol\";\r\nimport \"@openzeppelin/contracts/utils/Strings.sol\";\r\n\r\ncontract SDVDiscountNFT is ERC721, Ownable {\r\n    using Strings for uint256;\r\n\r\n    IERC20 public SDVToken;\r\n    string private _baseTokenURI;\r\n\r\n    uint256 public ticketPrice;\r\n    uint256[] private mintedTokens;\r\n\r\n    constructor(address _SDVToken, string memory baseTokenURI, uint256 _ticketPrice) ERC721(\"SDVNFT\", \"SDVN\") {\r\n        SDVToken = IERC20(_SDVToken);\r\n        _baseTokenURI = baseTokenURI;\r\n        ticketPrice = _ticketPrice;\r\n    }\r\n\r\n    function setBaseTokenURI(string memory baseTokenURI) external onlyOwner {\r\n        _baseTokenURI = baseTokenURI;\r\n    }\r\n\r\n    function mint(uint256 tokenId) external onlyOwner {\r\n        require(!_exists(tokenId), \"Token ID already exists\");\r\n\r\n        _safeMint(owner(), tokenId);\r\n        mintedTokens.push(tokenId);\r\n    }\r\n\r\n    function purchaseNFT(uint256 tokenId) external {\r\n        require(_exists(tokenId), \"Token ID does not exist\");\r\n        require(ownerOf(tokenId) == owner(), \"NFT not available for purchase\");\r\n\r\n        SDVToken.transferFrom(msg.sender, owner(), ticketPrice);\r\n\r\n        _transfer(owner(), msg.sender, tokenId);\r\n    }\r\n\r\n    function tokenURI(uint256 tokenId) public view override returns (string memory) {\r\n        require(_exists(tokenId), \"Token ID does not exist\");\r\n        return string(abi.encodePacked(_baseTokenURI, tokenId.toString(), \".json\"));\r\n    }\r\n\r\n    function getAllMintedNFTs() external view returns (uint256[] memory) {\r\n        return mintedTokens;\r\n    }\r\n}\r\n",
  "sourcePath": "C:\\Users\\i\\Documents\\GitHub\\DSP\\contracts\\contracts\\SDVDiscountNFT.sol",
  "compiler": {
    "name": "solc",
    "version": "0.8.0+commit.c7dfd78e.Emscripten.clang"
  },
  "schemaVersion": "3.4.16",
  "updatedAt": "2024-01-31T13:13:24.758Z",
  "networkType": "ethereum",
  "devdoc": {
    "kind": "dev",
    "methods": {
      "approve(address,uint256)": {
        "details": "See {IERC721-approve}."
      },
      "balanceOf(address)": {
        "details": "See {IERC721-balanceOf}."
      },
      "getApproved(uint256)": {
        "details": "See {IERC721-getApproved}."
      },
      "isApprovedForAll(address,address)": {
        "details": "See {IERC721-isApprovedForAll}."
      },
      "name()": {
        "details": "See {IERC721Metadata-name}."
      },
      "owner()": {
        "details": "Returns the address of the current owner."
      },
      "ownerOf(uint256)": {
        "details": "See {IERC721-ownerOf}."
      },
      "renounceOwnership()": {
        "details": "Leaves the contract without owner. It will not be possible to call `onlyOwner` functions anymore. Can only be called by the current owner. NOTE: Renouncing ownership will leave the contract without an owner, thereby removing any functionality that is only available to the owner."
      },
      "safeTransferFrom(address,address,uint256)": {
        "details": "See {IERC721-safeTransferFrom}."
      },
      "safeTransferFrom(address,address,uint256,bytes)": {
        "details": "See {IERC721-safeTransferFrom}."
      },
      "setApprovalForAll(address,bool)": {
        "details": "See {IERC721-setApprovalForAll}."
      },
      "supportsInterface(bytes4)": {
        "details": "See {IERC165-supportsInterface}."
      },
      "symbol()": {
        "details": "See {IERC721Metadata-symbol}."
      },
      "tokenURI(uint256)": {
        "details": "See {IERC721Metadata-tokenURI}."
      },
      "transferFrom(address,address,uint256)": {
        "details": "See {IERC721-transferFrom}."
      },
      "transferOwnership(address)": {
        "details": "Transfers ownership of the contract to a new account (`newOwner`). Can only be called by the current owner."
      }
    },
    "version": 1
  },
  "userdoc": {
    "kind": "user",
    "methods": {},
    "version": 1
  }
}