{
  "contractName": "SDVDiscountNFT",
  "abi": [
    {
      "inputs": [
        {
          "internalType": "address",
          "name": "_SDVToken",
          "type": "address"
        },
        {
          "internalType": "string",
          "name": "baseTokenURI",
          "type": "string"
        }
      ],
      "stateMutability": "nonpayable",
      "type": "constructor"
    },
    {
      "anonymous": false,
      "inputs": [
        {
          "indexed": true,
          "internalType": "address",
          "name": "owner",
          "type": "address"
        },
        {
          "indexed": true,
          "internalType": "address",
          "name": "approved",
          "type": "address"
        },
        {
          "indexed": true,
          "internalType": "uint256",
          "name": "tokenId",
          "type": "uint256"
        }
      ],
      "name": "Approval",
      "type": "event"
    },
    {
      "anonymous": false,
      "inputs": [
        {
          "indexed": true,
          "internalType": "address",
          "name": "owner",
          "type": "address"
        },
        {
          "indexed": true,
          "internalType": "address",
          "name": "operator",
          "type": "address"
        },
        {
          "indexed": false,
          "internalType": "bool",
          "name": "approved",
          "type": "bool"
        }
      ],
      "name": "ApprovalForAll",
      "type": "event"
    },
    {
      "anonymous": false,
      "inputs": [
        {
          "indexed": true,
          "internalType": "address",
          "name": "previousOwner",
          "type": "address"
        },
        {
          "indexed": true,
          "internalType": "address",
          "name": "newOwner",
          "type": "address"
        }
      ],
      "name": "OwnershipTransferred",
      "type": "event"
    },
    {
      "anonymous": false,
      "inputs": [
        {
          "indexed": true,
          "internalType": "address",
          "name": "from",
          "type": "address"
        },
        {
          "indexed": true,
          "internalType": "address",
          "name": "to",
          "type": "address"
        },
        {
          "indexed": true,
          "internalType": "uint256",
          "name": "tokenId",
          "type": "uint256"
        }
      ],
      "name": "Transfer",
      "type": "event"
    },
    {
      "inputs": [],
      "name": "SDVToken",
      "outputs": [
        {
          "internalType": "contract IERC20",
          "name": "",
          "type": "address"
        }
      ],
      "stateMutability": "view",
      "type": "function",
      "constant": true
    },
    {
      "inputs": [
        {
          "internalType": "address",
          "name": "to",
          "type": "address"
        },
        {
          "internalType": "uint256",
          "name": "tokenId",
          "type": "uint256"
        }
      ],
      "name": "approve",
      "outputs": [],
      "stateMutability": "nonpayable",
      "type": "function"
    },
    {
      "inputs": [
        {
          "internalType": "address",
          "name": "owner",
          "type": "address"
        }
      ],
      "name": "balanceOf",
      "outputs": [
        {
          "internalType": "uint256",
          "name": "",
          "type": "uint256"
        }
      ],
      "stateMutability": "view",
      "type": "function",
      "constant": true
    },
    {
      "inputs": [
        {
          "internalType": "uint256",
          "name": "tokenId",
          "type": "uint256"
        }
      ],
      "name": "getApproved",
      "outputs": [
        {
          "internalType": "address",
          "name": "",
          "type": "address"
        }
      ],
      "stateMutability": "view",
      "type": "function",
      "constant": true
    },
    {
      "inputs": [
        {
          "internalType": "address",
          "name": "owner",
          "type": "address"
        },
        {
          "internalType": "address",
          "name": "operator",
          "type": "address"
        }
      ],
      "name": "isApprovedForAll",
      "outputs": [
        {
          "internalType": "bool",
          "name": "",
          "type": "bool"
        }
      ],
      "stateMutability": "view",
      "type": "function",
      "constant": true
    },
    {
      "inputs": [],
      "name": "name",
      "outputs": [
        {
          "internalType": "string",
          "name": "",
          "type": "string"
        }
      ],
      "stateMutability": "view",
      "type": "function",
      "constant": true
    },
    {
      "inputs": [],
      "name": "owner",
      "outputs": [
        {
          "internalType": "address",
          "name": "",
          "type": "address"
        }
      ],
      "stateMutability": "view",
      "type": "function",
      "constant": true
    },
    {
      "inputs": [
        {
          "internalType": "uint256",
          "name": "tokenId",
          "type": "uint256"
        }
      ],
      "name": "ownerOf",
      "outputs": [
        {
          "internalType": "address",
          "name": "",
          "type": "address"
        }
      ],
      "stateMutability": "view",
      "type": "function",
      "constant": true
    },
    {
      "inputs": [],
      "name": "renounceOwnership",
      "outputs": [],
      "stateMutability": "nonpayable",
      "type": "function"
    },
    {
      "inputs": [
        {
          "internalType": "address",
          "name": "from",
          "type": "address"
        },
        {
          "internalType": "address",
          "name": "to",
          "type": "address"
        },
        {
          "internalType": "uint256",
          "name": "tokenId",
          "type": "uint256"
        }
      ],
      "name": "safeTransferFrom",
      "outputs": [],
      "stateMutability": "nonpayable",
      "type": "function"
    },
    {
      "inputs": [
        {
          "internalType": "address",
          "name": "from",
          "type": "address"
        },
        {
          "internalType": "address",
          "name": "to",
          "type": "address"
        },
        {
          "internalType": "uint256",
          "name": "tokenId",
          "type": "uint256"
        },
        {
          "internalType": "bytes",
          "name": "_data",
          "type": "bytes"
        }
      ],
      "name": "safeTransferFrom",
      "outputs": [],
      "stateMutability": "nonpayable",
      "type": "function"
    },
    {
      "inputs": [
        {
          "internalType": "address",
          "name": "operator",
          "type": "address"
        },
        {
          "internalType": "bool",
          "name": "approved",
          "type": "bool"
        }
      ],
      "name": "setApprovalForAll",
      "outputs": [],
      "stateMutability": "nonpayable",
      "type": "function"
    },
    {
      "inputs": [
        {
          "internalType": "bytes4",
          "name": "interfaceId",
          "type": "bytes4"
        }
      ],
      "name": "supportsInterface",
      "outputs": [
        {
          "internalType": "bool",
          "name": "",
          "type": "bool"
        }
      ],
      "stateMutability": "view",
      "type": "function",
      "constant": true
    },
    {
      "inputs": [],
      "name": "symbol",
      "outputs": [
        {
          "internalType": "string",
          "name": "",
          "type": "string"
        }
      ],
      "stateMutability": "view",
      "type": "function",
      "constant": true
    },
    {
      "inputs": [
        {
          "internalType": "uint256",
          "name": "",
          "type": "uint256"
        }
      ],
      "name": "ticketPrice",
      "outputs": [
        {
          "internalType": "uint256",
          "name": "",
          "type": "uint256"
        }
      ],
      "stateMutability": "view",
      "type": "function",
      "constant": true
    },
    {
      "inputs": [
        {
          "internalType": "address",
          "name": "from",
          "type": "address"
        },
        {
          "internalType": "address",
          "name": "to",
          "type": "address"
        },
        {
          "internalType": "uint256",
          "name": "tokenId",
          "type": "uint256"
        }
      ],
      "name": "transferFrom",
      "outputs": [],
      "stateMutability": "nonpayable",
      "type": "function"
    },
    {
      "inputs": [
        {
          "internalType": "address",
          "name": "newOwner",
          "type": "address"
        }
      ],
      "name": "transferOwnership",
      "outputs": [],
      "stateMutability": "nonpayable",
      "type": "function"
    },
    {
      "inputs": [
        {
          "internalType": "string",
          "name": "baseTokenURI",
          "type": "string"
        }
      ],
      "name": "setBaseTokenURI",
      "outputs": [],
      "stateMutability": "nonpayable",
      "type": "function"
    },
    {
      "inputs": [
        {
          "internalType": "uint256",
          "name": "tokenId",
          "type": "uint256"
        },
        {
          "internalType": "uint256",
          "name": "_ticketPrice",
          "type": "uint256"
        }
      ],
      "name": "mint",
      "outputs": [],
      "stateMutability": "nonpayable",
      "type": "function"
    },
    {
      "inputs": [
        {
          "internalType": "uint256",
          "name": "tokenId",
          "type": "uint256"
        }
      ],
      "name": "purchaseNFT",
      "outputs": [],
      "stateMutability": "nonpayable",
      "type": "function"
    },
    {
      "inputs": [
        {
          "internalType": "uint256",
          "name": "tokenId",
          "type": "uint256"
        }
      ],
      "name": "getTicketPrice",
      "outputs": [
        {
          "internalType": "uint256",
          "name": "",
          "type": "uint256"
        }
      ],
      "stateMutability": "view",
      "type": "function",
      "constant": true
    },
    {
      "inputs": [
        {
          "internalType": "uint256",
          "name": "tokenId",
          "type": "uint256"
        },
        {
          "internalType": "uint256",
          "name": "newTicketPrice",
          "type": "uint256"
        }
      ],
      "name": "setTicketPrice",
      "outputs": [],
      "stateMutability": "nonpayable",
      "type": "function"
    },
    {
      "inputs": [
        {
          "internalType": "uint256",
          "name": "tokenId",
          "type": "uint256"
        }
      ],
      "name": "tokenURI",
      "outputs": [
        {
          "internalType": "string",
          "name": "",
          "type": "string"
        }
      ],
      "stateMutability": "view",
      "type": "function",
      "constant": true
    },
    {
      "inputs": [],
      "name": "getAllMintedNFTs",
      "outputs": [
        {
          "internalType": "uint256[]",
          "name": "",
          "type": "uint256[]"
        }
      ],
      "stateMutability": "view",
      "type": "function",
      "constant": true
    }
  ],
  "bytecode": "0x60806040523480156200001157600080fd5b5060405162003dfc38038062003dfc83398181016040528101906200003791906200032b565b6040518060400160405280600681526020017f5344564e465400000000000000000000000000000000000000000000000000008152506040518060400160405280600481526020017f5344564e000000000000000000000000000000000000000000000000000000008152508160009080519060200190620000bb929190620001f2565b508060019080519060200190620000d4929190620001f2565b5050506000620000e9620001ea60201b60201c565b905080600760006101000a81548173ffffffffffffffffffffffffffffffffffffffff021916908373ffffffffffffffffffffffffffffffffffffffff1602179055508073ffffffffffffffffffffffffffffffffffffffff16600073ffffffffffffffffffffffffffffffffffffffff167f8be0079c531659141344cd1fd0a4f28419497f9722a3daafe3b4186f6b6457e060405160405180910390a35081600860006101000a81548173ffffffffffffffffffffffffffffffffffffffff021916908373ffffffffffffffffffffffffffffffffffffffff1602179055508060099080519060200190620001e1929190620001f2565b50505062000504565b600033905090565b828054620002009062000456565b90600052602060002090601f01602090048101928262000224576000855562000270565b82601f106200023f57805160ff191683800117855562000270565b8280016001018555821562000270579182015b828111156200026f57825182559160200191906001019062000252565b5b5090506200027f919062000283565b5090565b5b808211156200029e57600081600090555060010162000284565b5090565b6000620002b9620002b384620003b9565b62000385565b905082815260208101848484011115620002d257600080fd5b620002df84828562000420565b509392505050565b600081519050620002f881620004ea565b92915050565b600082601f8301126200031057600080fd5b815162000322848260208601620002a2565b91505092915050565b600080604083850312156200033f57600080fd5b60006200034f85828601620002e7565b925050602083015167ffffffffffffffff8111156200036d57600080fd5b6200037b85828601620002fe565b9150509250929050565b6000604051905081810181811067ffffffffffffffff82111715620003af57620003ae620004bb565b5b8060405250919050565b600067ffffffffffffffff821115620003d757620003d6620004bb565b5b601f19601f8301169050602081019050919050565b6000620003f98262000400565b9050919050565b600073ffffffffffffffffffffffffffffffffffffffff82169050919050565b60005b838110156200044057808201518184015260208101905062000423565b8381111562000450576000848401525b50505050565b600060028204905060018216806200046f57607f821691505b602082108114156200048657620004856200048c565b5b50919050565b7f4e487b7100000000000000000000000000000000000000000000000000000000600052602260045260246000fd5b7f4e487b7100000000000000000000000000000000000000000000000000000000600052604160045260246000fd5b620004f581620003ec565b81146200050157600080fd5b50565b6138e880620005146000396000f3fe608060405234801561001057600080fd5b50600436106101585760003560e01c8063715018a6116100c3578063c87b56dd1161007c578063c87b56dd146103ad578063db761fca146103dd578063e985e9c5146103fb578063ef72c2b61461042b578063f06fc96114610449578063f2fde38b1461047957610158565b8063715018a6146103135780638da5cb5b1461031d57806395d89b411461033b578063a22cb46514610359578063aa4c4cc114610375578063b88d4fde1461039157610158565b80631b2ef1ca116101155780631b2ef1ca1461024357806323b872dd1461025f57806330176e131461027b57806342842e0e146102975780636352211e146102b357806370a08231146102e357610158565b806301ffc9a71461015d57806306fdde031461018d578063081812fc146101ab578063095ea7b3146101db5780630d93e609146101f7578063150bde0314610227575b600080fd5b610177600480360381019061017291906125f1565b610495565b6040516101849190613133565b60405180910390f35b610195610577565b6040516101a29190613169565b60405180910390f35b6101c560048036038101906101c09190612684565b610609565b6040516101d29190613073565b60405180910390f35b6101f560048036038101906101f0919061258c565b61068e565b005b610211600480360381019061020c9190612684565b6107a6565b60405161021e919061340b565b60405180910390f35b610241600480360381019061023c9190612684565b6107be565b005b61025d600480360381019061025891906126ad565b6108e2565b005b61027960048036038101906102749190612486565b610a23565b005b61029560048036038101906102909190612643565b610a83565b005b6102b160048036038101906102ac9190612486565b610b19565b005b6102cd60048036038101906102c89190612684565b610b39565b6040516102da9190613073565b60405180910390f35b6102fd60048036038101906102f89190612421565b610beb565b60405161030a919061340b565b60405180910390f35b61031b610ca3565b005b610325610de0565b6040516103329190613073565b60405180910390f35b610343610e0a565b6040516103509190613169565b60405180910390f35b610373600480360381019061036e9190612550565b610e9c565b005b61038f600480360381019061038a91906126ad565b61101d565b005b6103ab60048036038101906103a691906124d5565b6110fd565b005b6103c760048036038101906103c29190612684565b61115f565b6040516103d49190613169565b60405180910390f35b6103e56111b9565b6040516103f29190613111565b60405180910390f35b6104156004803603810190610410919061244a565b611211565b6040516104229190613133565b60405180910390f35b6104336112a5565b604051610440919061314e565b60405180910390f35b610463600480360381019061045e9190612684565b6112cb565b604051610470919061340b565b60405180910390f35b610493600480360381019061048e9190612421565b611330565b005b60007f80ac58cd000000000000000000000000000000000000000000000000000000007bffffffffffffffffffffffffffffffffffffffffffffffffffffffff1916827bffffffffffffffffffffffffffffffffffffffffffffffffffffffff1916148061056057507f5b5e139f000000000000000000000000000000000000000000000000000000007bffffffffffffffffffffffffffffffffffffffffffffffffffffffff1916827bffffffffffffffffffffffffffffffffffffffffffffffffffffffff1916145b80610570575061056f826114dc565b5b9050919050565b606060008054610586906136dd565b80601f01602080910402602001604051908101604052809291908181526020018280546105b2906136dd565b80156105ff5780601f106105d4576101008083540402835291602001916105ff565b820191906000526020600020905b8154815290600101906020018083116105e257829003601f168201915b5050505050905090565b600061061482611546565b610653576040517f08c379a000000000000000000000000000000000000000000000000000000000815260040161064a9061332b565b60405180910390fd5b6004600083815260200190815260200160002060009054906101000a900473ffffffffffffffffffffffffffffffffffffffff169050919050565b600061069982610b39565b90508073ffffffffffffffffffffffffffffffffffffffff168373ffffffffffffffffffffffffffffffffffffffff16141561070a576040517f08c379a0000000000000000000000000000000000000000000000000000000008152600401610701906133ab565b60405180910390fd5b8073ffffffffffffffffffffffffffffffffffffffff166107296115b2565b73ffffffffffffffffffffffffffffffffffffffff1614806107585750610757816107526115b2565b611211565b5b610797576040517f08c379a000000000000000000000000000000000000000000000000000000000815260040161078e9061326b565b60405180910390fd5b6107a183836115ba565b505050565b600b6020528060005260406000206000915090505481565b6107c781611546565b610806576040517f08c379a00000000000000000000000000000000000000000000000000000000081526004016107fd9061322b565b60405180910390fd5b6000610811826112cb565b9050600860009054906101000a900473ffffffffffffffffffffffffffffffffffffffff1673ffffffffffffffffffffffffffffffffffffffff166323b872dd3361085a610de0565b846040518463ffffffff1660e01b81526004016108799392919061308e565b602060405180830381600087803b15801561089357600080fd5b505af11580156108a7573d6000803e3d6000fd5b505050506040513d601f19601f820116820180604052508101906108cb91906125c8565b506108de6108d7610de0565b3384611673565b5050565b6108ea6115b2565b73ffffffffffffffffffffffffffffffffffffffff16610908610de0565b73ffffffffffffffffffffffffffffffffffffffff161461095e576040517f08c379a00000000000000000000000000000000000000000000000000000000081526004016109559061334b565b60405180910390fd5b61096782611546565b156109a7576040517f08c379a000000000000000000000000000000000000000000000000000000000815260040161099e906133eb565b60405180910390fd5b6109b86109b2610de0565b836118cf565b600a8290806001815401808255809150506001900390600052602060002001600090919091909150556109eb828261101d565b610a1f8260096109fa856118ed565b604051602001610a0b929190613044565b604051602081830303815290604052611a9a565b5050565b610a34610a2e6115b2565b82611b0e565b610a73576040517f08c379a0000000000000000000000000000000000000000000000000000000008152600401610a6a906133cb565b60405180910390fd5b610a7e838383611673565b505050565b610a8b6115b2565b73ffffffffffffffffffffffffffffffffffffffff16610aa9610de0565b73ffffffffffffffffffffffffffffffffffffffff1614610aff576040517f08c379a0000000000000000000000000000000000000000000000000000000008152600401610af69061334b565b60405180910390fd5b8060099080519060200190610b15929190612230565b5050565b610b34838383604051806020016040528060008152506110fd565b505050565b6000806002600084815260200190815260200160002060009054906101000a900473ffffffffffffffffffffffffffffffffffffffff169050600073ffffffffffffffffffffffffffffffffffffffff168173ffffffffffffffffffffffffffffffffffffffff161415610be2576040517f08c379a0000000000000000000000000000000000000000000000000000000008152600401610bd9906132ab565b60405180910390fd5b80915050919050565b60008073ffffffffffffffffffffffffffffffffffffffff168273ffffffffffffffffffffffffffffffffffffffff161415610c5c576040517f08c379a0000000000000000000000000000000000000000000000000000000008152600401610c539061328b565b60405180910390fd5b600360008373ffffffffffffffffffffffffffffffffffffffff1673ffffffffffffffffffffffffffffffffffffffff168152602001908152602001600020549050919050565b610cab6115b2565b73ffffffffffffffffffffffffffffffffffffffff16610cc9610de0565b73ffffffffffffffffffffffffffffffffffffffff1614610d1f576040517f08c379a0000000000000000000000000000000000000000000000000000000008152600401610d169061334b565b60405180910390fd5b600073ffffffffffffffffffffffffffffffffffffffff16600760009054906101000a900473ffffffffffffffffffffffffffffffffffffffff1673ffffffffffffffffffffffffffffffffffffffff167f8be0079c531659141344cd1fd0a4f28419497f9722a3daafe3b4186f6b6457e060405160405180910390a36000600760006101000a81548173ffffffffffffffffffffffffffffffffffffffff021916908373ffffffffffffffffffffffffffffffffffffffff160217905550565b6000600760009054906101000a900473ffffffffffffffffffffffffffffffffffffffff16905090565b606060018054610e19906136dd565b80601f0160208091040260200160405190810160405280929190818152602001828054610e45906136dd565b8015610e925780601f10610e6757610100808354040283529160200191610e92565b820191906000526020600020905b815481529060010190602001808311610e7557829003601f168201915b5050505050905090565b610ea46115b2565b73ffffffffffffffffffffffffffffffffffffffff168273ffffffffffffffffffffffffffffffffffffffff161415610f12576040517f08c379a0000000000000000000000000000000000000000000000000000000008152600401610f099061320b565b60405180910390fd5b8060056000610f1f6115b2565b73ffffffffffffffffffffffffffffffffffffffff1673ffffffffffffffffffffffffffffffffffffffff16815260200190815260200160002060008473ffffffffffffffffffffffffffffffffffffffff1673ffffffffffffffffffffffffffffffffffffffff16815260200190815260200160002060006101000a81548160ff0219169083151502179055508173ffffffffffffffffffffffffffffffffffffffff16610fcc6115b2565b73ffffffffffffffffffffffffffffffffffffffff167f17307eab39ab6107e8899845ad3d59bd9653f200f220920489ca2b5937696c31836040516110119190613133565b60405180910390a35050565b6110256115b2565b73ffffffffffffffffffffffffffffffffffffffff16611043610de0565b73ffffffffffffffffffffffffffffffffffffffff1614611099576040517f08c379a00000000000000000000000000000000000000000000000000000000081526004016110909061334b565b60405180910390fd5b6110a282611546565b6110e1576040517f08c379a00000000000000000000000000000000000000000000000000000000081526004016110d89061322b565b60405180910390fd5b80600b6000848152602001908152602001600020819055505050565b61110e6111086115b2565b83611b0e565b61114d576040517f08c379a0000000000000000000000000000000000000000000000000000000008152600401611144906133cb565b60405180910390fd5b61115984848484611bec565b50505050565b606061116a82611546565b6111a9576040517f08c379a00000000000000000000000000000000000000000000000000000000081526004016111a09061322b565b60405180910390fd5b6111b282611c48565b9050919050565b6060600a80548060200260200160405190810160405280929190818152602001828054801561120757602002820191906000526020600020905b8154815260200190600101908083116111f3575b5050505050905090565b6000600560008473ffffffffffffffffffffffffffffffffffffffff1673ffffffffffffffffffffffffffffffffffffffff16815260200190815260200160002060008373ffffffffffffffffffffffffffffffffffffffff1673ffffffffffffffffffffffffffffffffffffffff16815260200190815260200160002060009054906101000a900460ff16905092915050565b600860009054906101000a900473ffffffffffffffffffffffffffffffffffffffff1681565b60006112d682611546565b611315576040517f08c379a000000000000000000000000000000000000000000000000000000000815260040161130c9061322b565b60405180910390fd5b600b6000838152602001908152602001600020549050919050565b6113386115b2565b73ffffffffffffffffffffffffffffffffffffffff16611356610de0565b73ffffffffffffffffffffffffffffffffffffffff16146113ac576040517f08c379a00000000000000000000000000000000000000000000000000000000081526004016113a39061334b565b60405180910390fd5b600073ffffffffffffffffffffffffffffffffffffffff168173ffffffffffffffffffffffffffffffffffffffff16141561141c576040517f08c379a0000000000000000000000000000000000000000000000000000000008152600401611413906131ab565b60405180910390fd5b8073ffffffffffffffffffffffffffffffffffffffff16600760009054906101000a900473ffffffffffffffffffffffffffffffffffffffff1673ffffffffffffffffffffffffffffffffffffffff167f8be0079c531659141344cd1fd0a4f28419497f9722a3daafe3b4186f6b6457e060405160405180910390a380600760006101000a81548173ffffffffffffffffffffffffffffffffffffffff021916908373ffffffffffffffffffffffffffffffffffffffff16021790555050565b60007f01ffc9a7000000000000000000000000000000000000000000000000000000007bffffffffffffffffffffffffffffffffffffffffffffffffffffffff1916827bffffffffffffffffffffffffffffffffffffffffffffffffffffffff1916149050919050565b60008073ffffffffffffffffffffffffffffffffffffffff166002600084815260200190815260200160002060009054906101000a900473ffffffffffffffffffffffffffffffffffffffff1673ffffffffffffffffffffffffffffffffffffffff1614159050919050565b600033905090565b816004600083815260200190815260200160002060006101000a81548173ffffffffffffffffffffffffffffffffffffffff021916908373ffffffffffffffffffffffffffffffffffffffff160217905550808273ffffffffffffffffffffffffffffffffffffffff1661162d83610b39565b73ffffffffffffffffffffffffffffffffffffffff167f8c5be1e5ebec7d5bd14f71427d1e84f3dd0314c0f7b2291e5b200ac8c7c3b92560405160405180910390a45050565b8273ffffffffffffffffffffffffffffffffffffffff1661169382610b39565b73ffffffffffffffffffffffffffffffffffffffff16146116e9576040517f08c379a00000000000000000000000000000000000000000000000000000000081526004016116e09061336b565b60405180910390fd5b600073ffffffffffffffffffffffffffffffffffffffff168273ffffffffffffffffffffffffffffffffffffffff161415611759576040517f08c379a0000000000000000000000000000000000000000000000000000000008152600401611750906131eb565b60405180910390fd5b611764838383611d9a565b61176f6000826115ba565b6001600360008573ffffffffffffffffffffffffffffffffffffffff1673ffffffffffffffffffffffffffffffffffffffff16815260200190815260200160002060008282546117bf91906135cf565b925050819055506001600360008473ffffffffffffffffffffffffffffffffffffffff1673ffffffffffffffffffffffffffffffffffffffff16815260200190815260200160002060008282546118169190613548565b92505081905550816002600083815260200190815260200160002060006101000a81548173ffffffffffffffffffffffffffffffffffffffff021916908373ffffffffffffffffffffffffffffffffffffffff160217905550808273ffffffffffffffffffffffffffffffffffffffff168473ffffffffffffffffffffffffffffffffffffffff167fddf252ad1be2c89b69c2b068fc378daa952ba7f163c4a11628f55a4df523b3ef60405160405180910390a4505050565b6118e9828260405180602001604052806000815250611d9f565b5050565b60606000821415611935576040518060400160405280600181526020017f30000000000000000000000000000000000000000000000000000000000000008152509050611a95565b600082905060005b600082146119675780806119509061370f565b915050600a82611960919061359e565b915061193d565b60008167ffffffffffffffff8111156119a9577f4e487b7100000000000000000000000000000000000000000000000000000000600052604160045260246000fd5b6040519080825280601f01601f1916602001820160405280156119db5781602001600182028036833780820191505090505b5090505b60008514611a8e576001826119f491906135cf565b9150600a85611a039190613758565b6030611a0f9190613548565b60f81b818381518110611a4b577f4e487b7100000000000000000000000000000000000000000000000000000000600052603260045260246000fd5b60200101907effffffffffffffffffffffffffffffffffffffffffffffffffffffffffffff1916908160001a905350600a85611a87919061359e565b94506119df565b8093505050505b919050565b611aa382611546565b611ae2576040517f08c379a0000000000000000000000000000000000000000000000000000000008152600401611ad9906132cb565b60405180910390fd5b80600660008481526020019081526020016000209080519060200190611b09929190612230565b505050565b6000611b1982611546565b611b58576040517f08c379a0000000000000000000000000000000000000000000000000000000008152600401611b4f9061324b565b60405180910390fd5b6000611b6383610b39565b90508073ffffffffffffffffffffffffffffffffffffffff168473ffffffffffffffffffffffffffffffffffffffff161480611bd257508373ffffffffffffffffffffffffffffffffffffffff16611bba84610609565b73ffffffffffffffffffffffffffffffffffffffff16145b80611be35750611be28185611211565b5b91505092915050565b611bf7848484611673565b611c0384848484611dfa565b611c42576040517f08c379a0000000000000000000000000000000000000000000000000000000008152600401611c399061318b565b60405180910390fd5b50505050565b6060611c5382611546565b611c92576040517f08c379a0000000000000000000000000000000000000000000000000000000008152600401611c899061330b565b60405180910390fd5b6000600660008481526020019081526020016000208054611cb2906136dd565b80601f0160208091040260200160405190810160405280929190818152602001828054611cde906136dd565b8015611d2b5780601f10611d0057610100808354040283529160200191611d2b565b820191906000526020600020905b815481529060010190602001808311611d0e57829003601f168201915b505050505090506000611d3c611f91565b9050600081511415611d52578192505050611d95565b600082511115611d87578082604051602001611d6f929190613020565b60405160208183030381529060405292505050611d95565b611d9084611fa8565b925050505b919050565b505050565b611da9838361204f565b611db66000848484611dfa565b611df5576040517f08c379a0000000000000000000000000000000000000000000000000000000008152600401611dec9061318b565b60405180910390fd5b505050565b6000611e1b8473ffffffffffffffffffffffffffffffffffffffff1661221d565b15611f84578373ffffffffffffffffffffffffffffffffffffffff1663150b7a02611e446115b2565b8786866040518563ffffffff1660e01b8152600401611e6694939291906130c5565b602060405180830381600087803b158015611e8057600080fd5b505af1925050508015611eb157506040513d601f19601f82011682018060405250810190611eae919061261a565b60015b611f34573d8060008114611ee1576040519150601f19603f3d011682016040523d82523d6000602084013e611ee6565b606091505b50600081511415611f2c576040517f08c379a0000000000000000000000000000000000000000000000000000000008152600401611f239061318b565b60405180910390fd5b805181602001fd5b63150b7a0260e01b7bffffffffffffffffffffffffffffffffffffffffffffffffffffffff1916817bffffffffffffffffffffffffffffffffffffffffffffffffffffffff191614915050611f89565b600190505b949350505050565b606060405180602001604052806000815250905090565b6060611fb382611546565b611ff2576040517f08c379a0000000000000000000000000000000000000000000000000000000008152600401611fe99061338b565b60405180910390fd5b6000611ffc611f91565b9050600081511161201c5760405180602001604052806000815250612047565b80612026846118ed565b604051602001612037929190613020565b6040516020818303038152906040525b915050919050565b600073ffffffffffffffffffffffffffffffffffffffff168273ffffffffffffffffffffffffffffffffffffffff1614156120bf576040517f08c379a00000000000000000000000000000000000000000000000000000000081526004016120b6906132eb565b60405180910390fd5b6120c881611546565b15612108576040517f08c379a00000000000000000000000000000000000000000000000000000000081526004016120ff906131cb565b60405180910390fd5b61211460008383611d9a565b6001600360008473ffffffffffffffffffffffffffffffffffffffff1673ffffffffffffffffffffffffffffffffffffffff16815260200190815260200160002060008282546121649190613548565b92505081905550816002600083815260200190815260200160002060006101000a81548173ffffffffffffffffffffffffffffffffffffffff021916908373ffffffffffffffffffffffffffffffffffffffff160217905550808273ffffffffffffffffffffffffffffffffffffffff16600073ffffffffffffffffffffffffffffffffffffffff167fddf252ad1be2c89b69c2b068fc378daa952ba7f163c4a11628f55a4df523b3ef60405160405180910390a45050565b600080823b905060008111915050919050565b82805461223c906136dd565b90600052602060002090601f01602090048101928261225e57600085556122a5565b82601f1061227757805160ff19168380011785556122a5565b828001600101855582156122a5579182015b828111156122a4578251825591602001919060010190612289565b5b5090506122b291906122b6565b5090565b5b808211156122cf5760008160009055506001016122b7565b5090565b60006122e66122e184613457565b613426565b9050828152602081018484840111156122fe57600080fd5b61230984828561369b565b509392505050565b600061232461231f84613487565b613426565b90508281526020810184848401111561233c57600080fd5b61234784828561369b565b509392505050565b60008135905061235e81613856565b92915050565b6000813590506123738161386d565b92915050565b6000815190506123888161386d565b92915050565b60008135905061239d81613884565b92915050565b6000815190506123b281613884565b92915050565b600082601f8301126123c957600080fd5b81356123d98482602086016122d3565b91505092915050565b600082601f8301126123f357600080fd5b8135612403848260208601612311565b91505092915050565b60008135905061241b8161389b565b92915050565b60006020828403121561243357600080fd5b60006124418482850161234f565b91505092915050565b6000806040838503121561245d57600080fd5b600061246b8582860161234f565b925050602061247c8582860161234f565b9150509250929050565b60008060006060848603121561249b57600080fd5b60006124a98682870161234f565b93505060206124ba8682870161234f565b92505060406124cb8682870161240c565b9150509250925092565b600080600080608085870312156124eb57600080fd5b60006124f98782880161234f565b945050602061250a8782880161234f565b935050604061251b8782880161240c565b925050606085013567ffffffffffffffff81111561253857600080fd5b612544878288016123b8565b91505092959194509250565b6000806040838503121561256357600080fd5b60006125718582860161234f565b925050602061258285828601612364565b9150509250929050565b6000806040838503121561259f57600080fd5b60006125ad8582860161234f565b92505060206125be8582860161240c565b9150509250929050565b6000602082840312156125da57600080fd5b60006125e884828501612379565b91505092915050565b60006020828403121561260357600080fd5b60006126118482850161238e565b91505092915050565b60006020828403121561262c57600080fd5b600061263a848285016123a3565b91505092915050565b60006020828403121561265557600080fd5b600082013567ffffffffffffffff81111561266f57600080fd5b61267b848285016123e2565b91505092915050565b60006020828403121561269657600080fd5b60006126a48482850161240c565b91505092915050565b600080604083850312156126c057600080fd5b60006126ce8582860161240c565b92505060206126df8582860161240c565b9150509250929050565b60006126f58383613002565b60208301905092915050565b61270a81613603565b82525050565b600061271b826134dc565b612725818561350a565b9350612730836134b7565b8060005b8381101561276157815161274888826126e9565b9750612753836134fd565b925050600181019050612734565b5085935050505092915050565b61277781613615565b82525050565b6000612788826134e7565b612792818561351b565b93506127a28185602086016136aa565b6127ab81613845565b840191505092915050565b6127bf81613677565b82525050565b60006127d0826134f2565b6127da818561352c565b93506127ea8185602086016136aa565b6127f381613845565b840191505092915050565b6000612809826134f2565b612813818561353d565b93506128238185602086016136aa565b80840191505092915050565b6000815461283c816136dd565b612846818661353d565b945060018216600081146128615760018114612872576128a5565b60ff198316865281860193506128a5565b61287b856134c7565b60005b8381101561289d5781548189015260018201915060208101905061287e565b838801955050505b50505092915050565b60006128bb60328361352c565b91507f4552433732313a207472616e7366657220746f206e6f6e20455243373231526560008301527f63656976657220696d706c656d656e74657200000000000000000000000000006020830152604082019050919050565b600061292160268361352c565b91507f4f776e61626c653a206e6577206f776e657220697320746865207a65726f206160008301527f64647265737300000000000000000000000000000000000000000000000000006020830152604082019050919050565b6000612987601c8361352c565b91507f4552433732313a20746f6b656e20616c7265616479206d696e746564000000006000830152602082019050919050565b60006129c760248361352c565b91507f4552433732313a207472616e7366657220746f20746865207a65726f2061646460008301527f72657373000000000000000000000000000000000000000000000000000000006020830152604082019050919050565b6000612a2d60198361352c565b91507f4552433732313a20617070726f766520746f2063616c6c6572000000000000006000830152602082019050919050565b6000612a6d60178361352c565b91507f546f6b656e20494420646f6573206e6f742065786973740000000000000000006000830152602082019050919050565b6000612aad602c8361352c565b91507f4552433732313a206f70657261746f7220717565727920666f72206e6f6e657860008301527f697374656e7420746f6b656e00000000000000000000000000000000000000006020830152604082019050919050565b6000612b1360388361352c565b91507f4552433732313a20617070726f76652063616c6c6572206973206e6f74206f7760008301527f6e6572206e6f7220617070726f76656420666f7220616c6c00000000000000006020830152604082019050919050565b6000612b79602a8361352c565b91507f4552433732313a2062616c616e636520717565727920666f7220746865207a6560008301527f726f2061646472657373000000000000000000000000000000000000000000006020830152604082019050919050565b6000612bdf60298361352c565b91507f4552433732313a206f776e657220717565727920666f72206e6f6e657869737460008301527f656e7420746f6b656e00000000000000000000000000000000000000000000006020830152604082019050919050565b6000612c45602e8361352c565b91507f45524337323155524953746f726167653a2055524920736574206f66206e6f6e60008301527f6578697374656e7420746f6b656e0000000000000000000000000000000000006020830152604082019050919050565b6000612cab60208361352c565b91507f4552433732313a206d696e7420746f20746865207a65726f20616464726573736000830152602082019050919050565b6000612ceb60318361352c565b91507f45524337323155524953746f726167653a2055524920717565727920666f722060008301527f6e6f6e6578697374656e7420746f6b656e0000000000000000000000000000006020830152604082019050919050565b6000612d51602c8361352c565b91507f4552433732313a20617070726f76656420717565727920666f72206e6f6e657860008301527f697374656e7420746f6b656e00000000000000000000000000000000000000006020830152604082019050919050565b6000612db760058361353d565b91507f2e6a736f6e0000000000000000000000000000000000000000000000000000006000830152600582019050919050565b6000612df760208361352c565b91507f4f776e61626c653a2063616c6c6572206973206e6f7420746865206f776e65726000830152602082019050919050565b6000612e3760298361352c565b91507f4552433732313a207472616e73666572206f6620746f6b656e2074686174206960008301527f73206e6f74206f776e00000000000000000000000000000000000000000000006020830152604082019050919050565b6000612e9d602f8361352c565b91507f4552433732314d657461646174613a2055524920717565727920666f72206e6f60008301527f6e6578697374656e7420746f6b656e00000000000000000000000000000000006020830152604082019050919050565b6000612f0360218361352c565b91507f4552433732313a20617070726f76616c20746f2063757272656e74206f776e6560008301527f72000000000000000000000000000000000000000000000000000000000000006020830152604082019050919050565b6000612f6960318361352c565b91507f4552433732313a207472616e736665722063616c6c6572206973206e6f74206f60008301527f776e6572206e6f7220617070726f7665640000000000000000000000000000006020830152604082019050919050565b6000612fcf60178361352c565b91507f546f6b656e20494420616c7265616479206578697374730000000000000000006000830152602082019050919050565b61300b8161366d565b82525050565b61301a8161366d565b82525050565b600061302c82856127fe565b915061303882846127fe565b91508190509392505050565b6000613050828561282f565b915061305c82846127fe565b915061306782612daa565b91508190509392505050565b60006020820190506130886000830184612701565b92915050565b60006060820190506130a36000830186612701565b6130b06020830185612701565b6130bd6040830184613011565b949350505050565b60006080820190506130da6000830187612701565b6130e76020830186612701565b6130f46040830185613011565b8181036060830152613106818461277d565b905095945050505050565b6000602082019050818103600083015261312b8184612710565b905092915050565b6000602082019050613148600083018461276e565b92915050565b600060208201905061316360008301846127b6565b92915050565b6000602082019050818103600083015261318381846127c5565b905092915050565b600060208201905081810360008301526131a4816128ae565b9050919050565b600060208201905081810360008301526131c481612914565b9050919050565b600060208201905081810360008301526131e48161297a565b9050919050565b60006020820190508181036000830152613204816129ba565b9050919050565b6000602082019050818103600083015261322481612a20565b9050919050565b6000602082019050818103600083015261324481612a60565b9050919050565b6000602082019050818103600083015261326481612aa0565b9050919050565b6000602082019050818103600083015261328481612b06565b9050919050565b600060208201905081810360008301526132a481612b6c565b9050919050565b600060208201905081810360008301526132c481612bd2565b9050919050565b600060208201905081810360008301526132e481612c38565b9050919050565b6000602082019050818103600083015261330481612c9e565b9050919050565b6000602082019050818103600083015261332481612cde565b9050919050565b6000602082019050818103600083015261334481612d44565b9050919050565b6000602082019050818103600083015261336481612dea565b9050919050565b6000602082019050818103600083015261338481612e2a565b9050919050565b600060208201905081810360008301526133a481612e90565b9050919050565b600060208201905081810360008301526133c481612ef6565b9050919050565b600060208201905081810360008301526133e481612f5c565b9050919050565b6000602082019050818103600083015261340481612fc2565b9050919050565b60006020820190506134206000830184613011565b92915050565b6000604051905081810181811067ffffffffffffffff8211171561344d5761344c613816565b5b8060405250919050565b600067ffffffffffffffff82111561347257613471613816565b5b601f19601f8301169050602081019050919050565b600067ffffffffffffffff8211156134a2576134a1613816565b5b601f19601f8301169050602081019050919050565b6000819050602082019050919050565b60008190508160005260206000209050919050565b600081519050919050565b600081519050919050565b600081519050919050565b6000602082019050919050565b600082825260208201905092915050565b600082825260208201905092915050565b600082825260208201905092915050565b600081905092915050565b60006135538261366d565b915061355e8361366d565b9250827fffffffffffffffffffffffffffffffffffffffffffffffffffffffffffffffff0382111561359357613592613789565b5b828201905092915050565b60006135a98261366d565b91506135b48361366d565b9250826135c4576135c36137b8565b5b828204905092915050565b60006135da8261366d565b91506135e58361366d565b9250828210156135f8576135f7613789565b5b828203905092915050565b600061360e8261364d565b9050919050565b60008115159050919050565b60007fffffffff0000000000000000000000000000000000000000000000000000000082169050919050565b600073ffffffffffffffffffffffffffffffffffffffff82169050919050565b6000819050919050565b600061368282613689565b9050919050565b60006136948261364d565b9050919050565b82818337600083830152505050565b60005b838110156136c85780820151818401526020810190506136ad565b838111156136d7576000848401525b50505050565b600060028204905060018216806136f557607f821691505b60208210811415613709576137086137e7565b5b50919050565b600061371a8261366d565b91507fffffffffffffffffffffffffffffffffffffffffffffffffffffffffffffffff82141561374d5761374c613789565b5b600182019050919050565b60006137638261366d565b915061376e8361366d565b92508261377e5761377d6137b8565b5b828206905092915050565b7f4e487b7100000000000000000000000000000000000000000000000000000000600052601160045260246000fd5b7f4e487b7100000000000000000000000000000000000000000000000000000000600052601260045260246000fd5b7f4e487b7100000000000000000000000000000000000000000000000000000000600052602260045260246000fd5b7f4e487b7100000000000000000000000000000000000000000000000000000000600052604160045260246000fd5b6000601f19601f8301169050919050565b61385f81613603565b811461386a57600080fd5b50565b61387681613615565b811461388157600080fd5b50565b61388d81613621565b811461389857600080fd5b50565b6138a48161366d565b81146138af57600080fd5b5056fea264697066735822122007ac8544c911234ddeaa17e70ded2a1cd37559f67e2fc0a759b46eeef95022c464736f6c63430008000033",
  "immutableReferences": {},
  "source": "// SPDX-License-Identifier: MIT\r\npragma solidity ^0.8.0;\r\n\r\nimport \"@openzeppelin/contracts/token/ERC721/extensions/ERC721URIStorage.sol\";\r\nimport \"@openzeppelin/contracts/access/Ownable.sol\";\r\nimport \"@openzeppelin/contracts/token/ERC20/IERC20.sol\";\r\nimport \"@openzeppelin/contracts/utils/Strings.sol\";\r\n\r\ncontract SDVDiscountNFT is ERC721URIStorage, Ownable {\r\n    using Strings for uint256;\r\n\r\n    IERC20 public SDVToken;\r\n    string private _baseTokenURI;\r\n\r\n    uint256[] private mintedTokens;\r\n    mapping(uint256 => uint256) public ticketPrice;\r\n\r\n    constructor(address _SDVToken, string memory baseTokenURI) ERC721(\"SDVNFT\", \"SDVN\") {\r\n        SDVToken = IERC20(_SDVToken);\r\n        _baseTokenURI = baseTokenURI;\r\n    }\r\n\r\n    function setBaseTokenURI(string memory baseTokenURI) external onlyOwner {\r\n        _baseTokenURI = baseTokenURI;\r\n    }\r\n\r\n    function mint(uint256 tokenId, uint256 _ticketPrice) external onlyOwner {\r\n        require(!_exists(tokenId), \"Token ID already exists\");\r\n\r\n        _safeMint(owner(), tokenId);\r\n        mintedTokens.push(tokenId);\r\n\r\n        setTicketPrice(tokenId, _ticketPrice);\r\n\r\n        _setTokenURI(tokenId, string(abi.encodePacked(_baseTokenURI, tokenId.toString(), \".json\")));\r\n    }\r\n\r\n    function purchaseNFT(uint256 tokenId) external {\r\n        require(_exists(tokenId), \"Token ID does not exist\");\r\n\r\n        uint256 price = getTicketPrice(tokenId);\r\n\r\n        SDVToken.transferFrom(msg.sender, owner(), price);\r\n\r\n        _transfer(owner(), msg.sender, tokenId);\r\n    }\r\n\r\n    function getTicketPrice(uint256 tokenId) public view returns (uint256) {\r\n        require(_exists(tokenId), \"Token ID does not exist\");\r\n        return ticketPrice[tokenId];\r\n    }\r\n\r\n    function setTicketPrice(uint256 tokenId, uint256 newTicketPrice) public onlyOwner {\r\n        require(_exists(tokenId), \"Token ID does not exist\");\r\n        ticketPrice[tokenId] = newTicketPrice;\r\n    }\r\n\r\n    function tokenURI(uint256 tokenId) public view override(ERC721URIStorage) returns (string memory) {\r\n        require(_exists(tokenId), \"Token ID does not exist\");\r\n        return ERC721URIStorage.tokenURI(tokenId);\r\n    }\r\n\r\n    function getAllMintedNFTs() external view returns (uint256[] memory) {\r\n        return mintedTokens;\r\n    }\r\n}\r\n",
  "sourcePath": "C:\\Users\\i\\Documents\\GitHub\\DSP\\contracts\\contracts\\SDVDiscountNFT.sol",
  "compiler": {
    "name": "solc",
    "version": "0.8.0+commit.c7dfd78e.Emscripten.clang"
  },
  "schemaVersion": "3.4.16",
  "updatedAt": "2024-02-02T14:30:26.294Z",
  "networkType": "ethereum",
  "devdoc": {
    "kind": "dev",
    "methods": {
      "approve(address,uint256)": {
        "details": "See {IERC721-approve}."
      },
      "balanceOf(address)": {
        "details": "See {IERC721-balanceOf}."
      },
      "getApproved(uint256)": {
        "details": "See {IERC721-getApproved}."
      },
      "isApprovedForAll(address,address)": {
        "details": "See {IERC721-isApprovedForAll}."
      },
      "name()": {
        "details": "See {IERC721Metadata-name}."
      },
      "owner()": {
        "details": "Returns the address of the current owner."
      },
      "ownerOf(uint256)": {
        "details": "See {IERC721-ownerOf}."
      },
      "renounceOwnership()": {
        "details": "Leaves the contract without owner. It will not be possible to call `onlyOwner` functions anymore. Can only be called by the current owner. NOTE: Renouncing ownership will leave the contract without an owner, thereby removing any functionality that is only available to the owner."
      },
      "safeTransferFrom(address,address,uint256)": {
        "details": "See {IERC721-safeTransferFrom}."
      },
      "safeTransferFrom(address,address,uint256,bytes)": {
        "details": "See {IERC721-safeTransferFrom}."
      },
      "setApprovalForAll(address,bool)": {
        "details": "See {IERC721-setApprovalForAll}."
      },
      "supportsInterface(bytes4)": {
        "details": "See {IERC165-supportsInterface}."
      },
      "symbol()": {
        "details": "See {IERC721Metadata-symbol}."
      },
      "tokenURI(uint256)": {
        "details": "See {IERC721Metadata-tokenURI}."
      },
      "transferFrom(address,address,uint256)": {
        "details": "See {IERC721-transferFrom}."
      },
      "transferOwnership(address)": {
        "details": "Transfers ownership of the contract to a new account (`newOwner`). Can only be called by the current owner."
      }
    },
    "version": 1
  },
  "userdoc": {
    "kind": "user",
    "methods": {},
    "version": 1
  }
}