{
  "contractName": "SDVProductionNFT",
  "abi": [
    {
      "inputs": [],
      "stateMutability": "nonpayable",
      "type": "constructor"
    },
    {
      "anonymous": false,
      "inputs": [
        {
          "indexed": true,
          "internalType": "address",
          "name": "account",
          "type": "address"
        },
        {
          "indexed": true,
          "internalType": "address",
          "name": "operator",
          "type": "address"
        },
        {
          "indexed": false,
          "internalType": "bool",
          "name": "approved",
          "type": "bool"
        }
      ],
      "name": "ApprovalForAll",
      "type": "event"
    },
    {
      "anonymous": false,
      "inputs": [
        {
          "indexed": true,
          "internalType": "uint256",
          "name": "tokenId",
          "type": "uint256"
        },
        {
          "indexed": true,
          "internalType": "address",
          "name": "artist",
          "type": "address"
        }
      ],
      "name": "NFTCreated",
      "type": "event"
    },
    {
      "anonymous": false,
      "inputs": [
        {
          "indexed": true,
          "internalType": "uint256",
          "name": "tokenId",
          "type": "uint256"
        },
        {
          "indexed": false,
          "internalType": "address[]",
          "name": "participants",
          "type": "address[]"
        },
        {
          "indexed": false,
          "internalType": "uint256[]",
          "name": "amounts",
          "type": "uint256[]"
        }
      ],
      "name": "NFTSharesAirdropped",
      "type": "event"
    },
    {
      "anonymous": false,
      "inputs": [
        {
          "indexed": true,
          "internalType": "address",
          "name": "previousOwner",
          "type": "address"
        },
        {
          "indexed": true,
          "internalType": "address",
          "name": "newOwner",
          "type": "address"
        }
      ],
      "name": "OwnershipTransferred",
      "type": "event"
    },
    {
      "anonymous": false,
      "inputs": [
        {
          "indexed": true,
          "internalType": "uint256",
          "name": "tokenId",
          "type": "uint256"
        },
        {
          "indexed": false,
          "internalType": "uint256",
          "name": "totalShares",
          "type": "uint256"
        }
      ],
      "name": "TokensFractionalized",
      "type": "event"
    },
    {
      "anonymous": false,
      "inputs": [
        {
          "indexed": true,
          "internalType": "uint256",
          "name": "tokenId",
          "type": "uint256"
        },
        {
          "indexed": true,
          "internalType": "address",
          "name": "to",
          "type": "address"
        },
        {
          "indexed": false,
          "internalType": "uint256",
          "name": "amount",
          "type": "uint256"
        }
      ],
      "name": "TokensMinted",
      "type": "event"
    },
    {
      "anonymous": false,
      "inputs": [
        {
          "indexed": true,
          "internalType": "address",
          "name": "operator",
          "type": "address"
        },
        {
          "indexed": true,
          "internalType": "address",
          "name": "from",
          "type": "address"
        },
        {
          "indexed": true,
          "internalType": "address",
          "name": "to",
          "type": "address"
        },
        {
          "indexed": false,
          "internalType": "uint256[]",
          "name": "ids",
          "type": "uint256[]"
        },
        {
          "indexed": false,
          "internalType": "uint256[]",
          "name": "values",
          "type": "uint256[]"
        }
      ],
      "name": "TransferBatch",
      "type": "event"
    },
    {
      "anonymous": false,
      "inputs": [
        {
          "indexed": true,
          "internalType": "address",
          "name": "operator",
          "type": "address"
        },
        {
          "indexed": true,
          "internalType": "address",
          "name": "from",
          "type": "address"
        },
        {
          "indexed": true,
          "internalType": "address",
          "name": "to",
          "type": "address"
        },
        {
          "indexed": false,
          "internalType": "uint256",
          "name": "id",
          "type": "uint256"
        },
        {
          "indexed": false,
          "internalType": "uint256",
          "name": "value",
          "type": "uint256"
        }
      ],
      "name": "TransferSingle",
      "type": "event"
    },
    {
      "anonymous": false,
      "inputs": [
        {
          "indexed": false,
          "internalType": "string",
          "name": "value",
          "type": "string"
        },
        {
          "indexed": true,
          "internalType": "uint256",
          "name": "id",
          "type": "uint256"
        }
      ],
      "name": "URI",
      "type": "event"
    },
    {
      "inputs": [],
      "name": "MAX_FRACTIONAL_SHARES",
      "outputs": [
        {
          "internalType": "uint256",
          "name": "",
          "type": "uint256"
        }
      ],
      "stateMutability": "view",
      "type": "function"
    },
    {
      "inputs": [
        {
          "internalType": "address",
          "name": "",
          "type": "address"
        }
      ],
      "name": "attendees",
      "outputs": [
        {
          "internalType": "bool",
          "name": "",
          "type": "bool"
        }
      ],
      "stateMutability": "view",
      "type": "function"
    },
    {
      "inputs": [
        {
          "internalType": "address",
          "name": "account",
          "type": "address"
        },
        {
          "internalType": "uint256",
          "name": "id",
          "type": "uint256"
        }
      ],
      "name": "balanceOf",
      "outputs": [
        {
          "internalType": "uint256",
          "name": "",
          "type": "uint256"
        }
      ],
      "stateMutability": "view",
      "type": "function"
    },
    {
      "inputs": [
        {
          "internalType": "address[]",
          "name": "accounts",
          "type": "address[]"
        },
        {
          "internalType": "uint256[]",
          "name": "ids",
          "type": "uint256[]"
        }
      ],
      "name": "balanceOfBatch",
      "outputs": [
        {
          "internalType": "uint256[]",
          "name": "",
          "type": "uint256[]"
        }
      ],
      "stateMutability": "view",
      "type": "function"
    },
    {
      "inputs": [
        {
          "internalType": "uint256",
          "name": "",
          "type": "uint256"
        },
        {
          "internalType": "address",
          "name": "",
          "type": "address"
        }
      ],
      "name": "fractionalOwnership",
      "outputs": [
        {
          "internalType": "uint256",
          "name": "",
          "type": "uint256"
        }
      ],
      "stateMutability": "view",
      "type": "function"
    },
    {
      "inputs": [
        {
          "internalType": "address",
          "name": "account",
          "type": "address"
        },
        {
          "internalType": "address",
          "name": "operator",
          "type": "address"
        }
      ],
      "name": "isApprovedForAll",
      "outputs": [
        {
          "internalType": "bool",
          "name": "",
          "type": "bool"
        }
      ],
      "stateMutability": "view",
      "type": "function"
    },
    {
      "inputs": [
        {
          "internalType": "uint256",
          "name": "",
          "type": "uint256"
        }
      ],
      "name": "nfts",
      "outputs": [
        {
          "internalType": "uint256",
          "name": "totalShares",
          "type": "uint256"
        },
        {
          "internalType": "uint256",
          "name": "remainingShares",
          "type": "uint256"
        },
        {
          "internalType": "address",
          "name": "artist",
          "type": "address"
        }
      ],
      "stateMutability": "view",
      "type": "function"
    },
    {
      "inputs": [],
      "name": "owner",
      "outputs": [
        {
          "internalType": "address",
          "name": "",
          "type": "address"
        }
      ],
      "stateMutability": "view",
      "type": "function"
    },
    {
      "inputs": [],
      "name": "renounceOwnership",
      "outputs": [],
      "stateMutability": "nonpayable",
      "type": "function"
    },
    {
      "inputs": [
        {
          "internalType": "address",
          "name": "from",
          "type": "address"
        },
        {
          "internalType": "address",
          "name": "to",
          "type": "address"
        },
        {
          "internalType": "uint256[]",
          "name": "ids",
          "type": "uint256[]"
        },
        {
          "internalType": "uint256[]",
          "name": "amounts",
          "type": "uint256[]"
        },
        {
          "internalType": "bytes",
          "name": "data",
          "type": "bytes"
        }
      ],
      "name": "safeBatchTransferFrom",
      "outputs": [],
      "stateMutability": "nonpayable",
      "type": "function"
    },
    {
      "inputs": [
        {
          "internalType": "address",
          "name": "from",
          "type": "address"
        },
        {
          "internalType": "address",
          "name": "to",
          "type": "address"
        },
        {
          "internalType": "uint256",
          "name": "id",
          "type": "uint256"
        },
        {
          "internalType": "uint256",
          "name": "amount",
          "type": "uint256"
        },
        {
          "internalType": "bytes",
          "name": "data",
          "type": "bytes"
        }
      ],
      "name": "safeTransferFrom",
      "outputs": [],
      "stateMutability": "nonpayable",
      "type": "function"
    },
    {
      "inputs": [
        {
          "internalType": "address",
          "name": "operator",
          "type": "address"
        },
        {
          "internalType": "bool",
          "name": "approved",
          "type": "bool"
        }
      ],
      "name": "setApprovalForAll",
      "outputs": [],
      "stateMutability": "nonpayable",
      "type": "function"
    },
    {
      "inputs": [
        {
          "internalType": "bytes4",
          "name": "interfaceId",
          "type": "bytes4"
        }
      ],
      "name": "supportsInterface",
      "outputs": [
        {
          "internalType": "bool",
          "name": "",
          "type": "bool"
        }
      ],
      "stateMutability": "view",
      "type": "function"
    },
    {
      "inputs": [
        {
          "internalType": "address",
          "name": "newOwner",
          "type": "address"
        }
      ],
      "name": "transferOwnership",
      "outputs": [],
      "stateMutability": "nonpayable",
      "type": "function"
    },
    {
      "inputs": [
        {
          "internalType": "uint256",
          "name": "",
          "type": "uint256"
        }
      ],
      "name": "uri",
      "outputs": [
        {
          "internalType": "string",
          "name": "",
          "type": "string"
        }
      ],
      "stateMutability": "view",
      "type": "function"
    },
    {
      "inputs": [
        {
          "internalType": "string",
          "name": "baseURI",
          "type": "string"
        }
      ],
      "name": "setBaseURI",
      "outputs": [],
      "stateMutability": "nonpayable",
      "type": "function"
    },
    {
      "inputs": [
        {
          "internalType": "address",
          "name": "_artist",
          "type": "address"
        }
      ],
      "name": "createNFT",
      "outputs": [
        {
          "internalType": "uint256",
          "name": "tokenId",
          "type": "uint256"
        }
      ],
      "stateMutability": "nonpayable",
      "type": "function"
    },
    {
      "inputs": [
        {
          "internalType": "uint256",
          "name": "_totalShares",
          "type": "uint256"
        }
      ],
      "name": "fractionalizeNFT",
      "outputs": [],
      "stateMutability": "nonpayable",
      "type": "function"
    },
    {
      "inputs": [
        {
          "internalType": "address",
          "name": "_to",
          "type": "address"
        },
        {
          "internalType": "uint256",
          "name": "_amount",
          "type": "uint256"
        }
      ],
      "name": "mint",
      "outputs": [],
      "stateMutability": "nonpayable",
      "type": "function"
    },
    {
      "inputs": [
        {
          "internalType": "address",
          "name": "_attendee",
          "type": "address"
        }
      ],
      "name": "setAttendee",
      "outputs": [],
      "stateMutability": "nonpayable",
      "type": "function"
    },
    {
      "inputs": [
        {
          "internalType": "address[]",
          "name": "_participants",
          "type": "address[]"
        }
      ],
      "name": "airdropNFTShares",
      "outputs": [],
      "stateMutability": "nonpayable",
      "type": "function"
    },
    {
      "inputs": [
        {
          "internalType": "address",
          "name": "account",
          "type": "address"
        }
      ],
      "name": "getOwnedNFTs",
      "outputs": [
        {
          "internalType": "uint256[]",
          "name": "",
          "type": "uint256[]"
        }
      ],
      "stateMutability": "view",
      "type": "function"
    },
    {
      "inputs": [
        {
          "internalType": "uint256",
          "name": "tokenId",
          "type": "uint256"
        }
      ],
      "name": "tokenURI",
      "outputs": [
        {
          "internalType": "string",
          "name": "",
          "type": "string"
        }
      ],
      "stateMutability": "view",
      "type": "function"
    }
  ],
  "bytecode": "0x608060405234801562000010575f80fd5b5060405180602001604052805f8152506200003181620000e660201b60201c565b505f62000043620000fb60201b60201c565b90508060035f6101000a81548173ffffffffffffffffffffffffffffffffffffffff021916908373ffffffffffffffffffffffffffffffffffffffff1602179055508073ffffffffffffffffffffffffffffffffffffffff165f73ffffffffffffffffffffffffffffffffffffffff167f8be0079c531659141344cd1fd0a4f28419497f9722a3daafe3b4186f6b6457e060405160405180910390a3506200044a565b8060029081620000f7919062000366565b5050565b5f33905090565b5f81519050919050565b7f4e487b71000000000000000000000000000000000000000000000000000000005f52604160045260245ffd5b7f4e487b71000000000000000000000000000000000000000000000000000000005f52602260045260245ffd5b5f60028204905060018216806200017e57607f821691505b60208210810362000194576200019362000139565b5b50919050565b5f819050815f5260205f209050919050565b5f6020601f8301049050919050565b5f82821b905092915050565b5f60088302620001f87fffffffffffffffffffffffffffffffffffffffffffffffffffffffffffffffff82620001bb565b620002048683620001bb565b95508019841693508086168417925050509392505050565b5f819050919050565b5f819050919050565b5f6200024e6200024862000242846200021c565b62000225565b6200021c565b9050919050565b5f819050919050565b62000269836200022e565b62000281620002788262000255565b848454620001c7565b825550505050565b5f90565b6200029762000289565b620002a48184846200025e565b505050565b5b81811015620002cb57620002bf5f826200028d565b600181019050620002aa565b5050565b601f8211156200031a57620002e4816200019a565b620002ef84620001ac565b81016020851015620002ff578190505b620003176200030e85620001ac565b830182620002a9565b50505b505050565b5f82821c905092915050565b5f6200033c5f19846008026200031f565b1980831691505092915050565b5f6200035683836200032b565b9150826002028217905092915050565b620003718262000102565b67ffffffffffffffff8111156200038d576200038c6200010c565b5b62000399825462000166565b620003a6828285620002cf565b5f60209050601f831160018114620003dc575f8415620003c7578287015190505b620003d3858262000349565b86555062000442565b601f198416620003ec866200019a565b5f5b828110156200041557848901518255600182019150602085019450602081019050620003ee565b8683101562000435578489015162000431601f8916826200032b565b8355505b6001600288020188555050505b505050505050565b6142ed80620004585f395ff3fe608060405234801561000f575f80fd5b506004361061014a575f3560e01c80634e1273f4116100c1578063c38797231161007a578063c3879723146103d0578063c87b56dd146103ec578063e985e9c51461041c578063ea413dac1461044c578063f242432a1461046a578063f2fde38b146104865761014a565b80634e1273f41461032457806355f804b314610354578063715018a6146103705780638da5cb5b1461037a5780639a312b7a14610398578063a22cb465146103b45761014a565b806318148f1b1161011357806318148f1b1461023e5780632607733d1461026e578063265aa6211461028a5780632eb2c2d6146102bc578063396dc854146102d857806340c10f19146103085761014a565b8062fdd58e1461014e57806301ffc9a71461017e5780630e89341c146101ae57806317c6ab40146101de57806317e5883c1461020e575b5f80fd5b61016860048036038101906101639190612644565b6104a2565b6040516101759190612691565b60405180910390f35b610198600480360381019061019391906126ff565b610565565b6040516101a59190612744565b60405180910390f35b6101c860048036038101906101c3919061275d565b610646565b6040516101d59190612812565b60405180910390f35b6101f860048036038101906101f39190612832565b6106d8565b6040516102059190612691565b60405180910390f35b61022860048036038101906102239190612870565b6106f8565b6040516102359190612691565b60405180910390f35b61025860048036038101906102539190612870565b6108a2565b6040516102659190612952565b60405180910390f35b6102886004803603810190610283919061275d565b6109bf565b005b6102a4600480360381019061029f919061275d565b610b30565b6040516102b393929190612981565b60405180910390f35b6102d660048036038101906102d19190612ba6565b610b75565b005b6102f260048036038101906102ed9190612870565b610f05565b6040516102ff9190612744565b60405180910390f35b610322600480360381019061031d9190612644565b610f22565b005b61033e60048036038101906103399190612d31565b611189565b60405161034b9190612952565b60405180910390f35b61036e60048036038101906103699190612e45565b61129a565b005b610378611322565b005b61038261145b565b60405161038f9190612e8c565b60405180910390f35b6103b260048036038101906103ad9190612ea5565b611483565b005b6103ce60048036038101906103c99190612f16565b611706565b005b6103ea60048036038101906103e59190612870565b611881565b005b6104066004803603810190610401919061275d565b611955565b6040516104139190612812565b60405180910390f35b61043660048036038101906104319190612f54565b611a18565b6040516104439190612744565b60405180910390f35b610454611aa6565b6040516104619190612691565b60405180910390f35b610484600480360381019061047f9190612f92565b611aac565b005b6104a0600480360381019061049b9190612870565b611db3565b005b5f8073ffffffffffffffffffffffffffffffffffffffff168373ffffffffffffffffffffffffffffffffffffffff1603610511576040517f08c379a000000000000000000000000000000000000000000000000000000000815260040161050890613095565b60405180910390fd5b5f808381526020019081526020015f205f8473ffffffffffffffffffffffffffffffffffffffff1673ffffffffffffffffffffffffffffffffffffffff1681526020019081526020015f2054905092915050565b5f7fd9b67a26000000000000000000000000000000000000000000000000000000007bffffffffffffffffffffffffffffffffffffffffffffffffffffffff1916827bffffffffffffffffffffffffffffffffffffffffffffffffffffffff1916148061062f57507f0e89341c000000000000000000000000000000000000000000000000000000007bffffffffffffffffffffffffffffffffffffffffffffffffffffffff1916827bffffffffffffffffffffffffffffffffffffffffffffffffffffffff1916145b8061063f575061063e82611f5b565b5b9050919050565b606060028054610655906130e0565b80601f0160208091040260200160405190810160405280929190818152602001828054610681906130e0565b80156106cc5780601f106106a3576101008083540402835291602001916106cc565b820191905f5260205f20905b8154815290600101906020018083116106af57829003601f168201915b50505050509050919050565b6006602052815f5260405f20602052805f5260405f205f91509150505481565b5f610701611fc4565b73ffffffffffffffffffffffffffffffffffffffff1661071f61145b565b73ffffffffffffffffffffffffffffffffffffffff1614610775576040517f08c379a000000000000000000000000000000000000000000000000000000000815260040161076c9061315a565b60405180910390fd5b5f600454146107b9576040517f08c379a00000000000000000000000000000000000000000000000000000000081526004016107b0906131c2565b60405180910390fd5b5f905060405180606001604052805f81526020015f81526020018373ffffffffffffffffffffffffffffffffffffffff1681525060055f8381526020019081526020015f205f820151815f0155602082015181600101556040820151816002015f6101000a81548173ffffffffffffffffffffffffffffffffffffffff021916908373ffffffffffffffffffffffffffffffffffffffff1602179055509050508173ffffffffffffffffffffffffffffffffffffffff16817fbe4d5028ecb11dfb1cbc0c1dd7eed270db43c11a50da18fceb823c9af57a2a7860405160405180910390a3919050565b60605f60065f8081526020019081526020015f205f8473ffffffffffffffffffffffffffffffffffffffff1673ffffffffffffffffffffffffffffffffffffffff1681526020019081526020015f2054111561096e575f600167ffffffffffffffff811115610914576109136129ba565b5b6040519080825280602002602001820160405280156109425781602001602082028036833780820191505090505b5090505f815f81518110610959576109586131e0565b5b602002602001018181525050809150506109ba565b5f67ffffffffffffffff811115610988576109876129ba565b5b6040519080825280602002602001820160405280156109b65781602001602082028036833780820191505090505b5090505b919050565b6109c7611fc4565b73ffffffffffffffffffffffffffffffffffffffff166109e561145b565b73ffffffffffffffffffffffffffffffffffffffff1614610a3b576040517f08c379a0000000000000000000000000000000000000000000000000000000008152600401610a329061315a565b60405180910390fd5b5f60045414610a7f576040517f08c379a0000000000000000000000000000000000000000000000000000000008152600401610a769061327d565b60405180910390fd5b61012c811115610ac4576040517f08c379a0000000000000000000000000000000000000000000000000000000008152600401610abb9061330b565b60405180910390fd5b8060055f8081526020019081526020015f205f01819055508060055f8081526020019081526020015f20600101819055505f7ff6224f6bc2c8c598a28ae48924ce7d0764c0708be49e087392896ded012db0bf82604051610b259190612691565b60405180910390a250565b6005602052805f5260405f205f91509050805f015490806001015490806002015f9054906101000a900473ffffffffffffffffffffffffffffffffffffffff16905083565b8151835114610bb9576040517f08c379a0000000000000000000000000000000000000000000000000000000008152600401610bb090613399565b60405180910390fd5b5f73ffffffffffffffffffffffffffffffffffffffff168473ffffffffffffffffffffffffffffffffffffffff1603610c27576040517f08c379a0000000000000000000000000000000000000000000000000000000008152600401610c1e90613427565b60405180910390fd5b610c2f611fc4565b73ffffffffffffffffffffffffffffffffffffffff168573ffffffffffffffffffffffffffffffffffffffff161480610c755750610c7485610c6f611fc4565b611a18565b5b610cb4576040517f08c379a0000000000000000000000000000000000000000000000000000000008152600401610cab906134b5565b60405180910390fd5b5f610cbd611fc4565b9050610ccd818787878787611fcb565b5f5b8451811015610e70575f858281518110610cec57610ceb6131e0565b5b602002602001015190505f858381518110610d0a57610d096131e0565b5b602002602001015190505f805f8481526020019081526020015f205f8b73ffffffffffffffffffffffffffffffffffffffff1673ffffffffffffffffffffffffffffffffffffffff1681526020019081526020015f2054905081811015610da6576040517f08c379a0000000000000000000000000000000000000000000000000000000008152600401610d9d90613543565b60405180910390fd5b8181610db2919061358e565b5f808581526020019081526020015f205f8c73ffffffffffffffffffffffffffffffffffffffff1673ffffffffffffffffffffffffffffffffffffffff1681526020019081526020015f2081905550815f808581526020019081526020015f205f8b73ffffffffffffffffffffffffffffffffffffffff1673ffffffffffffffffffffffffffffffffffffffff1681526020019081526020015f205f828254610e5b91906135c1565b92505081905550505050806001019050610ccf565b508473ffffffffffffffffffffffffffffffffffffffff168673ffffffffffffffffffffffffffffffffffffffff168273ffffffffffffffffffffffffffffffffffffffff167f4a39dc06d4c0dbc64b70af90fd698a233a518aa5d07e595d983b8c0526c8f7fb8787604051610ee79291906135f4565b60405180910390a4610efd818787878787611fd3565b505050505050565b6007602052805f5260405f205f915054906101000a900460ff1681565b60075f3373ffffffffffffffffffffffffffffffffffffffff1673ffffffffffffffffffffffffffffffffffffffff1681526020019081526020015f205f9054906101000a900460ff16610fab576040517f08c379a0000000000000000000000000000000000000000000000000000000008152600401610fa290613699565b60405180910390fd5b5f60065f8081526020019081526020015f205f8473ffffffffffffffffffffffffffffffffffffffff1673ffffffffffffffffffffffffffffffffffffffff1681526020019081526020015f205414611039576040517f08c379a000000000000000000000000000000000000000000000000000000000815260040161103090613727565b60405180910390fd5b60055f8081526020019081526020015f2060010154811115611090576040517f08c379a00000000000000000000000000000000000000000000000000000000081526004016110879061378f565b60405180910390fd5b6110aa825f8360405180602001604052805f8152506121a9565b8060065f8081526020019081526020015f205f8473ffffffffffffffffffffffffffffffffffffffff1673ffffffffffffffffffffffffffffffffffffffff1681526020019081526020015f205f82825461110591906135c1565b925050819055508060055f8081526020019081526020015f206001015f82825461112f919061358e565b925050819055508173ffffffffffffffffffffffffffffffffffffffff165f7f5c8e94c72da12a6d6a1213edafd788896df5fd2d6527a9adeb11f8e5d0be1c4c8360405161117d9190612691565b60405180910390a35050565b606081518351146111cf576040517f08c379a00000000000000000000000000000000000000000000000000000000081526004016111c69061381d565b60405180910390fd5b5f835167ffffffffffffffff8111156111eb576111ea6129ba565b5b6040519080825280602002602001820160405280156112195781602001602082028036833780820191505090505b5090505f5b845181101561128f5761126585828151811061123d5761123c6131e0565b5b6020026020010151858381518110611258576112576131e0565b5b60200260200101516104a2565b828281518110611278576112776131e0565b5b60200260200101818152505080600101905061121e565b508091505092915050565b6112a2611fc4565b73ffffffffffffffffffffffffffffffffffffffff166112c061145b565b73ffffffffffffffffffffffffffffffffffffffff1614611316576040517f08c379a000000000000000000000000000000000000000000000000000000000815260040161130d9061315a565b60405180910390fd5b61131f81612334565b50565b61132a611fc4565b73ffffffffffffffffffffffffffffffffffffffff1661134861145b565b73ffffffffffffffffffffffffffffffffffffffff161461139e576040517f08c379a00000000000000000000000000000000000000000000000000000000081526004016113959061315a565b60405180910390fd5b5f73ffffffffffffffffffffffffffffffffffffffff1660035f9054906101000a900473ffffffffffffffffffffffffffffffffffffffff1673ffffffffffffffffffffffffffffffffffffffff167f8be0079c531659141344cd1fd0a4f28419497f9722a3daafe3b4186f6b6457e060405160405180910390a35f60035f6101000a81548173ffffffffffffffffffffffffffffffffffffffff021916908373ffffffffffffffffffffffffffffffffffffffff160217905550565b5f60035f9054906101000a900473ffffffffffffffffffffffffffffffffffffffff16905090565b61148b611fc4565b73ffffffffffffffffffffffffffffffffffffffff166114a961145b565b73ffffffffffffffffffffffffffffffffffffffff16146114ff576040517f08c379a00000000000000000000000000000000000000000000000000000000081526004016114f69061315a565b60405180910390fd5b5f815111611542576040517f08c379a000000000000000000000000000000000000000000000000000000000815260040161153990613885565b60405180910390fd5b5f8151905060055f8081526020019081526020015f206001015481111561159e576040517f08c379a00000000000000000000000000000000000000000000000000000000081526004016115959061378f565b60405180910390fd5b5f5b825181101561167e575f8382815181106115bd576115bc6131e0565b5b602002602001015190506115e2815f600160405180602001604052805f8152506121a9565b600160065f8081526020019081526020015f205f8373ffffffffffffffffffffffffffffffffffffffff1673ffffffffffffffffffffffffffffffffffffffff1681526020019081526020015f205f82825461163e91906135c1565b92505081905550600160055f8081526020019081526020015f206001015f828254611669919061358e565b925050819055505080806001019150506115a0565b505f7f033d586f2c89604f48d367286e19165149c515d15959974e7e63db906a5f463383845167ffffffffffffffff8111156116bd576116bc6129ba565b5b6040519080825280602002602001820160405280156116eb5781602001602082028036833780820191505090505b506040516116fa92919061395a565b60405180910390a25050565b8173ffffffffffffffffffffffffffffffffffffffff16611725611fc4565b73ffffffffffffffffffffffffffffffffffffffff160361177b576040517f08c379a0000000000000000000000000000000000000000000000000000000008152600401611772906139ff565b60405180910390fd5b8060015f611787611fc4565b73ffffffffffffffffffffffffffffffffffffffff1673ffffffffffffffffffffffffffffffffffffffff1681526020019081526020015f205f8473ffffffffffffffffffffffffffffffffffffffff1673ffffffffffffffffffffffffffffffffffffffff1681526020019081526020015f205f6101000a81548160ff0219169083151502179055508173ffffffffffffffffffffffffffffffffffffffff16611830611fc4565b73ffffffffffffffffffffffffffffffffffffffff167f17307eab39ab6107e8899845ad3d59bd9653f200f220920489ca2b5937696c31836040516118759190612744565b60405180910390a35050565b611889611fc4565b73ffffffffffffffffffffffffffffffffffffffff166118a761145b565b73ffffffffffffffffffffffffffffffffffffffff16146118fd576040517f08c379a00000000000000000000000000000000000000000000000000000000081526004016118f49061315a565b60405180910390fd5b600160075f8373ffffffffffffffffffffffffffffffffffffffff1673ffffffffffffffffffffffffffffffffffffffff1681526020019081526020015f205f6101000a81548160ff02191690831515021790555050565b60605f8214611999576040517f08c379a000000000000000000000000000000000000000000000000000000000815260040161199090613a67565b60405180910390fd5b5f600454116119dd576040517f08c379a00000000000000000000000000000000000000000000000000000000081526004016119d490613acf565b60405180910390fd5b6040517f08c379a0000000000000000000000000000000000000000000000000000000008152600401611a0f90613b37565b60405180910390fd5b5f60015f8473ffffffffffffffffffffffffffffffffffffffff1673ffffffffffffffffffffffffffffffffffffffff1681526020019081526020015f205f8373ffffffffffffffffffffffffffffffffffffffff1673ffffffffffffffffffffffffffffffffffffffff1681526020019081526020015f205f9054906101000a900460ff16905092915050565b61012c81565b5f73ffffffffffffffffffffffffffffffffffffffff168473ffffffffffffffffffffffffffffffffffffffff1603611b1a576040517f08c379a0000000000000000000000000000000000000000000000000000000008152600401611b1190613427565b60405180910390fd5b611b22611fc4565b73ffffffffffffffffffffffffffffffffffffffff168573ffffffffffffffffffffffffffffffffffffffff161480611b685750611b6785611b62611fc4565b611a18565b5b611ba7576040517f08c379a0000000000000000000000000000000000000000000000000000000008152600401611b9e90613bc5565b60405180910390fd5b5f611bb0611fc4565b9050611bd0818787611bc188612347565b611bca88612347565b87611fcb565b5f805f8681526020019081526020015f205f8873ffffffffffffffffffffffffffffffffffffffff1673ffffffffffffffffffffffffffffffffffffffff1681526020019081526020015f2054905083811015611c62576040517f08c379a0000000000000000000000000000000000000000000000000000000008152600401611c5990613543565b60405180910390fd5b8381611c6e919061358e565b5f808781526020019081526020015f205f8973ffffffffffffffffffffffffffffffffffffffff1673ffffffffffffffffffffffffffffffffffffffff1681526020019081526020015f2081905550835f808781526020019081526020015f205f8873ffffffffffffffffffffffffffffffffffffffff1673ffffffffffffffffffffffffffffffffffffffff1681526020019081526020015f205f828254611d1791906135c1565b925050819055508573ffffffffffffffffffffffffffffffffffffffff168773ffffffffffffffffffffffffffffffffffffffff168373ffffffffffffffffffffffffffffffffffffffff167fc3d58168c5ae7397731d063d5bbf3d657854427343f4c083240f7aacaa2d0f628888604051611d94929190613be3565b60405180910390a4611daa8288888888886123bf565b50505050505050565b611dbb611fc4565b73ffffffffffffffffffffffffffffffffffffffff16611dd961145b565b73ffffffffffffffffffffffffffffffffffffffff1614611e2f576040517f08c379a0000000000000000000000000000000000000000000000000000000008152600401611e269061315a565b60405180910390fd5b5f73ffffffffffffffffffffffffffffffffffffffff168173ffffffffffffffffffffffffffffffffffffffff1603611e9d576040517f08c379a0000000000000000000000000000000000000000000000000000000008152600401611e9490613c7a565b60405180910390fd5b8073ffffffffffffffffffffffffffffffffffffffff1660035f9054906101000a900473ffffffffffffffffffffffffffffffffffffffff1673ffffffffffffffffffffffffffffffffffffffff167f8be0079c531659141344cd1fd0a4f28419497f9722a3daafe3b4186f6b6457e060405160405180910390a38060035f6101000a81548173ffffffffffffffffffffffffffffffffffffffff021916908373ffffffffffffffffffffffffffffffffffffffff16021790555050565b5f7f01ffc9a7000000000000000000000000000000000000000000000000000000007bffffffffffffffffffffffffffffffffffffffffffffffffffffffff1916827bffffffffffffffffffffffffffffffffffffffffffffffffffffffff1916149050919050565b5f33905090565b505050505050565b611ff28473ffffffffffffffffffffffffffffffffffffffff16612595565b156121a1578373ffffffffffffffffffffffffffffffffffffffff1663bc197c8187878686866040518663ffffffff1660e01b8152600401612038959493929190613cea565b6020604051808303815f875af192505050801561207357506040513d601f19601f820116820180604052508101906120709190613d64565b60015b6121185761207f613d9b565b806308c379a0036120db5750612093613dba565b8061209e57506120dd565b806040517f08c379a00000000000000000000000000000000000000000000000000000000081526004016120d29190612812565b60405180910390fd5b505b6040517f08c379a000000000000000000000000000000000000000000000000000000000815260040161210f90613eb9565b60405180910390fd5b63bc197c8160e01b7bffffffffffffffffffffffffffffffffffffffffffffffffffffffff1916817bffffffffffffffffffffffffffffffffffffffffffffffffffffffff19161461219f576040517f08c379a000000000000000000000000000000000000000000000000000000000815260040161219690613f47565b60405180910390fd5b505b505050505050565b5f73ffffffffffffffffffffffffffffffffffffffff168473ffffffffffffffffffffffffffffffffffffffff1603612217576040517f08c379a000000000000000000000000000000000000000000000000000000000815260040161220e90613fd5565b60405180910390fd5b5f612220611fc4565b9050612240815f8761223188612347565b61223a88612347565b87611fcb565b825f808681526020019081526020015f205f8773ffffffffffffffffffffffffffffffffffffffff1673ffffffffffffffffffffffffffffffffffffffff1681526020019081526020015f205f82825461229a91906135c1565b925050819055508473ffffffffffffffffffffffffffffffffffffffff165f73ffffffffffffffffffffffffffffffffffffffff168273ffffffffffffffffffffffffffffffffffffffff167fc3d58168c5ae7397731d063d5bbf3d657854427343f4c083240f7aacaa2d0f628787604051612317929190613be3565b60405180910390a461232d815f878787876123bf565b5050505050565b80600290816123439190614190565b5050565b60605f600167ffffffffffffffff811115612365576123646129ba565b5b6040519080825280602002602001820160405280156123935781602001602082028036833780820191505090505b50905082815f815181106123aa576123a96131e0565b5b60200260200101818152505080915050919050565b6123de8473ffffffffffffffffffffffffffffffffffffffff16612595565b1561258d578373ffffffffffffffffffffffffffffffffffffffff1663f23a6e6187878686866040518663ffffffff1660e01b815260040161242495949392919061425f565b6020604051808303815f875af192505050801561245f57506040513d601f19601f8201168201806040525081019061245c9190613d64565b60015b6125045761246b613d9b565b806308c379a0036124c7575061247f613dba565b8061248a57506124c9565b806040517f08c379a00000000000000000000000000000000000000000000000000000000081526004016124be9190612812565b60405180910390fd5b505b6040517f08c379a00000000000000000000000000000000000000000000000000000000081526004016124fb90613eb9565b60405180910390fd5b63f23a6e6160e01b7bffffffffffffffffffffffffffffffffffffffffffffffffffffffff1916817bffffffffffffffffffffffffffffffffffffffffffffffffffffffff19161461258b576040517f08c379a000000000000000000000000000000000000000000000000000000000815260040161258290613f47565b60405180910390fd5b505b505050505050565b5f80823b90505f8111915050919050565b5f604051905090565b5f80fd5b5f80fd5b5f73ffffffffffffffffffffffffffffffffffffffff82169050919050565b5f6125e0826125b7565b9050919050565b6125f0816125d6565b81146125fa575f80fd5b50565b5f8135905061260b816125e7565b92915050565b5f819050919050565b61262381612611565b811461262d575f80fd5b50565b5f8135905061263e8161261a565b92915050565b5f806040838503121561265a576126596125af565b5b5f612667858286016125fd565b925050602061267885828601612630565b9150509250929050565b61268b81612611565b82525050565b5f6020820190506126a45f830184612682565b92915050565b5f7fffffffff0000000000000000000000000000000000000000000000000000000082169050919050565b6126de816126aa565b81146126e8575f80fd5b50565b5f813590506126f9816126d5565b92915050565b5f60208284031215612714576127136125af565b5b5f612721848285016126eb565b91505092915050565b5f8115159050919050565b61273e8161272a565b82525050565b5f6020820190506127575f830184612735565b92915050565b5f60208284031215612772576127716125af565b5b5f61277f84828501612630565b91505092915050565b5f81519050919050565b5f82825260208201905092915050565b5f5b838110156127bf5780820151818401526020810190506127a4565b5f8484015250505050565b5f601f19601f8301169050919050565b5f6127e482612788565b6127ee8185612792565b93506127fe8185602086016127a2565b612807816127ca565b840191505092915050565b5f6020820190508181035f83015261282a81846127da565b905092915050565b5f8060408385031215612848576128476125af565b5b5f61285585828601612630565b9250506020612866858286016125fd565b9150509250929050565b5f60208284031215612885576128846125af565b5b5f612892848285016125fd565b91505092915050565b5f81519050919050565b5f82825260208201905092915050565b5f819050602082019050919050565b6128cd81612611565b82525050565b5f6128de83836128c4565b60208301905092915050565b5f602082019050919050565b5f6129008261289b565b61290a81856128a5565b9350612915836128b5565b805f5b8381101561294557815161292c88826128d3565b9750612937836128ea565b925050600181019050612918565b5085935050505092915050565b5f6020820190508181035f83015261296a81846128f6565b905092915050565b61297b816125d6565b82525050565b5f6060820190506129945f830186612682565b6129a16020830185612682565b6129ae6040830184612972565b949350505050565b5f80fd5b7f4e487b71000000000000000000000000000000000000000000000000000000005f52604160045260245ffd5b6129f0826127ca565b810181811067ffffffffffffffff82111715612a0f57612a0e6129ba565b5b80604052505050565b5f612a216125a6565b9050612a2d82826129e7565b919050565b5f67ffffffffffffffff821115612a4c57612a4b6129ba565b5b602082029050602081019050919050565b5f80fd5b5f612a73612a6e84612a32565b612a18565b90508083825260208201905060208402830185811115612a9657612a95612a5d565b5b835b81811015612abf5780612aab8882612630565b845260208401935050602081019050612a98565b5050509392505050565b5f82601f830112612add57612adc6129b6565b5b8135612aed848260208601612a61565b91505092915050565b5f80fd5b5f67ffffffffffffffff821115612b1457612b136129ba565b5b612b1d826127ca565b9050602081019050919050565b828183375f83830152505050565b5f612b4a612b4584612afa565b612a18565b905082815260208101848484011115612b6657612b65612af6565b5b612b71848285612b2a565b509392505050565b5f82601f830112612b8d57612b8c6129b6565b5b8135612b9d848260208601612b38565b91505092915050565b5f805f805f60a08688031215612bbf57612bbe6125af565b5b5f612bcc888289016125fd565b9550506020612bdd888289016125fd565b945050604086013567ffffffffffffffff811115612bfe57612bfd6125b3565b5b612c0a88828901612ac9565b935050606086013567ffffffffffffffff811115612c2b57612c2a6125b3565b5b612c3788828901612ac9565b925050608086013567ffffffffffffffff811115612c5857612c576125b3565b5b612c6488828901612b79565b9150509295509295909350565b5f67ffffffffffffffff821115612c8b57612c8a6129ba565b5b602082029050602081019050919050565b5f612cae612ca984612c71565b612a18565b90508083825260208201905060208402830185811115612cd157612cd0612a5d565b5b835b81811015612cfa5780612ce688826125fd565b845260208401935050602081019050612cd3565b5050509392505050565b5f82601f830112612d1857612d176129b6565b5b8135612d28848260208601612c9c565b91505092915050565b5f8060408385031215612d4757612d466125af565b5b5f83013567ffffffffffffffff811115612d6457612d636125b3565b5b612d7085828601612d04565b925050602083013567ffffffffffffffff811115612d9157612d906125b3565b5b612d9d85828601612ac9565b9150509250929050565b5f67ffffffffffffffff821115612dc157612dc06129ba565b5b612dca826127ca565b9050602081019050919050565b5f612de9612de484612da7565b612a18565b905082815260208101848484011115612e0557612e04612af6565b5b612e10848285612b2a565b509392505050565b5f82601f830112612e2c57612e2b6129b6565b5b8135612e3c848260208601612dd7565b91505092915050565b5f60208284031215612e5a57612e596125af565b5b5f82013567ffffffffffffffff811115612e7757612e766125b3565b5b612e8384828501612e18565b91505092915050565b5f602082019050612e9f5f830184612972565b92915050565b5f60208284031215612eba57612eb96125af565b5b5f82013567ffffffffffffffff811115612ed757612ed66125b3565b5b612ee384828501612d04565b91505092915050565b612ef58161272a565b8114612eff575f80fd5b50565b5f81359050612f1081612eec565b92915050565b5f8060408385031215612f2c57612f2b6125af565b5b5f612f39858286016125fd565b9250506020612f4a85828601612f02565b9150509250929050565b5f8060408385031215612f6a57612f696125af565b5b5f612f77858286016125fd565b9250506020612f88858286016125fd565b9150509250929050565b5f805f805f60a08688031215612fab57612faa6125af565b5b5f612fb8888289016125fd565b9550506020612fc9888289016125fd565b9450506040612fda88828901612630565b9350506060612feb88828901612630565b925050608086013567ffffffffffffffff81111561300c5761300b6125b3565b5b61301888828901612b79565b9150509295509295909350565b7f455243313135353a2062616c616e636520717565727920666f7220746865207a5f8201527f65726f2061646472657373000000000000000000000000000000000000000000602082015250565b5f61307f602b83612792565b915061308a82613025565b604082019050919050565b5f6020820190508181035f8301526130ac81613073565b9050919050565b7f4e487b71000000000000000000000000000000000000000000000000000000005f52602260045260245ffd5b5f60028204905060018216806130f757607f821691505b60208210810361310a576131096130b3565b5b50919050565b7f4f776e61626c653a2063616c6c6572206973206e6f7420746865206f776e65725f82015250565b5f613144602083612792565b915061314f82613110565b602082019050919050565b5f6020820190508181035f83015261317181613138565b9050919050565b7f4e46542068617320616c7265616479206265656e2063726561746564000000005f82015250565b5f6131ac601c83612792565b91506131b782613178565b602082019050919050565b5f6020820190508181035f8301526131d9816131a0565b9050919050565b7f4e487b71000000000000000000000000000000000000000000000000000000005f52603260045260245ffd5b7f4e46542068617320616c7265616479206265656e206672616374696f6e616c695f8201527f7a65640000000000000000000000000000000000000000000000000000000000602082015250565b5f613267602383612792565b91506132728261320d565b604082019050919050565b5f6020820190508181035f8301526132948161325b565b9050919050565b7f45786365656473206d6178696d756d206672616374696f6e616c2073686172655f8201527f7300000000000000000000000000000000000000000000000000000000000000602082015250565b5f6132f5602183612792565b91506133008261329b565b604082019050919050565b5f6020820190508181035f830152613322816132e9565b9050919050565b7f455243313135353a2069647320616e6420616d6f756e7473206c656e677468205f8201527f6d69736d61746368000000000000000000000000000000000000000000000000602082015250565b5f613383602883612792565b915061338e82613329565b604082019050919050565b5f6020820190508181035f8301526133b081613377565b9050919050565b7f455243313135353a207472616e7366657220746f20746865207a65726f2061645f8201527f6472657373000000000000000000000000000000000000000000000000000000602082015250565b5f613411602583612792565b915061341c826133b7565b604082019050919050565b5f6020820190508181035f83015261343e81613405565b9050919050565b7f455243313135353a207472616e736665722063616c6c6572206973206e6f74205f8201527f6f776e6572206e6f7220617070726f7665640000000000000000000000000000602082015250565b5f61349f603283612792565b91506134aa82613445565b604082019050919050565b5f6020820190508181035f8301526134cc81613493565b9050919050565b7f455243313135353a20696e73756666696369656e742062616c616e636520666f5f8201527f72207472616e7366657200000000000000000000000000000000000000000000602082015250565b5f61352d602a83612792565b9150613538826134d3565b604082019050919050565b5f6020820190508181035f83015261355a81613521565b9050919050565b7f4e487b71000000000000000000000000000000000000000000000000000000005f52601160045260245ffd5b5f61359882612611565b91506135a383612611565b92508282039050818111156135bb576135ba613561565b5b92915050565b5f6135cb82612611565b91506135d683612611565b92508282019050808211156135ee576135ed613561565b5b92915050565b5f6040820190508181035f83015261360c81856128f6565b9050818103602083015261362081846128f6565b90509392505050565b7f4f6e6c7920617474656e64656573206f66207468652073686f772063616e206d5f8201527f696e7420746f6b656e7300000000000000000000000000000000000000000000602082015250565b5f613683602a83612792565b915061368e82613629565b604082019050919050565b5f6020820190508181035f8301526136b081613677565b9050919050565b7f596f7520616c7265616479206f776e2061206672616374696f6e206f662074685f8201527f697320746f6b656e000000000000000000000000000000000000000000000000602082015250565b5f613711602883612792565b915061371c826136b7565b604082019050919050565b5f6020820190508181035f83015261373e81613705565b9050919050565b7f457863656564732072656d61696e696e672073686172657300000000000000005f82015250565b5f613779601883612792565b915061378482613745565b602082019050919050565b5f6020820190508181035f8301526137a68161376d565b9050919050565b7f455243313135353a206163636f756e747320616e6420696473206c656e6774685f8201527f206d69736d617463680000000000000000000000000000000000000000000000602082015250565b5f613807602983612792565b9150613812826137ad565b604082019050919050565b5f6020820190508181035f830152613834816137fb565b9050919050565b7f4e6f207061727469636970616e747320737065636966696564000000000000005f82015250565b5f61386f601983612792565b915061387a8261383b565b602082019050919050565b5f6020820190508181035f83015261389c81613863565b9050919050565b5f81519050919050565b5f82825260208201905092915050565b5f819050602082019050919050565b6138d5816125d6565b82525050565b5f6138e683836138cc565b60208301905092915050565b5f602082019050919050565b5f613908826138a3565b61391281856138ad565b935061391d836138bd565b805f5b8381101561394d57815161393488826138db565b975061393f836138f2565b925050600181019050613920565b5085935050505092915050565b5f6040820190508181035f83015261397281856138fe565b9050818103602083015261398681846128f6565b90509392505050565b7f455243313135353a2073657474696e6720617070726f76616c207374617475735f8201527f20666f722073656c660000000000000000000000000000000000000000000000602082015250565b5f6139e9602983612792565b91506139f48261398f565b604082019050919050565b5f6020820190508181035f830152613a16816139dd565b9050919050565b7f496e76616c696420746f6b656e204944000000000000000000000000000000005f82015250565b5f613a51601083612792565b9150613a5c82613a1d565b602082019050919050565b5f6020820190508181035f830152613a7e81613a45565b9050919050565b7f4e465420646f6573206e6f7420657869737400000000000000000000000000005f82015250565b5f613ab9601283612792565b9150613ac482613a85565b602082019050919050565b5f6020820190508181035f830152613ae681613aad565b9050919050565b7f4261736520555249206e6f7420736574000000000000000000000000000000005f82015250565b5f613b21601083612792565b9150613b2c82613aed565b602082019050919050565b5f6020820190508181035f830152613b4e81613b15565b9050919050565b7f455243313135353a2063616c6c6572206973206e6f74206f776e6572206e6f725f8201527f20617070726f7665640000000000000000000000000000000000000000000000602082015250565b5f613baf602983612792565b9150613bba82613b55565b604082019050919050565b5f6020820190508181035f830152613bdc81613ba3565b9050919050565b5f604082019050613bf65f830185612682565b613c036020830184612682565b9392505050565b7f4f776e61626c653a206e6577206f776e657220697320746865207a65726f20615f8201527f6464726573730000000000000000000000000000000000000000000000000000602082015250565b5f613c64602683612792565b9150613c6f82613c0a565b604082019050919050565b5f6020820190508181035f830152613c9181613c58565b9050919050565b5f81519050919050565b5f82825260208201905092915050565b5f613cbc82613c98565b613cc68185613ca2565b9350613cd68185602086016127a2565b613cdf816127ca565b840191505092915050565b5f60a082019050613cfd5f830188612972565b613d0a6020830187612972565b8181036040830152613d1c81866128f6565b90508181036060830152613d3081856128f6565b90508181036080830152613d448184613cb2565b90509695505050505050565b5f81519050613d5e816126d5565b92915050565b5f60208284031215613d7957613d786125af565b5b5f613d8684828501613d50565b91505092915050565b5f8160e01c9050919050565b5f60033d1115613db75760045f803e613db45f51613d8f565b90505b90565b5f60443d10613e4657613dcb6125a6565b60043d036004823e80513d602482011167ffffffffffffffff82111715613df3575050613e46565b808201805167ffffffffffffffff811115613e115750505050613e46565b80602083010160043d038501811115613e2e575050505050613e46565b613e3d826020018501866129e7565b82955050505050505b90565b7f455243313135353a207472616e7366657220746f206e6f6e20455243313135355f8201527f526563656976657220696d706c656d656e746572000000000000000000000000602082015250565b5f613ea3603483612792565b9150613eae82613e49565b604082019050919050565b5f6020820190508181035f830152613ed081613e97565b9050919050565b7f455243313135353a204552433131353552656365697665722072656a656374655f8201527f6420746f6b656e73000000000000000000000000000000000000000000000000602082015250565b5f613f31602883612792565b9150613f3c82613ed7565b604082019050919050565b5f6020820190508181035f830152613f5e81613f25565b9050919050565b7f455243313135353a206d696e7420746f20746865207a65726f206164647265735f8201527f7300000000000000000000000000000000000000000000000000000000000000602082015250565b5f613fbf602183612792565b9150613fca82613f65565b604082019050919050565b5f6020820190508181035f830152613fec81613fb3565b9050919050565b5f819050815f5260205f209050919050565b5f6020601f8301049050919050565b5f82821b905092915050565b5f6008830261404f7fffffffffffffffffffffffffffffffffffffffffffffffffffffffffffffffff82614014565b6140598683614014565b95508019841693508086168417925050509392505050565b5f819050919050565b5f61409461408f61408a84612611565b614071565b612611565b9050919050565b5f819050919050565b6140ad8361407a565b6140c16140b98261409b565b848454614020565b825550505050565b5f90565b6140d56140c9565b6140e08184846140a4565b505050565b5b81811015614103576140f85f826140cd565b6001810190506140e6565b5050565b601f8211156141485761411981613ff3565b61412284614005565b81016020851015614131578190505b61414561413d85614005565b8301826140e5565b50505b505050565b5f82821c905092915050565b5f6141685f198460080261414d565b1980831691505092915050565b5f6141808383614159565b9150826002028217905092915050565b61419982612788565b67ffffffffffffffff8111156141b2576141b16129ba565b5b6141bc82546130e0565b6141c7828285614107565b5f60209050601f8311600181146141f8575f84156141e6578287015190505b6141f08582614175565b865550614257565b601f19841661420686613ff3565b5f5b8281101561422d57848901518255600182019150602085019450602081019050614208565b8683101561424a5784890151614246601f891682614159565b8355505b6001600288020188555050505b505050505050565b5f60a0820190506142725f830188612972565b61427f6020830187612972565b61428c6040830186612682565b6142996060830185612682565b81810360808301526142ab8184613cb2565b9050969550505050505056fea264697066735822122034845ce5763fa02c876e990f2593ef20e905827100ec84bd5ffde030cada8dc864736f6c63430008180033",
  "immutableReferences": {},
  "source": "// SPDX-License-Identifier: MIT\r\npragma solidity ^0.8.0;\r\n\r\nimport \"@openzeppelin/contracts/token/ERC1155/ERC1155.sol\";\r\nimport \"@openzeppelin/contracts/access/Ownable.sol\";\r\nimport \"@openzeppelin/contracts/utils/Strings.sol\";\r\n\r\ncontract SDVProductionNFT is ERC1155, Ownable {\r\n    using Strings for uint256;\r\n\r\n    uint256 private _totalTokens;\r\n    uint256 public constant MAX_FRACTIONAL_SHARES = 300; \r\n\r\n    struct NFT {\r\n        uint256 totalShares;\r\n        uint256 remainingShares;\r\n        address artist;\r\n    }\r\n\r\n    mapping(uint256 => NFT) public nfts;\r\n    mapping(uint256 => mapping(address => uint256)) public fractionalOwnership;\r\n    mapping(address => bool) public attendees;\r\n\r\n    constructor() ERC1155(\"\") {}\r\n\r\n    function setBaseURI(string memory baseURI) external onlyOwner {\r\n        _setURI(baseURI);\r\n    }\r\n\r\n    function createNFT(address _artist) external onlyOwner returns (uint256 tokenId) {\r\n        require(_totalTokens == 0, \"NFT has already been created\");\r\n        tokenId = 0;\r\n        nfts[tokenId] = NFT(0, 0, _artist);\r\n        emit NFTCreated(tokenId, _artist);\r\n    }\r\n\r\n    function fractionalizeNFT(uint256 _totalShares) external onlyOwner {\r\n        require(_totalTokens == 0, \"NFT has already been fractionalized\");\r\n        require(_totalShares <= MAX_FRACTIONAL_SHARES, \"Exceeds maximum fractional shares\");\r\n\r\n        nfts[0].totalShares = _totalShares;\r\n        nfts[0].remainingShares = _totalShares;\r\n        emit TokensFractionalized(0, _totalShares);\r\n    }\r\n\r\n    function mint(address _to, uint256 _amount) external {\r\n        require(attendees[msg.sender], \"Only attendees of the show can mint tokens\");\r\n        require(fractionalOwnership[0][_to] == 0, \"You already own a fraction of this token\");\r\n        require(_amount <= nfts[0].remainingShares, \"Exceeds remaining shares\");\r\n        _mint(_to, 0, _amount, \"\");\r\n        fractionalOwnership[0][_to] += _amount;\r\n        nfts[0].remainingShares -= _amount;\r\n        emit TokensMinted(0, _to, _amount);\r\n    }\r\n\r\n    function setAttendee(address _attendee) external onlyOwner {\r\n        attendees[_attendee] = true;\r\n    }\r\n\r\n    function airdropNFTShares(address[] memory _participants) external onlyOwner {\r\n        require(_participants.length > 0, \"No participants specified\");\r\n\r\n        uint256 totalSharesToAirdrop = _participants.length;\r\n\r\n        require(totalSharesToAirdrop <= nfts[0].remainingShares, \"Exceeds remaining shares\");\r\n\r\n        for (uint256 i = 0; i < _participants.length; i++) {\r\n            address participant = _participants[i];\r\n            _mint(participant, 0, 1, \"\"); \r\n            fractionalOwnership[0][participant] += 1;\r\n            nfts[0].remainingShares -= 1;\r\n        }\r\n\r\n        emit NFTSharesAirdropped(0, _participants, new uint256[](_participants.length)); \r\n    }\r\n\r\n    function getOwnedNFTs(address account) external view returns (uint256[] memory) {\r\n        if (fractionalOwnership[0][account] > 0) {\r\n            uint256[] memory ownedNFTs = new uint256[](1);\r\n            ownedNFTs[0] = 0;\r\n            return ownedNFTs;\r\n        } else {\r\n            return new uint256[](0);\r\n        }\r\n    }\r\n\r\n    function tokenURI(uint256 tokenId) public view returns (string memory) {\r\n        require(tokenId == 0, \"Invalid token ID\");\r\n        require(_totalTokens > 0, \"NFT does not exist\");\r\n        revert(\"Base URI not set\");\r\n    }\r\n\r\n    event NFTCreated(uint256 indexed tokenId, address indexed artist);\r\n    event TokensFractionalized(uint256 indexed tokenId, uint256 totalShares);\r\n    event TokensMinted(uint256 indexed tokenId, address indexed to, uint256 amount);\r\n    event NFTSharesAirdropped(uint256 indexed tokenId, address[] participants, uint256[] amounts);\r\n}\r\n",
  "sourcePath": "C:\\Users\\i\\Documents\\GitHub\\DSP-old\\contracts\\contracts\\SDVProductionNFT.sol",
  "compiler": {
    "name": "solc",
    "version": "0.8.24+commit.e11b9ed9.Emscripten.clang"
  },
  "schemaVersion": "3.4.16",
  "updatedAt": "2024-03-10T10:09:12.318Z",
  "devdoc": {
    "events": {
      "ApprovalForAll(address,address,bool)": {
        "details": "Emitted when `account` grants or revokes permission to `operator` to transfer their tokens, according to `approved`."
      },
      "TransferBatch(address,address,address,uint256[],uint256[])": {
        "details": "Equivalent to multiple {TransferSingle} events, where `operator`, `from` and `to` are the same for all transfers."
      },
      "TransferSingle(address,address,address,uint256,uint256)": {
        "details": "Emitted when `value` tokens of token type `id` are transferred from `from` to `to` by `operator`."
      },
      "URI(string,uint256)": {
        "details": "Emitted when the URI for token type `id` changes to `value`, if it is a non-programmatic URI. If an {URI} event was emitted for `id`, the standard https://eips.ethereum.org/EIPS/eip-1155#metadata-extensions[guarantees] that `value` will equal the value returned by {IERC1155MetadataURI-uri}."
      }
    },
    "kind": "dev",
    "methods": {
      "balanceOf(address,uint256)": {
        "details": "See {IERC1155-balanceOf}. Requirements: - `account` cannot be the zero address."
      },
      "balanceOfBatch(address[],uint256[])": {
        "details": "See {IERC1155-balanceOfBatch}. Requirements: - `accounts` and `ids` must have the same length."
      },
      "isApprovedForAll(address,address)": {
        "details": "See {IERC1155-isApprovedForAll}."
      },
      "owner()": {
        "details": "Returns the address of the current owner."
      },
      "renounceOwnership()": {
        "details": "Leaves the contract without owner. It will not be possible to call `onlyOwner` functions anymore. Can only be called by the current owner. NOTE: Renouncing ownership will leave the contract without an owner, thereby removing any functionality that is only available to the owner."
      },
      "safeBatchTransferFrom(address,address,uint256[],uint256[],bytes)": {
        "details": "See {IERC1155-safeBatchTransferFrom}."
      },
      "safeTransferFrom(address,address,uint256,uint256,bytes)": {
        "details": "See {IERC1155-safeTransferFrom}."
      },
      "setApprovalForAll(address,bool)": {
        "details": "See {IERC1155-setApprovalForAll}."
      },
      "supportsInterface(bytes4)": {
        "details": "See {IERC165-supportsInterface}."
      },
      "transferOwnership(address)": {
        "details": "Transfers ownership of the contract to a new account (`newOwner`). Can only be called by the current owner."
      },
      "uri(uint256)": {
        "details": "See {IERC1155MetadataURI-uri}. This implementation returns the same URI for *all* token types. It relies on the token type ID substitution mechanism https://eips.ethereum.org/EIPS/eip-1155#metadata[defined in the EIP]. Clients calling this function must replace the `\\{id\\}` substring with the actual token type ID."
      }
    },
    "version": 1
  },
  "userdoc": {
    "kind": "user",
    "methods": {},
    "version": 1
  }
}