{
  "contractName": "SDVToken",
  "abi": [
    {
      "inputs": [],
      "stateMutability": "nonpayable",
      "type": "constructor"
    },
    {
      "anonymous": false,
      "inputs": [
        {
          "indexed": true,
          "internalType": "address",
          "name": "owner",
          "type": "address"
        },
        {
          "indexed": true,
          "internalType": "address",
          "name": "spender",
          "type": "address"
        },
        {
          "indexed": false,
          "internalType": "uint256",
          "name": "value",
          "type": "uint256"
        }
      ],
      "name": "Approval",
      "type": "event"
    },
    {
      "anonymous": false,
      "inputs": [
        {
          "indexed": true,
          "internalType": "address",
          "name": "user",
          "type": "address"
        },
        {
          "indexed": false,
          "internalType": "uint256",
          "name": "amount",
          "type": "uint256"
        }
      ],
      "name": "MerchandisePurchased",
      "type": "event"
    },
    {
      "anonymous": false,
      "inputs": [
        {
          "indexed": true,
          "internalType": "address",
          "name": "previousOwner",
          "type": "address"
        },
        {
          "indexed": true,
          "internalType": "address",
          "name": "newOwner",
          "type": "address"
        }
      ],
      "name": "OwnershipTransferred",
      "type": "event"
    },
    {
      "anonymous": false,
      "inputs": [
        {
          "indexed": true,
          "internalType": "address",
          "name": "user",
          "type": "address"
        },
        {
          "indexed": false,
          "internalType": "uint256",
          "name": "amount",
          "type": "uint256"
        }
      ],
      "name": "PointsEarned",
      "type": "event"
    },
    {
      "anonymous": false,
      "inputs": [
        {
          "indexed": true,
          "internalType": "address",
          "name": "user",
          "type": "address"
        },
        {
          "indexed": false,
          "internalType": "uint256",
          "name": "points",
          "type": "uint256"
        },
        {
          "indexed": false,
          "internalType": "uint256",
          "name": "tokens",
          "type": "uint256"
        }
      ],
      "name": "PointsExchanged",
      "type": "event"
    },
    {
      "anonymous": false,
      "inputs": [
        {
          "indexed": true,
          "internalType": "address",
          "name": "user",
          "type": "address"
        },
        {
          "indexed": false,
          "internalType": "uint256",
          "name": "amount",
          "type": "uint256"
        }
      ],
      "name": "TokensAirdropped",
      "type": "event"
    },
    {
      "anonymous": false,
      "inputs": [
        {
          "indexed": true,
          "internalType": "address",
          "name": "owner",
          "type": "address"
        },
        {
          "indexed": true,
          "internalType": "address",
          "name": "spender",
          "type": "address"
        },
        {
          "indexed": false,
          "internalType": "uint256",
          "name": "amount",
          "type": "uint256"
        }
      ],
      "name": "TokensApproved",
      "type": "event"
    },
    {
      "anonymous": false,
      "inputs": [
        {
          "indexed": true,
          "internalType": "address",
          "name": "from",
          "type": "address"
        },
        {
          "indexed": true,
          "internalType": "address",
          "name": "to",
          "type": "address"
        },
        {
          "indexed": false,
          "internalType": "uint256",
          "name": "value",
          "type": "uint256"
        }
      ],
      "name": "Transfer",
      "type": "event"
    },
    {
      "anonymous": false,
      "inputs": [
        {
          "indexed": true,
          "internalType": "address",
          "name": "user",
          "type": "address"
        },
        {
          "indexed": false,
          "internalType": "string",
          "name": "email",
          "type": "string"
        }
      ],
      "name": "UserRegistered",
      "type": "event"
    },
    {
      "inputs": [
        {
          "internalType": "address",
          "name": "owner",
          "type": "address"
        },
        {
          "internalType": "address",
          "name": "spender",
          "type": "address"
        }
      ],
      "name": "allowance",
      "outputs": [
        {
          "internalType": "uint256",
          "name": "",
          "type": "uint256"
        }
      ],
      "stateMutability": "view",
      "type": "function",
      "constant": true
    },
    {
      "inputs": [
        {
          "internalType": "address",
          "name": "account",
          "type": "address"
        }
      ],
      "name": "balanceOf",
      "outputs": [
        {
          "internalType": "uint256",
          "name": "",
          "type": "uint256"
        }
      ],
      "stateMutability": "view",
      "type": "function",
      "constant": true
    },
    {
      "inputs": [],
      "name": "decimals",
      "outputs": [
        {
          "internalType": "uint8",
          "name": "",
          "type": "uint8"
        }
      ],
      "stateMutability": "view",
      "type": "function",
      "constant": true
    },
    {
      "inputs": [
        {
          "internalType": "address",
          "name": "spender",
          "type": "address"
        },
        {
          "internalType": "uint256",
          "name": "subtractedValue",
          "type": "uint256"
        }
      ],
      "name": "decreaseAllowance",
      "outputs": [
        {
          "internalType": "bool",
          "name": "",
          "type": "bool"
        }
      ],
      "stateMutability": "nonpayable",
      "type": "function"
    },
    {
      "inputs": [
        {
          "internalType": "address",
          "name": "spender",
          "type": "address"
        },
        {
          "internalType": "uint256",
          "name": "addedValue",
          "type": "uint256"
        }
      ],
      "name": "increaseAllowance",
      "outputs": [
        {
          "internalType": "bool",
          "name": "",
          "type": "bool"
        }
      ],
      "stateMutability": "nonpayable",
      "type": "function"
    },
    {
      "inputs": [
        {
          "internalType": "address",
          "name": "",
          "type": "address"
        }
      ],
      "name": "members",
      "outputs": [
        {
          "internalType": "string",
          "name": "email",
          "type": "string"
        },
        {
          "internalType": "uint256",
          "name": "tokens",
          "type": "uint256"
        },
        {
          "internalType": "uint256",
          "name": "points",
          "type": "uint256"
        },
        {
          "internalType": "bool",
          "name": "registered",
          "type": "bool"
        }
      ],
      "stateMutability": "view",
      "type": "function",
      "constant": true
    },
    {
      "inputs": [],
      "name": "name",
      "outputs": [
        {
          "internalType": "string",
          "name": "",
          "type": "string"
        }
      ],
      "stateMutability": "view",
      "type": "function",
      "constant": true
    },
    {
      "inputs": [],
      "name": "owner",
      "outputs": [
        {
          "internalType": "address",
          "name": "",
          "type": "address"
        }
      ],
      "stateMutability": "view",
      "type": "function",
      "constant": true
    },
    {
      "inputs": [],
      "name": "renounceOwnership",
      "outputs": [],
      "stateMutability": "nonpayable",
      "type": "function"
    },
    {
      "inputs": [],
      "name": "symbol",
      "outputs": [
        {
          "internalType": "string",
          "name": "",
          "type": "string"
        }
      ],
      "stateMutability": "view",
      "type": "function",
      "constant": true
    },
    {
      "inputs": [],
      "name": "totalSupply",
      "outputs": [
        {
          "internalType": "uint256",
          "name": "",
          "type": "uint256"
        }
      ],
      "stateMutability": "view",
      "type": "function",
      "constant": true
    },
    {
      "inputs": [
        {
          "internalType": "address",
          "name": "recipient",
          "type": "address"
        },
        {
          "internalType": "uint256",
          "name": "amount",
          "type": "uint256"
        }
      ],
      "name": "transfer",
      "outputs": [
        {
          "internalType": "bool",
          "name": "",
          "type": "bool"
        }
      ],
      "stateMutability": "nonpayable",
      "type": "function"
    },
    {
      "inputs": [
        {
          "internalType": "address",
          "name": "sender",
          "type": "address"
        },
        {
          "internalType": "address",
          "name": "recipient",
          "type": "address"
        },
        {
          "internalType": "uint256",
          "name": "amount",
          "type": "uint256"
        }
      ],
      "name": "transferFrom",
      "outputs": [
        {
          "internalType": "bool",
          "name": "",
          "type": "bool"
        }
      ],
      "stateMutability": "nonpayable",
      "type": "function"
    },
    {
      "inputs": [
        {
          "internalType": "address",
          "name": "newOwner",
          "type": "address"
        }
      ],
      "name": "transferOwnership",
      "outputs": [],
      "stateMutability": "nonpayable",
      "type": "function"
    },
    {
      "inputs": [
        {
          "internalType": "string",
          "name": "_email",
          "type": "string"
        }
      ],
      "name": "registerUser",
      "outputs": [],
      "stateMutability": "nonpayable",
      "type": "function"
    },
    {
      "inputs": [
        {
          "internalType": "address[]",
          "name": "_users",
          "type": "address[]"
        },
        {
          "internalType": "uint256[]",
          "name": "_amounts",
          "type": "uint256[]"
        }
      ],
      "name": "airdropTokens",
      "outputs": [],
      "stateMutability": "nonpayable",
      "type": "function"
    },
    {
      "inputs": [
        {
          "internalType": "uint256",
          "name": "_amount",
          "type": "uint256"
        }
      ],
      "name": "purchaseMerchandise",
      "outputs": [],
      "stateMutability": "nonpayable",
      "type": "function"
    },
    {
      "inputs": [
        {
          "internalType": "uint256",
          "name": "_amount",
          "type": "uint256"
        }
      ],
      "name": "earnPoints",
      "outputs": [],
      "stateMutability": "nonpayable",
      "type": "function"
    },
    {
      "inputs": [
        {
          "internalType": "uint256",
          "name": "_pointsToExchange",
          "type": "uint256"
        }
      ],
      "name": "exchangePointsForTokens",
      "outputs": [],
      "stateMutability": "nonpayable",
      "type": "function"
    },
    {
      "inputs": [
        {
          "internalType": "address",
          "name": "spender",
          "type": "address"
        },
        {
          "internalType": "uint256",
          "name": "amount",
          "type": "uint256"
        }
      ],
      "name": "approve",
      "outputs": [
        {
          "internalType": "bool",
          "name": "",
          "type": "bool"
        }
      ],
      "stateMutability": "nonpayable",
      "type": "function"
    },
    {
      "inputs": [
        {
          "internalType": "address",
          "name": "user",
          "type": "address"
        }
      ],
      "name": "getPointsBalance",
      "outputs": [
        {
          "internalType": "uint256",
          "name": "",
          "type": "uint256"
        }
      ],
      "stateMutability": "view",
      "type": "function",
      "constant": true
    }
  ],
  "bytecode": "0x60806040523480156200001157600080fd5b506040518060400160405280600881526020017f534456546f6b656e0000000000000000000000000000000000000000000000008152506040518060400160405280600381526020017f534456000000000000000000000000000000000000000000000000000000000081525081600390805190602001906200009692919062000323565b508060049080519060200190620000af92919062000323565b5050506000620000c4620001a860201b60201c565b905080600560006101000a81548173ffffffffffffffffffffffffffffffffffffffff021916908373ffffffffffffffffffffffffffffffffffffffff1602179055508073ffffffffffffffffffffffffffffffffffffffff16600073ffffffffffffffffffffffffffffffffffffffff167f8be0079c531659141344cd1fd0a4f28419497f9722a3daafe3b4186f6b6457e060405160405180910390a350620001a23362000178620001b060201b60201c565b600a6200018691906200052e565b620f42406200019691906200066b565b620001b960201b60201c565b62000784565b600033905090565b60006012905090565b600073ffffffffffffffffffffffffffffffffffffffff168273ffffffffffffffffffffffffffffffffffffffff1614156200022c576040517f08c379a0000000000000000000000000000000000000000000000000000000008152600401620002239062000426565b60405180910390fd5b62000240600083836200031e60201b60201c565b806002600082825462000254919062000476565b92505081905550806000808473ffffffffffffffffffffffffffffffffffffffff1673ffffffffffffffffffffffffffffffffffffffff1681526020019081526020016000206000828254620002ab919062000476565b925050819055508173ffffffffffffffffffffffffffffffffffffffff16600073ffffffffffffffffffffffffffffffffffffffff167fddf252ad1be2c89b69c2b068fc378daa952ba7f163c4a11628f55a4df523b3ef8360405162000312919062000448565b60405180910390a35050565b505050565b8280546200033190620006e3565b90600052602060002090601f016020900481019282620003555760008555620003a1565b82601f106200037057805160ff1916838001178555620003a1565b82800160010185558215620003a1579182015b82811115620003a057825182559160200191906001019062000383565b5b509050620003b09190620003b4565b5090565b5b80821115620003cf576000816000905550600101620003b5565b5090565b6000620003e2601f8362000465565b91507f45524332303a206d696e7420746f20746865207a65726f2061646472657373006000830152602082019050919050565b6200042081620006cc565b82525050565b600060208201905081810360008301526200044181620003d3565b9050919050565b60006020820190506200045f600083018462000415565b92915050565b600082825260208201905092915050565b60006200048382620006cc565b91506200049083620006cc565b9250827fffffffffffffffffffffffffffffffffffffffffffffffffffffffffffffffff03821115620004c857620004c762000719565b5b828201905092915050565b6000808291508390505b60018511156200052557808604811115620004fd57620004fc62000719565b5b60018516156200050d5780820291505b80810290506200051d8562000777565b9450620004dd565b94509492505050565b60006200053b82620006cc565b91506200054883620006d6565b9250620005777fffffffffffffffffffffffffffffffffffffffffffffffffffffffffffffffff84846200057f565b905092915050565b60008262000591576001905062000664565b81620005a1576000905062000664565b8160018114620005ba5760028114620005c557620005fb565b600191505062000664565b60ff841115620005da57620005d962000719565b5b8360020a915084821115620005f457620005f362000719565b5b5062000664565b5060208310610133831016604e8410600b8410161715620006355782820a9050838111156200062f576200062e62000719565b5b62000664565b620006448484846001620004d3565b925090508184048111156200065e576200065d62000719565b5b81810290505b9392505050565b60006200067882620006cc565b91506200068583620006cc565b9250817fffffffffffffffffffffffffffffffffffffffffffffffffffffffffffffffff0483118215151615620006c157620006c062000719565b5b828202905092915050565b6000819050919050565b600060ff82169050919050565b60006002820490506001821680620006fc57607f821691505b6020821081141562000713576200071262000748565b5b50919050565b7f4e487b7100000000000000000000000000000000000000000000000000000000600052601160045260246000fd5b7f4e487b7100000000000000000000000000000000000000000000000000000000600052602260045260246000fd5b60008160011c9050919050565b612ef280620007946000396000f3fe608060405234801561001057600080fd5b50600436106101375760003560e01c806370a08231116100b8578063a457c2d71161007c578063a457c2d71461033f578063a9059cbb1461036f578063c72cabdc1461039f578063dd62ed3e146103bb578063e707f36f146103eb578063f2fde38b1461041b57610137565b806370a08231146102ad578063715018a6146102dd57806385932345146102e75780638da5cb5b1461030357806395d89b411461032157610137565b806323f857b8116100ff57806323f857b81461020b578063313ce567146102275780633950935114610245578063704f1b9414610275578063706f69371461029157610137565b806306fdde031461013c57806308ae4b0c1461015a578063095ea7b31461018d57806318160ddd146101bd57806323b872dd146101db575b600080fd5b610144610437565b60405161015191906128b2565b60405180910390f35b610174600480360381019061016f9190612111565b6104c9565b60405161018494939291906128d4565b60405180910390f35b6101a760048036038101906101a291906121c5565b61058e565b6040516101b49190612897565b60405180910390f35b6101c5610618565b6040516101d29190612b20565b60405180910390f35b6101f560048036038101906101f09190612176565b610622565b6040516102029190612897565b60405180910390f35b610225600480360381019061022091906122ae565b610723565b005b61022f6109b2565b60405161023c9190612b64565b60405180910390f35b61025f600480360381019061025a91906121c5565b6109bb565b60405161026c9190612897565b60405180910390f35b61028f600480360381019061028a919061226d565b610a67565b005b6102ab60048036038101906102a69190612201565b610c3e565b005b6102c760048036038101906102c29190612111565b61102a565b6040516102d49190612b20565b60405180910390f35b6102e5611072565b005b61030160048036038101906102fc91906122ae565b6111af565b005b61030b6112e8565b604051610318919061287c565b60405180910390f35b610329611312565b60405161033691906128b2565b60405180910390f35b610359600480360381019061035491906121c5565b6113a4565b6040516103669190612897565b60405180910390f35b610389600480360381019061038491906121c5565b611498565b6040516103969190612897565b60405180910390f35b6103b960048036038101906103b491906122ae565b6114b6565b005b6103d560048036038101906103d0919061213a565b611686565b6040516103e29190612b20565b60405180910390f35b61040560048036038101906104009190612111565b61170d565b6040516104129190612b20565b60405180910390f35b61043560048036038101906104309190612111565b611759565b005b60606003805461044690612d75565b80601f016020809104026020016040519081016040528092919081815260200182805461047290612d75565b80156104bf5780601f10610494576101008083540402835291602001916104bf565b820191906000526020600020905b8154815290600101906020018083116104a257829003601f168201915b5050505050905090565b60066020528060005260406000206000915090508060000180546104ec90612d75565b80601f016020809104026020016040519081016040528092919081815260200182805461051890612d75565b80156105655780601f1061053a57610100808354040283529160200191610565565b820191906000526020600020905b81548152906001019060200180831161054857829003601f168201915b5050505050908060010154908060020154908060030160009054906101000a900460ff16905084565b60006105a261059b611905565b848461190d565b8273ffffffffffffffffffffffffffffffffffffffff166105c1611905565b73ffffffffffffffffffffffffffffffffffffffff167f8c5be1e5ebec7d5bd14f71427d1e84f3dd0314c0f7b2291e5b200ac8c7c3b925846040516106069190612b20565b60405180910390a36001905092915050565b6000600254905090565b600061062f848484611ad8565b6000600160008673ffffffffffffffffffffffffffffffffffffffff1673ffffffffffffffffffffffffffffffffffffffff168152602001908152602001600020600061067a611905565b73ffffffffffffffffffffffffffffffffffffffff1673ffffffffffffffffffffffffffffffffffffffff168152602001908152602001600020549050828110156106fa576040517f08c379a00000000000000000000000000000000000000000000000000000000081526004016106f190612a00565b60405180910390fd5b61071785610706611905565b85846107129190612caa565b61190d565b60019150509392505050565b600660003373ffffffffffffffffffffffffffffffffffffffff1673ffffffffffffffffffffffffffffffffffffffff16815260200190815260200160002060030160009054906101000a900460ff166107b2576040517f08c379a00000000000000000000000000000000000000000000000000000000081526004016107a990612980565b60405180910390fd5b80600660003373ffffffffffffffffffffffffffffffffffffffff1673ffffffffffffffffffffffffffffffffffffffff168152602001908152602001600020600201541015610837576040517f08c379a000000000000000000000000000000000000000000000000000000000815260040161082e90612aa0565b60405180910390fd5b60008190506108463382611d57565b80600660003373ffffffffffffffffffffffffffffffffffffffff1673ffffffffffffffffffffffffffffffffffffffff16815260200190815260200160002060010160008282546108989190612c54565b9250508190555081600660003373ffffffffffffffffffffffffffffffffffffffff1673ffffffffffffffffffffffffffffffffffffffff16815260200190815260200160002060020160008282546108f19190612caa565b925050819055503373ffffffffffffffffffffffffffffffffffffffff16600073ffffffffffffffffffffffffffffffffffffffff167fddf252ad1be2c89b69c2b068fc378daa952ba7f163c4a11628f55a4df523b3ef836040516109569190612b20565b60405180910390a33373ffffffffffffffffffffffffffffffffffffffff167ffe5afbc6767cd9a9d720adc8f98d515579c8eba66ad45e4f42f88324fb260d6583836040516109a6929190612b3b565b60405180910390a25050565b60006012905090565b6000610a5d6109c8611905565b8484600160006109d6611905565b73ffffffffffffffffffffffffffffffffffffffff1673ffffffffffffffffffffffffffffffffffffffff16815260200190815260200160002060008873ffffffffffffffffffffffffffffffffffffffff1673ffffffffffffffffffffffffffffffffffffffff16815260200190815260200160002054610a589190612c54565b61190d565b6001905092915050565b600660003373ffffffffffffffffffffffffffffffffffffffff1673ffffffffffffffffffffffffffffffffffffffff16815260200190815260200160002060030160009054906101000a900460ff1615610af7576040517f08c379a0000000000000000000000000000000000000000000000000000000008152600401610aee90612a40565b60405180910390fd5b6000815111610b3b576040517f08c379a0000000000000000000000000000000000000000000000000000000008152600401610b3290612a60565b60405180910390fd5b80600660003373ffffffffffffffffffffffffffffffffffffffff1673ffffffffffffffffffffffffffffffffffffffff1681526020019081526020016000206000019080519060200190610b91929190611eb0565b506001600660003373ffffffffffffffffffffffffffffffffffffffff1673ffffffffffffffffffffffffffffffffffffffff16815260200190815260200160002060030160006101000a81548160ff0219169083151502179055503373ffffffffffffffffffffffffffffffffffffffff167f48cac28ad4dc618e15f4c2dd5e97751182f166de97b25618318b2112aa951a2f82604051610c3391906128b2565b60405180910390a250565b610c46611905565b73ffffffffffffffffffffffffffffffffffffffff16610c646112e8565b73ffffffffffffffffffffffffffffffffffffffff1614610cba576040517f08c379a0000000000000000000000000000000000000000000000000000000008152600401610cb190612a20565b60405180910390fd5b8051825114610cfe576040517f08c379a0000000000000000000000000000000000000000000000000000000008152600401610cf5906129c0565b60405180910390fd5b60005b82518110156110255760066000848381518110610d47577f4e487b7100000000000000000000000000000000000000000000000000000000600052603260045260246000fd5b602002602001015173ffffffffffffffffffffffffffffffffffffffff1673ffffffffffffffffffffffffffffffffffffffff16815260200190815260200160002060030160009054906101000a900460ff16610dd9576040517f08c379a0000000000000000000000000000000000000000000000000000000008152600401610dd090612980565b60405180910390fd5b610e6b610de46112e8565b848381518110610e1d577f4e487b7100000000000000000000000000000000000000000000000000000000600052603260045260246000fd5b6020026020010151848481518110610e5e577f4e487b7100000000000000000000000000000000000000000000000000000000600052603260045260246000fd5b6020026020010151611ad8565b818181518110610ea4577f4e487b7100000000000000000000000000000000000000000000000000000000600052603260045260246000fd5b602002602001015160066000858481518110610ee9577f4e487b7100000000000000000000000000000000000000000000000000000000600052603260045260246000fd5b602002602001015173ffffffffffffffffffffffffffffffffffffffff1673ffffffffffffffffffffffffffffffffffffffff1681526020019081526020016000206001016000828254610f3d9190612c54565b92505081905550828181518110610f7d577f4e487b7100000000000000000000000000000000000000000000000000000000600052603260045260246000fd5b602002602001015173ffffffffffffffffffffffffffffffffffffffff167fb82d2a7de6e3c04c554cd659f5f2b8d49c0131c0363c91a4ccef6756d1602990838381518110610ff5577f4e487b7100000000000000000000000000000000000000000000000000000000600052603260045260246000fd5b602002602001015160405161100a9190612b20565b60405180910390a2808061101d90612da7565b915050610d01565b505050565b60008060008373ffffffffffffffffffffffffffffffffffffffff1673ffffffffffffffffffffffffffffffffffffffff168152602001908152602001600020549050919050565b61107a611905565b73ffffffffffffffffffffffffffffffffffffffff166110986112e8565b73ffffffffffffffffffffffffffffffffffffffff16146110ee576040517f08c379a00000000000000000000000000000000000000000000000000000000081526004016110e590612a20565b60405180910390fd5b600073ffffffffffffffffffffffffffffffffffffffff16600560009054906101000a900473ffffffffffffffffffffffffffffffffffffffff1673ffffffffffffffffffffffffffffffffffffffff167f8be0079c531659141344cd1fd0a4f28419497f9722a3daafe3b4186f6b6457e060405160405180910390a36000600560006101000a81548173ffffffffffffffffffffffffffffffffffffffff021916908373ffffffffffffffffffffffffffffffffffffffff160217905550565b600660003373ffffffffffffffffffffffffffffffffffffffff1673ffffffffffffffffffffffffffffffffffffffff16815260200190815260200160002060030160009054906101000a900460ff1661123e576040517f08c379a000000000000000000000000000000000000000000000000000000000815260040161123590612980565b60405180910390fd5b80600660003373ffffffffffffffffffffffffffffffffffffffff1673ffffffffffffffffffffffffffffffffffffffff16815260200190815260200160002060020160008282546112909190612c54565b925050819055503373ffffffffffffffffffffffffffffffffffffffff167f2c4c0dc427a50c4a69d2fc184c47a311acf950d8d2f289fbaee64e83e9b28967826040516112dd9190612b20565b60405180910390a250565b6000600560009054906101000a900473ffffffffffffffffffffffffffffffffffffffff16905090565b60606004805461132190612d75565b80601f016020809104026020016040519081016040528092919081815260200182805461134d90612d75565b801561139a5780601f1061136f5761010080835404028352916020019161139a565b820191906000526020600020905b81548152906001019060200180831161137d57829003601f168201915b5050505050905090565b600080600160006113b3611905565b73ffffffffffffffffffffffffffffffffffffffff1673ffffffffffffffffffffffffffffffffffffffff16815260200190815260200160002060008573ffffffffffffffffffffffffffffffffffffffff1673ffffffffffffffffffffffffffffffffffffffff16815260200190815260200160002054905082811015611470576040517f08c379a000000000000000000000000000000000000000000000000000000000815260040161146790612ae0565b60405180910390fd5b61148d61147b611905565b8585846114889190612caa565b61190d565b600191505092915050565b60006114ac6114a5611905565b8484611ad8565b6001905092915050565b600660003373ffffffffffffffffffffffffffffffffffffffff1673ffffffffffffffffffffffffffffffffffffffff16815260200190815260200160002060030160009054906101000a900460ff16611545576040517f08c379a000000000000000000000000000000000000000000000000000000000815260040161153c90612980565b60405180910390fd5b80600660003373ffffffffffffffffffffffffffffffffffffffff1673ffffffffffffffffffffffffffffffffffffffff1681526020019081526020016000206001015410156115ca576040517f08c379a00000000000000000000000000000000000000000000000000000000081526004016115c1906129e0565b60405180910390fd5b6115dc336115d66112e8565b83611ad8565b80600660003373ffffffffffffffffffffffffffffffffffffffff1673ffffffffffffffffffffffffffffffffffffffff168152602001908152602001600020600101600082825461162e9190612caa565b925050819055503373ffffffffffffffffffffffffffffffffffffffff167fcb39b47db799499d2adb62e43b9592c8a757a9a05859f57b7c92e9798c5663a28260405161167b9190612b20565b60405180910390a250565b6000600160008473ffffffffffffffffffffffffffffffffffffffff1673ffffffffffffffffffffffffffffffffffffffff16815260200190815260200160002060008373ffffffffffffffffffffffffffffffffffffffff1673ffffffffffffffffffffffffffffffffffffffff16815260200190815260200160002054905092915050565b6000600660008373ffffffffffffffffffffffffffffffffffffffff1673ffffffffffffffffffffffffffffffffffffffff168152602001908152602001600020600201549050919050565b611761611905565b73ffffffffffffffffffffffffffffffffffffffff1661177f6112e8565b73ffffffffffffffffffffffffffffffffffffffff16146117d5576040517f08c379a00000000000000000000000000000000000000000000000000000000081526004016117cc90612a20565b60405180910390fd5b600073ffffffffffffffffffffffffffffffffffffffff168173ffffffffffffffffffffffffffffffffffffffff161415611845576040517f08c379a000000000000000000000000000000000000000000000000000000000815260040161183c90612940565b60405180910390fd5b8073ffffffffffffffffffffffffffffffffffffffff16600560009054906101000a900473ffffffffffffffffffffffffffffffffffffffff1673ffffffffffffffffffffffffffffffffffffffff167f8be0079c531659141344cd1fd0a4f28419497f9722a3daafe3b4186f6b6457e060405160405180910390a380600560006101000a81548173ffffffffffffffffffffffffffffffffffffffff021916908373ffffffffffffffffffffffffffffffffffffffff16021790555050565b600033905090565b600073ffffffffffffffffffffffffffffffffffffffff168373ffffffffffffffffffffffffffffffffffffffff16141561197d576040517f08c379a000000000000000000000000000000000000000000000000000000000815260040161197490612ac0565b60405180910390fd5b600073ffffffffffffffffffffffffffffffffffffffff168273ffffffffffffffffffffffffffffffffffffffff1614156119ed576040517f08c379a00000000000000000000000000000000000000000000000000000000081526004016119e490612960565b60405180910390fd5b80600160008573ffffffffffffffffffffffffffffffffffffffff1673ffffffffffffffffffffffffffffffffffffffff16815260200190815260200160002060008473ffffffffffffffffffffffffffffffffffffffff1673ffffffffffffffffffffffffffffffffffffffff168152602001908152602001600020819055508173ffffffffffffffffffffffffffffffffffffffff168373ffffffffffffffffffffffffffffffffffffffff167f8c5be1e5ebec7d5bd14f71427d1e84f3dd0314c0f7b2291e5b200ac8c7c3b92583604051611acb9190612b20565b60405180910390a3505050565b600073ffffffffffffffffffffffffffffffffffffffff168373ffffffffffffffffffffffffffffffffffffffff161415611b48576040517f08c379a0000000000000000000000000000000000000000000000000000000008152600401611b3f90612a80565b60405180910390fd5b600073ffffffffffffffffffffffffffffffffffffffff168273ffffffffffffffffffffffffffffffffffffffff161415611bb8576040517f08c379a0000000000000000000000000000000000000000000000000000000008152600401611baf90612920565b60405180910390fd5b611bc3838383611eab565b60008060008573ffffffffffffffffffffffffffffffffffffffff1673ffffffffffffffffffffffffffffffffffffffff16815260200190815260200160002054905081811015611c49576040517f08c379a0000000000000000000000000000000000000000000000000000000008152600401611c40906129a0565b60405180910390fd5b8181611c559190612caa565b6000808673ffffffffffffffffffffffffffffffffffffffff1673ffffffffffffffffffffffffffffffffffffffff16815260200190815260200160002081905550816000808573ffffffffffffffffffffffffffffffffffffffff1673ffffffffffffffffffffffffffffffffffffffff1681526020019081526020016000206000828254611ce59190612c54565b925050819055508273ffffffffffffffffffffffffffffffffffffffff168473ffffffffffffffffffffffffffffffffffffffff167fddf252ad1be2c89b69c2b068fc378daa952ba7f163c4a11628f55a4df523b3ef84604051611d499190612b20565b60405180910390a350505050565b600073ffffffffffffffffffffffffffffffffffffffff168273ffffffffffffffffffffffffffffffffffffffff161415611dc7576040517f08c379a0000000000000000000000000000000000000000000000000000000008152600401611dbe90612b00565b60405180910390fd5b611dd360008383611eab565b8060026000828254611de59190612c54565b92505081905550806000808473ffffffffffffffffffffffffffffffffffffffff1673ffffffffffffffffffffffffffffffffffffffff1681526020019081526020016000206000828254611e3a9190612c54565b925050819055508173ffffffffffffffffffffffffffffffffffffffff16600073ffffffffffffffffffffffffffffffffffffffff167fddf252ad1be2c89b69c2b068fc378daa952ba7f163c4a11628f55a4df523b3ef83604051611e9f9190612b20565b60405180910390a35050565b505050565b828054611ebc90612d75565b90600052602060002090601f016020900481019282611ede5760008555611f25565b82601f10611ef757805160ff1916838001178555611f25565b82800160010185558215611f25579182015b82811115611f24578251825591602001919060010190611f09565b5b509050611f329190611f36565b5090565b5b80821115611f4f576000816000905550600101611f37565b5090565b6000611f66611f6184612bb0565b612b7f565b90508083825260208201905082856020860282011115611f8557600080fd5b60005b85811015611fb55781611f9b8882612069565b845260208401935060208301925050600181019050611f88565b5050509392505050565b6000611fd2611fcd84612bdc565b612b7f565b90508083825260208201905082856020860282011115611ff157600080fd5b60005b85811015612021578161200788826120fc565b845260208401935060208301925050600181019050611ff4565b5050509392505050565b600061203e61203984612c08565b612b7f565b90508281526020810184848401111561205657600080fd5b612061848285612d33565b509392505050565b60008135905061207881612e8e565b92915050565b600082601f83011261208f57600080fd5b813561209f848260208601611f53565b91505092915050565b600082601f8301126120b957600080fd5b81356120c9848260208601611fbf565b91505092915050565b600082601f8301126120e357600080fd5b81356120f384826020860161202b565b91505092915050565b60008135905061210b81612ea5565b92915050565b60006020828403121561212357600080fd5b600061213184828501612069565b91505092915050565b6000806040838503121561214d57600080fd5b600061215b85828601612069565b925050602061216c85828601612069565b9150509250929050565b60008060006060848603121561218b57600080fd5b600061219986828701612069565b93505060206121aa86828701612069565b92505060406121bb868287016120fc565b9150509250925092565b600080604083850312156121d857600080fd5b60006121e685828601612069565b92505060206121f7858286016120fc565b9150509250929050565b6000806040838503121561221457600080fd5b600083013567ffffffffffffffff81111561222e57600080fd5b61223a8582860161207e565b925050602083013567ffffffffffffffff81111561225757600080fd5b612263858286016120a8565b9150509250929050565b60006020828403121561227f57600080fd5b600082013567ffffffffffffffff81111561229957600080fd5b6122a5848285016120d2565b91505092915050565b6000602082840312156122c057600080fd5b60006122ce848285016120fc565b91505092915050565b6122e081612cde565b82525050565b6122ef81612cf0565b82525050565b600061230082612c38565b61230a8185612c43565b935061231a818560208601612d42565b61232381612e7d565b840191505092915050565b600061233b602383612c43565b91507f45524332303a207472616e7366657220746f20746865207a65726f206164647260008301527f65737300000000000000000000000000000000000000000000000000000000006020830152604082019050919050565b60006123a1602683612c43565b91507f4f776e61626c653a206e6577206f776e657220697320746865207a65726f206160008301527f64647265737300000000000000000000000000000000000000000000000000006020830152604082019050919050565b6000612407602283612c43565b91507f45524332303a20617070726f766520746f20746865207a65726f20616464726560008301527f73730000000000000000000000000000000000000000000000000000000000006020830152604082019050919050565b600061246d601383612c43565b91507f55736572206e6f742072656769737465726564000000000000000000000000006000830152602082019050919050565b60006124ad602683612c43565b91507f45524332303a207472616e7366657220616d6f756e742065786365656473206260008301527f616c616e636500000000000000000000000000000000000000000000000000006020830152604082019050919050565b6000612513601583612c43565b91507f496e76616c696420696e707574206c656e6774687300000000000000000000006000830152602082019050919050565b6000612553601283612c43565b91507f496e73756666696369656e742066756e647300000000000000000000000000006000830152602082019050919050565b6000612593602883612c43565b91507f45524332303a207472616e7366657220616d6f756e742065786365656473206160008301527f6c6c6f77616e63650000000000000000000000000000000000000000000000006020830152604082019050919050565b60006125f9602083612c43565b91507f4f776e61626c653a2063616c6c6572206973206e6f7420746865206f776e65726000830152602082019050919050565b6000612639601783612c43565b91507f5573657220616c726561647920726567697374657265640000000000000000006000830152602082019050919050565b6000612679601583612c43565b91507f456d61696c2063616e6e6f7420626520656d70747900000000000000000000006000830152602082019050919050565b60006126b9602583612c43565b91507f45524332303a207472616e736665722066726f6d20746865207a65726f20616460008301527f64726573730000000000000000000000000000000000000000000000000000006020830152604082019050919050565b600061271f601383612c43565b91507f496e73756666696369656e7420706f696e7473000000000000000000000000006000830152602082019050919050565b600061275f602483612c43565b91507f45524332303a20617070726f76652066726f6d20746865207a65726f2061646460008301527f72657373000000000000000000000000000000000000000000000000000000006020830152604082019050919050565b60006127c5602583612c43565b91507f45524332303a2064656372656173656420616c6c6f77616e63652062656c6f7760008301527f207a65726f0000000000000000000000000000000000000000000000000000006020830152604082019050919050565b600061282b601f83612c43565b91507f45524332303a206d696e7420746f20746865207a65726f2061646472657373006000830152602082019050919050565b61286781612d1c565b82525050565b61287681612d26565b82525050565b600060208201905061289160008301846122d7565b92915050565b60006020820190506128ac60008301846122e6565b92915050565b600060208201905081810360008301526128cc81846122f5565b905092915050565b600060808201905081810360008301526128ee81876122f5565b90506128fd602083018661285e565b61290a604083018561285e565b61291760608301846122e6565b95945050505050565b600060208201905081810360008301526129398161232e565b9050919050565b6000602082019050818103600083015261295981612394565b9050919050565b60006020820190508181036000830152612979816123fa565b9050919050565b6000602082019050818103600083015261299981612460565b9050919050565b600060208201905081810360008301526129b9816124a0565b9050919050565b600060208201905081810360008301526129d981612506565b9050919050565b600060208201905081810360008301526129f981612546565b9050919050565b60006020820190508181036000830152612a1981612586565b9050919050565b60006020820190508181036000830152612a39816125ec565b9050919050565b60006020820190508181036000830152612a598161262c565b9050919050565b60006020820190508181036000830152612a798161266c565b9050919050565b60006020820190508181036000830152612a99816126ac565b9050919050565b60006020820190508181036000830152612ab981612712565b9050919050565b60006020820190508181036000830152612ad981612752565b9050919050565b60006020820190508181036000830152612af9816127b8565b9050919050565b60006020820190508181036000830152612b198161281e565b9050919050565b6000602082019050612b35600083018461285e565b92915050565b6000604082019050612b50600083018561285e565b612b5d602083018461285e565b9392505050565b6000602082019050612b79600083018461286d565b92915050565b6000604051905081810181811067ffffffffffffffff82111715612ba657612ba5612e4e565b5b8060405250919050565b600067ffffffffffffffff821115612bcb57612bca612e4e565b5b602082029050602081019050919050565b600067ffffffffffffffff821115612bf757612bf6612e4e565b5b602082029050602081019050919050565b600067ffffffffffffffff821115612c2357612c22612e4e565b5b601f19601f8301169050602081019050919050565b600081519050919050565b600082825260208201905092915050565b6000612c5f82612d1c565b9150612c6a83612d1c565b9250827fffffffffffffffffffffffffffffffffffffffffffffffffffffffffffffffff03821115612c9f57612c9e612df0565b5b828201905092915050565b6000612cb582612d1c565b9150612cc083612d1c565b925082821015612cd357612cd2612df0565b5b828203905092915050565b6000612ce982612cfc565b9050919050565b60008115159050919050565b600073ffffffffffffffffffffffffffffffffffffffff82169050919050565b6000819050919050565b600060ff82169050919050565b82818337600083830152505050565b60005b83811015612d60578082015181840152602081019050612d45565b83811115612d6f576000848401525b50505050565b60006002820490506001821680612d8d57607f821691505b60208210811415612da157612da0612e1f565b5b50919050565b6000612db282612d1c565b91507fffffffffffffffffffffffffffffffffffffffffffffffffffffffffffffffff821415612de557612de4612df0565b5b600182019050919050565b7f4e487b7100000000000000000000000000000000000000000000000000000000600052601160045260246000fd5b7f4e487b7100000000000000000000000000000000000000000000000000000000600052602260045260246000fd5b7f4e487b7100000000000000000000000000000000000000000000000000000000600052604160045260246000fd5b6000601f19601f8301169050919050565b612e9781612cde565b8114612ea257600080fd5b50565b612eae81612d1c565b8114612eb957600080fd5b5056fea264697066735822122019bc03f7e918667eafca6b816d757d8392e8dc8c41d191d7b4d48246d3f2105964736f6c63430008000033",
  "immutableReferences": {},
  "source": "// SPDX-License-Identifier: MIT\r\npragma solidity ^0.8.0;\r\n\r\nimport \"@openzeppelin/contracts/token/ERC20/ERC20.sol\";\r\nimport \"@openzeppelin/contracts/access/Ownable.sol\";\r\n\r\ncontract SDVToken is ERC20, Ownable {\r\n    struct Member {\r\n        string email;\r\n        uint256 tokens;\r\n        uint256 points;\r\n        bool registered;\r\n    }\r\n\r\n    mapping(address => Member) public members;\r\n\r\n    event UserRegistered(address indexed user, string email);\r\n    event TokensAirdropped(address indexed user, uint256 amount);\r\n    event MerchandisePurchased(address indexed user, uint256 amount);\r\n    event TokensApproved(address indexed owner, address indexed spender, uint256 amount);\r\n    event PointsEarned(address indexed user, uint256 amount);\r\n    event PointsExchanged(address indexed user, uint256 points, uint256 tokens);\r\n\r\n    constructor() ERC20(\"SDVToken\", \"SDV\") {\r\n        _mint(msg.sender, 1000000 * 10**decimals());\r\n    }\r\n\r\n    function registerUser(string memory _email) external {\r\n        require(!members[msg.sender].registered, \"User already registered\");\r\n        require(bytes(_email).length > 0, \"Email cannot be empty\");\r\n\r\n        members[msg.sender].email = _email;\r\n        members[msg.sender].registered = true;\r\n\r\n        emit UserRegistered(msg.sender, _email);\r\n    }\r\n\r\n    function airdropTokens(address[] memory _users, uint256[] memory _amounts) external onlyOwner {\r\n        require(_users.length == _amounts.length, \"Invalid input lengths\");\r\n\r\n        for (uint256 i = 0; i < _users.length; i++) {\r\n            require(members[_users[i]].registered, \"User not registered\");\r\n\r\n            _transfer(owner(), _users[i], _amounts[i]);\r\n            members[_users[i]].tokens += _amounts[i];\r\n\r\n            emit TokensAirdropped(_users[i], _amounts[i]);\r\n        }\r\n    }\r\n\r\n    function purchaseMerchandise(uint256 _amount) external {\r\n        require(members[msg.sender].registered, \"User not registered\");\r\n        require(members[msg.sender].tokens >= _amount, \"Insufficient funds\");\r\n\r\n        _transfer(msg.sender, owner(), _amount);\r\n        members[msg.sender].tokens -= _amount;\r\n\r\n        emit MerchandisePurchased(msg.sender, _amount);\r\n    }\r\n\r\n    function earnPoints(uint256 _amount) external {\r\n        require(members[msg.sender].registered, \"User not registered\");\r\n        members[msg.sender].points += _amount;\r\n\r\n        emit PointsEarned(msg.sender, _amount);\r\n    }\r\n\r\n    function exchangePointsForTokens(uint256 _pointsToExchange) external {\r\n        require(members[msg.sender].registered, \"User not registered\");\r\n        require(members[msg.sender].points >= _pointsToExchange, \"Insufficient points\");\r\n\r\n        uint256 tokenAmount = _pointsToExchange;\r\n        _mint(msg.sender, tokenAmount);\r\n        members[msg.sender].tokens += tokenAmount;\r\n        members[msg.sender].points -= _pointsToExchange;\r\n\r\n        emit Transfer(address(0), msg.sender, tokenAmount);\r\n        emit PointsExchanged(msg.sender, _pointsToExchange, tokenAmount);\r\n    }\r\n\r\n    function approve(address spender, uint256 amount) public override returns (bool) {\r\n        _approve(_msgSender(), spender, amount);\r\n        emit Approval(_msgSender(), spender, amount);\r\n        return true;\r\n    }\r\n\r\n    function getPointsBalance(address user) external view returns (uint256) {\r\n        return members[user].points;\r\n    }\r\n}",
  "sourcePath": "C:\\Users\\i\\Documents\\GitHub\\DSP\\contracts\\contracts\\SDVLoyaltyGroupToken.sol",
  "compiler": {
    "name": "solc",
    "version": "0.8.0+commit.c7dfd78e.Emscripten.clang"
  },
  "schemaVersion": "3.4.16",
  "updatedAt": "2024-02-12T09:57:54.029Z",
  "networkType": "ethereum",
  "devdoc": {
    "kind": "dev",
    "methods": {
      "allowance(address,address)": {
        "details": "See {IERC20-allowance}."
      },
      "approve(address,uint256)": {
        "details": "See {IERC20-approve}. Requirements: - `spender` cannot be the zero address."
      },
      "balanceOf(address)": {
        "details": "See {IERC20-balanceOf}."
      },
      "decimals()": {
        "details": "Returns the number of decimals used to get its user representation. For example, if `decimals` equals `2`, a balance of `505` tokens should be displayed to a user as `5,05` (`505 / 10 ** 2`). Tokens usually opt for a value of 18, imitating the relationship between Ether and Wei. This is the value {ERC20} uses, unless this function is overloaded; NOTE: This information is only used for _display_ purposes: it in no way affects any of the arithmetic of the contract, including {IERC20-balanceOf} and {IERC20-transfer}."
      },
      "decreaseAllowance(address,uint256)": {
        "details": "Atomically decreases the allowance granted to `spender` by the caller. This is an alternative to {approve} that can be used as a mitigation for problems described in {IERC20-approve}. Emits an {Approval} event indicating the updated allowance. Requirements: - `spender` cannot be the zero address. - `spender` must have allowance for the caller of at least `subtractedValue`."
      },
      "increaseAllowance(address,uint256)": {
        "details": "Atomically increases the allowance granted to `spender` by the caller. This is an alternative to {approve} that can be used as a mitigation for problems described in {IERC20-approve}. Emits an {Approval} event indicating the updated allowance. Requirements: - `spender` cannot be the zero address."
      },
      "name()": {
        "details": "Returns the name of the token."
      },
      "owner()": {
        "details": "Returns the address of the current owner."
      },
      "renounceOwnership()": {
        "details": "Leaves the contract without owner. It will not be possible to call `onlyOwner` functions anymore. Can only be called by the current owner. NOTE: Renouncing ownership will leave the contract without an owner, thereby removing any functionality that is only available to the owner."
      },
      "symbol()": {
        "details": "Returns the symbol of the token, usually a shorter version of the name."
      },
      "totalSupply()": {
        "details": "See {IERC20-totalSupply}."
      },
      "transfer(address,uint256)": {
        "details": "See {IERC20-transfer}. Requirements: - `recipient` cannot be the zero address. - the caller must have a balance of at least `amount`."
      },
      "transferFrom(address,address,uint256)": {
        "details": "See {IERC20-transferFrom}. Emits an {Approval} event indicating the updated allowance. This is not required by the EIP. See the note at the beginning of {ERC20}. Requirements: - `sender` and `recipient` cannot be the zero address. - `sender` must have a balance of at least `amount`. - the caller must have allowance for ``sender``'s tokens of at least `amount`."
      },
      "transferOwnership(address)": {
        "details": "Transfers ownership of the contract to a new account (`newOwner`). Can only be called by the current owner."
      }
    },
    "version": 1
  },
  "userdoc": {
    "kind": "user",
    "methods": {},
    "version": 1
  }
}