{
  "contractName": "SDVToken",
  "abi": [
    {
      "inputs": [],
      "stateMutability": "nonpayable",
      "type": "constructor"
    },
    {
      "anonymous": false,
      "inputs": [
        {
          "indexed": true,
          "internalType": "address",
          "name": "owner",
          "type": "address"
        },
        {
          "indexed": true,
          "internalType": "address",
          "name": "spender",
          "type": "address"
        },
        {
          "indexed": false,
          "internalType": "uint256",
          "name": "value",
          "type": "uint256"
        }
      ],
      "name": "Approval",
      "type": "event"
    },
    {
      "anonymous": false,
      "inputs": [
        {
          "indexed": true,
          "internalType": "address",
          "name": "user",
          "type": "address"
        },
        {
          "indexed": false,
          "internalType": "uint256",
          "name": "amount",
          "type": "uint256"
        }
      ],
      "name": "MerchandisePurchased",
      "type": "event"
    },
    {
      "anonymous": false,
      "inputs": [
        {
          "indexed": true,
          "internalType": "address",
          "name": "previousOwner",
          "type": "address"
        },
        {
          "indexed": true,
          "internalType": "address",
          "name": "newOwner",
          "type": "address"
        }
      ],
      "name": "OwnershipTransferred",
      "type": "event"
    },
    {
      "anonymous": false,
      "inputs": [
        {
          "indexed": true,
          "internalType": "address",
          "name": "user",
          "type": "address"
        },
        {
          "indexed": false,
          "internalType": "uint256",
          "name": "points",
          "type": "uint256"
        },
        {
          "indexed": false,
          "internalType": "uint256",
          "name": "tokens",
          "type": "uint256"
        }
      ],
      "name": "PointsExchanged",
      "type": "event"
    },
    {
      "anonymous": false,
      "inputs": [
        {
          "indexed": true,
          "internalType": "address",
          "name": "user",
          "type": "address"
        },
        {
          "indexed": false,
          "internalType": "uint256",
          "name": "amount",
          "type": "uint256"
        }
      ],
      "name": "TokensAirdropped",
      "type": "event"
    },
    {
      "anonymous": false,
      "inputs": [
        {
          "indexed": true,
          "internalType": "address",
          "name": "owner",
          "type": "address"
        },
        {
          "indexed": true,
          "internalType": "address",
          "name": "spender",
          "type": "address"
        },
        {
          "indexed": false,
          "internalType": "uint256",
          "name": "amount",
          "type": "uint256"
        }
      ],
      "name": "TokensApproved",
      "type": "event"
    },
    {
      "anonymous": false,
      "inputs": [
        {
          "indexed": true,
          "internalType": "address",
          "name": "from",
          "type": "address"
        },
        {
          "indexed": true,
          "internalType": "address",
          "name": "to",
          "type": "address"
        },
        {
          "indexed": false,
          "internalType": "uint256",
          "name": "value",
          "type": "uint256"
        }
      ],
      "name": "Transfer",
      "type": "event"
    },
    {
      "inputs": [],
      "name": "TOTAL_SUPPLY",
      "outputs": [
        {
          "internalType": "uint256",
          "name": "",
          "type": "uint256"
        }
      ],
      "stateMutability": "view",
      "type": "function"
    },
    {
      "inputs": [
        {
          "internalType": "address",
          "name": "owner",
          "type": "address"
        },
        {
          "internalType": "address",
          "name": "spender",
          "type": "address"
        }
      ],
      "name": "allowance",
      "outputs": [
        {
          "internalType": "uint256",
          "name": "",
          "type": "uint256"
        }
      ],
      "stateMutability": "view",
      "type": "function"
    },
    {
      "inputs": [
        {
          "internalType": "address",
          "name": "spender",
          "type": "address"
        },
        {
          "internalType": "uint256",
          "name": "amount",
          "type": "uint256"
        }
      ],
      "name": "approve",
      "outputs": [
        {
          "internalType": "bool",
          "name": "",
          "type": "bool"
        }
      ],
      "stateMutability": "nonpayable",
      "type": "function"
    },
    {
      "inputs": [
        {
          "internalType": "address",
          "name": "account",
          "type": "address"
        }
      ],
      "name": "balanceOf",
      "outputs": [
        {
          "internalType": "uint256",
          "name": "",
          "type": "uint256"
        }
      ],
      "stateMutability": "view",
      "type": "function"
    },
    {
      "inputs": [],
      "name": "decimals",
      "outputs": [
        {
          "internalType": "uint8",
          "name": "",
          "type": "uint8"
        }
      ],
      "stateMutability": "view",
      "type": "function"
    },
    {
      "inputs": [
        {
          "internalType": "address",
          "name": "spender",
          "type": "address"
        },
        {
          "internalType": "uint256",
          "name": "subtractedValue",
          "type": "uint256"
        }
      ],
      "name": "decreaseAllowance",
      "outputs": [
        {
          "internalType": "bool",
          "name": "",
          "type": "bool"
        }
      ],
      "stateMutability": "nonpayable",
      "type": "function"
    },
    {
      "inputs": [
        {
          "internalType": "address",
          "name": "spender",
          "type": "address"
        },
        {
          "internalType": "uint256",
          "name": "addedValue",
          "type": "uint256"
        }
      ],
      "name": "increaseAllowance",
      "outputs": [
        {
          "internalType": "bool",
          "name": "",
          "type": "bool"
        }
      ],
      "stateMutability": "nonpayable",
      "type": "function"
    },
    {
      "inputs": [],
      "name": "name",
      "outputs": [
        {
          "internalType": "string",
          "name": "",
          "type": "string"
        }
      ],
      "stateMutability": "view",
      "type": "function"
    },
    {
      "inputs": [],
      "name": "owner",
      "outputs": [
        {
          "internalType": "address",
          "name": "",
          "type": "address"
        }
      ],
      "stateMutability": "view",
      "type": "function"
    },
    {
      "inputs": [],
      "name": "renounceOwnership",
      "outputs": [],
      "stateMutability": "nonpayable",
      "type": "function"
    },
    {
      "inputs": [],
      "name": "symbol",
      "outputs": [
        {
          "internalType": "string",
          "name": "",
          "type": "string"
        }
      ],
      "stateMutability": "view",
      "type": "function"
    },
    {
      "inputs": [],
      "name": "totalSupply",
      "outputs": [
        {
          "internalType": "uint256",
          "name": "",
          "type": "uint256"
        }
      ],
      "stateMutability": "view",
      "type": "function"
    },
    {
      "inputs": [
        {
          "internalType": "address",
          "name": "recipient",
          "type": "address"
        },
        {
          "internalType": "uint256",
          "name": "amount",
          "type": "uint256"
        }
      ],
      "name": "transfer",
      "outputs": [
        {
          "internalType": "bool",
          "name": "",
          "type": "bool"
        }
      ],
      "stateMutability": "nonpayable",
      "type": "function"
    },
    {
      "inputs": [
        {
          "internalType": "address",
          "name": "sender",
          "type": "address"
        },
        {
          "internalType": "address",
          "name": "recipient",
          "type": "address"
        },
        {
          "internalType": "uint256",
          "name": "amount",
          "type": "uint256"
        }
      ],
      "name": "transferFrom",
      "outputs": [
        {
          "internalType": "bool",
          "name": "",
          "type": "bool"
        }
      ],
      "stateMutability": "nonpayable",
      "type": "function"
    },
    {
      "inputs": [
        {
          "internalType": "address",
          "name": "newOwner",
          "type": "address"
        }
      ],
      "name": "transferOwnership",
      "outputs": [],
      "stateMutability": "nonpayable",
      "type": "function"
    },
    {
      "inputs": [
        {
          "internalType": "address[]",
          "name": "_users",
          "type": "address[]"
        },
        {
          "internalType": "uint256[]",
          "name": "_amounts",
          "type": "uint256[]"
        }
      ],
      "name": "airdropTokens",
      "outputs": [],
      "stateMutability": "nonpayable",
      "type": "function"
    },
    {
      "inputs": [
        {
          "internalType": "uint256",
          "name": "_amount",
          "type": "uint256"
        }
      ],
      "name": "purchaseMerchandise",
      "outputs": [],
      "stateMutability": "nonpayable",
      "type": "function"
    },
    {
      "inputs": [
        {
          "internalType": "uint256",
          "name": "_pointsToExchange",
          "type": "uint256"
        }
      ],
      "name": "exchangePointsForTokens",
      "outputs": [],
      "stateMutability": "nonpayable",
      "type": "function"
    }
  ],
  "bytecode": "0x608060405234801562000010575f80fd5b506040518060400160405280600881526020017f534456546f6b656e0000000000000000000000000000000000000000000000008152506040518060400160405280600381526020017f534456000000000000000000000000000000000000000000000000000000000081525081600390816200008e919062000539565b508060049081620000a0919062000539565b5050505f620000b46200016c60201b60201c565b90508060055f6101000a81548173ffffffffffffffffffffffffffffffffffffffff021916908373ffffffffffffffffffffffffffffffffffffffff1602179055508073ffffffffffffffffffffffffffffffffffffffff165f73ffffffffffffffffffffffffffffffffffffffff167f8be0079c531659141344cd1fd0a4f28419497f9722a3daafe3b4186f6b6457e060405160405180910390a3506200016633620186a06200017360201b60201c565b6200072e565b5f33905090565b5f73ffffffffffffffffffffffffffffffffffffffff168273ffffffffffffffffffffffffffffffffffffffff1603620001e4576040517f08c379a0000000000000000000000000000000000000000000000000000000008152600401620001db906200067b565b60405180910390fd5b620001f75f8383620002d060201b60201c565b8060025f8282546200020a9190620006c8565b92505081905550805f808473ffffffffffffffffffffffffffffffffffffffff1673ffffffffffffffffffffffffffffffffffffffff1681526020019081526020015f205f8282546200025e9190620006c8565b925050819055508173ffffffffffffffffffffffffffffffffffffffff165f73ffffffffffffffffffffffffffffffffffffffff167fddf252ad1be2c89b69c2b068fc378daa952ba7f163c4a11628f55a4df523b3ef83604051620002c4919062000713565b60405180910390a35050565b505050565b5f81519050919050565b7f4e487b71000000000000000000000000000000000000000000000000000000005f52604160045260245ffd5b7f4e487b71000000000000000000000000000000000000000000000000000000005f52602260045260245ffd5b5f60028204905060018216806200035157607f821691505b6020821081036200036757620003666200030c565b5b50919050565b5f819050815f5260205f209050919050565b5f6020601f8301049050919050565b5f82821b905092915050565b5f60088302620003cb7fffffffffffffffffffffffffffffffffffffffffffffffffffffffffffffffff826200038e565b620003d786836200038e565b95508019841693508086168417925050509392505050565b5f819050919050565b5f819050919050565b5f620004216200041b6200041584620003ef565b620003f8565b620003ef565b9050919050565b5f819050919050565b6200043c8362000401565b620004546200044b8262000428565b8484546200039a565b825550505050565b5f90565b6200046a6200045c565b6200047781848462000431565b505050565b5b818110156200049e57620004925f8262000460565b6001810190506200047d565b5050565b601f821115620004ed57620004b7816200036d565b620004c2846200037f565b81016020851015620004d2578190505b620004ea620004e1856200037f565b8301826200047c565b50505b505050565b5f82821c905092915050565b5f6200050f5f1984600802620004f2565b1980831691505092915050565b5f620005298383620004fe565b9150826002028217905092915050565b6200054482620002d5565b67ffffffffffffffff81111562000560576200055f620002df565b5b6200056c825462000339565b62000579828285620004a2565b5f60209050601f831160018114620005af575f84156200059a578287015190505b620005a685826200051c565b86555062000615565b601f198416620005bf866200036d565b5f5b82811015620005e857848901518255600182019150602085019450602081019050620005c1565b8683101562000608578489015162000604601f891682620004fe565b8355505b6001600288020188555050505b505050505050565b5f82825260208201905092915050565b7f45524332303a206d696e7420746f20746865207a65726f2061646472657373005f82015250565b5f62000663601f836200061d565b915062000670826200062d565b602082019050919050565b5f6020820190508181035f830152620006948162000655565b9050919050565b7f4e487b71000000000000000000000000000000000000000000000000000000005f52601160045260245ffd5b5f620006d482620003ef565b9150620006e183620003ef565b9250828201905080821115620006fc57620006fb6200069b565b5b92915050565b6200070d81620003ef565b82525050565b5f602082019050620007285f83018462000702565b92915050565b612137806200073c5f395ff3fe608060405234801561000f575f80fd5b5060043610610114575f3560e01c8063715018a6116100a0578063a457c2d71161006f578063a457c2d7146102ce578063a9059cbb146102fe578063c72cabdc1461032e578063dd62ed3e1461034a578063f2fde38b1461037a57610114565b8063715018a61461026a5780638da5cb5b14610274578063902d55a51461029257806395d89b41146102b057610114565b806323f857b8116100e757806323f857b8146101b4578063313ce567146101d057806339509351146101ee578063706f69371461021e57806370a082311461023a57610114565b806306fdde0314610118578063095ea7b31461013657806318160ddd1461016657806323b872dd14610184575b5f80fd5b610120610396565b60405161012d9190611443565b60405180910390f35b610150600480360381019061014b9190611501565b610426565b60405161015d9190611559565b60405180910390f35b61016e610443565b60405161017b9190611581565b60405180910390f35b61019e6004803603810190610199919061159a565b61044c565b6040516101ab9190611559565b60405180910390f35b6101ce60048036038101906101c991906115ea565b610547565b005b6101d86105b6565b6040516101e59190611630565b60405180910390f35b61020860048036038101906102039190611501565b6105be565b6040516102159190611559565b60405180910390f35b61023860048036038101906102339190611849565b610665565b005b610254600480360381019061024f91906118bf565b61080a565b6040516102619190611581565b60405180910390f35b61027261084f565b005b61027c610988565b60405161028991906118f9565b60405180910390f35b61029a6109b0565b6040516102a79190611581565b60405180910390f35b6102b86109b7565b6040516102c59190611443565b60405180910390f35b6102e860048036038101906102e39190611501565b610a47565b6040516102f59190611559565b60405180910390f35b61031860048036038101906103139190611501565b610b36565b6040516103259190611559565b60405180910390f35b610348600480360381019061034391906115ea565b610b53565b005b610364600480360381019061035f9190611912565b610c01565b6040516103719190611581565b60405180910390f35b610394600480360381019061038f91906118bf565b610c83565b005b6060600380546103a59061197d565b80601f01602080910402602001604051908101604052809291908181526020018280546103d19061197d565b801561041c5780601f106103f35761010080835404028352916020019161041c565b820191905f5260205f20905b8154815290600101906020018083116103ff57829003601f168201915b5050505050905090565b5f610439610432610e2b565b8484610e32565b6001905092915050565b5f600254905090565b5f610458848484610ff5565b5f60015f8673ffffffffffffffffffffffffffffffffffffffff1673ffffffffffffffffffffffffffffffffffffffff1681526020019081526020015f205f61049f610e2b565b73ffffffffffffffffffffffffffffffffffffffff1673ffffffffffffffffffffffffffffffffffffffff1681526020019081526020015f205490508281101561051e576040517f08c379a000000000000000000000000000000000000000000000000000000000815260040161051590611a1d565b60405180910390fd5b61053b8561052a610e2b565b85846105369190611a68565b610e32565b60019150509392505050565b5f6103e8826105569190611ac8565b90506105623382611268565b3373ffffffffffffffffffffffffffffffffffffffff167ffe5afbc6767cd9a9d720adc8f98d515579c8eba66ad45e4f42f88324fb260d6583836040516105aa929190611af8565b60405180910390a25050565b5f6012905090565b5f61065b6105ca610e2b565b848460015f6105d7610e2b565b73ffffffffffffffffffffffffffffffffffffffff1673ffffffffffffffffffffffffffffffffffffffff1681526020019081526020015f205f8873ffffffffffffffffffffffffffffffffffffffff1673ffffffffffffffffffffffffffffffffffffffff1681526020019081526020015f20546106569190611b1f565b610e32565b6001905092915050565b61066d610e2b565b73ffffffffffffffffffffffffffffffffffffffff1661068b610988565b73ffffffffffffffffffffffffffffffffffffffff16146106e1576040517f08c379a00000000000000000000000000000000000000000000000000000000081526004016106d890611b9c565b60405180910390fd5b8051825114610725576040517f08c379a000000000000000000000000000000000000000000000000000000000815260040161071c90611c04565b60405180910390fd5b5f5b82518110156108055761077661073b610988565b84838151811061074e5761074d611c22565b5b602002602001015184848151811061076957610768611c22565b5b6020026020010151610ff5565b82818151811061078957610788611c22565b5b602002602001015173ffffffffffffffffffffffffffffffffffffffff167fb82d2a7de6e3c04c554cd659f5f2b8d49c0131c0363c91a4ccef6756d16029908383815181106107db576107da611c22565b5b60200260200101516040516107f09190611581565b60405180910390a28080600101915050610727565b505050565b5f805f8373ffffffffffffffffffffffffffffffffffffffff1673ffffffffffffffffffffffffffffffffffffffff1681526020019081526020015f20549050919050565b610857610e2b565b73ffffffffffffffffffffffffffffffffffffffff16610875610988565b73ffffffffffffffffffffffffffffffffffffffff16146108cb576040517f08c379a00000000000000000000000000000000000000000000000000000000081526004016108c290611b9c565b60405180910390fd5b5f73ffffffffffffffffffffffffffffffffffffffff1660055f9054906101000a900473ffffffffffffffffffffffffffffffffffffffff1673ffffffffffffffffffffffffffffffffffffffff167f8be0079c531659141344cd1fd0a4f28419497f9722a3daafe3b4186f6b6457e060405160405180910390a35f60055f6101000a81548173ffffffffffffffffffffffffffffffffffffffff021916908373ffffffffffffffffffffffffffffffffffffffff160217905550565b5f60055f9054906101000a900473ffffffffffffffffffffffffffffffffffffffff16905090565b620186a081565b6060600480546109c69061197d565b80601f01602080910402602001604051908101604052809291908181526020018280546109f29061197d565b8015610a3d5780601f10610a1457610100808354040283529160200191610a3d565b820191905f5260205f20905b815481529060010190602001808311610a2057829003601f168201915b5050505050905090565b5f8060015f610a54610e2b565b73ffffffffffffffffffffffffffffffffffffffff1673ffffffffffffffffffffffffffffffffffffffff1681526020019081526020015f205f8573ffffffffffffffffffffffffffffffffffffffff1673ffffffffffffffffffffffffffffffffffffffff1681526020019081526020015f2054905082811015610b0e576040517f08c379a0000000000000000000000000000000000000000000000000000000008152600401610b0590611cbf565b60405180910390fd5b610b2b610b19610e2b565b858584610b269190611a68565b610e32565b600191505092915050565b5f610b49610b42610e2b565b8484610ff5565b6001905092915050565b80610b5d3361080a565b1015610b9e576040517f08c379a0000000000000000000000000000000000000000000000000000000008152600401610b9590611d27565b60405180910390fd5b610bb033610baa610988565b83610ff5565b3373ffffffffffffffffffffffffffffffffffffffff167fcb39b47db799499d2adb62e43b9592c8a757a9a05859f57b7c92e9798c5663a282604051610bf69190611581565b60405180910390a250565b5f60015f8473ffffffffffffffffffffffffffffffffffffffff1673ffffffffffffffffffffffffffffffffffffffff1681526020019081526020015f205f8373ffffffffffffffffffffffffffffffffffffffff1673ffffffffffffffffffffffffffffffffffffffff1681526020019081526020015f2054905092915050565b610c8b610e2b565b73ffffffffffffffffffffffffffffffffffffffff16610ca9610988565b73ffffffffffffffffffffffffffffffffffffffff1614610cff576040517f08c379a0000000000000000000000000000000000000000000000000000000008152600401610cf690611b9c565b60405180910390fd5b5f73ffffffffffffffffffffffffffffffffffffffff168173ffffffffffffffffffffffffffffffffffffffff1603610d6d576040517f08c379a0000000000000000000000000000000000000000000000000000000008152600401610d6490611db5565b60405180910390fd5b8073ffffffffffffffffffffffffffffffffffffffff1660055f9054906101000a900473ffffffffffffffffffffffffffffffffffffffff1673ffffffffffffffffffffffffffffffffffffffff167f8be0079c531659141344cd1fd0a4f28419497f9722a3daafe3b4186f6b6457e060405160405180910390a38060055f6101000a81548173ffffffffffffffffffffffffffffffffffffffff021916908373ffffffffffffffffffffffffffffffffffffffff16021790555050565b5f33905090565b5f73ffffffffffffffffffffffffffffffffffffffff168373ffffffffffffffffffffffffffffffffffffffff1603610ea0576040517f08c379a0000000000000000000000000000000000000000000000000000000008152600401610e9790611e43565b60405180910390fd5b5f73ffffffffffffffffffffffffffffffffffffffff168273ffffffffffffffffffffffffffffffffffffffff1603610f0e576040517f08c379a0000000000000000000000000000000000000000000000000000000008152600401610f0590611ed1565b60405180910390fd5b8060015f8573ffffffffffffffffffffffffffffffffffffffff1673ffffffffffffffffffffffffffffffffffffffff1681526020019081526020015f205f8473ffffffffffffffffffffffffffffffffffffffff1673ffffffffffffffffffffffffffffffffffffffff1681526020019081526020015f20819055508173ffffffffffffffffffffffffffffffffffffffff168373ffffffffffffffffffffffffffffffffffffffff167f8c5be1e5ebec7d5bd14f71427d1e84f3dd0314c0f7b2291e5b200ac8c7c3b92583604051610fe89190611581565b60405180910390a3505050565b5f73ffffffffffffffffffffffffffffffffffffffff168373ffffffffffffffffffffffffffffffffffffffff1603611063576040517f08c379a000000000000000000000000000000000000000000000000000000000815260040161105a90611f5f565b60405180910390fd5b5f73ffffffffffffffffffffffffffffffffffffffff168273ffffffffffffffffffffffffffffffffffffffff16036110d1576040517f08c379a00000000000000000000000000000000000000000000000000000000081526004016110c890611fed565b60405180910390fd5b6110dc8383836113b4565b5f805f8573ffffffffffffffffffffffffffffffffffffffff1673ffffffffffffffffffffffffffffffffffffffff1681526020019081526020015f205490508181101561115f576040517f08c379a00000000000000000000000000000000000000000000000000000000081526004016111569061207b565b60405180910390fd5b818161116b9190611a68565b5f808673ffffffffffffffffffffffffffffffffffffffff1673ffffffffffffffffffffffffffffffffffffffff1681526020019081526020015f2081905550815f808573ffffffffffffffffffffffffffffffffffffffff1673ffffffffffffffffffffffffffffffffffffffff1681526020019081526020015f205f8282546111f69190611b1f565b925050819055508273ffffffffffffffffffffffffffffffffffffffff168473ffffffffffffffffffffffffffffffffffffffff167fddf252ad1be2c89b69c2b068fc378daa952ba7f163c4a11628f55a4df523b3ef8460405161125a9190611581565b60405180910390a350505050565b5f73ffffffffffffffffffffffffffffffffffffffff168273ffffffffffffffffffffffffffffffffffffffff16036112d6576040517f08c379a00000000000000000000000000000000000000000000000000000000081526004016112cd906120e3565b60405180910390fd5b6112e15f83836113b4565b8060025f8282546112f29190611b1f565b92505081905550805f808473ffffffffffffffffffffffffffffffffffffffff1673ffffffffffffffffffffffffffffffffffffffff1681526020019081526020015f205f8282546113449190611b1f565b925050819055508173ffffffffffffffffffffffffffffffffffffffff165f73ffffffffffffffffffffffffffffffffffffffff167fddf252ad1be2c89b69c2b068fc378daa952ba7f163c4a11628f55a4df523b3ef836040516113a89190611581565b60405180910390a35050565b505050565b5f81519050919050565b5f82825260208201905092915050565b5f5b838110156113f05780820151818401526020810190506113d5565b5f8484015250505050565b5f601f19601f8301169050919050565b5f611415826113b9565b61141f81856113c3565b935061142f8185602086016113d3565b611438816113fb565b840191505092915050565b5f6020820190508181035f83015261145b818461140b565b905092915050565b5f604051905090565b5f80fd5b5f80fd5b5f73ffffffffffffffffffffffffffffffffffffffff82169050919050565b5f61149d82611474565b9050919050565b6114ad81611493565b81146114b7575f80fd5b50565b5f813590506114c8816114a4565b92915050565b5f819050919050565b6114e0816114ce565b81146114ea575f80fd5b50565b5f813590506114fb816114d7565b92915050565b5f80604083850312156115175761151661146c565b5b5f611524858286016114ba565b9250506020611535858286016114ed565b9150509250929050565b5f8115159050919050565b6115538161153f565b82525050565b5f60208201905061156c5f83018461154a565b92915050565b61157b816114ce565b82525050565b5f6020820190506115945f830184611572565b92915050565b5f805f606084860312156115b1576115b061146c565b5b5f6115be868287016114ba565b93505060206115cf868287016114ba565b92505060406115e0868287016114ed565b9150509250925092565b5f602082840312156115ff576115fe61146c565b5b5f61160c848285016114ed565b91505092915050565b5f60ff82169050919050565b61162a81611615565b82525050565b5f6020820190506116435f830184611621565b92915050565b5f80fd5b7f4e487b71000000000000000000000000000000000000000000000000000000005f52604160045260245ffd5b611683826113fb565b810181811067ffffffffffffffff821117156116a2576116a161164d565b5b80604052505050565b5f6116b4611463565b90506116c0828261167a565b919050565b5f67ffffffffffffffff8211156116df576116de61164d565b5b602082029050602081019050919050565b5f80fd5b5f611706611701846116c5565b6116ab565b90508083825260208201905060208402830185811115611729576117286116f0565b5b835b81811015611752578061173e88826114ba565b84526020840193505060208101905061172b565b5050509392505050565b5f82601f8301126117705761176f611649565b5b81356117808482602086016116f4565b91505092915050565b5f67ffffffffffffffff8211156117a3576117a261164d565b5b602082029050602081019050919050565b5f6117c66117c184611789565b6116ab565b905080838252602082019050602084028301858111156117e9576117e86116f0565b5b835b8181101561181257806117fe88826114ed565b8452602084019350506020810190506117eb565b5050509392505050565b5f82601f8301126118305761182f611649565b5b81356118408482602086016117b4565b91505092915050565b5f806040838503121561185f5761185e61146c565b5b5f83013567ffffffffffffffff81111561187c5761187b611470565b5b6118888582860161175c565b925050602083013567ffffffffffffffff8111156118a9576118a8611470565b5b6118b58582860161181c565b9150509250929050565b5f602082840312156118d4576118d361146c565b5b5f6118e1848285016114ba565b91505092915050565b6118f381611493565b82525050565b5f60208201905061190c5f8301846118ea565b92915050565b5f80604083850312156119285761192761146c565b5b5f611935858286016114ba565b9250506020611946858286016114ba565b9150509250929050565b7f4e487b71000000000000000000000000000000000000000000000000000000005f52602260045260245ffd5b5f600282049050600182168061199457607f821691505b6020821081036119a7576119a6611950565b5b50919050565b7f45524332303a207472616e7366657220616d6f756e74206578636565647320615f8201527f6c6c6f77616e6365000000000000000000000000000000000000000000000000602082015250565b5f611a076028836113c3565b9150611a12826119ad565b604082019050919050565b5f6020820190508181035f830152611a34816119fb565b9050919050565b7f4e487b71000000000000000000000000000000000000000000000000000000005f52601160045260245ffd5b5f611a72826114ce565b9150611a7d836114ce565b9250828203905081811115611a9557611a94611a3b565b5b92915050565b7f4e487b71000000000000000000000000000000000000000000000000000000005f52601260045260245ffd5b5f611ad2826114ce565b9150611add836114ce565b925082611aed57611aec611a9b565b5b828204905092915050565b5f604082019050611b0b5f830185611572565b611b186020830184611572565b9392505050565b5f611b29826114ce565b9150611b34836114ce565b9250828201905080821115611b4c57611b4b611a3b565b5b92915050565b7f4f776e61626c653a2063616c6c6572206973206e6f7420746865206f776e65725f82015250565b5f611b866020836113c3565b9150611b9182611b52565b602082019050919050565b5f6020820190508181035f830152611bb381611b7a565b9050919050565b7f496e76616c696420696e707574206c656e6774687300000000000000000000005f82015250565b5f611bee6015836113c3565b9150611bf982611bba565b602082019050919050565b5f6020820190508181035f830152611c1b81611be2565b9050919050565b7f4e487b71000000000000000000000000000000000000000000000000000000005f52603260045260245ffd5b7f45524332303a2064656372656173656420616c6c6f77616e63652062656c6f775f8201527f207a65726f000000000000000000000000000000000000000000000000000000602082015250565b5f611ca96025836113c3565b9150611cb482611c4f565b604082019050919050565b5f6020820190508181035f830152611cd681611c9d565b9050919050565b7f496e73756666696369656e742066756e647300000000000000000000000000005f82015250565b5f611d116012836113c3565b9150611d1c82611cdd565b602082019050919050565b5f6020820190508181035f830152611d3e81611d05565b9050919050565b7f4f776e61626c653a206e6577206f776e657220697320746865207a65726f20615f8201527f6464726573730000000000000000000000000000000000000000000000000000602082015250565b5f611d9f6026836113c3565b9150611daa82611d45565b604082019050919050565b5f6020820190508181035f830152611dcc81611d93565b9050919050565b7f45524332303a20617070726f76652066726f6d20746865207a65726f206164645f8201527f7265737300000000000000000000000000000000000000000000000000000000602082015250565b5f611e2d6024836113c3565b9150611e3882611dd3565b604082019050919050565b5f6020820190508181035f830152611e5a81611e21565b9050919050565b7f45524332303a20617070726f766520746f20746865207a65726f2061646472655f8201527f7373000000000000000000000000000000000000000000000000000000000000602082015250565b5f611ebb6022836113c3565b9150611ec682611e61565b604082019050919050565b5f6020820190508181035f830152611ee881611eaf565b9050919050565b7f45524332303a207472616e736665722066726f6d20746865207a65726f2061645f8201527f6472657373000000000000000000000000000000000000000000000000000000602082015250565b5f611f496025836113c3565b9150611f5482611eef565b604082019050919050565b5f6020820190508181035f830152611f7681611f3d565b9050919050565b7f45524332303a207472616e7366657220746f20746865207a65726f20616464725f8201527f6573730000000000000000000000000000000000000000000000000000000000602082015250565b5f611fd76023836113c3565b9150611fe282611f7d565b604082019050919050565b5f6020820190508181035f83015261200481611fcb565b9050919050565b7f45524332303a207472616e7366657220616d6f756e74206578636565647320625f8201527f616c616e63650000000000000000000000000000000000000000000000000000602082015250565b5f6120656026836113c3565b91506120708261200b565b604082019050919050565b5f6020820190508181035f83015261209281612059565b9050919050565b7f45524332303a206d696e7420746f20746865207a65726f2061646472657373005f82015250565b5f6120cd601f836113c3565b91506120d882612099565b602082019050919050565b5f6020820190508181035f8301526120fa816120c1565b905091905056fea26469706673582212200b147637aa976ede609a4c9c87bec1d8d1ae550fb2a344cb0b4c7e078e48d21364736f6c63430008180033",
  "immutableReferences": {},
  "source": "// SPDX-License-Identifier: MIT\r\npragma solidity ^0.8.0;\r\n\r\nimport \"@openzeppelin/contracts/token/ERC20/ERC20.sol\";\r\nimport \"@openzeppelin/contracts/access/Ownable.sol\";\r\n\r\ncontract SDVToken is ERC20, Ownable {\r\n    uint256 public constant TOTAL_SUPPLY = 100_000;\r\n\r\n    event TokensAirdropped(address indexed user, uint256 amount);\r\n    event MerchandisePurchased(address indexed user, uint256 amount);\r\n    event TokensApproved(address indexed owner, address indexed spender, uint256 amount);\r\n    event PointsExchanged(address indexed user, uint256 points, uint256 tokens);\r\n\r\n    constructor() ERC20(\"SDVToken\", \"SDV\") {\r\n        _mint(msg.sender, TOTAL_SUPPLY);\r\n    }\r\n\r\n    function airdropTokens(address[] memory _users, uint256[] memory _amounts) external onlyOwner {\r\n        require(_users.length == _amounts.length, \"Invalid input lengths\");\r\n\r\n        for (uint256 i = 0; i < _users.length; i++) {\r\n            _transfer(owner(), _users[i], _amounts[i]);\r\n\r\n            emit TokensAirdropped(_users[i], _amounts[i]);\r\n        }\r\n    }\r\n\r\n    function purchaseMerchandise(uint256 _amount) external {\r\n        require(balanceOf(msg.sender) >= _amount, \"Insufficient funds\");\r\n\r\n        _transfer(msg.sender, owner(), _amount);\r\n\r\n        emit MerchandisePurchased(msg.sender, _amount);\r\n    }\r\n\r\n    function exchangePointsForTokens(uint256 _pointsToExchange) external {\r\n        uint256 tokenAmount = _pointsToExchange / 1000; \r\n        _mint(msg.sender, tokenAmount);\r\n\r\n        emit PointsExchanged(msg.sender, _pointsToExchange, tokenAmount);\r\n    }\r\n}\r\n",
  "sourcePath": "C:\\Users\\i\\Documents\\GitHub\\DSP-old\\contracts\\contracts\\SDVLoyaltyGroupToken.sol",
  "compiler": {
    "name": "solc",
    "version": "0.8.24+commit.e11b9ed9.Emscripten.clang"
  },
  "schemaVersion": "3.4.16",
  "updatedAt": "2024-03-07T15:16:47.105Z",
  "devdoc": {
    "events": {
      "Approval(address,address,uint256)": {
        "details": "Emitted when the allowance of a `spender` for an `owner` is set by a call to {approve}. `value` is the new allowance."
      },
      "Transfer(address,address,uint256)": {
        "details": "Emitted when `value` tokens are moved from one account (`from`) to another (`to`). Note that `value` may be zero."
      }
    },
    "kind": "dev",
    "methods": {
      "allowance(address,address)": {
        "details": "See {IERC20-allowance}."
      },
      "approve(address,uint256)": {
        "details": "See {IERC20-approve}. Requirements: - `spender` cannot be the zero address."
      },
      "balanceOf(address)": {
        "details": "See {IERC20-balanceOf}."
      },
      "decimals()": {
        "details": "Returns the number of decimals used to get its user representation. For example, if `decimals` equals `2`, a balance of `505` tokens should be displayed to a user as `5,05` (`505 / 10 ** 2`). Tokens usually opt for a value of 18, imitating the relationship between Ether and Wei. This is the value {ERC20} uses, unless this function is overloaded; NOTE: This information is only used for _display_ purposes: it in no way affects any of the arithmetic of the contract, including {IERC20-balanceOf} and {IERC20-transfer}."
      },
      "decreaseAllowance(address,uint256)": {
        "details": "Atomically decreases the allowance granted to `spender` by the caller. This is an alternative to {approve} that can be used as a mitigation for problems described in {IERC20-approve}. Emits an {Approval} event indicating the updated allowance. Requirements: - `spender` cannot be the zero address. - `spender` must have allowance for the caller of at least `subtractedValue`."
      },
      "increaseAllowance(address,uint256)": {
        "details": "Atomically increases the allowance granted to `spender` by the caller. This is an alternative to {approve} that can be used as a mitigation for problems described in {IERC20-approve}. Emits an {Approval} event indicating the updated allowance. Requirements: - `spender` cannot be the zero address."
      },
      "name()": {
        "details": "Returns the name of the token."
      },
      "owner()": {
        "details": "Returns the address of the current owner."
      },
      "renounceOwnership()": {
        "details": "Leaves the contract without owner. It will not be possible to call `onlyOwner` functions anymore. Can only be called by the current owner. NOTE: Renouncing ownership will leave the contract without an owner, thereby removing any functionality that is only available to the owner."
      },
      "symbol()": {
        "details": "Returns the symbol of the token, usually a shorter version of the name."
      },
      "totalSupply()": {
        "details": "See {IERC20-totalSupply}."
      },
      "transfer(address,uint256)": {
        "details": "See {IERC20-transfer}. Requirements: - `recipient` cannot be the zero address. - the caller must have a balance of at least `amount`."
      },
      "transferFrom(address,address,uint256)": {
        "details": "See {IERC20-transferFrom}. Emits an {Approval} event indicating the updated allowance. This is not required by the EIP. See the note at the beginning of {ERC20}. Requirements: - `sender` and `recipient` cannot be the zero address. - `sender` must have a balance of at least `amount`. - the caller must have allowance for ``sender``'s tokens of at least `amount`."
      },
      "transferOwnership(address)": {
        "details": "Transfers ownership of the contract to a new account (`newOwner`). Can only be called by the current owner."
      }
    },
    "version": 1
  },
  "userdoc": {
    "kind": "user",
    "methods": {},
    "version": 1
  }
}