{
  "contractName": "SDVToken",
  "abi": [
    {
      "inputs": [],
      "stateMutability": "nonpayable",
      "type": "constructor"
    },
    {
      "anonymous": false,
      "inputs": [
        {
          "indexed": true,
          "internalType": "address",
          "name": "owner",
          "type": "address"
        },
        {
          "indexed": true,
          "internalType": "address",
          "name": "spender",
          "type": "address"
        },
        {
          "indexed": false,
          "internalType": "uint256",
          "name": "value",
          "type": "uint256"
        }
      ],
      "name": "Approval",
      "type": "event"
    },
    {
      "anonymous": false,
      "inputs": [
        {
          "indexed": true,
          "internalType": "address",
          "name": "user",
          "type": "address"
        },
        {
          "indexed": false,
          "internalType": "uint256",
          "name": "amount",
          "type": "uint256"
        }
      ],
      "name": "ContributionMade",
      "type": "event"
    },
    {
      "anonymous": false,
      "inputs": [
        {
          "indexed": true,
          "internalType": "address",
          "name": "user",
          "type": "address"
        },
        {
          "indexed": false,
          "internalType": "uint256",
          "name": "amount",
          "type": "uint256"
        }
      ],
      "name": "MerchandisePurchased",
      "type": "event"
    },
    {
      "anonymous": false,
      "inputs": [
        {
          "indexed": true,
          "internalType": "address",
          "name": "previousOwner",
          "type": "address"
        },
        {
          "indexed": true,
          "internalType": "address",
          "name": "newOwner",
          "type": "address"
        }
      ],
      "name": "OwnershipTransferred",
      "type": "event"
    },
    {
      "anonymous": false,
      "inputs": [
        {
          "indexed": true,
          "internalType": "address",
          "name": "user",
          "type": "address"
        },
        {
          "indexed": false,
          "internalType": "uint256",
          "name": "amount",
          "type": "uint256"
        }
      ],
      "name": "TokensAirdropped",
      "type": "event"
    },
    {
      "anonymous": false,
      "inputs": [
        {
          "indexed": true,
          "internalType": "address",
          "name": "user",
          "type": "address"
        },
        {
          "indexed": false,
          "internalType": "uint256",
          "name": "amount",
          "type": "uint256"
        }
      ],
      "name": "TokensEarned",
      "type": "event"
    },
    {
      "anonymous": false,
      "inputs": [
        {
          "indexed": true,
          "internalType": "address",
          "name": "from",
          "type": "address"
        },
        {
          "indexed": true,
          "internalType": "address",
          "name": "to",
          "type": "address"
        },
        {
          "indexed": false,
          "internalType": "uint256",
          "name": "value",
          "type": "uint256"
        }
      ],
      "name": "Transfer",
      "type": "event"
    },
    {
      "anonymous": false,
      "inputs": [
        {
          "indexed": true,
          "internalType": "address",
          "name": "user",
          "type": "address"
        },
        {
          "indexed": false,
          "internalType": "string",
          "name": "email",
          "type": "string"
        }
      ],
      "name": "UserRegistered",
      "type": "event"
    },
    {
      "inputs": [
        {
          "internalType": "address",
          "name": "owner",
          "type": "address"
        },
        {
          "internalType": "address",
          "name": "spender",
          "type": "address"
        }
      ],
      "name": "allowance",
      "outputs": [
        {
          "internalType": "uint256",
          "name": "",
          "type": "uint256"
        }
      ],
      "stateMutability": "view",
      "type": "function",
      "constant": true
    },
    {
      "inputs": [
        {
          "internalType": "address",
          "name": "spender",
          "type": "address"
        },
        {
          "internalType": "uint256",
          "name": "amount",
          "type": "uint256"
        }
      ],
      "name": "approve",
      "outputs": [
        {
          "internalType": "bool",
          "name": "",
          "type": "bool"
        }
      ],
      "stateMutability": "nonpayable",
      "type": "function"
    },
    {
      "inputs": [
        {
          "internalType": "address",
          "name": "account",
          "type": "address"
        }
      ],
      "name": "balanceOf",
      "outputs": [
        {
          "internalType": "uint256",
          "name": "",
          "type": "uint256"
        }
      ],
      "stateMutability": "view",
      "type": "function",
      "constant": true
    },
    {
      "inputs": [],
      "name": "decimals",
      "outputs": [
        {
          "internalType": "uint8",
          "name": "",
          "type": "uint8"
        }
      ],
      "stateMutability": "view",
      "type": "function",
      "constant": true
    },
    {
      "inputs": [
        {
          "internalType": "address",
          "name": "spender",
          "type": "address"
        },
        {
          "internalType": "uint256",
          "name": "subtractedValue",
          "type": "uint256"
        }
      ],
      "name": "decreaseAllowance",
      "outputs": [
        {
          "internalType": "bool",
          "name": "",
          "type": "bool"
        }
      ],
      "stateMutability": "nonpayable",
      "type": "function"
    },
    {
      "inputs": [
        {
          "internalType": "address",
          "name": "spender",
          "type": "address"
        },
        {
          "internalType": "uint256",
          "name": "addedValue",
          "type": "uint256"
        }
      ],
      "name": "increaseAllowance",
      "outputs": [
        {
          "internalType": "bool",
          "name": "",
          "type": "bool"
        }
      ],
      "stateMutability": "nonpayable",
      "type": "function"
    },
    {
      "inputs": [
        {
          "internalType": "address",
          "name": "",
          "type": "address"
        }
      ],
      "name": "members",
      "outputs": [
        {
          "internalType": "string",
          "name": "email",
          "type": "string"
        },
        {
          "internalType": "uint256",
          "name": "tokens",
          "type": "uint256"
        },
        {
          "internalType": "bool",
          "name": "registered",
          "type": "bool"
        }
      ],
      "stateMutability": "view",
      "type": "function",
      "constant": true
    },
    {
      "inputs": [],
      "name": "name",
      "outputs": [
        {
          "internalType": "string",
          "name": "",
          "type": "string"
        }
      ],
      "stateMutability": "view",
      "type": "function",
      "constant": true
    },
    {
      "inputs": [],
      "name": "owner",
      "outputs": [
        {
          "internalType": "address",
          "name": "",
          "type": "address"
        }
      ],
      "stateMutability": "view",
      "type": "function",
      "constant": true
    },
    {
      "inputs": [],
      "name": "renounceOwnership",
      "outputs": [],
      "stateMutability": "nonpayable",
      "type": "function"
    },
    {
      "inputs": [],
      "name": "symbol",
      "outputs": [
        {
          "internalType": "string",
          "name": "",
          "type": "string"
        }
      ],
      "stateMutability": "view",
      "type": "function",
      "constant": true
    },
    {
      "inputs": [],
      "name": "totalSupply",
      "outputs": [
        {
          "internalType": "uint256",
          "name": "",
          "type": "uint256"
        }
      ],
      "stateMutability": "view",
      "type": "function",
      "constant": true
    },
    {
      "inputs": [
        {
          "internalType": "address",
          "name": "recipient",
          "type": "address"
        },
        {
          "internalType": "uint256",
          "name": "amount",
          "type": "uint256"
        }
      ],
      "name": "transfer",
      "outputs": [
        {
          "internalType": "bool",
          "name": "",
          "type": "bool"
        }
      ],
      "stateMutability": "nonpayable",
      "type": "function"
    },
    {
      "inputs": [
        {
          "internalType": "address",
          "name": "sender",
          "type": "address"
        },
        {
          "internalType": "address",
          "name": "recipient",
          "type": "address"
        },
        {
          "internalType": "uint256",
          "name": "amount",
          "type": "uint256"
        }
      ],
      "name": "transferFrom",
      "outputs": [
        {
          "internalType": "bool",
          "name": "",
          "type": "bool"
        }
      ],
      "stateMutability": "nonpayable",
      "type": "function"
    },
    {
      "inputs": [
        {
          "internalType": "address",
          "name": "newOwner",
          "type": "address"
        }
      ],
      "name": "transferOwnership",
      "outputs": [],
      "stateMutability": "nonpayable",
      "type": "function"
    },
    {
      "inputs": [
        {
          "internalType": "string",
          "name": "_email",
          "type": "string"
        }
      ],
      "name": "registerUser",
      "outputs": [],
      "stateMutability": "nonpayable",
      "type": "function"
    },
    {
      "inputs": [
        {
          "internalType": "address[]",
          "name": "_users",
          "type": "address[]"
        },
        {
          "internalType": "uint256[]",
          "name": "_amounts",
          "type": "uint256[]"
        }
      ],
      "name": "airdropTokens",
      "outputs": [],
      "stateMutability": "nonpayable",
      "type": "function"
    },
    {
      "inputs": [
        {
          "internalType": "uint256",
          "name": "_amount",
          "type": "uint256"
        }
      ],
      "name": "purchaseMerchandise",
      "outputs": [],
      "stateMutability": "nonpayable",
      "type": "function"
    },
    {
      "inputs": [
        {
          "internalType": "uint256",
          "name": "_amount",
          "type": "uint256"
        }
      ],
      "name": "earnTokens",
      "outputs": [],
      "stateMutability": "nonpayable",
      "type": "function"
    },
    {
      "inputs": [
        {
          "internalType": "uint256",
          "name": "_amount",
          "type": "uint256"
        }
      ],
      "name": "contributeToPerformance",
      "outputs": [],
      "stateMutability": "nonpayable",
      "type": "function"
    }
  ],
  "bytecode": "0x60806040523480156200001157600080fd5b506040518060400160405280600881526020017f534456546f6b656e0000000000000000000000000000000000000000000000008152506040518060400160405280600381526020017f534456000000000000000000000000000000000000000000000000000000000081525081600390805190602001906200009692919062000323565b508060049080519060200190620000af92919062000323565b5050506000620000c4620001a860201b60201c565b905080600560006101000a81548173ffffffffffffffffffffffffffffffffffffffff021916908373ffffffffffffffffffffffffffffffffffffffff1602179055508073ffffffffffffffffffffffffffffffffffffffff16600073ffffffffffffffffffffffffffffffffffffffff167f8be0079c531659141344cd1fd0a4f28419497f9722a3daafe3b4186f6b6457e060405160405180910390a350620001a23362000178620001b060201b60201c565b600a6200018691906200052e565b620f42406200019691906200066b565b620001b960201b60201c565b62000784565b600033905090565b60006012905090565b600073ffffffffffffffffffffffffffffffffffffffff168273ffffffffffffffffffffffffffffffffffffffff1614156200022c576040517f08c379a0000000000000000000000000000000000000000000000000000000008152600401620002239062000426565b60405180910390fd5b62000240600083836200031e60201b60201c565b806002600082825462000254919062000476565b92505081905550806000808473ffffffffffffffffffffffffffffffffffffffff1673ffffffffffffffffffffffffffffffffffffffff1681526020019081526020016000206000828254620002ab919062000476565b925050819055508173ffffffffffffffffffffffffffffffffffffffff16600073ffffffffffffffffffffffffffffffffffffffff167fddf252ad1be2c89b69c2b068fc378daa952ba7f163c4a11628f55a4df523b3ef8360405162000312919062000448565b60405180910390a35050565b505050565b8280546200033190620006e3565b90600052602060002090601f016020900481019282620003555760008555620003a1565b82601f106200037057805160ff1916838001178555620003a1565b82800160010185558215620003a1579182015b82811115620003a057825182559160200191906001019062000383565b5b509050620003b09190620003b4565b5090565b5b80821115620003cf576000816000905550600101620003b5565b5090565b6000620003e2601f8362000465565b91507f45524332303a206d696e7420746f20746865207a65726f2061646472657373006000830152602082019050919050565b6200042081620006cc565b82525050565b600060208201905081810360008301526200044181620003d3565b9050919050565b60006020820190506200045f600083018462000415565b92915050565b600082825260208201905092915050565b60006200048382620006cc565b91506200049083620006cc565b9250827fffffffffffffffffffffffffffffffffffffffffffffffffffffffffffffffff03821115620004c857620004c762000719565b5b828201905092915050565b6000808291508390505b60018511156200052557808604811115620004fd57620004fc62000719565b5b60018516156200050d5780820291505b80810290506200051d8562000777565b9450620004dd565b94509492505050565b60006200053b82620006cc565b91506200054883620006d6565b9250620005777fffffffffffffffffffffffffffffffffffffffffffffffffffffffffffffffff84846200057f565b905092915050565b60008262000591576001905062000664565b81620005a1576000905062000664565b8160018114620005ba5760028114620005c557620005fb565b600191505062000664565b60ff841115620005da57620005d962000719565b5b8360020a915084821115620005f457620005f362000719565b5b5062000664565b5060208310610133831016604e8410600b8410161715620006355782820a9050838111156200062f576200062e62000719565b5b62000664565b620006448484846001620004d3565b925090508184048111156200065e576200065d62000719565b5b81810290505b9392505050565b60006200067882620006cc565b91506200068583620006cc565b9250817fffffffffffffffffffffffffffffffffffffffffffffffffffffffffffffffff0483118215151615620006c157620006c062000719565b5b828202905092915050565b6000819050919050565b600060ff82169050919050565b60006002820490506001821680620006fc57607f821691505b6020821081141562000713576200071262000748565b5b50919050565b7f4e487b7100000000000000000000000000000000000000000000000000000000600052601160045260246000fd5b7f4e487b7100000000000000000000000000000000000000000000000000000000600052602260045260246000fd5b60008160011c9050919050565b612f2b80620007946000396000f3fe608060405234801561001057600080fd5b506004361061012c5760003560e01c806370a08231116100ad578063a457c2d711610071578063a457c2d714610333578063a9059cbb14610363578063c72cabdc14610393578063dd62ed3e146103af578063f2fde38b146103df5761012c565b806370a08231146102a1578063715018a6146102d15780638da5cb5b146102db5780638fe76241146102f957806395d89b41146103155761012c565b806330407d76116100f457806330407d76146101ff578063313ce5671461021b5780633950935114610239578063704f1b9414610269578063706f6937146102855761012c565b806306fdde031461013157806308ae4b0c1461014f578063095ea7b31461018157806318160ddd146101b157806323b872dd146101cf575b600080fd5b6101396103fb565b6040516101469190612902565b60405180910390f35b610169600480360381019061016491906120d5565b61048d565b60405161017893929190612924565b60405180910390f35b61019b60048036038101906101969190612189565b61054c565b6040516101a891906128e7565b60405180910390f35b6101b961056a565b6040516101c69190612b82565b60405180910390f35b6101e960048036038101906101e4919061213a565b610574565b6040516101f691906128e7565b60405180910390f35b61021960048036038101906102149190612272565b610675565b005b6102236107b8565b6040516102309190612b9d565b60405180910390f35b610253600480360381019061024e9190612189565b6107c1565b60405161026091906128e7565b60405180910390f35b610283600480360381019061027e9190612231565b61086d565b005b61029f600480360381019061029a91906121c5565b610a44565b005b6102bb60048036038101906102b691906120d5565b610e30565b6040516102c89190612b82565b60405180910390f35b6102d9610e78565b005b6102e3610fb5565b6040516102f091906128cc565b60405180910390f35b610313600480360381019061030e9190612272565b610fdf565b005b61031d61114e565b60405161032a9190612902565b60405180910390f35b61034d60048036038101906103489190612189565b6111e0565b60405161035a91906128e7565b60405180910390f35b61037d60048036038101906103789190612189565b6112d4565b60405161038a91906128e7565b60405180910390f35b6103ad60048036038101906103a89190612272565b6112f2565b005b6103c960048036038101906103c491906120fe565b6114c2565b6040516103d69190612b82565b60405180910390f35b6103f960048036038101906103f491906120d5565b611549565b005b60606003805461040a90612dae565b80601f016020809104026020016040519081016040528092919081815260200182805461043690612dae565b80156104835780601f1061045857610100808354040283529160200191610483565b820191906000526020600020905b81548152906001019060200180831161046657829003601f168201915b5050505050905090565b60066020528060005260406000206000915090508060000180546104b090612dae565b80601f01602080910402602001604051908101604052809291908181526020018280546104dc90612dae565b80156105295780601f106104fe57610100808354040283529160200191610529565b820191906000526020600020905b81548152906001019060200180831161050c57829003601f168201915b5050505050908060010154908060020160009054906101000a900460ff16905083565b60006105606105596116f5565b84846116fd565b6001905092915050565b6000600254905090565b60006105818484846118c8565b6000600160008673ffffffffffffffffffffffffffffffffffffffff1673ffffffffffffffffffffffffffffffffffffffff16815260200190815260200160002060006105cc6116f5565b73ffffffffffffffffffffffffffffffffffffffff1673ffffffffffffffffffffffffffffffffffffffff1681526020019081526020016000205490508281101561064c576040517f08c379a000000000000000000000000000000000000000000000000000000000815260040161064390612a62565b60405180910390fd5b610669856106586116f5565b85846106649190612ce3565b6116fd565b60019150509392505050565b600660003373ffffffffffffffffffffffffffffffffffffffff1673ffffffffffffffffffffffffffffffffffffffff16815260200190815260200160002060020160009054906101000a900460ff16610704576040517f08c379a00000000000000000000000000000000000000000000000000000000081526004016106fb906129e2565b60405180910390fd5b61070e3382611b47565b80600660003373ffffffffffffffffffffffffffffffffffffffff1673ffffffffffffffffffffffffffffffffffffffff16815260200190815260200160002060010160008282546107609190612c8d565b925050819055503373ffffffffffffffffffffffffffffffffffffffff167f949b66d6baaf4912605d046be8fef8d8dac6040bb52018e69a7a805279fbeb15826040516107ad9190612b82565b60405180910390a250565b60006012905090565b60006108636107ce6116f5565b8484600160006107dc6116f5565b73ffffffffffffffffffffffffffffffffffffffff1673ffffffffffffffffffffffffffffffffffffffff16815260200190815260200160002060008873ffffffffffffffffffffffffffffffffffffffff1673ffffffffffffffffffffffffffffffffffffffff1681526020019081526020016000205461085e9190612c8d565b6116fd565b6001905092915050565b600660003373ffffffffffffffffffffffffffffffffffffffff1673ffffffffffffffffffffffffffffffffffffffff16815260200190815260200160002060020160009054906101000a900460ff16156108fd576040517f08c379a00000000000000000000000000000000000000000000000000000000081526004016108f490612aa2565b60405180910390fd5b6000815111610941576040517f08c379a000000000000000000000000000000000000000000000000000000000815260040161093890612ae2565b60405180910390fd5b80600660003373ffffffffffffffffffffffffffffffffffffffff1673ffffffffffffffffffffffffffffffffffffffff1681526020019081526020016000206000019080519060200190610997929190611e74565b506001600660003373ffffffffffffffffffffffffffffffffffffffff1673ffffffffffffffffffffffffffffffffffffffff16815260200190815260200160002060020160006101000a81548160ff0219169083151502179055503373ffffffffffffffffffffffffffffffffffffffff167f48cac28ad4dc618e15f4c2dd5e97751182f166de97b25618318b2112aa951a2f82604051610a399190612902565b60405180910390a250565b610a4c6116f5565b73ffffffffffffffffffffffffffffffffffffffff16610a6a610fb5565b73ffffffffffffffffffffffffffffffffffffffff1614610ac0576040517f08c379a0000000000000000000000000000000000000000000000000000000008152600401610ab790612a82565b60405180910390fd5b8051825114610b04576040517f08c379a0000000000000000000000000000000000000000000000000000000008152600401610afb90612a22565b60405180910390fd5b60005b8251811015610e2b5760066000848381518110610b4d577f4e487b7100000000000000000000000000000000000000000000000000000000600052603260045260246000fd5b602002602001015173ffffffffffffffffffffffffffffffffffffffff1673ffffffffffffffffffffffffffffffffffffffff16815260200190815260200160002060020160009054906101000a900460ff16610bdf576040517f08c379a0000000000000000000000000000000000000000000000000000000008152600401610bd6906129e2565b60405180910390fd5b610c71610bea610fb5565b848381518110610c23577f4e487b7100000000000000000000000000000000000000000000000000000000600052603260045260246000fd5b6020026020010151848481518110610c64577f4e487b7100000000000000000000000000000000000000000000000000000000600052603260045260246000fd5b60200260200101516118c8565b818181518110610caa577f4e487b7100000000000000000000000000000000000000000000000000000000600052603260045260246000fd5b602002602001015160066000858481518110610cef577f4e487b7100000000000000000000000000000000000000000000000000000000600052603260045260246000fd5b602002602001015173ffffffffffffffffffffffffffffffffffffffff1673ffffffffffffffffffffffffffffffffffffffff1681526020019081526020016000206001016000828254610d439190612c8d565b92505081905550828181518110610d83577f4e487b7100000000000000000000000000000000000000000000000000000000600052603260045260246000fd5b602002602001015173ffffffffffffffffffffffffffffffffffffffff167fb82d2a7de6e3c04c554cd659f5f2b8d49c0131c0363c91a4ccef6756d1602990838381518110610dfb577f4e487b7100000000000000000000000000000000000000000000000000000000600052603260045260246000fd5b6020026020010151604051610e109190612b82565b60405180910390a28080610e2390612de0565b915050610b07565b505050565b60008060008373ffffffffffffffffffffffffffffffffffffffff1673ffffffffffffffffffffffffffffffffffffffff168152602001908152602001600020549050919050565b610e806116f5565b73ffffffffffffffffffffffffffffffffffffffff16610e9e610fb5565b73ffffffffffffffffffffffffffffffffffffffff1614610ef4576040517f08c379a0000000000000000000000000000000000000000000000000000000008152600401610eeb90612a82565b60405180910390fd5b600073ffffffffffffffffffffffffffffffffffffffff16600560009054906101000a900473ffffffffffffffffffffffffffffffffffffffff1673ffffffffffffffffffffffffffffffffffffffff167f8be0079c531659141344cd1fd0a4f28419497f9722a3daafe3b4186f6b6457e060405160405180910390a36000600560006101000a81548173ffffffffffffffffffffffffffffffffffffffff021916908373ffffffffffffffffffffffffffffffffffffffff160217905550565b6000600560009054906101000a900473ffffffffffffffffffffffffffffffffffffffff16905090565b600660003373ffffffffffffffffffffffffffffffffffffffff1673ffffffffffffffffffffffffffffffffffffffff16815260200190815260200160002060020160009054906101000a900460ff1661106e576040517f08c379a0000000000000000000000000000000000000000000000000000000008152600401611065906129e2565b60405180910390fd5b80600660003373ffffffffffffffffffffffffffffffffffffffff1673ffffffffffffffffffffffffffffffffffffffff1681526020019081526020016000206001015410156110f3576040517f08c379a00000000000000000000000000000000000000000000000000000000081526004016110ea90612a42565b60405180910390fd5b6110fd3382611c9b565b3373ffffffffffffffffffffffffffffffffffffffff167f6770260ea820d2f539364e7617e021543aaf6d192f2fd2a47c20db6bd99a4eb9826040516111439190612b82565b60405180910390a250565b60606004805461115d90612dae565b80601f016020809104026020016040519081016040528092919081815260200182805461118990612dae565b80156111d65780601f106111ab576101008083540402835291602001916111d6565b820191906000526020600020905b8154815290600101906020018083116111b957829003601f168201915b5050505050905090565b600080600160006111ef6116f5565b73ffffffffffffffffffffffffffffffffffffffff1673ffffffffffffffffffffffffffffffffffffffff16815260200190815260200160002060008573ffffffffffffffffffffffffffffffffffffffff1673ffffffffffffffffffffffffffffffffffffffff168152602001908152602001600020549050828110156112ac576040517f08c379a00000000000000000000000000000000000000000000000000000000081526004016112a390612b42565b60405180910390fd5b6112c96112b76116f5565b8585846112c49190612ce3565b6116fd565b600191505092915050565b60006112e86112e16116f5565b84846118c8565b6001905092915050565b600660003373ffffffffffffffffffffffffffffffffffffffff1673ffffffffffffffffffffffffffffffffffffffff16815260200190815260200160002060020160009054906101000a900460ff16611381576040517f08c379a0000000000000000000000000000000000000000000000000000000008152600401611378906129e2565b60405180910390fd5b80600660003373ffffffffffffffffffffffffffffffffffffffff1673ffffffffffffffffffffffffffffffffffffffff168152602001908152602001600020600101541015611406576040517f08c379a00000000000000000000000000000000000000000000000000000000081526004016113fd90612a42565b60405180910390fd5b61141833611412610fb5565b836118c8565b80600660003373ffffffffffffffffffffffffffffffffffffffff1673ffffffffffffffffffffffffffffffffffffffff168152602001908152602001600020600101600082825461146a9190612ce3565b925050819055503373ffffffffffffffffffffffffffffffffffffffff167fcb39b47db799499d2adb62e43b9592c8a757a9a05859f57b7c92e9798c5663a2826040516114b79190612b82565b60405180910390a250565b6000600160008473ffffffffffffffffffffffffffffffffffffffff1673ffffffffffffffffffffffffffffffffffffffff16815260200190815260200160002060008373ffffffffffffffffffffffffffffffffffffffff1673ffffffffffffffffffffffffffffffffffffffff16815260200190815260200160002054905092915050565b6115516116f5565b73ffffffffffffffffffffffffffffffffffffffff1661156f610fb5565b73ffffffffffffffffffffffffffffffffffffffff16146115c5576040517f08c379a00000000000000000000000000000000000000000000000000000000081526004016115bc90612a82565b60405180910390fd5b600073ffffffffffffffffffffffffffffffffffffffff168173ffffffffffffffffffffffffffffffffffffffff161415611635576040517f08c379a000000000000000000000000000000000000000000000000000000000815260040161162c906129a2565b60405180910390fd5b8073ffffffffffffffffffffffffffffffffffffffff16600560009054906101000a900473ffffffffffffffffffffffffffffffffffffffff1673ffffffffffffffffffffffffffffffffffffffff167f8be0079c531659141344cd1fd0a4f28419497f9722a3daafe3b4186f6b6457e060405160405180910390a380600560006101000a81548173ffffffffffffffffffffffffffffffffffffffff021916908373ffffffffffffffffffffffffffffffffffffffff16021790555050565b600033905090565b600073ffffffffffffffffffffffffffffffffffffffff168373ffffffffffffffffffffffffffffffffffffffff16141561176d576040517f08c379a000000000000000000000000000000000000000000000000000000000815260040161176490612b22565b60405180910390fd5b600073ffffffffffffffffffffffffffffffffffffffff168273ffffffffffffffffffffffffffffffffffffffff1614156117dd576040517f08c379a00000000000000000000000000000000000000000000000000000000081526004016117d4906129c2565b60405180910390fd5b80600160008573ffffffffffffffffffffffffffffffffffffffff1673ffffffffffffffffffffffffffffffffffffffff16815260200190815260200160002060008473ffffffffffffffffffffffffffffffffffffffff1673ffffffffffffffffffffffffffffffffffffffff168152602001908152602001600020819055508173ffffffffffffffffffffffffffffffffffffffff168373ffffffffffffffffffffffffffffffffffffffff167f8c5be1e5ebec7d5bd14f71427d1e84f3dd0314c0f7b2291e5b200ac8c7c3b925836040516118bb9190612b82565b60405180910390a3505050565b600073ffffffffffffffffffffffffffffffffffffffff168373ffffffffffffffffffffffffffffffffffffffff161415611938576040517f08c379a000000000000000000000000000000000000000000000000000000000815260040161192f90612b02565b60405180910390fd5b600073ffffffffffffffffffffffffffffffffffffffff168273ffffffffffffffffffffffffffffffffffffffff1614156119a8576040517f08c379a000000000000000000000000000000000000000000000000000000000815260040161199f90612962565b60405180910390fd5b6119b3838383611e6f565b60008060008573ffffffffffffffffffffffffffffffffffffffff1673ffffffffffffffffffffffffffffffffffffffff16815260200190815260200160002054905081811015611a39576040517f08c379a0000000000000000000000000000000000000000000000000000000008152600401611a3090612a02565b60405180910390fd5b8181611a459190612ce3565b6000808673ffffffffffffffffffffffffffffffffffffffff1673ffffffffffffffffffffffffffffffffffffffff16815260200190815260200160002081905550816000808573ffffffffffffffffffffffffffffffffffffffff1673ffffffffffffffffffffffffffffffffffffffff1681526020019081526020016000206000828254611ad59190612c8d565b925050819055508273ffffffffffffffffffffffffffffffffffffffff168473ffffffffffffffffffffffffffffffffffffffff167fddf252ad1be2c89b69c2b068fc378daa952ba7f163c4a11628f55a4df523b3ef84604051611b399190612b82565b60405180910390a350505050565b600073ffffffffffffffffffffffffffffffffffffffff168273ffffffffffffffffffffffffffffffffffffffff161415611bb7576040517f08c379a0000000000000000000000000000000000000000000000000000000008152600401611bae90612b62565b60405180910390fd5b611bc360008383611e6f565b8060026000828254611bd59190612c8d565b92505081905550806000808473ffffffffffffffffffffffffffffffffffffffff1673ffffffffffffffffffffffffffffffffffffffff1681526020019081526020016000206000828254611c2a9190612c8d565b925050819055508173ffffffffffffffffffffffffffffffffffffffff16600073ffffffffffffffffffffffffffffffffffffffff167fddf252ad1be2c89b69c2b068fc378daa952ba7f163c4a11628f55a4df523b3ef83604051611c8f9190612b82565b60405180910390a35050565b600073ffffffffffffffffffffffffffffffffffffffff168273ffffffffffffffffffffffffffffffffffffffff161415611d0b576040517f08c379a0000000000000000000000000000000000000000000000000000000008152600401611d0290612ac2565b60405180910390fd5b611d1782600083611e6f565b60008060008473ffffffffffffffffffffffffffffffffffffffff1673ffffffffffffffffffffffffffffffffffffffff16815260200190815260200160002054905081811015611d9d576040517f08c379a0000000000000000000000000000000000000000000000000000000008152600401611d9490612982565b60405180910390fd5b8181611da99190612ce3565b6000808573ffffffffffffffffffffffffffffffffffffffff1673ffffffffffffffffffffffffffffffffffffffff168152602001908152602001600020819055508160026000828254611dfd9190612ce3565b92505081905550600073ffffffffffffffffffffffffffffffffffffffff168373ffffffffffffffffffffffffffffffffffffffff167fddf252ad1be2c89b69c2b068fc378daa952ba7f163c4a11628f55a4df523b3ef84604051611e629190612b82565b60405180910390a3505050565b505050565b828054611e8090612dae565b90600052602060002090601f016020900481019282611ea25760008555611ee9565b82601f10611ebb57805160ff1916838001178555611ee9565b82800160010185558215611ee9579182015b82811115611ee8578251825591602001919060010190611ecd565b5b509050611ef69190611efa565b5090565b5b80821115611f13576000816000905550600101611efb565b5090565b6000611f2a611f2584612be9565b612bb8565b90508083825260208201905082856020860282011115611f4957600080fd5b60005b85811015611f795781611f5f888261202d565b845260208401935060208301925050600181019050611f4c565b5050509392505050565b6000611f96611f9184612c15565b612bb8565b90508083825260208201905082856020860282011115611fb557600080fd5b60005b85811015611fe55781611fcb88826120c0565b845260208401935060208301925050600181019050611fb8565b5050509392505050565b6000612002611ffd84612c41565b612bb8565b90508281526020810184848401111561201a57600080fd5b612025848285612d6c565b509392505050565b60008135905061203c81612ec7565b92915050565b600082601f83011261205357600080fd5b8135612063848260208601611f17565b91505092915050565b600082601f83011261207d57600080fd5b813561208d848260208601611f83565b91505092915050565b600082601f8301126120a757600080fd5b81356120b7848260208601611fef565b91505092915050565b6000813590506120cf81612ede565b92915050565b6000602082840312156120e757600080fd5b60006120f58482850161202d565b91505092915050565b6000806040838503121561211157600080fd5b600061211f8582860161202d565b92505060206121308582860161202d565b9150509250929050565b60008060006060848603121561214f57600080fd5b600061215d8682870161202d565b935050602061216e8682870161202d565b925050604061217f868287016120c0565b9150509250925092565b6000806040838503121561219c57600080fd5b60006121aa8582860161202d565b92505060206121bb858286016120c0565b9150509250929050565b600080604083850312156121d857600080fd5b600083013567ffffffffffffffff8111156121f257600080fd5b6121fe85828601612042565b925050602083013567ffffffffffffffff81111561221b57600080fd5b6122278582860161206c565b9150509250929050565b60006020828403121561224357600080fd5b600082013567ffffffffffffffff81111561225d57600080fd5b61226984828501612096565b91505092915050565b60006020828403121561228457600080fd5b6000612292848285016120c0565b91505092915050565b6122a481612d17565b82525050565b6122b381612d29565b82525050565b60006122c482612c71565b6122ce8185612c7c565b93506122de818560208601612d7b565b6122e781612eb6565b840191505092915050565b60006122ff602383612c7c565b91507f45524332303a207472616e7366657220746f20746865207a65726f206164647260008301527f65737300000000000000000000000000000000000000000000000000000000006020830152604082019050919050565b6000612365602283612c7c565b91507f45524332303a206275726e20616d6f756e7420657863656564732062616c616e60008301527f63650000000000000000000000000000000000000000000000000000000000006020830152604082019050919050565b60006123cb602683612c7c565b91507f4f776e61626c653a206e6577206f776e657220697320746865207a65726f206160008301527f64647265737300000000000000000000000000000000000000000000000000006020830152604082019050919050565b6000612431602283612c7c565b91507f45524332303a20617070726f766520746f20746865207a65726f20616464726560008301527f73730000000000000000000000000000000000000000000000000000000000006020830152604082019050919050565b6000612497601383612c7c565b91507f55736572206e6f742072656769737465726564000000000000000000000000006000830152602082019050919050565b60006124d7602683612c7c565b91507f45524332303a207472616e7366657220616d6f756e742065786365656473206260008301527f616c616e636500000000000000000000000000000000000000000000000000006020830152604082019050919050565b600061253d601583612c7c565b91507f496e76616c696420696e707574206c656e6774687300000000000000000000006000830152602082019050919050565b600061257d601283612c7c565b91507f496e73756666696369656e742066756e647300000000000000000000000000006000830152602082019050919050565b60006125bd602883612c7c565b91507f45524332303a207472616e7366657220616d6f756e742065786365656473206160008301527f6c6c6f77616e63650000000000000000000000000000000000000000000000006020830152604082019050919050565b6000612623602083612c7c565b91507f4f776e61626c653a2063616c6c6572206973206e6f7420746865206f776e65726000830152602082019050919050565b6000612663601783612c7c565b91507f5573657220616c726561647920726567697374657265640000000000000000006000830152602082019050919050565b60006126a3602183612c7c565b91507f45524332303a206275726e2066726f6d20746865207a65726f2061646472657360008301527f73000000000000000000000000000000000000000000000000000000000000006020830152604082019050919050565b6000612709601583612c7c565b91507f456d61696c2063616e6e6f7420626520656d70747900000000000000000000006000830152602082019050919050565b6000612749602583612c7c565b91507f45524332303a207472616e736665722066726f6d20746865207a65726f20616460008301527f64726573730000000000000000000000000000000000000000000000000000006020830152604082019050919050565b60006127af602483612c7c565b91507f45524332303a20617070726f76652066726f6d20746865207a65726f2061646460008301527f72657373000000000000000000000000000000000000000000000000000000006020830152604082019050919050565b6000612815602583612c7c565b91507f45524332303a2064656372656173656420616c6c6f77616e63652062656c6f7760008301527f207a65726f0000000000000000000000000000000000000000000000000000006020830152604082019050919050565b600061287b601f83612c7c565b91507f45524332303a206d696e7420746f20746865207a65726f2061646472657373006000830152602082019050919050565b6128b781612d55565b82525050565b6128c681612d5f565b82525050565b60006020820190506128e1600083018461229b565b92915050565b60006020820190506128fc60008301846122aa565b92915050565b6000602082019050818103600083015261291c81846122b9565b905092915050565b6000606082019050818103600083015261293e81866122b9565b905061294d60208301856128ae565b61295a60408301846122aa565b949350505050565b6000602082019050818103600083015261297b816122f2565b9050919050565b6000602082019050818103600083015261299b81612358565b9050919050565b600060208201905081810360008301526129bb816123be565b9050919050565b600060208201905081810360008301526129db81612424565b9050919050565b600060208201905081810360008301526129fb8161248a565b9050919050565b60006020820190508181036000830152612a1b816124ca565b9050919050565b60006020820190508181036000830152612a3b81612530565b9050919050565b60006020820190508181036000830152612a5b81612570565b9050919050565b60006020820190508181036000830152612a7b816125b0565b9050919050565b60006020820190508181036000830152612a9b81612616565b9050919050565b60006020820190508181036000830152612abb81612656565b9050919050565b60006020820190508181036000830152612adb81612696565b9050919050565b60006020820190508181036000830152612afb816126fc565b9050919050565b60006020820190508181036000830152612b1b8161273c565b9050919050565b60006020820190508181036000830152612b3b816127a2565b9050919050565b60006020820190508181036000830152612b5b81612808565b9050919050565b60006020820190508181036000830152612b7b8161286e565b9050919050565b6000602082019050612b9760008301846128ae565b92915050565b6000602082019050612bb260008301846128bd565b92915050565b6000604051905081810181811067ffffffffffffffff82111715612bdf57612bde612e87565b5b8060405250919050565b600067ffffffffffffffff821115612c0457612c03612e87565b5b602082029050602081019050919050565b600067ffffffffffffffff821115612c3057612c2f612e87565b5b602082029050602081019050919050565b600067ffffffffffffffff821115612c5c57612c5b612e87565b5b601f19601f8301169050602081019050919050565b600081519050919050565b600082825260208201905092915050565b6000612c9882612d55565b9150612ca383612d55565b9250827fffffffffffffffffffffffffffffffffffffffffffffffffffffffffffffffff03821115612cd857612cd7612e29565b5b828201905092915050565b6000612cee82612d55565b9150612cf983612d55565b925082821015612d0c57612d0b612e29565b5b828203905092915050565b6000612d2282612d35565b9050919050565b60008115159050919050565b600073ffffffffffffffffffffffffffffffffffffffff82169050919050565b6000819050919050565b600060ff82169050919050565b82818337600083830152505050565b60005b83811015612d99578082015181840152602081019050612d7e565b83811115612da8576000848401525b50505050565b60006002820490506001821680612dc657607f821691505b60208210811415612dda57612dd9612e58565b5b50919050565b6000612deb82612d55565b91507fffffffffffffffffffffffffffffffffffffffffffffffffffffffffffffffff821415612e1e57612e1d612e29565b5b600182019050919050565b7f4e487b7100000000000000000000000000000000000000000000000000000000600052601160045260246000fd5b7f4e487b7100000000000000000000000000000000000000000000000000000000600052602260045260246000fd5b7f4e487b7100000000000000000000000000000000000000000000000000000000600052604160045260246000fd5b6000601f19601f8301169050919050565b612ed081612d17565b8114612edb57600080fd5b50565b612ee781612d55565b8114612ef257600080fd5b5056fea2646970667358221220a3cf71cd8cd2d78f73b92a76ed0ba3f690c839efdfad10a7cfcb2e763574bd3564736f6c63430008000033",
  "immutableReferences": {},
  "source": "// SPDX-License-Identifier: MIT\r\npragma solidity ^0.8.0;\r\n\r\nimport \"@openzeppelin/contracts/token/ERC20/ERC20.sol\";\r\nimport \"@openzeppelin/contracts/access/Ownable.sol\";\r\n\r\ncontract SDVToken is ERC20, Ownable {\r\n    struct Member {\r\n        string email;\r\n        uint256 tokens;\r\n        bool registered;\r\n    }\r\n\r\n    mapping(address => Member) public members;\r\n\r\n    event UserRegistered(address indexed user, string email);\r\n    event TokensAirdropped(address indexed user, uint256 amount);\r\n    event MerchandisePurchased(address indexed user, uint256 amount);\r\n    event TokensEarned(address indexed user, uint256 amount);\r\n    event ContributionMade(address indexed user, uint256 amount);\r\n\r\n    constructor() ERC20(\"SDVToken\", \"SDV\") {\r\n        _mint(msg.sender, 1000000 * 10**decimals());\r\n    }\r\n\r\n    function registerUser(string memory _email) external {\r\n        require(!members[msg.sender].registered, \"User already registered\");\r\n        require(bytes(_email).length > 0, \"Email cannot be empty\");\r\n\r\n        members[msg.sender].email = _email;\r\n        members[msg.sender].registered = true;\r\n\r\n        emit UserRegistered(msg.sender, _email);\r\n    }\r\n\r\n    function airdropTokens(address[] memory _users, uint256[] memory _amounts) external onlyOwner {\r\n        require(_users.length == _amounts.length, \"Invalid input lengths\");\r\n\r\n        for (uint256 i = 0; i < _users.length; i++) {\r\n            require(members[_users[i]].registered, \"User not registered\");\r\n\r\n            _transfer(owner(), _users[i], _amounts[i]);\r\n            members[_users[i]].tokens += _amounts[i];\r\n\r\n            emit TokensAirdropped(_users[i], _amounts[i]);\r\n        }\r\n    }\r\n\r\n    function purchaseMerchandise(uint256 _amount) external {\r\n        require(members[msg.sender].registered, \"User not registered\");\r\n        require(members[msg.sender].tokens >= _amount, \"Insufficient funds\");\r\n\r\n        _transfer(msg.sender, owner(), _amount);\r\n        members[msg.sender].tokens -= _amount;\r\n\r\n        emit MerchandisePurchased(msg.sender, _amount);\r\n    }\r\n\r\n    function earnTokens(uint256 _amount) external {\r\n        require(members[msg.sender].registered, \"User not registered\");\r\n\r\n        _mint(msg.sender, _amount);\r\n        members[msg.sender].tokens += _amount;\r\n\r\n        emit TokensEarned(msg.sender, _amount);\r\n    }\r\n\r\n    function contributeToPerformance(uint256 _amount) external {\r\n        require(members[msg.sender].registered, \"User not registered\");\r\n        require(members[msg.sender].tokens >= _amount, \"Insufficient funds\");\r\n\r\n        // Perform actions related to the contribution, for example store contributed text, update performance details, etc.\r\n\r\n        _burn(msg.sender, _amount);\r\n        emit ContributionMade(msg.sender, _amount);\r\n    }\r\n}\r\n",
  "sourcePath": "C:\\Users\\i\\Documents\\GitHub\\DSP\\contracts\\contracts\\SDVLoyaltyGroupToken.sol",
  "compiler": {
    "name": "solc",
    "version": "0.8.0+commit.c7dfd78e.Emscripten.clang"
  },
  "schemaVersion": "3.4.16",
  "updatedAt": "2024-01-24T14:39:24.743Z",
  "networkType": "ethereum",
  "devdoc": {
    "kind": "dev",
    "methods": {
      "allowance(address,address)": {
        "details": "See {IERC20-allowance}."
      },
      "approve(address,uint256)": {
        "details": "See {IERC20-approve}. Requirements: - `spender` cannot be the zero address."
      },
      "balanceOf(address)": {
        "details": "See {IERC20-balanceOf}."
      },
      "decimals()": {
        "details": "Returns the number of decimals used to get its user representation. For example, if `decimals` equals `2`, a balance of `505` tokens should be displayed to a user as `5,05` (`505 / 10 ** 2`). Tokens usually opt for a value of 18, imitating the relationship between Ether and Wei. This is the value {ERC20} uses, unless this function is overloaded; NOTE: This information is only used for _display_ purposes: it in no way affects any of the arithmetic of the contract, including {IERC20-balanceOf} and {IERC20-transfer}."
      },
      "decreaseAllowance(address,uint256)": {
        "details": "Atomically decreases the allowance granted to `spender` by the caller. This is an alternative to {approve} that can be used as a mitigation for problems described in {IERC20-approve}. Emits an {Approval} event indicating the updated allowance. Requirements: - `spender` cannot be the zero address. - `spender` must have allowance for the caller of at least `subtractedValue`."
      },
      "increaseAllowance(address,uint256)": {
        "details": "Atomically increases the allowance granted to `spender` by the caller. This is an alternative to {approve} that can be used as a mitigation for problems described in {IERC20-approve}. Emits an {Approval} event indicating the updated allowance. Requirements: - `spender` cannot be the zero address."
      },
      "name()": {
        "details": "Returns the name of the token."
      },
      "owner()": {
        "details": "Returns the address of the current owner."
      },
      "renounceOwnership()": {
        "details": "Leaves the contract without owner. It will not be possible to call `onlyOwner` functions anymore. Can only be called by the current owner. NOTE: Renouncing ownership will leave the contract without an owner, thereby removing any functionality that is only available to the owner."
      },
      "symbol()": {
        "details": "Returns the symbol of the token, usually a shorter version of the name."
      },
      "totalSupply()": {
        "details": "See {IERC20-totalSupply}."
      },
      "transfer(address,uint256)": {
        "details": "See {IERC20-transfer}. Requirements: - `recipient` cannot be the zero address. - the caller must have a balance of at least `amount`."
      },
      "transferFrom(address,address,uint256)": {
        "details": "See {IERC20-transferFrom}. Emits an {Approval} event indicating the updated allowance. This is not required by the EIP. See the note at the beginning of {ERC20}. Requirements: - `sender` and `recipient` cannot be the zero address. - `sender` must have a balance of at least `amount`. - the caller must have allowance for ``sender``'s tokens of at least `amount`."
      },
      "transferOwnership(address)": {
        "details": "Transfers ownership of the contract to a new account (`newOwner`). Can only be called by the current owner."
      }
    },
    "version": 1
  },
  "userdoc": {
    "kind": "user",
    "methods": {},
    "version": 1
  }
}