{
  "contractName": "SDVToken",
  "abi": [
    {
      "inputs": [],
      "stateMutability": "nonpayable",
      "type": "constructor"
    },
    {
      "anonymous": false,
      "inputs": [
        {
          "indexed": true,
          "internalType": "address",
          "name": "owner",
          "type": "address"
        },
        {
          "indexed": true,
          "internalType": "address",
          "name": "spender",
          "type": "address"
        },
        {
          "indexed": false,
          "internalType": "uint256",
          "name": "value",
          "type": "uint256"
        }
      ],
      "name": "Approval",
      "type": "event"
    },
    {
      "anonymous": false,
      "inputs": [
        {
          "indexed": true,
          "internalType": "address",
          "name": "user",
          "type": "address"
        },
        {
          "indexed": false,
          "internalType": "uint256",
          "name": "amount",
          "type": "uint256"
        }
      ],
      "name": "MerchandisePurchased",
      "type": "event"
    },
    {
      "anonymous": false,
      "inputs": [
        {
          "indexed": true,
          "internalType": "address",
          "name": "previousOwner",
          "type": "address"
        },
        {
          "indexed": true,
          "internalType": "address",
          "name": "newOwner",
          "type": "address"
        }
      ],
      "name": "OwnershipTransferred",
      "type": "event"
    },
    {
      "anonymous": false,
      "inputs": [
        {
          "indexed": true,
          "internalType": "address",
          "name": "user",
          "type": "address"
        },
        {
          "indexed": false,
          "internalType": "uint256",
          "name": "amount",
          "type": "uint256"
        }
      ],
      "name": "PointsEarned",
      "type": "event"
    },
    {
      "anonymous": false,
      "inputs": [
        {
          "indexed": true,
          "internalType": "address",
          "name": "user",
          "type": "address"
        },
        {
          "indexed": false,
          "internalType": "uint256",
          "name": "points",
          "type": "uint256"
        },
        {
          "indexed": false,
          "internalType": "uint256",
          "name": "tokens",
          "type": "uint256"
        }
      ],
      "name": "PointsExchanged",
      "type": "event"
    },
    {
      "anonymous": false,
      "inputs": [
        {
          "indexed": true,
          "internalType": "address",
          "name": "user",
          "type": "address"
        },
        {
          "indexed": false,
          "internalType": "enum SDVToken.Status",
          "name": "status",
          "type": "uint8"
        }
      ],
      "name": "StatusUpdated",
      "type": "event"
    },
    {
      "anonymous": false,
      "inputs": [
        {
          "indexed": true,
          "internalType": "address",
          "name": "user",
          "type": "address"
        },
        {
          "indexed": false,
          "internalType": "uint256",
          "name": "amount",
          "type": "uint256"
        }
      ],
      "name": "TokensAirdropped",
      "type": "event"
    },
    {
      "anonymous": false,
      "inputs": [
        {
          "indexed": true,
          "internalType": "address",
          "name": "owner",
          "type": "address"
        },
        {
          "indexed": true,
          "internalType": "address",
          "name": "spender",
          "type": "address"
        },
        {
          "indexed": false,
          "internalType": "uint256",
          "name": "amount",
          "type": "uint256"
        }
      ],
      "name": "TokensApproved",
      "type": "event"
    },
    {
      "anonymous": false,
      "inputs": [
        {
          "indexed": true,
          "internalType": "address",
          "name": "from",
          "type": "address"
        },
        {
          "indexed": true,
          "internalType": "address",
          "name": "to",
          "type": "address"
        },
        {
          "indexed": false,
          "internalType": "uint256",
          "name": "value",
          "type": "uint256"
        }
      ],
      "name": "Transfer",
      "type": "event"
    },
    {
      "anonymous": false,
      "inputs": [
        {
          "indexed": true,
          "internalType": "address",
          "name": "user",
          "type": "address"
        },
        {
          "indexed": false,
          "internalType": "string",
          "name": "email",
          "type": "string"
        }
      ],
      "name": "UserRegistered",
      "type": "event"
    },
    {
      "inputs": [
        {
          "internalType": "address",
          "name": "owner",
          "type": "address"
        },
        {
          "internalType": "address",
          "name": "spender",
          "type": "address"
        }
      ],
      "name": "allowance",
      "outputs": [
        {
          "internalType": "uint256",
          "name": "",
          "type": "uint256"
        }
      ],
      "stateMutability": "view",
      "type": "function",
      "constant": true
    },
    {
      "inputs": [
        {
          "internalType": "address",
          "name": "account",
          "type": "address"
        }
      ],
      "name": "balanceOf",
      "outputs": [
        {
          "internalType": "uint256",
          "name": "",
          "type": "uint256"
        }
      ],
      "stateMutability": "view",
      "type": "function",
      "constant": true
    },
    {
      "inputs": [],
      "name": "decimals",
      "outputs": [
        {
          "internalType": "uint8",
          "name": "",
          "type": "uint8"
        }
      ],
      "stateMutability": "view",
      "type": "function",
      "constant": true
    },
    {
      "inputs": [
        {
          "internalType": "address",
          "name": "spender",
          "type": "address"
        },
        {
          "internalType": "uint256",
          "name": "subtractedValue",
          "type": "uint256"
        }
      ],
      "name": "decreaseAllowance",
      "outputs": [
        {
          "internalType": "bool",
          "name": "",
          "type": "bool"
        }
      ],
      "stateMutability": "nonpayable",
      "type": "function"
    },
    {
      "inputs": [
        {
          "internalType": "address",
          "name": "spender",
          "type": "address"
        },
        {
          "internalType": "uint256",
          "name": "addedValue",
          "type": "uint256"
        }
      ],
      "name": "increaseAllowance",
      "outputs": [
        {
          "internalType": "bool",
          "name": "",
          "type": "bool"
        }
      ],
      "stateMutability": "nonpayable",
      "type": "function"
    },
    {
      "inputs": [
        {
          "internalType": "address",
          "name": "",
          "type": "address"
        }
      ],
      "name": "members",
      "outputs": [
        {
          "internalType": "string",
          "name": "email",
          "type": "string"
        },
        {
          "internalType": "uint256",
          "name": "tokens",
          "type": "uint256"
        },
        {
          "internalType": "uint256",
          "name": "points",
          "type": "uint256"
        },
        {
          "internalType": "enum SDVToken.Status",
          "name": "status",
          "type": "uint8"
        },
        {
          "internalType": "bool",
          "name": "registered",
          "type": "bool"
        }
      ],
      "stateMutability": "view",
      "type": "function",
      "constant": true
    },
    {
      "inputs": [],
      "name": "name",
      "outputs": [
        {
          "internalType": "string",
          "name": "",
          "type": "string"
        }
      ],
      "stateMutability": "view",
      "type": "function",
      "constant": true
    },
    {
      "inputs": [],
      "name": "owner",
      "outputs": [
        {
          "internalType": "address",
          "name": "",
          "type": "address"
        }
      ],
      "stateMutability": "view",
      "type": "function",
      "constant": true
    },
    {
      "inputs": [
        {
          "internalType": "uint256",
          "name": "",
          "type": "uint256"
        }
      ],
      "name": "registeredUsers",
      "outputs": [
        {
          "internalType": "address",
          "name": "",
          "type": "address"
        }
      ],
      "stateMutability": "view",
      "type": "function",
      "constant": true
    },
    {
      "inputs": [],
      "name": "renounceOwnership",
      "outputs": [],
      "stateMutability": "nonpayable",
      "type": "function"
    },
    {
      "inputs": [],
      "name": "symbol",
      "outputs": [
        {
          "internalType": "string",
          "name": "",
          "type": "string"
        }
      ],
      "stateMutability": "view",
      "type": "function",
      "constant": true
    },
    {
      "inputs": [],
      "name": "totalSupply",
      "outputs": [
        {
          "internalType": "uint256",
          "name": "",
          "type": "uint256"
        }
      ],
      "stateMutability": "view",
      "type": "function",
      "constant": true
    },
    {
      "inputs": [
        {
          "internalType": "address",
          "name": "recipient",
          "type": "address"
        },
        {
          "internalType": "uint256",
          "name": "amount",
          "type": "uint256"
        }
      ],
      "name": "transfer",
      "outputs": [
        {
          "internalType": "bool",
          "name": "",
          "type": "bool"
        }
      ],
      "stateMutability": "nonpayable",
      "type": "function"
    },
    {
      "inputs": [
        {
          "internalType": "address",
          "name": "sender",
          "type": "address"
        },
        {
          "internalType": "address",
          "name": "recipient",
          "type": "address"
        },
        {
          "internalType": "uint256",
          "name": "amount",
          "type": "uint256"
        }
      ],
      "name": "transferFrom",
      "outputs": [
        {
          "internalType": "bool",
          "name": "",
          "type": "bool"
        }
      ],
      "stateMutability": "nonpayable",
      "type": "function"
    },
    {
      "inputs": [
        {
          "internalType": "address",
          "name": "newOwner",
          "type": "address"
        }
      ],
      "name": "transferOwnership",
      "outputs": [],
      "stateMutability": "nonpayable",
      "type": "function"
    },
    {
      "inputs": [
        {
          "internalType": "string",
          "name": "_email",
          "type": "string"
        }
      ],
      "name": "registerUser",
      "outputs": [],
      "stateMutability": "nonpayable",
      "type": "function"
    },
    {
      "inputs": [
        {
          "internalType": "address",
          "name": "_user",
          "type": "address"
        }
      ],
      "name": "getStatus",
      "outputs": [
        {
          "internalType": "enum SDVToken.Status",
          "name": "",
          "type": "uint8"
        }
      ],
      "stateMutability": "view",
      "type": "function",
      "constant": true
    },
    {
      "inputs": [],
      "name": "getAllUsers",
      "outputs": [
        {
          "internalType": "address[]",
          "name": "",
          "type": "address[]"
        },
        {
          "internalType": "enum SDVToken.Status[]",
          "name": "",
          "type": "uint8[]"
        }
      ],
      "stateMutability": "view",
      "type": "function",
      "constant": true
    },
    {
      "inputs": [
        {
          "internalType": "address[]",
          "name": "_users",
          "type": "address[]"
        },
        {
          "internalType": "uint256[]",
          "name": "_amounts",
          "type": "uint256[]"
        }
      ],
      "name": "airdropTokens",
      "outputs": [],
      "stateMutability": "nonpayable",
      "type": "function"
    },
    {
      "inputs": [
        {
          "internalType": "uint256",
          "name": "_amount",
          "type": "uint256"
        }
      ],
      "name": "purchaseMerchandise",
      "outputs": [],
      "stateMutability": "nonpayable",
      "type": "function"
    },
    {
      "inputs": [
        {
          "internalType": "uint256",
          "name": "_amount",
          "type": "uint256"
        }
      ],
      "name": "earnPoints",
      "outputs": [],
      "stateMutability": "nonpayable",
      "type": "function"
    },
    {
      "inputs": [
        {
          "internalType": "uint256",
          "name": "_pointsToExchange",
          "type": "uint256"
        }
      ],
      "name": "exchangePointsForTokens",
      "outputs": [],
      "stateMutability": "nonpayable",
      "type": "function"
    },
    {
      "inputs": [
        {
          "internalType": "address",
          "name": "spender",
          "type": "address"
        },
        {
          "internalType": "uint256",
          "name": "amount",
          "type": "uint256"
        }
      ],
      "name": "approve",
      "outputs": [
        {
          "internalType": "bool",
          "name": "",
          "type": "bool"
        }
      ],
      "stateMutability": "nonpayable",
      "type": "function"
    },
    {
      "inputs": [
        {
          "internalType": "address",
          "name": "user",
          "type": "address"
        }
      ],
      "name": "getPointsBalance",
      "outputs": [
        {
          "internalType": "uint256",
          "name": "",
          "type": "uint256"
        }
      ],
      "stateMutability": "view",
      "type": "function",
      "constant": true
    },
    {
      "inputs": [],
      "name": "getCommonPoolBalance",
      "outputs": [
        {
          "internalType": "uint256",
          "name": "",
          "type": "uint256"
        }
      ],
      "stateMutability": "view",
      "type": "function",
      "constant": true
    }
  ],
  "bytecode": "0x60806040523480156200001157600080fd5b506040518060400160405280600881526020017f534456546f6b656e0000000000000000000000000000000000000000000000008152506040518060400160405280600381526020017f534456000000000000000000000000000000000000000000000000000000000081525081600390805190602001906200009692919062000323565b508060049080519060200190620000af92919062000323565b5050506000620000c4620001a860201b60201c565b905080600560006101000a81548173ffffffffffffffffffffffffffffffffffffffff021916908373ffffffffffffffffffffffffffffffffffffffff1602179055508073ffffffffffffffffffffffffffffffffffffffff16600073ffffffffffffffffffffffffffffffffffffffff167f8be0079c531659141344cd1fd0a4f28419497f9722a3daafe3b4186f6b6457e060405160405180910390a350620001a23362000178620001b060201b60201c565b600a6200018691906200052e565b620f42406200019691906200066b565b620001b960201b60201c565b62000784565b600033905090565b60006012905090565b600073ffffffffffffffffffffffffffffffffffffffff168273ffffffffffffffffffffffffffffffffffffffff1614156200022c576040517f08c379a0000000000000000000000000000000000000000000000000000000008152600401620002239062000426565b60405180910390fd5b62000240600083836200031e60201b60201c565b806002600082825462000254919062000476565b92505081905550806000808473ffffffffffffffffffffffffffffffffffffffff1673ffffffffffffffffffffffffffffffffffffffff1681526020019081526020016000206000828254620002ab919062000476565b925050819055508173ffffffffffffffffffffffffffffffffffffffff16600073ffffffffffffffffffffffffffffffffffffffff167fddf252ad1be2c89b69c2b068fc378daa952ba7f163c4a11628f55a4df523b3ef8360405162000312919062000448565b60405180910390a35050565b505050565b8280546200033190620006e3565b90600052602060002090601f016020900481019282620003555760008555620003a1565b82601f106200037057805160ff1916838001178555620003a1565b82800160010185558215620003a1579182015b82811115620003a057825182559160200191906001019062000383565b5b509050620003b09190620003b4565b5090565b5b80821115620003cf576000816000905550600101620003b5565b5090565b6000620003e2601f8362000465565b91507f45524332303a206d696e7420746f20746865207a65726f2061646472657373006000830152602082019050919050565b6200042081620006cc565b82525050565b600060208201905081810360008301526200044181620003d3565b9050919050565b60006020820190506200045f600083018462000415565b92915050565b600082825260208201905092915050565b60006200048382620006cc565b91506200049083620006cc565b9250827fffffffffffffffffffffffffffffffffffffffffffffffffffffffffffffffff03821115620004c857620004c762000719565b5b828201905092915050565b6000808291508390505b60018511156200052557808604811115620004fd57620004fc62000719565b5b60018516156200050d5780820291505b80810290506200051d8562000777565b9450620004dd565b94509492505050565b60006200053b82620006cc565b91506200054883620006d6565b9250620005777fffffffffffffffffffffffffffffffffffffffffffffffffffffffffffffffff84846200057f565b905092915050565b60008262000591576001905062000664565b81620005a1576000905062000664565b8160018114620005ba5760028114620005c557620005fb565b600191505062000664565b60ff841115620005da57620005d962000719565b5b8360020a915084821115620005f457620005f362000719565b5b5062000664565b5060208310610133831016604e8410600b8410161715620006355782820a9050838111156200062f576200062e62000719565b5b62000664565b620006448484846001620004d3565b925090508184048111156200065e576200065d62000719565b5b81810290505b9392505050565b60006200067882620006cc565b91506200068583620006cc565b9250817fffffffffffffffffffffffffffffffffffffffffffffffffffffffffffffffff0483118215151615620006c157620006c062000719565b5b828202905092915050565b6000819050919050565b600060ff82169050919050565b60006002820490506001821680620006fc57607f821691505b6020821081141562000713576200071262000748565b5b50919050565b7f4e487b7100000000000000000000000000000000000000000000000000000000600052601160045260246000fd5b7f4e487b7100000000000000000000000000000000000000000000000000000000600052602260045260246000fd5b60008160011c9050919050565b613c7980620007946000396000f3fe608060405234801561001057600080fd5b50600436106101735760003560e01c806370a08231116100de578063a457c2d711610097578063dd62ed3e11610071578063dd62ed3e14610476578063e2842d79146104a6578063e707f36f146104c5578063f2fde38b146104f557610173565b8063a457c2d7146103fa578063a9059cbb1461042a578063c72cabdc1461045a57610173565b806370a0823114610338578063715018a6146103685780637259e0f81461037257806385932345146103a25780638da5cb5b146103be57806395d89b41146103dc57610173565b806323f857b81161013057806323f857b81461026657806330ccebb514610282578063313ce567146102b257806339509351146102d0578063704f1b9414610300578063706f69371461031c57610173565b806306fdde031461017857806308ae4b0c14610196578063095ea7b3146101ca57806318160ddd146101fa5780631b78b55d1461021857806323b872dd14610236575b600080fd5b610180610511565b60405161018d9190613319565b60405180910390f35b6101b060048036038101906101ab9190612a0d565b6105a3565b6040516101c195949392919061333b565b60405180910390f35b6101e460048036038101906101df9190612ac1565b61067b565b6040516101f191906132e3565b60405180910390f35b610202610705565b60405161020f9190613595565b60405180910390f35b61022061070f565b60405161022d9190613595565b60405180910390f35b610250600480360381019061024b9190612a72565b61071f565b60405161025d91906132e3565b60405180910390f35b610280600480360381019061027b9190612baa565b610820565b005b61029c60048036038101906102979190612a0d565b610b4e565b6040516102a991906132fe565b60405180910390f35b6102ba610ba7565b6040516102c791906135d9565b60405180910390f35b6102ea60048036038101906102e59190612ac1565b610bb0565b6040516102f791906132e3565b60405180910390f35b61031a60048036038101906103159190612b69565b610c5c565b005b61033660048036038101906103319190612afd565b610f3c565b005b610352600480360381019061034d9190612a0d565b611328565b60405161035f9190613595565b60405180910390f35b610370611370565b005b61038c60048036038101906103879190612baa565b6114ad565b6040516103999190613291565b60405180910390f35b6103bc60048036038101906103b79190612baa565b6114ec565b005b6103c6611625565b6040516103d39190613291565b60405180910390f35b6103e461164f565b6040516103f19190613319565b60405180910390f35b610414600480360381019061040f9190612ac1565b6116e1565b60405161042191906132e3565b60405180910390f35b610444600480360381019061043f9190612ac1565b6117d5565b60405161045191906132e3565b60405180910390f35b610474600480360381019061046f9190612baa565b6117f3565b005b610490600480360381019061048b9190612a36565b6119c3565b60405161049d9190613595565b60405180910390f35b6104ae611a4a565b6040516104bc9291906132ac565b60405180910390f35b6104df60048036038101906104da9190612a0d565b611d4e565b6040516104ec9190613595565b60405180910390f35b61050f600480360381019061050a9190612a0d565b611d9a565b005b60606003805461052090613a7d565b80601f016020809104026020016040519081016040528092919081815260200182805461054c90613a7d565b80156105995780601f1061056e57610100808354040283529160200191610599565b820191906000526020600020905b81548152906001019060200180831161057c57829003601f168201915b5050505050905090565b60066020528060005260406000206000915090508060000180546105c690613a7d565b80601f01602080910402602001604051908101604052809291908181526020018280546105f290613a7d565b801561063f5780601f106106145761010080835404028352916020019161063f565b820191906000526020600020905b81548152906001019060200180831161062257829003601f168201915b5050505050908060010154908060020154908060030160009054906101000a900460ff16908060030160019054906101000a900460ff16905085565b600061068f610688611f46565b8484611f4e565b8273ffffffffffffffffffffffffffffffffffffffff166106ae611f46565b73ffffffffffffffffffffffffffffffffffffffff167f8c5be1e5ebec7d5bd14f71427d1e84f3dd0314c0f7b2291e5b200ac8c7c3b925846040516106f39190613595565b60405180910390a36001905092915050565b6000600254905090565b600061071a30611328565b905090565b600061072c848484612119565b6000600160008673ffffffffffffffffffffffffffffffffffffffff1673ffffffffffffffffffffffffffffffffffffffff1681526020019081526020016000206000610777611f46565b73ffffffffffffffffffffffffffffffffffffffff1673ffffffffffffffffffffffffffffffffffffffff168152602001908152602001600020549050828110156107f7576040517f08c379a00000000000000000000000000000000000000000000000000000000081526004016107ee90613475565b60405180910390fd5b61081485610803611f46565b858461080f919061398d565b611f4e565b60019150509392505050565b600660003373ffffffffffffffffffffffffffffffffffffffff1673ffffffffffffffffffffffffffffffffffffffff16815260200190815260200160002060030160019054906101000a900460ff166108af576040517f08c379a00000000000000000000000000000000000000000000000000000000081526004016108a6906133f5565b60405180910390fd5b80600660003373ffffffffffffffffffffffffffffffffffffffff1673ffffffffffffffffffffffffffffffffffffffff168152602001908152602001600020600201541015610934576040517f08c379a000000000000000000000000000000000000000000000000000000000815260040161092b90613515565b60405180910390fd5b60008190506000606460028361094a9190613933565b6109549190613791565b905060008183610964919061398d565b90506109703382612398565b80600660003373ffffffffffffffffffffffffffffffffffffffff1673ffffffffffffffffffffffffffffffffffffffff16815260200190815260200160002060010160008282546109c2919061373b565b9250508190555083600660003373ffffffffffffffffffffffffffffffffffffffff1673ffffffffffffffffffffffffffffffffffffffff1681526020019081526020016000206002016000828254610a1b919061398d565b92505081905550610a2c3083612398565b3373ffffffffffffffffffffffffffffffffffffffff16600073ffffffffffffffffffffffffffffffffffffffff167fddf252ad1be2c89b69c2b068fc378daa952ba7f163c4a11628f55a4df523b3ef83604051610a8a9190613595565b60405180910390a33073ffffffffffffffffffffffffffffffffffffffff16600073ffffffffffffffffffffffffffffffffffffffff167fddf252ad1be2c89b69c2b068fc378daa952ba7f163c4a11628f55a4df523b3ef84604051610af09190613595565b60405180910390a33373ffffffffffffffffffffffffffffffffffffffff167ffe5afbc6767cd9a9d720adc8f98d515579c8eba66ad45e4f42f88324fb260d658585604051610b409291906135b0565b60405180910390a250505050565b6000600660008373ffffffffffffffffffffffffffffffffffffffff1673ffffffffffffffffffffffffffffffffffffffff16815260200190815260200160002060030160009054906101000a900460ff169050919050565b60006012905090565b6000610c52610bbd611f46565b848460016000610bcb611f46565b73ffffffffffffffffffffffffffffffffffffffff1673ffffffffffffffffffffffffffffffffffffffff16815260200190815260200160002060008873ffffffffffffffffffffffffffffffffffffffff1673ffffffffffffffffffffffffffffffffffffffff16815260200190815260200160002054610c4d919061373b565b611f4e565b6001905092915050565b600660003373ffffffffffffffffffffffffffffffffffffffff1673ffffffffffffffffffffffffffffffffffffffff16815260200190815260200160002060030160019054906101000a900460ff1615610cec576040517f08c379a0000000000000000000000000000000000000000000000000000000008152600401610ce3906134b5565b60405180910390fd5b6000815111610d30576040517f08c379a0000000000000000000000000000000000000000000000000000000008152600401610d27906134d5565b60405180910390fd5b80600660003373ffffffffffffffffffffffffffffffffffffffff1673ffffffffffffffffffffffffffffffffffffffff1681526020019081526020016000206000019080519060200190610d869291906127ac565b506001600660003373ffffffffffffffffffffffffffffffffffffffff1673ffffffffffffffffffffffffffffffffffffffff16815260200190815260200160002060030160016101000a81548160ff0219169083151502179055506007339080600181540180825580915050600190039060005260206000200160009091909190916101000a81548173ffffffffffffffffffffffffffffffffffffffff021916908373ffffffffffffffffffffffffffffffffffffffff160217905550610e4e336124ec565b3373ffffffffffffffffffffffffffffffffffffffff167f48cac28ad4dc618e15f4c2dd5e97751182f166de97b25618318b2112aa951a2f82604051610e949190613319565b60405180910390a23373ffffffffffffffffffffffffffffffffffffffff167fa7cc6673952dd2140cd171b21cdf21825b0f34e690500ecf38ed0aeb006f356e600660003373ffffffffffffffffffffffffffffffffffffffff1673ffffffffffffffffffffffffffffffffffffffff16815260200190815260200160002060030160009054906101000a900460ff16604051610f3191906132fe565b60405180910390a250565b610f44611f46565b73ffffffffffffffffffffffffffffffffffffffff16610f62611625565b73ffffffffffffffffffffffffffffffffffffffff1614610fb8576040517f08c379a0000000000000000000000000000000000000000000000000000000008152600401610faf90613495565b60405180910390fd5b8051825114610ffc576040517f08c379a0000000000000000000000000000000000000000000000000000000008152600401610ff390613435565b60405180910390fd5b60005b82518110156113235760066000848381518110611045577f4e487b7100000000000000000000000000000000000000000000000000000000600052603260045260246000fd5b602002602001015173ffffffffffffffffffffffffffffffffffffffff1673ffffffffffffffffffffffffffffffffffffffff16815260200190815260200160002060030160019054906101000a900460ff166110d7576040517f08c379a00000000000000000000000000000000000000000000000000000000081526004016110ce906133f5565b60405180910390fd5b6111696110e2611625565b84838151811061111b577f4e487b7100000000000000000000000000000000000000000000000000000000600052603260045260246000fd5b602002602001015184848151811061115c577f4e487b7100000000000000000000000000000000000000000000000000000000600052603260045260246000fd5b6020026020010151612119565b8181815181106111a2577f4e487b7100000000000000000000000000000000000000000000000000000000600052603260045260246000fd5b6020026020010151600660008584815181106111e7577f4e487b7100000000000000000000000000000000000000000000000000000000600052603260045260246000fd5b602002602001015173ffffffffffffffffffffffffffffffffffffffff1673ffffffffffffffffffffffffffffffffffffffff168152602001908152602001600020600101600082825461123b919061373b565b9250508190555082818151811061127b577f4e487b7100000000000000000000000000000000000000000000000000000000600052603260045260246000fd5b602002602001015173ffffffffffffffffffffffffffffffffffffffff167fb82d2a7de6e3c04c554cd659f5f2b8d49c0131c0363c91a4ccef6756d16029908383815181106112f3577f4e487b7100000000000000000000000000000000000000000000000000000000600052603260045260246000fd5b60200260200101516040516113089190613595565b60405180910390a2808061131b90613aaf565b915050610fff565b505050565b60008060008373ffffffffffffffffffffffffffffffffffffffff1673ffffffffffffffffffffffffffffffffffffffff168152602001908152602001600020549050919050565b611378611f46565b73ffffffffffffffffffffffffffffffffffffffff16611396611625565b73ffffffffffffffffffffffffffffffffffffffff16146113ec576040517f08c379a00000000000000000000000000000000000000000000000000000000081526004016113e390613495565b60405180910390fd5b600073ffffffffffffffffffffffffffffffffffffffff16600560009054906101000a900473ffffffffffffffffffffffffffffffffffffffff1673ffffffffffffffffffffffffffffffffffffffff167f8be0079c531659141344cd1fd0a4f28419497f9722a3daafe3b4186f6b6457e060405160405180910390a36000600560006101000a81548173ffffffffffffffffffffffffffffffffffffffff021916908373ffffffffffffffffffffffffffffffffffffffff160217905550565b600781815481106114bd57600080fd5b906000526020600020016000915054906101000a900473ffffffffffffffffffffffffffffffffffffffff1681565b600660003373ffffffffffffffffffffffffffffffffffffffff1673ffffffffffffffffffffffffffffffffffffffff16815260200190815260200160002060030160019054906101000a900460ff1661157b576040517f08c379a0000000000000000000000000000000000000000000000000000000008152600401611572906133f5565b60405180910390fd5b80600660003373ffffffffffffffffffffffffffffffffffffffff1673ffffffffffffffffffffffffffffffffffffffff16815260200190815260200160002060020160008282546115cd919061373b565b925050819055503373ffffffffffffffffffffffffffffffffffffffff167f2c4c0dc427a50c4a69d2fc184c47a311acf950d8d2f289fbaee64e83e9b289678260405161161a9190613595565b60405180910390a250565b6000600560009054906101000a900473ffffffffffffffffffffffffffffffffffffffff16905090565b60606004805461165e90613a7d565b80601f016020809104026020016040519081016040528092919081815260200182805461168a90613a7d565b80156116d75780601f106116ac576101008083540402835291602001916116d7565b820191906000526020600020905b8154815290600101906020018083116116ba57829003601f168201915b5050505050905090565b600080600160006116f0611f46565b73ffffffffffffffffffffffffffffffffffffffff1673ffffffffffffffffffffffffffffffffffffffff16815260200190815260200160002060008573ffffffffffffffffffffffffffffffffffffffff1673ffffffffffffffffffffffffffffffffffffffff168152602001908152602001600020549050828110156117ad576040517f08c379a00000000000000000000000000000000000000000000000000000000081526004016117a490613555565b60405180910390fd5b6117ca6117b8611f46565b8585846117c5919061398d565b611f4e565b600191505092915050565b60006117e96117e2611f46565b8484612119565b6001905092915050565b600660003373ffffffffffffffffffffffffffffffffffffffff1673ffffffffffffffffffffffffffffffffffffffff16815260200190815260200160002060030160019054906101000a900460ff16611882576040517f08c379a0000000000000000000000000000000000000000000000000000000008152600401611879906133f5565b60405180910390fd5b80600660003373ffffffffffffffffffffffffffffffffffffffff1673ffffffffffffffffffffffffffffffffffffffff168152602001908152602001600020600101541015611907576040517f08c379a00000000000000000000000000000000000000000000000000000000081526004016118fe90613455565b60405180910390fd5b61191933611913611625565b83612119565b80600660003373ffffffffffffffffffffffffffffffffffffffff1673ffffffffffffffffffffffffffffffffffffffff168152602001908152602001600020600101600082825461196b919061398d565b925050819055503373ffffffffffffffffffffffffffffffffffffffff167fcb39b47db799499d2adb62e43b9592c8a757a9a05859f57b7c92e9798c5663a2826040516119b89190613595565b60405180910390a250565b6000600160008473ffffffffffffffffffffffffffffffffffffffff1673ffffffffffffffffffffffffffffffffffffffff16815260200190815260200160002060008373ffffffffffffffffffffffffffffffffffffffff1673ffffffffffffffffffffffffffffffffffffffff16815260200190815260200160002054905092915050565b6060806000600780549050905060008167ffffffffffffffff811115611a99577f4e487b7100000000000000000000000000000000000000000000000000000000600052604160045260246000fd5b604051908082528060200260200182016040528015611ac75781602001602082028036833780820191505090505b50905060008267ffffffffffffffff811115611b0c577f4e487b7100000000000000000000000000000000000000000000000000000000600052604160045260246000fd5b604051908082528060200260200182016040528015611b3a5781602001602082028036833780820191505090505b50905060005b83811015611d4057600060078281548110611b84577f4e487b7100000000000000000000000000000000000000000000000000000000600052603260045260246000fd5b9060005260206000200160009054906101000a900473ffffffffffffffffffffffffffffffffffffffff16905080848381518110611beb577f4e487b7100000000000000000000000000000000000000000000000000000000600052603260045260246000fd5b602002602001019073ffffffffffffffffffffffffffffffffffffffff16908173ffffffffffffffffffffffffffffffffffffffff1681525050600660008273ffffffffffffffffffffffffffffffffffffffff1673ffffffffffffffffffffffffffffffffffffffff16815260200190815260200160002060030160009054906101000a900460ff16838381518110611cae577f4e487b7100000000000000000000000000000000000000000000000000000000600052603260045260246000fd5b60200260200101906002811115611cee577f4e487b7100000000000000000000000000000000000000000000000000000000600052602160045260246000fd5b90816002811115611d28577f4e487b7100000000000000000000000000000000000000000000000000000000600052602160045260246000fd5b81525050508080611d3890613aaf565b915050611b40565b508181945094505050509091565b6000600660008373ffffffffffffffffffffffffffffffffffffffff1673ffffffffffffffffffffffffffffffffffffffff168152602001908152602001600020600201549050919050565b611da2611f46565b73ffffffffffffffffffffffffffffffffffffffff16611dc0611625565b73ffffffffffffffffffffffffffffffffffffffff1614611e16576040517f08c379a0000000000000000000000000000000000000000000000000000000008152600401611e0d90613495565b60405180910390fd5b600073ffffffffffffffffffffffffffffffffffffffff168173ffffffffffffffffffffffffffffffffffffffff161415611e86576040517f08c379a0000000000000000000000000000000000000000000000000000000008152600401611e7d906133b5565b60405180910390fd5b8073ffffffffffffffffffffffffffffffffffffffff16600560009054906101000a900473ffffffffffffffffffffffffffffffffffffffff1673ffffffffffffffffffffffffffffffffffffffff167f8be0079c531659141344cd1fd0a4f28419497f9722a3daafe3b4186f6b6457e060405160405180910390a380600560006101000a81548173ffffffffffffffffffffffffffffffffffffffff021916908373ffffffffffffffffffffffffffffffffffffffff16021790555050565b600033905090565b600073ffffffffffffffffffffffffffffffffffffffff168373ffffffffffffffffffffffffffffffffffffffff161415611fbe576040517f08c379a0000000000000000000000000000000000000000000000000000000008152600401611fb590613535565b60405180910390fd5b600073ffffffffffffffffffffffffffffffffffffffff168273ffffffffffffffffffffffffffffffffffffffff16141561202e576040517f08c379a0000000000000000000000000000000000000000000000000000000008152600401612025906133d5565b60405180910390fd5b80600160008573ffffffffffffffffffffffffffffffffffffffff1673ffffffffffffffffffffffffffffffffffffffff16815260200190815260200160002060008473ffffffffffffffffffffffffffffffffffffffff1673ffffffffffffffffffffffffffffffffffffffff168152602001908152602001600020819055508173ffffffffffffffffffffffffffffffffffffffff168373ffffffffffffffffffffffffffffffffffffffff167f8c5be1e5ebec7d5bd14f71427d1e84f3dd0314c0f7b2291e5b200ac8c7c3b9258360405161210c9190613595565b60405180910390a3505050565b600073ffffffffffffffffffffffffffffffffffffffff168373ffffffffffffffffffffffffffffffffffffffff161415612189576040517f08c379a0000000000000000000000000000000000000000000000000000000008152600401612180906134f5565b60405180910390fd5b600073ffffffffffffffffffffffffffffffffffffffff168273ffffffffffffffffffffffffffffffffffffffff1614156121f9576040517f08c379a00000000000000000000000000000000000000000000000000000000081526004016121f090613395565b60405180910390fd5b6122048383836127a7565b60008060008573ffffffffffffffffffffffffffffffffffffffff1673ffffffffffffffffffffffffffffffffffffffff1681526020019081526020016000205490508181101561228a576040517f08c379a000000000000000000000000000000000000000000000000000000000815260040161228190613415565b60405180910390fd5b8181612296919061398d565b6000808673ffffffffffffffffffffffffffffffffffffffff1673ffffffffffffffffffffffffffffffffffffffff16815260200190815260200160002081905550816000808573ffffffffffffffffffffffffffffffffffffffff1673ffffffffffffffffffffffffffffffffffffffff1681526020019081526020016000206000828254612326919061373b565b925050819055508273ffffffffffffffffffffffffffffffffffffffff168473ffffffffffffffffffffffffffffffffffffffff167fddf252ad1be2c89b69c2b068fc378daa952ba7f163c4a11628f55a4df523b3ef8460405161238a9190613595565b60405180910390a350505050565b600073ffffffffffffffffffffffffffffffffffffffff168273ffffffffffffffffffffffffffffffffffffffff161415612408576040517f08c379a00000000000000000000000000000000000000000000000000000000081526004016123ff90613575565b60405180910390fd5b612414600083836127a7565b8060026000828254612426919061373b565b92505081905550806000808473ffffffffffffffffffffffffffffffffffffffff1673ffffffffffffffffffffffffffffffffffffffff168152602001908152602001600020600082825461247b919061373b565b925050819055508173ffffffffffffffffffffffffffffffffffffffff16600073ffffffffffffffffffffffffffffffffffffffff167fddf252ad1be2c89b69c2b068fc378daa952ba7f163c4a11628f55a4df523b3ef836040516124e09190613595565b60405180910390a35050565b60006124f782611328565b9050612501610ba7565b600a61250d9190613815565b61138861251a9190613933565b81106125b6576002600660008473ffffffffffffffffffffffffffffffffffffffff1673ffffffffffffffffffffffffffffffffffffffff16815260200190815260200160002060030160006101000a81548160ff021916908360028111156125ac577f4e487b7100000000000000000000000000000000000000000000000000000000600052602160045260246000fd5b0217905550612706565b6125be610ba7565b600a6125ca9190613815565b6107d06125d79190613933565b8110612673576001600660008473ffffffffffffffffffffffffffffffffffffffff1673ffffffffffffffffffffffffffffffffffffffff16815260200190815260200160002060030160006101000a81548160ff02191690836002811115612669577f4e487b7100000000000000000000000000000000000000000000000000000000600052602160045260246000fd5b0217905550612705565b6000600660008473ffffffffffffffffffffffffffffffffffffffff1673ffffffffffffffffffffffffffffffffffffffff16815260200190815260200160002060030160006101000a81548160ff021916908360028111156126ff577f4e487b7100000000000000000000000000000000000000000000000000000000600052602160045260246000fd5b02179055505b5b8173ffffffffffffffffffffffffffffffffffffffff167fa7cc6673952dd2140cd171b21cdf21825b0f34e690500ecf38ed0aeb006f356e600660008573ffffffffffffffffffffffffffffffffffffffff1673ffffffffffffffffffffffffffffffffffffffff16815260200190815260200160002060030160009054906101000a900460ff1660405161279b91906132fe565b60405180910390a25050565b505050565b8280546127b890613a7d565b90600052602060002090601f0160209004810192826127da5760008555612821565b82601f106127f357805160ff1916838001178555612821565b82800160010185558215612821579182015b82811115612820578251825591602001919060010190612805565b5b50905061282e9190612832565b5090565b5b8082111561284b576000816000905550600101612833565b5090565b600061286261285d84613625565b6135f4565b9050808382526020820190508285602086028201111561288157600080fd5b60005b858110156128b157816128978882612965565b845260208401935060208301925050600181019050612884565b5050509392505050565b60006128ce6128c984613651565b6135f4565b905080838252602082019050828560208602820111156128ed57600080fd5b60005b8581101561291d578161290388826129f8565b8452602084019350602083019250506001810190506128f0565b5050509392505050565b600061293a6129358461367d565b6135f4565b90508281526020810184848401111561295257600080fd5b61295d848285613a3b565b509392505050565b60008135905061297481613c15565b92915050565b600082601f83011261298b57600080fd5b813561299b84826020860161284f565b91505092915050565b600082601f8301126129b557600080fd5b81356129c58482602086016128bb565b91505092915050565b600082601f8301126129df57600080fd5b81356129ef848260208601612927565b91505092915050565b600081359050612a0781613c2c565b92915050565b600060208284031215612a1f57600080fd5b6000612a2d84828501612965565b91505092915050565b60008060408385031215612a4957600080fd5b6000612a5785828601612965565b9250506020612a6885828601612965565b9150509250929050565b600080600060608486031215612a8757600080fd5b6000612a9586828701612965565b9350506020612aa686828701612965565b9250506040612ab7868287016129f8565b9150509250925092565b60008060408385031215612ad457600080fd5b6000612ae285828601612965565b9250506020612af3858286016129f8565b9150509250929050565b60008060408385031215612b1057600080fd5b600083013567ffffffffffffffff811115612b2a57600080fd5b612b368582860161297a565b925050602083013567ffffffffffffffff811115612b5357600080fd5b612b5f858286016129a4565b9150509250929050565b600060208284031215612b7b57600080fd5b600082013567ffffffffffffffff811115612b9557600080fd5b612ba1848285016129ce565b91505092915050565b600060208284031215612bbc57600080fd5b6000612bca848285016129f8565b91505092915050565b6000612bdf8383612c03565b60208301905092915050565b6000612bf78383612cec565b60208301905092915050565b612c0c816139c1565b82525050565b612c1b816139c1565b82525050565b6000612c2c826136cd565b612c368185613708565b9350612c41836136ad565b8060005b83811015612c72578151612c598882612bd3565b9750612c64836136ee565b925050600181019050612c45565b5085935050505092915050565b6000612c8a826136d8565b612c948185613719565b9350612c9f836136bd565b8060005b83811015612cd0578151612cb78882612beb565b9750612cc2836136fb565b925050600181019050612ca3565b5085935050505092915050565b612ce6816139d3565b82525050565b612cf581613a29565b82525050565b612d0481613a29565b82525050565b6000612d15826136e3565b612d1f818561372a565b9350612d2f818560208601613a4a565b612d3881613be3565b840191505092915050565b6000612d5060238361372a565b91507f45524332303a207472616e7366657220746f20746865207a65726f206164647260008301527f65737300000000000000000000000000000000000000000000000000000000006020830152604082019050919050565b6000612db660268361372a565b91507f4f776e61626c653a206e6577206f776e657220697320746865207a65726f206160008301527f64647265737300000000000000000000000000000000000000000000000000006020830152604082019050919050565b6000612e1c60228361372a565b91507f45524332303a20617070726f766520746f20746865207a65726f20616464726560008301527f73730000000000000000000000000000000000000000000000000000000000006020830152604082019050919050565b6000612e8260138361372a565b91507f55736572206e6f742072656769737465726564000000000000000000000000006000830152602082019050919050565b6000612ec260268361372a565b91507f45524332303a207472616e7366657220616d6f756e742065786365656473206260008301527f616c616e636500000000000000000000000000000000000000000000000000006020830152604082019050919050565b6000612f2860158361372a565b91507f496e76616c696420696e707574206c656e6774687300000000000000000000006000830152602082019050919050565b6000612f6860128361372a565b91507f496e73756666696369656e742066756e647300000000000000000000000000006000830152602082019050919050565b6000612fa860288361372a565b91507f45524332303a207472616e7366657220616d6f756e742065786365656473206160008301527f6c6c6f77616e63650000000000000000000000000000000000000000000000006020830152604082019050919050565b600061300e60208361372a565b91507f4f776e61626c653a2063616c6c6572206973206e6f7420746865206f776e65726000830152602082019050919050565b600061304e60178361372a565b91507f5573657220616c726561647920726567697374657265640000000000000000006000830152602082019050919050565b600061308e60158361372a565b91507f456d61696c2063616e6e6f7420626520656d70747900000000000000000000006000830152602082019050919050565b60006130ce60258361372a565b91507f45524332303a207472616e736665722066726f6d20746865207a65726f20616460008301527f64726573730000000000000000000000000000000000000000000000000000006020830152604082019050919050565b600061313460138361372a565b91507f496e73756666696369656e7420706f696e7473000000000000000000000000006000830152602082019050919050565b600061317460248361372a565b91507f45524332303a20617070726f76652066726f6d20746865207a65726f2061646460008301527f72657373000000000000000000000000000000000000000000000000000000006020830152604082019050919050565b60006131da60258361372a565b91507f45524332303a2064656372656173656420616c6c6f77616e63652062656c6f7760008301527f207a65726f0000000000000000000000000000000000000000000000000000006020830152604082019050919050565b6000613240601f8361372a565b91507f45524332303a206d696e7420746f20746865207a65726f2061646472657373006000830152602082019050919050565b61327c81613a12565b82525050565b61328b81613a1c565b82525050565b60006020820190506132a66000830184612c12565b92915050565b600060408201905081810360008301526132c68185612c21565b905081810360208301526132da8184612c7f565b90509392505050565b60006020820190506132f86000830184612cdd565b92915050565b60006020820190506133136000830184612cfb565b92915050565b600060208201905081810360008301526133338184612d0a565b905092915050565b600060a08201905081810360008301526133558188612d0a565b90506133646020830187613273565b6133716040830186613273565b61337e6060830185612cfb565b61338b6080830184612cdd565b9695505050505050565b600060208201905081810360008301526133ae81612d43565b9050919050565b600060208201905081810360008301526133ce81612da9565b9050919050565b600060208201905081810360008301526133ee81612e0f565b9050919050565b6000602082019050818103600083015261340e81612e75565b9050919050565b6000602082019050818103600083015261342e81612eb5565b9050919050565b6000602082019050818103600083015261344e81612f1b565b9050919050565b6000602082019050818103600083015261346e81612f5b565b9050919050565b6000602082019050818103600083015261348e81612f9b565b9050919050565b600060208201905081810360008301526134ae81613001565b9050919050565b600060208201905081810360008301526134ce81613041565b9050919050565b600060208201905081810360008301526134ee81613081565b9050919050565b6000602082019050818103600083015261350e816130c1565b9050919050565b6000602082019050818103600083015261352e81613127565b9050919050565b6000602082019050818103600083015261354e81613167565b9050919050565b6000602082019050818103600083015261356e816131cd565b9050919050565b6000602082019050818103600083015261358e81613233565b9050919050565b60006020820190506135aa6000830184613273565b92915050565b60006040820190506135c56000830185613273565b6135d26020830184613273565b9392505050565b60006020820190506135ee6000830184613282565b92915050565b6000604051905081810181811067ffffffffffffffff8211171561361b5761361a613bb4565b5b8060405250919050565b600067ffffffffffffffff8211156136405761363f613bb4565b5b602082029050602081019050919050565b600067ffffffffffffffff82111561366c5761366b613bb4565b5b602082029050602081019050919050565b600067ffffffffffffffff82111561369857613697613bb4565b5b601f19601f8301169050602081019050919050565b6000819050602082019050919050565b6000819050602082019050919050565b600081519050919050565b600081519050919050565b600081519050919050565b6000602082019050919050565b6000602082019050919050565b600082825260208201905092915050565b600082825260208201905092915050565b600082825260208201905092915050565b600061374682613a12565b915061375183613a12565b9250827fffffffffffffffffffffffffffffffffffffffffffffffffffffffffffffffff0382111561378657613785613af8565b5b828201905092915050565b600061379c82613a12565b91506137a783613a12565b9250826137b7576137b6613b27565b5b828204905092915050565b6000808291508390505b600185111561380c578086048111156137e8576137e7613af8565b5b60018516156137f75780820291505b808102905061380585613bf4565b94506137cc565b94509492505050565b600061382082613a12565b915061382b83613a1c565b92506138587fffffffffffffffffffffffffffffffffffffffffffffffffffffffffffffffff8484613860565b905092915050565b600082613870576001905061392c565b8161387e576000905061392c565b8160018114613894576002811461389e576138cd565b600191505061392c565b60ff8411156138b0576138af613af8565b5b8360020a9150848211156138c7576138c6613af8565b5b5061392c565b5060208310610133831016604e8410600b84101617156139025782820a9050838111156138fd576138fc613af8565b5b61392c565b61390f84848460016137c2565b9250905081840481111561392657613925613af8565b5b81810290505b9392505050565b600061393e82613a12565b915061394983613a12565b9250817fffffffffffffffffffffffffffffffffffffffffffffffffffffffffffffffff048311821515161561398257613981613af8565b5b828202905092915050565b600061399882613a12565b91506139a383613a12565b9250828210156139b6576139b5613af8565b5b828203905092915050565b60006139cc826139f2565b9050919050565b60008115159050919050565b60008190506139ed82613c01565b919050565b600073ffffffffffffffffffffffffffffffffffffffff82169050919050565b6000819050919050565b600060ff82169050919050565b6000613a34826139df565b9050919050565b82818337600083830152505050565b60005b83811015613a68578082015181840152602081019050613a4d565b83811115613a77576000848401525b50505050565b60006002820490506001821680613a9557607f821691505b60208210811415613aa957613aa8613b85565b5b50919050565b6000613aba82613a12565b91507fffffffffffffffffffffffffffffffffffffffffffffffffffffffffffffffff821415613aed57613aec613af8565b5b600182019050919050565b7f4e487b7100000000000000000000000000000000000000000000000000000000600052601160045260246000fd5b7f4e487b7100000000000000000000000000000000000000000000000000000000600052601260045260246000fd5b7f4e487b7100000000000000000000000000000000000000000000000000000000600052602160045260246000fd5b7f4e487b7100000000000000000000000000000000000000000000000000000000600052602260045260246000fd5b7f4e487b7100000000000000000000000000000000000000000000000000000000600052604160045260246000fd5b6000601f19601f8301169050919050565b60008160011c9050919050565b60038110613c1257613c11613b56565b5b50565b613c1e816139c1565b8114613c2957600080fd5b50565b613c3581613a12565b8114613c4057600080fd5b5056fea264697066735822122004fd909c8bcc0a434471c04b362ee4c2935caf6db7ab3466c28d8bfd6c69a30364736f6c63430008000033",
  "immutableReferences": {},
  "source": "// SPDX-License-Identifier: MIT\r\npragma solidity ^0.8.0;\r\n\r\nimport \"@openzeppelin/contracts/token/ERC20/ERC20.sol\";\r\nimport \"@openzeppelin/contracts/access/Ownable.sol\";\r\n\r\ncontract SDVToken is ERC20, Ownable {\r\n    enum Status { Normal, Silver, Gold }\r\n    \r\n    struct Member {\r\n        string email;\r\n        uint256 tokens;\r\n        uint256 points;\r\n        Status status;\r\n        bool registered;\r\n    }\r\n    \r\n    mapping(address => Member) public members;\r\n    address[] public registeredUsers;\r\n\r\n    event StatusUpdated(address indexed user, Status status);\r\n    event UserRegistered(address indexed user, string email);\r\n    event TokensAirdropped(address indexed user, uint256 amount);\r\n    event MerchandisePurchased(address indexed user, uint256 amount);\r\n    event TokensApproved(address indexed owner, address indexed spender, uint256 amount);\r\n    event PointsEarned(address indexed user, uint256 amount);\r\n    event PointsExchanged(address indexed user, uint256 points, uint256 tokens);\r\n\r\n    constructor() ERC20(\"SDVToken\", \"SDV\") {\r\n        _mint(msg.sender, 1000000 * 10**decimals());\r\n    }\r\n\r\n    function registerUser(string memory _email) external {\r\n        require(!members[msg.sender].registered, \"User already registered\");\r\n        require(bytes(_email).length > 0, \"Email cannot be empty\");\r\n\r\n        members[msg.sender].email = _email;\r\n        members[msg.sender].registered = true;\r\n        registeredUsers.push(msg.sender);\r\n\r\n        _updateStatus(msg.sender);\r\n\r\n        emit UserRegistered(msg.sender, _email);\r\n        emit StatusUpdated(msg.sender, members[msg.sender].status);\r\n    }\r\n\r\n    function _updateStatus(address _user) internal {\r\n        uint256 tokenBalance = balanceOf(_user);\r\n\r\n        if (tokenBalance >= 5000 * 10**decimals()) {\r\n            members[_user].status = Status.Gold;\r\n        } else if (tokenBalance >= 2000 * 10**decimals()) {\r\n            members[_user].status = Status.Silver;\r\n        } else {\r\n            members[_user].status = Status.Normal;\r\n        }\r\n\r\n        emit StatusUpdated(_user, members[_user].status);\r\n    }\r\n\r\n    function getStatus(address _user) external view returns (Status) {\r\n        return members[_user].status;\r\n    }\r\n\r\n    function getAllUsers() external view returns (address[] memory, Status[] memory) {\r\n        uint256 userCount = registeredUsers.length;\r\n        address[] memory users = new address[](userCount);\r\n        Status[] memory statuses = new Status[](userCount);\r\n\r\n        for (uint256 i = 0; i < userCount; i++) {\r\n            address user = registeredUsers[i];\r\n            users[i] = user;\r\n            statuses[i] = members[user].status;\r\n        }\r\n\r\n        return (users, statuses);\r\n    }\r\n\r\n    function airdropTokens(address[] memory _users, uint256[] memory _amounts) external onlyOwner {\r\n        require(_users.length == _amounts.length, \"Invalid input lengths\");\r\n\r\n        for (uint256 i = 0; i < _users.length; i++) {\r\n            require(members[_users[i]].registered, \"User not registered\");\r\n\r\n            _transfer(owner(), _users[i], _amounts[i]);\r\n            members[_users[i]].tokens += _amounts[i];\r\n\r\n            emit TokensAirdropped(_users[i], _amounts[i]);\r\n        }\r\n    }\r\n\r\n    function purchaseMerchandise(uint256 _amount) external {\r\n        require(members[msg.sender].registered, \"User not registered\");\r\n        require(members[msg.sender].tokens >= _amount, \"Insufficient funds\");\r\n\r\n        _transfer(msg.sender, owner(), _amount);\r\n        members[msg.sender].tokens -= _amount;\r\n\r\n        emit MerchandisePurchased(msg.sender, _amount);\r\n    }\r\n\r\n    function earnPoints(uint256 _amount) external {\r\n        require(members[msg.sender].registered, \"User not registered\");\r\n        members[msg.sender].points += _amount;\r\n\r\n        emit PointsEarned(msg.sender, _amount);\r\n    }\r\n\r\n    function exchangePointsForTokens(uint256 _pointsToExchange) external {\r\n        require(members[msg.sender].registered, \"User not registered\");\r\n        require(members[msg.sender].points >= _pointsToExchange, \"Insufficient points\");\r\n\r\n        uint256 tokenAmount = _pointsToExchange;\r\n        uint256 poolAmount = tokenAmount * 2 / 100; \r\n        uint256 userTokenAmount = tokenAmount - poolAmount;\r\n\r\n    \r\n        _mint(msg.sender, userTokenAmount);\r\n        members[msg.sender].tokens += userTokenAmount;\r\n        members[msg.sender].points -= _pointsToExchange;\r\n\r\n  \r\n        _mint(address(this), poolAmount);\r\n\r\n        emit Transfer(address(0), msg.sender, userTokenAmount);\r\n        emit Transfer(address(0), address(this), poolAmount);\r\n        emit PointsExchanged(msg.sender, _pointsToExchange, tokenAmount);\r\n}\r\n\r\n    function approve(address spender, uint256 amount) public override returns (bool) {\r\n        _approve(_msgSender(), spender, amount);\r\n        emit Approval(_msgSender(), spender, amount);\r\n        return true;\r\n    }\r\n\r\n    function getPointsBalance(address user) external view returns (uint256) {\r\n        return members[user].points;\r\n    }\r\n\r\n    function getCommonPoolBalance() external view returns (uint256) {\r\n    return balanceOf(address(this));\r\n}\r\n}",
  "sourcePath": "C:\\Users\\i\\Documents\\GitHub\\DSP\\contracts\\contracts\\SDVLoyaltyGroupToken.sol",
  "compiler": {
    "name": "solc",
    "version": "0.8.0+commit.c7dfd78e.Emscripten.clang"
  },
  "schemaVersion": "3.4.16",
  "updatedAt": "2024-02-16T14:07:58.168Z",
  "networkType": "ethereum",
  "devdoc": {
    "kind": "dev",
    "methods": {
      "allowance(address,address)": {
        "details": "See {IERC20-allowance}."
      },
      "approve(address,uint256)": {
        "details": "See {IERC20-approve}. Requirements: - `spender` cannot be the zero address."
      },
      "balanceOf(address)": {
        "details": "See {IERC20-balanceOf}."
      },
      "decimals()": {
        "details": "Returns the number of decimals used to get its user representation. For example, if `decimals` equals `2`, a balance of `505` tokens should be displayed to a user as `5,05` (`505 / 10 ** 2`). Tokens usually opt for a value of 18, imitating the relationship between Ether and Wei. This is the value {ERC20} uses, unless this function is overloaded; NOTE: This information is only used for _display_ purposes: it in no way affects any of the arithmetic of the contract, including {IERC20-balanceOf} and {IERC20-transfer}."
      },
      "decreaseAllowance(address,uint256)": {
        "details": "Atomically decreases the allowance granted to `spender` by the caller. This is an alternative to {approve} that can be used as a mitigation for problems described in {IERC20-approve}. Emits an {Approval} event indicating the updated allowance. Requirements: - `spender` cannot be the zero address. - `spender` must have allowance for the caller of at least `subtractedValue`."
      },
      "increaseAllowance(address,uint256)": {
        "details": "Atomically increases the allowance granted to `spender` by the caller. This is an alternative to {approve} that can be used as a mitigation for problems described in {IERC20-approve}. Emits an {Approval} event indicating the updated allowance. Requirements: - `spender` cannot be the zero address."
      },
      "name()": {
        "details": "Returns the name of the token."
      },
      "owner()": {
        "details": "Returns the address of the current owner."
      },
      "renounceOwnership()": {
        "details": "Leaves the contract without owner. It will not be possible to call `onlyOwner` functions anymore. Can only be called by the current owner. NOTE: Renouncing ownership will leave the contract without an owner, thereby removing any functionality that is only available to the owner."
      },
      "symbol()": {
        "details": "Returns the symbol of the token, usually a shorter version of the name."
      },
      "totalSupply()": {
        "details": "See {IERC20-totalSupply}."
      },
      "transfer(address,uint256)": {
        "details": "See {IERC20-transfer}. Requirements: - `recipient` cannot be the zero address. - the caller must have a balance of at least `amount`."
      },
      "transferFrom(address,address,uint256)": {
        "details": "See {IERC20-transferFrom}. Emits an {Approval} event indicating the updated allowance. This is not required by the EIP. See the note at the beginning of {ERC20}. Requirements: - `sender` and `recipient` cannot be the zero address. - `sender` must have a balance of at least `amount`. - the caller must have allowance for ``sender``'s tokens of at least `amount`."
      },
      "transferOwnership(address)": {
        "details": "Transfers ownership of the contract to a new account (`newOwner`). Can only be called by the current owner."
      }
    },
    "version": 1
  },
  "userdoc": {
    "kind": "user",
    "methods": {},
    "version": 1
  }
}