{
  "contractName": "SDVToken",
  "abi": [
    {
      "inputs": [],
      "stateMutability": "nonpayable",
      "type": "constructor"
    },
    {
      "anonymous": false,
      "inputs": [
        {
          "indexed": true,
          "internalType": "address",
          "name": "owner",
          "type": "address"
        },
        {
          "indexed": true,
          "internalType": "address",
          "name": "spender",
          "type": "address"
        },
        {
          "indexed": false,
          "internalType": "uint256",
          "name": "value",
          "type": "uint256"
        }
      ],
      "name": "Approval",
      "type": "event"
    },
    {
      "anonymous": false,
      "inputs": [
        {
          "indexed": true,
          "internalType": "address",
          "name": "user",
          "type": "address"
        },
        {
          "indexed": false,
          "internalType": "uint256",
          "name": "amount",
          "type": "uint256"
        }
      ],
      "name": "ContributionMade",
      "type": "event"
    },
    {
      "anonymous": false,
      "inputs": [
        {
          "indexed": true,
          "internalType": "address",
          "name": "user",
          "type": "address"
        },
        {
          "indexed": false,
          "internalType": "uint256",
          "name": "amount",
          "type": "uint256"
        }
      ],
      "name": "MerchandisePurchased",
      "type": "event"
    },
    {
      "anonymous": false,
      "inputs": [
        {
          "indexed": true,
          "internalType": "address",
          "name": "previousOwner",
          "type": "address"
        },
        {
          "indexed": true,
          "internalType": "address",
          "name": "newOwner",
          "type": "address"
        }
      ],
      "name": "OwnershipTransferred",
      "type": "event"
    },
    {
      "anonymous": false,
      "inputs": [
        {
          "indexed": true,
          "internalType": "address",
          "name": "user",
          "type": "address"
        },
        {
          "indexed": false,
          "internalType": "uint256",
          "name": "amount",
          "type": "uint256"
        }
      ],
      "name": "TokensAirdropped",
      "type": "event"
    },
    {
      "anonymous": false,
      "inputs": [
        {
          "indexed": true,
          "internalType": "address",
          "name": "owner",
          "type": "address"
        },
        {
          "indexed": true,
          "internalType": "address",
          "name": "spender",
          "type": "address"
        },
        {
          "indexed": false,
          "internalType": "uint256",
          "name": "amount",
          "type": "uint256"
        }
      ],
      "name": "TokensApproved",
      "type": "event"
    },
    {
      "anonymous": false,
      "inputs": [
        {
          "indexed": true,
          "internalType": "address",
          "name": "user",
          "type": "address"
        },
        {
          "indexed": false,
          "internalType": "uint256",
          "name": "amount",
          "type": "uint256"
        }
      ],
      "name": "TokensEarned",
      "type": "event"
    },
    {
      "anonymous": false,
      "inputs": [
        {
          "indexed": true,
          "internalType": "address",
          "name": "from",
          "type": "address"
        },
        {
          "indexed": true,
          "internalType": "address",
          "name": "to",
          "type": "address"
        },
        {
          "indexed": false,
          "internalType": "uint256",
          "name": "value",
          "type": "uint256"
        }
      ],
      "name": "Transfer",
      "type": "event"
    },
    {
      "anonymous": false,
      "inputs": [
        {
          "indexed": true,
          "internalType": "address",
          "name": "user",
          "type": "address"
        },
        {
          "indexed": false,
          "internalType": "string",
          "name": "email",
          "type": "string"
        }
      ],
      "name": "UserRegistered",
      "type": "event"
    },
    {
      "inputs": [
        {
          "internalType": "address",
          "name": "owner",
          "type": "address"
        },
        {
          "internalType": "address",
          "name": "spender",
          "type": "address"
        }
      ],
      "name": "allowance",
      "outputs": [
        {
          "internalType": "uint256",
          "name": "",
          "type": "uint256"
        }
      ],
      "stateMutability": "view",
      "type": "function",
      "constant": true
    },
    {
      "inputs": [
        {
          "internalType": "address",
          "name": "account",
          "type": "address"
        }
      ],
      "name": "balanceOf",
      "outputs": [
        {
          "internalType": "uint256",
          "name": "",
          "type": "uint256"
        }
      ],
      "stateMutability": "view",
      "type": "function",
      "constant": true
    },
    {
      "inputs": [],
      "name": "decimals",
      "outputs": [
        {
          "internalType": "uint8",
          "name": "",
          "type": "uint8"
        }
      ],
      "stateMutability": "view",
      "type": "function",
      "constant": true
    },
    {
      "inputs": [
        {
          "internalType": "address",
          "name": "spender",
          "type": "address"
        },
        {
          "internalType": "uint256",
          "name": "subtractedValue",
          "type": "uint256"
        }
      ],
      "name": "decreaseAllowance",
      "outputs": [
        {
          "internalType": "bool",
          "name": "",
          "type": "bool"
        }
      ],
      "stateMutability": "nonpayable",
      "type": "function"
    },
    {
      "inputs": [
        {
          "internalType": "address",
          "name": "spender",
          "type": "address"
        },
        {
          "internalType": "uint256",
          "name": "addedValue",
          "type": "uint256"
        }
      ],
      "name": "increaseAllowance",
      "outputs": [
        {
          "internalType": "bool",
          "name": "",
          "type": "bool"
        }
      ],
      "stateMutability": "nonpayable",
      "type": "function"
    },
    {
      "inputs": [
        {
          "internalType": "address",
          "name": "",
          "type": "address"
        }
      ],
      "name": "members",
      "outputs": [
        {
          "internalType": "string",
          "name": "email",
          "type": "string"
        },
        {
          "internalType": "uint256",
          "name": "tokens",
          "type": "uint256"
        },
        {
          "internalType": "bool",
          "name": "registered",
          "type": "bool"
        }
      ],
      "stateMutability": "view",
      "type": "function",
      "constant": true
    },
    {
      "inputs": [],
      "name": "name",
      "outputs": [
        {
          "internalType": "string",
          "name": "",
          "type": "string"
        }
      ],
      "stateMutability": "view",
      "type": "function",
      "constant": true
    },
    {
      "inputs": [],
      "name": "owner",
      "outputs": [
        {
          "internalType": "address",
          "name": "",
          "type": "address"
        }
      ],
      "stateMutability": "view",
      "type": "function",
      "constant": true
    },
    {
      "inputs": [],
      "name": "renounceOwnership",
      "outputs": [],
      "stateMutability": "nonpayable",
      "type": "function"
    },
    {
      "inputs": [],
      "name": "symbol",
      "outputs": [
        {
          "internalType": "string",
          "name": "",
          "type": "string"
        }
      ],
      "stateMutability": "view",
      "type": "function",
      "constant": true
    },
    {
      "inputs": [],
      "name": "totalSupply",
      "outputs": [
        {
          "internalType": "uint256",
          "name": "",
          "type": "uint256"
        }
      ],
      "stateMutability": "view",
      "type": "function",
      "constant": true
    },
    {
      "inputs": [
        {
          "internalType": "address",
          "name": "recipient",
          "type": "address"
        },
        {
          "internalType": "uint256",
          "name": "amount",
          "type": "uint256"
        }
      ],
      "name": "transfer",
      "outputs": [
        {
          "internalType": "bool",
          "name": "",
          "type": "bool"
        }
      ],
      "stateMutability": "nonpayable",
      "type": "function"
    },
    {
      "inputs": [
        {
          "internalType": "address",
          "name": "sender",
          "type": "address"
        },
        {
          "internalType": "address",
          "name": "recipient",
          "type": "address"
        },
        {
          "internalType": "uint256",
          "name": "amount",
          "type": "uint256"
        }
      ],
      "name": "transferFrom",
      "outputs": [
        {
          "internalType": "bool",
          "name": "",
          "type": "bool"
        }
      ],
      "stateMutability": "nonpayable",
      "type": "function"
    },
    {
      "inputs": [
        {
          "internalType": "address",
          "name": "newOwner",
          "type": "address"
        }
      ],
      "name": "transferOwnership",
      "outputs": [],
      "stateMutability": "nonpayable",
      "type": "function"
    },
    {
      "inputs": [
        {
          "internalType": "string",
          "name": "_email",
          "type": "string"
        }
      ],
      "name": "registerUser",
      "outputs": [],
      "stateMutability": "nonpayable",
      "type": "function"
    },
    {
      "inputs": [
        {
          "internalType": "address[]",
          "name": "_users",
          "type": "address[]"
        },
        {
          "internalType": "uint256[]",
          "name": "_amounts",
          "type": "uint256[]"
        }
      ],
      "name": "airdropTokens",
      "outputs": [],
      "stateMutability": "nonpayable",
      "type": "function"
    },
    {
      "inputs": [
        {
          "internalType": "uint256",
          "name": "_amount",
          "type": "uint256"
        }
      ],
      "name": "purchaseMerchandise",
      "outputs": [],
      "stateMutability": "nonpayable",
      "type": "function"
    },
    {
      "inputs": [
        {
          "internalType": "uint256",
          "name": "_amount",
          "type": "uint256"
        }
      ],
      "name": "earnTokens",
      "outputs": [],
      "stateMutability": "nonpayable",
      "type": "function"
    },
    {
      "inputs": [
        {
          "internalType": "uint256",
          "name": "_amount",
          "type": "uint256"
        }
      ],
      "name": "contributeToPerformance",
      "outputs": [],
      "stateMutability": "nonpayable",
      "type": "function"
    },
    {
      "inputs": [
        {
          "internalType": "address",
          "name": "spender",
          "type": "address"
        },
        {
          "internalType": "uint256",
          "name": "amount",
          "type": "uint256"
        }
      ],
      "name": "approve",
      "outputs": [
        {
          "internalType": "bool",
          "name": "",
          "type": "bool"
        }
      ],
      "stateMutability": "nonpayable",
      "type": "function"
    }
  ],
  "bytecode": "0x60806040523480156200001157600080fd5b506040518060400160405280600881526020017f534456546f6b656e0000000000000000000000000000000000000000000000008152506040518060400160405280600381526020017f534456000000000000000000000000000000000000000000000000000000000081525081600390805190602001906200009692919062000323565b508060049080519060200190620000af92919062000323565b5050506000620000c4620001a860201b60201c565b905080600560006101000a81548173ffffffffffffffffffffffffffffffffffffffff021916908373ffffffffffffffffffffffffffffffffffffffff1602179055508073ffffffffffffffffffffffffffffffffffffffff16600073ffffffffffffffffffffffffffffffffffffffff167f8be0079c531659141344cd1fd0a4f28419497f9722a3daafe3b4186f6b6457e060405160405180910390a350620001a23362000178620001b060201b60201c565b600a6200018691906200052e565b620f42406200019691906200066b565b620001b960201b60201c565b62000784565b600033905090565b60006012905090565b600073ffffffffffffffffffffffffffffffffffffffff168273ffffffffffffffffffffffffffffffffffffffff1614156200022c576040517f08c379a0000000000000000000000000000000000000000000000000000000008152600401620002239062000426565b60405180910390fd5b62000240600083836200031e60201b60201c565b806002600082825462000254919062000476565b92505081905550806000808473ffffffffffffffffffffffffffffffffffffffff1673ffffffffffffffffffffffffffffffffffffffff1681526020019081526020016000206000828254620002ab919062000476565b925050819055508173ffffffffffffffffffffffffffffffffffffffff16600073ffffffffffffffffffffffffffffffffffffffff167fddf252ad1be2c89b69c2b068fc378daa952ba7f163c4a11628f55a4df523b3ef8360405162000312919062000448565b60405180910390a35050565b505050565b8280546200033190620006e3565b90600052602060002090601f016020900481019282620003555760008555620003a1565b82601f106200037057805160ff1916838001178555620003a1565b82800160010185558215620003a1579182015b82811115620003a057825182559160200191906001019062000383565b5b509050620003b09190620003b4565b5090565b5b80821115620003cf576000816000905550600101620003b5565b5090565b6000620003e2601f8362000465565b91507f45524332303a206d696e7420746f20746865207a65726f2061646472657373006000830152602082019050919050565b6200042081620006cc565b82525050565b600060208201905081810360008301526200044181620003d3565b9050919050565b60006020820190506200045f600083018462000415565b92915050565b600082825260208201905092915050565b60006200048382620006cc565b91506200049083620006cc565b9250827fffffffffffffffffffffffffffffffffffffffffffffffffffffffffffffffff03821115620004c857620004c762000719565b5b828201905092915050565b6000808291508390505b60018511156200052557808604811115620004fd57620004fc62000719565b5b60018516156200050d5780820291505b80810290506200051d8562000777565b9450620004dd565b94509492505050565b60006200053b82620006cc565b91506200054883620006d6565b9250620005777fffffffffffffffffffffffffffffffffffffffffffffffffffffffffffffffff84846200057f565b905092915050565b60008262000591576001905062000664565b81620005a1576000905062000664565b8160018114620005ba5760028114620005c557620005fb565b600191505062000664565b60ff841115620005da57620005d962000719565b5b8360020a915084821115620005f457620005f362000719565b5b5062000664565b5060208310610133831016604e8410600b8410161715620006355782820a9050838111156200062f576200062e62000719565b5b62000664565b620006448484846001620004d3565b925090508184048111156200065e576200065d62000719565b5b81810290505b9392505050565b60006200067882620006cc565b91506200068583620006cc565b9250817fffffffffffffffffffffffffffffffffffffffffffffffffffffffffffffffff0483118215151615620006c157620006c062000719565b5b828202905092915050565b6000819050919050565b600060ff82169050919050565b60006002820490506001821680620006fc57607f821691505b6020821081141562000713576200071262000748565b5b50919050565b7f4e487b7100000000000000000000000000000000000000000000000000000000600052601160045260246000fd5b7f4e487b7100000000000000000000000000000000000000000000000000000000600052602260045260246000fd5b60008160011c9050919050565b612f9780620007946000396000f3fe608060405234801561001057600080fd5b506004361061012c5760003560e01c806370a08231116100ad578063a457c2d711610071578063a457c2d714610333578063a9059cbb14610363578063c72cabdc14610393578063dd62ed3e146103af578063f2fde38b146103df5761012c565b806370a08231146102a1578063715018a6146102d15780638da5cb5b146102db5780638fe76241146102f957806395d89b41146103155761012c565b806330407d76116100f457806330407d76146101ff578063313ce5671461021b5780633950935114610239578063704f1b9414610269578063706f6937146102855761012c565b806306fdde031461013157806308ae4b0c1461014f578063095ea7b31461018157806318160ddd146101b157806323b872dd146101cf575b600080fd5b6101396103fb565b604051610146919061296e565b60405180910390f35b61016960048036038101906101649190612141565b61048d565b60405161017893929190612990565b60405180910390f35b61019b600480360381019061019691906121f5565b61054c565b6040516101a89190612953565b60405180910390f35b6101b96105d6565b6040516101c69190612bee565b60405180910390f35b6101e960048036038101906101e491906121a6565b6105e0565b6040516101f69190612953565b60405180910390f35b610219600480360381019061021491906122de565b6106e1565b005b610223610824565b6040516102309190612c09565b60405180910390f35b610253600480360381019061024e91906121f5565b61082d565b6040516102609190612953565b60405180910390f35b610283600480360381019061027e919061229d565b6108d9565b005b61029f600480360381019061029a9190612231565b610ab0565b005b6102bb60048036038101906102b69190612141565b610e9c565b6040516102c89190612bee565b60405180910390f35b6102d9610ee4565b005b6102e3611021565b6040516102f09190612938565b60405180910390f35b610313600480360381019061030e91906122de565b61104b565b005b61031d6111ba565b60405161032a919061296e565b60405180910390f35b61034d600480360381019061034891906121f5565b61124c565b60405161035a9190612953565b60405180910390f35b61037d600480360381019061037891906121f5565b611340565b60405161038a9190612953565b60405180910390f35b6103ad60048036038101906103a891906122de565b61135e565b005b6103c960048036038101906103c4919061216a565b61152e565b6040516103d69190612bee565b60405180910390f35b6103f960048036038101906103f49190612141565b6115b5565b005b60606003805461040a90612e1a565b80601f016020809104026020016040519081016040528092919081815260200182805461043690612e1a565b80156104835780601f1061045857610100808354040283529160200191610483565b820191906000526020600020905b81548152906001019060200180831161046657829003601f168201915b5050505050905090565b60066020528060005260406000206000915090508060000180546104b090612e1a565b80601f01602080910402602001604051908101604052809291908181526020018280546104dc90612e1a565b80156105295780601f106104fe57610100808354040283529160200191610529565b820191906000526020600020905b81548152906001019060200180831161050c57829003601f168201915b5050505050908060010154908060020160009054906101000a900460ff16905083565b6000610560610559611761565b8484611769565b8273ffffffffffffffffffffffffffffffffffffffff1661057f611761565b73ffffffffffffffffffffffffffffffffffffffff167f8c5be1e5ebec7d5bd14f71427d1e84f3dd0314c0f7b2291e5b200ac8c7c3b925846040516105c49190612bee565b60405180910390a36001905092915050565b6000600254905090565b60006105ed848484611934565b6000600160008673ffffffffffffffffffffffffffffffffffffffff1673ffffffffffffffffffffffffffffffffffffffff1681526020019081526020016000206000610638611761565b73ffffffffffffffffffffffffffffffffffffffff1673ffffffffffffffffffffffffffffffffffffffff168152602001908152602001600020549050828110156106b8576040517f08c379a00000000000000000000000000000000000000000000000000000000081526004016106af90612ace565b60405180910390fd5b6106d5856106c4611761565b85846106d09190612d4f565b611769565b60019150509392505050565b600660003373ffffffffffffffffffffffffffffffffffffffff1673ffffffffffffffffffffffffffffffffffffffff16815260200190815260200160002060020160009054906101000a900460ff16610770576040517f08c379a000000000000000000000000000000000000000000000000000000000815260040161076790612a4e565b60405180910390fd5b61077a3382611bb3565b80600660003373ffffffffffffffffffffffffffffffffffffffff1673ffffffffffffffffffffffffffffffffffffffff16815260200190815260200160002060010160008282546107cc9190612cf9565b925050819055503373ffffffffffffffffffffffffffffffffffffffff167f949b66d6baaf4912605d046be8fef8d8dac6040bb52018e69a7a805279fbeb15826040516108199190612bee565b60405180910390a250565b60006012905090565b60006108cf61083a611761565b848460016000610848611761565b73ffffffffffffffffffffffffffffffffffffffff1673ffffffffffffffffffffffffffffffffffffffff16815260200190815260200160002060008873ffffffffffffffffffffffffffffffffffffffff1673ffffffffffffffffffffffffffffffffffffffff168152602001908152602001600020546108ca9190612cf9565b611769565b6001905092915050565b600660003373ffffffffffffffffffffffffffffffffffffffff1673ffffffffffffffffffffffffffffffffffffffff16815260200190815260200160002060020160009054906101000a900460ff1615610969576040517f08c379a000000000000000000000000000000000000000000000000000000000815260040161096090612b0e565b60405180910390fd5b60008151116109ad576040517f08c379a00000000000000000000000000000000000000000000000000000000081526004016109a490612b4e565b60405180910390fd5b80600660003373ffffffffffffffffffffffffffffffffffffffff1673ffffffffffffffffffffffffffffffffffffffff1681526020019081526020016000206000019080519060200190610a03929190611ee0565b506001600660003373ffffffffffffffffffffffffffffffffffffffff1673ffffffffffffffffffffffffffffffffffffffff16815260200190815260200160002060020160006101000a81548160ff0219169083151502179055503373ffffffffffffffffffffffffffffffffffffffff167f48cac28ad4dc618e15f4c2dd5e97751182f166de97b25618318b2112aa951a2f82604051610aa5919061296e565b60405180910390a250565b610ab8611761565b73ffffffffffffffffffffffffffffffffffffffff16610ad6611021565b73ffffffffffffffffffffffffffffffffffffffff1614610b2c576040517f08c379a0000000000000000000000000000000000000000000000000000000008152600401610b2390612aee565b60405180910390fd5b8051825114610b70576040517f08c379a0000000000000000000000000000000000000000000000000000000008152600401610b6790612a8e565b60405180910390fd5b60005b8251811015610e975760066000848381518110610bb9577f4e487b7100000000000000000000000000000000000000000000000000000000600052603260045260246000fd5b602002602001015173ffffffffffffffffffffffffffffffffffffffff1673ffffffffffffffffffffffffffffffffffffffff16815260200190815260200160002060020160009054906101000a900460ff16610c4b576040517f08c379a0000000000000000000000000000000000000000000000000000000008152600401610c4290612a4e565b60405180910390fd5b610cdd610c56611021565b848381518110610c8f577f4e487b7100000000000000000000000000000000000000000000000000000000600052603260045260246000fd5b6020026020010151848481518110610cd0577f4e487b7100000000000000000000000000000000000000000000000000000000600052603260045260246000fd5b6020026020010151611934565b818181518110610d16577f4e487b7100000000000000000000000000000000000000000000000000000000600052603260045260246000fd5b602002602001015160066000858481518110610d5b577f4e487b7100000000000000000000000000000000000000000000000000000000600052603260045260246000fd5b602002602001015173ffffffffffffffffffffffffffffffffffffffff1673ffffffffffffffffffffffffffffffffffffffff1681526020019081526020016000206001016000828254610daf9190612cf9565b92505081905550828181518110610def577f4e487b7100000000000000000000000000000000000000000000000000000000600052603260045260246000fd5b602002602001015173ffffffffffffffffffffffffffffffffffffffff167fb82d2a7de6e3c04c554cd659f5f2b8d49c0131c0363c91a4ccef6756d1602990838381518110610e67577f4e487b7100000000000000000000000000000000000000000000000000000000600052603260045260246000fd5b6020026020010151604051610e7c9190612bee565b60405180910390a28080610e8f90612e4c565b915050610b73565b505050565b60008060008373ffffffffffffffffffffffffffffffffffffffff1673ffffffffffffffffffffffffffffffffffffffff168152602001908152602001600020549050919050565b610eec611761565b73ffffffffffffffffffffffffffffffffffffffff16610f0a611021565b73ffffffffffffffffffffffffffffffffffffffff1614610f60576040517f08c379a0000000000000000000000000000000000000000000000000000000008152600401610f5790612aee565b60405180910390fd5b600073ffffffffffffffffffffffffffffffffffffffff16600560009054906101000a900473ffffffffffffffffffffffffffffffffffffffff1673ffffffffffffffffffffffffffffffffffffffff167f8be0079c531659141344cd1fd0a4f28419497f9722a3daafe3b4186f6b6457e060405160405180910390a36000600560006101000a81548173ffffffffffffffffffffffffffffffffffffffff021916908373ffffffffffffffffffffffffffffffffffffffff160217905550565b6000600560009054906101000a900473ffffffffffffffffffffffffffffffffffffffff16905090565b600660003373ffffffffffffffffffffffffffffffffffffffff1673ffffffffffffffffffffffffffffffffffffffff16815260200190815260200160002060020160009054906101000a900460ff166110da576040517f08c379a00000000000000000000000000000000000000000000000000000000081526004016110d190612a4e565b60405180910390fd5b80600660003373ffffffffffffffffffffffffffffffffffffffff1673ffffffffffffffffffffffffffffffffffffffff16815260200190815260200160002060010154101561115f576040517f08c379a000000000000000000000000000000000000000000000000000000000815260040161115690612aae565b60405180910390fd5b6111693382611d07565b3373ffffffffffffffffffffffffffffffffffffffff167f6770260ea820d2f539364e7617e021543aaf6d192f2fd2a47c20db6bd99a4eb9826040516111af9190612bee565b60405180910390a250565b6060600480546111c990612e1a565b80601f01602080910402602001604051908101604052809291908181526020018280546111f590612e1a565b80156112425780601f1061121757610100808354040283529160200191611242565b820191906000526020600020905b81548152906001019060200180831161122557829003601f168201915b5050505050905090565b6000806001600061125b611761565b73ffffffffffffffffffffffffffffffffffffffff1673ffffffffffffffffffffffffffffffffffffffff16815260200190815260200160002060008573ffffffffffffffffffffffffffffffffffffffff1673ffffffffffffffffffffffffffffffffffffffff16815260200190815260200160002054905082811015611318576040517f08c379a000000000000000000000000000000000000000000000000000000000815260040161130f90612bae565b60405180910390fd5b611335611323611761565b8585846113309190612d4f565b611769565b600191505092915050565b600061135461134d611761565b8484611934565b6001905092915050565b600660003373ffffffffffffffffffffffffffffffffffffffff1673ffffffffffffffffffffffffffffffffffffffff16815260200190815260200160002060020160009054906101000a900460ff166113ed576040517f08c379a00000000000000000000000000000000000000000000000000000000081526004016113e490612a4e565b60405180910390fd5b80600660003373ffffffffffffffffffffffffffffffffffffffff1673ffffffffffffffffffffffffffffffffffffffff168152602001908152602001600020600101541015611472576040517f08c379a000000000000000000000000000000000000000000000000000000000815260040161146990612aae565b60405180910390fd5b6114843361147e611021565b83611934565b80600660003373ffffffffffffffffffffffffffffffffffffffff1673ffffffffffffffffffffffffffffffffffffffff16815260200190815260200160002060010160008282546114d69190612d4f565b925050819055503373ffffffffffffffffffffffffffffffffffffffff167fcb39b47db799499d2adb62e43b9592c8a757a9a05859f57b7c92e9798c5663a2826040516115239190612bee565b60405180910390a250565b6000600160008473ffffffffffffffffffffffffffffffffffffffff1673ffffffffffffffffffffffffffffffffffffffff16815260200190815260200160002060008373ffffffffffffffffffffffffffffffffffffffff1673ffffffffffffffffffffffffffffffffffffffff16815260200190815260200160002054905092915050565b6115bd611761565b73ffffffffffffffffffffffffffffffffffffffff166115db611021565b73ffffffffffffffffffffffffffffffffffffffff1614611631576040517f08c379a000000000000000000000000000000000000000000000000000000000815260040161162890612aee565b60405180910390fd5b600073ffffffffffffffffffffffffffffffffffffffff168173ffffffffffffffffffffffffffffffffffffffff1614156116a1576040517f08c379a000000000000000000000000000000000000000000000000000000000815260040161169890612a0e565b60405180910390fd5b8073ffffffffffffffffffffffffffffffffffffffff16600560009054906101000a900473ffffffffffffffffffffffffffffffffffffffff1673ffffffffffffffffffffffffffffffffffffffff167f8be0079c531659141344cd1fd0a4f28419497f9722a3daafe3b4186f6b6457e060405160405180910390a380600560006101000a81548173ffffffffffffffffffffffffffffffffffffffff021916908373ffffffffffffffffffffffffffffffffffffffff16021790555050565b600033905090565b600073ffffffffffffffffffffffffffffffffffffffff168373ffffffffffffffffffffffffffffffffffffffff1614156117d9576040517f08c379a00000000000000000000000000000000000000000000000000000000081526004016117d090612b8e565b60405180910390fd5b600073ffffffffffffffffffffffffffffffffffffffff168273ffffffffffffffffffffffffffffffffffffffff161415611849576040517f08c379a000000000000000000000000000000000000000000000000000000000815260040161184090612a2e565b60405180910390fd5b80600160008573ffffffffffffffffffffffffffffffffffffffff1673ffffffffffffffffffffffffffffffffffffffff16815260200190815260200160002060008473ffffffffffffffffffffffffffffffffffffffff1673ffffffffffffffffffffffffffffffffffffffff168152602001908152602001600020819055508173ffffffffffffffffffffffffffffffffffffffff168373ffffffffffffffffffffffffffffffffffffffff167f8c5be1e5ebec7d5bd14f71427d1e84f3dd0314c0f7b2291e5b200ac8c7c3b925836040516119279190612bee565b60405180910390a3505050565b600073ffffffffffffffffffffffffffffffffffffffff168373ffffffffffffffffffffffffffffffffffffffff1614156119a4576040517f08c379a000000000000000000000000000000000000000000000000000000000815260040161199b90612b6e565b60405180910390fd5b600073ffffffffffffffffffffffffffffffffffffffff168273ffffffffffffffffffffffffffffffffffffffff161415611a14576040517f08c379a0000000000000000000000000000000000000000000000000000000008152600401611a0b906129ce565b60405180910390fd5b611a1f838383611edb565b60008060008573ffffffffffffffffffffffffffffffffffffffff1673ffffffffffffffffffffffffffffffffffffffff16815260200190815260200160002054905081811015611aa5576040517f08c379a0000000000000000000000000000000000000000000000000000000008152600401611a9c90612a6e565b60405180910390fd5b8181611ab19190612d4f565b6000808673ffffffffffffffffffffffffffffffffffffffff1673ffffffffffffffffffffffffffffffffffffffff16815260200190815260200160002081905550816000808573ffffffffffffffffffffffffffffffffffffffff1673ffffffffffffffffffffffffffffffffffffffff1681526020019081526020016000206000828254611b419190612cf9565b925050819055508273ffffffffffffffffffffffffffffffffffffffff168473ffffffffffffffffffffffffffffffffffffffff167fddf252ad1be2c89b69c2b068fc378daa952ba7f163c4a11628f55a4df523b3ef84604051611ba59190612bee565b60405180910390a350505050565b600073ffffffffffffffffffffffffffffffffffffffff168273ffffffffffffffffffffffffffffffffffffffff161415611c23576040517f08c379a0000000000000000000000000000000000000000000000000000000008152600401611c1a90612bce565b60405180910390fd5b611c2f60008383611edb565b8060026000828254611c419190612cf9565b92505081905550806000808473ffffffffffffffffffffffffffffffffffffffff1673ffffffffffffffffffffffffffffffffffffffff1681526020019081526020016000206000828254611c969190612cf9565b925050819055508173ffffffffffffffffffffffffffffffffffffffff16600073ffffffffffffffffffffffffffffffffffffffff167fddf252ad1be2c89b69c2b068fc378daa952ba7f163c4a11628f55a4df523b3ef83604051611cfb9190612bee565b60405180910390a35050565b600073ffffffffffffffffffffffffffffffffffffffff168273ffffffffffffffffffffffffffffffffffffffff161415611d77576040517f08c379a0000000000000000000000000000000000000000000000000000000008152600401611d6e90612b2e565b60405180910390fd5b611d8382600083611edb565b60008060008473ffffffffffffffffffffffffffffffffffffffff1673ffffffffffffffffffffffffffffffffffffffff16815260200190815260200160002054905081811015611e09576040517f08c379a0000000000000000000000000000000000000000000000000000000008152600401611e00906129ee565b60405180910390fd5b8181611e159190612d4f565b6000808573ffffffffffffffffffffffffffffffffffffffff1673ffffffffffffffffffffffffffffffffffffffff168152602001908152602001600020819055508160026000828254611e699190612d4f565b92505081905550600073ffffffffffffffffffffffffffffffffffffffff168373ffffffffffffffffffffffffffffffffffffffff167fddf252ad1be2c89b69c2b068fc378daa952ba7f163c4a11628f55a4df523b3ef84604051611ece9190612bee565b60405180910390a3505050565b505050565b828054611eec90612e1a565b90600052602060002090601f016020900481019282611f0e5760008555611f55565b82601f10611f2757805160ff1916838001178555611f55565b82800160010185558215611f55579182015b82811115611f54578251825591602001919060010190611f39565b5b509050611f629190611f66565b5090565b5b80821115611f7f576000816000905550600101611f67565b5090565b6000611f96611f9184612c55565b612c24565b90508083825260208201905082856020860282011115611fb557600080fd5b60005b85811015611fe55781611fcb8882612099565b845260208401935060208301925050600181019050611fb8565b5050509392505050565b6000612002611ffd84612c81565b612c24565b9050808382526020820190508285602086028201111561202157600080fd5b60005b858110156120515781612037888261212c565b845260208401935060208301925050600181019050612024565b5050509392505050565b600061206e61206984612cad565b612c24565b90508281526020810184848401111561208657600080fd5b612091848285612dd8565b509392505050565b6000813590506120a881612f33565b92915050565b600082601f8301126120bf57600080fd5b81356120cf848260208601611f83565b91505092915050565b600082601f8301126120e957600080fd5b81356120f9848260208601611fef565b91505092915050565b600082601f83011261211357600080fd5b813561212384826020860161205b565b91505092915050565b60008135905061213b81612f4a565b92915050565b60006020828403121561215357600080fd5b600061216184828501612099565b91505092915050565b6000806040838503121561217d57600080fd5b600061218b85828601612099565b925050602061219c85828601612099565b9150509250929050565b6000806000606084860312156121bb57600080fd5b60006121c986828701612099565b93505060206121da86828701612099565b92505060406121eb8682870161212c565b9150509250925092565b6000806040838503121561220857600080fd5b600061221685828601612099565b92505060206122278582860161212c565b9150509250929050565b6000806040838503121561224457600080fd5b600083013567ffffffffffffffff81111561225e57600080fd5b61226a858286016120ae565b925050602083013567ffffffffffffffff81111561228757600080fd5b612293858286016120d8565b9150509250929050565b6000602082840312156122af57600080fd5b600082013567ffffffffffffffff8111156122c957600080fd5b6122d584828501612102565b91505092915050565b6000602082840312156122f057600080fd5b60006122fe8482850161212c565b91505092915050565b61231081612d83565b82525050565b61231f81612d95565b82525050565b600061233082612cdd565b61233a8185612ce8565b935061234a818560208601612de7565b61235381612f22565b840191505092915050565b600061236b602383612ce8565b91507f45524332303a207472616e7366657220746f20746865207a65726f206164647260008301527f65737300000000000000000000000000000000000000000000000000000000006020830152604082019050919050565b60006123d1602283612ce8565b91507f45524332303a206275726e20616d6f756e7420657863656564732062616c616e60008301527f63650000000000000000000000000000000000000000000000000000000000006020830152604082019050919050565b6000612437602683612ce8565b91507f4f776e61626c653a206e6577206f776e657220697320746865207a65726f206160008301527f64647265737300000000000000000000000000000000000000000000000000006020830152604082019050919050565b600061249d602283612ce8565b91507f45524332303a20617070726f766520746f20746865207a65726f20616464726560008301527f73730000000000000000000000000000000000000000000000000000000000006020830152604082019050919050565b6000612503601383612ce8565b91507f55736572206e6f742072656769737465726564000000000000000000000000006000830152602082019050919050565b6000612543602683612ce8565b91507f45524332303a207472616e7366657220616d6f756e742065786365656473206260008301527f616c616e636500000000000000000000000000000000000000000000000000006020830152604082019050919050565b60006125a9601583612ce8565b91507f496e76616c696420696e707574206c656e6774687300000000000000000000006000830152602082019050919050565b60006125e9601283612ce8565b91507f496e73756666696369656e742066756e647300000000000000000000000000006000830152602082019050919050565b6000612629602883612ce8565b91507f45524332303a207472616e7366657220616d6f756e742065786365656473206160008301527f6c6c6f77616e63650000000000000000000000000000000000000000000000006020830152604082019050919050565b600061268f602083612ce8565b91507f4f776e61626c653a2063616c6c6572206973206e6f7420746865206f776e65726000830152602082019050919050565b60006126cf601783612ce8565b91507f5573657220616c726561647920726567697374657265640000000000000000006000830152602082019050919050565b600061270f602183612ce8565b91507f45524332303a206275726e2066726f6d20746865207a65726f2061646472657360008301527f73000000000000000000000000000000000000000000000000000000000000006020830152604082019050919050565b6000612775601583612ce8565b91507f456d61696c2063616e6e6f7420626520656d70747900000000000000000000006000830152602082019050919050565b60006127b5602583612ce8565b91507f45524332303a207472616e736665722066726f6d20746865207a65726f20616460008301527f64726573730000000000000000000000000000000000000000000000000000006020830152604082019050919050565b600061281b602483612ce8565b91507f45524332303a20617070726f76652066726f6d20746865207a65726f2061646460008301527f72657373000000000000000000000000000000000000000000000000000000006020830152604082019050919050565b6000612881602583612ce8565b91507f45524332303a2064656372656173656420616c6c6f77616e63652062656c6f7760008301527f207a65726f0000000000000000000000000000000000000000000000000000006020830152604082019050919050565b60006128e7601f83612ce8565b91507f45524332303a206d696e7420746f20746865207a65726f2061646472657373006000830152602082019050919050565b61292381612dc1565b82525050565b61293281612dcb565b82525050565b600060208201905061294d6000830184612307565b92915050565b60006020820190506129686000830184612316565b92915050565b600060208201905081810360008301526129888184612325565b905092915050565b600060608201905081810360008301526129aa8186612325565b90506129b9602083018561291a565b6129c66040830184612316565b949350505050565b600060208201905081810360008301526129e78161235e565b9050919050565b60006020820190508181036000830152612a07816123c4565b9050919050565b60006020820190508181036000830152612a278161242a565b9050919050565b60006020820190508181036000830152612a4781612490565b9050919050565b60006020820190508181036000830152612a67816124f6565b9050919050565b60006020820190508181036000830152612a8781612536565b9050919050565b60006020820190508181036000830152612aa78161259c565b9050919050565b60006020820190508181036000830152612ac7816125dc565b9050919050565b60006020820190508181036000830152612ae78161261c565b9050919050565b60006020820190508181036000830152612b0781612682565b9050919050565b60006020820190508181036000830152612b27816126c2565b9050919050565b60006020820190508181036000830152612b4781612702565b9050919050565b60006020820190508181036000830152612b6781612768565b9050919050565b60006020820190508181036000830152612b87816127a8565b9050919050565b60006020820190508181036000830152612ba78161280e565b9050919050565b60006020820190508181036000830152612bc781612874565b9050919050565b60006020820190508181036000830152612be7816128da565b9050919050565b6000602082019050612c03600083018461291a565b92915050565b6000602082019050612c1e6000830184612929565b92915050565b6000604051905081810181811067ffffffffffffffff82111715612c4b57612c4a612ef3565b5b8060405250919050565b600067ffffffffffffffff821115612c7057612c6f612ef3565b5b602082029050602081019050919050565b600067ffffffffffffffff821115612c9c57612c9b612ef3565b5b602082029050602081019050919050565b600067ffffffffffffffff821115612cc857612cc7612ef3565b5b601f19601f8301169050602081019050919050565b600081519050919050565b600082825260208201905092915050565b6000612d0482612dc1565b9150612d0f83612dc1565b9250827fffffffffffffffffffffffffffffffffffffffffffffffffffffffffffffffff03821115612d4457612d43612e95565b5b828201905092915050565b6000612d5a82612dc1565b9150612d6583612dc1565b925082821015612d7857612d77612e95565b5b828203905092915050565b6000612d8e82612da1565b9050919050565b60008115159050919050565b600073ffffffffffffffffffffffffffffffffffffffff82169050919050565b6000819050919050565b600060ff82169050919050565b82818337600083830152505050565b60005b83811015612e05578082015181840152602081019050612dea565b83811115612e14576000848401525b50505050565b60006002820490506001821680612e3257607f821691505b60208210811415612e4657612e45612ec4565b5b50919050565b6000612e5782612dc1565b91507fffffffffffffffffffffffffffffffffffffffffffffffffffffffffffffffff821415612e8a57612e89612e95565b5b600182019050919050565b7f4e487b7100000000000000000000000000000000000000000000000000000000600052601160045260246000fd5b7f4e487b7100000000000000000000000000000000000000000000000000000000600052602260045260246000fd5b7f4e487b7100000000000000000000000000000000000000000000000000000000600052604160045260246000fd5b6000601f19601f8301169050919050565b612f3c81612d83565b8114612f4757600080fd5b50565b612f5381612dc1565b8114612f5e57600080fd5b5056fea2646970667358221220eec42ee05717ae26102891826980c847eeba4636beec3d54d5dba0eba9bb764164736f6c63430008000033",
  "immutableReferences": {},
  "source": "// SPDX-License-Identifier: MIT\r\npragma solidity ^0.8.0;\r\n\r\nimport \"@openzeppelin/contracts/token/ERC20/ERC20.sol\";\r\nimport \"@openzeppelin/contracts/access/Ownable.sol\";\r\n\r\ncontract SDVToken is ERC20, Ownable {\r\n    struct Member {\r\n        string email;\r\n        uint256 tokens;\r\n        bool registered;\r\n    }\r\n\r\n    mapping(address => Member) public members;\r\n\r\n    event UserRegistered(address indexed user, string email);\r\n    event TokensAirdropped(address indexed user, uint256 amount);\r\n    event MerchandisePurchased(address indexed user, uint256 amount);\r\n    event TokensEarned(address indexed user, uint256 amount);\r\n    event ContributionMade(address indexed user, uint256 amount);\r\n    event TokensApproved(address indexed owner, address indexed spender, uint256 amount);\r\n\r\n    constructor() ERC20(\"SDVToken\", \"SDV\") {\r\n        _mint(msg.sender, 1000000 * 10**decimals());\r\n    }\r\n\r\n    function registerUser(string memory _email) external {\r\n        require(!members[msg.sender].registered, \"User already registered\");\r\n        require(bytes(_email).length > 0, \"Email cannot be empty\");\r\n\r\n        members[msg.sender].email = _email;\r\n        members[msg.sender].registered = true;\r\n\r\n        emit UserRegistered(msg.sender, _email);\r\n    }\r\n\r\n    function airdropTokens(address[] memory _users, uint256[] memory _amounts) external onlyOwner {\r\n        require(_users.length == _amounts.length, \"Invalid input lengths\");\r\n\r\n        for (uint256 i = 0; i < _users.length; i++) {\r\n            require(members[_users[i]].registered, \"User not registered\");\r\n\r\n            _transfer(owner(), _users[i], _amounts[i]);\r\n            members[_users[i]].tokens += _amounts[i];\r\n\r\n            emit TokensAirdropped(_users[i], _amounts[i]);\r\n        }\r\n    }\r\n\r\n    function purchaseMerchandise(uint256 _amount) external {\r\n        require(members[msg.sender].registered, \"User not registered\");\r\n        require(members[msg.sender].tokens >= _amount, \"Insufficient funds\");\r\n\r\n        _transfer(msg.sender, owner(), _amount);\r\n        members[msg.sender].tokens -= _amount;\r\n\r\n        emit MerchandisePurchased(msg.sender, _amount);\r\n    }\r\n\r\n    function earnTokens(uint256 _amount) external {\r\n        require(members[msg.sender].registered, \"User not registered\");\r\n\r\n        _mint(msg.sender, _amount);\r\n        members[msg.sender].tokens += _amount;\r\n\r\n        emit TokensEarned(msg.sender, _amount);\r\n    }\r\n\r\n    function contributeToPerformance(uint256 _amount) external {\r\n        require(members[msg.sender].registered, \"User not registered\");\r\n        require(members[msg.sender].tokens >= _amount, \"Insufficient funds\");\r\n\r\n        _burn(msg.sender, _amount);\r\n        emit ContributionMade(msg.sender, _amount);\r\n    }\r\n\r\n    function approve(address spender, uint256 amount) public override returns (bool) {\r\n        _approve(_msgSender(), spender, amount);\r\n        emit Approval(_msgSender(), spender, amount);\r\n        return true;\r\n    }\r\n\r\n}\r\n",
  "sourcePath": "C:\\Users\\i\\Documents\\GitHub\\DSP\\contracts\\contracts\\SDVLoyaltyGroupToken.sol",
  "compiler": {
    "name": "solc",
    "version": "0.8.0+commit.c7dfd78e.Emscripten.clang"
  },
  "schemaVersion": "3.4.16",
  "updatedAt": "2024-02-08T14:41:56.746Z",
  "networkType": "ethereum",
  "devdoc": {
    "kind": "dev",
    "methods": {
      "allowance(address,address)": {
        "details": "See {IERC20-allowance}."
      },
      "approve(address,uint256)": {
        "details": "See {IERC20-approve}. Requirements: - `spender` cannot be the zero address."
      },
      "balanceOf(address)": {
        "details": "See {IERC20-balanceOf}."
      },
      "decimals()": {
        "details": "Returns the number of decimals used to get its user representation. For example, if `decimals` equals `2`, a balance of `505` tokens should be displayed to a user as `5,05` (`505 / 10 ** 2`). Tokens usually opt for a value of 18, imitating the relationship between Ether and Wei. This is the value {ERC20} uses, unless this function is overloaded; NOTE: This information is only used for _display_ purposes: it in no way affects any of the arithmetic of the contract, including {IERC20-balanceOf} and {IERC20-transfer}."
      },
      "decreaseAllowance(address,uint256)": {
        "details": "Atomically decreases the allowance granted to `spender` by the caller. This is an alternative to {approve} that can be used as a mitigation for problems described in {IERC20-approve}. Emits an {Approval} event indicating the updated allowance. Requirements: - `spender` cannot be the zero address. - `spender` must have allowance for the caller of at least `subtractedValue`."
      },
      "increaseAllowance(address,uint256)": {
        "details": "Atomically increases the allowance granted to `spender` by the caller. This is an alternative to {approve} that can be used as a mitigation for problems described in {IERC20-approve}. Emits an {Approval} event indicating the updated allowance. Requirements: - `spender` cannot be the zero address."
      },
      "name()": {
        "details": "Returns the name of the token."
      },
      "owner()": {
        "details": "Returns the address of the current owner."
      },
      "renounceOwnership()": {
        "details": "Leaves the contract without owner. It will not be possible to call `onlyOwner` functions anymore. Can only be called by the current owner. NOTE: Renouncing ownership will leave the contract without an owner, thereby removing any functionality that is only available to the owner."
      },
      "symbol()": {
        "details": "Returns the symbol of the token, usually a shorter version of the name."
      },
      "totalSupply()": {
        "details": "See {IERC20-totalSupply}."
      },
      "transfer(address,uint256)": {
        "details": "See {IERC20-transfer}. Requirements: - `recipient` cannot be the zero address. - the caller must have a balance of at least `amount`."
      },
      "transferFrom(address,address,uint256)": {
        "details": "See {IERC20-transferFrom}. Emits an {Approval} event indicating the updated allowance. This is not required by the EIP. See the note at the beginning of {ERC20}. Requirements: - `sender` and `recipient` cannot be the zero address. - `sender` must have a balance of at least `amount`. - the caller must have allowance for ``sender``'s tokens of at least `amount`."
      },
      "transferOwnership(address)": {
        "details": "Transfers ownership of the contract to a new account (`newOwner`). Can only be called by the current owner."
      }
    },
    "version": 1
  },
  "userdoc": {
    "kind": "user",
    "methods": {},
    "version": 1
  }
}