{
  "contractName": "SDVToken",
  "abi": [
    {
      "inputs": [],
      "stateMutability": "nonpayable",
      "type": "constructor"
    },
    {
      "anonymous": false,
      "inputs": [
        {
          "indexed": true,
          "internalType": "address",
          "name": "owner",
          "type": "address"
        },
        {
          "indexed": true,
          "internalType": "address",
          "name": "spender",
          "type": "address"
        },
        {
          "indexed": false,
          "internalType": "uint256",
          "name": "value",
          "type": "uint256"
        }
      ],
      "name": "Approval",
      "type": "event"
    },
    {
      "anonymous": false,
      "inputs": [
        {
          "indexed": true,
          "internalType": "address",
          "name": "user",
          "type": "address"
        },
        {
          "indexed": false,
          "internalType": "uint256",
          "name": "amount",
          "type": "uint256"
        }
      ],
      "name": "MerchandisePurchased",
      "type": "event"
    },
    {
      "anonymous": false,
      "inputs": [
        {
          "indexed": true,
          "internalType": "address",
          "name": "previousOwner",
          "type": "address"
        },
        {
          "indexed": true,
          "internalType": "address",
          "name": "newOwner",
          "type": "address"
        }
      ],
      "name": "OwnershipTransferred",
      "type": "event"
    },
    {
      "anonymous": false,
      "inputs": [
        {
          "indexed": true,
          "internalType": "address",
          "name": "user",
          "type": "address"
        },
        {
          "indexed": false,
          "internalType": "uint256",
          "name": "points",
          "type": "uint256"
        },
        {
          "indexed": false,
          "internalType": "uint256",
          "name": "tokens",
          "type": "uint256"
        }
      ],
      "name": "PointsExchanged",
      "type": "event"
    },
    {
      "anonymous": false,
      "inputs": [
        {
          "indexed": true,
          "internalType": "address",
          "name": "user",
          "type": "address"
        },
        {
          "indexed": false,
          "internalType": "uint256",
          "name": "amount",
          "type": "uint256"
        }
      ],
      "name": "TokensAirdropped",
      "type": "event"
    },
    {
      "anonymous": false,
      "inputs": [
        {
          "indexed": true,
          "internalType": "address",
          "name": "owner",
          "type": "address"
        },
        {
          "indexed": true,
          "internalType": "address",
          "name": "spender",
          "type": "address"
        },
        {
          "indexed": false,
          "internalType": "uint256",
          "name": "amount",
          "type": "uint256"
        }
      ],
      "name": "TokensApproved",
      "type": "event"
    },
    {
      "anonymous": false,
      "inputs": [
        {
          "indexed": true,
          "internalType": "address",
          "name": "from",
          "type": "address"
        },
        {
          "indexed": true,
          "internalType": "address",
          "name": "to",
          "type": "address"
        },
        {
          "indexed": false,
          "internalType": "uint256",
          "name": "value",
          "type": "uint256"
        }
      ],
      "name": "Transfer",
      "type": "event"
    },
    {
      "inputs": [],
      "name": "TOTAL_SUPPLY",
      "outputs": [
        {
          "internalType": "uint256",
          "name": "",
          "type": "uint256"
        }
      ],
      "stateMutability": "view",
      "type": "function",
      "constant": true
    },
    {
      "inputs": [
        {
          "internalType": "address",
          "name": "owner",
          "type": "address"
        },
        {
          "internalType": "address",
          "name": "spender",
          "type": "address"
        }
      ],
      "name": "allowance",
      "outputs": [
        {
          "internalType": "uint256",
          "name": "",
          "type": "uint256"
        }
      ],
      "stateMutability": "view",
      "type": "function",
      "constant": true
    },
    {
      "inputs": [
        {
          "internalType": "address",
          "name": "account",
          "type": "address"
        }
      ],
      "name": "balanceOf",
      "outputs": [
        {
          "internalType": "uint256",
          "name": "",
          "type": "uint256"
        }
      ],
      "stateMutability": "view",
      "type": "function",
      "constant": true
    },
    {
      "inputs": [],
      "name": "decimals",
      "outputs": [
        {
          "internalType": "uint8",
          "name": "",
          "type": "uint8"
        }
      ],
      "stateMutability": "view",
      "type": "function",
      "constant": true
    },
    {
      "inputs": [
        {
          "internalType": "address",
          "name": "spender",
          "type": "address"
        },
        {
          "internalType": "uint256",
          "name": "subtractedValue",
          "type": "uint256"
        }
      ],
      "name": "decreaseAllowance",
      "outputs": [
        {
          "internalType": "bool",
          "name": "",
          "type": "bool"
        }
      ],
      "stateMutability": "nonpayable",
      "type": "function"
    },
    {
      "inputs": [
        {
          "internalType": "address",
          "name": "spender",
          "type": "address"
        },
        {
          "internalType": "uint256",
          "name": "addedValue",
          "type": "uint256"
        }
      ],
      "name": "increaseAllowance",
      "outputs": [
        {
          "internalType": "bool",
          "name": "",
          "type": "bool"
        }
      ],
      "stateMutability": "nonpayable",
      "type": "function"
    },
    {
      "inputs": [],
      "name": "name",
      "outputs": [
        {
          "internalType": "string",
          "name": "",
          "type": "string"
        }
      ],
      "stateMutability": "view",
      "type": "function",
      "constant": true
    },
    {
      "inputs": [],
      "name": "owner",
      "outputs": [
        {
          "internalType": "address",
          "name": "",
          "type": "address"
        }
      ],
      "stateMutability": "view",
      "type": "function",
      "constant": true
    },
    {
      "inputs": [],
      "name": "renounceOwnership",
      "outputs": [],
      "stateMutability": "nonpayable",
      "type": "function"
    },
    {
      "inputs": [],
      "name": "symbol",
      "outputs": [
        {
          "internalType": "string",
          "name": "",
          "type": "string"
        }
      ],
      "stateMutability": "view",
      "type": "function",
      "constant": true
    },
    {
      "inputs": [],
      "name": "totalSupply",
      "outputs": [
        {
          "internalType": "uint256",
          "name": "",
          "type": "uint256"
        }
      ],
      "stateMutability": "view",
      "type": "function",
      "constant": true
    },
    {
      "inputs": [
        {
          "internalType": "address",
          "name": "recipient",
          "type": "address"
        },
        {
          "internalType": "uint256",
          "name": "amount",
          "type": "uint256"
        }
      ],
      "name": "transfer",
      "outputs": [
        {
          "internalType": "bool",
          "name": "",
          "type": "bool"
        }
      ],
      "stateMutability": "nonpayable",
      "type": "function"
    },
    {
      "inputs": [
        {
          "internalType": "address",
          "name": "sender",
          "type": "address"
        },
        {
          "internalType": "address",
          "name": "recipient",
          "type": "address"
        },
        {
          "internalType": "uint256",
          "name": "amount",
          "type": "uint256"
        }
      ],
      "name": "transferFrom",
      "outputs": [
        {
          "internalType": "bool",
          "name": "",
          "type": "bool"
        }
      ],
      "stateMutability": "nonpayable",
      "type": "function"
    },
    {
      "inputs": [
        {
          "internalType": "address",
          "name": "newOwner",
          "type": "address"
        }
      ],
      "name": "transferOwnership",
      "outputs": [],
      "stateMutability": "nonpayable",
      "type": "function"
    },
    {
      "inputs": [
        {
          "internalType": "address[]",
          "name": "_users",
          "type": "address[]"
        },
        {
          "internalType": "uint256[]",
          "name": "_amounts",
          "type": "uint256[]"
        }
      ],
      "name": "airdropTokens",
      "outputs": [],
      "stateMutability": "nonpayable",
      "type": "function"
    },
    {
      "inputs": [
        {
          "internalType": "uint256",
          "name": "_amount",
          "type": "uint256"
        }
      ],
      "name": "purchaseMerchandise",
      "outputs": [],
      "stateMutability": "nonpayable",
      "type": "function"
    },
    {
      "inputs": [
        {
          "internalType": "uint256",
          "name": "_pointsToExchange",
          "type": "uint256"
        }
      ],
      "name": "exchangePointsForTokens",
      "outputs": [],
      "stateMutability": "nonpayable",
      "type": "function"
    },
    {
      "inputs": [
        {
          "internalType": "address",
          "name": "spender",
          "type": "address"
        },
        {
          "internalType": "uint256",
          "name": "amount",
          "type": "uint256"
        }
      ],
      "name": "approve",
      "outputs": [
        {
          "internalType": "bool",
          "name": "",
          "type": "bool"
        }
      ],
      "stateMutability": "nonpayable",
      "type": "function"
    },
    {
      "inputs": [],
      "name": "getCommonPoolBalance",
      "outputs": [
        {
          "internalType": "uint256",
          "name": "",
          "type": "uint256"
        }
      ],
      "stateMutability": "view",
      "type": "function",
      "constant": true
    }
  ],
  "bytecode": "0x60806040523480156200001157600080fd5b506040518060400160405280600881526020017f534456546f6b656e0000000000000000000000000000000000000000000000008152506040518060400160405280600381526020017f5344560000000000000000000000000000000000000000000000000000000000815250816003908051906020019062000096929190620002f7565b508060049080519060200190620000af929190620002f7565b5050506000620000c46200018560201b60201c565b905080600560006101000a81548173ffffffffffffffffffffffffffffffffffffffff021916908373ffffffffffffffffffffffffffffffffffffffff1602179055508073ffffffffffffffffffffffffffffffffffffffff16600073ffffffffffffffffffffffffffffffffffffffff167f8be0079c531659141344cd1fd0a4f28419497f9722a3daafe3b4186f6b6457e060405160405180910390a3506200017f3369d3c21bcecceda10000006200018d60201b60201c565b62000545565b600033905090565b600073ffffffffffffffffffffffffffffffffffffffff168273ffffffffffffffffffffffffffffffffffffffff16141562000200576040517f08c379a0000000000000000000000000000000000000000000000000000000008152600401620001f790620003fa565b60405180910390fd5b6200021460008383620002f260201b60201c565b80600260008282546200022891906200044a565b92505081905550806000808473ffffffffffffffffffffffffffffffffffffffff1673ffffffffffffffffffffffffffffffffffffffff16815260200190815260200160002060008282546200027f91906200044a565b925050819055508173ffffffffffffffffffffffffffffffffffffffff16600073ffffffffffffffffffffffffffffffffffffffff167fddf252ad1be2c89b69c2b068fc378daa952ba7f163c4a11628f55a4df523b3ef83604051620002e691906200041c565b60405180910390a35050565b505050565b8280546200030590620004b1565b90600052602060002090601f01602090048101928262000329576000855562000375565b82601f106200034457805160ff191683800117855562000375565b8280016001018555821562000375579182015b828111156200037457825182559160200191906001019062000357565b5b50905062000384919062000388565b5090565b5b80821115620003a357600081600090555060010162000389565b5090565b6000620003b6601f8362000439565b91507f45524332303a206d696e7420746f20746865207a65726f2061646472657373006000830152602082019050919050565b620003f481620004a7565b82525050565b600060208201905081810360008301526200041581620003a7565b9050919050565b6000602082019050620004336000830184620003e9565b92915050565b600082825260208201905092915050565b60006200045782620004a7565b91506200046483620004a7565b9250827fffffffffffffffffffffffffffffffffffffffffffffffffffffffffffffffff038211156200049c576200049b620004e7565b5b828201905092915050565b6000819050919050565b60006002820490506001821680620004ca57607f821691505b60208210811415620004e157620004e062000516565b5b50919050565b7f4e487b7100000000000000000000000000000000000000000000000000000000600052601160045260246000fd5b7f4e487b7100000000000000000000000000000000000000000000000000000000600052602260045260246000fd5b61236580620005556000396000f3fe608060405234801561001057600080fd5b50600436106101215760003560e01c806370a08231116100ad578063a457c2d711610071578063a457c2d7146102fa578063a9059cbb1461032a578063c72cabdc1461035a578063dd62ed3e14610376578063f2fde38b146103a657610121565b806370a0823114610266578063715018a6146102965780638da5cb5b146102a0578063902d55a5146102be57806395d89b41146102dc57610121565b806323b872dd116100f457806323b872dd146101b057806323f857b8146101e0578063313ce567146101fc578063395093511461021a578063706f69371461024a57610121565b806306fdde0314610126578063095ea7b31461014457806318160ddd146101745780631b78b55d14610192575b600080fd5b61012e6103c2565b60405161013b9190611d76565b60405180910390f35b61015e600480360381019061015991906117ca565b610454565b60405161016b9190611d5b565b60405180910390f35b61017c6104de565b6040516101899190611f18565b60405180910390f35b61019a6104e8565b6040516101a79190611f18565b60405180910390f35b6101ca60048036038101906101c5919061177b565b6104f8565b6040516101d79190611d5b565b60405180910390f35b6101fa60048036038101906101f59190611872565b6105f9565b005b6102046106a2565b6040516102119190611f5c565b60405180910390f35b610234600480360381019061022f91906117ca565b6106ab565b6040516102419190611d5b565b60405180910390f35b610264600480360381019061025f9190611806565b610757565b005b610280600480360381019061027b9190611716565b61099b565b60405161028d9190611f18565b60405180910390f35b61029e6109e3565b005b6102a8610b20565b6040516102b59190611d40565b60405180910390f35b6102c6610b4a565b6040516102d39190611f18565b60405180910390f35b6102e4610b58565b6040516102f19190611d76565b60405180910390f35b610314600480360381019061030f91906117ca565b610bea565b6040516103219190611d5b565b60405180910390f35b610344600480360381019061033f91906117ca565b610cde565b6040516103519190611d5b565b60405180910390f35b610374600480360381019061036f9190611872565b610cfc565b005b610390600480360381019061038b919061173f565b610daa565b60405161039d9190611f18565b60405180910390f35b6103c060048036038101906103bb9190611716565b610e31565b005b6060600380546103d1906121b9565b80601f01602080910402602001604051908101604052809291908181526020018280546103fd906121b9565b801561044a5780601f1061041f5761010080835404028352916020019161044a565b820191906000526020600020905b81548152906001019060200180831161042d57829003601f168201915b5050505050905090565b6000610468610461610fdd565b8484610fe5565b8273ffffffffffffffffffffffffffffffffffffffff16610487610fdd565b73ffffffffffffffffffffffffffffffffffffffff167f8c5be1e5ebec7d5bd14f71427d1e84f3dd0314c0f7b2291e5b200ac8c7c3b925846040516104cc9190611f18565b60405180910390a36001905092915050565b6000600254905090565b60006104f33061099b565b905090565b60006105058484846111b0565b6000600160008673ffffffffffffffffffffffffffffffffffffffff1673ffffffffffffffffffffffffffffffffffffffff1681526020019081526020016000206000610550610fdd565b73ffffffffffffffffffffffffffffffffffffffff1673ffffffffffffffffffffffffffffffffffffffff168152602001908152602001600020549050828110156105d0576040517f08c379a00000000000000000000000000000000000000000000000000000000081526004016105c790611e58565b60405180910390fd5b6105ed856105dc610fdd565b85846105e891906120fd565b610fe5565b60019150509392505050565b60006103e8826106099190612072565b905060006064600a8361061c91906120a3565b6106269190612072565b90506000818361063691906120fd565b905061064233826111e8565b61064c30836111e8565b3373ffffffffffffffffffffffffffffffffffffffff167ffe5afbc6767cd9a9d720adc8f98d515579c8eba66ad45e4f42f88324fb260d658585604051610694929190611f33565b60405180910390a250505050565b60006012905090565b600061074d6106b8610fdd565b8484600160006106c6610fdd565b73ffffffffffffffffffffffffffffffffffffffff1673ffffffffffffffffffffffffffffffffffffffff16815260200190815260200160002060008873ffffffffffffffffffffffffffffffffffffffff1673ffffffffffffffffffffffffffffffffffffffff16815260200190815260200160002054610748919061201c565b610fe5565b6001905092915050565b61075f610fdd565b73ffffffffffffffffffffffffffffffffffffffff1661077d610b20565b73ffffffffffffffffffffffffffffffffffffffff16146107d3576040517f08c379a00000000000000000000000000000000000000000000000000000000081526004016107ca90611e78565b60405180910390fd5b8051825114610817576040517f08c379a000000000000000000000000000000000000000000000000000000000815260040161080e90611e18565b60405180910390fd5b60005b8251811015610996576108b561082e610b20565b848381518110610867577f4e487b7100000000000000000000000000000000000000000000000000000000600052603260045260246000fd5b60200260200101518484815181106108a8577f4e487b7100000000000000000000000000000000000000000000000000000000600052603260045260246000fd5b60200260200101516111b0565b8281815181106108ee577f4e487b7100000000000000000000000000000000000000000000000000000000600052603260045260246000fd5b602002602001015173ffffffffffffffffffffffffffffffffffffffff167fb82d2a7de6e3c04c554cd659f5f2b8d49c0131c0363c91a4ccef6756d1602990838381518110610966577f4e487b7100000000000000000000000000000000000000000000000000000000600052603260045260246000fd5b602002602001015160405161097b9190611f18565b60405180910390a2808061098e906121eb565b91505061081a565b505050565b60008060008373ffffffffffffffffffffffffffffffffffffffff1673ffffffffffffffffffffffffffffffffffffffff168152602001908152602001600020549050919050565b6109eb610fdd565b73ffffffffffffffffffffffffffffffffffffffff16610a09610b20565b73ffffffffffffffffffffffffffffffffffffffff1614610a5f576040517f08c379a0000000000000000000000000000000000000000000000000000000008152600401610a5690611e78565b60405180910390fd5b600073ffffffffffffffffffffffffffffffffffffffff16600560009054906101000a900473ffffffffffffffffffffffffffffffffffffffff1673ffffffffffffffffffffffffffffffffffffffff167f8be0079c531659141344cd1fd0a4f28419497f9722a3daafe3b4186f6b6457e060405160405180910390a36000600560006101000a81548173ffffffffffffffffffffffffffffffffffffffff021916908373ffffffffffffffffffffffffffffffffffffffff160217905550565b6000600560009054906101000a900473ffffffffffffffffffffffffffffffffffffffff16905090565b69d3c21bcecceda100000081565b606060048054610b67906121b9565b80601f0160208091040260200160405190810160405280929190818152602001828054610b93906121b9565b8015610be05780601f10610bb557610100808354040283529160200191610be0565b820191906000526020600020905b815481529060010190602001808311610bc357829003601f168201915b5050505050905090565b60008060016000610bf9610fdd565b73ffffffffffffffffffffffffffffffffffffffff1673ffffffffffffffffffffffffffffffffffffffff16815260200190815260200160002060008573ffffffffffffffffffffffffffffffffffffffff1673ffffffffffffffffffffffffffffffffffffffff16815260200190815260200160002054905082811015610cb6576040517f08c379a0000000000000000000000000000000000000000000000000000000008152600401610cad90611ed8565b60405180910390fd5b610cd3610cc1610fdd565b858584610cce91906120fd565b610fe5565b600191505092915050565b6000610cf2610ceb610fdd565b84846111b0565b6001905092915050565b80610d063361099b565b1015610d47576040517f08c379a0000000000000000000000000000000000000000000000000000000008152600401610d3e90611e38565b60405180910390fd5b610d5933610d53610b20565b836111b0565b3373ffffffffffffffffffffffffffffffffffffffff167fcb39b47db799499d2adb62e43b9592c8a757a9a05859f57b7c92e9798c5663a282604051610d9f9190611f18565b60405180910390a250565b6000600160008473ffffffffffffffffffffffffffffffffffffffff1673ffffffffffffffffffffffffffffffffffffffff16815260200190815260200160002060008373ffffffffffffffffffffffffffffffffffffffff1673ffffffffffffffffffffffffffffffffffffffff16815260200190815260200160002054905092915050565b610e39610fdd565b73ffffffffffffffffffffffffffffffffffffffff16610e57610b20565b73ffffffffffffffffffffffffffffffffffffffff1614610ead576040517f08c379a0000000000000000000000000000000000000000000000000000000008152600401610ea490611e78565b60405180910390fd5b600073ffffffffffffffffffffffffffffffffffffffff168173ffffffffffffffffffffffffffffffffffffffff161415610f1d576040517f08c379a0000000000000000000000000000000000000000000000000000000008152600401610f1490611db8565b60405180910390fd5b8073ffffffffffffffffffffffffffffffffffffffff16600560009054906101000a900473ffffffffffffffffffffffffffffffffffffffff1673ffffffffffffffffffffffffffffffffffffffff167f8be0079c531659141344cd1fd0a4f28419497f9722a3daafe3b4186f6b6457e060405160405180910390a380600560006101000a81548173ffffffffffffffffffffffffffffffffffffffff021916908373ffffffffffffffffffffffffffffffffffffffff16021790555050565b600033905090565b600073ffffffffffffffffffffffffffffffffffffffff168373ffffffffffffffffffffffffffffffffffffffff161415611055576040517f08c379a000000000000000000000000000000000000000000000000000000000815260040161104c90611eb8565b60405180910390fd5b600073ffffffffffffffffffffffffffffffffffffffff168273ffffffffffffffffffffffffffffffffffffffff1614156110c5576040517f08c379a00000000000000000000000000000000000000000000000000000000081526004016110bc90611dd8565b60405180910390fd5b80600160008573ffffffffffffffffffffffffffffffffffffffff1673ffffffffffffffffffffffffffffffffffffffff16815260200190815260200160002060008473ffffffffffffffffffffffffffffffffffffffff1673ffffffffffffffffffffffffffffffffffffffff168152602001908152602001600020819055508173ffffffffffffffffffffffffffffffffffffffff168373ffffffffffffffffffffffffffffffffffffffff167f8c5be1e5ebec7d5bd14f71427d1e84f3dd0314c0f7b2291e5b200ac8c7c3b925836040516111a39190611f18565b60405180910390a3505050565b6000600a826111bf9190612072565b90506111d7848483856111d291906120fd565b61133c565b6111e284308361133c565b50505050565b600073ffffffffffffffffffffffffffffffffffffffff168273ffffffffffffffffffffffffffffffffffffffff161415611258576040517f08c379a000000000000000000000000000000000000000000000000000000000815260040161124f90611ef8565b60405180910390fd5b611264600083836115bb565b8060026000828254611276919061201c565b92505081905550806000808473ffffffffffffffffffffffffffffffffffffffff1673ffffffffffffffffffffffffffffffffffffffff16815260200190815260200160002060008282546112cb919061201c565b925050819055508173ffffffffffffffffffffffffffffffffffffffff16600073ffffffffffffffffffffffffffffffffffffffff167fddf252ad1be2c89b69c2b068fc378daa952ba7f163c4a11628f55a4df523b3ef836040516113309190611f18565b60405180910390a35050565b600073ffffffffffffffffffffffffffffffffffffffff168373ffffffffffffffffffffffffffffffffffffffff1614156113ac576040517f08c379a00000000000000000000000000000000000000000000000000000000081526004016113a390611e98565b60405180910390fd5b600073ffffffffffffffffffffffffffffffffffffffff168273ffffffffffffffffffffffffffffffffffffffff16141561141c576040517f08c379a000000000000000000000000000000000000000000000000000000000815260040161141390611d98565b60405180910390fd5b6114278383836115bb565b60008060008573ffffffffffffffffffffffffffffffffffffffff1673ffffffffffffffffffffffffffffffffffffffff168152602001908152602001600020549050818110156114ad576040517f08c379a00000000000000000000000000000000000000000000000000000000081526004016114a490611df8565b60405180910390fd5b81816114b991906120fd565b6000808673ffffffffffffffffffffffffffffffffffffffff1673ffffffffffffffffffffffffffffffffffffffff16815260200190815260200160002081905550816000808573ffffffffffffffffffffffffffffffffffffffff1673ffffffffffffffffffffffffffffffffffffffff1681526020019081526020016000206000828254611549919061201c565b925050819055508273ffffffffffffffffffffffffffffffffffffffff168473ffffffffffffffffffffffffffffffffffffffff167fddf252ad1be2c89b69c2b068fc378daa952ba7f163c4a11628f55a4df523b3ef846040516115ad9190611f18565b60405180910390a350505050565b505050565b60006115d36115ce84611fa8565b611f77565b905080838252602082019050828560208602820111156115f257600080fd5b60005b8581101561162257816116088882611698565b8452602084019350602083019250506001810190506115f5565b5050509392505050565b600061163f61163a84611fd4565b611f77565b9050808382526020820190508285602086028201111561165e57600080fd5b60005b8581101561168e57816116748882611701565b845260208401935060208301925050600181019050611661565b5050509392505050565b6000813590506116a781612301565b92915050565b600082601f8301126116be57600080fd5b81356116ce8482602086016115c0565b91505092915050565b600082601f8301126116e857600080fd5b81356116f884826020860161162c565b91505092915050565b60008135905061171081612318565b92915050565b60006020828403121561172857600080fd5b600061173684828501611698565b91505092915050565b6000806040838503121561175257600080fd5b600061176085828601611698565b925050602061177185828601611698565b9150509250929050565b60008060006060848603121561179057600080fd5b600061179e86828701611698565b93505060206117af86828701611698565b92505060406117c086828701611701565b9150509250925092565b600080604083850312156117dd57600080fd5b60006117eb85828601611698565b92505060206117fc85828601611701565b9150509250929050565b6000806040838503121561181957600080fd5b600083013567ffffffffffffffff81111561183357600080fd5b61183f858286016116ad565b925050602083013567ffffffffffffffff81111561185c57600080fd5b611868858286016116d7565b9150509250929050565b60006020828403121561188457600080fd5b600061189284828501611701565b91505092915050565b6118a481612131565b82525050565b6118b381612143565b82525050565b60006118c482612000565b6118ce818561200b565b93506118de818560208601612186565b6118e7816122f0565b840191505092915050565b60006118ff60238361200b565b91507f45524332303a207472616e7366657220746f20746865207a65726f206164647260008301527f65737300000000000000000000000000000000000000000000000000000000006020830152604082019050919050565b600061196560268361200b565b91507f4f776e61626c653a206e6577206f776e657220697320746865207a65726f206160008301527f64647265737300000000000000000000000000000000000000000000000000006020830152604082019050919050565b60006119cb60228361200b565b91507f45524332303a20617070726f766520746f20746865207a65726f20616464726560008301527f73730000000000000000000000000000000000000000000000000000000000006020830152604082019050919050565b6000611a3160268361200b565b91507f45524332303a207472616e7366657220616d6f756e742065786365656473206260008301527f616c616e636500000000000000000000000000000000000000000000000000006020830152604082019050919050565b6000611a9760158361200b565b91507f496e76616c696420696e707574206c656e6774687300000000000000000000006000830152602082019050919050565b6000611ad760128361200b565b91507f496e73756666696369656e742066756e647300000000000000000000000000006000830152602082019050919050565b6000611b1760288361200b565b91507f45524332303a207472616e7366657220616d6f756e742065786365656473206160008301527f6c6c6f77616e63650000000000000000000000000000000000000000000000006020830152604082019050919050565b6000611b7d60208361200b565b91507f4f776e61626c653a2063616c6c6572206973206e6f7420746865206f776e65726000830152602082019050919050565b6000611bbd60258361200b565b91507f45524332303a207472616e736665722066726f6d20746865207a65726f20616460008301527f64726573730000000000000000000000000000000000000000000000000000006020830152604082019050919050565b6000611c2360248361200b565b91507f45524332303a20617070726f76652066726f6d20746865207a65726f2061646460008301527f72657373000000000000000000000000000000000000000000000000000000006020830152604082019050919050565b6000611c8960258361200b565b91507f45524332303a2064656372656173656420616c6c6f77616e63652062656c6f7760008301527f207a65726f0000000000000000000000000000000000000000000000000000006020830152604082019050919050565b6000611cef601f8361200b565b91507f45524332303a206d696e7420746f20746865207a65726f2061646472657373006000830152602082019050919050565b611d2b8161216f565b82525050565b611d3a81612179565b82525050565b6000602082019050611d55600083018461189b565b92915050565b6000602082019050611d7060008301846118aa565b92915050565b60006020820190508181036000830152611d9081846118b9565b905092915050565b60006020820190508181036000830152611db1816118f2565b9050919050565b60006020820190508181036000830152611dd181611958565b9050919050565b60006020820190508181036000830152611df1816119be565b9050919050565b60006020820190508181036000830152611e1181611a24565b9050919050565b60006020820190508181036000830152611e3181611a8a565b9050919050565b60006020820190508181036000830152611e5181611aca565b9050919050565b60006020820190508181036000830152611e7181611b0a565b9050919050565b60006020820190508181036000830152611e9181611b70565b9050919050565b60006020820190508181036000830152611eb181611bb0565b9050919050565b60006020820190508181036000830152611ed181611c16565b9050919050565b60006020820190508181036000830152611ef181611c7c565b9050919050565b60006020820190508181036000830152611f1181611ce2565b9050919050565b6000602082019050611f2d6000830184611d22565b92915050565b6000604082019050611f486000830185611d22565b611f556020830184611d22565b9392505050565b6000602082019050611f716000830184611d31565b92915050565b6000604051905081810181811067ffffffffffffffff82111715611f9e57611f9d6122c1565b5b8060405250919050565b600067ffffffffffffffff821115611fc357611fc26122c1565b5b602082029050602081019050919050565b600067ffffffffffffffff821115611fef57611fee6122c1565b5b602082029050602081019050919050565b600081519050919050565b600082825260208201905092915050565b60006120278261216f565b91506120328361216f565b9250827fffffffffffffffffffffffffffffffffffffffffffffffffffffffffffffffff0382111561206757612066612234565b5b828201905092915050565b600061207d8261216f565b91506120888361216f565b92508261209857612097612263565b5b828204905092915050565b60006120ae8261216f565b91506120b98361216f565b9250817fffffffffffffffffffffffffffffffffffffffffffffffffffffffffffffffff04831182151516156120f2576120f1612234565b5b828202905092915050565b60006121088261216f565b91506121138361216f565b92508282101561212657612125612234565b5b828203905092915050565b600061213c8261214f565b9050919050565b60008115159050919050565b600073ffffffffffffffffffffffffffffffffffffffff82169050919050565b6000819050919050565b600060ff82169050919050565b60005b838110156121a4578082015181840152602081019050612189565b838111156121b3576000848401525b50505050565b600060028204905060018216806121d157607f821691505b602082108114156121e5576121e4612292565b5b50919050565b60006121f68261216f565b91507fffffffffffffffffffffffffffffffffffffffffffffffffffffffffffffffff82141561222957612228612234565b5b600182019050919050565b7f4e487b7100000000000000000000000000000000000000000000000000000000600052601160045260246000fd5b7f4e487b7100000000000000000000000000000000000000000000000000000000600052601260045260246000fd5b7f4e487b7100000000000000000000000000000000000000000000000000000000600052602260045260246000fd5b7f4e487b7100000000000000000000000000000000000000000000000000000000600052604160045260246000fd5b6000601f19601f8301169050919050565b61230a81612131565b811461231557600080fd5b50565b6123218161216f565b811461232c57600080fd5b5056fea2646970667358221220c34b8a6c43f0c47345dbce8db385a2a00fed3b5ad28da9e8a8f4f4fbb3d239c164736f6c63430008000033",
  "immutableReferences": {},
  "source": "// SPDX-License-Identifier: MIT\r\npragma solidity ^0.8.0;\r\n\r\nimport \"@openzeppelin/contracts/token/ERC20/ERC20.sol\";\r\nimport \"@openzeppelin/contracts/access/Ownable.sol\";\r\n\r\ncontract SDVToken is ERC20, Ownable {\r\n    uint256 public constant TOTAL_SUPPLY = 1_000_000 * (10 ** 18);\r\n\r\n    event TokensAirdropped(address indexed user, uint256 amount);\r\n    event MerchandisePurchased(address indexed user, uint256 amount);\r\n    event TokensApproved(address indexed owner, address indexed spender, uint256 amount);\r\n    event PointsExchanged(address indexed user, uint256 points, uint256 tokens);\r\n\r\n    constructor() ERC20(\"SDVToken\", \"SDV\") {\r\n        _mint(msg.sender, TOTAL_SUPPLY);\r\n    }\r\n\r\n    function _transfer(address sender, address recipient, uint256 amount) internal virtual override {\r\n        uint256 commonPoolAmount = amount / 10; \r\n\r\n        super._transfer(sender, recipient, amount - commonPoolAmount); \r\n        super._transfer(sender, address(this), commonPoolAmount); \r\n    }\r\n\r\n    function airdropTokens(address[] memory _users, uint256[] memory _amounts) external onlyOwner {\r\n        require(_users.length == _amounts.length, \"Invalid input lengths\");\r\n\r\n        for (uint256 i = 0; i < _users.length; i++) {\r\n            _transfer(owner(), _users[i], _amounts[i]);\r\n\r\n            emit TokensAirdropped(_users[i], _amounts[i]);\r\n        }\r\n    }\r\n\r\n    function purchaseMerchandise(uint256 _amount) external {\r\n        require(balanceOf(msg.sender) >= _amount, \"Insufficient funds\");\r\n\r\n        _transfer(msg.sender, owner(), _amount);\r\n\r\n        emit MerchandisePurchased(msg.sender, _amount);\r\n    }\r\n\r\n    function exchangePointsForTokens(uint256 _pointsToExchange) external {\r\n        uint256 tokenAmount = _pointsToExchange / 1000; \r\n        uint256 poolAmount = tokenAmount * 10 / 100; \r\n        uint256 userTokenAmount = tokenAmount - poolAmount;\r\n\r\n        _mint(msg.sender, userTokenAmount);\r\n\r\n        _mint(address(this), poolAmount);\r\n\r\n        emit PointsExchanged(msg.sender, _pointsToExchange, tokenAmount);\r\n    }\r\n\r\n    function approve(address spender, uint256 amount) public override returns (bool) {\r\n        _approve(_msgSender(), spender, amount);\r\n        emit Approval(_msgSender(), spender, amount);\r\n        return true;\r\n    }\r\n\r\n    function getCommonPoolBalance() external view returns (uint256) {\r\n        return balanceOf(address(this));\r\n    }\r\n}\r\n",
  "sourcePath": "C:\\Users\\i\\Documents\\GitHub\\DSP\\contracts\\contracts\\SDVLoyaltyGroupToken.sol",
  "compiler": {
    "name": "solc",
    "version": "0.8.0+commit.c7dfd78e.Emscripten.clang"
  },
  "schemaVersion": "3.4.16",
  "updatedAt": "2024-02-27T08:16:53.702Z",
  "networkType": "ethereum",
  "devdoc": {
    "kind": "dev",
    "methods": {
      "allowance(address,address)": {
        "details": "See {IERC20-allowance}."
      },
      "approve(address,uint256)": {
        "details": "See {IERC20-approve}. Requirements: - `spender` cannot be the zero address."
      },
      "balanceOf(address)": {
        "details": "See {IERC20-balanceOf}."
      },
      "decimals()": {
        "details": "Returns the number of decimals used to get its user representation. For example, if `decimals` equals `2`, a balance of `505` tokens should be displayed to a user as `5,05` (`505 / 10 ** 2`). Tokens usually opt for a value of 18, imitating the relationship between Ether and Wei. This is the value {ERC20} uses, unless this function is overloaded; NOTE: This information is only used for _display_ purposes: it in no way affects any of the arithmetic of the contract, including {IERC20-balanceOf} and {IERC20-transfer}."
      },
      "decreaseAllowance(address,uint256)": {
        "details": "Atomically decreases the allowance granted to `spender` by the caller. This is an alternative to {approve} that can be used as a mitigation for problems described in {IERC20-approve}. Emits an {Approval} event indicating the updated allowance. Requirements: - `spender` cannot be the zero address. - `spender` must have allowance for the caller of at least `subtractedValue`."
      },
      "increaseAllowance(address,uint256)": {
        "details": "Atomically increases the allowance granted to `spender` by the caller. This is an alternative to {approve} that can be used as a mitigation for problems described in {IERC20-approve}. Emits an {Approval} event indicating the updated allowance. Requirements: - `spender` cannot be the zero address."
      },
      "name()": {
        "details": "Returns the name of the token."
      },
      "owner()": {
        "details": "Returns the address of the current owner."
      },
      "renounceOwnership()": {
        "details": "Leaves the contract without owner. It will not be possible to call `onlyOwner` functions anymore. Can only be called by the current owner. NOTE: Renouncing ownership will leave the contract without an owner, thereby removing any functionality that is only available to the owner."
      },
      "symbol()": {
        "details": "Returns the symbol of the token, usually a shorter version of the name."
      },
      "totalSupply()": {
        "details": "See {IERC20-totalSupply}."
      },
      "transfer(address,uint256)": {
        "details": "See {IERC20-transfer}. Requirements: - `recipient` cannot be the zero address. - the caller must have a balance of at least `amount`."
      },
      "transferFrom(address,address,uint256)": {
        "details": "See {IERC20-transferFrom}. Emits an {Approval} event indicating the updated allowance. This is not required by the EIP. See the note at the beginning of {ERC20}. Requirements: - `sender` and `recipient` cannot be the zero address. - `sender` must have a balance of at least `amount`. - the caller must have allowance for ``sender``'s tokens of at least `amount`."
      },
      "transferOwnership(address)": {
        "details": "Transfers ownership of the contract to a new account (`newOwner`). Can only be called by the current owner."
      }
    },
    "version": 1
  },
  "userdoc": {
    "kind": "user",
    "methods": {},
    "version": 1
  }
}